{
	"data": {
		"bytecode": {
			"linkReferences": {},
			"object": "61018060405273f9b8fc078197181c841c296c876945aaa425b27873ffffffffffffffffffffffffffffffffffffffff1660a09073ffffffffffffffffffffffffffffffffffffffff168152507f66756e2d626173652d7365706f6c69612d31000000000000000000000000000060c0908152507371041dddad3595f9ced3d1f4b351f63d6b6fe84c73ffffffffffffffffffffffffffffffffffffffff1660e09073ffffffffffffffffffffffffffffffffffffffff168152503480156100c5575f5ffd5b50604051615c9a380380615c9a83398181016040528101906100e791906104a9565b33805f60a0518073ffffffffffffffffffffffffffffffffffffffff1660808173ffffffffffffffffffffffffffffffffffffffff1681525050505f73ffffffffffffffffffffffffffffffffffffffff168273ffffffffffffffffffffffffffffffffffffffff1603610190576040517f08c379a000000000000000000000000000000000000000000000000000000000815260040161018790610553565b60405180910390fd5b815f5f6101000a81548173ffffffffffffffffffffffffffffffffffffffff021916908373ffffffffffffffffffffffffffffffffffffffff1602179055505f73ffffffffffffffffffffffffffffffffffffffff168173ffffffffffffffffffffffffffffffffffffffff161461021257610211816102e360201b60201c565b5b50505060016002819055508273ffffffffffffffffffffffffffffffffffffffff166101008173ffffffffffffffffffffffffffffffffffffffff16815250508173ffffffffffffffffffffffffffffffffffffffff166101208173ffffffffffffffffffffffffffffffffffffffff168152505060e05173ffffffffffffffffffffffffffffffffffffffff166101408173ffffffffffffffffffffffffffffffffffffffff16815250508067ffffffffffffffff166101608167ffffffffffffffff16815250505050506105d9565b3373ffffffffffffffffffffffffffffffffffffffff168173ffffffffffffffffffffffffffffffffffffffff1603610351576040517f08c379a0000000000000000000000000000000000000000000000000000000008152600401610348906105bb565b60405180910390fd5b8060015f6101000a81548173ffffffffffffffffffffffffffffffffffffffff021916908373ffffffffffffffffffffffffffffffffffffffff1602179055508073ffffffffffffffffffffffffffffffffffffffff165f5f9054906101000a900473ffffffffffffffffffffffffffffffffffffffff1673ffffffffffffffffffffffffffffffffffffffff167fed8889f560326eb138920d842192f0eb3dd22b4f139c87a2c57538e05bae127860405160405180910390a350565b5f5ffd5b5f73ffffffffffffffffffffffffffffffffffffffff82169050919050565b5f61043b82610412565b9050919050565b61044b81610431565b8114610455575f5ffd5b50565b5f8151905061046681610442565b92915050565b5f67ffffffffffffffff82169050919050565b6104888161046c565b8114610492575f5ffd5b50565b5f815190506104a38161047f565b92915050565b5f5f5f606084860312156104c0576104bf61040e565b5b5f6104cd86828701610458565b93505060206104de86828701610458565b92505060406104ef86828701610495565b9150509250925092565b5f82825260208201905092915050565b7f43616e6e6f7420736574206f776e657220746f207a65726f00000000000000005f82015250565b5f61053d6018836104f9565b915061054882610509565b602082019050919050565b5f6020820190508181035f83015261056a81610531565b9050919050565b7f43616e6e6f74207472616e7366657220746f2073656c660000000000000000005f82015250565b5f6105a56017836104f9565b91506105b082610571565b602082019050919050565b5f6020820190508181035f8301526105d281610599565b9050919050565b60805160a05160c05160e0516101005161012051610140516101605161562d61066d5f395f81816115fe01526119cc01525f61105501525f81816107ee0152818161115901526111ea01525f8181610455015281816105360152818161061201528181610f050152611d8001525f50505f818161162301526119f101525f50505f818161023c015261282d015261562d5ff3fe608060405234801561000f575f5ffd5b50600436106100b2575f3560e01c80638da5cb5b1161006f5780638da5cb5b1461018e578063c320c1b9146101ac578063c7b4e68a146101b6578063cd8b10b3146101e6578063ec4fd91414610202578063f2fde38b1461021e576100b2565b80630ca76175146100b65780632ac87aa6146100d25780632d8b23c8146100ee578063431a1b971461011e57806379ba5097146101545780638c8e13b91461015e575b5f5ffd5b6100d060048036038101906100cb9190613429565b61023a565b005b6100ec60048036038101906100e7919061350e565b6102fc565b005b61010860048036038101906101039190613559565b61091b565b60405161011591906135c3565b60405180910390f35b61013860048036038101906101339190613606565b61094b565b60405161014b97969594939291906136de565b60405180910390f35b61015c610a34565b005b61017860048036038101906101739190613606565b610bc3565b6040516101859190613936565b60405180910390f35b610196610def565b6040516101a391906135c3565b60405180910390f35b6101b4610e16565b005b6101d060048036038101906101cb9190613980565b611051565b6040516101dd91906139ab565b60405180910390f35b61020060048036038101906101fb9190613980565b61114f565b005b61021c600480360381019061021791906139ee565b6116ab565b005b61023860048036038101906102339190613606565b611aae565b005b7f000000000000000000000000000000000000000000000000000000000000000073ffffffffffffffffffffffffffffffffffffffff163373ffffffffffffffffffffffffffffffffffffffff16146102bf576040517fc6829f8300000000000000000000000000000000000000000000000000000000815260040160405180910390fd5b6102ca838383611ac2565b827f85e1543bf2f84fe80c6badbce3648c8539ad1df4d2b3d822938ca0538be727e660405160405180910390a2505050565b610304611edb565b600582829050101561034b576040517f08c379a000000000000000000000000000000000000000000000000000000000815260040161034290613a63565b60405180910390fd5b61036082829061035b9190613bd0565b611f28565b61039f576040517f08c379a000000000000000000000000000000000000000000000000000000000815260040161039690613c2e565b60405180910390fd5b5f60035f3373ffffffffffffffffffffffffffffffffffffffff1673ffffffffffffffffffffffffffffffffffffffff1681526020019081526020015f209050806004015f9054906101000a900460ff16158061040c57506101c281600301546104099190613c79565b42115b61044b576040517f08c379a000000000000000000000000000000000000000000000000000000000815260040161044290613cf6565b60405180910390fd5b662386f26fc100007f000000000000000000000000000000000000000000000000000000000000000073ffffffffffffffffffffffffffffffffffffffff166370a08231336040518263ffffffff1660e01b81526004016104ac91906135c3565b602060405180830381865afa1580156104c7573d5f5f3e3d5ffd5b505050506040513d601f19601f820116820180604052508101906104eb9190613d28565b101561052c576040517f08c379a000000000000000000000000000000000000000000000000000000000815260040161052390613d9d565b60405180910390fd5b662386f26fc100007f000000000000000000000000000000000000000000000000000000000000000073ffffffffffffffffffffffffffffffffffffffff1663dd62ed3e33306040518363ffffffff1660e01b815260040161058f929190613dbb565b602060405180830381865afa1580156105aa573d5f5f3e3d5ffd5b505050506040513d601f19601f820116820180604052508101906105ce9190613d28565b101561060f576040517f08c379a000000000000000000000000000000000000000000000000000000000815260040161060690613e2c565b60405180910390fd5b5f7f000000000000000000000000000000000000000000000000000000000000000073ffffffffffffffffffffffffffffffffffffffff166323b872dd3330662386f26fc100006040518463ffffffff1660e01b815260040161067493929190613e4a565b6020604051808303815f875af1158015610690573d5f5f3e3d5ffd5b505050506040513d601f19601f820116820180604052508101906106b49190613ea9565b9050806106f6576040517f08c379a00000000000000000000000000000000000000000000000000000000081526004016106ed90613f1e565b60405180910390fd5b6001826004015f6101000a81548160ff0219169083151502179055505f826001015f6101000a81548160ff021916908360ff1602179055505f8260020181905550428260030181905550600a8260040160016101000a81548160ff021916908360ff160217905550816006015f61076d9190613122565b5f5f90505b848490508110156107ea578260060185858381811061079457610793613f3c565b5b90506020028101906107a69190613f75565b90918060018154018082558091505060019003905f5260205f20015f9091929091929091929091925091826107dc9291906141de565b508080600101915050610772565b505f7f000000000000000000000000000000000000000000000000000000000000000073ffffffffffffffffffffffffffffffffffffffff166380c95b14336040518263ffffffff1660e01b815260040161084591906135c3565b6020604051808303815f875af1158015610861573d5f5f3e3d5ffd5b505050506040513d601f19601f820116820180604052508101906108859190613d28565b905080836005018190555061089981611f7a565b6040516020016108a9919061432f565b604051602081830303815290604052835f0190816108c79190614350565b503373ffffffffffffffffffffffffffffffffffffffff16817ff7a8e0c42c700f462b414bceac8ab3195e1aaf10f2be5ee09b146bc290c1613060405160405180910390a35050506109176120f3565b5050565b6004602052805f5260405f205f915054906101000a900473ffffffffffffffffffffffffffffffffffffffff1681565b6003602052805f5260405f205f91509050805f01805461096a9061400e565b80601f01602080910402602001604051908101604052809291908181526020018280546109969061400e565b80156109e15780601f106109b8576101008083540402835291602001916109e1565b820191905f5260205f20905b8154815290600101906020018083116109c457829003601f168201915b505050505090806001015f9054906101000a900460ff1690806002015490806003015490806004015f9054906101000a900460ff16908060040160019054906101000a900460ff16908060050154905087565b60015f9054906101000a900473ffffffffffffffffffffffffffffffffffffffff1673ffffffffffffffffffffffffffffffffffffffff163373ffffffffffffffffffffffffffffffffffffffff1614610ac3576040517f08c379a0000000000000000000000000000000000000000000000000000000008152600401610aba90614469565b60405180910390fd5b5f5f5f9054906101000a900473ffffffffffffffffffffffffffffffffffffffff169050335f5f6101000a81548173ffffffffffffffffffffffffffffffffffffffff021916908373ffffffffffffffffffffffffffffffffffffffff1602179055505f60015f6101000a81548173ffffffffffffffffffffffffffffffffffffffff021916908373ffffffffffffffffffffffffffffffffffffffff1602179055503373ffffffffffffffffffffffffffffffffffffffff168173ffffffffffffffffffffffffffffffffffffffff167f8be0079c531659141344cd1fd0a4f28419497f9722a3daafe3b4186f6b6457e060405160405180910390a350565b610bcb613140565b60035f8373ffffffffffffffffffffffffffffffffffffffff1673ffffffffffffffffffffffffffffffffffffffff1681526020019081526020015f20604051806101000160405290815f82018054610c239061400e565b80601f0160208091040260200160405190810160405280929190818152602001828054610c4f9061400e565b8015610c9a5780601f10610c7157610100808354040283529160200191610c9a565b820191905f5260205f20905b815481529060010190602001808311610c7d57829003601f168201915b50505050508152602001600182015f9054906101000a900460ff1660ff1660ff1681526020016002820154815260200160038201548152602001600482015f9054906101000a900460ff161515151581526020016004820160019054906101000a900460ff1660ff1660ff1681526020016005820154815260200160068201805480602002602001604051908101604052809291908181526020015f905b82821015610de0578382905f5260205f20018054610d559061400e565b80601f0160208091040260200160405190810160405280929190818152602001828054610d819061400e565b8015610dcc5780601f10610da357610100808354040283529160200191610dcc565b820191905f5260205f20905b815481529060010190602001808311610daf57829003601f168201915b505050505081526020019060010190610d38565b50505050815250509050919050565b5f5f5f9054906101000a900473ffffffffffffffffffffffffffffffffffffffff16905090565b610e1e611edb565b5f60035f3373ffffffffffffffffffffffffffffffffffffffff1673ffffffffffffffffffffffffffffffffffffffff1681526020019081526020015f209050806004015f9054906101000a900460ff16610eae576040517f08c379a0000000000000000000000000000000000000000000000000000000008152600401610ea5906144d1565b60405180910390fd5b6101c28160030154610ec09190613c79565b421115610f02576040517f08c379a0000000000000000000000000000000000000000000000000000000008152600401610ef990614539565b60405180910390fd5b5f7f000000000000000000000000000000000000000000000000000000000000000073ffffffffffffffffffffffffffffffffffffffff1663a9059cbb33662386f26fc100006040518363ffffffff1660e01b8152600401610f65929190614557565b6020604051808303815f875af1158015610f81573d5f5f3e3d5ffd5b505050506040513d601f19601f82011682018060405250810190610fa59190613ea9565b905080610fe7576040517f08c379a0000000000000000000000000000000000000000000000000000000008152600401610fde906145c8565b60405180910390fd5b5f826004015f6101000a81548160ff0219169083151502179055503373ffffffffffffffffffffffffffffffffffffffff167fd9ef658e62b2d2ec36ea56e68db6f49dcb5e7977f243f28354069876ad0b90e460405160405180910390a2505061104f6120f3565b565b5f5f7f000000000000000000000000000000000000000000000000000000000000000073ffffffffffffffffffffffffffffffffffffffff1663feaf968c6040518163ffffffff1660e01b815260040160a060405180830381865afa1580156110bc573d5f5f3e3d5ffd5b505050506040513d601f19601f820116820180604052508101906110e09190614658565b5050509150505f8113611128576040517f08c379a000000000000000000000000000000000000000000000000000000000815260040161111f90614719565b60405180910390fd5b670de0b6b3a7640000818461113d9190614737565b61114791906147a5565b915050919050565b611157611edb565b7f000000000000000000000000000000000000000000000000000000000000000073ffffffffffffffffffffffffffffffffffffffff163373ffffffffffffffffffffffffffffffffffffffff16146111e5576040517f08c379a00000000000000000000000000000000000000000000000000000000081526004016111dc9061481f565b60405180910390fd5b5f5f5f7f000000000000000000000000000000000000000000000000000000000000000073ffffffffffffffffffffffffffffffffffffffff1663d8a4676f856040518263ffffffff1660e01b815260040161124191906139ab565b5f60405180830381865afa15801561125b573d5f5f3e3d5ffd5b505050506040513d5f823e3d601f19601f820116820180604052508101906112839190614911565b925092509250826112c9576040517f08c379a00000000000000000000000000000000000000000000000000000000081526004016112c0906149c7565b60405180910390fd5b5f60035f8373ffffffffffffffffffffffffffffffffffffffff1673ffffffffffffffffffffffffffffffffffffffff1681526020019081526020015f209050806004015f9054906101000a900460ff16611359576040517f08c379a0000000000000000000000000000000000000000000000000000000008152600401611350906144d1565b60405180910390fd5b8481600501541461139f576040517f08c379a000000000000000000000000000000000000000000000000000000000815260040161139690614a2f565b60405180910390fd5b5f6113d26305f5e100855f815181106113bb576113ba613f3c565b5b60200260200101516113cd9190614a4d565b611f7a565b6040516020016113e2919061432f565b604051602081830303815290604052905080825f0190816114039190614350565b5061140c613187565b6114266114176120fd565b8261212090919063ffffffff16565b5f600467ffffffffffffffff81111561144257611441613305565b5b60405190808252806020026020018201604052801561147557816020015b60608152602001906001900390816114605790505b50905061154f84600601805480602002602001604051908101604052809291908181526020015f905b82821015611546578382905f5260205f200180546114bb9061400e565b80601f01602080910402602001604051908101604052809291908181526020018280546114e79061400e565b80156115325780601f1061150957610100808354040283529160200191611532565b820191905f5260205f20905b81548152906001019060200180831161151557829003601f168201915b50505050508152602001906001019061149e565b50505050612130565b815f8151811061156257611561613f3c565b5b602002602001018190525061157685612159565b8160018151811061158a57611589613f3c565b5b602002602001018190525082816002815181106115aa576115a9613f3c565b5b60200260200101819052506115bd61239a565b816003815181106115d1576115d0613f3c565b5b60200260200101819052506115ef81836123d790919063ffffffff16565b5f6116476115fc8461241e565b7f0000000000000000000000000000000000000000000000000000000000000000620493e07f0000000000000000000000000000000000000000000000000000000000000000612829565b90508560045f8381526020019081526020015f205f6101000a81548173ffffffffffffffffffffffffffffffffffffffff021916908373ffffffffffffffffffffffffffffffffffffffff16021790555050505050505050506116a86120f3565b50565b6116b3611edb565b5f60035f3373ffffffffffffffffffffffffffffffffffffffff1673ffffffffffffffffffffffffffffffffffffffff1681526020019081526020015f209050806004015f9054906101000a900460ff16611743576040517f08c379a000000000000000000000000000000000000000000000000000000000815260040161173a906144d1565b60405180910390fd5b8060040160019054906101000a900460ff1660ff16816001015f9054906101000a900460ff1660ff16106117ac576040517f08c379a00000000000000000000000000000000000000000000000000000000081526004016117a390614ac7565b60405180910390fd5b6101c281600301546117be9190613c79565b421115611800576040517f08c379a00000000000000000000000000000000000000000000000000000000081526004016117f790614539565b60405180910390fd5b611808613187565b611822611813612908565b8261212090919063ffffffff16565b5f600467ffffffffffffffff81111561183e5761183d613305565b5b60405190808252806020026020018201604052801561187157816020015b606081526020019060019003908161185c5790505b509050825f0180546118829061400e565b80601f01602080910402602001604051908101604052809291908181526020018280546118ae9061400e565b80156118f95780601f106118d0576101008083540402835291602001916118f9565b820191905f5260205f20905b8154815290600101906020018083116118dc57829003601f168201915b5050505050815f8151811061191157611910613f3c565b5b602002602001018190525061192533612159565b8160018151811061193957611938613f3c565b5b6020026020010181905250611960836001015f9054906101000a900460ff1660ff16611f7a565b8160028151811061197457611973613f3c565b5b602002602001018190525061198b8460ff16611f7a565b8160038151811061199f5761199e613f3c565b5b60200260200101819052506119bd81836123d790919063ffffffff16565b5f611a156119ca8461241e565b7f0000000000000000000000000000000000000000000000000000000000000000620493e07f0000000000000000000000000000000000000000000000000000000000000000612829565b90503360045f8381526020019081526020015f205f6101000a81548173ffffffffffffffffffffffffffffffffffffffff021916908373ffffffffffffffffffffffffffffffffffffffff160217905550836001015f81819054906101000a900460ff1680929190611a8690614ae5565b91906101000a81548160ff021916908360ff1602179055505050505050611aab6120f3565b50565b611ab661292b565b611abf816129bb565b50565b5f60045f8581526020019081526020015f205f9054906101000a900473ffffffffffffffffffffffffffffffffffffffff1690505f73ffffffffffffffffffffffffffffffffffffffff168173ffffffffffffffffffffffffffffffffffffffff1603611b64576040517f08c379a0000000000000000000000000000000000000000000000000000000008152600401611b5b90614b57565b60405180910390fd5b5f60035f8373ffffffffffffffffffffffffffffffffffffffff1673ffffffffffffffffffffffffffffffffffffffff1681526020019081526020015f2090505f83511115611c12575f816004015f6101000a81548160ff0219169083151502179055508173ffffffffffffffffffffffffffffffffffffffff167fd9ef658e62b2d2ec36ea56e68db6f49dcb5e7977f243f28354069876ad0b90e460405160405180910390a25050611ed6565b5f81600501541115611c7e578173ffffffffffffffffffffffffffffffffffffffff167fe0d683e49f05667b1468856383469fe4f167381d41a145033167afb7a98adec1825f0187604051611c68929190614c05565b60405180910390a25f8160050181905550611ed3565b5f84806020019051810190611c939190613ea9565b90508015611cb557816002015f815480929190611caf90614c33565b91905055505b8273ffffffffffffffffffffffffffffffffffffffff167f80a5e4fd680199ed77f69cedde1ae21ee8d0f50a6d3e42d85f2e0b5dd69675c46001846001015f9054906101000a900460ff16611d0a9190614c7a565b83604051611d19929190614cae565b60405180910390a28160040160019054906101000a900460ff1660ff16826001015f9054906101000a900460ff1660ff1610611ed1575f66b1a2bc2ec500008360020154611d679190614737565b90505f611d7382611051565b90505f821115611e5d575f7f000000000000000000000000000000000000000000000000000000000000000073ffffffffffffffffffffffffffffffffffffffff1663a9059cbb87856040518363ffffffff1660e01b8152600401611dd9929190614557565b6020604051808303815f875af1158015611df5573d5f5f3e3d5ffd5b505050506040513d601f19601f82011682018060405250810190611e199190613ea9565b905080611e5b576040517f08c379a0000000000000000000000000000000000000000000000000000000008152600401611e5290614d1f565b60405180910390fd5b505b5f846004015f6101000a81548160ff0219169083151502179055508473ffffffffffffffffffffffffffffffffffffffff167fa0d4582659e33ebf7e1e80b7fd9c16d821a7f74598c47a09f3b891b428e268cb85600201548484604051611ec693929190614d3d565b60405180910390a250505b505b50505b505050565b6002805403611f1f576040517f08c379a0000000000000000000000000000000000000000000000000000000008152600401611f1690614dbc565b60405180910390fd5b60028081905550565b5f5f5f90505b8251811015611f6f575f838281518110611f4b57611f4a613f3c565b5b60200260200101515103611f62575f915050611f75565b8080600101915050611f2e565b50600190505b919050565b60605f8203611fc0576040518060400160405280600181526020017f300000000000000000000000000000000000000000000000000000000000000081525090506120ee565b5f8290505f5b5f8214611fef578080611fd890614c33565b915050600a82611fe891906147a5565b9150611fc6565b5f8167ffffffffffffffff81111561200a57612009613305565b5b6040519080825280601f01601f19166020018201604052801561203c5781602001600182028036833780820191505090505b5090505f8290505b5f86146120e6576001816120589190614dda565b90505f600a808861206991906147a5565b6120739190614737565b8761207e9190614dda565b603061208a9190614e0d565b90508060f81b8383815181106120a3576120a2613f3c565b5b60200101907effffffffffffffffffffffffffffffffffffffffffffffffffffffffffffff191690815f1a905350600a876120de91906147a5565b965050612044565b819450505050505b919050565b6001600281905550565b6060604051806101c0016040528061019b81526020016152a061019b9139905090565b61212c825f5f84612ae6565b5050565b6060816040516020016121439190614ec4565b6040516020818303038152906040529050919050565b60605f602a67ffffffffffffffff81111561217757612176613305565b5b6040519080825280601f01601f1916602001820160405280156121a95781602001600182028036833780820191505090505b5090507f3000000000000000000000000000000000000000000000000000000000000000815f815181106121e0576121df613f3c565b5b60200101907effffffffffffffffffffffffffffffffffffffffffffffffffffffffffffff191690815f1a9053507f78000000000000000000000000000000000000000000000000000000000000008160018151811061224357612242613f3c565b5b60200101907effffffffffffffffffffffffffffffffffffffffffffffffffffffffffffff191690815f1a9053505f5f90505b6014811015612390575f60088261228d9190614737565b60986122999190614dda565b8573ffffffffffffffffffffffffffffffffffffffff16901c90506122c460048260ff16901c612b8c565b836002846122d29190614737565b60026122de9190613c79565b815181106122ef576122ee613f3c565b5b60200101907effffffffffffffffffffffffffffffffffffffffffffffffffffffffffffff191690815f1a905350612329600f8216612b8c565b836002846123379190614737565b60036123439190613c79565b8151811061235457612353613f3c565b5b60200101907effffffffffffffffffffffffffffffffffffffffffffffffffffffffffffff191690815f1a905350508080600101915050612276565b5080915050919050565b60606040518060400160405280601581526020017f687474703a2f2f6c6f63616c686f73743a353030300000000000000000000000815250905090565b5f815103612411576040517ffe936cb700000000000000000000000000000000000000000000000000000000815260040160405180910390fd5b808260a001819052505050565b60605f61242c610100612bc8565b90506124766040518060400160405280600c81526020017f636f64654c6f636174696f6e000000000000000000000000000000000000000081525082612bed90919063ffffffff16565b61249e835f0151600281111561248f5761248e614ee4565b5b82612c1590919063ffffffff16565b6124e66040518060400160405280600881526020017f6c616e677561676500000000000000000000000000000000000000000000000081525082612bed90919063ffffffff16565b61250e83604001515f8111156124ff576124fe614ee4565b5b82612c1590919063ffffffff16565b6125566040518060400160405280600681526020017f736f75726365000000000000000000000000000000000000000000000000000081525082612bed90919063ffffffff16565b61256d836060015182612bed90919063ffffffff16565b5f8360a00151511115612624576125c26040518060400160405280600481526020017f617267730000000000000000000000000000000000000000000000000000000081525082612bed90919063ffffffff16565b6125cb81612c64565b5f5f90505b8360a00151518110156126195761260e8460a0015182815181106125f7576125f6613f3c565b5b602002602001015183612bed90919063ffffffff16565b8060010190506125d0565b5061262381612c8c565b5b5f8360800151511115612763575f600281111561264457612643614ee4565b5b8360200151600281111561265b5761265a614ee4565b5b03612692576040517fa80d31f700000000000000000000000000000000000000000000000000000000815260040160405180910390fd5b6126da6040518060400160405280600f81526020017f736563726574734c6f636174696f6e000000000000000000000000000000000081525082612bed90919063ffffffff16565b612703836020015160028111156126f4576126f3614ee4565b5b82612c1590919063ffffffff16565b61274b6040518060400160405280600781526020017f736563726574730000000000000000000000000000000000000000000000000081525082612bed90919063ffffffff16565b612762836080015182612cb490919063ffffffff16565b5b5f8360c0015151111561281a576127b86040518060400160405280600981526020017f627974657341726773000000000000000000000000000000000000000000000081525082612bed90919063ffffffff16565b6127c181612c64565b5f5f90505b8360c001515181101561280f576128048460c0015182815181106127ed576127ec613f3c565b5b602002602001015183612cb490919063ffffffff16565b8060010190506127c6565b5061281981612c8c565b5b805f01515f0151915050919050565b5f5f7f000000000000000000000000000000000000000000000000000000000000000073ffffffffffffffffffffffffffffffffffffffff1663461d27628688600188886040518663ffffffff1660e01b815260040161288d959493929190614fbf565b6020604051808303815f875af11580156128a9573d5f5f3e3d5ffd5b505050506040513d601f19601f820116820180604052508101906128cd919061502b565b9050807f1131472297a800fee664d1d89cfa8f7676ff07189ecc53f80bbb5f4969099db860405160405180910390a280915050949350505050565b6060604051806101e001604052806101bd815260200161543b6101bd9139905090565b5f5f9054906101000a900473ffffffffffffffffffffffffffffffffffffffff1673ffffffffffffffffffffffffffffffffffffffff163373ffffffffffffffffffffffffffffffffffffffff16146129b9576040517f08c379a00000000000000000000000000000000000000000000000000000000081526004016129b0906150a0565b60405180910390fd5b565b3373ffffffffffffffffffffffffffffffffffffffff168173ffffffffffffffffffffffffffffffffffffffff1603612a29576040517f08c379a0000000000000000000000000000000000000000000000000000000008152600401612a2090615108565b60405180910390fd5b8060015f6101000a81548173ffffffffffffffffffffffffffffffffffffffff021916908373ffffffffffffffffffffffffffffffffffffffff1602179055508073ffffffffffffffffffffffffffffffffffffffff165f5f9054906101000a900473ffffffffffffffffffffffffffffffffffffffff1673ffffffffffffffffffffffffffffffffffffffff167fed8889f560326eb138920d842192f0eb3dd22b4f139c87a2c57538e05bae127860405160405180910390a350565b5f815103612b20576040517f22ce3edd00000000000000000000000000000000000000000000000000000000815260040160405180910390fd5b82845f01906002811115612b3757612b36614ee4565b5b90816002811115612b4b57612b4a614ee4565b5b815250508184604001905f811115612b6657612b65614ee4565b5b90815f811115612b7957612b78614ee4565b5b8152505080846060018190525050505050565b5f600a8260ff161015612bb057603082612ba69190614e0d565b60f81b9050612bc3565b605782612bbd9190614e0d565b60f81b90505b919050565b612bd06131f6565b612bdd815f015183612cdc565b505f816020018181525050919050565b612bfa8260038351612d52565b612c1081835f0151612ef290919063ffffffff16565b505050565b612c3660026005600660ff16901b17835f0151612f0e90919063ffffffff16565b50612c608282604051602001612c4c91906139ab565b604051602081830303815290604052612cb4565b5050565b612c6f816004612f75565b600181602001818151612c829190613c79565b9150818152505050565b612c97816007612f75565b600181602001818151612caa9190614dda565b9150818152505050565b612cc18260028351612d52565b612cd781835f0151612ef290919063ffffffff16565b505050565b612ce4613215565b5f602083612cf29190614a4d565b14612d1e57602082612d049190614a4d565b6020612d109190614dda565b82612d1b9190613c79565b91505b818360200181815250506040518084525f815282810160200181811015612d43575f5ffd5b80604052505082905092915050565b60178167ffffffffffffffff1611612d8c57612d868160058460ff16901b60ff1617845f0151612f0e90919063ffffffff16565b50612eed565b60ff8167ffffffffffffffff1611612de857612dbe601860058460ff16901b17845f0151612f0e90919063ffffffff16565b50612de28167ffffffffffffffff166001855f0151612f9a9092919063ffffffff16565b50612eec565b61ffff8167ffffffffffffffff1611612e4557612e1b601960058460ff16901b17845f0151612f0e90919063ffffffff16565b50612e3f8167ffffffffffffffff166002855f0151612f9a9092919063ffffffff16565b50612eeb565b63ffffffff8167ffffffffffffffff1611612ea457612e7a601a60058460ff16901b17845f0151612f0e90919063ffffffff16565b50612e9e8167ffffffffffffffff166004855f0151612f9a9092919063ffffffff16565b50612eea565b612ec4601b60058460ff16901b17845f0151612f0e90919063ffffffff16565b50612ee88167ffffffffffffffff166008855f0151612f9a9092919063ffffffff16565b505b5b5b5b505050565b612efa613215565b612f0683838451613023565b905092915050565b612f16613215565b5f835f01515190505f600182612f2c9190613c79565b905084602001518210612f5057612f4f85600283612f4a9190614737565b613100565b5b84516020838201018581538151831115612f68578282525b5050849250505092915050565b612f95601f60058360ff16901b17835f0151612f0e90919063ffffffff16565b505050565b612fa2613215565b5f845f01515190505f8184612fb79190613c79565b90508560200151811115612fdc57612fdb86600283612fd69190614737565b613100565b5b5f600185610100612fed9190615255565b612ff79190614dda565b905086518281018783198251161781528151841115613014578382525b50508693505050509392505050565b61302b613215565b8251821115613038575f5ffd5b5f845f01515190505f838261304d9190613c79565b90508560200151811115613072576130718660028361306c9190614737565b613100565b5b5f5f8751805185602083010193508085111561308c578482525b60208901925050505b602086106130d357805182526020826130ae9190613c79565b91506020816130bd9190613c79565b90506020866130cc9190614dda565b9550613095565b5f6001876020036101000a0390508019825116818451168181178552505050879450505050509392505050565b5f825f015190506131118383612cdc565b5061311c8382612ef2565b50505050565b5080545f8255905f5260205f209081019061313d919061322e565b50565b604051806101000160405280606081526020015f60ff1681526020015f81526020015f81526020015f151581526020015f60ff1681526020015f8152602001606081525090565b6040518060e001604052805f60028111156131a5576131a4614ee4565b5b81526020015f60028111156131bd576131bc614ee4565b5b81526020015f5f8111156131d4576131d3614ee4565b5b8152602001606081526020016060815260200160608152602001606081525090565b6040518060400160405280613209613215565b81526020015f81525090565b6040518060400160405280606081526020015f81525090565b5b8082111561324d575f81816132449190613251565b5060010161322f565b5090565b50805461325d9061400e565b5f825580601f1061326e575061328b565b601f0160209004905f5260205f209081019061328a919061328e565b5b50565b5b808211156132a5575f815f90555060010161328f565b5090565b5f604051905090565b5f5ffd5b5f5ffd5b5f819050919050565b6132cc816132ba565b81146132d6575f5ffd5b50565b5f813590506132e7816132c3565b92915050565b5f5ffd5b5f5ffd5b5f601f19601f8301169050919050565b7f4e487b71000000000000000000000000000000000000000000000000000000005f52604160045260245ffd5b61333b826132f5565b810181811067ffffffffffffffff8211171561335a57613359613305565b5b80604052505050565b5f61336c6132a9565b90506133788282613332565b919050565b5f67ffffffffffffffff82111561339757613396613305565b5b6133a0826132f5565b9050602081019050919050565b828183375f83830152505050565b5f6133cd6133c88461337d565b613363565b9050828152602081018484840111156133e9576133e86132f1565b5b6133f48482856133ad565b509392505050565b5f82601f8301126134105761340f6132ed565b5b81356134208482602086016133bb565b91505092915050565b5f5f5f606084860312156134405761343f6132b2565b5b5f61344d868287016132d9565b935050602084013567ffffffffffffffff81111561346e5761346d6132b6565b5b61347a868287016133fc565b925050604084013567ffffffffffffffff81111561349b5761349a6132b6565b5b6134a7868287016133fc565b9150509250925092565b5f5ffd5b5f5ffd5b5f5f83601f8401126134ce576134cd6132ed565b5b8235905067ffffffffffffffff8111156134eb576134ea6134b1565b5b602083019150836020820283011115613507576135066134b5565b5b9250929050565b5f5f60208385031215613524576135236132b2565b5b5f83013567ffffffffffffffff811115613541576135406132b6565b5b61354d858286016134b9565b92509250509250929050565b5f6020828403121561356e5761356d6132b2565b5b5f61357b848285016132d9565b91505092915050565b5f73ffffffffffffffffffffffffffffffffffffffff82169050919050565b5f6135ad82613584565b9050919050565b6135bd816135a3565b82525050565b5f6020820190506135d65f8301846135b4565b92915050565b6135e5816135a3565b81146135ef575f5ffd5b50565b5f81359050613600816135dc565b92915050565b5f6020828403121561361b5761361a6132b2565b5b5f613628848285016135f2565b91505092915050565b5f81519050919050565b5f82825260208201905092915050565b8281835e5f83830152505050565b5f61366382613631565b61366d818561363b565b935061367d81856020860161364b565b613686816132f5565b840191505092915050565b5f60ff82169050919050565b6136a681613691565b82525050565b5f819050919050565b6136be816136ac565b82525050565b5f8115159050919050565b6136d8816136c4565b82525050565b5f60e0820190508181035f8301526136f6818a613659565b9050613705602083018961369d565b61371260408301886136b5565b61371f60608301876136b5565b61372c60808301866136cf565b61373960a083018561369d565b61374660c08301846136b5565b98975050505050505050565b5f82825260208201905092915050565b5f61376c82613631565b6137768185613752565b935061378681856020860161364b565b61378f816132f5565b840191505092915050565b6137a381613691565b82525050565b6137b2816136ac565b82525050565b6137c1816136c4565b82525050565b5f81519050919050565b5f82825260208201905092915050565b5f819050602082019050919050565b5f6137fb8383613762565b905092915050565b5f602082019050919050565b5f613819826137c7565b61382381856137d1565b935083602082028501613835856137e1565b805f5b85811015613870578484038952815161385185826137f0565b945061385c83613803565b925060208a01995050600181019050613838565b50829750879550505050505092915050565b5f61010083015f8301518482035f86015261389d8282613762565b91505060208301516138b2602086018261379a565b5060408301516138c560408601826137a9565b5060608301516138d860608601826137a9565b5060808301516138eb60808601826137b8565b5060a08301516138fe60a086018261379a565b5060c083015161391160c08601826137a9565b5060e083015184820360e0860152613929828261380f565b9150508091505092915050565b5f6020820190508181035f83015261394e8184613882565b905092915050565b61395f816136ac565b8114613969575f5ffd5b50565b5f8135905061397a81613956565b92915050565b5f60208284031215613995576139946132b2565b5b5f6139a28482850161396c565b91505092915050565b5f6020820190506139be5f8301846136b5565b92915050565b6139cd81613691565b81146139d7575f5ffd5b50565b5f813590506139e8816139c4565b92915050565b5f60208284031215613a0357613a026132b2565b5b5f613a10848285016139da565b91505092915050565b7f53656c656374206174206c65617374203520646f6d61696e73000000000000005f82015250565b5f613a4d60198361363b565b9150613a5882613a19565b602082019050919050565b5f6020820190508181035f830152613a7a81613a41565b9050919050565b5f67ffffffffffffffff821115613a9b57613a9a613305565b5b602082029050602081019050919050565b5f67ffffffffffffffff821115613ac657613ac5613305565b5b613acf826132f5565b9050602081019050919050565b5f613aee613ae984613aac565b613363565b905082815260208101848484011115613b0a57613b096132f1565b5b613b158482856133ad565b509392505050565b5f82601f830112613b3157613b306132ed565b5b8135613b41848260208601613adc565b91505092915050565b5f613b5c613b5784613a81565b613363565b90508083825260208201905060208402830185811115613b7f57613b7e6134b5565b5b835b81811015613bc657803567ffffffffffffffff811115613ba457613ba36132ed565b5b808601613bb18982613b1d565b85526020850194505050602081019050613b81565b5050509392505050565b5f613bdc368484613b4a565b905092915050565b7f496e76616c696420646f6d61696e732070726f766964656400000000000000005f82015250565b5f613c1860188361363b565b9150613c2382613be4565b602082019050919050565b5f6020820190508181035f830152613c4581613c0c565b9050919050565b7f4e487b71000000000000000000000000000000000000000000000000000000005f52601160045260245ffd5b5f613c83826136ac565b9150613c8e836136ac565b9250828201905080821115613ca657613ca5613c4c565b5b92915050565b7f5175697a20616c726561647920696e2070726f677265737300000000000000005f82015250565b5f613ce060188361363b565b9150613ceb82613cac565b602082019050919050565b5f6020820190508181035f830152613d0d81613cd4565b9050919050565b5f81519050613d2281613956565b92915050565b5f60208284031215613d3d57613d3c6132b2565b5b5f613d4a84828501613d14565b91505092915050565b7f496e73756666696369656e7420245155495a00000000000000000000000000005f82015250565b5f613d8760128361363b565b9150613d9282613d53565b602082019050919050565b5f6020820190508181035f830152613db481613d7b565b9050919050565b5f604082019050613dce5f8301856135b4565b613ddb60208301846135b4565b9392505050565b7f496e73756666696369656e7420245155495a20616c6c6f77616e6365000000005f82015250565b5f613e16601c8361363b565b9150613e2182613de2565b602082019050919050565b5f6020820190508181035f830152613e4381613e0a565b9050919050565b5f606082019050613e5d5f8301866135b4565b613e6a60208301856135b4565b613e7760408301846136b5565b949350505050565b613e88816136c4565b8114613e92575f5ffd5b50565b5f81519050613ea381613e7f565b92915050565b5f60208284031215613ebe57613ebd6132b2565b5b5f613ecb84828501613e95565b91505092915050565b7f546f6b656e207472616e73666572206661696c656400000000000000000000005f82015250565b5f613f0860158361363b565b9150613f1382613ed4565b602082019050919050565b5f6020820190508181035f830152613f3581613efc565b9050919050565b7f4e487b71000000000000000000000000000000000000000000000000000000005f52603260045260245ffd5b5f5ffd5b5f5ffd5b5f5ffd5b5f5f83356001602003843603038112613f9157613f90613f69565b5b80840192508235915067ffffffffffffffff821115613fb357613fb2613f6d565b5b602083019250600182023603831315613fcf57613fce613f71565b5b509250929050565b5f82905092915050565b7f4e487b71000000000000000000000000000000000000000000000000000000005f52602260045260245ffd5b5f600282049050600182168061402557607f821691505b60208210810361403857614037613fe1565b5b50919050565b5f819050815f5260205f209050919050565b5f6020601f8301049050919050565b5f82821b905092915050565b5f6008830261409a7fffffffffffffffffffffffffffffffffffffffffffffffffffffffffffffffff8261405f565b6140a4868361405f565b95508019841693508086168417925050509392505050565b5f819050919050565b5f6140df6140da6140d5846136ac565b6140bc565b6136ac565b9050919050565b5f819050919050565b6140f8836140c5565b61410c614104826140e6565b84845461406b565b825550505050565b5f5f905090565b614123614114565b61412e8184846140ef565b505050565b5b81811015614151576141465f8261411b565b600181019050614134565b5050565b601f821115614196576141678161403e565b61417084614050565b8101602085101561417f578190505b61419361418b85614050565b830182614133565b50505b505050565b5f82821c905092915050565b5f6141b65f198460080261419b565b1980831691505092915050565b5f6141ce83836141a7565b9150826002028217905092915050565b6141e88383613fd7565b67ffffffffffffffff81111561420157614200613305565b5b61420b825461400e565b614216828285614155565b5f601f831160018114614243575f8415614231578287013590505b61423b85826141c3565b8655506142a2565b601f1984166142518661403e565b5f5b8281101561427857848901358255600182019150602085019450602081019050614253565b868310156142955784890135614291601f8916826141a7565b8355505b6001600288020188555050505b50505050505050565b5f81905092915050565b7f7175697a5f0000000000000000000000000000000000000000000000000000005f82015250565b5f6142e96005836142ab565b91506142f4826142b5565b600582019050919050565b5f61430982613631565b61431381856142ab565b935061432381856020860161364b565b80840191505092915050565b5f614339826142dd565b915061434582846142ff565b915081905092915050565b61435982613631565b67ffffffffffffffff81111561437257614371613305565b5b61437c825461400e565b614387828285614155565b5f60209050601f8311600181146143b8575f84156143a6578287015190505b6143b085826141c3565b865550614417565b601f1984166143c68661403e565b5f5b828110156143ed578489015182556001820191506020850194506020810190506143c8565b8683101561440a5784890151614406601f8916826141a7565b8355505b6001600288020188555050505b505050505050565b7f4d7573742062652070726f706f736564206f776e6572000000000000000000005f82015250565b5f61445360168361363b565b915061445e8261441f565b602082019050919050565b5f6020820190508181035f83015261448081614447565b9050919050565b7f4e6f20616374697665207175697a0000000000000000000000000000000000005f82015250565b5f6144bb600e8361363b565b91506144c682614487565b602082019050919050565b5f6020820190508181035f8301526144e8816144af565b9050919050565b7f5175697a206578706972656400000000000000000000000000000000000000005f82015250565b5f614523600c8361363b565b915061452e826144ef565b602082019050919050565b5f6020820190508181035f83015261455081614517565b9050919050565b5f60408201905061456a5f8301856135b4565b61457760208301846136b5565b9392505050565b7f546f6b656e20726566756e64206661696c6564000000000000000000000000005f82015250565b5f6145b260138361363b565b91506145bd8261457e565b602082019050919050565b5f6020820190508181035f8301526145df816145a6565b9050919050565b5f69ffffffffffffffffffff82169050919050565b614604816145e6565b811461460e575f5ffd5b50565b5f8151905061461f816145fb565b92915050565b5f819050919050565b61463781614625565b8114614641575f5ffd5b50565b5f815190506146528161462e565b92915050565b5f5f5f5f5f60a08688031215614671576146706132b2565b5b5f61467e88828901614611565b955050602061468f88828901614644565b94505060406146a088828901613d14565b93505060606146b188828901613d14565b92505060806146c288828901614611565b9150509295509295909350565b7f496e76616c6964207072696365206665656400000000000000000000000000005f82015250565b5f61470360128361363b565b915061470e826146cf565b602082019050919050565b5f6020820190508181035f830152614730816146f7565b9050919050565b5f614741826136ac565b915061474c836136ac565b925082820261475a816136ac565b9150828204841483151761477157614770613c4c565b5b5092915050565b7f4e487b71000000000000000000000000000000000000000000000000000000005f52601260045260245ffd5b5f6147af826136ac565b91506147ba836136ac565b9250826147ca576147c9614778565b5b828204905092915050565b7f4f6e6c7920565246436f6e73756d65722063616e2063616c6c000000000000005f82015250565b5f61480960198361363b565b9150614814826147d5565b602082019050919050565b5f6020820190508181035f830152614836816147fd565b9050919050565b5f67ffffffffffffffff82111561485757614856613305565b5b602082029050602081019050919050565b5f61487a6148758461483d565b613363565b9050808382526020820190506020840283018581111561489d5761489c6134b5565b5b835b818110156148c657806148b28882613d14565b84526020840193505060208101905061489f565b5050509392505050565b5f82601f8301126148e4576148e36132ed565b5b81516148f4848260208601614868565b91505092915050565b5f8151905061490b816135dc565b92915050565b5f5f5f60608486031215614928576149276132b2565b5b5f61493586828701613e95565b935050602084015167ffffffffffffffff811115614956576149556132b6565b5b614962868287016148d0565b9250506040614973868287016148fd565b9150509250925092565b7f5652462072657175657374206e6f742066756c66696c6c6564000000000000005f82015250565b5f6149b160198361363b565b91506149bc8261497d565b602082019050919050565b5f6020820190508181035f8301526149de816149a5565b9050919050565b7f496e76616c6964205652462072657175657374204944000000000000000000005f82015250565b5f614a1960168361363b565b9150614a24826149e5565b602082019050919050565b5f6020820190508181035f830152614a4681614a0d565b9050919050565b5f614a57826136ac565b9150614a62836136ac565b925082614a7257614a71614778565b5b828206905092915050565b7f5175697a20636f6d706c657465640000000000000000000000000000000000005f82015250565b5f614ab1600e8361363b565b9150614abc82614a7d565b602082019050919050565b5f6020820190508181035f830152614ade81614aa5565b9050919050565b5f614aef82613691565b915060ff8203614b0257614b01613c4c565b5b600182019050919050565b7f496e76616c6964207265717565737420494400000000000000000000000000005f82015250565b5f614b4160128361363b565b9150614b4c82614b0d565b602082019050919050565b5f6020820190508181035f830152614b6e81614b35565b9050919050565b5f8154614b818161400e565b614b8b818661363b565b9450600182165f8114614ba55760018114614bbb57614bed565b60ff198316865281151560200286019350614bed565b614bc48561403e565b5f5b83811015614be557815481890152600182019150602081019050614bc6565b808801955050505b50505092915050565b614bff816132ba565b82525050565b5f6040820190508181035f830152614c1d8185614b75565b9050614c2c6020830184614bf6565b9392505050565b5f614c3d826136ac565b91507fffffffffffffffffffffffffffffffffffffffffffffffffffffffffffffffff8203614c6f57614c6e613c4c565b5b600182019050919050565b5f614c8482613691565b9150614c8f83613691565b9250828203905060ff811115614ca857614ca7613c4c565b5b92915050565b5f604082019050614cc15f83018561369d565b614cce60208301846136cf565b9392505050565b7f526577617264207472616e73666572206661696c6564000000000000000000005f82015250565b5f614d0960168361363b565b9150614d1482614cd5565b602082019050919050565b5f6020820190508181035f830152614d3681614cfd565b9050919050565b5f606082019050614d505f8301866136b5565b614d5d60208301856136b5565b614d6a60408301846136b5565b949350505050565b7f5265656e7472616e637947756172643a207265656e7472616e742063616c6c005f82015250565b5f614da6601f8361363b565b9150614db182614d72565b602082019050919050565b5f6020820190508181035f830152614dd381614d9a565b9050919050565b5f614de4826136ac565b9150614def836136ac565b9250828203905081811115614e0757614e06613c4c565b5b92915050565b5f614e1782613691565b9150614e2283613691565b9250828201905060ff811115614e3b57614e3a613c4c565b5b92915050565b5f82825260208201905092915050565b5f614e5b826137c7565b614e658185614e41565b935083602082028501614e77856137e1565b805f5b85811015614eb25784840389528151614e9385826137f0565b9450614e9e83613803565b925060208a01995050600181019050614e7a565b50829750879550505050505092915050565b5f6020820190508181035f830152614edc8184614e51565b905092915050565b7f4e487b71000000000000000000000000000000000000000000000000000000005f52602160045260245ffd5b5f67ffffffffffffffff82169050919050565b614f2d81614f11565b82525050565b5f81519050919050565b5f82825260208201905092915050565b5f614f5782614f33565b614f618185614f3d565b9350614f7181856020860161364b565b614f7a816132f5565b840191505092915050565b5f61ffff82169050919050565b614f9b81614f85565b82525050565b5f63ffffffff82169050919050565b614fb981614fa1565b82525050565b5f60a082019050614fd25f830188614f24565b8181036020830152614fe48187614f4d565b9050614ff36040830186614f92565b6150006060830185614fb0565b61500d6080830184614bf6565b9695505050505050565b5f81519050615025816132c3565b92915050565b5f602082840312156150405761503f6132b2565b5b5f61504d84828501615017565b91505092915050565b7f4f6e6c792063616c6c61626c65206279206f776e6572000000000000000000005f82015250565b5f61508a60168361363b565b915061509582615056565b602082019050919050565b5f6020820190508181035f8301526150b78161507e565b9050919050565b7f43616e6e6f74207472616e7366657220746f2073656c660000000000000000005f82015250565b5f6150f260178361363b565b91506150fd826150be565b602082019050919050565b5f6020820190508181035f83015261511f816150e6565b9050919050565b5f8160011c9050919050565b5f5f8291508390505b600185111561517b5780860481111561515757615156613c4c565b5b60018516156151665780820291505b808102905061517485615126565b945061513b565b94509492505050565b5f82615193576001905061524e565b816151a0575f905061524e565b81600181146151b657600281146151c0576151ef565b600191505061524e565b60ff8411156151d2576151d1613c4c565b5b8360020a9150848211156151e9576151e8613c4c565b5b5061524e565b5060208310610133831016604e8410600b84101617156152245782820a90508381111561521f5761521e613c4c565b5b61524e565b6152318484846001615132565b9250905081840481111561524857615247613c4c565b5b81810290505b9392505050565b5f61525f826136ac565b915061526a836136ac565b92506152977fffffffffffffffffffffffffffffffffffffffffffffffffffffffffffffffff8484615184565b90509291505056fe636f6e7374207b20646f6d61696e732c20706c61796572416464726573732c20656c697a6155726c2c207175697a4964207d203d20617267733b636f6e737420726573706f6e7365203d2061776169742046756e6374696f6e732e6d616b654874747052657175657374287b202075726c3a2060247b656c697a6155726c7d2f67656e65726174655175697a602c20206d6574686f643a2027504f5354272c2020686561646572733a207b2027436f6e74656e742d54797065273a20276170706c69636174696f6e2f6a736f6e27207d2c2020646174613a207b20646f6d61696e733a204a534f4e2e706172736528646f6d61696e73292c20706c61796572416464726573732c20646966666963756c74793a20274d656469756d272c207175697a4964207d7d293b69662028726573706f6e73652e6572726f7229207468726f77206e6577204572726f7228275175697a2067656e65726174696f6e206661696c656427293b72657475726e2046756e6374696f6e732e656e636f6465537472696e6728726573706f6e73652e646174612e7175697a4964293b636f6e7374207b207175697a49642c20706c61796572416464726573732c207175657374696f6e496e6465782c20616e73776572207d203d20617267733b636f6e737420726573706f6e7365203d2061776169742046756e6374696f6e732e6d616b654874747052657175657374287b202075726c3a2060247b656c697a6155726c7d2f766572696679416e73776572602c20206d6574686f643a2027504f5354272c2020686561646572733a207b2027436f6e74656e742d54797065273a20276170706c69636174696f6e2f6a736f6e27207d2c2020646174613a207b207175697a49642c20706c61796572416464726573732c207175657374696f6e496e6465783a207061727365496e74287175657374696f6e496e646578292c20616e737765723a207061727365496e7428616e7377657229207d7d293b69662028726573706f6e73652e6572726f7229207468726f77206e6577204572726f722827416e7377657220766572696669636174696f6e206661696c656427293b72657475726e2046756e6374696f6e732e656e636f646555696e7432353628726573706f6e73652e646174612e6973436f7272656374203f2031203a2030293ba2646970667358221220e216c53b69089bd0148c2155975d244440ce3a446a3ffcab393abaf3f59b52fb64736f6c634300081e0033",
			"opcodes": "PUSH2 0x180 PUSH1 0x40 MSTORE PUSH20 0xF9B8FC078197181C841C296C876945AAA425B278 PUSH20 0xFFFFFFFFFFFFFFFFFFFFFFFFFFFFFFFFFFFFFFFF AND PUSH1 0xA0 SWAP1 PUSH20 0xFFFFFFFFFFFFFFFFFFFFFFFFFFFFFFFFFFFFFFFF AND DUP2 MSTORE POP PUSH32 0x66756E2D626173652D7365706F6C69612D310000000000000000000000000000 PUSH1 0xC0 SWAP1 DUP2 MSTORE POP PUSH20 0x71041DDDAD3595F9CED3D1F4B351F63D6B6FE84C PUSH20 0xFFFFFFFFFFFFFFFFFFFFFFFFFFFFFFFFFFFFFFFF AND PUSH1 0xE0 SWAP1 PUSH20 0xFFFFFFFFFFFFFFFFFFFFFFFFFFFFFFFFFFFFFFFF AND DUP2 MSTORE POP CALLVALUE DUP1 ISZERO PUSH2 0xC5 JUMPI PUSH0 PUSH0 REVERT JUMPDEST POP PUSH1 0x40 MLOAD PUSH2 0x5C9A CODESIZE SUB DUP1 PUSH2 0x5C9A DUP4 CODECOPY DUP2 DUP2 ADD PUSH1 0x40 MSTORE DUP2 ADD SWAP1 PUSH2 0xE7 SWAP2 SWAP1 PUSH2 0x4A9 JUMP JUMPDEST CALLER DUP1 PUSH0 PUSH1 0xA0 MLOAD DUP1 PUSH20 0xFFFFFFFFFFFFFFFFFFFFFFFFFFFFFFFFFFFFFFFF AND PUSH1 0x80 DUP2 PUSH20 0xFFFFFFFFFFFFFFFFFFFFFFFFFFFFFFFFFFFFFFFF AND DUP2 MSTORE POP POP POP PUSH0 PUSH20 0xFFFFFFFFFFFFFFFFFFFFFFFFFFFFFFFFFFFFFFFF AND DUP3 PUSH20 0xFFFFFFFFFFFFFFFFFFFFFFFFFFFFFFFFFFFFFFFF AND SUB PUSH2 0x190 JUMPI PUSH1 0x40 MLOAD PUSH32 0x8C379A000000000000000000000000000000000000000000000000000000000 DUP2 MSTORE PUSH1 0x4 ADD PUSH2 0x187 SWAP1 PUSH2 0x553 JUMP JUMPDEST PUSH1 0x40 MLOAD DUP1 SWAP2 SUB SWAP1 REVERT JUMPDEST DUP2 PUSH0 PUSH0 PUSH2 0x100 EXP DUP2 SLOAD DUP2 PUSH20 0xFFFFFFFFFFFFFFFFFFFFFFFFFFFFFFFFFFFFFFFF MUL NOT AND SWAP1 DUP4 PUSH20 0xFFFFFFFFFFFFFFFFFFFFFFFFFFFFFFFFFFFFFFFF AND MUL OR SWAP1 SSTORE POP PUSH0 PUSH20 0xFFFFFFFFFFFFFFFFFFFFFFFFFFFFFFFFFFFFFFFF AND DUP2 PUSH20 0xFFFFFFFFFFFFFFFFFFFFFFFFFFFFFFFFFFFFFFFF AND EQ PUSH2 0x212 JUMPI PUSH2 0x211 DUP2 PUSH2 0x2E3 PUSH1 0x20 SHL PUSH1 0x20 SHR JUMP JUMPDEST JUMPDEST POP POP POP PUSH1 0x1 PUSH1 0x2 DUP2 SWAP1 SSTORE POP DUP3 PUSH20 0xFFFFFFFFFFFFFFFFFFFFFFFFFFFFFFFFFFFFFFFF AND PUSH2 0x100 DUP2 PUSH20 0xFFFFFFFFFFFFFFFFFFFFFFFFFFFFFFFFFFFFFFFF AND DUP2 MSTORE POP POP DUP2 PUSH20 0xFFFFFFFFFFFFFFFFFFFFFFFFFFFFFFFFFFFFFFFF AND PUSH2 0x120 DUP2 PUSH20 0xFFFFFFFFFFFFFFFFFFFFFFFFFFFFFFFFFFFFFFFF AND DUP2 MSTORE POP POP PUSH1 0xE0 MLOAD PUSH20 0xFFFFFFFFFFFFFFFFFFFFFFFFFFFFFFFFFFFFFFFF AND PUSH2 0x140 DUP2 PUSH20 0xFFFFFFFFFFFFFFFFFFFFFFFFFFFFFFFFFFFFFFFF AND DUP2 MSTORE POP POP DUP1 PUSH8 0xFFFFFFFFFFFFFFFF AND PUSH2 0x160 DUP2 PUSH8 0xFFFFFFFFFFFFFFFF AND DUP2 MSTORE POP POP POP POP POP PUSH2 0x5D9 JUMP JUMPDEST CALLER PUSH20 0xFFFFFFFFFFFFFFFFFFFFFFFFFFFFFFFFFFFFFFFF AND DUP2 PUSH20 0xFFFFFFFFFFFFFFFFFFFFFFFFFFFFFFFFFFFFFFFF AND SUB PUSH2 0x351 JUMPI PUSH1 0x40 MLOAD PUSH32 0x8C379A000000000000000000000000000000000000000000000000000000000 DUP2 MSTORE PUSH1 0x4 ADD PUSH2 0x348 SWAP1 PUSH2 0x5BB JUMP JUMPDEST PUSH1 0x40 MLOAD DUP1 SWAP2 SUB SWAP1 REVERT JUMPDEST DUP1 PUSH1 0x1 PUSH0 PUSH2 0x100 EXP DUP2 SLOAD DUP2 PUSH20 0xFFFFFFFFFFFFFFFFFFFFFFFFFFFFFFFFFFFFFFFF MUL NOT AND SWAP1 DUP4 PUSH20 0xFFFFFFFFFFFFFFFFFFFFFFFFFFFFFFFFFFFFFFFF AND MUL OR SWAP1 SSTORE POP DUP1 PUSH20 0xFFFFFFFFFFFFFFFFFFFFFFFFFFFFFFFFFFFFFFFF AND PUSH0 PUSH0 SWAP1 SLOAD SWAP1 PUSH2 0x100 EXP SWAP1 DIV PUSH20 0xFFFFFFFFFFFFFFFFFFFFFFFFFFFFFFFFFFFFFFFF AND PUSH20 0xFFFFFFFFFFFFFFFFFFFFFFFFFFFFFFFFFFFFFFFF AND PUSH32 0xED8889F560326EB138920D842192F0EB3DD22B4F139C87A2C57538E05BAE1278 PUSH1 0x40 MLOAD PUSH1 0x40 MLOAD DUP1 SWAP2 SUB SWAP1 LOG3 POP JUMP JUMPDEST PUSH0 PUSH0 REVERT JUMPDEST PUSH0 PUSH20 0xFFFFFFFFFFFFFFFFFFFFFFFFFFFFFFFFFFFFFFFF DUP3 AND SWAP1 POP SWAP2 SWAP1 POP JUMP JUMPDEST PUSH0 PUSH2 0x43B DUP3 PUSH2 0x412 JUMP JUMPDEST SWAP1 POP SWAP2 SWAP1 POP JUMP JUMPDEST PUSH2 0x44B DUP2 PUSH2 0x431 JUMP JUMPDEST DUP2 EQ PUSH2 0x455 JUMPI PUSH0 PUSH0 REVERT JUMPDEST POP JUMP JUMPDEST PUSH0 DUP2 MLOAD SWAP1 POP PUSH2 0x466 DUP2 PUSH2 0x442 JUMP JUMPDEST SWAP3 SWAP2 POP POP JUMP JUMPDEST PUSH0 PUSH8 0xFFFFFFFFFFFFFFFF DUP3 AND SWAP1 POP SWAP2 SWAP1 POP JUMP JUMPDEST PUSH2 0x488 DUP2 PUSH2 0x46C JUMP JUMPDEST DUP2 EQ PUSH2 0x492 JUMPI PUSH0 PUSH0 REVERT JUMPDEST POP JUMP JUMPDEST PUSH0 DUP2 MLOAD SWAP1 POP PUSH2 0x4A3 DUP2 PUSH2 0x47F JUMP JUMPDEST SWAP3 SWAP2 POP POP JUMP JUMPDEST PUSH0 PUSH0 PUSH0 PUSH1 0x60 DUP5 DUP7 SUB SLT ISZERO PUSH2 0x4C0 JUMPI PUSH2 0x4BF PUSH2 0x40E JUMP JUMPDEST JUMPDEST PUSH0 PUSH2 0x4CD DUP7 DUP3 DUP8 ADD PUSH2 0x458 JUMP JUMPDEST SWAP4 POP POP PUSH1 0x20 PUSH2 0x4DE DUP7 DUP3 DUP8 ADD PUSH2 0x458 JUMP JUMPDEST SWAP3 POP POP PUSH1 0x40 PUSH2 0x4EF DUP7 DUP3 DUP8 ADD PUSH2 0x495 JUMP JUMPDEST SWAP2 POP POP SWAP3 POP SWAP3 POP SWAP3 JUMP JUMPDEST PUSH0 DUP3 DUP3 MSTORE PUSH1 0x20 DUP3 ADD SWAP1 POP SWAP3 SWAP2 POP POP JUMP JUMPDEST PUSH32 0x43616E6E6F7420736574206F776E657220746F207A65726F0000000000000000 PUSH0 DUP3 ADD MSTORE POP JUMP JUMPDEST PUSH0 PUSH2 0x53D PUSH1 0x18 DUP4 PUSH2 0x4F9 JUMP JUMPDEST SWAP2 POP PUSH2 0x548 DUP3 PUSH2 0x509 JUMP JUMPDEST PUSH1 0x20 DUP3 ADD SWAP1 POP SWAP2 SWAP1 POP JUMP JUMPDEST PUSH0 PUSH1 0x20 DUP3 ADD SWAP1 POP DUP2 DUP2 SUB PUSH0 DUP4 ADD MSTORE PUSH2 0x56A DUP2 PUSH2 0x531 JUMP JUMPDEST SWAP1 POP SWAP2 SWAP1 POP JUMP JUMPDEST PUSH32 0x43616E6E6F74207472616E7366657220746F2073656C66000000000000000000 PUSH0 DUP3 ADD MSTORE POP JUMP JUMPDEST PUSH0 PUSH2 0x5A5 PUSH1 0x17 DUP4 PUSH2 0x4F9 JUMP JUMPDEST SWAP2 POP PUSH2 0x5B0 DUP3 PUSH2 0x571 JUMP JUMPDEST PUSH1 0x20 DUP3 ADD SWAP1 POP SWAP2 SWAP1 POP JUMP JUMPDEST PUSH0 PUSH1 0x20 DUP3 ADD SWAP1 POP DUP2 DUP2 SUB PUSH0 DUP4 ADD MSTORE PUSH2 0x5D2 DUP2 PUSH2 0x599 JUMP JUMPDEST SWAP1 POP SWAP2 SWAP1 POP JUMP JUMPDEST PUSH1 0x80 MLOAD PUSH1 0xA0 MLOAD PUSH1 0xC0 MLOAD PUSH1 0xE0 MLOAD PUSH2 0x100 MLOAD PUSH2 0x120 MLOAD PUSH2 0x140 MLOAD PUSH2 0x160 MLOAD PUSH2 0x562D PUSH2 0x66D PUSH0 CODECOPY PUSH0 DUP2 DUP2 PUSH2 0x15FE ADD MSTORE PUSH2 0x19CC ADD MSTORE PUSH0 PUSH2 0x1055 ADD MSTORE PUSH0 DUP2 DUP2 PUSH2 0x7EE ADD MSTORE DUP2 DUP2 PUSH2 0x1159 ADD MSTORE PUSH2 0x11EA ADD MSTORE PUSH0 DUP2 DUP2 PUSH2 0x455 ADD MSTORE DUP2 DUP2 PUSH2 0x536 ADD MSTORE DUP2 DUP2 PUSH2 0x612 ADD MSTORE DUP2 DUP2 PUSH2 0xF05 ADD MSTORE PUSH2 0x1D80 ADD MSTORE PUSH0 POP POP PUSH0 DUP2 DUP2 PUSH2 0x1623 ADD MSTORE PUSH2 0x19F1 ADD MSTORE PUSH0 POP POP PUSH0 DUP2 DUP2 PUSH2 0x23C ADD MSTORE PUSH2 0x282D ADD MSTORE PUSH2 0x562D PUSH0 RETURN INVALID PUSH1 0x80 PUSH1 0x40 MSTORE CALLVALUE DUP1 ISZERO PUSH2 0xF JUMPI PUSH0 PUSH0 REVERT JUMPDEST POP PUSH1 0x4 CALLDATASIZE LT PUSH2 0xB2 JUMPI PUSH0 CALLDATALOAD PUSH1 0xE0 SHR DUP1 PUSH4 0x8DA5CB5B GT PUSH2 0x6F JUMPI DUP1 PUSH4 0x8DA5CB5B EQ PUSH2 0x18E JUMPI DUP1 PUSH4 0xC320C1B9 EQ PUSH2 0x1AC JUMPI DUP1 PUSH4 0xC7B4E68A EQ PUSH2 0x1B6 JUMPI DUP1 PUSH4 0xCD8B10B3 EQ PUSH2 0x1E6 JUMPI DUP1 PUSH4 0xEC4FD914 EQ PUSH2 0x202 JUMPI DUP1 PUSH4 0xF2FDE38B EQ PUSH2 0x21E JUMPI PUSH2 0xB2 JUMP JUMPDEST DUP1 PUSH4 0xCA76175 EQ PUSH2 0xB6 JUMPI DUP1 PUSH4 0x2AC87AA6 EQ PUSH2 0xD2 JUMPI DUP1 PUSH4 0x2D8B23C8 EQ PUSH2 0xEE JUMPI DUP1 PUSH4 0x431A1B97 EQ PUSH2 0x11E JUMPI DUP1 PUSH4 0x79BA5097 EQ PUSH2 0x154 JUMPI DUP1 PUSH4 0x8C8E13B9 EQ PUSH2 0x15E JUMPI JUMPDEST PUSH0 PUSH0 REVERT JUMPDEST PUSH2 0xD0 PUSH1 0x4 DUP1 CALLDATASIZE SUB DUP2 ADD SWAP1 PUSH2 0xCB SWAP2 SWAP1 PUSH2 0x3429 JUMP JUMPDEST PUSH2 0x23A JUMP JUMPDEST STOP JUMPDEST PUSH2 0xEC PUSH1 0x4 DUP1 CALLDATASIZE SUB DUP2 ADD SWAP1 PUSH2 0xE7 SWAP2 SWAP1 PUSH2 0x350E JUMP JUMPDEST PUSH2 0x2FC JUMP JUMPDEST STOP JUMPDEST PUSH2 0x108 PUSH1 0x4 DUP1 CALLDATASIZE SUB DUP2 ADD SWAP1 PUSH2 0x103 SWAP2 SWAP1 PUSH2 0x3559 JUMP JUMPDEST PUSH2 0x91B JUMP JUMPDEST PUSH1 0x40 MLOAD PUSH2 0x115 SWAP2 SWAP1 PUSH2 0x35C3 JUMP JUMPDEST PUSH1 0x40 MLOAD DUP1 SWAP2 SUB SWAP1 RETURN JUMPDEST PUSH2 0x138 PUSH1 0x4 DUP1 CALLDATASIZE SUB DUP2 ADD SWAP1 PUSH2 0x133 SWAP2 SWAP1 PUSH2 0x3606 JUMP JUMPDEST PUSH2 0x94B JUMP JUMPDEST PUSH1 0x40 MLOAD PUSH2 0x14B SWAP8 SWAP7 SWAP6 SWAP5 SWAP4 SWAP3 SWAP2 SWAP1 PUSH2 0x36DE JUMP JUMPDEST PUSH1 0x40 MLOAD DUP1 SWAP2 SUB SWAP1 RETURN JUMPDEST PUSH2 0x15C PUSH2 0xA34 JUMP JUMPDEST STOP JUMPDEST PUSH2 0x178 PUSH1 0x4 DUP1 CALLDATASIZE SUB DUP2 ADD SWAP1 PUSH2 0x173 SWAP2 SWAP1 PUSH2 0x3606 JUMP JUMPDEST PUSH2 0xBC3 JUMP JUMPDEST PUSH1 0x40 MLOAD PUSH2 0x185 SWAP2 SWAP1 PUSH2 0x3936 JUMP JUMPDEST PUSH1 0x40 MLOAD DUP1 SWAP2 SUB SWAP1 RETURN JUMPDEST PUSH2 0x196 PUSH2 0xDEF JUMP JUMPDEST PUSH1 0x40 MLOAD PUSH2 0x1A3 SWAP2 SWAP1 PUSH2 0x35C3 JUMP JUMPDEST PUSH1 0x40 MLOAD DUP1 SWAP2 SUB SWAP1 RETURN JUMPDEST PUSH2 0x1B4 PUSH2 0xE16 JUMP JUMPDEST STOP JUMPDEST PUSH2 0x1D0 PUSH1 0x4 DUP1 CALLDATASIZE SUB DUP2 ADD SWAP1 PUSH2 0x1CB SWAP2 SWAP1 PUSH2 0x3980 JUMP JUMPDEST PUSH2 0x1051 JUMP JUMPDEST PUSH1 0x40 MLOAD PUSH2 0x1DD SWAP2 SWAP1 PUSH2 0x39AB JUMP JUMPDEST PUSH1 0x40 MLOAD DUP1 SWAP2 SUB SWAP1 RETURN JUMPDEST PUSH2 0x200 PUSH1 0x4 DUP1 CALLDATASIZE SUB DUP2 ADD SWAP1 PUSH2 0x1FB SWAP2 SWAP1 PUSH2 0x3980 JUMP JUMPDEST PUSH2 0x114F JUMP JUMPDEST STOP JUMPDEST PUSH2 0x21C PUSH1 0x4 DUP1 CALLDATASIZE SUB DUP2 ADD SWAP1 PUSH2 0x217 SWAP2 SWAP1 PUSH2 0x39EE JUMP JUMPDEST PUSH2 0x16AB JUMP JUMPDEST STOP JUMPDEST PUSH2 0x238 PUSH1 0x4 DUP1 CALLDATASIZE SUB DUP2 ADD SWAP1 PUSH2 0x233 SWAP2 SWAP1 PUSH2 0x3606 JUMP JUMPDEST PUSH2 0x1AAE JUMP JUMPDEST STOP JUMPDEST PUSH32 0x0 PUSH20 0xFFFFFFFFFFFFFFFFFFFFFFFFFFFFFFFFFFFFFFFF AND CALLER PUSH20 0xFFFFFFFFFFFFFFFFFFFFFFFFFFFFFFFFFFFFFFFF AND EQ PUSH2 0x2BF JUMPI PUSH1 0x40 MLOAD PUSH32 0xC6829F8300000000000000000000000000000000000000000000000000000000 DUP2 MSTORE PUSH1 0x4 ADD PUSH1 0x40 MLOAD DUP1 SWAP2 SUB SWAP1 REVERT JUMPDEST PUSH2 0x2CA DUP4 DUP4 DUP4 PUSH2 0x1AC2 JUMP JUMPDEST DUP3 PUSH32 0x85E1543BF2F84FE80C6BADBCE3648C8539AD1DF4D2B3D822938CA0538BE727E6 PUSH1 0x40 MLOAD PUSH1 0x40 MLOAD DUP1 SWAP2 SUB SWAP1 LOG2 POP POP POP JUMP JUMPDEST PUSH2 0x304 PUSH2 0x1EDB JUMP JUMPDEST PUSH1 0x5 DUP3 DUP3 SWAP1 POP LT ISZERO PUSH2 0x34B JUMPI PUSH1 0x40 MLOAD PUSH32 0x8C379A000000000000000000000000000000000000000000000000000000000 DUP2 MSTORE PUSH1 0x4 ADD PUSH2 0x342 SWAP1 PUSH2 0x3A63 JUMP JUMPDEST PUSH1 0x40 MLOAD DUP1 SWAP2 SUB SWAP1 REVERT JUMPDEST PUSH2 0x360 DUP3 DUP3 SWAP1 PUSH2 0x35B SWAP2 SWAP1 PUSH2 0x3BD0 JUMP JUMPDEST PUSH2 0x1F28 JUMP JUMPDEST PUSH2 0x39F JUMPI PUSH1 0x40 MLOAD PUSH32 0x8C379A000000000000000000000000000000000000000000000000000000000 DUP2 MSTORE PUSH1 0x4 ADD PUSH2 0x396 SWAP1 PUSH2 0x3C2E JUMP JUMPDEST PUSH1 0x40 MLOAD DUP1 SWAP2 SUB SWAP1 REVERT JUMPDEST PUSH0 PUSH1 0x3 PUSH0 CALLER PUSH20 0xFFFFFFFFFFFFFFFFFFFFFFFFFFFFFFFFFFFFFFFF AND PUSH20 0xFFFFFFFFFFFFFFFFFFFFFFFFFFFFFFFFFFFFFFFF AND DUP2 MSTORE PUSH1 0x20 ADD SWAP1 DUP2 MSTORE PUSH1 0x20 ADD PUSH0 KECCAK256 SWAP1 POP DUP1 PUSH1 0x4 ADD PUSH0 SWAP1 SLOAD SWAP1 PUSH2 0x100 EXP SWAP1 DIV PUSH1 0xFF AND ISZERO DUP1 PUSH2 0x40C JUMPI POP PUSH2 0x1C2 DUP2 PUSH1 0x3 ADD SLOAD PUSH2 0x409 SWAP2 SWAP1 PUSH2 0x3C79 JUMP JUMPDEST TIMESTAMP GT JUMPDEST PUSH2 0x44B JUMPI PUSH1 0x40 MLOAD PUSH32 0x8C379A000000000000000000000000000000000000000000000000000000000 DUP2 MSTORE PUSH1 0x4 ADD PUSH2 0x442 SWAP1 PUSH2 0x3CF6 JUMP JUMPDEST PUSH1 0x40 MLOAD DUP1 SWAP2 SUB SWAP1 REVERT JUMPDEST PUSH7 0x2386F26FC10000 PUSH32 0x0 PUSH20 0xFFFFFFFFFFFFFFFFFFFFFFFFFFFFFFFFFFFFFFFF AND PUSH4 0x70A08231 CALLER PUSH1 0x40 MLOAD DUP3 PUSH4 0xFFFFFFFF AND PUSH1 0xE0 SHL DUP2 MSTORE PUSH1 0x4 ADD PUSH2 0x4AC SWAP2 SWAP1 PUSH2 0x35C3 JUMP JUMPDEST PUSH1 0x20 PUSH1 0x40 MLOAD DUP1 DUP4 SUB DUP2 DUP7 GAS STATICCALL ISZERO DUP1 ISZERO PUSH2 0x4C7 JUMPI RETURNDATASIZE PUSH0 PUSH0 RETURNDATACOPY RETURNDATASIZE PUSH0 REVERT JUMPDEST POP POP POP POP PUSH1 0x40 MLOAD RETURNDATASIZE PUSH1 0x1F NOT PUSH1 0x1F DUP3 ADD AND DUP3 ADD DUP1 PUSH1 0x40 MSTORE POP DUP2 ADD SWAP1 PUSH2 0x4EB SWAP2 SWAP1 PUSH2 0x3D28 JUMP JUMPDEST LT ISZERO PUSH2 0x52C JUMPI PUSH1 0x40 MLOAD PUSH32 0x8C379A000000000000000000000000000000000000000000000000000000000 DUP2 MSTORE PUSH1 0x4 ADD PUSH2 0x523 SWAP1 PUSH2 0x3D9D JUMP JUMPDEST PUSH1 0x40 MLOAD DUP1 SWAP2 SUB SWAP1 REVERT JUMPDEST PUSH7 0x2386F26FC10000 PUSH32 0x0 PUSH20 0xFFFFFFFFFFFFFFFFFFFFFFFFFFFFFFFFFFFFFFFF AND PUSH4 0xDD62ED3E CALLER ADDRESS PUSH1 0x40 MLOAD DUP4 PUSH4 0xFFFFFFFF AND PUSH1 0xE0 SHL DUP2 MSTORE PUSH1 0x4 ADD PUSH2 0x58F SWAP3 SWAP2 SWAP1 PUSH2 0x3DBB JUMP JUMPDEST PUSH1 0x20 PUSH1 0x40 MLOAD DUP1 DUP4 SUB DUP2 DUP7 GAS STATICCALL ISZERO DUP1 ISZERO PUSH2 0x5AA JUMPI RETURNDATASIZE PUSH0 PUSH0 RETURNDATACOPY RETURNDATASIZE PUSH0 REVERT JUMPDEST POP POP POP POP PUSH1 0x40 MLOAD RETURNDATASIZE PUSH1 0x1F NOT PUSH1 0x1F DUP3 ADD AND DUP3 ADD DUP1 PUSH1 0x40 MSTORE POP DUP2 ADD SWAP1 PUSH2 0x5CE SWAP2 SWAP1 PUSH2 0x3D28 JUMP JUMPDEST LT ISZERO PUSH2 0x60F JUMPI PUSH1 0x40 MLOAD PUSH32 0x8C379A000000000000000000000000000000000000000000000000000000000 DUP2 MSTORE PUSH1 0x4 ADD PUSH2 0x606 SWAP1 PUSH2 0x3E2C JUMP JUMPDEST PUSH1 0x40 MLOAD DUP1 SWAP2 SUB SWAP1 REVERT JUMPDEST PUSH0 PUSH32 0x0 PUSH20 0xFFFFFFFFFFFFFFFFFFFFFFFFFFFFFFFFFFFFFFFF AND PUSH4 0x23B872DD CALLER ADDRESS PUSH7 0x2386F26FC10000 PUSH1 0x40 MLOAD DUP5 PUSH4 0xFFFFFFFF AND PUSH1 0xE0 SHL DUP2 MSTORE PUSH1 0x4 ADD PUSH2 0x674 SWAP4 SWAP3 SWAP2 SWAP1 PUSH2 0x3E4A JUMP JUMPDEST PUSH1 0x20 PUSH1 0x40 MLOAD DUP1 DUP4 SUB DUP2 PUSH0 DUP8 GAS CALL ISZERO DUP1 ISZERO PUSH2 0x690 JUMPI RETURNDATASIZE PUSH0 PUSH0 RETURNDATACOPY RETURNDATASIZE PUSH0 REVERT JUMPDEST POP POP POP POP PUSH1 0x40 MLOAD RETURNDATASIZE PUSH1 0x1F NOT PUSH1 0x1F DUP3 ADD AND DUP3 ADD DUP1 PUSH1 0x40 MSTORE POP DUP2 ADD SWAP1 PUSH2 0x6B4 SWAP2 SWAP1 PUSH2 0x3EA9 JUMP JUMPDEST SWAP1 POP DUP1 PUSH2 0x6F6 JUMPI PUSH1 0x40 MLOAD PUSH32 0x8C379A000000000000000000000000000000000000000000000000000000000 DUP2 MSTORE PUSH1 0x4 ADD PUSH2 0x6ED SWAP1 PUSH2 0x3F1E JUMP JUMPDEST PUSH1 0x40 MLOAD DUP1 SWAP2 SUB SWAP1 REVERT JUMPDEST PUSH1 0x1 DUP3 PUSH1 0x4 ADD PUSH0 PUSH2 0x100 EXP DUP2 SLOAD DUP2 PUSH1 0xFF MUL NOT AND SWAP1 DUP4 ISZERO ISZERO MUL OR SWAP1 SSTORE POP PUSH0 DUP3 PUSH1 0x1 ADD PUSH0 PUSH2 0x100 EXP DUP2 SLOAD DUP2 PUSH1 0xFF MUL NOT AND SWAP1 DUP4 PUSH1 0xFF AND MUL OR SWAP1 SSTORE POP PUSH0 DUP3 PUSH1 0x2 ADD DUP2 SWAP1 SSTORE POP TIMESTAMP DUP3 PUSH1 0x3 ADD DUP2 SWAP1 SSTORE POP PUSH1 0xA DUP3 PUSH1 0x4 ADD PUSH1 0x1 PUSH2 0x100 EXP DUP2 SLOAD DUP2 PUSH1 0xFF MUL NOT AND SWAP1 DUP4 PUSH1 0xFF AND MUL OR SWAP1 SSTORE POP DUP2 PUSH1 0x6 ADD PUSH0 PUSH2 0x76D SWAP2 SWAP1 PUSH2 0x3122 JUMP JUMPDEST PUSH0 PUSH0 SWAP1 POP JUMPDEST DUP5 DUP5 SWAP1 POP DUP2 LT ISZERO PUSH2 0x7EA JUMPI DUP3 PUSH1 0x6 ADD DUP6 DUP6 DUP4 DUP2 DUP2 LT PUSH2 0x794 JUMPI PUSH2 0x793 PUSH2 0x3F3C JUMP JUMPDEST JUMPDEST SWAP1 POP PUSH1 0x20 MUL DUP2 ADD SWAP1 PUSH2 0x7A6 SWAP2 SWAP1 PUSH2 0x3F75 JUMP JUMPDEST SWAP1 SWAP2 DUP1 PUSH1 0x1 DUP2 SLOAD ADD DUP1 DUP3 SSTORE DUP1 SWAP2 POP POP PUSH1 0x1 SWAP1 SUB SWAP1 PUSH0 MSTORE PUSH1 0x20 PUSH0 KECCAK256 ADD PUSH0 SWAP1 SWAP2 SWAP3 SWAP1 SWAP2 SWAP3 SWAP1 SWAP2 SWAP3 SWAP1 SWAP2 SWAP3 POP SWAP2 DUP3 PUSH2 0x7DC SWAP3 SWAP2 SWAP1 PUSH2 0x41DE JUMP JUMPDEST POP DUP1 DUP1 PUSH1 0x1 ADD SWAP2 POP POP PUSH2 0x772 JUMP JUMPDEST POP PUSH0 PUSH32 0x0 PUSH20 0xFFFFFFFFFFFFFFFFFFFFFFFFFFFFFFFFFFFFFFFF AND PUSH4 0x80C95B14 CALLER PUSH1 0x40 MLOAD DUP3 PUSH4 0xFFFFFFFF AND PUSH1 0xE0 SHL DUP2 MSTORE PUSH1 0x4 ADD PUSH2 0x845 SWAP2 SWAP1 PUSH2 0x35C3 JUMP JUMPDEST PUSH1 0x20 PUSH1 0x40 MLOAD DUP1 DUP4 SUB DUP2 PUSH0 DUP8 GAS CALL ISZERO DUP1 ISZERO PUSH2 0x861 JUMPI RETURNDATASIZE PUSH0 PUSH0 RETURNDATACOPY RETURNDATASIZE PUSH0 REVERT JUMPDEST POP POP POP POP PUSH1 0x40 MLOAD RETURNDATASIZE PUSH1 0x1F NOT PUSH1 0x1F DUP3 ADD AND DUP3 ADD DUP1 PUSH1 0x40 MSTORE POP DUP2 ADD SWAP1 PUSH2 0x885 SWAP2 SWAP1 PUSH2 0x3D28 JUMP JUMPDEST SWAP1 POP DUP1 DUP4 PUSH1 0x5 ADD DUP2 SWAP1 SSTORE POP PUSH2 0x899 DUP2 PUSH2 0x1F7A JUMP JUMPDEST PUSH1 0x40 MLOAD PUSH1 0x20 ADD PUSH2 0x8A9 SWAP2 SWAP1 PUSH2 0x432F JUMP JUMPDEST PUSH1 0x40 MLOAD PUSH1 0x20 DUP2 DUP4 SUB SUB DUP2 MSTORE SWAP1 PUSH1 0x40 MSTORE DUP4 PUSH0 ADD SWAP1 DUP2 PUSH2 0x8C7 SWAP2 SWAP1 PUSH2 0x4350 JUMP JUMPDEST POP CALLER PUSH20 0xFFFFFFFFFFFFFFFFFFFFFFFFFFFFFFFFFFFFFFFF AND DUP2 PUSH32 0xF7A8E0C42C700F462B414BCEAC8AB3195E1AAF10F2BE5EE09B146BC290C16130 PUSH1 0x40 MLOAD PUSH1 0x40 MLOAD DUP1 SWAP2 SUB SWAP1 LOG3 POP POP POP PUSH2 0x917 PUSH2 0x20F3 JUMP JUMPDEST POP POP JUMP JUMPDEST PUSH1 0x4 PUSH1 0x20 MSTORE DUP1 PUSH0 MSTORE PUSH1 0x40 PUSH0 KECCAK256 PUSH0 SWAP2 POP SLOAD SWAP1 PUSH2 0x100 EXP SWAP1 DIV PUSH20 0xFFFFFFFFFFFFFFFFFFFFFFFFFFFFFFFFFFFFFFFF AND DUP2 JUMP JUMPDEST PUSH1 0x3 PUSH1 0x20 MSTORE DUP1 PUSH0 MSTORE PUSH1 0x40 PUSH0 KECCAK256 PUSH0 SWAP2 POP SWAP1 POP DUP1 PUSH0 ADD DUP1 SLOAD PUSH2 0x96A SWAP1 PUSH2 0x400E JUMP JUMPDEST DUP1 PUSH1 0x1F ADD PUSH1 0x20 DUP1 SWAP2 DIV MUL PUSH1 0x20 ADD PUSH1 0x40 MLOAD SWAP1 DUP2 ADD PUSH1 0x40 MSTORE DUP1 SWAP3 SWAP2 SWAP1 DUP2 DUP2 MSTORE PUSH1 0x20 ADD DUP3 DUP1 SLOAD PUSH2 0x996 SWAP1 PUSH2 0x400E JUMP JUMPDEST DUP1 ISZERO PUSH2 0x9E1 JUMPI DUP1 PUSH1 0x1F LT PUSH2 0x9B8 JUMPI PUSH2 0x100 DUP1 DUP4 SLOAD DIV MUL DUP4 MSTORE SWAP2 PUSH1 0x20 ADD SWAP2 PUSH2 0x9E1 JUMP JUMPDEST DUP3 ADD SWAP2 SWAP1 PUSH0 MSTORE PUSH1 0x20 PUSH0 KECCAK256 SWAP1 JUMPDEST DUP2 SLOAD DUP2 MSTORE SWAP1 PUSH1 0x1 ADD SWAP1 PUSH1 0x20 ADD DUP1 DUP4 GT PUSH2 0x9C4 JUMPI DUP3 SWAP1 SUB PUSH1 0x1F AND DUP3 ADD SWAP2 JUMPDEST POP POP POP POP POP SWAP1 DUP1 PUSH1 0x1 ADD PUSH0 SWAP1 SLOAD SWAP1 PUSH2 0x100 EXP SWAP1 DIV PUSH1 0xFF AND SWAP1 DUP1 PUSH1 0x2 ADD SLOAD SWAP1 DUP1 PUSH1 0x3 ADD SLOAD SWAP1 DUP1 PUSH1 0x4 ADD PUSH0 SWAP1 SLOAD SWAP1 PUSH2 0x100 EXP SWAP1 DIV PUSH1 0xFF AND SWAP1 DUP1 PUSH1 0x4 ADD PUSH1 0x1 SWAP1 SLOAD SWAP1 PUSH2 0x100 EXP SWAP1 DIV PUSH1 0xFF AND SWAP1 DUP1 PUSH1 0x5 ADD SLOAD SWAP1 POP DUP8 JUMP JUMPDEST PUSH1 0x1 PUSH0 SWAP1 SLOAD SWAP1 PUSH2 0x100 EXP SWAP1 DIV PUSH20 0xFFFFFFFFFFFFFFFFFFFFFFFFFFFFFFFFFFFFFFFF AND PUSH20 0xFFFFFFFFFFFFFFFFFFFFFFFFFFFFFFFFFFFFFFFF AND CALLER PUSH20 0xFFFFFFFFFFFFFFFFFFFFFFFFFFFFFFFFFFFFFFFF AND EQ PUSH2 0xAC3 JUMPI PUSH1 0x40 MLOAD PUSH32 0x8C379A000000000000000000000000000000000000000000000000000000000 DUP2 MSTORE PUSH1 0x4 ADD PUSH2 0xABA SWAP1 PUSH2 0x4469 JUMP JUMPDEST PUSH1 0x40 MLOAD DUP1 SWAP2 SUB SWAP1 REVERT JUMPDEST PUSH0 PUSH0 PUSH0 SWAP1 SLOAD SWAP1 PUSH2 0x100 EXP SWAP1 DIV PUSH20 0xFFFFFFFFFFFFFFFFFFFFFFFFFFFFFFFFFFFFFFFF AND SWAP1 POP CALLER PUSH0 PUSH0 PUSH2 0x100 EXP DUP2 SLOAD DUP2 PUSH20 0xFFFFFFFFFFFFFFFFFFFFFFFFFFFFFFFFFFFFFFFF MUL NOT AND SWAP1 DUP4 PUSH20 0xFFFFFFFFFFFFFFFFFFFFFFFFFFFFFFFFFFFFFFFF AND MUL OR SWAP1 SSTORE POP PUSH0 PUSH1 0x1 PUSH0 PUSH2 0x100 EXP DUP2 SLOAD DUP2 PUSH20 0xFFFFFFFFFFFFFFFFFFFFFFFFFFFFFFFFFFFFFFFF MUL NOT AND SWAP1 DUP4 PUSH20 0xFFFFFFFFFFFFFFFFFFFFFFFFFFFFFFFFFFFFFFFF AND MUL OR SWAP1 SSTORE POP CALLER PUSH20 0xFFFFFFFFFFFFFFFFFFFFFFFFFFFFFFFFFFFFFFFF AND DUP2 PUSH20 0xFFFFFFFFFFFFFFFFFFFFFFFFFFFFFFFFFFFFFFFF AND PUSH32 0x8BE0079C531659141344CD1FD0A4F28419497F9722A3DAAFE3B4186F6B6457E0 PUSH1 0x40 MLOAD PUSH1 0x40 MLOAD DUP1 SWAP2 SUB SWAP1 LOG3 POP JUMP JUMPDEST PUSH2 0xBCB PUSH2 0x3140 JUMP JUMPDEST PUSH1 0x3 PUSH0 DUP4 PUSH20 0xFFFFFFFFFFFFFFFFFFFFFFFFFFFFFFFFFFFFFFFF AND PUSH20 0xFFFFFFFFFFFFFFFFFFFFFFFFFFFFFFFFFFFFFFFF AND DUP2 MSTORE PUSH1 0x20 ADD SWAP1 DUP2 MSTORE PUSH1 0x20 ADD PUSH0 KECCAK256 PUSH1 0x40 MLOAD DUP1 PUSH2 0x100 ADD PUSH1 0x40 MSTORE SWAP1 DUP2 PUSH0 DUP3 ADD DUP1 SLOAD PUSH2 0xC23 SWAP1 PUSH2 0x400E JUMP JUMPDEST DUP1 PUSH1 0x1F ADD PUSH1 0x20 DUP1 SWAP2 DIV MUL PUSH1 0x20 ADD PUSH1 0x40 MLOAD SWAP1 DUP2 ADD PUSH1 0x40 MSTORE DUP1 SWAP3 SWAP2 SWAP1 DUP2 DUP2 MSTORE PUSH1 0x20 ADD DUP3 DUP1 SLOAD PUSH2 0xC4F SWAP1 PUSH2 0x400E JUMP JUMPDEST DUP1 ISZERO PUSH2 0xC9A JUMPI DUP1 PUSH1 0x1F LT PUSH2 0xC71 JUMPI PUSH2 0x100 DUP1 DUP4 SLOAD DIV MUL DUP4 MSTORE SWAP2 PUSH1 0x20 ADD SWAP2 PUSH2 0xC9A JUMP JUMPDEST DUP3 ADD SWAP2 SWAP1 PUSH0 MSTORE PUSH1 0x20 PUSH0 KECCAK256 SWAP1 JUMPDEST DUP2 SLOAD DUP2 MSTORE SWAP1 PUSH1 0x1 ADD SWAP1 PUSH1 0x20 ADD DUP1 DUP4 GT PUSH2 0xC7D JUMPI DUP3 SWAP1 SUB PUSH1 0x1F AND DUP3 ADD SWAP2 JUMPDEST POP POP POP POP POP DUP2 MSTORE PUSH1 0x20 ADD PUSH1 0x1 DUP3 ADD PUSH0 SWAP1 SLOAD SWAP1 PUSH2 0x100 EXP SWAP1 DIV PUSH1 0xFF AND PUSH1 0xFF AND PUSH1 0xFF AND DUP2 MSTORE PUSH1 0x20 ADD PUSH1 0x2 DUP3 ADD SLOAD DUP2 MSTORE PUSH1 0x20 ADD PUSH1 0x3 DUP3 ADD SLOAD DUP2 MSTORE PUSH1 0x20 ADD PUSH1 0x4 DUP3 ADD PUSH0 SWAP1 SLOAD SWAP1 PUSH2 0x100 EXP SWAP1 DIV PUSH1 0xFF AND ISZERO ISZERO ISZERO ISZERO DUP2 MSTORE PUSH1 0x20 ADD PUSH1 0x4 DUP3 ADD PUSH1 0x1 SWAP1 SLOAD SWAP1 PUSH2 0x100 EXP SWAP1 DIV PUSH1 0xFF AND PUSH1 0xFF AND PUSH1 0xFF AND DUP2 MSTORE PUSH1 0x20 ADD PUSH1 0x5 DUP3 ADD SLOAD DUP2 MSTORE PUSH1 0x20 ADD PUSH1 0x6 DUP3 ADD DUP1 SLOAD DUP1 PUSH1 0x20 MUL PUSH1 0x20 ADD PUSH1 0x40 MLOAD SWAP1 DUP2 ADD PUSH1 0x40 MSTORE DUP1 SWAP3 SWAP2 SWAP1 DUP2 DUP2 MSTORE PUSH1 0x20 ADD PUSH0 SWAP1 JUMPDEST DUP3 DUP3 LT ISZERO PUSH2 0xDE0 JUMPI DUP4 DUP3 SWAP1 PUSH0 MSTORE PUSH1 0x20 PUSH0 KECCAK256 ADD DUP1 SLOAD PUSH2 0xD55 SWAP1 PUSH2 0x400E JUMP JUMPDEST DUP1 PUSH1 0x1F ADD PUSH1 0x20 DUP1 SWAP2 DIV MUL PUSH1 0x20 ADD PUSH1 0x40 MLOAD SWAP1 DUP2 ADD PUSH1 0x40 MSTORE DUP1 SWAP3 SWAP2 SWAP1 DUP2 DUP2 MSTORE PUSH1 0x20 ADD DUP3 DUP1 SLOAD PUSH2 0xD81 SWAP1 PUSH2 0x400E JUMP JUMPDEST DUP1 ISZERO PUSH2 0xDCC JUMPI DUP1 PUSH1 0x1F LT PUSH2 0xDA3 JUMPI PUSH2 0x100 DUP1 DUP4 SLOAD DIV MUL DUP4 MSTORE SWAP2 PUSH1 0x20 ADD SWAP2 PUSH2 0xDCC JUMP JUMPDEST DUP3 ADD SWAP2 SWAP1 PUSH0 MSTORE PUSH1 0x20 PUSH0 KECCAK256 SWAP1 JUMPDEST DUP2 SLOAD DUP2 MSTORE SWAP1 PUSH1 0x1 ADD SWAP1 PUSH1 0x20 ADD DUP1 DUP4 GT PUSH2 0xDAF JUMPI DUP3 SWAP1 SUB PUSH1 0x1F AND DUP3 ADD SWAP2 JUMPDEST POP POP POP POP POP DUP2 MSTORE PUSH1 0x20 ADD SWAP1 PUSH1 0x1 ADD SWAP1 PUSH2 0xD38 JUMP JUMPDEST POP POP POP POP DUP2 MSTORE POP POP SWAP1 POP SWAP2 SWAP1 POP JUMP JUMPDEST PUSH0 PUSH0 PUSH0 SWAP1 SLOAD SWAP1 PUSH2 0x100 EXP SWAP1 DIV PUSH20 0xFFFFFFFFFFFFFFFFFFFFFFFFFFFFFFFFFFFFFFFF AND SWAP1 POP SWAP1 JUMP JUMPDEST PUSH2 0xE1E PUSH2 0x1EDB JUMP JUMPDEST PUSH0 PUSH1 0x3 PUSH0 CALLER PUSH20 0xFFFFFFFFFFFFFFFFFFFFFFFFFFFFFFFFFFFFFFFF AND PUSH20 0xFFFFFFFFFFFFFFFFFFFFFFFFFFFFFFFFFFFFFFFF AND DUP2 MSTORE PUSH1 0x20 ADD SWAP1 DUP2 MSTORE PUSH1 0x20 ADD PUSH0 KECCAK256 SWAP1 POP DUP1 PUSH1 0x4 ADD PUSH0 SWAP1 SLOAD SWAP1 PUSH2 0x100 EXP SWAP1 DIV PUSH1 0xFF AND PUSH2 0xEAE JUMPI PUSH1 0x40 MLOAD PUSH32 0x8C379A000000000000000000000000000000000000000000000000000000000 DUP2 MSTORE PUSH1 0x4 ADD PUSH2 0xEA5 SWAP1 PUSH2 0x44D1 JUMP JUMPDEST PUSH1 0x40 MLOAD DUP1 SWAP2 SUB SWAP1 REVERT JUMPDEST PUSH2 0x1C2 DUP2 PUSH1 0x3 ADD SLOAD PUSH2 0xEC0 SWAP2 SWAP1 PUSH2 0x3C79 JUMP JUMPDEST TIMESTAMP GT ISZERO PUSH2 0xF02 JUMPI PUSH1 0x40 MLOAD PUSH32 0x8C379A000000000000000000000000000000000000000000000000000000000 DUP2 MSTORE PUSH1 0x4 ADD PUSH2 0xEF9 SWAP1 PUSH2 0x4539 JUMP JUMPDEST PUSH1 0x40 MLOAD DUP1 SWAP2 SUB SWAP1 REVERT JUMPDEST PUSH0 PUSH32 0x0 PUSH20 0xFFFFFFFFFFFFFFFFFFFFFFFFFFFFFFFFFFFFFFFF AND PUSH4 0xA9059CBB CALLER PUSH7 0x2386F26FC10000 PUSH1 0x40 MLOAD DUP4 PUSH4 0xFFFFFFFF AND PUSH1 0xE0 SHL DUP2 MSTORE PUSH1 0x4 ADD PUSH2 0xF65 SWAP3 SWAP2 SWAP1 PUSH2 0x4557 JUMP JUMPDEST PUSH1 0x20 PUSH1 0x40 MLOAD DUP1 DUP4 SUB DUP2 PUSH0 DUP8 GAS CALL ISZERO DUP1 ISZERO PUSH2 0xF81 JUMPI RETURNDATASIZE PUSH0 PUSH0 RETURNDATACOPY RETURNDATASIZE PUSH0 REVERT JUMPDEST POP POP POP POP PUSH1 0x40 MLOAD RETURNDATASIZE PUSH1 0x1F NOT PUSH1 0x1F DUP3 ADD AND DUP3 ADD DUP1 PUSH1 0x40 MSTORE POP DUP2 ADD SWAP1 PUSH2 0xFA5 SWAP2 SWAP1 PUSH2 0x3EA9 JUMP JUMPDEST SWAP1 POP DUP1 PUSH2 0xFE7 JUMPI PUSH1 0x40 MLOAD PUSH32 0x8C379A000000000000000000000000000000000000000000000000000000000 DUP2 MSTORE PUSH1 0x4 ADD PUSH2 0xFDE SWAP1 PUSH2 0x45C8 JUMP JUMPDEST PUSH1 0x40 MLOAD DUP1 SWAP2 SUB SWAP1 REVERT JUMPDEST PUSH0 DUP3 PUSH1 0x4 ADD PUSH0 PUSH2 0x100 EXP DUP2 SLOAD DUP2 PUSH1 0xFF MUL NOT AND SWAP1 DUP4 ISZERO ISZERO MUL OR SWAP1 SSTORE POP CALLER PUSH20 0xFFFFFFFFFFFFFFFFFFFFFFFFFFFFFFFFFFFFFFFF AND PUSH32 0xD9EF658E62B2D2EC36EA56E68DB6F49DCB5E7977F243F28354069876AD0B90E4 PUSH1 0x40 MLOAD PUSH1 0x40 MLOAD DUP1 SWAP2 SUB SWAP1 LOG2 POP POP PUSH2 0x104F PUSH2 0x20F3 JUMP JUMPDEST JUMP JUMPDEST PUSH0 PUSH0 PUSH32 0x0 PUSH20 0xFFFFFFFFFFFFFFFFFFFFFFFFFFFFFFFFFFFFFFFF AND PUSH4 0xFEAF968C PUSH1 0x40 MLOAD DUP2 PUSH4 0xFFFFFFFF AND PUSH1 0xE0 SHL DUP2 MSTORE PUSH1 0x4 ADD PUSH1 0xA0 PUSH1 0x40 MLOAD DUP1 DUP4 SUB DUP2 DUP7 GAS STATICCALL ISZERO DUP1 ISZERO PUSH2 0x10BC JUMPI RETURNDATASIZE PUSH0 PUSH0 RETURNDATACOPY RETURNDATASIZE PUSH0 REVERT JUMPDEST POP POP POP POP PUSH1 0x40 MLOAD RETURNDATASIZE PUSH1 0x1F NOT PUSH1 0x1F DUP3 ADD AND DUP3 ADD DUP1 PUSH1 0x40 MSTORE POP DUP2 ADD SWAP1 PUSH2 0x10E0 SWAP2 SWAP1 PUSH2 0x4658 JUMP JUMPDEST POP POP POP SWAP2 POP POP PUSH0 DUP2 SGT PUSH2 0x1128 JUMPI PUSH1 0x40 MLOAD PUSH32 0x8C379A000000000000000000000000000000000000000000000000000000000 DUP2 MSTORE PUSH1 0x4 ADD PUSH2 0x111F SWAP1 PUSH2 0x4719 JUMP JUMPDEST PUSH1 0x40 MLOAD DUP1 SWAP2 SUB SWAP1 REVERT JUMPDEST PUSH8 0xDE0B6B3A7640000 DUP2 DUP5 PUSH2 0x113D SWAP2 SWAP1 PUSH2 0x4737 JUMP JUMPDEST PUSH2 0x1147 SWAP2 SWAP1 PUSH2 0x47A5 JUMP JUMPDEST SWAP2 POP POP SWAP2 SWAP1 POP JUMP JUMPDEST PUSH2 0x1157 PUSH2 0x1EDB JUMP JUMPDEST PUSH32 0x0 PUSH20 0xFFFFFFFFFFFFFFFFFFFFFFFFFFFFFFFFFFFFFFFF AND CALLER PUSH20 0xFFFFFFFFFFFFFFFFFFFFFFFFFFFFFFFFFFFFFFFF AND EQ PUSH2 0x11E5 JUMPI PUSH1 0x40 MLOAD PUSH32 0x8C379A000000000000000000000000000000000000000000000000000000000 DUP2 MSTORE PUSH1 0x4 ADD PUSH2 0x11DC SWAP1 PUSH2 0x481F JUMP JUMPDEST PUSH1 0x40 MLOAD DUP1 SWAP2 SUB SWAP1 REVERT JUMPDEST PUSH0 PUSH0 PUSH0 PUSH32 0x0 PUSH20 0xFFFFFFFFFFFFFFFFFFFFFFFFFFFFFFFFFFFFFFFF AND PUSH4 0xD8A4676F DUP6 PUSH1 0x40 MLOAD DUP3 PUSH4 0xFFFFFFFF AND PUSH1 0xE0 SHL DUP2 MSTORE PUSH1 0x4 ADD PUSH2 0x1241 SWAP2 SWAP1 PUSH2 0x39AB JUMP JUMPDEST PUSH0 PUSH1 0x40 MLOAD DUP1 DUP4 SUB DUP2 DUP7 GAS STATICCALL ISZERO DUP1 ISZERO PUSH2 0x125B JUMPI RETURNDATASIZE PUSH0 PUSH0 RETURNDATACOPY RETURNDATASIZE PUSH0 REVERT JUMPDEST POP POP POP POP PUSH1 0x40 MLOAD RETURNDATASIZE PUSH0 DUP3 RETURNDATACOPY RETURNDATASIZE PUSH1 0x1F NOT PUSH1 0x1F DUP3 ADD AND DUP3 ADD DUP1 PUSH1 0x40 MSTORE POP DUP2 ADD SWAP1 PUSH2 0x1283 SWAP2 SWAP1 PUSH2 0x4911 JUMP JUMPDEST SWAP3 POP SWAP3 POP SWAP3 POP DUP3 PUSH2 0x12C9 JUMPI PUSH1 0x40 MLOAD PUSH32 0x8C379A000000000000000000000000000000000000000000000000000000000 DUP2 MSTORE PUSH1 0x4 ADD PUSH2 0x12C0 SWAP1 PUSH2 0x49C7 JUMP JUMPDEST PUSH1 0x40 MLOAD DUP1 SWAP2 SUB SWAP1 REVERT JUMPDEST PUSH0 PUSH1 0x3 PUSH0 DUP4 PUSH20 0xFFFFFFFFFFFFFFFFFFFFFFFFFFFFFFFFFFFFFFFF AND PUSH20 0xFFFFFFFFFFFFFFFFFFFFFFFFFFFFFFFFFFFFFFFF AND DUP2 MSTORE PUSH1 0x20 ADD SWAP1 DUP2 MSTORE PUSH1 0x20 ADD PUSH0 KECCAK256 SWAP1 POP DUP1 PUSH1 0x4 ADD PUSH0 SWAP1 SLOAD SWAP1 PUSH2 0x100 EXP SWAP1 DIV PUSH1 0xFF AND PUSH2 0x1359 JUMPI PUSH1 0x40 MLOAD PUSH32 0x8C379A000000000000000000000000000000000000000000000000000000000 DUP2 MSTORE PUSH1 0x4 ADD PUSH2 0x1350 SWAP1 PUSH2 0x44D1 JUMP JUMPDEST PUSH1 0x40 MLOAD DUP1 SWAP2 SUB SWAP1 REVERT JUMPDEST DUP5 DUP2 PUSH1 0x5 ADD SLOAD EQ PUSH2 0x139F JUMPI PUSH1 0x40 MLOAD PUSH32 0x8C379A000000000000000000000000000000000000000000000000000000000 DUP2 MSTORE PUSH1 0x4 ADD PUSH2 0x1396 SWAP1 PUSH2 0x4A2F JUMP JUMPDEST PUSH1 0x40 MLOAD DUP1 SWAP2 SUB SWAP1 REVERT JUMPDEST PUSH0 PUSH2 0x13D2 PUSH4 0x5F5E100 DUP6 PUSH0 DUP2 MLOAD DUP2 LT PUSH2 0x13BB JUMPI PUSH2 0x13BA PUSH2 0x3F3C JUMP JUMPDEST JUMPDEST PUSH1 0x20 MUL PUSH1 0x20 ADD ADD MLOAD PUSH2 0x13CD SWAP2 SWAP1 PUSH2 0x4A4D JUMP JUMPDEST PUSH2 0x1F7A JUMP JUMPDEST PUSH1 0x40 MLOAD PUSH1 0x20 ADD PUSH2 0x13E2 SWAP2 SWAP1 PUSH2 0x432F JUMP JUMPDEST PUSH1 0x40 MLOAD PUSH1 0x20 DUP2 DUP4 SUB SUB DUP2 MSTORE SWAP1 PUSH1 0x40 MSTORE SWAP1 POP DUP1 DUP3 PUSH0 ADD SWAP1 DUP2 PUSH2 0x1403 SWAP2 SWAP1 PUSH2 0x4350 JUMP JUMPDEST POP PUSH2 0x140C PUSH2 0x3187 JUMP JUMPDEST PUSH2 0x1426 PUSH2 0x1417 PUSH2 0x20FD JUMP JUMPDEST DUP3 PUSH2 0x2120 SWAP1 SWAP2 SWAP1 PUSH4 0xFFFFFFFF AND JUMP JUMPDEST PUSH0 PUSH1 0x4 PUSH8 0xFFFFFFFFFFFFFFFF DUP2 GT ISZERO PUSH2 0x1442 JUMPI PUSH2 0x1441 PUSH2 0x3305 JUMP JUMPDEST JUMPDEST PUSH1 0x40 MLOAD SWAP1 DUP1 DUP3 MSTORE DUP1 PUSH1 0x20 MUL PUSH1 0x20 ADD DUP3 ADD PUSH1 0x40 MSTORE DUP1 ISZERO PUSH2 0x1475 JUMPI DUP2 PUSH1 0x20 ADD JUMPDEST PUSH1 0x60 DUP2 MSTORE PUSH1 0x20 ADD SWAP1 PUSH1 0x1 SWAP1 SUB SWAP1 DUP2 PUSH2 0x1460 JUMPI SWAP1 POP JUMPDEST POP SWAP1 POP PUSH2 0x154F DUP5 PUSH1 0x6 ADD DUP1 SLOAD DUP1 PUSH1 0x20 MUL PUSH1 0x20 ADD PUSH1 0x40 MLOAD SWAP1 DUP2 ADD PUSH1 0x40 MSTORE DUP1 SWAP3 SWAP2 SWAP1 DUP2 DUP2 MSTORE PUSH1 0x20 ADD PUSH0 SWAP1 JUMPDEST DUP3 DUP3 LT ISZERO PUSH2 0x1546 JUMPI DUP4 DUP3 SWAP1 PUSH0 MSTORE PUSH1 0x20 PUSH0 KECCAK256 ADD DUP1 SLOAD PUSH2 0x14BB SWAP1 PUSH2 0x400E JUMP JUMPDEST DUP1 PUSH1 0x1F ADD PUSH1 0x20 DUP1 SWAP2 DIV MUL PUSH1 0x20 ADD PUSH1 0x40 MLOAD SWAP1 DUP2 ADD PUSH1 0x40 MSTORE DUP1 SWAP3 SWAP2 SWAP1 DUP2 DUP2 MSTORE PUSH1 0x20 ADD DUP3 DUP1 SLOAD PUSH2 0x14E7 SWAP1 PUSH2 0x400E JUMP JUMPDEST DUP1 ISZERO PUSH2 0x1532 JUMPI DUP1 PUSH1 0x1F LT PUSH2 0x1509 JUMPI PUSH2 0x100 DUP1 DUP4 SLOAD DIV MUL DUP4 MSTORE SWAP2 PUSH1 0x20 ADD SWAP2 PUSH2 0x1532 JUMP JUMPDEST DUP3 ADD SWAP2 SWAP1 PUSH0 MSTORE PUSH1 0x20 PUSH0 KECCAK256 SWAP1 JUMPDEST DUP2 SLOAD DUP2 MSTORE SWAP1 PUSH1 0x1 ADD SWAP1 PUSH1 0x20 ADD DUP1 DUP4 GT PUSH2 0x1515 JUMPI DUP3 SWAP1 SUB PUSH1 0x1F AND DUP3 ADD SWAP2 JUMPDEST POP POP POP POP POP DUP2 MSTORE PUSH1 0x20 ADD SWAP1 PUSH1 0x1 ADD SWAP1 PUSH2 0x149E JUMP JUMPDEST POP POP POP POP PUSH2 0x2130 JUMP JUMPDEST DUP2 PUSH0 DUP2 MLOAD DUP2 LT PUSH2 0x1562 JUMPI PUSH2 0x1561 PUSH2 0x3F3C JUMP JUMPDEST JUMPDEST PUSH1 0x20 MUL PUSH1 0x20 ADD ADD DUP2 SWAP1 MSTORE POP PUSH2 0x1576 DUP6 PUSH2 0x2159 JUMP JUMPDEST DUP2 PUSH1 0x1 DUP2 MLOAD DUP2 LT PUSH2 0x158A JUMPI PUSH2 0x1589 PUSH2 0x3F3C JUMP JUMPDEST JUMPDEST PUSH1 0x20 MUL PUSH1 0x20 ADD ADD DUP2 SWAP1 MSTORE POP DUP3 DUP2 PUSH1 0x2 DUP2 MLOAD DUP2 LT PUSH2 0x15AA JUMPI PUSH2 0x15A9 PUSH2 0x3F3C JUMP JUMPDEST JUMPDEST PUSH1 0x20 MUL PUSH1 0x20 ADD ADD DUP2 SWAP1 MSTORE POP PUSH2 0x15BD PUSH2 0x239A JUMP JUMPDEST DUP2 PUSH1 0x3 DUP2 MLOAD DUP2 LT PUSH2 0x15D1 JUMPI PUSH2 0x15D0 PUSH2 0x3F3C JUMP JUMPDEST JUMPDEST PUSH1 0x20 MUL PUSH1 0x20 ADD ADD DUP2 SWAP1 MSTORE POP PUSH2 0x15EF DUP2 DUP4 PUSH2 0x23D7 SWAP1 SWAP2 SWAP1 PUSH4 0xFFFFFFFF AND JUMP JUMPDEST PUSH0 PUSH2 0x1647 PUSH2 0x15FC DUP5 PUSH2 0x241E JUMP JUMPDEST PUSH32 0x0 PUSH3 0x493E0 PUSH32 0x0 PUSH2 0x2829 JUMP JUMPDEST SWAP1 POP DUP6 PUSH1 0x4 PUSH0 DUP4 DUP2 MSTORE PUSH1 0x20 ADD SWAP1 DUP2 MSTORE PUSH1 0x20 ADD PUSH0 KECCAK256 PUSH0 PUSH2 0x100 EXP DUP2 SLOAD DUP2 PUSH20 0xFFFFFFFFFFFFFFFFFFFFFFFFFFFFFFFFFFFFFFFF MUL NOT AND SWAP1 DUP4 PUSH20 0xFFFFFFFFFFFFFFFFFFFFFFFFFFFFFFFFFFFFFFFF AND MUL OR SWAP1 SSTORE POP POP POP POP POP POP POP POP POP PUSH2 0x16A8 PUSH2 0x20F3 JUMP JUMPDEST POP JUMP JUMPDEST PUSH2 0x16B3 PUSH2 0x1EDB JUMP JUMPDEST PUSH0 PUSH1 0x3 PUSH0 CALLER PUSH20 0xFFFFFFFFFFFFFFFFFFFFFFFFFFFFFFFFFFFFFFFF AND PUSH20 0xFFFFFFFFFFFFFFFFFFFFFFFFFFFFFFFFFFFFFFFF AND DUP2 MSTORE PUSH1 0x20 ADD SWAP1 DUP2 MSTORE PUSH1 0x20 ADD PUSH0 KECCAK256 SWAP1 POP DUP1 PUSH1 0x4 ADD PUSH0 SWAP1 SLOAD SWAP1 PUSH2 0x100 EXP SWAP1 DIV PUSH1 0xFF AND PUSH2 0x1743 JUMPI PUSH1 0x40 MLOAD PUSH32 0x8C379A000000000000000000000000000000000000000000000000000000000 DUP2 MSTORE PUSH1 0x4 ADD PUSH2 0x173A SWAP1 PUSH2 0x44D1 JUMP JUMPDEST PUSH1 0x40 MLOAD DUP1 SWAP2 SUB SWAP1 REVERT JUMPDEST DUP1 PUSH1 0x4 ADD PUSH1 0x1 SWAP1 SLOAD SWAP1 PUSH2 0x100 EXP SWAP1 DIV PUSH1 0xFF AND PUSH1 0xFF AND DUP2 PUSH1 0x1 ADD PUSH0 SWAP1 SLOAD SWAP1 PUSH2 0x100 EXP SWAP1 DIV PUSH1 0xFF AND PUSH1 0xFF AND LT PUSH2 0x17AC JUMPI PUSH1 0x40 MLOAD PUSH32 0x8C379A000000000000000000000000000000000000000000000000000000000 DUP2 MSTORE PUSH1 0x4 ADD PUSH2 0x17A3 SWAP1 PUSH2 0x4AC7 JUMP JUMPDEST PUSH1 0x40 MLOAD DUP1 SWAP2 SUB SWAP1 REVERT JUMPDEST PUSH2 0x1C2 DUP2 PUSH1 0x3 ADD SLOAD PUSH2 0x17BE SWAP2 SWAP1 PUSH2 0x3C79 JUMP JUMPDEST TIMESTAMP GT ISZERO PUSH2 0x1800 JUMPI PUSH1 0x40 MLOAD PUSH32 0x8C379A000000000000000000000000000000000000000000000000000000000 DUP2 MSTORE PUSH1 0x4 ADD PUSH2 0x17F7 SWAP1 PUSH2 0x4539 JUMP JUMPDEST PUSH1 0x40 MLOAD DUP1 SWAP2 SUB SWAP1 REVERT JUMPDEST PUSH2 0x1808 PUSH2 0x3187 JUMP JUMPDEST PUSH2 0x1822 PUSH2 0x1813 PUSH2 0x2908 JUMP JUMPDEST DUP3 PUSH2 0x2120 SWAP1 SWAP2 SWAP1 PUSH4 0xFFFFFFFF AND JUMP JUMPDEST PUSH0 PUSH1 0x4 PUSH8 0xFFFFFFFFFFFFFFFF DUP2 GT ISZERO PUSH2 0x183E JUMPI PUSH2 0x183D PUSH2 0x3305 JUMP JUMPDEST JUMPDEST PUSH1 0x40 MLOAD SWAP1 DUP1 DUP3 MSTORE DUP1 PUSH1 0x20 MUL PUSH1 0x20 ADD DUP3 ADD PUSH1 0x40 MSTORE DUP1 ISZERO PUSH2 0x1871 JUMPI DUP2 PUSH1 0x20 ADD JUMPDEST PUSH1 0x60 DUP2 MSTORE PUSH1 0x20 ADD SWAP1 PUSH1 0x1 SWAP1 SUB SWAP1 DUP2 PUSH2 0x185C JUMPI SWAP1 POP JUMPDEST POP SWAP1 POP DUP3 PUSH0 ADD DUP1 SLOAD PUSH2 0x1882 SWAP1 PUSH2 0x400E JUMP JUMPDEST DUP1 PUSH1 0x1F ADD PUSH1 0x20 DUP1 SWAP2 DIV MUL PUSH1 0x20 ADD PUSH1 0x40 MLOAD SWAP1 DUP2 ADD PUSH1 0x40 MSTORE DUP1 SWAP3 SWAP2 SWAP1 DUP2 DUP2 MSTORE PUSH1 0x20 ADD DUP3 DUP1 SLOAD PUSH2 0x18AE SWAP1 PUSH2 0x400E JUMP JUMPDEST DUP1 ISZERO PUSH2 0x18F9 JUMPI DUP1 PUSH1 0x1F LT PUSH2 0x18D0 JUMPI PUSH2 0x100 DUP1 DUP4 SLOAD DIV MUL DUP4 MSTORE SWAP2 PUSH1 0x20 ADD SWAP2 PUSH2 0x18F9 JUMP JUMPDEST DUP3 ADD SWAP2 SWAP1 PUSH0 MSTORE PUSH1 0x20 PUSH0 KECCAK256 SWAP1 JUMPDEST DUP2 SLOAD DUP2 MSTORE SWAP1 PUSH1 0x1 ADD SWAP1 PUSH1 0x20 ADD DUP1 DUP4 GT PUSH2 0x18DC JUMPI DUP3 SWAP1 SUB PUSH1 0x1F AND DUP3 ADD SWAP2 JUMPDEST POP POP POP POP POP DUP2 PUSH0 DUP2 MLOAD DUP2 LT PUSH2 0x1911 JUMPI PUSH2 0x1910 PUSH2 0x3F3C JUMP JUMPDEST JUMPDEST PUSH1 0x20 MUL PUSH1 0x20 ADD ADD DUP2 SWAP1 MSTORE POP PUSH2 0x1925 CALLER PUSH2 0x2159 JUMP JUMPDEST DUP2 PUSH1 0x1 DUP2 MLOAD DUP2 LT PUSH2 0x1939 JUMPI PUSH2 0x1938 PUSH2 0x3F3C JUMP JUMPDEST JUMPDEST PUSH1 0x20 MUL PUSH1 0x20 ADD ADD DUP2 SWAP1 MSTORE POP PUSH2 0x1960 DUP4 PUSH1 0x1 ADD PUSH0 SWAP1 SLOAD SWAP1 PUSH2 0x100 EXP SWAP1 DIV PUSH1 0xFF AND PUSH1 0xFF AND PUSH2 0x1F7A JUMP JUMPDEST DUP2 PUSH1 0x2 DUP2 MLOAD DUP2 LT PUSH2 0x1974 JUMPI PUSH2 0x1973 PUSH2 0x3F3C JUMP JUMPDEST JUMPDEST PUSH1 0x20 MUL PUSH1 0x20 ADD ADD DUP2 SWAP1 MSTORE POP PUSH2 0x198B DUP5 PUSH1 0xFF AND PUSH2 0x1F7A JUMP JUMPDEST DUP2 PUSH1 0x3 DUP2 MLOAD DUP2 LT PUSH2 0x199F JUMPI PUSH2 0x199E PUSH2 0x3F3C JUMP JUMPDEST JUMPDEST PUSH1 0x20 MUL PUSH1 0x20 ADD ADD DUP2 SWAP1 MSTORE POP PUSH2 0x19BD DUP2 DUP4 PUSH2 0x23D7 SWAP1 SWAP2 SWAP1 PUSH4 0xFFFFFFFF AND JUMP JUMPDEST PUSH0 PUSH2 0x1A15 PUSH2 0x19CA DUP5 PUSH2 0x241E JUMP JUMPDEST PUSH32 0x0 PUSH3 0x493E0 PUSH32 0x0 PUSH2 0x2829 JUMP JUMPDEST SWAP1 POP CALLER PUSH1 0x4 PUSH0 DUP4 DUP2 MSTORE PUSH1 0x20 ADD SWAP1 DUP2 MSTORE PUSH1 0x20 ADD PUSH0 KECCAK256 PUSH0 PUSH2 0x100 EXP DUP2 SLOAD DUP2 PUSH20 0xFFFFFFFFFFFFFFFFFFFFFFFFFFFFFFFFFFFFFFFF MUL NOT AND SWAP1 DUP4 PUSH20 0xFFFFFFFFFFFFFFFFFFFFFFFFFFFFFFFFFFFFFFFF AND MUL OR SWAP1 SSTORE POP DUP4 PUSH1 0x1 ADD PUSH0 DUP2 DUP2 SWAP1 SLOAD SWAP1 PUSH2 0x100 EXP SWAP1 DIV PUSH1 0xFF AND DUP1 SWAP3 SWAP2 SWAP1 PUSH2 0x1A86 SWAP1 PUSH2 0x4AE5 JUMP JUMPDEST SWAP2 SWAP1 PUSH2 0x100 EXP DUP2 SLOAD DUP2 PUSH1 0xFF MUL NOT AND SWAP1 DUP4 PUSH1 0xFF AND MUL OR SWAP1 SSTORE POP POP POP POP POP POP PUSH2 0x1AAB PUSH2 0x20F3 JUMP JUMPDEST POP JUMP JUMPDEST PUSH2 0x1AB6 PUSH2 0x292B JUMP JUMPDEST PUSH2 0x1ABF DUP2 PUSH2 0x29BB JUMP JUMPDEST POP JUMP JUMPDEST PUSH0 PUSH1 0x4 PUSH0 DUP6 DUP2 MSTORE PUSH1 0x20 ADD SWAP1 DUP2 MSTORE PUSH1 0x20 ADD PUSH0 KECCAK256 PUSH0 SWAP1 SLOAD SWAP1 PUSH2 0x100 EXP SWAP1 DIV PUSH20 0xFFFFFFFFFFFFFFFFFFFFFFFFFFFFFFFFFFFFFFFF AND SWAP1 POP PUSH0 PUSH20 0xFFFFFFFFFFFFFFFFFFFFFFFFFFFFFFFFFFFFFFFF AND DUP2 PUSH20 0xFFFFFFFFFFFFFFFFFFFFFFFFFFFFFFFFFFFFFFFF AND SUB PUSH2 0x1B64 JUMPI PUSH1 0x40 MLOAD PUSH32 0x8C379A000000000000000000000000000000000000000000000000000000000 DUP2 MSTORE PUSH1 0x4 ADD PUSH2 0x1B5B SWAP1 PUSH2 0x4B57 JUMP JUMPDEST PUSH1 0x40 MLOAD DUP1 SWAP2 SUB SWAP1 REVERT JUMPDEST PUSH0 PUSH1 0x3 PUSH0 DUP4 PUSH20 0xFFFFFFFFFFFFFFFFFFFFFFFFFFFFFFFFFFFFFFFF AND PUSH20 0xFFFFFFFFFFFFFFFFFFFFFFFFFFFFFFFFFFFFFFFF AND DUP2 MSTORE PUSH1 0x20 ADD SWAP1 DUP2 MSTORE PUSH1 0x20 ADD PUSH0 KECCAK256 SWAP1 POP PUSH0 DUP4 MLOAD GT ISZERO PUSH2 0x1C12 JUMPI PUSH0 DUP2 PUSH1 0x4 ADD PUSH0 PUSH2 0x100 EXP DUP2 SLOAD DUP2 PUSH1 0xFF MUL NOT AND SWAP1 DUP4 ISZERO ISZERO MUL OR SWAP1 SSTORE POP DUP2 PUSH20 0xFFFFFFFFFFFFFFFFFFFFFFFFFFFFFFFFFFFFFFFF AND PUSH32 0xD9EF658E62B2D2EC36EA56E68DB6F49DCB5E7977F243F28354069876AD0B90E4 PUSH1 0x40 MLOAD PUSH1 0x40 MLOAD DUP1 SWAP2 SUB SWAP1 LOG2 POP POP PUSH2 0x1ED6 JUMP JUMPDEST PUSH0 DUP2 PUSH1 0x5 ADD SLOAD GT ISZERO PUSH2 0x1C7E JUMPI DUP2 PUSH20 0xFFFFFFFFFFFFFFFFFFFFFFFFFFFFFFFFFFFFFFFF AND PUSH32 0xE0D683E49F05667B1468856383469FE4F167381D41A145033167AFB7A98ADEC1 DUP3 PUSH0 ADD DUP8 PUSH1 0x40 MLOAD PUSH2 0x1C68 SWAP3 SWAP2 SWAP1 PUSH2 0x4C05 JUMP JUMPDEST PUSH1 0x40 MLOAD DUP1 SWAP2 SUB SWAP1 LOG2 PUSH0 DUP2 PUSH1 0x5 ADD DUP2 SWAP1 SSTORE POP PUSH2 0x1ED3 JUMP JUMPDEST PUSH0 DUP5 DUP1 PUSH1 0x20 ADD SWAP1 MLOAD DUP2 ADD SWAP1 PUSH2 0x1C93 SWAP2 SWAP1 PUSH2 0x3EA9 JUMP JUMPDEST SWAP1 POP DUP1 ISZERO PUSH2 0x1CB5 JUMPI DUP2 PUSH1 0x2 ADD PUSH0 DUP2 SLOAD DUP1 SWAP3 SWAP2 SWAP1 PUSH2 0x1CAF SWAP1 PUSH2 0x4C33 JUMP JUMPDEST SWAP2 SWAP1 POP SSTORE POP JUMPDEST DUP3 PUSH20 0xFFFFFFFFFFFFFFFFFFFFFFFFFFFFFFFFFFFFFFFF AND PUSH32 0x80A5E4FD680199ED77F69CEDDE1AE21EE8D0F50A6D3E42D85F2E0B5DD69675C4 PUSH1 0x1 DUP5 PUSH1 0x1 ADD PUSH0 SWAP1 SLOAD SWAP1 PUSH2 0x100 EXP SWAP1 DIV PUSH1 0xFF AND PUSH2 0x1D0A SWAP2 SWAP1 PUSH2 0x4C7A JUMP JUMPDEST DUP4 PUSH1 0x40 MLOAD PUSH2 0x1D19 SWAP3 SWAP2 SWAP1 PUSH2 0x4CAE JUMP JUMPDEST PUSH1 0x40 MLOAD DUP1 SWAP2 SUB SWAP1 LOG2 DUP2 PUSH1 0x4 ADD PUSH1 0x1 SWAP1 SLOAD SWAP1 PUSH2 0x100 EXP SWAP1 DIV PUSH1 0xFF AND PUSH1 0xFF AND DUP3 PUSH1 0x1 ADD PUSH0 SWAP1 SLOAD SWAP1 PUSH2 0x100 EXP SWAP1 DIV PUSH1 0xFF AND PUSH1 0xFF AND LT PUSH2 0x1ED1 JUMPI PUSH0 PUSH7 0xB1A2BC2EC50000 DUP4 PUSH1 0x2 ADD SLOAD PUSH2 0x1D67 SWAP2 SWAP1 PUSH2 0x4737 JUMP JUMPDEST SWAP1 POP PUSH0 PUSH2 0x1D73 DUP3 PUSH2 0x1051 JUMP JUMPDEST SWAP1 POP PUSH0 DUP3 GT ISZERO PUSH2 0x1E5D JUMPI PUSH0 PUSH32 0x0 PUSH20 0xFFFFFFFFFFFFFFFFFFFFFFFFFFFFFFFFFFFFFFFF AND PUSH4 0xA9059CBB DUP8 DUP6 PUSH1 0x40 MLOAD DUP4 PUSH4 0xFFFFFFFF AND PUSH1 0xE0 SHL DUP2 MSTORE PUSH1 0x4 ADD PUSH2 0x1DD9 SWAP3 SWAP2 SWAP1 PUSH2 0x4557 JUMP JUMPDEST PUSH1 0x20 PUSH1 0x40 MLOAD DUP1 DUP4 SUB DUP2 PUSH0 DUP8 GAS CALL ISZERO DUP1 ISZERO PUSH2 0x1DF5 JUMPI RETURNDATASIZE PUSH0 PUSH0 RETURNDATACOPY RETURNDATASIZE PUSH0 REVERT JUMPDEST POP POP POP POP PUSH1 0x40 MLOAD RETURNDATASIZE PUSH1 0x1F NOT PUSH1 0x1F DUP3 ADD AND DUP3 ADD DUP1 PUSH1 0x40 MSTORE POP DUP2 ADD SWAP1 PUSH2 0x1E19 SWAP2 SWAP1 PUSH2 0x3EA9 JUMP JUMPDEST SWAP1 POP DUP1 PUSH2 0x1E5B JUMPI PUSH1 0x40 MLOAD PUSH32 0x8C379A000000000000000000000000000000000000000000000000000000000 DUP2 MSTORE PUSH1 0x4 ADD PUSH2 0x1E52 SWAP1 PUSH2 0x4D1F JUMP JUMPDEST PUSH1 0x40 MLOAD DUP1 SWAP2 SUB SWAP1 REVERT JUMPDEST POP JUMPDEST PUSH0 DUP5 PUSH1 0x4 ADD PUSH0 PUSH2 0x100 EXP DUP2 SLOAD DUP2 PUSH1 0xFF MUL NOT AND SWAP1 DUP4 ISZERO ISZERO MUL OR SWAP1 SSTORE POP DUP5 PUSH20 0xFFFFFFFFFFFFFFFFFFFFFFFFFFFFFFFFFFFFFFFF AND PUSH32 0xA0D4582659E33EBF7E1E80B7FD9C16D821A7F74598C47A09F3B891B428E268CB DUP6 PUSH1 0x2 ADD SLOAD DUP5 DUP5 PUSH1 0x40 MLOAD PUSH2 0x1EC6 SWAP4 SWAP3 SWAP2 SWAP1 PUSH2 0x4D3D JUMP JUMPDEST PUSH1 0x40 MLOAD DUP1 SWAP2 SUB SWAP1 LOG2 POP POP JUMPDEST POP JUMPDEST POP POP JUMPDEST POP POP POP JUMP JUMPDEST PUSH1 0x2 DUP1 SLOAD SUB PUSH2 0x1F1F JUMPI PUSH1 0x40 MLOAD PUSH32 0x8C379A000000000000000000000000000000000000000000000000000000000 DUP2 MSTORE PUSH1 0x4 ADD PUSH2 0x1F16 SWAP1 PUSH2 0x4DBC JUMP JUMPDEST PUSH1 0x40 MLOAD DUP1 SWAP2 SUB SWAP1 REVERT JUMPDEST PUSH1 0x2 DUP1 DUP2 SWAP1 SSTORE POP JUMP JUMPDEST PUSH0 PUSH0 PUSH0 SWAP1 POP JUMPDEST DUP3 MLOAD DUP2 LT ISZERO PUSH2 0x1F6F JUMPI PUSH0 DUP4 DUP3 DUP2 MLOAD DUP2 LT PUSH2 0x1F4B JUMPI PUSH2 0x1F4A PUSH2 0x3F3C JUMP JUMPDEST JUMPDEST PUSH1 0x20 MUL PUSH1 0x20 ADD ADD MLOAD MLOAD SUB PUSH2 0x1F62 JUMPI PUSH0 SWAP2 POP POP PUSH2 0x1F75 JUMP JUMPDEST DUP1 DUP1 PUSH1 0x1 ADD SWAP2 POP POP PUSH2 0x1F2E JUMP JUMPDEST POP PUSH1 0x1 SWAP1 POP JUMPDEST SWAP2 SWAP1 POP JUMP JUMPDEST PUSH1 0x60 PUSH0 DUP3 SUB PUSH2 0x1FC0 JUMPI PUSH1 0x40 MLOAD DUP1 PUSH1 0x40 ADD PUSH1 0x40 MSTORE DUP1 PUSH1 0x1 DUP2 MSTORE PUSH1 0x20 ADD PUSH32 0x3000000000000000000000000000000000000000000000000000000000000000 DUP2 MSTORE POP SWAP1 POP PUSH2 0x20EE JUMP JUMPDEST PUSH0 DUP3 SWAP1 POP PUSH0 JUMPDEST PUSH0 DUP3 EQ PUSH2 0x1FEF JUMPI DUP1 DUP1 PUSH2 0x1FD8 SWAP1 PUSH2 0x4C33 JUMP JUMPDEST SWAP2 POP POP PUSH1 0xA DUP3 PUSH2 0x1FE8 SWAP2 SWAP1 PUSH2 0x47A5 JUMP JUMPDEST SWAP2 POP PUSH2 0x1FC6 JUMP JUMPDEST PUSH0 DUP2 PUSH8 0xFFFFFFFFFFFFFFFF DUP2 GT ISZERO PUSH2 0x200A JUMPI PUSH2 0x2009 PUSH2 0x3305 JUMP JUMPDEST JUMPDEST PUSH1 0x40 MLOAD SWAP1 DUP1 DUP3 MSTORE DUP1 PUSH1 0x1F ADD PUSH1 0x1F NOT AND PUSH1 0x20 ADD DUP3 ADD PUSH1 0x40 MSTORE DUP1 ISZERO PUSH2 0x203C JUMPI DUP2 PUSH1 0x20 ADD PUSH1 0x1 DUP3 MUL DUP1 CALLDATASIZE DUP4 CALLDATACOPY DUP1 DUP3 ADD SWAP2 POP POP SWAP1 POP JUMPDEST POP SWAP1 POP PUSH0 DUP3 SWAP1 POP JUMPDEST PUSH0 DUP7 EQ PUSH2 0x20E6 JUMPI PUSH1 0x1 DUP2 PUSH2 0x2058 SWAP2 SWAP1 PUSH2 0x4DDA JUMP JUMPDEST SWAP1 POP PUSH0 PUSH1 0xA DUP1 DUP9 PUSH2 0x2069 SWAP2 SWAP1 PUSH2 0x47A5 JUMP JUMPDEST PUSH2 0x2073 SWAP2 SWAP1 PUSH2 0x4737 JUMP JUMPDEST DUP8 PUSH2 0x207E SWAP2 SWAP1 PUSH2 0x4DDA JUMP JUMPDEST PUSH1 0x30 PUSH2 0x208A SWAP2 SWAP1 PUSH2 0x4E0D JUMP JUMPDEST SWAP1 POP DUP1 PUSH1 0xF8 SHL DUP4 DUP4 DUP2 MLOAD DUP2 LT PUSH2 0x20A3 JUMPI PUSH2 0x20A2 PUSH2 0x3F3C JUMP JUMPDEST JUMPDEST PUSH1 0x20 ADD ADD SWAP1 PUSH31 0xFFFFFFFFFFFFFFFFFFFFFFFFFFFFFFFFFFFFFFFFFFFFFFFFFFFFFFFFFFFFFF NOT AND SWAP1 DUP2 PUSH0 BYTE SWAP1 MSTORE8 POP PUSH1 0xA DUP8 PUSH2 0x20DE SWAP2 SWAP1 PUSH2 0x47A5 JUMP JUMPDEST SWAP7 POP POP PUSH2 0x2044 JUMP JUMPDEST DUP2 SWAP5 POP POP POP POP POP JUMPDEST SWAP2 SWAP1 POP JUMP JUMPDEST PUSH1 0x1 PUSH1 0x2 DUP2 SWAP1 SSTORE POP JUMP JUMPDEST PUSH1 0x60 PUSH1 0x40 MLOAD DUP1 PUSH2 0x1C0 ADD PUSH1 0x40 MSTORE DUP1 PUSH2 0x19B DUP2 MSTORE PUSH1 0x20 ADD PUSH2 0x52A0 PUSH2 0x19B SWAP2 CODECOPY SWAP1 POP SWAP1 JUMP JUMPDEST PUSH2 0x212C DUP3 PUSH0 PUSH0 DUP5 PUSH2 0x2AE6 JUMP JUMPDEST POP POP JUMP JUMPDEST PUSH1 0x60 DUP2 PUSH1 0x40 MLOAD PUSH1 0x20 ADD PUSH2 0x2143 SWAP2 SWAP1 PUSH2 0x4EC4 JUMP JUMPDEST PUSH1 0x40 MLOAD PUSH1 0x20 DUP2 DUP4 SUB SUB DUP2 MSTORE SWAP1 PUSH1 0x40 MSTORE SWAP1 POP SWAP2 SWAP1 POP JUMP JUMPDEST PUSH1 0x60 PUSH0 PUSH1 0x2A PUSH8 0xFFFFFFFFFFFFFFFF DUP2 GT ISZERO PUSH2 0x2177 JUMPI PUSH2 0x2176 PUSH2 0x3305 JUMP JUMPDEST JUMPDEST PUSH1 0x40 MLOAD SWAP1 DUP1 DUP3 MSTORE DUP1 PUSH1 0x1F ADD PUSH1 0x1F NOT AND PUSH1 0x20 ADD DUP3 ADD PUSH1 0x40 MSTORE DUP1 ISZERO PUSH2 0x21A9 JUMPI DUP2 PUSH1 0x20 ADD PUSH1 0x1 DUP3 MUL DUP1 CALLDATASIZE DUP4 CALLDATACOPY DUP1 DUP3 ADD SWAP2 POP POP SWAP1 POP JUMPDEST POP SWAP1 POP PUSH32 0x3000000000000000000000000000000000000000000000000000000000000000 DUP2 PUSH0 DUP2 MLOAD DUP2 LT PUSH2 0x21E0 JUMPI PUSH2 0x21DF PUSH2 0x3F3C JUMP JUMPDEST JUMPDEST PUSH1 0x20 ADD ADD SWAP1 PUSH31 0xFFFFFFFFFFFFFFFFFFFFFFFFFFFFFFFFFFFFFFFFFFFFFFFFFFFFFFFFFFFFFF NOT AND SWAP1 DUP2 PUSH0 BYTE SWAP1 MSTORE8 POP PUSH32 0x7800000000000000000000000000000000000000000000000000000000000000 DUP2 PUSH1 0x1 DUP2 MLOAD DUP2 LT PUSH2 0x2243 JUMPI PUSH2 0x2242 PUSH2 0x3F3C JUMP JUMPDEST JUMPDEST PUSH1 0x20 ADD ADD SWAP1 PUSH31 0xFFFFFFFFFFFFFFFFFFFFFFFFFFFFFFFFFFFFFFFFFFFFFFFFFFFFFFFFFFFFFF NOT AND SWAP1 DUP2 PUSH0 BYTE SWAP1 MSTORE8 POP PUSH0 PUSH0 SWAP1 POP JUMPDEST PUSH1 0x14 DUP2 LT ISZERO PUSH2 0x2390 JUMPI PUSH0 PUSH1 0x8 DUP3 PUSH2 0x228D SWAP2 SWAP1 PUSH2 0x4737 JUMP JUMPDEST PUSH1 0x98 PUSH2 0x2299 SWAP2 SWAP1 PUSH2 0x4DDA JUMP JUMPDEST DUP6 PUSH20 0xFFFFFFFFFFFFFFFFFFFFFFFFFFFFFFFFFFFFFFFF AND SWAP1 SHR SWAP1 POP PUSH2 0x22C4 PUSH1 0x4 DUP3 PUSH1 0xFF AND SWAP1 SHR PUSH2 0x2B8C JUMP JUMPDEST DUP4 PUSH1 0x2 DUP5 PUSH2 0x22D2 SWAP2 SWAP1 PUSH2 0x4737 JUMP JUMPDEST PUSH1 0x2 PUSH2 0x22DE SWAP2 SWAP1 PUSH2 0x3C79 JUMP JUMPDEST DUP2 MLOAD DUP2 LT PUSH2 0x22EF JUMPI PUSH2 0x22EE PUSH2 0x3F3C JUMP JUMPDEST JUMPDEST PUSH1 0x20 ADD ADD SWAP1 PUSH31 0xFFFFFFFFFFFFFFFFFFFFFFFFFFFFFFFFFFFFFFFFFFFFFFFFFFFFFFFFFFFFFF NOT AND SWAP1 DUP2 PUSH0 BYTE SWAP1 MSTORE8 POP PUSH2 0x2329 PUSH1 0xF DUP3 AND PUSH2 0x2B8C JUMP JUMPDEST DUP4 PUSH1 0x2 DUP5 PUSH2 0x2337 SWAP2 SWAP1 PUSH2 0x4737 JUMP JUMPDEST PUSH1 0x3 PUSH2 0x2343 SWAP2 SWAP1 PUSH2 0x3C79 JUMP JUMPDEST DUP2 MLOAD DUP2 LT PUSH2 0x2354 JUMPI PUSH2 0x2353 PUSH2 0x3F3C JUMP JUMPDEST JUMPDEST PUSH1 0x20 ADD ADD SWAP1 PUSH31 0xFFFFFFFFFFFFFFFFFFFFFFFFFFFFFFFFFFFFFFFFFFFFFFFFFFFFFFFFFFFFFF NOT AND SWAP1 DUP2 PUSH0 BYTE SWAP1 MSTORE8 POP POP DUP1 DUP1 PUSH1 0x1 ADD SWAP2 POP POP PUSH2 0x2276 JUMP JUMPDEST POP DUP1 SWAP2 POP POP SWAP2 SWAP1 POP JUMP JUMPDEST PUSH1 0x60 PUSH1 0x40 MLOAD DUP1 PUSH1 0x40 ADD PUSH1 0x40 MSTORE DUP1 PUSH1 0x15 DUP2 MSTORE PUSH1 0x20 ADD PUSH32 0x687474703A2F2F6C6F63616C686F73743A353030300000000000000000000000 DUP2 MSTORE POP SWAP1 POP SWAP1 JUMP JUMPDEST PUSH0 DUP2 MLOAD SUB PUSH2 0x2411 JUMPI PUSH1 0x40 MLOAD PUSH32 0xFE936CB700000000000000000000000000000000000000000000000000000000 DUP2 MSTORE PUSH1 0x4 ADD PUSH1 0x40 MLOAD DUP1 SWAP2 SUB SWAP1 REVERT JUMPDEST DUP1 DUP3 PUSH1 0xA0 ADD DUP2 SWAP1 MSTORE POP POP POP JUMP JUMPDEST PUSH1 0x60 PUSH0 PUSH2 0x242C PUSH2 0x100 PUSH2 0x2BC8 JUMP JUMPDEST SWAP1 POP PUSH2 0x2476 PUSH1 0x40 MLOAD DUP1 PUSH1 0x40 ADD PUSH1 0x40 MSTORE DUP1 PUSH1 0xC DUP2 MSTORE PUSH1 0x20 ADD PUSH32 0x636F64654C6F636174696F6E0000000000000000000000000000000000000000 DUP2 MSTORE POP DUP3 PUSH2 0x2BED SWAP1 SWAP2 SWAP1 PUSH4 0xFFFFFFFF AND JUMP JUMPDEST PUSH2 0x249E DUP4 PUSH0 ADD MLOAD PUSH1 0x2 DUP2 GT ISZERO PUSH2 0x248F JUMPI PUSH2 0x248E PUSH2 0x4EE4 JUMP JUMPDEST JUMPDEST DUP3 PUSH2 0x2C15 SWAP1 SWAP2 SWAP1 PUSH4 0xFFFFFFFF AND JUMP JUMPDEST PUSH2 0x24E6 PUSH1 0x40 MLOAD DUP1 PUSH1 0x40 ADD PUSH1 0x40 MSTORE DUP1 PUSH1 0x8 DUP2 MSTORE PUSH1 0x20 ADD PUSH32 0x6C616E6775616765000000000000000000000000000000000000000000000000 DUP2 MSTORE POP DUP3 PUSH2 0x2BED SWAP1 SWAP2 SWAP1 PUSH4 0xFFFFFFFF AND JUMP JUMPDEST PUSH2 0x250E DUP4 PUSH1 0x40 ADD MLOAD PUSH0 DUP2 GT ISZERO PUSH2 0x24FF JUMPI PUSH2 0x24FE PUSH2 0x4EE4 JUMP JUMPDEST JUMPDEST DUP3 PUSH2 0x2C15 SWAP1 SWAP2 SWAP1 PUSH4 0xFFFFFFFF AND JUMP JUMPDEST PUSH2 0x2556 PUSH1 0x40 MLOAD DUP1 PUSH1 0x40 ADD PUSH1 0x40 MSTORE DUP1 PUSH1 0x6 DUP2 MSTORE PUSH1 0x20 ADD PUSH32 0x736F757263650000000000000000000000000000000000000000000000000000 DUP2 MSTORE POP DUP3 PUSH2 0x2BED SWAP1 SWAP2 SWAP1 PUSH4 0xFFFFFFFF AND JUMP JUMPDEST PUSH2 0x256D DUP4 PUSH1 0x60 ADD MLOAD DUP3 PUSH2 0x2BED SWAP1 SWAP2 SWAP1 PUSH4 0xFFFFFFFF AND JUMP JUMPDEST PUSH0 DUP4 PUSH1 0xA0 ADD MLOAD MLOAD GT ISZERO PUSH2 0x2624 JUMPI PUSH2 0x25C2 PUSH1 0x40 MLOAD DUP1 PUSH1 0x40 ADD PUSH1 0x40 MSTORE DUP1 PUSH1 0x4 DUP2 MSTORE PUSH1 0x20 ADD PUSH32 0x6172677300000000000000000000000000000000000000000000000000000000 DUP2 MSTORE POP DUP3 PUSH2 0x2BED SWAP1 SWAP2 SWAP1 PUSH4 0xFFFFFFFF AND JUMP JUMPDEST PUSH2 0x25CB DUP2 PUSH2 0x2C64 JUMP JUMPDEST PUSH0 PUSH0 SWAP1 POP JUMPDEST DUP4 PUSH1 0xA0 ADD MLOAD MLOAD DUP2 LT ISZERO PUSH2 0x2619 JUMPI PUSH2 0x260E DUP5 PUSH1 0xA0 ADD MLOAD DUP3 DUP2 MLOAD DUP2 LT PUSH2 0x25F7 JUMPI PUSH2 0x25F6 PUSH2 0x3F3C JUMP JUMPDEST JUMPDEST PUSH1 0x20 MUL PUSH1 0x20 ADD ADD MLOAD DUP4 PUSH2 0x2BED SWAP1 SWAP2 SWAP1 PUSH4 0xFFFFFFFF AND JUMP JUMPDEST DUP1 PUSH1 0x1 ADD SWAP1 POP PUSH2 0x25D0 JUMP JUMPDEST POP PUSH2 0x2623 DUP2 PUSH2 0x2C8C JUMP JUMPDEST JUMPDEST PUSH0 DUP4 PUSH1 0x80 ADD MLOAD MLOAD GT ISZERO PUSH2 0x2763 JUMPI PUSH0 PUSH1 0x2 DUP2 GT ISZERO PUSH2 0x2644 JUMPI PUSH2 0x2643 PUSH2 0x4EE4 JUMP JUMPDEST JUMPDEST DUP4 PUSH1 0x20 ADD MLOAD PUSH1 0x2 DUP2 GT ISZERO PUSH2 0x265B JUMPI PUSH2 0x265A PUSH2 0x4EE4 JUMP JUMPDEST JUMPDEST SUB PUSH2 0x2692 JUMPI PUSH1 0x40 MLOAD PUSH32 0xA80D31F700000000000000000000000000000000000000000000000000000000 DUP2 MSTORE PUSH1 0x4 ADD PUSH1 0x40 MLOAD DUP1 SWAP2 SUB SWAP1 REVERT JUMPDEST PUSH2 0x26DA PUSH1 0x40 MLOAD DUP1 PUSH1 0x40 ADD PUSH1 0x40 MSTORE DUP1 PUSH1 0xF DUP2 MSTORE PUSH1 0x20 ADD PUSH32 0x736563726574734C6F636174696F6E0000000000000000000000000000000000 DUP2 MSTORE POP DUP3 PUSH2 0x2BED SWAP1 SWAP2 SWAP1 PUSH4 0xFFFFFFFF AND JUMP JUMPDEST PUSH2 0x2703 DUP4 PUSH1 0x20 ADD MLOAD PUSH1 0x2 DUP2 GT ISZERO PUSH2 0x26F4 JUMPI PUSH2 0x26F3 PUSH2 0x4EE4 JUMP JUMPDEST JUMPDEST DUP3 PUSH2 0x2C15 SWAP1 SWAP2 SWAP1 PUSH4 0xFFFFFFFF AND JUMP JUMPDEST PUSH2 0x274B PUSH1 0x40 MLOAD DUP1 PUSH1 0x40 ADD PUSH1 0x40 MSTORE DUP1 PUSH1 0x7 DUP2 MSTORE PUSH1 0x20 ADD PUSH32 0x7365637265747300000000000000000000000000000000000000000000000000 DUP2 MSTORE POP DUP3 PUSH2 0x2BED SWAP1 SWAP2 SWAP1 PUSH4 0xFFFFFFFF AND JUMP JUMPDEST PUSH2 0x2762 DUP4 PUSH1 0x80 ADD MLOAD DUP3 PUSH2 0x2CB4 SWAP1 SWAP2 SWAP1 PUSH4 0xFFFFFFFF AND JUMP JUMPDEST JUMPDEST PUSH0 DUP4 PUSH1 0xC0 ADD MLOAD MLOAD GT ISZERO PUSH2 0x281A JUMPI PUSH2 0x27B8 PUSH1 0x40 MLOAD DUP1 PUSH1 0x40 ADD PUSH1 0x40 MSTORE DUP1 PUSH1 0x9 DUP2 MSTORE PUSH1 0x20 ADD PUSH32 0x6279746573417267730000000000000000000000000000000000000000000000 DUP2 MSTORE POP DUP3 PUSH2 0x2BED SWAP1 SWAP2 SWAP1 PUSH4 0xFFFFFFFF AND JUMP JUMPDEST PUSH2 0x27C1 DUP2 PUSH2 0x2C64 JUMP JUMPDEST PUSH0 PUSH0 SWAP1 POP JUMPDEST DUP4 PUSH1 0xC0 ADD MLOAD MLOAD DUP2 LT ISZERO PUSH2 0x280F JUMPI PUSH2 0x2804 DUP5 PUSH1 0xC0 ADD MLOAD DUP3 DUP2 MLOAD DUP2 LT PUSH2 0x27ED JUMPI PUSH2 0x27EC PUSH2 0x3F3C JUMP JUMPDEST JUMPDEST PUSH1 0x20 MUL PUSH1 0x20 ADD ADD MLOAD DUP4 PUSH2 0x2CB4 SWAP1 SWAP2 SWAP1 PUSH4 0xFFFFFFFF AND JUMP JUMPDEST DUP1 PUSH1 0x1 ADD SWAP1 POP PUSH2 0x27C6 JUMP JUMPDEST POP PUSH2 0x2819 DUP2 PUSH2 0x2C8C JUMP JUMPDEST JUMPDEST DUP1 PUSH0 ADD MLOAD PUSH0 ADD MLOAD SWAP2 POP POP SWAP2 SWAP1 POP JUMP JUMPDEST PUSH0 PUSH0 PUSH32 0x0 PUSH20 0xFFFFFFFFFFFFFFFFFFFFFFFFFFFFFFFFFFFFFFFF AND PUSH4 0x461D2762 DUP7 DUP9 PUSH1 0x1 DUP9 DUP9 PUSH1 0x40 MLOAD DUP7 PUSH4 0xFFFFFFFF AND PUSH1 0xE0 SHL DUP2 MSTORE PUSH1 0x4 ADD PUSH2 0x288D SWAP6 SWAP5 SWAP4 SWAP3 SWAP2 SWAP1 PUSH2 0x4FBF JUMP JUMPDEST PUSH1 0x20 PUSH1 0x40 MLOAD DUP1 DUP4 SUB DUP2 PUSH0 DUP8 GAS CALL ISZERO DUP1 ISZERO PUSH2 0x28A9 JUMPI RETURNDATASIZE PUSH0 PUSH0 RETURNDATACOPY RETURNDATASIZE PUSH0 REVERT JUMPDEST POP POP POP POP PUSH1 0x40 MLOAD RETURNDATASIZE PUSH1 0x1F NOT PUSH1 0x1F DUP3 ADD AND DUP3 ADD DUP1 PUSH1 0x40 MSTORE POP DUP2 ADD SWAP1 PUSH2 0x28CD SWAP2 SWAP1 PUSH2 0x502B JUMP JUMPDEST SWAP1 POP DUP1 PUSH32 0x1131472297A800FEE664D1D89CFA8F7676FF07189ECC53F80BBB5F4969099DB8 PUSH1 0x40 MLOAD PUSH1 0x40 MLOAD DUP1 SWAP2 SUB SWAP1 LOG2 DUP1 SWAP2 POP POP SWAP5 SWAP4 POP POP POP POP JUMP JUMPDEST PUSH1 0x60 PUSH1 0x40 MLOAD DUP1 PUSH2 0x1E0 ADD PUSH1 0x40 MSTORE DUP1 PUSH2 0x1BD DUP2 MSTORE PUSH1 0x20 ADD PUSH2 0x543B PUSH2 0x1BD SWAP2 CODECOPY SWAP1 POP SWAP1 JUMP JUMPDEST PUSH0 PUSH0 SWAP1 SLOAD SWAP1 PUSH2 0x100 EXP SWAP1 DIV PUSH20 0xFFFFFFFFFFFFFFFFFFFFFFFFFFFFFFFFFFFFFFFF AND PUSH20 0xFFFFFFFFFFFFFFFFFFFFFFFFFFFFFFFFFFFFFFFF AND CALLER PUSH20 0xFFFFFFFFFFFFFFFFFFFFFFFFFFFFFFFFFFFFFFFF AND EQ PUSH2 0x29B9 JUMPI PUSH1 0x40 MLOAD PUSH32 0x8C379A000000000000000000000000000000000000000000000000000000000 DUP2 MSTORE PUSH1 0x4 ADD PUSH2 0x29B0 SWAP1 PUSH2 0x50A0 JUMP JUMPDEST PUSH1 0x40 MLOAD DUP1 SWAP2 SUB SWAP1 REVERT JUMPDEST JUMP JUMPDEST CALLER PUSH20 0xFFFFFFFFFFFFFFFFFFFFFFFFFFFFFFFFFFFFFFFF AND DUP2 PUSH20 0xFFFFFFFFFFFFFFFFFFFFFFFFFFFFFFFFFFFFFFFF AND SUB PUSH2 0x2A29 JUMPI PUSH1 0x40 MLOAD PUSH32 0x8C379A000000000000000000000000000000000000000000000000000000000 DUP2 MSTORE PUSH1 0x4 ADD PUSH2 0x2A20 SWAP1 PUSH2 0x5108 JUMP JUMPDEST PUSH1 0x40 MLOAD DUP1 SWAP2 SUB SWAP1 REVERT JUMPDEST DUP1 PUSH1 0x1 PUSH0 PUSH2 0x100 EXP DUP2 SLOAD DUP2 PUSH20 0xFFFFFFFFFFFFFFFFFFFFFFFFFFFFFFFFFFFFFFFF MUL NOT AND SWAP1 DUP4 PUSH20 0xFFFFFFFFFFFFFFFFFFFFFFFFFFFFFFFFFFFFFFFF AND MUL OR SWAP1 SSTORE POP DUP1 PUSH20 0xFFFFFFFFFFFFFFFFFFFFFFFFFFFFFFFFFFFFFFFF AND PUSH0 PUSH0 SWAP1 SLOAD SWAP1 PUSH2 0x100 EXP SWAP1 DIV PUSH20 0xFFFFFFFFFFFFFFFFFFFFFFFFFFFFFFFFFFFFFFFF AND PUSH20 0xFFFFFFFFFFFFFFFFFFFFFFFFFFFFFFFFFFFFFFFF AND PUSH32 0xED8889F560326EB138920D842192F0EB3DD22B4F139C87A2C57538E05BAE1278 PUSH1 0x40 MLOAD PUSH1 0x40 MLOAD DUP1 SWAP2 SUB SWAP1 LOG3 POP JUMP JUMPDEST PUSH0 DUP2 MLOAD SUB PUSH2 0x2B20 JUMPI PUSH1 0x40 MLOAD PUSH32 0x22CE3EDD00000000000000000000000000000000000000000000000000000000 DUP2 MSTORE PUSH1 0x4 ADD PUSH1 0x40 MLOAD DUP1 SWAP2 SUB SWAP1 REVERT JUMPDEST DUP3 DUP5 PUSH0 ADD SWAP1 PUSH1 0x2 DUP2 GT ISZERO PUSH2 0x2B37 JUMPI PUSH2 0x2B36 PUSH2 0x4EE4 JUMP JUMPDEST JUMPDEST SWAP1 DUP2 PUSH1 0x2 DUP2 GT ISZERO PUSH2 0x2B4B JUMPI PUSH2 0x2B4A PUSH2 0x4EE4 JUMP JUMPDEST JUMPDEST DUP2 MSTORE POP POP DUP2 DUP5 PUSH1 0x40 ADD SWAP1 PUSH0 DUP2 GT ISZERO PUSH2 0x2B66 JUMPI PUSH2 0x2B65 PUSH2 0x4EE4 JUMP JUMPDEST JUMPDEST SWAP1 DUP2 PUSH0 DUP2 GT ISZERO PUSH2 0x2B79 JUMPI PUSH2 0x2B78 PUSH2 0x4EE4 JUMP JUMPDEST JUMPDEST DUP2 MSTORE POP POP DUP1 DUP5 PUSH1 0x60 ADD DUP2 SWAP1 MSTORE POP POP POP POP POP JUMP JUMPDEST PUSH0 PUSH1 0xA DUP3 PUSH1 0xFF AND LT ISZERO PUSH2 0x2BB0 JUMPI PUSH1 0x30 DUP3 PUSH2 0x2BA6 SWAP2 SWAP1 PUSH2 0x4E0D JUMP JUMPDEST PUSH1 0xF8 SHL SWAP1 POP PUSH2 0x2BC3 JUMP JUMPDEST PUSH1 0x57 DUP3 PUSH2 0x2BBD SWAP2 SWAP1 PUSH2 0x4E0D JUMP JUMPDEST PUSH1 0xF8 SHL SWAP1 POP JUMPDEST SWAP2 SWAP1 POP JUMP JUMPDEST PUSH2 0x2BD0 PUSH2 0x31F6 JUMP JUMPDEST PUSH2 0x2BDD DUP2 PUSH0 ADD MLOAD DUP4 PUSH2 0x2CDC JUMP JUMPDEST POP PUSH0 DUP2 PUSH1 0x20 ADD DUP2 DUP2 MSTORE POP POP SWAP2 SWAP1 POP JUMP JUMPDEST PUSH2 0x2BFA DUP3 PUSH1 0x3 DUP4 MLOAD PUSH2 0x2D52 JUMP JUMPDEST PUSH2 0x2C10 DUP2 DUP4 PUSH0 ADD MLOAD PUSH2 0x2EF2 SWAP1 SWAP2 SWAP1 PUSH4 0xFFFFFFFF AND JUMP JUMPDEST POP POP POP JUMP JUMPDEST PUSH2 0x2C36 PUSH1 0x2 PUSH1 0x5 PUSH1 0x6 PUSH1 0xFF AND SWAP1 SHL OR DUP4 PUSH0 ADD MLOAD PUSH2 0x2F0E SWAP1 SWAP2 SWAP1 PUSH4 0xFFFFFFFF AND JUMP JUMPDEST POP PUSH2 0x2C60 DUP3 DUP3 PUSH1 0x40 MLOAD PUSH1 0x20 ADD PUSH2 0x2C4C SWAP2 SWAP1 PUSH2 0x39AB JUMP JUMPDEST PUSH1 0x40 MLOAD PUSH1 0x20 DUP2 DUP4 SUB SUB DUP2 MSTORE SWAP1 PUSH1 0x40 MSTORE PUSH2 0x2CB4 JUMP JUMPDEST POP POP JUMP JUMPDEST PUSH2 0x2C6F DUP2 PUSH1 0x4 PUSH2 0x2F75 JUMP JUMPDEST PUSH1 0x1 DUP2 PUSH1 0x20 ADD DUP2 DUP2 MLOAD PUSH2 0x2C82 SWAP2 SWAP1 PUSH2 0x3C79 JUMP JUMPDEST SWAP2 POP DUP2 DUP2 MSTORE POP POP POP JUMP JUMPDEST PUSH2 0x2C97 DUP2 PUSH1 0x7 PUSH2 0x2F75 JUMP JUMPDEST PUSH1 0x1 DUP2 PUSH1 0x20 ADD DUP2 DUP2 MLOAD PUSH2 0x2CAA SWAP2 SWAP1 PUSH2 0x4DDA JUMP JUMPDEST SWAP2 POP DUP2 DUP2 MSTORE POP POP POP JUMP JUMPDEST PUSH2 0x2CC1 DUP3 PUSH1 0x2 DUP4 MLOAD PUSH2 0x2D52 JUMP JUMPDEST PUSH2 0x2CD7 DUP2 DUP4 PUSH0 ADD MLOAD PUSH2 0x2EF2 SWAP1 SWAP2 SWAP1 PUSH4 0xFFFFFFFF AND JUMP JUMPDEST POP POP POP JUMP JUMPDEST PUSH2 0x2CE4 PUSH2 0x3215 JUMP JUMPDEST PUSH0 PUSH1 0x20 DUP4 PUSH2 0x2CF2 SWAP2 SWAP1 PUSH2 0x4A4D JUMP JUMPDEST EQ PUSH2 0x2D1E JUMPI PUSH1 0x20 DUP3 PUSH2 0x2D04 SWAP2 SWAP1 PUSH2 0x4A4D JUMP JUMPDEST PUSH1 0x20 PUSH2 0x2D10 SWAP2 SWAP1 PUSH2 0x4DDA JUMP JUMPDEST DUP3 PUSH2 0x2D1B SWAP2 SWAP1 PUSH2 0x3C79 JUMP JUMPDEST SWAP2 POP JUMPDEST DUP2 DUP4 PUSH1 0x20 ADD DUP2 DUP2 MSTORE POP POP PUSH1 0x40 MLOAD DUP1 DUP5 MSTORE PUSH0 DUP2 MSTORE DUP3 DUP2 ADD PUSH1 0x20 ADD DUP2 DUP2 LT ISZERO PUSH2 0x2D43 JUMPI PUSH0 PUSH0 REVERT JUMPDEST DUP1 PUSH1 0x40 MSTORE POP POP DUP3 SWAP1 POP SWAP3 SWAP2 POP POP JUMP JUMPDEST PUSH1 0x17 DUP2 PUSH8 0xFFFFFFFFFFFFFFFF AND GT PUSH2 0x2D8C JUMPI PUSH2 0x2D86 DUP2 PUSH1 0x5 DUP5 PUSH1 0xFF AND SWAP1 SHL PUSH1 0xFF AND OR DUP5 PUSH0 ADD MLOAD PUSH2 0x2F0E SWAP1 SWAP2 SWAP1 PUSH4 0xFFFFFFFF AND JUMP JUMPDEST POP PUSH2 0x2EED JUMP JUMPDEST PUSH1 0xFF DUP2 PUSH8 0xFFFFFFFFFFFFFFFF AND GT PUSH2 0x2DE8 JUMPI PUSH2 0x2DBE PUSH1 0x18 PUSH1 0x5 DUP5 PUSH1 0xFF AND SWAP1 SHL OR DUP5 PUSH0 ADD MLOAD PUSH2 0x2F0E SWAP1 SWAP2 SWAP1 PUSH4 0xFFFFFFFF AND JUMP JUMPDEST POP PUSH2 0x2DE2 DUP2 PUSH8 0xFFFFFFFFFFFFFFFF AND PUSH1 0x1 DUP6 PUSH0 ADD MLOAD PUSH2 0x2F9A SWAP1 SWAP3 SWAP2 SWAP1 PUSH4 0xFFFFFFFF AND JUMP JUMPDEST POP PUSH2 0x2EEC JUMP JUMPDEST PUSH2 0xFFFF DUP2 PUSH8 0xFFFFFFFFFFFFFFFF AND GT PUSH2 0x2E45 JUMPI PUSH2 0x2E1B PUSH1 0x19 PUSH1 0x5 DUP5 PUSH1 0xFF AND SWAP1 SHL OR DUP5 PUSH0 ADD MLOAD PUSH2 0x2F0E SWAP1 SWAP2 SWAP1 PUSH4 0xFFFFFFFF AND JUMP JUMPDEST POP PUSH2 0x2E3F DUP2 PUSH8 0xFFFFFFFFFFFFFFFF AND PUSH1 0x2 DUP6 PUSH0 ADD MLOAD PUSH2 0x2F9A SWAP1 SWAP3 SWAP2 SWAP1 PUSH4 0xFFFFFFFF AND JUMP JUMPDEST POP PUSH2 0x2EEB JUMP JUMPDEST PUSH4 0xFFFFFFFF DUP2 PUSH8 0xFFFFFFFFFFFFFFFF AND GT PUSH2 0x2EA4 JUMPI PUSH2 0x2E7A PUSH1 0x1A PUSH1 0x5 DUP5 PUSH1 0xFF AND SWAP1 SHL OR DUP5 PUSH0 ADD MLOAD PUSH2 0x2F0E SWAP1 SWAP2 SWAP1 PUSH4 0xFFFFFFFF AND JUMP JUMPDEST POP PUSH2 0x2E9E DUP2 PUSH8 0xFFFFFFFFFFFFFFFF AND PUSH1 0x4 DUP6 PUSH0 ADD MLOAD PUSH2 0x2F9A SWAP1 SWAP3 SWAP2 SWAP1 PUSH4 0xFFFFFFFF AND JUMP JUMPDEST POP PUSH2 0x2EEA JUMP JUMPDEST PUSH2 0x2EC4 PUSH1 0x1B PUSH1 0x5 DUP5 PUSH1 0xFF AND SWAP1 SHL OR DUP5 PUSH0 ADD MLOAD PUSH2 0x2F0E SWAP1 SWAP2 SWAP1 PUSH4 0xFFFFFFFF AND JUMP JUMPDEST POP PUSH2 0x2EE8 DUP2 PUSH8 0xFFFFFFFFFFFFFFFF AND PUSH1 0x8 DUP6 PUSH0 ADD MLOAD PUSH2 0x2F9A SWAP1 SWAP3 SWAP2 SWAP1 PUSH4 0xFFFFFFFF AND JUMP JUMPDEST POP JUMPDEST JUMPDEST JUMPDEST JUMPDEST POP POP POP JUMP JUMPDEST PUSH2 0x2EFA PUSH2 0x3215 JUMP JUMPDEST PUSH2 0x2F06 DUP4 DUP4 DUP5 MLOAD PUSH2 0x3023 JUMP JUMPDEST SWAP1 POP SWAP3 SWAP2 POP POP JUMP JUMPDEST PUSH2 0x2F16 PUSH2 0x3215 JUMP JUMPDEST PUSH0 DUP4 PUSH0 ADD MLOAD MLOAD SWAP1 POP PUSH0 PUSH1 0x1 DUP3 PUSH2 0x2F2C SWAP2 SWAP1 PUSH2 0x3C79 JUMP JUMPDEST SWAP1 POP DUP5 PUSH1 0x20 ADD MLOAD DUP3 LT PUSH2 0x2F50 JUMPI PUSH2 0x2F4F DUP6 PUSH1 0x2 DUP4 PUSH2 0x2F4A SWAP2 SWAP1 PUSH2 0x4737 JUMP JUMPDEST PUSH2 0x3100 JUMP JUMPDEST JUMPDEST DUP5 MLOAD PUSH1 0x20 DUP4 DUP3 ADD ADD DUP6 DUP2 MSTORE8 DUP2 MLOAD DUP4 GT ISZERO PUSH2 0x2F68 JUMPI DUP3 DUP3 MSTORE JUMPDEST POP POP DUP5 SWAP3 POP POP POP SWAP3 SWAP2 POP POP JUMP JUMPDEST PUSH2 0x2F95 PUSH1 0x1F PUSH1 0x5 DUP4 PUSH1 0xFF AND SWAP1 SHL OR DUP4 PUSH0 ADD MLOAD PUSH2 0x2F0E SWAP1 SWAP2 SWAP1 PUSH4 0xFFFFFFFF AND JUMP JUMPDEST POP POP POP JUMP JUMPDEST PUSH2 0x2FA2 PUSH2 0x3215 JUMP JUMPDEST PUSH0 DUP5 PUSH0 ADD MLOAD MLOAD SWAP1 POP PUSH0 DUP2 DUP5 PUSH2 0x2FB7 SWAP2 SWAP1 PUSH2 0x3C79 JUMP JUMPDEST SWAP1 POP DUP6 PUSH1 0x20 ADD MLOAD DUP2 GT ISZERO PUSH2 0x2FDC JUMPI PUSH2 0x2FDB DUP7 PUSH1 0x2 DUP4 PUSH2 0x2FD6 SWAP2 SWAP1 PUSH2 0x4737 JUMP JUMPDEST PUSH2 0x3100 JUMP JUMPDEST JUMPDEST PUSH0 PUSH1 0x1 DUP6 PUSH2 0x100 PUSH2 0x2FED SWAP2 SWAP1 PUSH2 0x5255 JUMP JUMPDEST PUSH2 0x2FF7 SWAP2 SWAP1 PUSH2 0x4DDA JUMP JUMPDEST SWAP1 POP DUP7 MLOAD DUP3 DUP2 ADD DUP8 DUP4 NOT DUP3 MLOAD AND OR DUP2 MSTORE DUP2 MLOAD DUP5 GT ISZERO PUSH2 0x3014 JUMPI DUP4 DUP3 MSTORE JUMPDEST POP POP DUP7 SWAP4 POP POP POP POP SWAP4 SWAP3 POP POP POP JUMP JUMPDEST PUSH2 0x302B PUSH2 0x3215 JUMP JUMPDEST DUP3 MLOAD DUP3 GT ISZERO PUSH2 0x3038 JUMPI PUSH0 PUSH0 REVERT JUMPDEST PUSH0 DUP5 PUSH0 ADD MLOAD MLOAD SWAP1 POP PUSH0 DUP4 DUP3 PUSH2 0x304D SWAP2 SWAP1 PUSH2 0x3C79 JUMP JUMPDEST SWAP1 POP DUP6 PUSH1 0x20 ADD MLOAD DUP2 GT ISZERO PUSH2 0x3072 JUMPI PUSH2 0x3071 DUP7 PUSH1 0x2 DUP4 PUSH2 0x306C SWAP2 SWAP1 PUSH2 0x4737 JUMP JUMPDEST PUSH2 0x3100 JUMP JUMPDEST JUMPDEST PUSH0 PUSH0 DUP8 MLOAD DUP1 MLOAD DUP6 PUSH1 0x20 DUP4 ADD ADD SWAP4 POP DUP1 DUP6 GT ISZERO PUSH2 0x308C JUMPI DUP5 DUP3 MSTORE JUMPDEST PUSH1 0x20 DUP10 ADD SWAP3 POP POP POP JUMPDEST PUSH1 0x20 DUP7 LT PUSH2 0x30D3 JUMPI DUP1 MLOAD DUP3 MSTORE PUSH1 0x20 DUP3 PUSH2 0x30AE SWAP2 SWAP1 PUSH2 0x3C79 JUMP JUMPDEST SWAP2 POP PUSH1 0x20 DUP2 PUSH2 0x30BD SWAP2 SWAP1 PUSH2 0x3C79 JUMP JUMPDEST SWAP1 POP PUSH1 0x20 DUP7 PUSH2 0x30CC SWAP2 SWAP1 PUSH2 0x4DDA JUMP JUMPDEST SWAP6 POP PUSH2 0x3095 JUMP JUMPDEST PUSH0 PUSH1 0x1 DUP8 PUSH1 0x20 SUB PUSH2 0x100 EXP SUB SWAP1 POP DUP1 NOT DUP3 MLOAD AND DUP2 DUP5 MLOAD AND DUP2 DUP2 OR DUP6 MSTORE POP POP POP DUP8 SWAP5 POP POP POP POP POP SWAP4 SWAP3 POP POP POP JUMP JUMPDEST PUSH0 DUP3 PUSH0 ADD MLOAD SWAP1 POP PUSH2 0x3111 DUP4 DUP4 PUSH2 0x2CDC JUMP JUMPDEST POP PUSH2 0x311C DUP4 DUP3 PUSH2 0x2EF2 JUMP JUMPDEST POP POP POP POP JUMP JUMPDEST POP DUP1 SLOAD PUSH0 DUP3 SSTORE SWAP1 PUSH0 MSTORE PUSH1 0x20 PUSH0 KECCAK256 SWAP1 DUP2 ADD SWAP1 PUSH2 0x313D SWAP2 SWAP1 PUSH2 0x322E JUMP JUMPDEST POP JUMP JUMPDEST PUSH1 0x40 MLOAD DUP1 PUSH2 0x100 ADD PUSH1 0x40 MSTORE DUP1 PUSH1 0x60 DUP2 MSTORE PUSH1 0x20 ADD PUSH0 PUSH1 0xFF AND DUP2 MSTORE PUSH1 0x20 ADD PUSH0 DUP2 MSTORE PUSH1 0x20 ADD PUSH0 DUP2 MSTORE PUSH1 0x20 ADD PUSH0 ISZERO ISZERO DUP2 MSTORE PUSH1 0x20 ADD PUSH0 PUSH1 0xFF AND DUP2 MSTORE PUSH1 0x20 ADD PUSH0 DUP2 MSTORE PUSH1 0x20 ADD PUSH1 0x60 DUP2 MSTORE POP SWAP1 JUMP JUMPDEST PUSH1 0x40 MLOAD DUP1 PUSH1 0xE0 ADD PUSH1 0x40 MSTORE DUP1 PUSH0 PUSH1 0x2 DUP2 GT ISZERO PUSH2 0x31A5 JUMPI PUSH2 0x31A4 PUSH2 0x4EE4 JUMP JUMPDEST JUMPDEST DUP2 MSTORE PUSH1 0x20 ADD PUSH0 PUSH1 0x2 DUP2 GT ISZERO PUSH2 0x31BD JUMPI PUSH2 0x31BC PUSH2 0x4EE4 JUMP JUMPDEST JUMPDEST DUP2 MSTORE PUSH1 0x20 ADD PUSH0 PUSH0 DUP2 GT ISZERO PUSH2 0x31D4 JUMPI PUSH2 0x31D3 PUSH2 0x4EE4 JUMP JUMPDEST JUMPDEST DUP2 MSTORE PUSH1 0x20 ADD PUSH1 0x60 DUP2 MSTORE PUSH1 0x20 ADD PUSH1 0x60 DUP2 MSTORE PUSH1 0x20 ADD PUSH1 0x60 DUP2 MSTORE PUSH1 0x20 ADD PUSH1 0x60 DUP2 MSTORE POP SWAP1 JUMP JUMPDEST PUSH1 0x40 MLOAD DUP1 PUSH1 0x40 ADD PUSH1 0x40 MSTORE DUP1 PUSH2 0x3209 PUSH2 0x3215 JUMP JUMPDEST DUP2 MSTORE PUSH1 0x20 ADD PUSH0 DUP2 MSTORE POP SWAP1 JUMP JUMPDEST PUSH1 0x40 MLOAD DUP1 PUSH1 0x40 ADD PUSH1 0x40 MSTORE DUP1 PUSH1 0x60 DUP2 MSTORE PUSH1 0x20 ADD PUSH0 DUP2 MSTORE POP SWAP1 JUMP JUMPDEST JUMPDEST DUP1 DUP3 GT ISZERO PUSH2 0x324D JUMPI PUSH0 DUP2 DUP2 PUSH2 0x3244 SWAP2 SWAP1 PUSH2 0x3251 JUMP JUMPDEST POP PUSH1 0x1 ADD PUSH2 0x322F JUMP JUMPDEST POP SWAP1 JUMP JUMPDEST POP DUP1 SLOAD PUSH2 0x325D SWAP1 PUSH2 0x400E JUMP JUMPDEST PUSH0 DUP3 SSTORE DUP1 PUSH1 0x1F LT PUSH2 0x326E JUMPI POP PUSH2 0x328B JUMP JUMPDEST PUSH1 0x1F ADD PUSH1 0x20 SWAP1 DIV SWAP1 PUSH0 MSTORE PUSH1 0x20 PUSH0 KECCAK256 SWAP1 DUP2 ADD SWAP1 PUSH2 0x328A SWAP2 SWAP1 PUSH2 0x328E JUMP JUMPDEST JUMPDEST POP JUMP JUMPDEST JUMPDEST DUP1 DUP3 GT ISZERO PUSH2 0x32A5 JUMPI PUSH0 DUP2 PUSH0 SWAP1 SSTORE POP PUSH1 0x1 ADD PUSH2 0x328F JUMP JUMPDEST POP SWAP1 JUMP JUMPDEST PUSH0 PUSH1 0x40 MLOAD SWAP1 POP SWAP1 JUMP JUMPDEST PUSH0 PUSH0 REVERT JUMPDEST PUSH0 PUSH0 REVERT JUMPDEST PUSH0 DUP2 SWAP1 POP SWAP2 SWAP1 POP JUMP JUMPDEST PUSH2 0x32CC DUP2 PUSH2 0x32BA JUMP JUMPDEST DUP2 EQ PUSH2 0x32D6 JUMPI PUSH0 PUSH0 REVERT JUMPDEST POP JUMP JUMPDEST PUSH0 DUP2 CALLDATALOAD SWAP1 POP PUSH2 0x32E7 DUP2 PUSH2 0x32C3 JUMP JUMPDEST SWAP3 SWAP2 POP POP JUMP JUMPDEST PUSH0 PUSH0 REVERT JUMPDEST PUSH0 PUSH0 REVERT JUMPDEST PUSH0 PUSH1 0x1F NOT PUSH1 0x1F DUP4 ADD AND SWAP1 POP SWAP2 SWAP1 POP JUMP JUMPDEST PUSH32 0x4E487B7100000000000000000000000000000000000000000000000000000000 PUSH0 MSTORE PUSH1 0x41 PUSH1 0x4 MSTORE PUSH1 0x24 PUSH0 REVERT JUMPDEST PUSH2 0x333B DUP3 PUSH2 0x32F5 JUMP JUMPDEST DUP2 ADD DUP2 DUP2 LT PUSH8 0xFFFFFFFFFFFFFFFF DUP3 GT OR ISZERO PUSH2 0x335A JUMPI PUSH2 0x3359 PUSH2 0x3305 JUMP JUMPDEST JUMPDEST DUP1 PUSH1 0x40 MSTORE POP POP POP JUMP JUMPDEST PUSH0 PUSH2 0x336C PUSH2 0x32A9 JUMP JUMPDEST SWAP1 POP PUSH2 0x3378 DUP3 DUP3 PUSH2 0x3332 JUMP JUMPDEST SWAP2 SWAP1 POP JUMP JUMPDEST PUSH0 PUSH8 0xFFFFFFFFFFFFFFFF DUP3 GT ISZERO PUSH2 0x3397 JUMPI PUSH2 0x3396 PUSH2 0x3305 JUMP JUMPDEST JUMPDEST PUSH2 0x33A0 DUP3 PUSH2 0x32F5 JUMP JUMPDEST SWAP1 POP PUSH1 0x20 DUP2 ADD SWAP1 POP SWAP2 SWAP1 POP JUMP JUMPDEST DUP3 DUP2 DUP4 CALLDATACOPY PUSH0 DUP4 DUP4 ADD MSTORE POP POP POP JUMP JUMPDEST PUSH0 PUSH2 0x33CD PUSH2 0x33C8 DUP5 PUSH2 0x337D JUMP JUMPDEST PUSH2 0x3363 JUMP JUMPDEST SWAP1 POP DUP3 DUP2 MSTORE PUSH1 0x20 DUP2 ADD DUP5 DUP5 DUP5 ADD GT ISZERO PUSH2 0x33E9 JUMPI PUSH2 0x33E8 PUSH2 0x32F1 JUMP JUMPDEST JUMPDEST PUSH2 0x33F4 DUP5 DUP3 DUP6 PUSH2 0x33AD JUMP JUMPDEST POP SWAP4 SWAP3 POP POP POP JUMP JUMPDEST PUSH0 DUP3 PUSH1 0x1F DUP4 ADD SLT PUSH2 0x3410 JUMPI PUSH2 0x340F PUSH2 0x32ED JUMP JUMPDEST JUMPDEST DUP2 CALLDATALOAD PUSH2 0x3420 DUP5 DUP3 PUSH1 0x20 DUP7 ADD PUSH2 0x33BB JUMP JUMPDEST SWAP2 POP POP SWAP3 SWAP2 POP POP JUMP JUMPDEST PUSH0 PUSH0 PUSH0 PUSH1 0x60 DUP5 DUP7 SUB SLT ISZERO PUSH2 0x3440 JUMPI PUSH2 0x343F PUSH2 0x32B2 JUMP JUMPDEST JUMPDEST PUSH0 PUSH2 0x344D DUP7 DUP3 DUP8 ADD PUSH2 0x32D9 JUMP JUMPDEST SWAP4 POP POP PUSH1 0x20 DUP5 ADD CALLDATALOAD PUSH8 0xFFFFFFFFFFFFFFFF DUP2 GT ISZERO PUSH2 0x346E JUMPI PUSH2 0x346D PUSH2 0x32B6 JUMP JUMPDEST JUMPDEST PUSH2 0x347A DUP7 DUP3 DUP8 ADD PUSH2 0x33FC JUMP JUMPDEST SWAP3 POP POP PUSH1 0x40 DUP5 ADD CALLDATALOAD PUSH8 0xFFFFFFFFFFFFFFFF DUP2 GT ISZERO PUSH2 0x349B JUMPI PUSH2 0x349A PUSH2 0x32B6 JUMP JUMPDEST JUMPDEST PUSH2 0x34A7 DUP7 DUP3 DUP8 ADD PUSH2 0x33FC JUMP JUMPDEST SWAP2 POP POP SWAP3 POP SWAP3 POP SWAP3 JUMP JUMPDEST PUSH0 PUSH0 REVERT JUMPDEST PUSH0 PUSH0 REVERT JUMPDEST PUSH0 PUSH0 DUP4 PUSH1 0x1F DUP5 ADD SLT PUSH2 0x34CE JUMPI PUSH2 0x34CD PUSH2 0x32ED JUMP JUMPDEST JUMPDEST DUP3 CALLDATALOAD SWAP1 POP PUSH8 0xFFFFFFFFFFFFFFFF DUP2 GT ISZERO PUSH2 0x34EB JUMPI PUSH2 0x34EA PUSH2 0x34B1 JUMP JUMPDEST JUMPDEST PUSH1 0x20 DUP4 ADD SWAP2 POP DUP4 PUSH1 0x20 DUP3 MUL DUP4 ADD GT ISZERO PUSH2 0x3507 JUMPI PUSH2 0x3506 PUSH2 0x34B5 JUMP JUMPDEST JUMPDEST SWAP3 POP SWAP3 SWAP1 POP JUMP JUMPDEST PUSH0 PUSH0 PUSH1 0x20 DUP4 DUP6 SUB SLT ISZERO PUSH2 0x3524 JUMPI PUSH2 0x3523 PUSH2 0x32B2 JUMP JUMPDEST JUMPDEST PUSH0 DUP4 ADD CALLDATALOAD PUSH8 0xFFFFFFFFFFFFFFFF DUP2 GT ISZERO PUSH2 0x3541 JUMPI PUSH2 0x3540 PUSH2 0x32B6 JUMP JUMPDEST JUMPDEST PUSH2 0x354D DUP6 DUP3 DUP7 ADD PUSH2 0x34B9 JUMP JUMPDEST SWAP3 POP SWAP3 POP POP SWAP3 POP SWAP3 SWAP1 POP JUMP JUMPDEST PUSH0 PUSH1 0x20 DUP3 DUP5 SUB SLT ISZERO PUSH2 0x356E JUMPI PUSH2 0x356D PUSH2 0x32B2 JUMP JUMPDEST JUMPDEST PUSH0 PUSH2 0x357B DUP5 DUP3 DUP6 ADD PUSH2 0x32D9 JUMP JUMPDEST SWAP2 POP POP SWAP3 SWAP2 POP POP JUMP JUMPDEST PUSH0 PUSH20 0xFFFFFFFFFFFFFFFFFFFFFFFFFFFFFFFFFFFFFFFF DUP3 AND SWAP1 POP SWAP2 SWAP1 POP JUMP JUMPDEST PUSH0 PUSH2 0x35AD DUP3 PUSH2 0x3584 JUMP JUMPDEST SWAP1 POP SWAP2 SWAP1 POP JUMP JUMPDEST PUSH2 0x35BD DUP2 PUSH2 0x35A3 JUMP JUMPDEST DUP3 MSTORE POP POP JUMP JUMPDEST PUSH0 PUSH1 0x20 DUP3 ADD SWAP1 POP PUSH2 0x35D6 PUSH0 DUP4 ADD DUP5 PUSH2 0x35B4 JUMP JUMPDEST SWAP3 SWAP2 POP POP JUMP JUMPDEST PUSH2 0x35E5 DUP2 PUSH2 0x35A3 JUMP JUMPDEST DUP2 EQ PUSH2 0x35EF JUMPI PUSH0 PUSH0 REVERT JUMPDEST POP JUMP JUMPDEST PUSH0 DUP2 CALLDATALOAD SWAP1 POP PUSH2 0x3600 DUP2 PUSH2 0x35DC JUMP JUMPDEST SWAP3 SWAP2 POP POP JUMP JUMPDEST PUSH0 PUSH1 0x20 DUP3 DUP5 SUB SLT ISZERO PUSH2 0x361B JUMPI PUSH2 0x361A PUSH2 0x32B2 JUMP JUMPDEST JUMPDEST PUSH0 PUSH2 0x3628 DUP5 DUP3 DUP6 ADD PUSH2 0x35F2 JUMP JUMPDEST SWAP2 POP POP SWAP3 SWAP2 POP POP JUMP JUMPDEST PUSH0 DUP2 MLOAD SWAP1 POP SWAP2 SWAP1 POP JUMP JUMPDEST PUSH0 DUP3 DUP3 MSTORE PUSH1 0x20 DUP3 ADD SWAP1 POP SWAP3 SWAP2 POP POP JUMP JUMPDEST DUP3 DUP2 DUP4 MCOPY PUSH0 DUP4 DUP4 ADD MSTORE POP POP POP JUMP JUMPDEST PUSH0 PUSH2 0x3663 DUP3 PUSH2 0x3631 JUMP JUMPDEST PUSH2 0x366D DUP2 DUP6 PUSH2 0x363B JUMP JUMPDEST SWAP4 POP PUSH2 0x367D DUP2 DUP6 PUSH1 0x20 DUP7 ADD PUSH2 0x364B JUMP JUMPDEST PUSH2 0x3686 DUP2 PUSH2 0x32F5 JUMP JUMPDEST DUP5 ADD SWAP2 POP POP SWAP3 SWAP2 POP POP JUMP JUMPDEST PUSH0 PUSH1 0xFF DUP3 AND SWAP1 POP SWAP2 SWAP1 POP JUMP JUMPDEST PUSH2 0x36A6 DUP2 PUSH2 0x3691 JUMP JUMPDEST DUP3 MSTORE POP POP JUMP JUMPDEST PUSH0 DUP2 SWAP1 POP SWAP2 SWAP1 POP JUMP JUMPDEST PUSH2 0x36BE DUP2 PUSH2 0x36AC JUMP JUMPDEST DUP3 MSTORE POP POP JUMP JUMPDEST PUSH0 DUP2 ISZERO ISZERO SWAP1 POP SWAP2 SWAP1 POP JUMP JUMPDEST PUSH2 0x36D8 DUP2 PUSH2 0x36C4 JUMP JUMPDEST DUP3 MSTORE POP POP JUMP JUMPDEST PUSH0 PUSH1 0xE0 DUP3 ADD SWAP1 POP DUP2 DUP2 SUB PUSH0 DUP4 ADD MSTORE PUSH2 0x36F6 DUP2 DUP11 PUSH2 0x3659 JUMP JUMPDEST SWAP1 POP PUSH2 0x3705 PUSH1 0x20 DUP4 ADD DUP10 PUSH2 0x369D JUMP JUMPDEST PUSH2 0x3712 PUSH1 0x40 DUP4 ADD DUP9 PUSH2 0x36B5 JUMP JUMPDEST PUSH2 0x371F PUSH1 0x60 DUP4 ADD DUP8 PUSH2 0x36B5 JUMP JUMPDEST PUSH2 0x372C PUSH1 0x80 DUP4 ADD DUP7 PUSH2 0x36CF JUMP JUMPDEST PUSH2 0x3739 PUSH1 0xA0 DUP4 ADD DUP6 PUSH2 0x369D JUMP JUMPDEST PUSH2 0x3746 PUSH1 0xC0 DUP4 ADD DUP5 PUSH2 0x36B5 JUMP JUMPDEST SWAP9 SWAP8 POP POP POP POP POP POP POP POP JUMP JUMPDEST PUSH0 DUP3 DUP3 MSTORE PUSH1 0x20 DUP3 ADD SWAP1 POP SWAP3 SWAP2 POP POP JUMP JUMPDEST PUSH0 PUSH2 0x376C DUP3 PUSH2 0x3631 JUMP JUMPDEST PUSH2 0x3776 DUP2 DUP6 PUSH2 0x3752 JUMP JUMPDEST SWAP4 POP PUSH2 0x3786 DUP2 DUP6 PUSH1 0x20 DUP7 ADD PUSH2 0x364B JUMP JUMPDEST PUSH2 0x378F DUP2 PUSH2 0x32F5 JUMP JUMPDEST DUP5 ADD SWAP2 POP POP SWAP3 SWAP2 POP POP JUMP JUMPDEST PUSH2 0x37A3 DUP2 PUSH2 0x3691 JUMP JUMPDEST DUP3 MSTORE POP POP JUMP JUMPDEST PUSH2 0x37B2 DUP2 PUSH2 0x36AC JUMP JUMPDEST DUP3 MSTORE POP POP JUMP JUMPDEST PUSH2 0x37C1 DUP2 PUSH2 0x36C4 JUMP JUMPDEST DUP3 MSTORE POP POP JUMP JUMPDEST PUSH0 DUP2 MLOAD SWAP1 POP SWAP2 SWAP1 POP JUMP JUMPDEST PUSH0 DUP3 DUP3 MSTORE PUSH1 0x20 DUP3 ADD SWAP1 POP SWAP3 SWAP2 POP POP JUMP JUMPDEST PUSH0 DUP2 SWAP1 POP PUSH1 0x20 DUP3 ADD SWAP1 POP SWAP2 SWAP1 POP JUMP JUMPDEST PUSH0 PUSH2 0x37FB DUP4 DUP4 PUSH2 0x3762 JUMP JUMPDEST SWAP1 POP SWAP3 SWAP2 POP POP JUMP JUMPDEST PUSH0 PUSH1 0x20 DUP3 ADD SWAP1 POP SWAP2 SWAP1 POP JUMP JUMPDEST PUSH0 PUSH2 0x3819 DUP3 PUSH2 0x37C7 JUMP JUMPDEST PUSH2 0x3823 DUP2 DUP6 PUSH2 0x37D1 JUMP JUMPDEST SWAP4 POP DUP4 PUSH1 0x20 DUP3 MUL DUP6 ADD PUSH2 0x3835 DUP6 PUSH2 0x37E1 JUMP JUMPDEST DUP1 PUSH0 JUMPDEST DUP6 DUP2 LT ISZERO PUSH2 0x3870 JUMPI DUP5 DUP5 SUB DUP10 MSTORE DUP2 MLOAD PUSH2 0x3851 DUP6 DUP3 PUSH2 0x37F0 JUMP JUMPDEST SWAP5 POP PUSH2 0x385C DUP4 PUSH2 0x3803 JUMP JUMPDEST SWAP3 POP PUSH1 0x20 DUP11 ADD SWAP10 POP POP PUSH1 0x1 DUP2 ADD SWAP1 POP PUSH2 0x3838 JUMP JUMPDEST POP DUP3 SWAP8 POP DUP8 SWAP6 POP POP POP POP POP POP SWAP3 SWAP2 POP POP JUMP JUMPDEST PUSH0 PUSH2 0x100 DUP4 ADD PUSH0 DUP4 ADD MLOAD DUP5 DUP3 SUB PUSH0 DUP7 ADD MSTORE PUSH2 0x389D DUP3 DUP3 PUSH2 0x3762 JUMP JUMPDEST SWAP2 POP POP PUSH1 0x20 DUP4 ADD MLOAD PUSH2 0x38B2 PUSH1 0x20 DUP7 ADD DUP3 PUSH2 0x379A JUMP JUMPDEST POP PUSH1 0x40 DUP4 ADD MLOAD PUSH2 0x38C5 PUSH1 0x40 DUP7 ADD DUP3 PUSH2 0x37A9 JUMP JUMPDEST POP PUSH1 0x60 DUP4 ADD MLOAD PUSH2 0x38D8 PUSH1 0x60 DUP7 ADD DUP3 PUSH2 0x37A9 JUMP JUMPDEST POP PUSH1 0x80 DUP4 ADD MLOAD PUSH2 0x38EB PUSH1 0x80 DUP7 ADD DUP3 PUSH2 0x37B8 JUMP JUMPDEST POP PUSH1 0xA0 DUP4 ADD MLOAD PUSH2 0x38FE PUSH1 0xA0 DUP7 ADD DUP3 PUSH2 0x379A JUMP JUMPDEST POP PUSH1 0xC0 DUP4 ADD MLOAD PUSH2 0x3911 PUSH1 0xC0 DUP7 ADD DUP3 PUSH2 0x37A9 JUMP JUMPDEST POP PUSH1 0xE0 DUP4 ADD MLOAD DUP5 DUP3 SUB PUSH1 0xE0 DUP7 ADD MSTORE PUSH2 0x3929 DUP3 DUP3 PUSH2 0x380F JUMP JUMPDEST SWAP2 POP POP DUP1 SWAP2 POP POP SWAP3 SWAP2 POP POP JUMP JUMPDEST PUSH0 PUSH1 0x20 DUP3 ADD SWAP1 POP DUP2 DUP2 SUB PUSH0 DUP4 ADD MSTORE PUSH2 0x394E DUP2 DUP5 PUSH2 0x3882 JUMP JUMPDEST SWAP1 POP SWAP3 SWAP2 POP POP JUMP JUMPDEST PUSH2 0x395F DUP2 PUSH2 0x36AC JUMP JUMPDEST DUP2 EQ PUSH2 0x3969 JUMPI PUSH0 PUSH0 REVERT JUMPDEST POP JUMP JUMPDEST PUSH0 DUP2 CALLDATALOAD SWAP1 POP PUSH2 0x397A DUP2 PUSH2 0x3956 JUMP JUMPDEST SWAP3 SWAP2 POP POP JUMP JUMPDEST PUSH0 PUSH1 0x20 DUP3 DUP5 SUB SLT ISZERO PUSH2 0x3995 JUMPI PUSH2 0x3994 PUSH2 0x32B2 JUMP JUMPDEST JUMPDEST PUSH0 PUSH2 0x39A2 DUP5 DUP3 DUP6 ADD PUSH2 0x396C JUMP JUMPDEST SWAP2 POP POP SWAP3 SWAP2 POP POP JUMP JUMPDEST PUSH0 PUSH1 0x20 DUP3 ADD SWAP1 POP PUSH2 0x39BE PUSH0 DUP4 ADD DUP5 PUSH2 0x36B5 JUMP JUMPDEST SWAP3 SWAP2 POP POP JUMP JUMPDEST PUSH2 0x39CD DUP2 PUSH2 0x3691 JUMP JUMPDEST DUP2 EQ PUSH2 0x39D7 JUMPI PUSH0 PUSH0 REVERT JUMPDEST POP JUMP JUMPDEST PUSH0 DUP2 CALLDATALOAD SWAP1 POP PUSH2 0x39E8 DUP2 PUSH2 0x39C4 JUMP JUMPDEST SWAP3 SWAP2 POP POP JUMP JUMPDEST PUSH0 PUSH1 0x20 DUP3 DUP5 SUB SLT ISZERO PUSH2 0x3A03 JUMPI PUSH2 0x3A02 PUSH2 0x32B2 JUMP JUMPDEST JUMPDEST PUSH0 PUSH2 0x3A10 DUP5 DUP3 DUP6 ADD PUSH2 0x39DA JUMP JUMPDEST SWAP2 POP POP SWAP3 SWAP2 POP POP JUMP JUMPDEST PUSH32 0x53656C656374206174206C65617374203520646F6D61696E7300000000000000 PUSH0 DUP3 ADD MSTORE POP JUMP JUMPDEST PUSH0 PUSH2 0x3A4D PUSH1 0x19 DUP4 PUSH2 0x363B JUMP JUMPDEST SWAP2 POP PUSH2 0x3A58 DUP3 PUSH2 0x3A19 JUMP JUMPDEST PUSH1 0x20 DUP3 ADD SWAP1 POP SWAP2 SWAP1 POP JUMP JUMPDEST PUSH0 PUSH1 0x20 DUP3 ADD SWAP1 POP DUP2 DUP2 SUB PUSH0 DUP4 ADD MSTORE PUSH2 0x3A7A DUP2 PUSH2 0x3A41 JUMP JUMPDEST SWAP1 POP SWAP2 SWAP1 POP JUMP JUMPDEST PUSH0 PUSH8 0xFFFFFFFFFFFFFFFF DUP3 GT ISZERO PUSH2 0x3A9B JUMPI PUSH2 0x3A9A PUSH2 0x3305 JUMP JUMPDEST JUMPDEST PUSH1 0x20 DUP3 MUL SWAP1 POP PUSH1 0x20 DUP2 ADD SWAP1 POP SWAP2 SWAP1 POP JUMP JUMPDEST PUSH0 PUSH8 0xFFFFFFFFFFFFFFFF DUP3 GT ISZERO PUSH2 0x3AC6 JUMPI PUSH2 0x3AC5 PUSH2 0x3305 JUMP JUMPDEST JUMPDEST PUSH2 0x3ACF DUP3 PUSH2 0x32F5 JUMP JUMPDEST SWAP1 POP PUSH1 0x20 DUP2 ADD SWAP1 POP SWAP2 SWAP1 POP JUMP JUMPDEST PUSH0 PUSH2 0x3AEE PUSH2 0x3AE9 DUP5 PUSH2 0x3AAC JUMP JUMPDEST PUSH2 0x3363 JUMP JUMPDEST SWAP1 POP DUP3 DUP2 MSTORE PUSH1 0x20 DUP2 ADD DUP5 DUP5 DUP5 ADD GT ISZERO PUSH2 0x3B0A JUMPI PUSH2 0x3B09 PUSH2 0x32F1 JUMP JUMPDEST JUMPDEST PUSH2 0x3B15 DUP5 DUP3 DUP6 PUSH2 0x33AD JUMP JUMPDEST POP SWAP4 SWAP3 POP POP POP JUMP JUMPDEST PUSH0 DUP3 PUSH1 0x1F DUP4 ADD SLT PUSH2 0x3B31 JUMPI PUSH2 0x3B30 PUSH2 0x32ED JUMP JUMPDEST JUMPDEST DUP2 CALLDATALOAD PUSH2 0x3B41 DUP5 DUP3 PUSH1 0x20 DUP7 ADD PUSH2 0x3ADC JUMP JUMPDEST SWAP2 POP POP SWAP3 SWAP2 POP POP JUMP JUMPDEST PUSH0 PUSH2 0x3B5C PUSH2 0x3B57 DUP5 PUSH2 0x3A81 JUMP JUMPDEST PUSH2 0x3363 JUMP JUMPDEST SWAP1 POP DUP1 DUP4 DUP3 MSTORE PUSH1 0x20 DUP3 ADD SWAP1 POP PUSH1 0x20 DUP5 MUL DUP4 ADD DUP6 DUP2 GT ISZERO PUSH2 0x3B7F JUMPI PUSH2 0x3B7E PUSH2 0x34B5 JUMP JUMPDEST JUMPDEST DUP4 JUMPDEST DUP2 DUP2 LT ISZERO PUSH2 0x3BC6 JUMPI DUP1 CALLDATALOAD PUSH8 0xFFFFFFFFFFFFFFFF DUP2 GT ISZERO PUSH2 0x3BA4 JUMPI PUSH2 0x3BA3 PUSH2 0x32ED JUMP JUMPDEST JUMPDEST DUP1 DUP7 ADD PUSH2 0x3BB1 DUP10 DUP3 PUSH2 0x3B1D JUMP JUMPDEST DUP6 MSTORE PUSH1 0x20 DUP6 ADD SWAP5 POP POP POP PUSH1 0x20 DUP2 ADD SWAP1 POP PUSH2 0x3B81 JUMP JUMPDEST POP POP POP SWAP4 SWAP3 POP POP POP JUMP JUMPDEST PUSH0 PUSH2 0x3BDC CALLDATASIZE DUP5 DUP5 PUSH2 0x3B4A JUMP JUMPDEST SWAP1 POP SWAP3 SWAP2 POP POP JUMP JUMPDEST PUSH32 0x496E76616C696420646F6D61696E732070726F76696465640000000000000000 PUSH0 DUP3 ADD MSTORE POP JUMP JUMPDEST PUSH0 PUSH2 0x3C18 PUSH1 0x18 DUP4 PUSH2 0x363B JUMP JUMPDEST SWAP2 POP PUSH2 0x3C23 DUP3 PUSH2 0x3BE4 JUMP JUMPDEST PUSH1 0x20 DUP3 ADD SWAP1 POP SWAP2 SWAP1 POP JUMP JUMPDEST PUSH0 PUSH1 0x20 DUP3 ADD SWAP1 POP DUP2 DUP2 SUB PUSH0 DUP4 ADD MSTORE PUSH2 0x3C45 DUP2 PUSH2 0x3C0C JUMP JUMPDEST SWAP1 POP SWAP2 SWAP1 POP JUMP JUMPDEST PUSH32 0x4E487B7100000000000000000000000000000000000000000000000000000000 PUSH0 MSTORE PUSH1 0x11 PUSH1 0x4 MSTORE PUSH1 0x24 PUSH0 REVERT JUMPDEST PUSH0 PUSH2 0x3C83 DUP3 PUSH2 0x36AC JUMP JUMPDEST SWAP2 POP PUSH2 0x3C8E DUP4 PUSH2 0x36AC JUMP JUMPDEST SWAP3 POP DUP3 DUP3 ADD SWAP1 POP DUP1 DUP3 GT ISZERO PUSH2 0x3CA6 JUMPI PUSH2 0x3CA5 PUSH2 0x3C4C JUMP JUMPDEST JUMPDEST SWAP3 SWAP2 POP POP JUMP JUMPDEST PUSH32 0x5175697A20616C726561647920696E2070726F67726573730000000000000000 PUSH0 DUP3 ADD MSTORE POP JUMP JUMPDEST PUSH0 PUSH2 0x3CE0 PUSH1 0x18 DUP4 PUSH2 0x363B JUMP JUMPDEST SWAP2 POP PUSH2 0x3CEB DUP3 PUSH2 0x3CAC JUMP JUMPDEST PUSH1 0x20 DUP3 ADD SWAP1 POP SWAP2 SWAP1 POP JUMP JUMPDEST PUSH0 PUSH1 0x20 DUP3 ADD SWAP1 POP DUP2 DUP2 SUB PUSH0 DUP4 ADD MSTORE PUSH2 0x3D0D DUP2 PUSH2 0x3CD4 JUMP JUMPDEST SWAP1 POP SWAP2 SWAP1 POP JUMP JUMPDEST PUSH0 DUP2 MLOAD SWAP1 POP PUSH2 0x3D22 DUP2 PUSH2 0x3956 JUMP JUMPDEST SWAP3 SWAP2 POP POP JUMP JUMPDEST PUSH0 PUSH1 0x20 DUP3 DUP5 SUB SLT ISZERO PUSH2 0x3D3D JUMPI PUSH2 0x3D3C PUSH2 0x32B2 JUMP JUMPDEST JUMPDEST PUSH0 PUSH2 0x3D4A DUP5 DUP3 DUP6 ADD PUSH2 0x3D14 JUMP JUMPDEST SWAP2 POP POP SWAP3 SWAP2 POP POP JUMP JUMPDEST PUSH32 0x496E73756666696369656E7420245155495A0000000000000000000000000000 PUSH0 DUP3 ADD MSTORE POP JUMP JUMPDEST PUSH0 PUSH2 0x3D87 PUSH1 0x12 DUP4 PUSH2 0x363B JUMP JUMPDEST SWAP2 POP PUSH2 0x3D92 DUP3 PUSH2 0x3D53 JUMP JUMPDEST PUSH1 0x20 DUP3 ADD SWAP1 POP SWAP2 SWAP1 POP JUMP JUMPDEST PUSH0 PUSH1 0x20 DUP3 ADD SWAP1 POP DUP2 DUP2 SUB PUSH0 DUP4 ADD MSTORE PUSH2 0x3DB4 DUP2 PUSH2 0x3D7B JUMP JUMPDEST SWAP1 POP SWAP2 SWAP1 POP JUMP JUMPDEST PUSH0 PUSH1 0x40 DUP3 ADD SWAP1 POP PUSH2 0x3DCE PUSH0 DUP4 ADD DUP6 PUSH2 0x35B4 JUMP JUMPDEST PUSH2 0x3DDB PUSH1 0x20 DUP4 ADD DUP5 PUSH2 0x35B4 JUMP JUMPDEST SWAP4 SWAP3 POP POP POP JUMP JUMPDEST PUSH32 0x496E73756666696369656E7420245155495A20616C6C6F77616E636500000000 PUSH0 DUP3 ADD MSTORE POP JUMP JUMPDEST PUSH0 PUSH2 0x3E16 PUSH1 0x1C DUP4 PUSH2 0x363B JUMP JUMPDEST SWAP2 POP PUSH2 0x3E21 DUP3 PUSH2 0x3DE2 JUMP JUMPDEST PUSH1 0x20 DUP3 ADD SWAP1 POP SWAP2 SWAP1 POP JUMP JUMPDEST PUSH0 PUSH1 0x20 DUP3 ADD SWAP1 POP DUP2 DUP2 SUB PUSH0 DUP4 ADD MSTORE PUSH2 0x3E43 DUP2 PUSH2 0x3E0A JUMP JUMPDEST SWAP1 POP SWAP2 SWAP1 POP JUMP JUMPDEST PUSH0 PUSH1 0x60 DUP3 ADD SWAP1 POP PUSH2 0x3E5D PUSH0 DUP4 ADD DUP7 PUSH2 0x35B4 JUMP JUMPDEST PUSH2 0x3E6A PUSH1 0x20 DUP4 ADD DUP6 PUSH2 0x35B4 JUMP JUMPDEST PUSH2 0x3E77 PUSH1 0x40 DUP4 ADD DUP5 PUSH2 0x36B5 JUMP JUMPDEST SWAP5 SWAP4 POP POP POP POP JUMP JUMPDEST PUSH2 0x3E88 DUP2 PUSH2 0x36C4 JUMP JUMPDEST DUP2 EQ PUSH2 0x3E92 JUMPI PUSH0 PUSH0 REVERT JUMPDEST POP JUMP JUMPDEST PUSH0 DUP2 MLOAD SWAP1 POP PUSH2 0x3EA3 DUP2 PUSH2 0x3E7F JUMP JUMPDEST SWAP3 SWAP2 POP POP JUMP JUMPDEST PUSH0 PUSH1 0x20 DUP3 DUP5 SUB SLT ISZERO PUSH2 0x3EBE JUMPI PUSH2 0x3EBD PUSH2 0x32B2 JUMP JUMPDEST JUMPDEST PUSH0 PUSH2 0x3ECB DUP5 DUP3 DUP6 ADD PUSH2 0x3E95 JUMP JUMPDEST SWAP2 POP POP SWAP3 SWAP2 POP POP JUMP JUMPDEST PUSH32 0x546F6B656E207472616E73666572206661696C65640000000000000000000000 PUSH0 DUP3 ADD MSTORE POP JUMP JUMPDEST PUSH0 PUSH2 0x3F08 PUSH1 0x15 DUP4 PUSH2 0x363B JUMP JUMPDEST SWAP2 POP PUSH2 0x3F13 DUP3 PUSH2 0x3ED4 JUMP JUMPDEST PUSH1 0x20 DUP3 ADD SWAP1 POP SWAP2 SWAP1 POP JUMP JUMPDEST PUSH0 PUSH1 0x20 DUP3 ADD SWAP1 POP DUP2 DUP2 SUB PUSH0 DUP4 ADD MSTORE PUSH2 0x3F35 DUP2 PUSH2 0x3EFC JUMP JUMPDEST SWAP1 POP SWAP2 SWAP1 POP JUMP JUMPDEST PUSH32 0x4E487B7100000000000000000000000000000000000000000000000000000000 PUSH0 MSTORE PUSH1 0x32 PUSH1 0x4 MSTORE PUSH1 0x24 PUSH0 REVERT JUMPDEST PUSH0 PUSH0 REVERT JUMPDEST PUSH0 PUSH0 REVERT JUMPDEST PUSH0 PUSH0 REVERT JUMPDEST PUSH0 PUSH0 DUP4 CALLDATALOAD PUSH1 0x1 PUSH1 0x20 SUB DUP5 CALLDATASIZE SUB SUB DUP2 SLT PUSH2 0x3F91 JUMPI PUSH2 0x3F90 PUSH2 0x3F69 JUMP JUMPDEST JUMPDEST DUP1 DUP5 ADD SWAP3 POP DUP3 CALLDATALOAD SWAP2 POP PUSH8 0xFFFFFFFFFFFFFFFF DUP3 GT ISZERO PUSH2 0x3FB3 JUMPI PUSH2 0x3FB2 PUSH2 0x3F6D JUMP JUMPDEST JUMPDEST PUSH1 0x20 DUP4 ADD SWAP3 POP PUSH1 0x1 DUP3 MUL CALLDATASIZE SUB DUP4 SGT ISZERO PUSH2 0x3FCF JUMPI PUSH2 0x3FCE PUSH2 0x3F71 JUMP JUMPDEST JUMPDEST POP SWAP3 POP SWAP3 SWAP1 POP JUMP JUMPDEST PUSH0 DUP3 SWAP1 POP SWAP3 SWAP2 POP POP JUMP JUMPDEST PUSH32 0x4E487B7100000000000000000000000000000000000000000000000000000000 PUSH0 MSTORE PUSH1 0x22 PUSH1 0x4 MSTORE PUSH1 0x24 PUSH0 REVERT JUMPDEST PUSH0 PUSH1 0x2 DUP3 DIV SWAP1 POP PUSH1 0x1 DUP3 AND DUP1 PUSH2 0x4025 JUMPI PUSH1 0x7F DUP3 AND SWAP2 POP JUMPDEST PUSH1 0x20 DUP3 LT DUP2 SUB PUSH2 0x4038 JUMPI PUSH2 0x4037 PUSH2 0x3FE1 JUMP JUMPDEST JUMPDEST POP SWAP2 SWAP1 POP JUMP JUMPDEST PUSH0 DUP2 SWAP1 POP DUP2 PUSH0 MSTORE PUSH1 0x20 PUSH0 KECCAK256 SWAP1 POP SWAP2 SWAP1 POP JUMP JUMPDEST PUSH0 PUSH1 0x20 PUSH1 0x1F DUP4 ADD DIV SWAP1 POP SWAP2 SWAP1 POP JUMP JUMPDEST PUSH0 DUP3 DUP3 SHL SWAP1 POP SWAP3 SWAP2 POP POP JUMP JUMPDEST PUSH0 PUSH1 0x8 DUP4 MUL PUSH2 0x409A PUSH32 0xFFFFFFFFFFFFFFFFFFFFFFFFFFFFFFFFFFFFFFFFFFFFFFFFFFFFFFFFFFFFFFFF DUP3 PUSH2 0x405F JUMP JUMPDEST PUSH2 0x40A4 DUP7 DUP4 PUSH2 0x405F JUMP JUMPDEST SWAP6 POP DUP1 NOT DUP5 AND SWAP4 POP DUP1 DUP7 AND DUP5 OR SWAP3 POP POP POP SWAP4 SWAP3 POP POP POP JUMP JUMPDEST PUSH0 DUP2 SWAP1 POP SWAP2 SWAP1 POP JUMP JUMPDEST PUSH0 PUSH2 0x40DF PUSH2 0x40DA PUSH2 0x40D5 DUP5 PUSH2 0x36AC JUMP JUMPDEST PUSH2 0x40BC JUMP JUMPDEST PUSH2 0x36AC JUMP JUMPDEST SWAP1 POP SWAP2 SWAP1 POP JUMP JUMPDEST PUSH0 DUP2 SWAP1 POP SWAP2 SWAP1 POP JUMP JUMPDEST PUSH2 0x40F8 DUP4 PUSH2 0x40C5 JUMP JUMPDEST PUSH2 0x410C PUSH2 0x4104 DUP3 PUSH2 0x40E6 JUMP JUMPDEST DUP5 DUP5 SLOAD PUSH2 0x406B JUMP JUMPDEST DUP3 SSTORE POP POP POP POP JUMP JUMPDEST PUSH0 PUSH0 SWAP1 POP SWAP1 JUMP JUMPDEST PUSH2 0x4123 PUSH2 0x4114 JUMP JUMPDEST PUSH2 0x412E DUP2 DUP5 DUP5 PUSH2 0x40EF JUMP JUMPDEST POP POP POP JUMP JUMPDEST JUMPDEST DUP2 DUP2 LT ISZERO PUSH2 0x4151 JUMPI PUSH2 0x4146 PUSH0 DUP3 PUSH2 0x411B JUMP JUMPDEST PUSH1 0x1 DUP2 ADD SWAP1 POP PUSH2 0x4134 JUMP JUMPDEST POP POP JUMP JUMPDEST PUSH1 0x1F DUP3 GT ISZERO PUSH2 0x4196 JUMPI PUSH2 0x4167 DUP2 PUSH2 0x403E JUMP JUMPDEST PUSH2 0x4170 DUP5 PUSH2 0x4050 JUMP JUMPDEST DUP2 ADD PUSH1 0x20 DUP6 LT ISZERO PUSH2 0x417F JUMPI DUP2 SWAP1 POP JUMPDEST PUSH2 0x4193 PUSH2 0x418B DUP6 PUSH2 0x4050 JUMP JUMPDEST DUP4 ADD DUP3 PUSH2 0x4133 JUMP JUMPDEST POP POP JUMPDEST POP POP POP JUMP JUMPDEST PUSH0 DUP3 DUP3 SHR SWAP1 POP SWAP3 SWAP2 POP POP JUMP JUMPDEST PUSH0 PUSH2 0x41B6 PUSH0 NOT DUP5 PUSH1 0x8 MUL PUSH2 0x419B JUMP JUMPDEST NOT DUP1 DUP4 AND SWAP2 POP POP SWAP3 SWAP2 POP POP JUMP JUMPDEST PUSH0 PUSH2 0x41CE DUP4 DUP4 PUSH2 0x41A7 JUMP JUMPDEST SWAP2 POP DUP3 PUSH1 0x2 MUL DUP3 OR SWAP1 POP SWAP3 SWAP2 POP POP JUMP JUMPDEST PUSH2 0x41E8 DUP4 DUP4 PUSH2 0x3FD7 JUMP JUMPDEST PUSH8 0xFFFFFFFFFFFFFFFF DUP2 GT ISZERO PUSH2 0x4201 JUMPI PUSH2 0x4200 PUSH2 0x3305 JUMP JUMPDEST JUMPDEST PUSH2 0x420B DUP3 SLOAD PUSH2 0x400E JUMP JUMPDEST PUSH2 0x4216 DUP3 DUP3 DUP6 PUSH2 0x4155 JUMP JUMPDEST PUSH0 PUSH1 0x1F DUP4 GT PUSH1 0x1 DUP2 EQ PUSH2 0x4243 JUMPI PUSH0 DUP5 ISZERO PUSH2 0x4231 JUMPI DUP3 DUP8 ADD CALLDATALOAD SWAP1 POP JUMPDEST PUSH2 0x423B DUP6 DUP3 PUSH2 0x41C3 JUMP JUMPDEST DUP7 SSTORE POP PUSH2 0x42A2 JUMP JUMPDEST PUSH1 0x1F NOT DUP5 AND PUSH2 0x4251 DUP7 PUSH2 0x403E JUMP JUMPDEST PUSH0 JUMPDEST DUP3 DUP2 LT ISZERO PUSH2 0x4278 JUMPI DUP5 DUP10 ADD CALLDATALOAD DUP3 SSTORE PUSH1 0x1 DUP3 ADD SWAP2 POP PUSH1 0x20 DUP6 ADD SWAP5 POP PUSH1 0x20 DUP2 ADD SWAP1 POP PUSH2 0x4253 JUMP JUMPDEST DUP7 DUP4 LT ISZERO PUSH2 0x4295 JUMPI DUP5 DUP10 ADD CALLDATALOAD PUSH2 0x4291 PUSH1 0x1F DUP10 AND DUP3 PUSH2 0x41A7 JUMP JUMPDEST DUP4 SSTORE POP JUMPDEST PUSH1 0x1 PUSH1 0x2 DUP9 MUL ADD DUP9 SSTORE POP POP POP JUMPDEST POP POP POP POP POP POP POP JUMP JUMPDEST PUSH0 DUP2 SWAP1 POP SWAP3 SWAP2 POP POP JUMP JUMPDEST PUSH32 0x7175697A5F000000000000000000000000000000000000000000000000000000 PUSH0 DUP3 ADD MSTORE POP JUMP JUMPDEST PUSH0 PUSH2 0x42E9 PUSH1 0x5 DUP4 PUSH2 0x42AB JUMP JUMPDEST SWAP2 POP PUSH2 0x42F4 DUP3 PUSH2 0x42B5 JUMP JUMPDEST PUSH1 0x5 DUP3 ADD SWAP1 POP SWAP2 SWAP1 POP JUMP JUMPDEST PUSH0 PUSH2 0x4309 DUP3 PUSH2 0x3631 JUMP JUMPDEST PUSH2 0x4313 DUP2 DUP6 PUSH2 0x42AB JUMP JUMPDEST SWAP4 POP PUSH2 0x4323 DUP2 DUP6 PUSH1 0x20 DUP7 ADD PUSH2 0x364B JUMP JUMPDEST DUP1 DUP5 ADD SWAP2 POP POP SWAP3 SWAP2 POP POP JUMP JUMPDEST PUSH0 PUSH2 0x4339 DUP3 PUSH2 0x42DD JUMP JUMPDEST SWAP2 POP PUSH2 0x4345 DUP3 DUP5 PUSH2 0x42FF JUMP JUMPDEST SWAP2 POP DUP2 SWAP1 POP SWAP3 SWAP2 POP POP JUMP JUMPDEST PUSH2 0x4359 DUP3 PUSH2 0x3631 JUMP JUMPDEST PUSH8 0xFFFFFFFFFFFFFFFF DUP2 GT ISZERO PUSH2 0x4372 JUMPI PUSH2 0x4371 PUSH2 0x3305 JUMP JUMPDEST JUMPDEST PUSH2 0x437C DUP3 SLOAD PUSH2 0x400E JUMP JUMPDEST PUSH2 0x4387 DUP3 DUP3 DUP6 PUSH2 0x4155 JUMP JUMPDEST PUSH0 PUSH1 0x20 SWAP1 POP PUSH1 0x1F DUP4 GT PUSH1 0x1 DUP2 EQ PUSH2 0x43B8 JUMPI PUSH0 DUP5 ISZERO PUSH2 0x43A6 JUMPI DUP3 DUP8 ADD MLOAD SWAP1 POP JUMPDEST PUSH2 0x43B0 DUP6 DUP3 PUSH2 0x41C3 JUMP JUMPDEST DUP7 SSTORE POP PUSH2 0x4417 JUMP JUMPDEST PUSH1 0x1F NOT DUP5 AND PUSH2 0x43C6 DUP7 PUSH2 0x403E JUMP JUMPDEST PUSH0 JUMPDEST DUP3 DUP2 LT ISZERO PUSH2 0x43ED JUMPI DUP5 DUP10 ADD MLOAD DUP3 SSTORE PUSH1 0x1 DUP3 ADD SWAP2 POP PUSH1 0x20 DUP6 ADD SWAP5 POP PUSH1 0x20 DUP2 ADD SWAP1 POP PUSH2 0x43C8 JUMP JUMPDEST DUP7 DUP4 LT ISZERO PUSH2 0x440A JUMPI DUP5 DUP10 ADD MLOAD PUSH2 0x4406 PUSH1 0x1F DUP10 AND DUP3 PUSH2 0x41A7 JUMP JUMPDEST DUP4 SSTORE POP JUMPDEST PUSH1 0x1 PUSH1 0x2 DUP9 MUL ADD DUP9 SSTORE POP POP POP JUMPDEST POP POP POP POP POP POP JUMP JUMPDEST PUSH32 0x4D7573742062652070726F706F736564206F776E657200000000000000000000 PUSH0 DUP3 ADD MSTORE POP JUMP JUMPDEST PUSH0 PUSH2 0x4453 PUSH1 0x16 DUP4 PUSH2 0x363B JUMP JUMPDEST SWAP2 POP PUSH2 0x445E DUP3 PUSH2 0x441F JUMP JUMPDEST PUSH1 0x20 DUP3 ADD SWAP1 POP SWAP2 SWAP1 POP JUMP JUMPDEST PUSH0 PUSH1 0x20 DUP3 ADD SWAP1 POP DUP2 DUP2 SUB PUSH0 DUP4 ADD MSTORE PUSH2 0x4480 DUP2 PUSH2 0x4447 JUMP JUMPDEST SWAP1 POP SWAP2 SWAP1 POP JUMP JUMPDEST PUSH32 0x4E6F20616374697665207175697A000000000000000000000000000000000000 PUSH0 DUP3 ADD MSTORE POP JUMP JUMPDEST PUSH0 PUSH2 0x44BB PUSH1 0xE DUP4 PUSH2 0x363B JUMP JUMPDEST SWAP2 POP PUSH2 0x44C6 DUP3 PUSH2 0x4487 JUMP JUMPDEST PUSH1 0x20 DUP3 ADD SWAP1 POP SWAP2 SWAP1 POP JUMP JUMPDEST PUSH0 PUSH1 0x20 DUP3 ADD SWAP1 POP DUP2 DUP2 SUB PUSH0 DUP4 ADD MSTORE PUSH2 0x44E8 DUP2 PUSH2 0x44AF JUMP JUMPDEST SWAP1 POP SWAP2 SWAP1 POP JUMP JUMPDEST PUSH32 0x5175697A20657870697265640000000000000000000000000000000000000000 PUSH0 DUP3 ADD MSTORE POP JUMP JUMPDEST PUSH0 PUSH2 0x4523 PUSH1 0xC DUP4 PUSH2 0x363B JUMP JUMPDEST SWAP2 POP PUSH2 0x452E DUP3 PUSH2 0x44EF JUMP JUMPDEST PUSH1 0x20 DUP3 ADD SWAP1 POP SWAP2 SWAP1 POP JUMP JUMPDEST PUSH0 PUSH1 0x20 DUP3 ADD SWAP1 POP DUP2 DUP2 SUB PUSH0 DUP4 ADD MSTORE PUSH2 0x4550 DUP2 PUSH2 0x4517 JUMP JUMPDEST SWAP1 POP SWAP2 SWAP1 POP JUMP JUMPDEST PUSH0 PUSH1 0x40 DUP3 ADD SWAP1 POP PUSH2 0x456A PUSH0 DUP4 ADD DUP6 PUSH2 0x35B4 JUMP JUMPDEST PUSH2 0x4577 PUSH1 0x20 DUP4 ADD DUP5 PUSH2 0x36B5 JUMP JUMPDEST SWAP4 SWAP3 POP POP POP JUMP JUMPDEST PUSH32 0x546F6B656E20726566756E64206661696C656400000000000000000000000000 PUSH0 DUP3 ADD MSTORE POP JUMP JUMPDEST PUSH0 PUSH2 0x45B2 PUSH1 0x13 DUP4 PUSH2 0x363B JUMP JUMPDEST SWAP2 POP PUSH2 0x45BD DUP3 PUSH2 0x457E JUMP JUMPDEST PUSH1 0x20 DUP3 ADD SWAP1 POP SWAP2 SWAP1 POP JUMP JUMPDEST PUSH0 PUSH1 0x20 DUP3 ADD SWAP1 POP DUP2 DUP2 SUB PUSH0 DUP4 ADD MSTORE PUSH2 0x45DF DUP2 PUSH2 0x45A6 JUMP JUMPDEST SWAP1 POP SWAP2 SWAP1 POP JUMP JUMPDEST PUSH0 PUSH10 0xFFFFFFFFFFFFFFFFFFFF DUP3 AND SWAP1 POP SWAP2 SWAP1 POP JUMP JUMPDEST PUSH2 0x4604 DUP2 PUSH2 0x45E6 JUMP JUMPDEST DUP2 EQ PUSH2 0x460E JUMPI PUSH0 PUSH0 REVERT JUMPDEST POP JUMP JUMPDEST PUSH0 DUP2 MLOAD SWAP1 POP PUSH2 0x461F DUP2 PUSH2 0x45FB JUMP JUMPDEST SWAP3 SWAP2 POP POP JUMP JUMPDEST PUSH0 DUP2 SWAP1 POP SWAP2 SWAP1 POP JUMP JUMPDEST PUSH2 0x4637 DUP2 PUSH2 0x4625 JUMP JUMPDEST DUP2 EQ PUSH2 0x4641 JUMPI PUSH0 PUSH0 REVERT JUMPDEST POP JUMP JUMPDEST PUSH0 DUP2 MLOAD SWAP1 POP PUSH2 0x4652 DUP2 PUSH2 0x462E JUMP JUMPDEST SWAP3 SWAP2 POP POP JUMP JUMPDEST PUSH0 PUSH0 PUSH0 PUSH0 PUSH0 PUSH1 0xA0 DUP7 DUP9 SUB SLT ISZERO PUSH2 0x4671 JUMPI PUSH2 0x4670 PUSH2 0x32B2 JUMP JUMPDEST JUMPDEST PUSH0 PUSH2 0x467E DUP9 DUP3 DUP10 ADD PUSH2 0x4611 JUMP JUMPDEST SWAP6 POP POP PUSH1 0x20 PUSH2 0x468F DUP9 DUP3 DUP10 ADD PUSH2 0x4644 JUMP JUMPDEST SWAP5 POP POP PUSH1 0x40 PUSH2 0x46A0 DUP9 DUP3 DUP10 ADD PUSH2 0x3D14 JUMP JUMPDEST SWAP4 POP POP PUSH1 0x60 PUSH2 0x46B1 DUP9 DUP3 DUP10 ADD PUSH2 0x3D14 JUMP JUMPDEST SWAP3 POP POP PUSH1 0x80 PUSH2 0x46C2 DUP9 DUP3 DUP10 ADD PUSH2 0x4611 JUMP JUMPDEST SWAP2 POP POP SWAP3 SWAP6 POP SWAP3 SWAP6 SWAP1 SWAP4 POP JUMP JUMPDEST PUSH32 0x496E76616C696420707269636520666565640000000000000000000000000000 PUSH0 DUP3 ADD MSTORE POP JUMP JUMPDEST PUSH0 PUSH2 0x4703 PUSH1 0x12 DUP4 PUSH2 0x363B JUMP JUMPDEST SWAP2 POP PUSH2 0x470E DUP3 PUSH2 0x46CF JUMP JUMPDEST PUSH1 0x20 DUP3 ADD SWAP1 POP SWAP2 SWAP1 POP JUMP JUMPDEST PUSH0 PUSH1 0x20 DUP3 ADD SWAP1 POP DUP2 DUP2 SUB PUSH0 DUP4 ADD MSTORE PUSH2 0x4730 DUP2 PUSH2 0x46F7 JUMP JUMPDEST SWAP1 POP SWAP2 SWAP1 POP JUMP JUMPDEST PUSH0 PUSH2 0x4741 DUP3 PUSH2 0x36AC JUMP JUMPDEST SWAP2 POP PUSH2 0x474C DUP4 PUSH2 0x36AC JUMP JUMPDEST SWAP3 POP DUP3 DUP3 MUL PUSH2 0x475A DUP2 PUSH2 0x36AC JUMP JUMPDEST SWAP2 POP DUP3 DUP3 DIV DUP5 EQ DUP4 ISZERO OR PUSH2 0x4771 JUMPI PUSH2 0x4770 PUSH2 0x3C4C JUMP JUMPDEST JUMPDEST POP SWAP3 SWAP2 POP POP JUMP JUMPDEST PUSH32 0x4E487B7100000000000000000000000000000000000000000000000000000000 PUSH0 MSTORE PUSH1 0x12 PUSH1 0x4 MSTORE PUSH1 0x24 PUSH0 REVERT JUMPDEST PUSH0 PUSH2 0x47AF DUP3 PUSH2 0x36AC JUMP JUMPDEST SWAP2 POP PUSH2 0x47BA DUP4 PUSH2 0x36AC JUMP JUMPDEST SWAP3 POP DUP3 PUSH2 0x47CA JUMPI PUSH2 0x47C9 PUSH2 0x4778 JUMP JUMPDEST JUMPDEST DUP3 DUP3 DIV SWAP1 POP SWAP3 SWAP2 POP POP JUMP JUMPDEST PUSH32 0x4F6E6C7920565246436F6E73756D65722063616E2063616C6C00000000000000 PUSH0 DUP3 ADD MSTORE POP JUMP JUMPDEST PUSH0 PUSH2 0x4809 PUSH1 0x19 DUP4 PUSH2 0x363B JUMP JUMPDEST SWAP2 POP PUSH2 0x4814 DUP3 PUSH2 0x47D5 JUMP JUMPDEST PUSH1 0x20 DUP3 ADD SWAP1 POP SWAP2 SWAP1 POP JUMP JUMPDEST PUSH0 PUSH1 0x20 DUP3 ADD SWAP1 POP DUP2 DUP2 SUB PUSH0 DUP4 ADD MSTORE PUSH2 0x4836 DUP2 PUSH2 0x47FD JUMP JUMPDEST SWAP1 POP SWAP2 SWAP1 POP JUMP JUMPDEST PUSH0 PUSH8 0xFFFFFFFFFFFFFFFF DUP3 GT ISZERO PUSH2 0x4857 JUMPI PUSH2 0x4856 PUSH2 0x3305 JUMP JUMPDEST JUMPDEST PUSH1 0x20 DUP3 MUL SWAP1 POP PUSH1 0x20 DUP2 ADD SWAP1 POP SWAP2 SWAP1 POP JUMP JUMPDEST PUSH0 PUSH2 0x487A PUSH2 0x4875 DUP5 PUSH2 0x483D JUMP JUMPDEST PUSH2 0x3363 JUMP JUMPDEST SWAP1 POP DUP1 DUP4 DUP3 MSTORE PUSH1 0x20 DUP3 ADD SWAP1 POP PUSH1 0x20 DUP5 MUL DUP4 ADD DUP6 DUP2 GT ISZERO PUSH2 0x489D JUMPI PUSH2 0x489C PUSH2 0x34B5 JUMP JUMPDEST JUMPDEST DUP4 JUMPDEST DUP2 DUP2 LT ISZERO PUSH2 0x48C6 JUMPI DUP1 PUSH2 0x48B2 DUP9 DUP3 PUSH2 0x3D14 JUMP JUMPDEST DUP5 MSTORE PUSH1 0x20 DUP5 ADD SWAP4 POP POP PUSH1 0x20 DUP2 ADD SWAP1 POP PUSH2 0x489F JUMP JUMPDEST POP POP POP SWAP4 SWAP3 POP POP POP JUMP JUMPDEST PUSH0 DUP3 PUSH1 0x1F DUP4 ADD SLT PUSH2 0x48E4 JUMPI PUSH2 0x48E3 PUSH2 0x32ED JUMP JUMPDEST JUMPDEST DUP2 MLOAD PUSH2 0x48F4 DUP5 DUP3 PUSH1 0x20 DUP7 ADD PUSH2 0x4868 JUMP JUMPDEST SWAP2 POP POP SWAP3 SWAP2 POP POP JUMP JUMPDEST PUSH0 DUP2 MLOAD SWAP1 POP PUSH2 0x490B DUP2 PUSH2 0x35DC JUMP JUMPDEST SWAP3 SWAP2 POP POP JUMP JUMPDEST PUSH0 PUSH0 PUSH0 PUSH1 0x60 DUP5 DUP7 SUB SLT ISZERO PUSH2 0x4928 JUMPI PUSH2 0x4927 PUSH2 0x32B2 JUMP JUMPDEST JUMPDEST PUSH0 PUSH2 0x4935 DUP7 DUP3 DUP8 ADD PUSH2 0x3E95 JUMP JUMPDEST SWAP4 POP POP PUSH1 0x20 DUP5 ADD MLOAD PUSH8 0xFFFFFFFFFFFFFFFF DUP2 GT ISZERO PUSH2 0x4956 JUMPI PUSH2 0x4955 PUSH2 0x32B6 JUMP JUMPDEST JUMPDEST PUSH2 0x4962 DUP7 DUP3 DUP8 ADD PUSH2 0x48D0 JUMP JUMPDEST SWAP3 POP POP PUSH1 0x40 PUSH2 0x4973 DUP7 DUP3 DUP8 ADD PUSH2 0x48FD JUMP JUMPDEST SWAP2 POP POP SWAP3 POP SWAP3 POP SWAP3 JUMP JUMPDEST PUSH32 0x5652462072657175657374206E6F742066756C66696C6C656400000000000000 PUSH0 DUP3 ADD MSTORE POP JUMP JUMPDEST PUSH0 PUSH2 0x49B1 PUSH1 0x19 DUP4 PUSH2 0x363B JUMP JUMPDEST SWAP2 POP PUSH2 0x49BC DUP3 PUSH2 0x497D JUMP JUMPDEST PUSH1 0x20 DUP3 ADD SWAP1 POP SWAP2 SWAP1 POP JUMP JUMPDEST PUSH0 PUSH1 0x20 DUP3 ADD SWAP1 POP DUP2 DUP2 SUB PUSH0 DUP4 ADD MSTORE PUSH2 0x49DE DUP2 PUSH2 0x49A5 JUMP JUMPDEST SWAP1 POP SWAP2 SWAP1 POP JUMP JUMPDEST PUSH32 0x496E76616C696420565246207265717565737420494400000000000000000000 PUSH0 DUP3 ADD MSTORE POP JUMP JUMPDEST PUSH0 PUSH2 0x4A19 PUSH1 0x16 DUP4 PUSH2 0x363B JUMP JUMPDEST SWAP2 POP PUSH2 0x4A24 DUP3 PUSH2 0x49E5 JUMP JUMPDEST PUSH1 0x20 DUP3 ADD SWAP1 POP SWAP2 SWAP1 POP JUMP JUMPDEST PUSH0 PUSH1 0x20 DUP3 ADD SWAP1 POP DUP2 DUP2 SUB PUSH0 DUP4 ADD MSTORE PUSH2 0x4A46 DUP2 PUSH2 0x4A0D JUMP JUMPDEST SWAP1 POP SWAP2 SWAP1 POP JUMP JUMPDEST PUSH0 PUSH2 0x4A57 DUP3 PUSH2 0x36AC JUMP JUMPDEST SWAP2 POP PUSH2 0x4A62 DUP4 PUSH2 0x36AC JUMP JUMPDEST SWAP3 POP DUP3 PUSH2 0x4A72 JUMPI PUSH2 0x4A71 PUSH2 0x4778 JUMP JUMPDEST JUMPDEST DUP3 DUP3 MOD SWAP1 POP SWAP3 SWAP2 POP POP JUMP JUMPDEST PUSH32 0x5175697A20636F6D706C65746564000000000000000000000000000000000000 PUSH0 DUP3 ADD MSTORE POP JUMP JUMPDEST PUSH0 PUSH2 0x4AB1 PUSH1 0xE DUP4 PUSH2 0x363B JUMP JUMPDEST SWAP2 POP PUSH2 0x4ABC DUP3 PUSH2 0x4A7D JUMP JUMPDEST PUSH1 0x20 DUP3 ADD SWAP1 POP SWAP2 SWAP1 POP JUMP JUMPDEST PUSH0 PUSH1 0x20 DUP3 ADD SWAP1 POP DUP2 DUP2 SUB PUSH0 DUP4 ADD MSTORE PUSH2 0x4ADE DUP2 PUSH2 0x4AA5 JUMP JUMPDEST SWAP1 POP SWAP2 SWAP1 POP JUMP JUMPDEST PUSH0 PUSH2 0x4AEF DUP3 PUSH2 0x3691 JUMP JUMPDEST SWAP2 POP PUSH1 0xFF DUP3 SUB PUSH2 0x4B02 JUMPI PUSH2 0x4B01 PUSH2 0x3C4C JUMP JUMPDEST JUMPDEST PUSH1 0x1 DUP3 ADD SWAP1 POP SWAP2 SWAP1 POP JUMP JUMPDEST PUSH32 0x496E76616C696420726571756573742049440000000000000000000000000000 PUSH0 DUP3 ADD MSTORE POP JUMP JUMPDEST PUSH0 PUSH2 0x4B41 PUSH1 0x12 DUP4 PUSH2 0x363B JUMP JUMPDEST SWAP2 POP PUSH2 0x4B4C DUP3 PUSH2 0x4B0D JUMP JUMPDEST PUSH1 0x20 DUP3 ADD SWAP1 POP SWAP2 SWAP1 POP JUMP JUMPDEST PUSH0 PUSH1 0x20 DUP3 ADD SWAP1 POP DUP2 DUP2 SUB PUSH0 DUP4 ADD MSTORE PUSH2 0x4B6E DUP2 PUSH2 0x4B35 JUMP JUMPDEST SWAP1 POP SWAP2 SWAP1 POP JUMP JUMPDEST PUSH0 DUP2 SLOAD PUSH2 0x4B81 DUP2 PUSH2 0x400E JUMP JUMPDEST PUSH2 0x4B8B DUP2 DUP7 PUSH2 0x363B JUMP JUMPDEST SWAP5 POP PUSH1 0x1 DUP3 AND PUSH0 DUP2 EQ PUSH2 0x4BA5 JUMPI PUSH1 0x1 DUP2 EQ PUSH2 0x4BBB JUMPI PUSH2 0x4BED JUMP JUMPDEST PUSH1 0xFF NOT DUP4 AND DUP7 MSTORE DUP2 ISZERO ISZERO PUSH1 0x20 MUL DUP7 ADD SWAP4 POP PUSH2 0x4BED JUMP JUMPDEST PUSH2 0x4BC4 DUP6 PUSH2 0x403E JUMP JUMPDEST PUSH0 JUMPDEST DUP4 DUP2 LT ISZERO PUSH2 0x4BE5 JUMPI DUP2 SLOAD DUP2 DUP10 ADD MSTORE PUSH1 0x1 DUP3 ADD SWAP2 POP PUSH1 0x20 DUP2 ADD SWAP1 POP PUSH2 0x4BC6 JUMP JUMPDEST DUP1 DUP9 ADD SWAP6 POP POP POP JUMPDEST POP POP POP SWAP3 SWAP2 POP POP JUMP JUMPDEST PUSH2 0x4BFF DUP2 PUSH2 0x32BA JUMP JUMPDEST DUP3 MSTORE POP POP JUMP JUMPDEST PUSH0 PUSH1 0x40 DUP3 ADD SWAP1 POP DUP2 DUP2 SUB PUSH0 DUP4 ADD MSTORE PUSH2 0x4C1D DUP2 DUP6 PUSH2 0x4B75 JUMP JUMPDEST SWAP1 POP PUSH2 0x4C2C PUSH1 0x20 DUP4 ADD DUP5 PUSH2 0x4BF6 JUMP JUMPDEST SWAP4 SWAP3 POP POP POP JUMP JUMPDEST PUSH0 PUSH2 0x4C3D DUP3 PUSH2 0x36AC JUMP JUMPDEST SWAP2 POP PUSH32 0xFFFFFFFFFFFFFFFFFFFFFFFFFFFFFFFFFFFFFFFFFFFFFFFFFFFFFFFFFFFFFFFF DUP3 SUB PUSH2 0x4C6F JUMPI PUSH2 0x4C6E PUSH2 0x3C4C JUMP JUMPDEST JUMPDEST PUSH1 0x1 DUP3 ADD SWAP1 POP SWAP2 SWAP1 POP JUMP JUMPDEST PUSH0 PUSH2 0x4C84 DUP3 PUSH2 0x3691 JUMP JUMPDEST SWAP2 POP PUSH2 0x4C8F DUP4 PUSH2 0x3691 JUMP JUMPDEST SWAP3 POP DUP3 DUP3 SUB SWAP1 POP PUSH1 0xFF DUP2 GT ISZERO PUSH2 0x4CA8 JUMPI PUSH2 0x4CA7 PUSH2 0x3C4C JUMP JUMPDEST JUMPDEST SWAP3 SWAP2 POP POP JUMP JUMPDEST PUSH0 PUSH1 0x40 DUP3 ADD SWAP1 POP PUSH2 0x4CC1 PUSH0 DUP4 ADD DUP6 PUSH2 0x369D JUMP JUMPDEST PUSH2 0x4CCE PUSH1 0x20 DUP4 ADD DUP5 PUSH2 0x36CF JUMP JUMPDEST SWAP4 SWAP3 POP POP POP JUMP JUMPDEST PUSH32 0x526577617264207472616E73666572206661696C656400000000000000000000 PUSH0 DUP3 ADD MSTORE POP JUMP JUMPDEST PUSH0 PUSH2 0x4D09 PUSH1 0x16 DUP4 PUSH2 0x363B JUMP JUMPDEST SWAP2 POP PUSH2 0x4D14 DUP3 PUSH2 0x4CD5 JUMP JUMPDEST PUSH1 0x20 DUP3 ADD SWAP1 POP SWAP2 SWAP1 POP JUMP JUMPDEST PUSH0 PUSH1 0x20 DUP3 ADD SWAP1 POP DUP2 DUP2 SUB PUSH0 DUP4 ADD MSTORE PUSH2 0x4D36 DUP2 PUSH2 0x4CFD JUMP JUMPDEST SWAP1 POP SWAP2 SWAP1 POP JUMP JUMPDEST PUSH0 PUSH1 0x60 DUP3 ADD SWAP1 POP PUSH2 0x4D50 PUSH0 DUP4 ADD DUP7 PUSH2 0x36B5 JUMP JUMPDEST PUSH2 0x4D5D PUSH1 0x20 DUP4 ADD DUP6 PUSH2 0x36B5 JUMP JUMPDEST PUSH2 0x4D6A PUSH1 0x40 DUP4 ADD DUP5 PUSH2 0x36B5 JUMP JUMPDEST SWAP5 SWAP4 POP POP POP POP JUMP JUMPDEST PUSH32 0x5265656E7472616E637947756172643A207265656E7472616E742063616C6C00 PUSH0 DUP3 ADD MSTORE POP JUMP JUMPDEST PUSH0 PUSH2 0x4DA6 PUSH1 0x1F DUP4 PUSH2 0x363B JUMP JUMPDEST SWAP2 POP PUSH2 0x4DB1 DUP3 PUSH2 0x4D72 JUMP JUMPDEST PUSH1 0x20 DUP3 ADD SWAP1 POP SWAP2 SWAP1 POP JUMP JUMPDEST PUSH0 PUSH1 0x20 DUP3 ADD SWAP1 POP DUP2 DUP2 SUB PUSH0 DUP4 ADD MSTORE PUSH2 0x4DD3 DUP2 PUSH2 0x4D9A JUMP JUMPDEST SWAP1 POP SWAP2 SWAP1 POP JUMP JUMPDEST PUSH0 PUSH2 0x4DE4 DUP3 PUSH2 0x36AC JUMP JUMPDEST SWAP2 POP PUSH2 0x4DEF DUP4 PUSH2 0x36AC JUMP JUMPDEST SWAP3 POP DUP3 DUP3 SUB SWAP1 POP DUP2 DUP2 GT ISZERO PUSH2 0x4E07 JUMPI PUSH2 0x4E06 PUSH2 0x3C4C JUMP JUMPDEST JUMPDEST SWAP3 SWAP2 POP POP JUMP JUMPDEST PUSH0 PUSH2 0x4E17 DUP3 PUSH2 0x3691 JUMP JUMPDEST SWAP2 POP PUSH2 0x4E22 DUP4 PUSH2 0x3691 JUMP JUMPDEST SWAP3 POP DUP3 DUP3 ADD SWAP1 POP PUSH1 0xFF DUP2 GT ISZERO PUSH2 0x4E3B JUMPI PUSH2 0x4E3A PUSH2 0x3C4C JUMP JUMPDEST JUMPDEST SWAP3 SWAP2 POP POP JUMP JUMPDEST PUSH0 DUP3 DUP3 MSTORE PUSH1 0x20 DUP3 ADD SWAP1 POP SWAP3 SWAP2 POP POP JUMP JUMPDEST PUSH0 PUSH2 0x4E5B DUP3 PUSH2 0x37C7 JUMP JUMPDEST PUSH2 0x4E65 DUP2 DUP6 PUSH2 0x4E41 JUMP JUMPDEST SWAP4 POP DUP4 PUSH1 0x20 DUP3 MUL DUP6 ADD PUSH2 0x4E77 DUP6 PUSH2 0x37E1 JUMP JUMPDEST DUP1 PUSH0 JUMPDEST DUP6 DUP2 LT ISZERO PUSH2 0x4EB2 JUMPI DUP5 DUP5 SUB DUP10 MSTORE DUP2 MLOAD PUSH2 0x4E93 DUP6 DUP3 PUSH2 0x37F0 JUMP JUMPDEST SWAP5 POP PUSH2 0x4E9E DUP4 PUSH2 0x3803 JUMP JUMPDEST SWAP3 POP PUSH1 0x20 DUP11 ADD SWAP10 POP POP PUSH1 0x1 DUP2 ADD SWAP1 POP PUSH2 0x4E7A JUMP JUMPDEST POP DUP3 SWAP8 POP DUP8 SWAP6 POP POP POP POP POP POP SWAP3 SWAP2 POP POP JUMP JUMPDEST PUSH0 PUSH1 0x20 DUP3 ADD SWAP1 POP DUP2 DUP2 SUB PUSH0 DUP4 ADD MSTORE PUSH2 0x4EDC DUP2 DUP5 PUSH2 0x4E51 JUMP JUMPDEST SWAP1 POP SWAP3 SWAP2 POP POP JUMP JUMPDEST PUSH32 0x4E487B7100000000000000000000000000000000000000000000000000000000 PUSH0 MSTORE PUSH1 0x21 PUSH1 0x4 MSTORE PUSH1 0x24 PUSH0 REVERT JUMPDEST PUSH0 PUSH8 0xFFFFFFFFFFFFFFFF DUP3 AND SWAP1 POP SWAP2 SWAP1 POP JUMP JUMPDEST PUSH2 0x4F2D DUP2 PUSH2 0x4F11 JUMP JUMPDEST DUP3 MSTORE POP POP JUMP JUMPDEST PUSH0 DUP2 MLOAD SWAP1 POP SWAP2 SWAP1 POP JUMP JUMPDEST PUSH0 DUP3 DUP3 MSTORE PUSH1 0x20 DUP3 ADD SWAP1 POP SWAP3 SWAP2 POP POP JUMP JUMPDEST PUSH0 PUSH2 0x4F57 DUP3 PUSH2 0x4F33 JUMP JUMPDEST PUSH2 0x4F61 DUP2 DUP6 PUSH2 0x4F3D JUMP JUMPDEST SWAP4 POP PUSH2 0x4F71 DUP2 DUP6 PUSH1 0x20 DUP7 ADD PUSH2 0x364B JUMP JUMPDEST PUSH2 0x4F7A DUP2 PUSH2 0x32F5 JUMP JUMPDEST DUP5 ADD SWAP2 POP POP SWAP3 SWAP2 POP POP JUMP JUMPDEST PUSH0 PUSH2 0xFFFF DUP3 AND SWAP1 POP SWAP2 SWAP1 POP JUMP JUMPDEST PUSH2 0x4F9B DUP2 PUSH2 0x4F85 JUMP JUMPDEST DUP3 MSTORE POP POP JUMP JUMPDEST PUSH0 PUSH4 0xFFFFFFFF DUP3 AND SWAP1 POP SWAP2 SWAP1 POP JUMP JUMPDEST PUSH2 0x4FB9 DUP2 PUSH2 0x4FA1 JUMP JUMPDEST DUP3 MSTORE POP POP JUMP JUMPDEST PUSH0 PUSH1 0xA0 DUP3 ADD SWAP1 POP PUSH2 0x4FD2 PUSH0 DUP4 ADD DUP9 PUSH2 0x4F24 JUMP JUMPDEST DUP2 DUP2 SUB PUSH1 0x20 DUP4 ADD MSTORE PUSH2 0x4FE4 DUP2 DUP8 PUSH2 0x4F4D JUMP JUMPDEST SWAP1 POP PUSH2 0x4FF3 PUSH1 0x40 DUP4 ADD DUP7 PUSH2 0x4F92 JUMP JUMPDEST PUSH2 0x5000 PUSH1 0x60 DUP4 ADD DUP6 PUSH2 0x4FB0 JUMP JUMPDEST PUSH2 0x500D PUSH1 0x80 DUP4 ADD DUP5 PUSH2 0x4BF6 JUMP JUMPDEST SWAP7 SWAP6 POP POP POP POP POP POP JUMP JUMPDEST PUSH0 DUP2 MLOAD SWAP1 POP PUSH2 0x5025 DUP2 PUSH2 0x32C3 JUMP JUMPDEST SWAP3 SWAP2 POP POP JUMP JUMPDEST PUSH0 PUSH1 0x20 DUP3 DUP5 SUB SLT ISZERO PUSH2 0x5040 JUMPI PUSH2 0x503F PUSH2 0x32B2 JUMP JUMPDEST JUMPDEST PUSH0 PUSH2 0x504D DUP5 DUP3 DUP6 ADD PUSH2 0x5017 JUMP JUMPDEST SWAP2 POP POP SWAP3 SWAP2 POP POP JUMP JUMPDEST PUSH32 0x4F6E6C792063616C6C61626C65206279206F776E657200000000000000000000 PUSH0 DUP3 ADD MSTORE POP JUMP JUMPDEST PUSH0 PUSH2 0x508A PUSH1 0x16 DUP4 PUSH2 0x363B JUMP JUMPDEST SWAP2 POP PUSH2 0x5095 DUP3 PUSH2 0x5056 JUMP JUMPDEST PUSH1 0x20 DUP3 ADD SWAP1 POP SWAP2 SWAP1 POP JUMP JUMPDEST PUSH0 PUSH1 0x20 DUP3 ADD SWAP1 POP DUP2 DUP2 SUB PUSH0 DUP4 ADD MSTORE PUSH2 0x50B7 DUP2 PUSH2 0x507E JUMP JUMPDEST SWAP1 POP SWAP2 SWAP1 POP JUMP JUMPDEST PUSH32 0x43616E6E6F74207472616E7366657220746F2073656C66000000000000000000 PUSH0 DUP3 ADD MSTORE POP JUMP JUMPDEST PUSH0 PUSH2 0x50F2 PUSH1 0x17 DUP4 PUSH2 0x363B JUMP JUMPDEST SWAP2 POP PUSH2 0x50FD DUP3 PUSH2 0x50BE JUMP JUMPDEST PUSH1 0x20 DUP3 ADD SWAP1 POP SWAP2 SWAP1 POP JUMP JUMPDEST PUSH0 PUSH1 0x20 DUP3 ADD SWAP1 POP DUP2 DUP2 SUB PUSH0 DUP4 ADD MSTORE PUSH2 0x511F DUP2 PUSH2 0x50E6 JUMP JUMPDEST SWAP1 POP SWAP2 SWAP1 POP JUMP JUMPDEST PUSH0 DUP2 PUSH1 0x1 SHR SWAP1 POP SWAP2 SWAP1 POP JUMP JUMPDEST PUSH0 PUSH0 DUP3 SWAP2 POP DUP4 SWAP1 POP JUMPDEST PUSH1 0x1 DUP6 GT ISZERO PUSH2 0x517B JUMPI DUP1 DUP7 DIV DUP2 GT ISZERO PUSH2 0x5157 JUMPI PUSH2 0x5156 PUSH2 0x3C4C JUMP JUMPDEST JUMPDEST PUSH1 0x1 DUP6 AND ISZERO PUSH2 0x5166 JUMPI DUP1 DUP3 MUL SWAP2 POP JUMPDEST DUP1 DUP2 MUL SWAP1 POP PUSH2 0x5174 DUP6 PUSH2 0x5126 JUMP JUMPDEST SWAP5 POP PUSH2 0x513B JUMP JUMPDEST SWAP5 POP SWAP5 SWAP3 POP POP POP JUMP JUMPDEST PUSH0 DUP3 PUSH2 0x5193 JUMPI PUSH1 0x1 SWAP1 POP PUSH2 0x524E JUMP JUMPDEST DUP2 PUSH2 0x51A0 JUMPI PUSH0 SWAP1 POP PUSH2 0x524E JUMP JUMPDEST DUP2 PUSH1 0x1 DUP2 EQ PUSH2 0x51B6 JUMPI PUSH1 0x2 DUP2 EQ PUSH2 0x51C0 JUMPI PUSH2 0x51EF JUMP JUMPDEST PUSH1 0x1 SWAP2 POP POP PUSH2 0x524E JUMP JUMPDEST PUSH1 0xFF DUP5 GT ISZERO PUSH2 0x51D2 JUMPI PUSH2 0x51D1 PUSH2 0x3C4C JUMP JUMPDEST JUMPDEST DUP4 PUSH1 0x2 EXP SWAP2 POP DUP5 DUP3 GT ISZERO PUSH2 0x51E9 JUMPI PUSH2 0x51E8 PUSH2 0x3C4C JUMP JUMPDEST JUMPDEST POP PUSH2 0x524E JUMP JUMPDEST POP PUSH1 0x20 DUP4 LT PUSH2 0x133 DUP4 LT AND PUSH1 0x4E DUP5 LT PUSH1 0xB DUP5 LT AND OR ISZERO PUSH2 0x5224 JUMPI DUP3 DUP3 EXP SWAP1 POP DUP4 DUP2 GT ISZERO PUSH2 0x521F JUMPI PUSH2 0x521E PUSH2 0x3C4C JUMP JUMPDEST JUMPDEST PUSH2 0x524E JUMP JUMPDEST PUSH2 0x5231 DUP5 DUP5 DUP5 PUSH1 0x1 PUSH2 0x5132 JUMP JUMPDEST SWAP3 POP SWAP1 POP DUP2 DUP5 DIV DUP2 GT ISZERO PUSH2 0x5248 JUMPI PUSH2 0x5247 PUSH2 0x3C4C JUMP JUMPDEST JUMPDEST DUP2 DUP2 MUL SWAP1 POP JUMPDEST SWAP4 SWAP3 POP POP POP JUMP JUMPDEST PUSH0 PUSH2 0x525F DUP3 PUSH2 0x36AC JUMP JUMPDEST SWAP2 POP PUSH2 0x526A DUP4 PUSH2 0x36AC JUMP JUMPDEST SWAP3 POP PUSH2 0x5297 PUSH32 0xFFFFFFFFFFFFFFFFFFFFFFFFFFFFFFFFFFFFFFFFFFFFFFFFFFFFFFFFFFFFFFFF DUP5 DUP5 PUSH2 0x5184 JUMP JUMPDEST SWAP1 POP SWAP3 SWAP2 POP POP JUMP INVALID PUSH4 0x6F6E7374 KECCAK256 PUSH28 0x20646F6D61696E732C20706C61796572416464726573732C20656C69 PUSH27 0x6155726C2C207175697A4964207D203D20617267733B636F6E7374 KECCAK256 PUSH19 0x6573706F6E7365203D2061776169742046756E PUSH4 0x74696F6E PUSH20 0x2E6D616B654874747052657175657374287B2020 PUSH22 0x726C3A2060247B656C697A6155726C7D2F67656E6572 PUSH2 0x7465 MLOAD PUSH22 0x697A602C20206D6574686F643A2027504F5354272C20 KECCAK256 PUSH9 0x6561646572733A207B KECCAK256 0x27 NUMBER PUSH16 0x6E74656E742D54797065273A20276170 PUSH17 0x6C69636174696F6E2F6A736F6E27207D2C KECCAK256 KECCAK256 PUSH5 0x6174613A20 PUSH28 0x20646F6D61696E733A204A534F4E2E706172736528646F6D61696E73 0x29 0x2C KECCAK256 PUSH17 0x6C61796572416464726573732C20646966 PUSH7 0x6963756C74793A KECCAK256 0x27 0x4D PUSH6 0x6469756D272C KECCAK256 PUSH18 0x75697A4964207D7D293B6966202872657370 PUSH16 0x6E73652E6572726F7229207468726F77 KECCAK256 PUSH15 0x6577204572726F7228275175697A20 PUSH8 0x656E65726174696F PUSH15 0x206661696C656427293B7265747572 PUSH15 0x2046756E6374696F6E732E656E636F PUSH5 0x6553747269 PUSH15 0x6728726573706F6E73652E64617461 0x2E PUSH18 0x75697A4964293B636F6E7374207B20717569 PUSH27 0x49642C20706C61796572416464726573732C207175657374696F6E BLOBHASH PUSH15 0x6465782C20616E73776572207D203D KECCAK256 PUSH2 0x7267 PUSH20 0x3B636F6E737420726573706F6E7365203D206177 PUSH2 0x6974 KECCAK256 CHAINID PUSH22 0x6E6374696F6E732E6D616B6548747470526571756573 PUSH21 0x287B202075726C3A2060247B656C697A6155726C7D 0x2F PUSH23 0x6572696679416E73776572602C20206D6574686F643A20 0x27 POP 0x4F MSTORE8 SLOAD 0x27 0x2C KECCAK256 KECCAK256 PUSH9 0x6561646572733A207B KECCAK256 0x27 NUMBER PUSH16 0x6E74656E742D54797065273A20276170 PUSH17 0x6C69636174696F6E2F6A736F6E27207D2C KECCAK256 KECCAK256 PUSH5 0x6174613A20 PUSH28 0x207175697A49642C20706C61796572416464726573732C2071756573 PUSH21 0x696F6E496E6465783A207061727365496E74287175 PUSH6 0x7374696F6E49 PUSH15 0x646578292C20616E737765723A2070 PUSH2 0x7273 PUSH6 0x496E7428616E PUSH20 0x77657229207D7D293B69662028726573706F6E73 PUSH6 0x2E6572726F72 0x29 KECCAK256 PUSH21 0x68726F77206E6577204572726F722827416E737765 PUSH19 0x20766572696669636174696F6E206661696C65 PUSH5 0x27293B7265 PUSH21 0x75726E2046756E6374696F6E732E656E636F646555 PUSH10 0x6E743235362872657370 PUSH16 0x6E73652E646174612E6973436F727265 PUSH4 0x74203F20 BALANCE KECCAK256 GASPRICE KECCAK256 ADDRESS 0x29 EXTCODESIZE LOG2 PUSH5 0x6970667358 0x22 SLT KECCAK256 0xE2 AND 0xC5 EXTCODESIZE PUSH10 0x89BD0148C2155975D24 PREVRANDAO BLOCKHASH 0xCE GASPRICE PREVRANDAO PUSH11 0x3FFCAB393ABAF3F59B52FB PUSH5 0x736F6C6343 STOP ADDMOD 0x1E STOP CALLER "
		},
		"gasEstimates": {
			"creation": {
				"codeDepositCost": "4412200",
				"executionCost": "infinite",
				"totalCost": "infinite"
			},
			"external": {
				"acceptOwnership()": "54620",
				"cancelQuiz()": "infinite",
				"functionsRequestToPlayer(bytes32)": "2872",
				"getRewardInUSD(uint256)": "infinite",
				"getSession(address)": "infinite",
				"handleOracleFulfillment(bytes32,bytes,bytes)": "infinite",
				"owner()": "2514",
				"processVRFResponse(uint256)": "infinite",
				"sessions(address)": "infinite",
				"startQuiz(string[])": "infinite",
				"submitAnswer(uint8)": "infinite",
				"transferOwnership(address)": "30759"
			},
			"internal": {
				"_areValidDomains(string memory[] memory)": "infinite",
				"_encodeDomains(string memory[] memory)": "infinite",
				"_generateSource()": "infinite",
				"_getElizaUrl()": "infinite",
				"_toHexChar(uint8)": "infinite",
				"_toHexString(address)": "infinite",
				"_verifySource()": "infinite",
				"fulfillRequest(bytes32,bytes memory,bytes memory)": "infinite",
				"uint2str(uint256)": "infinite"
			}
		},
		"methodIdentifiers": {
			"acceptOwnership()": "79ba5097",
			"cancelQuiz()": "c320c1b9",
			"functionsRequestToPlayer(bytes32)": "2d8b23c8",
			"getRewardInUSD(uint256)": "c7b4e68a",
			"getSession(address)": "8c8e13b9",
			"handleOracleFulfillment(bytes32,bytes,bytes)": "0ca76175",
			"owner()": "8da5cb5b",
			"processVRFResponse(uint256)": "cd8b10b3",
			"sessions(address)": "431a1b97",
			"startQuiz(string[])": "2ac87aa6",
			"submitAnswer(uint8)": "ec4fd914",
			"transferOwnership(address)": "f2fde38b"
		}
	},
	"abi": [
		{
			"inputs": [
				{
					"internalType": "address",
					"name": "_quizTokenAddress",
					"type": "address"
				},
				{
					"internalType": "address",
					"name": "_vrfConsumer",
					"type": "address"
				},
				{
					"internalType": "uint64",
					"name": "_functionsSubscriptionId",
					"type": "uint64"
				}
			],
			"stateMutability": "nonpayable",
			"type": "constructor"
		},
		{
			"inputs": [],
			"name": "EmptyArgs",
			"type": "error"
		},
		{
			"inputs": [],
			"name": "EmptySource",
			"type": "error"
		},
		{
			"inputs": [],
			"name": "NoInlineSecrets",
			"type": "error"
		},
		{
			"inputs": [],
			"name": "OnlyRouterCanFulfill",
			"type": "error"
		},
		{
			"anonymous": false,
			"inputs": [
				{
					"indexed": true,
					"internalType": "address",
					"name": "playerId",
					"type": "address"
				},
				{
					"indexed": false,
					"internalType": "uint8",
					"name": "questionId",
					"type": "uint8"
				},
				{
					"indexed": false,
					"internalType": "bool",
					"name": "correct",
					"type": "bool"
				}
			],
			"name": "AnswerSubmitted",
			"type": "event"
		},
		{
			"anonymous": false,
			"inputs": [
				{
					"indexed": true,
					"internalType": "address",
					"name": "from",
					"type": "address"
				},
				{
					"indexed": true,
					"internalType": "address",
					"name": "to",
					"type": "address"
				}
			],
			"name": "OwnershipTransferRequested",
			"type": "event"
		},
		{
			"anonymous": false,
			"inputs": [
				{
					"indexed": true,
					"internalType": "address",
					"name": "from",
					"type": "address"
				},
				{
					"indexed": true,
					"internalType": "address",
					"name": "to",
					"type": "address"
				}
			],
			"name": "OwnershipTransferred",
			"type": "event"
		},
		{
			"anonymous": false,
			"inputs": [
				{
					"indexed": true,
					"internalType": "address",
					"name": "playerId",
					"type": "address"
				}
			],
			"name": "QuizCancelled",
			"type": "event"
		},
		{
			"anonymous": false,
			"inputs": [
				{
					"indexed": true,
					"internalType": "address",
					"name": "playerId",
					"type": "address"
				},
				{
					"indexed": false,
					"internalType": "uint256",
					"name": "correctCount",
					"type": "uint256"
				},
				{
					"indexed": false,
					"internalType": "uint256",
					"name": "reward",
					"type": "uint256"
				},
				{
					"indexed": false,
					"internalType": "uint256",
					"name": "rewardUSD",
					"type": "uint256"
				}
			],
			"name": "QuizCompleted",
			"type": "event"
		},
		{
			"anonymous": false,
			"inputs": [
				{
					"indexed": true,
					"internalType": "address",
					"name": "playerId",
					"type": "address"
				},
				{
					"indexed": false,
					"internalType": "string",
					"name": "quizId",
					"type": "string"
				},
				{
					"indexed": false,
					"internalType": "bytes32",
					"name": "functionsRequestId",
					"type": "bytes32"
				}
			],
			"name": "QuizGenerated",
			"type": "event"
		},
		{
			"anonymous": false,
			"inputs": [
				{
					"indexed": true,
					"internalType": "bytes32",
					"name": "id",
					"type": "bytes32"
				}
			],
			"name": "RequestFulfilled",
			"type": "event"
		},
		{
			"anonymous": false,
			"inputs": [
				{
					"indexed": true,
					"internalType": "bytes32",
					"name": "id",
					"type": "bytes32"
				}
			],
			"name": "RequestSent",
			"type": "event"
		},
		{
			"anonymous": false,
			"inputs": [
				{
					"indexed": true,
					"internalType": "uint256",
					"name": "requestId",
					"type": "uint256"
				},
				{
					"indexed": true,
					"internalType": "address",
					"name": "player",
					"type": "address"
				}
			],
			"name": "VRFRequestInitiated",
			"type": "event"
		},
		{
			"inputs": [],
			"name": "acceptOwnership",
			"outputs": [],
			"stateMutability": "nonpayable",
			"type": "function"
		},
		{
			"inputs": [],
			"name": "cancelQuiz",
			"outputs": [],
			"stateMutability": "nonpayable",
			"type": "function"
		},
		{
			"inputs": [
				{
					"internalType": "bytes32",
					"name": "",
					"type": "bytes32"
				}
			],
			"name": "functionsRequestToPlayer",
			"outputs": [
				{
					"internalType": "address",
					"name": "",
					"type": "address"
				}
			],
			"stateMutability": "view",
			"type": "function"
		},
		{
			"inputs": [
				{
					"internalType": "uint256",
					"name": "amount",
					"type": "uint256"
				}
			],
			"name": "getRewardInUSD",
			"outputs": [
				{
					"internalType": "uint256",
					"name": "",
					"type": "uint256"
				}
			],
			"stateMutability": "view",
			"type": "function"
		},
		{
			"inputs": [
				{
					"internalType": "address",
					"name": "player",
					"type": "address"
				}
			],
			"name": "getSession",
			"outputs": [
				{
					"components": [
						{
							"internalType": "string",
							"name": "quizId",
							"type": "string"
						},
						{
							"internalType": "uint8",
							"name": "questionIndex",
							"type": "uint8"
						},
						{
							"internalType": "uint256",
							"name": "correctCount",
							"type": "uint256"
						},
						{
							"internalType": "uint256",
							"name": "startedAt",
							"type": "uint256"
						},
						{
							"internalType": "bool",
							"name": "active",
							"type": "bool"
						},
						{
							"internalType": "uint8",
							"name": "numQuestions",
							"type": "uint8"
						},
						{
							"internalType": "uint256",
							"name": "vrfRequestId",
							"type": "uint256"
						},
						{
							"internalType": "string[]",
							"name": "domains",
							"type": "string[]"
						}
					],
					"internalType": "struct ChainQuiz.QuizSession",
					"name": "",
					"type": "tuple"
				}
			],
			"stateMutability": "view",
			"type": "function"
		},
		{
			"inputs": [
				{
					"internalType": "bytes32",
					"name": "requestId",
					"type": "bytes32"
				},
				{
					"internalType": "bytes",
					"name": "response",
					"type": "bytes"
				},
				{
					"internalType": "bytes",
					"name": "err",
					"type": "bytes"
				}
			],
			"name": "handleOracleFulfillment",
			"outputs": [],
			"stateMutability": "nonpayable",
			"type": "function"
		},
		{
			"inputs": [],
			"name": "owner",
			"outputs": [
				{
					"internalType": "address",
					"name": "",
					"type": "address"
				}
			],
			"stateMutability": "view",
			"type": "function"
		},
		{
			"inputs": [
				{
					"internalType": "uint256",
					"name": "requestId",
					"type": "uint256"
				}
			],
			"name": "processVRFResponse",
			"outputs": [],
			"stateMutability": "nonpayable",
			"type": "function"
		},
		{
			"inputs": [
				{
					"internalType": "address",
					"name": "",
					"type": "address"
				}
			],
			"name": "sessions",
			"outputs": [
				{
					"internalType": "string",
					"name": "quizId",
					"type": "string"
				},
				{
					"internalType": "uint8",
					"name": "questionIndex",
					"type": "uint8"
				},
				{
					"internalType": "uint256",
					"name": "correctCount",
					"type": "uint256"
				},
				{
					"internalType": "uint256",
					"name": "startedAt",
					"type": "uint256"
				},
				{
					"internalType": "bool",
					"name": "active",
					"type": "bool"
				},
				{
					"internalType": "uint8",
					"name": "numQuestions",
					"type": "uint8"
				},
				{
					"internalType": "uint256",
					"name": "vrfRequestId",
					"type": "uint256"
				}
			],
			"stateMutability": "view",
			"type": "function"
		},
		{
			"inputs": [
				{
					"internalType": "string[]",
					"name": "domains",
					"type": "string[]"
				}
			],
			"name": "startQuiz",
			"outputs": [],
			"stateMutability": "nonpayable",
			"type": "function"
		},
		{
			"inputs": [
				{
					"internalType": "uint8",
					"name": "answer",
					"type": "uint8"
				}
			],
			"name": "submitAnswer",
			"outputs": [],
			"stateMutability": "nonpayable",
			"type": "function"
		},
		{
			"inputs": [
				{
					"internalType": "address",
					"name": "to",
					"type": "address"
				}
			],
			"name": "transferOwnership",
			"outputs": [],
			"stateMutability": "nonpayable",
			"type": "function"
		}
	]
}