{
	"data": {
		"bytecode": {
			"linkReferences": {},
			"object": "610120604052348015610010575f5ffd5b5060405161611c38038061611c83398181016040528101906100329190610538565b33805f838073ffffffffffffffffffffffffffffffffffffffff1660808173ffffffffffffffffffffffffffffffffffffffff1681525050505f73ffffffffffffffffffffffffffffffffffffffff168273ffffffffffffffffffffffffffffffffffffffff16036100d9576040517f08c379a00000000000000000000000000000000000000000000000000000000081526004016100d0906105f6565b60405180910390fd5b815f5f6101000a81548173ffffffffffffffffffffffffffffffffffffffff021916908373ffffffffffffffffffffffffffffffffffffffff1602179055505f73ffffffffffffffffffffffffffffffffffffffff168173ffffffffffffffffffffffffffffffffffffffff161461015b5761015a8161037260201b60201c565b5b50505060016002819055505f73ffffffffffffffffffffffffffffffffffffffff168473ffffffffffffffffffffffffffffffffffffffff16036101d4576040517f08c379a00000000000000000000000000000000000000000000000000000000081526004016101cb9061065e565b60405180910390fd5b5f73ffffffffffffffffffffffffffffffffffffffff168373ffffffffffffffffffffffffffffffffffffffff1603610242576040517f08c379a0000000000000000000000000000000000000000000000000000000008152600401610239906106c6565b60405180910390fd5b5f73ffffffffffffffffffffffffffffffffffffffff168173ffffffffffffffffffffffffffffffffffffffff16036102b0576040517f08c379a00000000000000000000000000000000000000000000000000000000081526004016102a79061072e565b60405180910390fd5b8373ffffffffffffffffffffffffffffffffffffffff1660a08173ffffffffffffffffffffffffffffffffffffffff16815250508273ffffffffffffffffffffffffffffffffffffffff1660c08173ffffffffffffffffffffffffffffffffffffffff16815250508167ffffffffffffffff1660e08167ffffffffffffffff16815250508073ffffffffffffffffffffffffffffffffffffffff166101008173ffffffffffffffffffffffffffffffffffffffff1681525050505050506107b4565b3373ffffffffffffffffffffffffffffffffffffffff168173ffffffffffffffffffffffffffffffffffffffff16036103e0576040517f08c379a00000000000000000000000000000000000000000000000000000000081526004016103d790610796565b60405180910390fd5b8060015f6101000a81548173ffffffffffffffffffffffffffffffffffffffff021916908373ffffffffffffffffffffffffffffffffffffffff1602179055508073ffffffffffffffffffffffffffffffffffffffff165f5f9054906101000a900473ffffffffffffffffffffffffffffffffffffffff1673ffffffffffffffffffffffffffffffffffffffff167fed8889f560326eb138920d842192f0eb3dd22b4f139c87a2c57538e05bae127860405160405180910390a350565b5f5ffd5b5f73ffffffffffffffffffffffffffffffffffffffff82169050919050565b5f6104ca826104a1565b9050919050565b6104da816104c0565b81146104e4575f5ffd5b50565b5f815190506104f5816104d1565b92915050565b5f67ffffffffffffffff82169050919050565b610517816104fb565b8114610521575f5ffd5b50565b5f815190506105328161050e565b92915050565b5f5f5f5f608085870312156105505761054f61049d565b5b5f61055d878288016104e7565b945050602061056e878288016104e7565b935050604061057f87828801610524565b9250506060610590878288016104e7565b91505092959194509250565b5f82825260208201905092915050565b7f43616e6e6f7420736574206f776e657220746f207a65726f00000000000000005f82015250565b5f6105e060188361059c565b91506105eb826105ac565b602082019050919050565b5f6020820190508181035f83015261060d816105d4565b9050919050565b7f496e76616c696420746f6b656e000000000000000000000000000000000000005f82015250565b5f610648600d8361059c565b915061065382610614565b602082019050919050565b5f6020820190508181035f8301526106758161063c565b9050919050565b7f496e76616c6964207072696365206665656400000000000000000000000000005f82015250565b5f6106b060128361059c565b91506106bb8261067c565b602082019050919050565b5f6020820190508181035f8301526106dd816106a4565b9050919050565b7f496e76616c696420726f757465720000000000000000000000000000000000005f82015250565b5f610718600e8361059c565b9150610723826106e4565b602082019050919050565b5f6020820190508181035f8301526107458161070c565b9050919050565b7f43616e6e6f74207472616e7366657220746f2073656c660000000000000000005f82015250565b5f61078060178361059c565b915061078b8261074c565b602082019050919050565b5f6020820190508181035f8301526107ad81610774565b9050919050565b60805160a05160c05160e051610100516158fa6108225f395f61140b01525f8181610344015281816109a401526112f301525f8181610b87015261297c01525f818161068101528181610d7901528181610e89015261199901525f8181610368015261240c01526158fa5ff3fe608060405234801561000f575f5ffd5b506004361061011f575f3560e01c80639779ea46116100ab578063c3865b6c1161006f578063c3865b6c146102b2578063ec4fd914146102ce578063f2fde38b146102ea578063f6d361cc14610306578063f887ea40146103245761011f565b80639779ea4614610230578063aa1fe14f1461024e578063b1724b461461026c578063b68e71bf1461028a578063c320c1b9146102a85761011f565b8063431a1b97116100f2578063431a1b97146101975780637416f166146101cc578063741bef1a146101ea57806379ba5097146102085780638da5cb5b146102125761011f565b806309c1ba2e146101235780630ca76175146101415780630cde9f3c1461015d5780631ca96bed1461017b575b5f5ffd5b61012b610342565b6040516101389190613517565b60405180910390f35b61015b600480360381019061015691906136b0565b610366565b005b610165610428565b6040516101729190613747565b60405180910390f35b61019560048036038101906101909190613939565b61044c565b005b6101b160048036038101906101ac9190613a0c565b610a9d565b6040516101c396959493929190613ae4565b60405180910390f35b6101d4610b80565b6040516101e19190613b4a565b60405180910390f35b6101f2610b85565b6040516101ff9190613bbe565b60405180910390f35b610210610ba9565b005b61021a610d38565b6040516102279190613be6565b60405180910390f35b610238610d5f565b6040516102459190613c1d565b60405180910390f35b610256610d66565b6040516102639190613c36565b60405180910390f35b610274610d71565b6040516102819190613c36565b60405180910390f35b610292610d77565b60405161029f9190613c6f565b60405180910390f35b6102b0610d9b565b005b6102cc60048036038101906102c791906136b0565b610f93565b005b6102e860048036038101906102e39190613cb2565b610fab565b005b61030460048036038101906102ff9190613a0c565b6113ea565b005b61030e6113fe565b60405161031b9190613c36565b60405180910390f35b61032c611409565b6040516103399190613be6565b60405180910390f35b7f000000000000000000000000000000000000000000000000000000000000000081565b7f000000000000000000000000000000000000000000000000000000000000000073ffffffffffffffffffffffffffffffffffffffff163373ffffffffffffffffffffffffffffffffffffffff16146103eb576040517fc6829f8300000000000000000000000000000000000000000000000000000000815260040160405180910390fd5b6103f683838361142d565b827f85e1543bf2f84fe80c6badbce3648c8539ad1df4d2b3d822938ca0538be727e660405160405180910390a2505050565b7f66756e2d626173652d7365706f6c69612d31000000000000000000000000000081565b610454611a96565b600583511015610499576040517f08c379a000000000000000000000000000000000000000000000000000000000815260040161049090613d27565b60405180910390fd5b6040516020016104a890613d99565b6040516020818303038152906040528051906020012082826040516020016104d1929190613dd1565b60405160208183030381529060405280519060200120148061053e57506040516020016104fd90613e33565b604051602081830303815290604052805190602001208282604051602001610526929190613dd1565b60405160208183030381529060405280519060200120145b80610594575060405160200161055390613e91565b60405160208183030381529060405280519060200120828260405160200161057c929190613dd1565b60405160208183030381529060405280519060200120145b6105d3576040517f08c379a00000000000000000000000000000000000000000000000000000000081526004016105ca90613eef565b60405180910390fd5b5f60035f3373ffffffffffffffffffffffffffffffffffffffff1673ffffffffffffffffffffffffffffffffffffffff1681526020019081526020015f209050806004015f9054906101000a900460ff16158061064057506101c2816003015461063d9190613f3a565b42115b61067f576040517f08c379a000000000000000000000000000000000000000000000000000000000815260040161067690613fb7565b60405180910390fd5b7f000000000000000000000000000000000000000000000000000000000000000073ffffffffffffffffffffffffffffffffffffffff166323b872dd3330662386f26fc100006040518463ffffffff1660e01b81526004016106e393929190613fd5565b6020604051808303815f875af11580156106ff573d5f5f3e3d5ffd5b505050506040513d601f19601f820116820180604052508101906107239190614034565b610762576040517f08c379a0000000000000000000000000000000000000000000000000000000008152600401610759906140a9565b60405180910390fd5b5f61076d3342611ae3565b90506001826004015f6101000a81548160ff0219169083151502179055504282600301819055505f826001015f6101000a81548160ff021916908360ff1602179055505f82600201819055505f8260040160016101000a81548160ff021916908360ff16021790555080825f0190816107e691906142bb565b506107ef61344e565b6108096107fa611b34565b82611b5790919063ffffffff16565b5f600667ffffffffffffffff8111156108255761082461358c565b5b60405190808252806020026020018201604052801561085857816020015b60608152602001906001900390816108435790505b50905061086487611b67565b815f815181106108775761087661438a565b5b602002602001018190525061088b33611c81565b8160018151811061089f5761089e61438a565b5b60200260200101819052506108b2611f1c565b816002815181106108c6576108c561438a565b5b60200260200101819052506108d9611f59565b816003815181106108ed576108ec61438a565b5b6020026020010181905250610900611f79565b816004815181106109145761091361438a565b5b602002602001018190525085858080601f0160208091040260200160405190810160405280939291908181526020018383808284375f81840152601f19601f82011690508083019250505050505050816005815181106109775761097661438a565b5b60200260200101819052506109958183611fb690919063ffffffff16565b5f6109ed6109a284611ffd565b7f00000000000000000000000000000000000000000000000000000000000000006207a1207f66756e2d626173652d7365706f6c69612d310000000000000000000000000000612408565b90503360045f8381526020019081526020015f205f6101000a81548173ffffffffffffffffffffffffffffffffffffffff021916908373ffffffffffffffffffffffffffffffffffffffff1602179055503373ffffffffffffffffffffffffffffffffffffffff167e40a08ff8a2c8de3747add6410ec4f7e6f2f1c30043e8dee77f0adae00b356882604051610a839190613747565b60405180910390a25050505050610a986124e7565b505050565b6003602052805f5260405f205f91509050805f018054610abc906140f4565b80601f0160208091040260200160405190810160405280929190818152602001828054610ae8906140f4565b8015610b335780601f10610b0a57610100808354040283529160200191610b33565b820191905f5260205f20905b815481529060010190602001808311610b1657829003601f168201915b505050505090806001015f9054906101000a900460ff1690806002015490806003015490806004015f9054906101000a900460ff16908060040160019054906101000a900460ff16905086565b600a81565b7f000000000000000000000000000000000000000000000000000000000000000081565b60015f9054906101000a900473ffffffffffffffffffffffffffffffffffffffff1673ffffffffffffffffffffffffffffffffffffffff163373ffffffffffffffffffffffffffffffffffffffff1614610c38576040517f08c379a0000000000000000000000000000000000000000000000000000000008152600401610c2f90614401565b60405180910390fd5b5f5f5f9054906101000a900473ffffffffffffffffffffffffffffffffffffffff169050335f5f6101000a81548173ffffffffffffffffffffffffffffffffffffffff021916908373ffffffffffffffffffffffffffffffffffffffff1602179055505f60015f6101000a81548173ffffffffffffffffffffffffffffffffffffffff021916908373ffffffffffffffffffffffffffffffffffffffff1602179055503373ffffffffffffffffffffffffffffffffffffffff168173ffffffffffffffffffffffffffffffffffffffff167f8be0079c531659141344cd1fd0a4f28419497f9722a3daafe3b4186f6b6457e060405160405180910390a350565b5f5f5f9054906101000a900473ffffffffffffffffffffffffffffffffffffffff16905090565b6207a12081565b66b1a2bc2ec5000081565b6101c281565b7f000000000000000000000000000000000000000000000000000000000000000081565b610da3611a96565b5f60035f3373ffffffffffffffffffffffffffffffffffffffff1673ffffffffffffffffffffffffffffffffffffffff1681526020019081526020015f209050806004015f9054906101000a900460ff16610e33576040517f08c379a0000000000000000000000000000000000000000000000000000000008152600401610e2a90614469565b60405180910390fd5b6101c28160030154610e459190613f3a565b421115610e87576040517f08c379a0000000000000000000000000000000000000000000000000000000008152600401610e7e906144d1565b60405180910390fd5b7f000000000000000000000000000000000000000000000000000000000000000073ffffffffffffffffffffffffffffffffffffffff1663a9059cbb33662386f26fc100006040518363ffffffff1660e01b8152600401610ee99291906144ef565b6020604051808303815f875af1158015610f05573d5f5f3e3d5ffd5b505050506040513d601f19601f82011682018060405250810190610f299190614034565b505f816004015f6101000a81548160ff0219169083151502179055503373ffffffffffffffffffffffffffffffffffffffff167fd9ef658e62b2d2ec36ea56e68db6f49dcb5e7977f243f28354069876ad0b90e460405160405180910390a250610f916124e7565b565b610f9b6124f1565b610fa683838361142d565b505050565b610fb3611a96565b5f60035f3373ffffffffffffffffffffffffffffffffffffffff1673ffffffffffffffffffffffffffffffffffffffff1681526020019081526020015f209050806004015f9054906101000a900460ff16611043576040517f08c379a000000000000000000000000000000000000000000000000000000000815260040161103a90614469565b60405180910390fd5b8060040160019054906101000a900460ff1660ff16816001015f9054906101000a900460ff1660ff16106110ac576040517f08c379a00000000000000000000000000000000000000000000000000000000081526004016110a390614560565b60405180910390fd5b6101c281600301546110be9190613f3a565b421115611100576040517f08c379a00000000000000000000000000000000000000000000000000000000081526004016110f7906144d1565b60405180910390fd5b61110861344e565b611122611113612581565b82611b5790919063ffffffff16565b5f600567ffffffffffffffff81111561113e5761113d61358c565b5b60405190808252806020026020018201604052801561117157816020015b606081526020019060019003908161115c5790505b509050825f018054611182906140f4565b80601f01602080910402602001604051908101604052809291908181526020018280546111ae906140f4565b80156111f95780601f106111d0576101008083540402835291602001916111f9565b820191905f5260205f20905b8154815290600101906020018083116111dc57829003601f168201915b5050505050815f815181106112115761121061438a565b5b602002602001018190525061122533611c81565b816001815181106112395761123861438a565b5b6020026020010181905250611260836001015f9054906101000a900460ff1660ff166125a4565b816002815181106112745761127361438a565b5b602002602001018190525061128b8460ff166125a4565b8160038151811061129f5761129e61438a565b5b60200260200101819052506112b2611f59565b816004815181106112c6576112c561438a565b5b60200260200101819052506112e48183611fb690919063ffffffff16565b5f61133c6112f184611ffd565b7f00000000000000000000000000000000000000000000000000000000000000006207a1207f66756e2d626173652d7365706f6c69612d310000000000000000000000000000612408565b90503360045f8381526020019081526020015f205f6101000a81548173ffffffffffffffffffffffffffffffffffffffff021916908373ffffffffffffffffffffffffffffffffffffffff1602179055503373ffffffffffffffffffffffffffffffffffffffff167ffe53552c44193345fcdb414850b39531bc6809b125e345b838a108231cbef415826040516113d39190613747565b60405180910390a2505050506113e76124e7565b50565b6113f26124f1565b6113fb816126fc565b50565b662386f26fc1000081565b7f000000000000000000000000000000000000000000000000000000000000000081565b5f60045f8581526020019081526020015f205f9054906101000a900473ffffffffffffffffffffffffffffffffffffffff1690505f73ffffffffffffffffffffffffffffffffffffffff168173ffffffffffffffffffffffffffffffffffffffff16036114cf576040517f08c379a00000000000000000000000000000000000000000000000000000000081526004016114c6906145c8565b60405180910390fd5b5f60035f8373ffffffffffffffffffffffffffffffffffffffff1673ffffffffffffffffffffffffffffffffffffffff1681526020019081526020015f209050806004015f9054906101000a900460ff1661155f576040517f08c379a000000000000000000000000000000000000000000000000000000000815260040161155690614630565b60405180910390fd5b60045f8681526020019081526020015f205f6101000a81549073ffffffffffffffffffffffffffffffffffffffff0219169055847facaa717af134f780a4708eb8d27244fee7ecbbbb96c882a85f0e6daab69be0d585856040516115c49291906146a0565b60405180910390a25f8351111561163157826040516020016115e69190614759565b6040516020818303038152906040526040517f08c379a0000000000000000000000000000000000000000000000000000000008152600401611628919061477a565b60405180910390fd5b5f8160040160019054906101000a900460ff1660ff16036117fa575f5f61165786612827565b91509150600a60ff168111156116a2576040517f08c379a0000000000000000000000000000000000000000000000000000000008152600401611699906147e4565b60405180910390fd5b5f8251116116e5576040517f08c379a00000000000000000000000000000000000000000000000000000000081526004016116dc9061484c565b60405180910390fd5b825f016040516020016116f891906148ea565b604051602081830303815290604052805190602001208260405160200161171f9190614930565b6040516020818303038152906040528051906020012014611775576040517f08c379a000000000000000000000000000000000000000000000000000000000815260040161176c90614990565b60405180910390fd5b808360040160016101000a81548160ff021916908360ff1602179055508373ffffffffffffffffffffffffffffffffffffffff167f24bb3705c7ad2a404fd0ed31143a60ac9c3acf33c50e13c6ffd8d47330c6d9f3838560040160019054906101000a900460ff166040516117eb9291906149ae565b60405180910390a25050611a8f565b5f84511161183d576040517f08c379a000000000000000000000000000000000000000000000000000000000815260040161183490614a26565b60405180910390fd5b5f6031855f815181106118535761185261438a565b5b602001015160f81c60f81b60f81c60ff16149050801561188757816002015f81548092919061188190614a44565b91905055505b8273ffffffffffffffffffffffffffffffffffffffff167f718b4e7fa380adc3868add3b0f2b8e35c61335e0afbc69549d60f0cf3c2f7cde82846001015f9054906101000a900460ff166040516118df929190614a8b565b60405180910390a2816001015f81819054906101000a900460ff168092919061190790614ab2565b91906101000a81548160ff021916908360ff160217905550508160040160019054906101000a900460ff1660ff16826001015f9054906101000a900460ff1660ff1610611a8d575f826004015f6101000a81548160ff0219169083151502179055505f66b1a2bc2ec5000083600201546119819190614ada565b90505f61198d82612978565b90505f821115611a34577f000000000000000000000000000000000000000000000000000000000000000073ffffffffffffffffffffffffffffffffffffffff1663a9059cbb86846040518363ffffffff1660e01b81526004016119f29291906144ef565b6020604051808303815f875af1158015611a0e573d5f5f3e3d5ffd5b505050506040513d601f19601f82011682018060405250810190611a329190614034565b505b8473ffffffffffffffffffffffffffffffffffffffff167fa0d4582659e33ebf7e1e80b7fd9c16d821a7f74598c47a09f3b891b428e268cb85600201548484604051611a8293929190614b1b565b60405180910390a250505b505b5050505050565b6002805403611ada576040517f08c379a0000000000000000000000000000000000000000000000000000000008152600401611ad190614b9a565b60405180910390fd5b60028081905550565b60605f8383604051602001611af9929190614c1d565b604051602081830303815290604052805190602001209050611b2b6305f5e100825f1c611b269190614c75565b612a76565b91505092915050565b6060604051806102c0016040528061029081526020016156356102909139905090565b611b63825f5f84612c2d565b5050565b60605f6040518060400160405280600181526020017f5b0000000000000000000000000000000000000000000000000000000000000081525090505f5b8351811015611c585781848281518110611bc157611bc061438a565b5b602002602001015160018651611bd79190614ca5565b8310611bf15760405180602001604052805f815250611c28565b6040518060400160405280600181526020017f2c000000000000000000000000000000000000000000000000000000000000008152505b604051602001611c3a93929190614d22565b60405160208183030381529060405291508080600101915050611ba4565b5080604051602001611c6a9190614db2565b604051602081830303815290604052915050919050565b60605f6040518060400160405280601081526020017f303132333435363738396162636465660000000000000000000000000000000081525090505f602a67ffffffffffffffff811115611cd857611cd761358c565b5b6040519080825280601f01601f191660200182016040528015611d0a5781602001600182028036833780820191505090505b5090507f3000000000000000000000000000000000000000000000000000000000000000815f81518110611d4157611d4061438a565b5b60200101907effffffffffffffffffffffffffffffffffffffffffffffffffffffffffffff191690815f1a9053507f780000000000000000000000000000000000000000000000000000000000000081600181518110611da457611da361438a565b5b60200101907effffffffffffffffffffffffffffffffffffffffffffffffffffffffffffff191690815f1a9053505f8460601b90505f5f90505b6014811015611f10575f828260148110611dfb57611dfa61438a565b5b1a60f81b60f81c90508460048260ff16901c60ff1681518110611e2157611e2061438a565b5b602001015160f81c60f81b84600284611e3a9190614ada565b6002611e469190613f3a565b81518110611e5757611e5661438a565b5b60200101907effffffffffffffffffffffffffffffffffffffffffffffffffffffffffffff191690815f1a90535084600f821660ff1681518110611e9e57611e9d61438a565b5b602001015160f81c60f81b84600284611eb79190614ada565b6003611ec39190613f3a565b81518110611ed457611ed361438a565b5b60200101907effffffffffffffffffffffffffffffffffffffffffffffffffffffffffffff191690815f1a905350508080600101915050611dde565b50819350505050919050565b60606040518060400160405280601581526020017f687474703a2f2f6c6f63616c686f73743a353030300000000000000000000000815250905090565b606060405180606001604052806028815260200161543b60289139905090565b60606040518060400160405280600781526020017f5175697a7a657300000000000000000000000000000000000000000000000000815250905090565b5f815103611ff0576040517ffe936cb700000000000000000000000000000000000000000000000000000000815260040160405180910390fd5b808260a001819052505050565b60605f61200b610100612cd3565b90506120556040518060400160405280600c81526020017f636f64654c6f636174696f6e000000000000000000000000000000000000000081525082612cf890919063ffffffff16565b61207d835f0151600281111561206e5761206d614dd3565b5b82612d2090919063ffffffff16565b6120c56040518060400160405280600881526020017f6c616e677561676500000000000000000000000000000000000000000000000081525082612cf890919063ffffffff16565b6120ed83604001515f8111156120de576120dd614dd3565b5b82612d2090919063ffffffff16565b6121356040518060400160405280600681526020017f736f75726365000000000000000000000000000000000000000000000000000081525082612cf890919063ffffffff16565b61214c836060015182612cf890919063ffffffff16565b5f8360a00151511115612203576121a16040518060400160405280600481526020017f617267730000000000000000000000000000000000000000000000000000000081525082612cf890919063ffffffff16565b6121aa81612d6f565b5f5f90505b8360a00151518110156121f8576121ed8460a0015182815181106121d6576121d561438a565b5b602002602001015183612cf890919063ffffffff16565b8060010190506121af565b5061220281612d97565b5b5f8360800151511115612342575f600281111561222357612222614dd3565b5b8360200151600281111561223a57612239614dd3565b5b03612271576040517fa80d31f700000000000000000000000000000000000000000000000000000000815260040160405180910390fd5b6122b96040518060400160405280600f81526020017f736563726574734c6f636174696f6e000000000000000000000000000000000081525082612cf890919063ffffffff16565b6122e2836020015160028111156122d3576122d2614dd3565b5b82612d2090919063ffffffff16565b61232a6040518060400160405280600781526020017f736563726574730000000000000000000000000000000000000000000000000081525082612cf890919063ffffffff16565b612341836080015182612dbf90919063ffffffff16565b5b5f8360c001515111156123f9576123976040518060400160405280600981526020017f627974657341726773000000000000000000000000000000000000000000000081525082612cf890919063ffffffff16565b6123a081612d6f565b5f5f90505b8360c00151518110156123ee576123e38460c0015182815181106123cc576123cb61438a565b5b602002602001015183612dbf90919063ffffffff16565b8060010190506123a5565b506123f881612d97565b5b805f01515f0151915050919050565b5f5f7f000000000000000000000000000000000000000000000000000000000000000073ffffffffffffffffffffffffffffffffffffffff1663461d27628688600188886040518663ffffffff1660e01b815260040161246c959493929190614e1c565b6020604051808303815f875af1158015612488573d5f5f3e3d5ffd5b505050506040513d601f19601f820116820180604052508101906124ac9190614e88565b9050807f1131472297a800fee664d1d89cfa8f7676ff07189ecc53f80bbb5f4969099db860405160405180910390a280915050949350505050565b6001600281905550565b5f5f9054906101000a900473ffffffffffffffffffffffffffffffffffffffff1673ffffffffffffffffffffffffffffffffffffffff163373ffffffffffffffffffffffffffffffffffffffff161461257f576040517f08c379a000000000000000000000000000000000000000000000000000000000815260040161257690614efd565b60405180910390fd5b565b60606040518061020001604052806101d281526020016154636101d29139905090565b60605f82036125ea576040518060400160405280600181526020017f300000000000000000000000000000000000000000000000000000000000000081525090506126f7565b5f5f8390505b5f81111561261a57818061260390614a44565b925050600a816126139190614f1b565b90506125f0565b505f8167ffffffffffffffff8111156126365761263561358c565b5b6040519080825280601f01601f1916602001820160405280156126685781602001600182028036833780820191505090505b5090505b5f8411156126f157600a846126819190614c75565b603061268d9190613f3a565b60f81b818361269b90614f4b565b935083815181106126af576126ae61438a565b5b60200101907effffffffffffffffffffffffffffffffffffffffffffffffffffffffffffff191690815f1a905350600a846126ea9190614f1b565b935061266c565b80925050505b919050565b3373ffffffffffffffffffffffffffffffffffffffff168173ffffffffffffffffffffffffffffffffffffffff160361276a576040517f08c379a000000000000000000000000000000000000000000000000000000000815260040161276190614fbc565b60405180910390fd5b8060015f6101000a81548173ffffffffffffffffffffffffffffffffffffffff021916908373ffffffffffffffffffffffffffffffffffffffff1602179055508073ffffffffffffffffffffffffffffffffffffffff165f5f9054906101000a900473ffffffffffffffffffffffffffffffffffffffff1673ffffffffffffffffffffffffffffffffffffffff167fed8889f560326eb138920d842192f0eb3dd22b4f139c87a2c57538e05bae127860405160405180910390a350565b60605f5f8390505f815111612871576040517f08c379a000000000000000000000000000000000000000000000000000000000815260040161286890614a26565b60405180910390fd5b5f5b8151811080156128c65750607c60f81b8282815181106128965761289561438a565b5b602001015160f81c60f81b7effffffffffffffffffffffffffffffffffffffffffffffffffffffffffffff191614155b156128de5780806128d690614a44565b915050612873565b81518110612921576040517f08c379a000000000000000000000000000000000000000000000000000000000815260040161291890615024565b60405180910390fd5b5f61292d835f84612de7565b90505f612967612962856001866129449190613f3a565b60018789516129539190614ca5565b61295d9190614ca5565b612de7565b612ec1565b905081819550955050505050915091565b5f5f7f000000000000000000000000000000000000000000000000000000000000000073ffffffffffffffffffffffffffffffffffffffff1663feaf968c6040518163ffffffff1660e01b815260040160a060405180830381865afa1580156129e3573d5f5f3e3d5ffd5b505050506040513d601f19601f82011682018060405250810190612a0791906150de565b5050509150505f8113612a4f576040517f08c379a0000000000000000000000000000000000000000000000000000000008152600401612a469061519f565b60405180910390fd5b670de0b6b3a76400008184612a649190614ada565b612a6e9190614f1b565b915050919050565b60605f6040518060400160405280601081526020017f303132333435363738396162636465660000000000000000000000000000000081525090505f601067ffffffffffffffff811115612acd57612acc61358c565b5b6040519080825280601f01601f191660200182016040528015612aff5781602001600182028036833780820191505090505b5090505f5f90505b6008811015612c22575f600f826007612b209190614ca5565b6004612b2c9190614ada565b87901c169050838181518110612b4557612b4461438a565b5b602001015160f81c60f81b83600284612b5e9190614ada565b81518110612b6f57612b6e61438a565b5b60200101907effffffffffffffffffffffffffffffffffffffffffffffffffffffffffffff191690815f1a905350838181518110612bb057612baf61438a565b5b602001015160f81c60f81b836001600285612bcb9190614ada565b612bd59190613f3a565b81518110612be657612be561438a565b5b60200101907effffffffffffffffffffffffffffffffffffffffffffffffffffffffffffff191690815f1a905350508080600101915050612b07565b508092505050919050565b5f815103612c67576040517f22ce3edd00000000000000000000000000000000000000000000000000000000815260040160405180910390fd5b82845f01906002811115612c7e57612c7d614dd3565b5b90816002811115612c9257612c91614dd3565b5b815250508184604001905f811115612cad57612cac614dd3565b5b90815f811115612cc057612cbf614dd3565b5b8152505080846060018190525050505050565b612cdb6134bd565b612ce8815f015183613008565b505f816020018181525050919050565b612d05826003835161307e565b612d1b81835f015161321e90919063ffffffff16565b505050565b612d4160026005600660ff16901b17835f015161323a90919063ffffffff16565b50612d6b8282604051602001612d579190613c36565b604051602081830303815290604052612dbf565b5050565b612d7a8160046132a1565b600181602001818151612d8d9190613f3a565b9150818152505050565b612da28160076132a1565b600181602001818151612db59190614ca5565b9150818152505050565b612dcc826002835161307e565b612de281835f015161321e90919063ffffffff16565b505050565b60608167ffffffffffffffff811115612e0357612e0261358c565b5b6040519080825280601f01601f191660200182016040528015612e355781602001600182028036833780820191505090505b5090505f5b82811015612eb957848185612e4f9190613f3a565b81518110612e6057612e5f61438a565b5b602001015160f81c60f81b828281518110612e7e57612e7d61438a565b5b60200101907effffffffffffffffffffffffffffffffffffffffffffffffffffffffffffff191690815f1a9053508080600101915050612e3a565b509392505050565b5f5f8290505f815111612f09576040517f08c379a0000000000000000000000000000000000000000000000000000000008152600401612f0090615207565b60405180910390fd5b5f5b8151811015613001576030828281518110612f2957612f2861438a565b5b602001015160f81c60f81b60f81c60ff1610158015612f6c57506039828281518110612f5857612f5761438a565b5b602001015160f81c60f81b60f81c60ff1611155b612fab576040517f08c379a0000000000000000000000000000000000000000000000000000000008152600401612fa29061526f565b60405180910390fd5b6030828281518110612fc057612fbf61438a565b5b602001015160f81c60f81b60f81c612fd8919061528d565b60ff16600a84612fe89190614ada565b612ff29190613f3a565b92508080600101915050612f0b565b5050919050565b6130106134dc565b5f60208361301e9190614c75565b1461304a576020826130309190614c75565b602061303c9190614ca5565b826130479190613f3a565b91505b818360200181815250506040518084525f81528281016020018181101561306f575f5ffd5b80604052505082905092915050565b60178167ffffffffffffffff16116130b8576130b28160058460ff16901b60ff1617845f015161323a90919063ffffffff16565b50613219565b60ff8167ffffffffffffffff1611613114576130ea601860058460ff16901b17845f015161323a90919063ffffffff16565b5061310e8167ffffffffffffffff166001855f01516132c69092919063ffffffff16565b50613218565b61ffff8167ffffffffffffffff161161317157613147601960058460ff16901b17845f015161323a90919063ffffffff16565b5061316b8167ffffffffffffffff166002855f01516132c69092919063ffffffff16565b50613217565b63ffffffff8167ffffffffffffffff16116131d0576131a6601a60058460ff16901b17845f015161323a90919063ffffffff16565b506131ca8167ffffffffffffffff166004855f01516132c69092919063ffffffff16565b50613216565b6131f0601b60058460ff16901b17845f015161323a90919063ffffffff16565b506132148167ffffffffffffffff166008855f01516132c69092919063ffffffff16565b505b5b5b5b505050565b6132266134dc565b6132328383845161334f565b905092915050565b6132426134dc565b5f835f01515190505f6001826132589190613f3a565b90508460200151821061327c5761327b856002836132769190614ada565b61342c565b5b84516020838201018581538151831115613294578282525b5050849250505092915050565b6132c1601f60058360ff16901b17835f015161323a90919063ffffffff16565b505050565b6132ce6134dc565b5f845f01515190505f81846132e39190613f3a565b9050856020015181111561330857613307866002836133029190614ada565b61342c565b5b5f60018561010061331991906153f0565b6133239190614ca5565b905086518281018783198251161781528151841115613340578382525b50508693505050509392505050565b6133576134dc565b8251821115613364575f5ffd5b5f845f01515190505f83826133799190613f3a565b9050856020015181111561339e5761339d866002836133989190614ada565b61342c565b5b5f5f875180518560208301019350808511156133b8578482525b60208901925050505b602086106133ff57805182526020826133da9190613f3a565b91506020816133e99190613f3a565b90506020866133f89190614ca5565b95506133c1565b5f6001876020036101000a0390508019825116818451168181178552505050879450505050509392505050565b5f825f0151905061343d8383613008565b50613448838261321e565b50505050565b6040518060e001604052805f600281111561346c5761346b614dd3565b5b81526020015f600281111561348457613483614dd3565b5b81526020015f5f81111561349b5761349a614dd3565b5b8152602001606081526020016060815260200160608152602001606081525090565b60405180604001604052806134d06134dc565b81526020015f81525090565b6040518060400160405280606081526020015f81525090565b5f67ffffffffffffffff82169050919050565b613511816134f5565b82525050565b5f60208201905061352a5f830184613508565b92915050565b5f604051905090565b5f5ffd5b5f5ffd5b5f819050919050565b61355381613541565b811461355d575f5ffd5b50565b5f8135905061356e8161354a565b92915050565b5f5ffd5b5f5ffd5b5f601f19601f8301169050919050565b7f4e487b71000000000000000000000000000000000000000000000000000000005f52604160045260245ffd5b6135c28261357c565b810181811067ffffffffffffffff821117156135e1576135e061358c565b5b80604052505050565b5f6135f3613530565b90506135ff82826135b9565b919050565b5f67ffffffffffffffff82111561361e5761361d61358c565b5b6136278261357c565b9050602081019050919050565b828183375f83830152505050565b5f61365461364f84613604565b6135ea565b9050828152602081018484840111156136705761366f613578565b5b61367b848285613634565b509392505050565b5f82601f83011261369757613696613574565b5b81356136a7848260208601613642565b91505092915050565b5f5f5f606084860312156136c7576136c6613539565b5b5f6136d486828701613560565b935050602084013567ffffffffffffffff8111156136f5576136f461353d565b5b61370186828701613683565b925050604084013567ffffffffffffffff8111156137225761372161353d565b5b61372e86828701613683565b9150509250925092565b61374181613541565b82525050565b5f60208201905061375a5f830184613738565b92915050565b5f67ffffffffffffffff82111561377a5761377961358c565b5b602082029050602081019050919050565b5f5ffd5b5f67ffffffffffffffff8211156137a9576137a861358c565b5b6137b28261357c565b9050602081019050919050565b5f6137d16137cc8461378f565b6135ea565b9050828152602081018484840111156137ed576137ec613578565b5b6137f8848285613634565b509392505050565b5f82601f83011261381457613813613574565b5b81356138248482602086016137bf565b91505092915050565b5f61383f61383a84613760565b6135ea565b905080838252602082019050602084028301858111156138625761386161378b565b5b835b818110156138a957803567ffffffffffffffff81111561388757613886613574565b5b8086016138948982613800565b85526020850194505050602081019050613864565b5050509392505050565b5f82601f8301126138c7576138c6613574565b5b81356138d784826020860161382d565b91505092915050565b5f5ffd5b5f5f83601f8401126138f9576138f8613574565b5b8235905067ffffffffffffffff811115613916576139156138e0565b5b6020830191508360018202830111156139325761393161378b565b5b9250929050565b5f5f5f604084860312156139505761394f613539565b5b5f84013567ffffffffffffffff81111561396d5761396c61353d565b5b613979868287016138b3565b935050602084013567ffffffffffffffff81111561399a5761399961353d565b5b6139a6868287016138e4565b92509250509250925092565b5f73ffffffffffffffffffffffffffffffffffffffff82169050919050565b5f6139db826139b2565b9050919050565b6139eb816139d1565b81146139f5575f5ffd5b50565b5f81359050613a06816139e2565b92915050565b5f60208284031215613a2157613a20613539565b5b5f613a2e848285016139f8565b91505092915050565b5f81519050919050565b5f82825260208201905092915050565b8281835e5f83830152505050565b5f613a6982613a37565b613a738185613a41565b9350613a83818560208601613a51565b613a8c8161357c565b840191505092915050565b5f60ff82169050919050565b613aac81613a97565b82525050565b5f819050919050565b613ac481613ab2565b82525050565b5f8115159050919050565b613ade81613aca565b82525050565b5f60c0820190508181035f830152613afc8189613a5f565b9050613b0b6020830188613aa3565b613b186040830187613abb565b613b256060830186613abb565b613b326080830185613ad5565b613b3f60a0830184613aa3565b979650505050505050565b5f602082019050613b5d5f830184613aa3565b92915050565b5f819050919050565b5f613b86613b81613b7c846139b2565b613b63565b6139b2565b9050919050565b5f613b9782613b6c565b9050919050565b5f613ba882613b8d565b9050919050565b613bb881613b9e565b82525050565b5f602082019050613bd15f830184613baf565b92915050565b613be0816139d1565b82525050565b5f602082019050613bf95f830184613bd7565b92915050565b5f63ffffffff82169050919050565b613c1781613bff565b82525050565b5f602082019050613c305f830184613c0e565b92915050565b5f602082019050613c495f830184613abb565b92915050565b5f613c5982613b8d565b9050919050565b613c6981613c4f565b82525050565b5f602082019050613c825f830184613c60565b92915050565b613c9181613a97565b8114613c9b575f5ffd5b50565b5f81359050613cac81613c88565b92915050565b5f60208284031215613cc757613cc6613539565b5b5f613cd484828501613c9e565b91505092915050565b7f4e656564203e3d203520646f6d61696e730000000000000000000000000000005f82015250565b5f613d11601183613a41565b9150613d1c82613cdd565b602082019050919050565b5f6020820190508181035f830152613d3e81613d05565b9050919050565b5f81905092915050565b7f45617379000000000000000000000000000000000000000000000000000000005f82015250565b5f613d83600483613d45565b9150613d8e82613d4f565b600482019050919050565b5f613da382613d77565b9150819050919050565b5f613db88385613d45565b9350613dc5838584613634565b82840190509392505050565b5f613ddd828486613dad565b91508190509392505050565b7f4d656469756d00000000000000000000000000000000000000000000000000005f82015250565b5f613e1d600683613d45565b9150613e2882613de9565b600682019050919050565b5f613e3d82613e11565b9150819050919050565b7f48617264000000000000000000000000000000000000000000000000000000005f82015250565b5f613e7b600483613d45565b9150613e8682613e47565b600482019050919050565b5f613e9b82613e6f565b9150819050919050565b7f496e76616c696420646966666963756c747900000000000000000000000000005f82015250565b5f613ed9601283613a41565b9150613ee482613ea5565b602082019050919050565b5f6020820190508181035f830152613f0681613ecd565b9050919050565b7f4e487b71000000000000000000000000000000000000000000000000000000005f52601160045260245ffd5b5f613f4482613ab2565b9150613f4f83613ab2565b9250828201905080821115613f6757613f66613f0d565b5b92915050565b7f5175697a20696e2070726f6772657373000000000000000000000000000000005f82015250565b5f613fa1601083613a41565b9150613fac82613f6d565b602082019050919050565b5f6020820190508181035f830152613fce81613f95565b9050919050565b5f606082019050613fe85f830186613bd7565b613ff56020830185613bd7565b6140026040830184613abb565b949350505050565b61401381613aca565b811461401d575f5ffd5b50565b5f8151905061402e8161400a565b92915050565b5f6020828403121561404957614048613539565b5b5f61405684828501614020565b91505092915050565b7f466565207472616e73666572206661696c6564000000000000000000000000005f82015250565b5f614093601383613a41565b915061409e8261405f565b602082019050919050565b5f6020820190508181035f8301526140c081614087565b9050919050565b7f4e487b71000000000000000000000000000000000000000000000000000000005f52602260045260245ffd5b5f600282049050600182168061410b57607f821691505b60208210810361411e5761411d6140c7565b5b50919050565b5f819050815f5260205f209050919050565b5f6020601f8301049050919050565b5f82821b905092915050565b5f600883026141807fffffffffffffffffffffffffffffffffffffffffffffffffffffffffffffffff82614145565b61418a8683614145565b95508019841693508086168417925050509392505050565b5f6141bc6141b76141b284613ab2565b613b63565b613ab2565b9050919050565b5f819050919050565b6141d5836141a2565b6141e96141e1826141c3565b848454614151565b825550505050565b5f5f905090565b6142006141f1565b61420b8184846141cc565b505050565b5b8181101561422e576142235f826141f8565b600181019050614211565b5050565b601f8211156142735761424481614124565b61424d84614136565b8101602085101561425c578190505b61427061426885614136565b830182614210565b50505b505050565b5f82821c905092915050565b5f6142935f1984600802614278565b1980831691505092915050565b5f6142ab8383614284565b9150826002028217905092915050565b6142c482613a37565b67ffffffffffffffff8111156142dd576142dc61358c565b5b6142e782546140f4565b6142f2828285614232565b5f60209050601f831160018114614323575f8415614311578287015190505b61431b85826142a0565b865550614382565b601f19841661433186614124565b5f5b8281101561435857848901518255600182019150602085019450602081019050614333565b868310156143755784890151614371601f891682614284565b8355505b6001600288020188555050505b505050505050565b7f4e487b71000000000000000000000000000000000000000000000000000000005f52603260045260245ffd5b7f4d7573742062652070726f706f736564206f776e6572000000000000000000005f82015250565b5f6143eb601683613a41565b91506143f6826143b7565b602082019050919050565b5f6020820190508181035f830152614418816143df565b9050919050565b7f4e6f20616374697665207175697a0000000000000000000000000000000000005f82015250565b5f614453600e83613a41565b915061445e8261441f565b602082019050919050565b5f6020820190508181035f83015261448081614447565b9050919050565b7f45787069726564000000000000000000000000000000000000000000000000005f82015250565b5f6144bb600783613a41565b91506144c682614487565b602082019050919050565b5f6020820190508181035f8301526144e8816144af565b9050919050565b5f6040820190506145025f830185613bd7565b61450f6020830184613abb565b9392505050565b7f5175697a20636f6d706c657465000000000000000000000000000000000000005f82015250565b5f61454a600d83613a41565b915061455582614516565b602082019050919050565b5f6020820190508181035f8301526145778161453e565b9050919050565b7f556e6b6e6f776e207265717565737400000000000000000000000000000000005f82015250565b5f6145b2600f83613a41565b91506145bd8261457e565b602082019050919050565b5f6020820190508181035f8301526145df816145a6565b9050919050565b7f53657373696f6e20656e646564000000000000000000000000000000000000005f82015250565b5f61461a600d83613a41565b9150614625826145e6565b602082019050919050565b5f6020820190508181035f8301526146478161460e565b9050919050565b5f81519050919050565b5f82825260208201905092915050565b5f6146728261464e565b61467c8185614658565b935061468c818560208601613a51565b6146958161357c565b840191505092915050565b5f6040820190508181035f8301526146b88185613a5f565b905081810360208301526146cc8184614668565b90509392505050565b7f46756e6374696f6e73206572726f723a200000000000000000000000000000005f82015250565b5f614709601183613d45565b9150614714826146d5565b601182019050919050565b5f81905092915050565b5f6147338261464e565b61473d818561471f565b935061474d818560208601613a51565b80840191505092915050565b5f614763826146fd565b915061476f8284614729565b915081905092915050565b5f6020820190508181035f8301526147928184613a5f565b905092915050565b7f546f6f206d616e79207175657374696f6e7300000000000000000000000000005f82015250565b5f6147ce601283613a41565b91506147d98261479a565b602082019050919050565b5f6020820190508181035f8301526147fb816147c2565b9050919050565b7f496e76616c6964207175697a49640000000000000000000000000000000000005f82015250565b5f614836600e83613a41565b915061484182614802565b602082019050919050565b5f6020820190508181035f8301526148638161482a565b9050919050565b5f8154614876816140f4565b6148808186613d45565b9450600182165f811461489a57600181146148af576148e1565b60ff19831686528115158202860193506148e1565b6148b885614124565b5f5b838110156148d9578154818901526001820191506020810190506148ba565b838801955050505b50505092915050565b5f6148f5828461486a565b915081905092915050565b5f61490a82613a37565b6149148185613d45565b9350614924818560208601613a51565b80840191505092915050565b5f61493b8284614900565b915081905092915050565b7f5175697a4964206d69736d6174636800000000000000000000000000000000005f82015250565b5f61497a600f83613a41565b915061498582614946565b602082019050919050565b5f6020820190508181035f8301526149a78161496e565b9050919050565b5f6040820190508181035f8301526149c68185613a5f565b90506149d56020830184613aa3565b9392505050565b7f456d70747920726573706f6e73650000000000000000000000000000000000005f82015250565b5f614a10600e83613a41565b9150614a1b826149dc565b602082019050919050565b5f6020820190508181035f830152614a3d81614a04565b9050919050565b5f614a4e82613ab2565b91507fffffffffffffffffffffffffffffffffffffffffffffffffffffffffffffffff8203614a8057614a7f613f0d565b5b600182019050919050565b5f604082019050614a9e5f830185613ad5565b614aab6020830184613aa3565b9392505050565b5f614abc82613a97565b915060ff8203614acf57614ace613f0d565b5b600182019050919050565b5f614ae482613ab2565b9150614aef83613ab2565b9250828202614afd81613ab2565b91508282048414831517614b1457614b13613f0d565b5b5092915050565b5f606082019050614b2e5f830186613abb565b614b3b6020830185613abb565b614b486040830184613abb565b949350505050565b7f5265656e7472616e637947756172643a207265656e7472616e742063616c6c005f82015250565b5f614b84601f83613a41565b9150614b8f82614b50565b602082019050919050565b5f6020820190508181035f830152614bb181614b78565b9050919050565b5f8160601b9050919050565b5f614bce82614bb8565b9050919050565b5f614bdf82614bc4565b9050919050565b614bf7614bf2826139d1565b614bd5565b82525050565b5f819050919050565b614c17614c1282613ab2565b614bfd565b82525050565b5f614c288285614be6565b601482019150614c388284614c06565b6020820191508190509392505050565b7f4e487b71000000000000000000000000000000000000000000000000000000005f52601260045260245ffd5b5f614c7f82613ab2565b9150614c8a83613ab2565b925082614c9a57614c99614c48565b5b828206905092915050565b5f614caf82613ab2565b9150614cba83613ab2565b9250828203905081811115614cd257614cd1613f0d565b5b92915050565b7f22000000000000000000000000000000000000000000000000000000000000005f82015250565b5f614d0c600183613d45565b9150614d1782614cd8565b600182019050919050565b5f614d2d8286614900565b9150614d3882614d00565b9150614d448285614900565b9150614d4f82614d00565b9150614d5b8284614900565b9150819050949350505050565b7f5d000000000000000000000000000000000000000000000000000000000000005f82015250565b5f614d9c600183613d45565b9150614da782614d68565b600182019050919050565b5f614dbd8284614900565b9150614dc882614d90565b915081905092915050565b7f4e487b71000000000000000000000000000000000000000000000000000000005f52602160045260245ffd5b5f61ffff82169050919050565b614e1681614e00565b82525050565b5f60a082019050614e2f5f830188613508565b8181036020830152614e418187614668565b9050614e506040830186614e0d565b614e5d6060830185613c0e565b614e6a6080830184613738565b9695505050505050565b5f81519050614e828161354a565b92915050565b5f60208284031215614e9d57614e9c613539565b5b5f614eaa84828501614e74565b91505092915050565b7f4f6e6c792063616c6c61626c65206279206f776e6572000000000000000000005f82015250565b5f614ee7601683613a41565b9150614ef282614eb3565b602082019050919050565b5f6020820190508181035f830152614f1481614edb565b9050919050565b5f614f2582613ab2565b9150614f3083613ab2565b925082614f4057614f3f614c48565b5b828204905092915050565b5f614f5582613ab2565b91505f8203614f6757614f66613f0d565b5b600182039050919050565b7f43616e6e6f74207472616e7366657220746f2073656c660000000000000000005f82015250565b5f614fa6601783613a41565b9150614fb182614f72565b602082019050919050565b5f6020820190508181035f830152614fd381614f9a565b9050919050565b7f496e76616c696420726573706f6e736520666f726d61740000000000000000005f82015250565b5f61500e601783613a41565b915061501982614fda565b602082019050919050565b5f6020820190508181035f83015261503b81615002565b9050919050565b5f69ffffffffffffffffffff82169050919050565b61506081615042565b811461506a575f5ffd5b50565b5f8151905061507b81615057565b92915050565b5f819050919050565b61509381615081565b811461509d575f5ffd5b50565b5f815190506150ae8161508a565b92915050565b6150bd81613ab2565b81146150c7575f5ffd5b50565b5f815190506150d8816150b4565b92915050565b5f5f5f5f5f60a086880312156150f7576150f6613539565b5b5f6151048882890161506d565b9550506020615115888289016150a0565b9450506040615126888289016150ca565b9350506060615137888289016150ca565b92505060806151488882890161506d565b9150509295509295909350565b7f42616420666565640000000000000000000000000000000000000000000000005f82015250565b5f615189600883613a41565b915061519482615155565b602082019050919050565b5f6020820190508181035f8301526151b68161517d565b9050919050565b7f496e76616c6964206e756d6265720000000000000000000000000000000000005f82015250565b5f6151f1600e83613a41565b91506151fc826151bd565b602082019050919050565b5f6020820190508181035f83015261521e816151e5565b9050919050565b7f4e6f6e2d6e756d657269632063686172616374657200000000000000000000005f82015250565b5f615259601583613a41565b915061526482615225565b602082019050919050565b5f6020820190508181035f8301526152868161524d565b9050919050565b5f61529782613a97565b91506152a283613a97565b9250828203905060ff8111156152bb576152ba613f0d565b5b92915050565b5f8160011c9050919050565b5f5f8291508390505b6001851115615316578086048111156152f2576152f1613f0d565b5b60018516156153015780820291505b808102905061530f856152c1565b94506152d6565b94509492505050565b5f8261532e57600190506153e9565b8161533b575f90506153e9565b8160018114615351576002811461535b5761538a565b60019150506153e9565b60ff84111561536d5761536c613f0d565b5b8360020a91508482111561538457615383613f0d565b5b506153e9565b5060208310610133831016604e8410600b84101617156153bf5782820a9050838111156153ba576153b9613f0d565b5b6153e9565b6153cc84848460016152cd565b925090508184048111156153e3576153e2613f0d565b5b81810290505b9392505050565b5f6153fa82613ab2565b915061540583613ab2565b92506154327fffffffffffffffffffffffffffffffffffffffffffffffffffffffffffffffff848461531f565b90509291505056fe68747470733a2f2f6377697a72707276797a6e656c7467687a6e6e612e73757061626173652e636f636f6e73742075726c203d20617267735b345d202b20272f766572696679416e73776572273b636f6e737420726573203d2061776169742046756e6374696f6e732e6d616b654874747052657175657374287b202075726c2c20206d6574686f643a2027504f5354272c2020686561646572733a207b27436f6e74656e742d54797065273a20276170706c69636174696f6e2f6a736f6e277d2c2020646174613a204a534f4e2e737472696e67696679287b202020207175697a49643a20617267735b305d2c20202020706c61796572416464726573733a20617267735b315d2c202020207175657374696f6e496e6465783a207061727365496e7428617267735b325d292c2020202073656c6563746564496e6465783a207061727365496e7428617267735b335d2920207d297d293b696620287265732e6572726f7229207b2020636f6e736f6c652e6572726f7228274261636b656e64206572726f723a272c207265732e6572726f72293b202072657475726e2046756e6374696f6e732e656e636f6465537472696e6728273027293b7d72657475726e2046756e6374696f6e732e656e636f6465537472696e67287265732e646174612e6973436f7272656374203f20273127203a20273027293b636f6e73742075726c203d20617267735b325d202b20272f67656e65726174655175697a273b636f6e737420726573203d2061776169742046756e6374696f6e732e6d616b654874747052657175657374287b202075726c2c20206d6574686f643a2027504f5354272c2020686561646572733a207b27436f6e74656e742d54797065273a20276170706c69636174696f6e2f6a736f6e277d2c2020646174613a204a534f4e2e737472696e67696679287b20202020646f6d61696e733a204a534f4e2e706172736528617267735b305d292c20202020706c61796572416464726573733a20617267735b315d2c20202020737570616261736555726c3a20617267735b335d2c202020207461626c653a20617267735b345d2c202020207175697a49643a20617267735b315d2c20202020646966666963756c74793a20617267735b355d20207d297d293b696620287265732e6572726f7229207b2020636f6e736f6c652e6572726f7228274261636b656e64206572726f723a272c207265732e6572726f72293b202072657475726e2046756e6374696f6e732e656e636f6465537472696e6728276572726f727c3027293b7d69662028217265732e646174612e7175697a4964207c7c20217265732e646174612e6e756d5175657374696f6e7329207b2020636f6e736f6c652e6572726f722827496e76616c696420726573706f6e73653a272c207265732e64617461293b202072657475726e2046756e6374696f6e732e656e636f6465537472696e672827696e76616c69647c3027293b7d72657475726e2046756e6374696f6e732e656e636f6465537472696e67287265732e646174612e7175697a4964202b20277c27202b207265732e646174612e6e756d5175657374696f6e73293ba2646970667358221220ce64395313c719dc1b2b6143b633bdaed25f78f9c5c66bdabcffb23d8b23395f64736f6c634300081e0033",
			"opcodes": "PUSH2 0x120 PUSH1 0x40 MSTORE CALLVALUE DUP1 ISZERO PUSH2 0x10 JUMPI PUSH0 PUSH0 REVERT JUMPDEST POP PUSH1 0x40 MLOAD PUSH2 0x611C CODESIZE SUB DUP1 PUSH2 0x611C DUP4 CODECOPY DUP2 DUP2 ADD PUSH1 0x40 MSTORE DUP2 ADD SWAP1 PUSH2 0x32 SWAP2 SWAP1 PUSH2 0x538 JUMP JUMPDEST CALLER DUP1 PUSH0 DUP4 DUP1 PUSH20 0xFFFFFFFFFFFFFFFFFFFFFFFFFFFFFFFFFFFFFFFF AND PUSH1 0x80 DUP2 PUSH20 0xFFFFFFFFFFFFFFFFFFFFFFFFFFFFFFFFFFFFFFFF AND DUP2 MSTORE POP POP POP PUSH0 PUSH20 0xFFFFFFFFFFFFFFFFFFFFFFFFFFFFFFFFFFFFFFFF AND DUP3 PUSH20 0xFFFFFFFFFFFFFFFFFFFFFFFFFFFFFFFFFFFFFFFF AND SUB PUSH2 0xD9 JUMPI PUSH1 0x40 MLOAD PUSH32 0x8C379A000000000000000000000000000000000000000000000000000000000 DUP2 MSTORE PUSH1 0x4 ADD PUSH2 0xD0 SWAP1 PUSH2 0x5F6 JUMP JUMPDEST PUSH1 0x40 MLOAD DUP1 SWAP2 SUB SWAP1 REVERT JUMPDEST DUP2 PUSH0 PUSH0 PUSH2 0x100 EXP DUP2 SLOAD DUP2 PUSH20 0xFFFFFFFFFFFFFFFFFFFFFFFFFFFFFFFFFFFFFFFF MUL NOT AND SWAP1 DUP4 PUSH20 0xFFFFFFFFFFFFFFFFFFFFFFFFFFFFFFFFFFFFFFFF AND MUL OR SWAP1 SSTORE POP PUSH0 PUSH20 0xFFFFFFFFFFFFFFFFFFFFFFFFFFFFFFFFFFFFFFFF AND DUP2 PUSH20 0xFFFFFFFFFFFFFFFFFFFFFFFFFFFFFFFFFFFFFFFF AND EQ PUSH2 0x15B JUMPI PUSH2 0x15A DUP2 PUSH2 0x372 PUSH1 0x20 SHL PUSH1 0x20 SHR JUMP JUMPDEST JUMPDEST POP POP POP PUSH1 0x1 PUSH1 0x2 DUP2 SWAP1 SSTORE POP PUSH0 PUSH20 0xFFFFFFFFFFFFFFFFFFFFFFFFFFFFFFFFFFFFFFFF AND DUP5 PUSH20 0xFFFFFFFFFFFFFFFFFFFFFFFFFFFFFFFFFFFFFFFF AND SUB PUSH2 0x1D4 JUMPI PUSH1 0x40 MLOAD PUSH32 0x8C379A000000000000000000000000000000000000000000000000000000000 DUP2 MSTORE PUSH1 0x4 ADD PUSH2 0x1CB SWAP1 PUSH2 0x65E JUMP JUMPDEST PUSH1 0x40 MLOAD DUP1 SWAP2 SUB SWAP1 REVERT JUMPDEST PUSH0 PUSH20 0xFFFFFFFFFFFFFFFFFFFFFFFFFFFFFFFFFFFFFFFF AND DUP4 PUSH20 0xFFFFFFFFFFFFFFFFFFFFFFFFFFFFFFFFFFFFFFFF AND SUB PUSH2 0x242 JUMPI PUSH1 0x40 MLOAD PUSH32 0x8C379A000000000000000000000000000000000000000000000000000000000 DUP2 MSTORE PUSH1 0x4 ADD PUSH2 0x239 SWAP1 PUSH2 0x6C6 JUMP JUMPDEST PUSH1 0x40 MLOAD DUP1 SWAP2 SUB SWAP1 REVERT JUMPDEST PUSH0 PUSH20 0xFFFFFFFFFFFFFFFFFFFFFFFFFFFFFFFFFFFFFFFF AND DUP2 PUSH20 0xFFFFFFFFFFFFFFFFFFFFFFFFFFFFFFFFFFFFFFFF AND SUB PUSH2 0x2B0 JUMPI PUSH1 0x40 MLOAD PUSH32 0x8C379A000000000000000000000000000000000000000000000000000000000 DUP2 MSTORE PUSH1 0x4 ADD PUSH2 0x2A7 SWAP1 PUSH2 0x72E JUMP JUMPDEST PUSH1 0x40 MLOAD DUP1 SWAP2 SUB SWAP1 REVERT JUMPDEST DUP4 PUSH20 0xFFFFFFFFFFFFFFFFFFFFFFFFFFFFFFFFFFFFFFFF AND PUSH1 0xA0 DUP2 PUSH20 0xFFFFFFFFFFFFFFFFFFFFFFFFFFFFFFFFFFFFFFFF AND DUP2 MSTORE POP POP DUP3 PUSH20 0xFFFFFFFFFFFFFFFFFFFFFFFFFFFFFFFFFFFFFFFF AND PUSH1 0xC0 DUP2 PUSH20 0xFFFFFFFFFFFFFFFFFFFFFFFFFFFFFFFFFFFFFFFF AND DUP2 MSTORE POP POP DUP2 PUSH8 0xFFFFFFFFFFFFFFFF AND PUSH1 0xE0 DUP2 PUSH8 0xFFFFFFFFFFFFFFFF AND DUP2 MSTORE POP POP DUP1 PUSH20 0xFFFFFFFFFFFFFFFFFFFFFFFFFFFFFFFFFFFFFFFF AND PUSH2 0x100 DUP2 PUSH20 0xFFFFFFFFFFFFFFFFFFFFFFFFFFFFFFFFFFFFFFFF AND DUP2 MSTORE POP POP POP POP POP POP PUSH2 0x7B4 JUMP JUMPDEST CALLER PUSH20 0xFFFFFFFFFFFFFFFFFFFFFFFFFFFFFFFFFFFFFFFF AND DUP2 PUSH20 0xFFFFFFFFFFFFFFFFFFFFFFFFFFFFFFFFFFFFFFFF AND SUB PUSH2 0x3E0 JUMPI PUSH1 0x40 MLOAD PUSH32 0x8C379A000000000000000000000000000000000000000000000000000000000 DUP2 MSTORE PUSH1 0x4 ADD PUSH2 0x3D7 SWAP1 PUSH2 0x796 JUMP JUMPDEST PUSH1 0x40 MLOAD DUP1 SWAP2 SUB SWAP1 REVERT JUMPDEST DUP1 PUSH1 0x1 PUSH0 PUSH2 0x100 EXP DUP2 SLOAD DUP2 PUSH20 0xFFFFFFFFFFFFFFFFFFFFFFFFFFFFFFFFFFFFFFFF MUL NOT AND SWAP1 DUP4 PUSH20 0xFFFFFFFFFFFFFFFFFFFFFFFFFFFFFFFFFFFFFFFF AND MUL OR SWAP1 SSTORE POP DUP1 PUSH20 0xFFFFFFFFFFFFFFFFFFFFFFFFFFFFFFFFFFFFFFFF AND PUSH0 PUSH0 SWAP1 SLOAD SWAP1 PUSH2 0x100 EXP SWAP1 DIV PUSH20 0xFFFFFFFFFFFFFFFFFFFFFFFFFFFFFFFFFFFFFFFF AND PUSH20 0xFFFFFFFFFFFFFFFFFFFFFFFFFFFFFFFFFFFFFFFF AND PUSH32 0xED8889F560326EB138920D842192F0EB3DD22B4F139C87A2C57538E05BAE1278 PUSH1 0x40 MLOAD PUSH1 0x40 MLOAD DUP1 SWAP2 SUB SWAP1 LOG3 POP JUMP JUMPDEST PUSH0 PUSH0 REVERT JUMPDEST PUSH0 PUSH20 0xFFFFFFFFFFFFFFFFFFFFFFFFFFFFFFFFFFFFFFFF DUP3 AND SWAP1 POP SWAP2 SWAP1 POP JUMP JUMPDEST PUSH0 PUSH2 0x4CA DUP3 PUSH2 0x4A1 JUMP JUMPDEST SWAP1 POP SWAP2 SWAP1 POP JUMP JUMPDEST PUSH2 0x4DA DUP2 PUSH2 0x4C0 JUMP JUMPDEST DUP2 EQ PUSH2 0x4E4 JUMPI PUSH0 PUSH0 REVERT JUMPDEST POP JUMP JUMPDEST PUSH0 DUP2 MLOAD SWAP1 POP PUSH2 0x4F5 DUP2 PUSH2 0x4D1 JUMP JUMPDEST SWAP3 SWAP2 POP POP JUMP JUMPDEST PUSH0 PUSH8 0xFFFFFFFFFFFFFFFF DUP3 AND SWAP1 POP SWAP2 SWAP1 POP JUMP JUMPDEST PUSH2 0x517 DUP2 PUSH2 0x4FB JUMP JUMPDEST DUP2 EQ PUSH2 0x521 JUMPI PUSH0 PUSH0 REVERT JUMPDEST POP JUMP JUMPDEST PUSH0 DUP2 MLOAD SWAP1 POP PUSH2 0x532 DUP2 PUSH2 0x50E JUMP JUMPDEST SWAP3 SWAP2 POP POP JUMP JUMPDEST PUSH0 PUSH0 PUSH0 PUSH0 PUSH1 0x80 DUP6 DUP8 SUB SLT ISZERO PUSH2 0x550 JUMPI PUSH2 0x54F PUSH2 0x49D JUMP JUMPDEST JUMPDEST PUSH0 PUSH2 0x55D DUP8 DUP3 DUP9 ADD PUSH2 0x4E7 JUMP JUMPDEST SWAP5 POP POP PUSH1 0x20 PUSH2 0x56E DUP8 DUP3 DUP9 ADD PUSH2 0x4E7 JUMP JUMPDEST SWAP4 POP POP PUSH1 0x40 PUSH2 0x57F DUP8 DUP3 DUP9 ADD PUSH2 0x524 JUMP JUMPDEST SWAP3 POP POP PUSH1 0x60 PUSH2 0x590 DUP8 DUP3 DUP9 ADD PUSH2 0x4E7 JUMP JUMPDEST SWAP2 POP POP SWAP3 SWAP6 SWAP2 SWAP5 POP SWAP3 POP JUMP JUMPDEST PUSH0 DUP3 DUP3 MSTORE PUSH1 0x20 DUP3 ADD SWAP1 POP SWAP3 SWAP2 POP POP JUMP JUMPDEST PUSH32 0x43616E6E6F7420736574206F776E657220746F207A65726F0000000000000000 PUSH0 DUP3 ADD MSTORE POP JUMP JUMPDEST PUSH0 PUSH2 0x5E0 PUSH1 0x18 DUP4 PUSH2 0x59C JUMP JUMPDEST SWAP2 POP PUSH2 0x5EB DUP3 PUSH2 0x5AC JUMP JUMPDEST PUSH1 0x20 DUP3 ADD SWAP1 POP SWAP2 SWAP1 POP JUMP JUMPDEST PUSH0 PUSH1 0x20 DUP3 ADD SWAP1 POP DUP2 DUP2 SUB PUSH0 DUP4 ADD MSTORE PUSH2 0x60D DUP2 PUSH2 0x5D4 JUMP JUMPDEST SWAP1 POP SWAP2 SWAP1 POP JUMP JUMPDEST PUSH32 0x496E76616C696420746F6B656E00000000000000000000000000000000000000 PUSH0 DUP3 ADD MSTORE POP JUMP JUMPDEST PUSH0 PUSH2 0x648 PUSH1 0xD DUP4 PUSH2 0x59C JUMP JUMPDEST SWAP2 POP PUSH2 0x653 DUP3 PUSH2 0x614 JUMP JUMPDEST PUSH1 0x20 DUP3 ADD SWAP1 POP SWAP2 SWAP1 POP JUMP JUMPDEST PUSH0 PUSH1 0x20 DUP3 ADD SWAP1 POP DUP2 DUP2 SUB PUSH0 DUP4 ADD MSTORE PUSH2 0x675 DUP2 PUSH2 0x63C JUMP JUMPDEST SWAP1 POP SWAP2 SWAP1 POP JUMP JUMPDEST PUSH32 0x496E76616C696420707269636520666565640000000000000000000000000000 PUSH0 DUP3 ADD MSTORE POP JUMP JUMPDEST PUSH0 PUSH2 0x6B0 PUSH1 0x12 DUP4 PUSH2 0x59C JUMP JUMPDEST SWAP2 POP PUSH2 0x6BB DUP3 PUSH2 0x67C JUMP JUMPDEST PUSH1 0x20 DUP3 ADD SWAP1 POP SWAP2 SWAP1 POP JUMP JUMPDEST PUSH0 PUSH1 0x20 DUP3 ADD SWAP1 POP DUP2 DUP2 SUB PUSH0 DUP4 ADD MSTORE PUSH2 0x6DD DUP2 PUSH2 0x6A4 JUMP JUMPDEST SWAP1 POP SWAP2 SWAP1 POP JUMP JUMPDEST PUSH32 0x496E76616C696420726F75746572000000000000000000000000000000000000 PUSH0 DUP3 ADD MSTORE POP JUMP JUMPDEST PUSH0 PUSH2 0x718 PUSH1 0xE DUP4 PUSH2 0x59C JUMP JUMPDEST SWAP2 POP PUSH2 0x723 DUP3 PUSH2 0x6E4 JUMP JUMPDEST PUSH1 0x20 DUP3 ADD SWAP1 POP SWAP2 SWAP1 POP JUMP JUMPDEST PUSH0 PUSH1 0x20 DUP3 ADD SWAP1 POP DUP2 DUP2 SUB PUSH0 DUP4 ADD MSTORE PUSH2 0x745 DUP2 PUSH2 0x70C JUMP JUMPDEST SWAP1 POP SWAP2 SWAP1 POP JUMP JUMPDEST PUSH32 0x43616E6E6F74207472616E7366657220746F2073656C66000000000000000000 PUSH0 DUP3 ADD MSTORE POP JUMP JUMPDEST PUSH0 PUSH2 0x780 PUSH1 0x17 DUP4 PUSH2 0x59C JUMP JUMPDEST SWAP2 POP PUSH2 0x78B DUP3 PUSH2 0x74C JUMP JUMPDEST PUSH1 0x20 DUP3 ADD SWAP1 POP SWAP2 SWAP1 POP JUMP JUMPDEST PUSH0 PUSH1 0x20 DUP3 ADD SWAP1 POP DUP2 DUP2 SUB PUSH0 DUP4 ADD MSTORE PUSH2 0x7AD DUP2 PUSH2 0x774 JUMP JUMPDEST SWAP1 POP SWAP2 SWAP1 POP JUMP JUMPDEST PUSH1 0x80 MLOAD PUSH1 0xA0 MLOAD PUSH1 0xC0 MLOAD PUSH1 0xE0 MLOAD PUSH2 0x100 MLOAD PUSH2 0x58FA PUSH2 0x822 PUSH0 CODECOPY PUSH0 PUSH2 0x140B ADD MSTORE PUSH0 DUP2 DUP2 PUSH2 0x344 ADD MSTORE DUP2 DUP2 PUSH2 0x9A4 ADD MSTORE PUSH2 0x12F3 ADD MSTORE PUSH0 DUP2 DUP2 PUSH2 0xB87 ADD MSTORE PUSH2 0x297C ADD MSTORE PUSH0 DUP2 DUP2 PUSH2 0x681 ADD MSTORE DUP2 DUP2 PUSH2 0xD79 ADD MSTORE DUP2 DUP2 PUSH2 0xE89 ADD MSTORE PUSH2 0x1999 ADD MSTORE PUSH0 DUP2 DUP2 PUSH2 0x368 ADD MSTORE PUSH2 0x240C ADD MSTORE PUSH2 0x58FA PUSH0 RETURN INVALID PUSH1 0x80 PUSH1 0x40 MSTORE CALLVALUE DUP1 ISZERO PUSH2 0xF JUMPI PUSH0 PUSH0 REVERT JUMPDEST POP PUSH1 0x4 CALLDATASIZE LT PUSH2 0x11F JUMPI PUSH0 CALLDATALOAD PUSH1 0xE0 SHR DUP1 PUSH4 0x9779EA46 GT PUSH2 0xAB JUMPI DUP1 PUSH4 0xC3865B6C GT PUSH2 0x6F JUMPI DUP1 PUSH4 0xC3865B6C EQ PUSH2 0x2B2 JUMPI DUP1 PUSH4 0xEC4FD914 EQ PUSH2 0x2CE JUMPI DUP1 PUSH4 0xF2FDE38B EQ PUSH2 0x2EA JUMPI DUP1 PUSH4 0xF6D361CC EQ PUSH2 0x306 JUMPI DUP1 PUSH4 0xF887EA40 EQ PUSH2 0x324 JUMPI PUSH2 0x11F JUMP JUMPDEST DUP1 PUSH4 0x9779EA46 EQ PUSH2 0x230 JUMPI DUP1 PUSH4 0xAA1FE14F EQ PUSH2 0x24E JUMPI DUP1 PUSH4 0xB1724B46 EQ PUSH2 0x26C JUMPI DUP1 PUSH4 0xB68E71BF EQ PUSH2 0x28A JUMPI DUP1 PUSH4 0xC320C1B9 EQ PUSH2 0x2A8 JUMPI PUSH2 0x11F JUMP JUMPDEST DUP1 PUSH4 0x431A1B97 GT PUSH2 0xF2 JUMPI DUP1 PUSH4 0x431A1B97 EQ PUSH2 0x197 JUMPI DUP1 PUSH4 0x7416F166 EQ PUSH2 0x1CC JUMPI DUP1 PUSH4 0x741BEF1A EQ PUSH2 0x1EA JUMPI DUP1 PUSH4 0x79BA5097 EQ PUSH2 0x208 JUMPI DUP1 PUSH4 0x8DA5CB5B EQ PUSH2 0x212 JUMPI PUSH2 0x11F JUMP JUMPDEST DUP1 PUSH4 0x9C1BA2E EQ PUSH2 0x123 JUMPI DUP1 PUSH4 0xCA76175 EQ PUSH2 0x141 JUMPI DUP1 PUSH4 0xCDE9F3C EQ PUSH2 0x15D JUMPI DUP1 PUSH4 0x1CA96BED EQ PUSH2 0x17B JUMPI JUMPDEST PUSH0 PUSH0 REVERT JUMPDEST PUSH2 0x12B PUSH2 0x342 JUMP JUMPDEST PUSH1 0x40 MLOAD PUSH2 0x138 SWAP2 SWAP1 PUSH2 0x3517 JUMP JUMPDEST PUSH1 0x40 MLOAD DUP1 SWAP2 SUB SWAP1 RETURN JUMPDEST PUSH2 0x15B PUSH1 0x4 DUP1 CALLDATASIZE SUB DUP2 ADD SWAP1 PUSH2 0x156 SWAP2 SWAP1 PUSH2 0x36B0 JUMP JUMPDEST PUSH2 0x366 JUMP JUMPDEST STOP JUMPDEST PUSH2 0x165 PUSH2 0x428 JUMP JUMPDEST PUSH1 0x40 MLOAD PUSH2 0x172 SWAP2 SWAP1 PUSH2 0x3747 JUMP JUMPDEST PUSH1 0x40 MLOAD DUP1 SWAP2 SUB SWAP1 RETURN JUMPDEST PUSH2 0x195 PUSH1 0x4 DUP1 CALLDATASIZE SUB DUP2 ADD SWAP1 PUSH2 0x190 SWAP2 SWAP1 PUSH2 0x3939 JUMP JUMPDEST PUSH2 0x44C JUMP JUMPDEST STOP JUMPDEST PUSH2 0x1B1 PUSH1 0x4 DUP1 CALLDATASIZE SUB DUP2 ADD SWAP1 PUSH2 0x1AC SWAP2 SWAP1 PUSH2 0x3A0C JUMP JUMPDEST PUSH2 0xA9D JUMP JUMPDEST PUSH1 0x40 MLOAD PUSH2 0x1C3 SWAP7 SWAP6 SWAP5 SWAP4 SWAP3 SWAP2 SWAP1 PUSH2 0x3AE4 JUMP JUMPDEST PUSH1 0x40 MLOAD DUP1 SWAP2 SUB SWAP1 RETURN JUMPDEST PUSH2 0x1D4 PUSH2 0xB80 JUMP JUMPDEST PUSH1 0x40 MLOAD PUSH2 0x1E1 SWAP2 SWAP1 PUSH2 0x3B4A JUMP JUMPDEST PUSH1 0x40 MLOAD DUP1 SWAP2 SUB SWAP1 RETURN JUMPDEST PUSH2 0x1F2 PUSH2 0xB85 JUMP JUMPDEST PUSH1 0x40 MLOAD PUSH2 0x1FF SWAP2 SWAP1 PUSH2 0x3BBE JUMP JUMPDEST PUSH1 0x40 MLOAD DUP1 SWAP2 SUB SWAP1 RETURN JUMPDEST PUSH2 0x210 PUSH2 0xBA9 JUMP JUMPDEST STOP JUMPDEST PUSH2 0x21A PUSH2 0xD38 JUMP JUMPDEST PUSH1 0x40 MLOAD PUSH2 0x227 SWAP2 SWAP1 PUSH2 0x3BE6 JUMP JUMPDEST PUSH1 0x40 MLOAD DUP1 SWAP2 SUB SWAP1 RETURN JUMPDEST PUSH2 0x238 PUSH2 0xD5F JUMP JUMPDEST PUSH1 0x40 MLOAD PUSH2 0x245 SWAP2 SWAP1 PUSH2 0x3C1D JUMP JUMPDEST PUSH1 0x40 MLOAD DUP1 SWAP2 SUB SWAP1 RETURN JUMPDEST PUSH2 0x256 PUSH2 0xD66 JUMP JUMPDEST PUSH1 0x40 MLOAD PUSH2 0x263 SWAP2 SWAP1 PUSH2 0x3C36 JUMP JUMPDEST PUSH1 0x40 MLOAD DUP1 SWAP2 SUB SWAP1 RETURN JUMPDEST PUSH2 0x274 PUSH2 0xD71 JUMP JUMPDEST PUSH1 0x40 MLOAD PUSH2 0x281 SWAP2 SWAP1 PUSH2 0x3C36 JUMP JUMPDEST PUSH1 0x40 MLOAD DUP1 SWAP2 SUB SWAP1 RETURN JUMPDEST PUSH2 0x292 PUSH2 0xD77 JUMP JUMPDEST PUSH1 0x40 MLOAD PUSH2 0x29F SWAP2 SWAP1 PUSH2 0x3C6F JUMP JUMPDEST PUSH1 0x40 MLOAD DUP1 SWAP2 SUB SWAP1 RETURN JUMPDEST PUSH2 0x2B0 PUSH2 0xD9B JUMP JUMPDEST STOP JUMPDEST PUSH2 0x2CC PUSH1 0x4 DUP1 CALLDATASIZE SUB DUP2 ADD SWAP1 PUSH2 0x2C7 SWAP2 SWAP1 PUSH2 0x36B0 JUMP JUMPDEST PUSH2 0xF93 JUMP JUMPDEST STOP JUMPDEST PUSH2 0x2E8 PUSH1 0x4 DUP1 CALLDATASIZE SUB DUP2 ADD SWAP1 PUSH2 0x2E3 SWAP2 SWAP1 PUSH2 0x3CB2 JUMP JUMPDEST PUSH2 0xFAB JUMP JUMPDEST STOP JUMPDEST PUSH2 0x304 PUSH1 0x4 DUP1 CALLDATASIZE SUB DUP2 ADD SWAP1 PUSH2 0x2FF SWAP2 SWAP1 PUSH2 0x3A0C JUMP JUMPDEST PUSH2 0x13EA JUMP JUMPDEST STOP JUMPDEST PUSH2 0x30E PUSH2 0x13FE JUMP JUMPDEST PUSH1 0x40 MLOAD PUSH2 0x31B SWAP2 SWAP1 PUSH2 0x3C36 JUMP JUMPDEST PUSH1 0x40 MLOAD DUP1 SWAP2 SUB SWAP1 RETURN JUMPDEST PUSH2 0x32C PUSH2 0x1409 JUMP JUMPDEST PUSH1 0x40 MLOAD PUSH2 0x339 SWAP2 SWAP1 PUSH2 0x3BE6 JUMP JUMPDEST PUSH1 0x40 MLOAD DUP1 SWAP2 SUB SWAP1 RETURN JUMPDEST PUSH32 0x0 DUP2 JUMP JUMPDEST PUSH32 0x0 PUSH20 0xFFFFFFFFFFFFFFFFFFFFFFFFFFFFFFFFFFFFFFFF AND CALLER PUSH20 0xFFFFFFFFFFFFFFFFFFFFFFFFFFFFFFFFFFFFFFFF AND EQ PUSH2 0x3EB JUMPI PUSH1 0x40 MLOAD PUSH32 0xC6829F8300000000000000000000000000000000000000000000000000000000 DUP2 MSTORE PUSH1 0x4 ADD PUSH1 0x40 MLOAD DUP1 SWAP2 SUB SWAP1 REVERT JUMPDEST PUSH2 0x3F6 DUP4 DUP4 DUP4 PUSH2 0x142D JUMP JUMPDEST DUP3 PUSH32 0x85E1543BF2F84FE80C6BADBCE3648C8539AD1DF4D2B3D822938CA0538BE727E6 PUSH1 0x40 MLOAD PUSH1 0x40 MLOAD DUP1 SWAP2 SUB SWAP1 LOG2 POP POP POP JUMP JUMPDEST PUSH32 0x66756E2D626173652D7365706F6C69612D310000000000000000000000000000 DUP2 JUMP JUMPDEST PUSH2 0x454 PUSH2 0x1A96 JUMP JUMPDEST PUSH1 0x5 DUP4 MLOAD LT ISZERO PUSH2 0x499 JUMPI PUSH1 0x40 MLOAD PUSH32 0x8C379A000000000000000000000000000000000000000000000000000000000 DUP2 MSTORE PUSH1 0x4 ADD PUSH2 0x490 SWAP1 PUSH2 0x3D27 JUMP JUMPDEST PUSH1 0x40 MLOAD DUP1 SWAP2 SUB SWAP1 REVERT JUMPDEST PUSH1 0x40 MLOAD PUSH1 0x20 ADD PUSH2 0x4A8 SWAP1 PUSH2 0x3D99 JUMP JUMPDEST PUSH1 0x40 MLOAD PUSH1 0x20 DUP2 DUP4 SUB SUB DUP2 MSTORE SWAP1 PUSH1 0x40 MSTORE DUP1 MLOAD SWAP1 PUSH1 0x20 ADD KECCAK256 DUP3 DUP3 PUSH1 0x40 MLOAD PUSH1 0x20 ADD PUSH2 0x4D1 SWAP3 SWAP2 SWAP1 PUSH2 0x3DD1 JUMP JUMPDEST PUSH1 0x40 MLOAD PUSH1 0x20 DUP2 DUP4 SUB SUB DUP2 MSTORE SWAP1 PUSH1 0x40 MSTORE DUP1 MLOAD SWAP1 PUSH1 0x20 ADD KECCAK256 EQ DUP1 PUSH2 0x53E JUMPI POP PUSH1 0x40 MLOAD PUSH1 0x20 ADD PUSH2 0x4FD SWAP1 PUSH2 0x3E33 JUMP JUMPDEST PUSH1 0x40 MLOAD PUSH1 0x20 DUP2 DUP4 SUB SUB DUP2 MSTORE SWAP1 PUSH1 0x40 MSTORE DUP1 MLOAD SWAP1 PUSH1 0x20 ADD KECCAK256 DUP3 DUP3 PUSH1 0x40 MLOAD PUSH1 0x20 ADD PUSH2 0x526 SWAP3 SWAP2 SWAP1 PUSH2 0x3DD1 JUMP JUMPDEST PUSH1 0x40 MLOAD PUSH1 0x20 DUP2 DUP4 SUB SUB DUP2 MSTORE SWAP1 PUSH1 0x40 MSTORE DUP1 MLOAD SWAP1 PUSH1 0x20 ADD KECCAK256 EQ JUMPDEST DUP1 PUSH2 0x594 JUMPI POP PUSH1 0x40 MLOAD PUSH1 0x20 ADD PUSH2 0x553 SWAP1 PUSH2 0x3E91 JUMP JUMPDEST PUSH1 0x40 MLOAD PUSH1 0x20 DUP2 DUP4 SUB SUB DUP2 MSTORE SWAP1 PUSH1 0x40 MSTORE DUP1 MLOAD SWAP1 PUSH1 0x20 ADD KECCAK256 DUP3 DUP3 PUSH1 0x40 MLOAD PUSH1 0x20 ADD PUSH2 0x57C SWAP3 SWAP2 SWAP1 PUSH2 0x3DD1 JUMP JUMPDEST PUSH1 0x40 MLOAD PUSH1 0x20 DUP2 DUP4 SUB SUB DUP2 MSTORE SWAP1 PUSH1 0x40 MSTORE DUP1 MLOAD SWAP1 PUSH1 0x20 ADD KECCAK256 EQ JUMPDEST PUSH2 0x5D3 JUMPI PUSH1 0x40 MLOAD PUSH32 0x8C379A000000000000000000000000000000000000000000000000000000000 DUP2 MSTORE PUSH1 0x4 ADD PUSH2 0x5CA SWAP1 PUSH2 0x3EEF JUMP JUMPDEST PUSH1 0x40 MLOAD DUP1 SWAP2 SUB SWAP1 REVERT JUMPDEST PUSH0 PUSH1 0x3 PUSH0 CALLER PUSH20 0xFFFFFFFFFFFFFFFFFFFFFFFFFFFFFFFFFFFFFFFF AND PUSH20 0xFFFFFFFFFFFFFFFFFFFFFFFFFFFFFFFFFFFFFFFF AND DUP2 MSTORE PUSH1 0x20 ADD SWAP1 DUP2 MSTORE PUSH1 0x20 ADD PUSH0 KECCAK256 SWAP1 POP DUP1 PUSH1 0x4 ADD PUSH0 SWAP1 SLOAD SWAP1 PUSH2 0x100 EXP SWAP1 DIV PUSH1 0xFF AND ISZERO DUP1 PUSH2 0x640 JUMPI POP PUSH2 0x1C2 DUP2 PUSH1 0x3 ADD SLOAD PUSH2 0x63D SWAP2 SWAP1 PUSH2 0x3F3A JUMP JUMPDEST TIMESTAMP GT JUMPDEST PUSH2 0x67F JUMPI PUSH1 0x40 MLOAD PUSH32 0x8C379A000000000000000000000000000000000000000000000000000000000 DUP2 MSTORE PUSH1 0x4 ADD PUSH2 0x676 SWAP1 PUSH2 0x3FB7 JUMP JUMPDEST PUSH1 0x40 MLOAD DUP1 SWAP2 SUB SWAP1 REVERT JUMPDEST PUSH32 0x0 PUSH20 0xFFFFFFFFFFFFFFFFFFFFFFFFFFFFFFFFFFFFFFFF AND PUSH4 0x23B872DD CALLER ADDRESS PUSH7 0x2386F26FC10000 PUSH1 0x40 MLOAD DUP5 PUSH4 0xFFFFFFFF AND PUSH1 0xE0 SHL DUP2 MSTORE PUSH1 0x4 ADD PUSH2 0x6E3 SWAP4 SWAP3 SWAP2 SWAP1 PUSH2 0x3FD5 JUMP JUMPDEST PUSH1 0x20 PUSH1 0x40 MLOAD DUP1 DUP4 SUB DUP2 PUSH0 DUP8 GAS CALL ISZERO DUP1 ISZERO PUSH2 0x6FF JUMPI RETURNDATASIZE PUSH0 PUSH0 RETURNDATACOPY RETURNDATASIZE PUSH0 REVERT JUMPDEST POP POP POP POP PUSH1 0x40 MLOAD RETURNDATASIZE PUSH1 0x1F NOT PUSH1 0x1F DUP3 ADD AND DUP3 ADD DUP1 PUSH1 0x40 MSTORE POP DUP2 ADD SWAP1 PUSH2 0x723 SWAP2 SWAP1 PUSH2 0x4034 JUMP JUMPDEST PUSH2 0x762 JUMPI PUSH1 0x40 MLOAD PUSH32 0x8C379A000000000000000000000000000000000000000000000000000000000 DUP2 MSTORE PUSH1 0x4 ADD PUSH2 0x759 SWAP1 PUSH2 0x40A9 JUMP JUMPDEST PUSH1 0x40 MLOAD DUP1 SWAP2 SUB SWAP1 REVERT JUMPDEST PUSH0 PUSH2 0x76D CALLER TIMESTAMP PUSH2 0x1AE3 JUMP JUMPDEST SWAP1 POP PUSH1 0x1 DUP3 PUSH1 0x4 ADD PUSH0 PUSH2 0x100 EXP DUP2 SLOAD DUP2 PUSH1 0xFF MUL NOT AND SWAP1 DUP4 ISZERO ISZERO MUL OR SWAP1 SSTORE POP TIMESTAMP DUP3 PUSH1 0x3 ADD DUP2 SWAP1 SSTORE POP PUSH0 DUP3 PUSH1 0x1 ADD PUSH0 PUSH2 0x100 EXP DUP2 SLOAD DUP2 PUSH1 0xFF MUL NOT AND SWAP1 DUP4 PUSH1 0xFF AND MUL OR SWAP1 SSTORE POP PUSH0 DUP3 PUSH1 0x2 ADD DUP2 SWAP1 SSTORE POP PUSH0 DUP3 PUSH1 0x4 ADD PUSH1 0x1 PUSH2 0x100 EXP DUP2 SLOAD DUP2 PUSH1 0xFF MUL NOT AND SWAP1 DUP4 PUSH1 0xFF AND MUL OR SWAP1 SSTORE POP DUP1 DUP3 PUSH0 ADD SWAP1 DUP2 PUSH2 0x7E6 SWAP2 SWAP1 PUSH2 0x42BB JUMP JUMPDEST POP PUSH2 0x7EF PUSH2 0x344E JUMP JUMPDEST PUSH2 0x809 PUSH2 0x7FA PUSH2 0x1B34 JUMP JUMPDEST DUP3 PUSH2 0x1B57 SWAP1 SWAP2 SWAP1 PUSH4 0xFFFFFFFF AND JUMP JUMPDEST PUSH0 PUSH1 0x6 PUSH8 0xFFFFFFFFFFFFFFFF DUP2 GT ISZERO PUSH2 0x825 JUMPI PUSH2 0x824 PUSH2 0x358C JUMP JUMPDEST JUMPDEST PUSH1 0x40 MLOAD SWAP1 DUP1 DUP3 MSTORE DUP1 PUSH1 0x20 MUL PUSH1 0x20 ADD DUP3 ADD PUSH1 0x40 MSTORE DUP1 ISZERO PUSH2 0x858 JUMPI DUP2 PUSH1 0x20 ADD JUMPDEST PUSH1 0x60 DUP2 MSTORE PUSH1 0x20 ADD SWAP1 PUSH1 0x1 SWAP1 SUB SWAP1 DUP2 PUSH2 0x843 JUMPI SWAP1 POP JUMPDEST POP SWAP1 POP PUSH2 0x864 DUP8 PUSH2 0x1B67 JUMP JUMPDEST DUP2 PUSH0 DUP2 MLOAD DUP2 LT PUSH2 0x877 JUMPI PUSH2 0x876 PUSH2 0x438A JUMP JUMPDEST JUMPDEST PUSH1 0x20 MUL PUSH1 0x20 ADD ADD DUP2 SWAP1 MSTORE POP PUSH2 0x88B CALLER PUSH2 0x1C81 JUMP JUMPDEST DUP2 PUSH1 0x1 DUP2 MLOAD DUP2 LT PUSH2 0x89F JUMPI PUSH2 0x89E PUSH2 0x438A JUMP JUMPDEST JUMPDEST PUSH1 0x20 MUL PUSH1 0x20 ADD ADD DUP2 SWAP1 MSTORE POP PUSH2 0x8B2 PUSH2 0x1F1C JUMP JUMPDEST DUP2 PUSH1 0x2 DUP2 MLOAD DUP2 LT PUSH2 0x8C6 JUMPI PUSH2 0x8C5 PUSH2 0x438A JUMP JUMPDEST JUMPDEST PUSH1 0x20 MUL PUSH1 0x20 ADD ADD DUP2 SWAP1 MSTORE POP PUSH2 0x8D9 PUSH2 0x1F59 JUMP JUMPDEST DUP2 PUSH1 0x3 DUP2 MLOAD DUP2 LT PUSH2 0x8ED JUMPI PUSH2 0x8EC PUSH2 0x438A JUMP JUMPDEST JUMPDEST PUSH1 0x20 MUL PUSH1 0x20 ADD ADD DUP2 SWAP1 MSTORE POP PUSH2 0x900 PUSH2 0x1F79 JUMP JUMPDEST DUP2 PUSH1 0x4 DUP2 MLOAD DUP2 LT PUSH2 0x914 JUMPI PUSH2 0x913 PUSH2 0x438A JUMP JUMPDEST JUMPDEST PUSH1 0x20 MUL PUSH1 0x20 ADD ADD DUP2 SWAP1 MSTORE POP DUP6 DUP6 DUP1 DUP1 PUSH1 0x1F ADD PUSH1 0x20 DUP1 SWAP2 DIV MUL PUSH1 0x20 ADD PUSH1 0x40 MLOAD SWAP1 DUP2 ADD PUSH1 0x40 MSTORE DUP1 SWAP4 SWAP3 SWAP2 SWAP1 DUP2 DUP2 MSTORE PUSH1 0x20 ADD DUP4 DUP4 DUP1 DUP3 DUP5 CALLDATACOPY PUSH0 DUP2 DUP5 ADD MSTORE PUSH1 0x1F NOT PUSH1 0x1F DUP3 ADD AND SWAP1 POP DUP1 DUP4 ADD SWAP3 POP POP POP POP POP POP POP DUP2 PUSH1 0x5 DUP2 MLOAD DUP2 LT PUSH2 0x977 JUMPI PUSH2 0x976 PUSH2 0x438A JUMP JUMPDEST JUMPDEST PUSH1 0x20 MUL PUSH1 0x20 ADD ADD DUP2 SWAP1 MSTORE POP PUSH2 0x995 DUP2 DUP4 PUSH2 0x1FB6 SWAP1 SWAP2 SWAP1 PUSH4 0xFFFFFFFF AND JUMP JUMPDEST PUSH0 PUSH2 0x9ED PUSH2 0x9A2 DUP5 PUSH2 0x1FFD JUMP JUMPDEST PUSH32 0x0 PUSH3 0x7A120 PUSH32 0x66756E2D626173652D7365706F6C69612D310000000000000000000000000000 PUSH2 0x2408 JUMP JUMPDEST SWAP1 POP CALLER PUSH1 0x4 PUSH0 DUP4 DUP2 MSTORE PUSH1 0x20 ADD SWAP1 DUP2 MSTORE PUSH1 0x20 ADD PUSH0 KECCAK256 PUSH0 PUSH2 0x100 EXP DUP2 SLOAD DUP2 PUSH20 0xFFFFFFFFFFFFFFFFFFFFFFFFFFFFFFFFFFFFFFFF MUL NOT AND SWAP1 DUP4 PUSH20 0xFFFFFFFFFFFFFFFFFFFFFFFFFFFFFFFFFFFFFFFF AND MUL OR SWAP1 SSTORE POP CALLER PUSH20 0xFFFFFFFFFFFFFFFFFFFFFFFFFFFFFFFFFFFFFFFF AND PUSH31 0x40A08FF8A2C8DE3747ADD6410EC4F7E6F2F1C30043E8DEE77F0ADAE00B3568 DUP3 PUSH1 0x40 MLOAD PUSH2 0xA83 SWAP2 SWAP1 PUSH2 0x3747 JUMP JUMPDEST PUSH1 0x40 MLOAD DUP1 SWAP2 SUB SWAP1 LOG2 POP POP POP POP POP PUSH2 0xA98 PUSH2 0x24E7 JUMP JUMPDEST POP POP POP JUMP JUMPDEST PUSH1 0x3 PUSH1 0x20 MSTORE DUP1 PUSH0 MSTORE PUSH1 0x40 PUSH0 KECCAK256 PUSH0 SWAP2 POP SWAP1 POP DUP1 PUSH0 ADD DUP1 SLOAD PUSH2 0xABC SWAP1 PUSH2 0x40F4 JUMP JUMPDEST DUP1 PUSH1 0x1F ADD PUSH1 0x20 DUP1 SWAP2 DIV MUL PUSH1 0x20 ADD PUSH1 0x40 MLOAD SWAP1 DUP2 ADD PUSH1 0x40 MSTORE DUP1 SWAP3 SWAP2 SWAP1 DUP2 DUP2 MSTORE PUSH1 0x20 ADD DUP3 DUP1 SLOAD PUSH2 0xAE8 SWAP1 PUSH2 0x40F4 JUMP JUMPDEST DUP1 ISZERO PUSH2 0xB33 JUMPI DUP1 PUSH1 0x1F LT PUSH2 0xB0A JUMPI PUSH2 0x100 DUP1 DUP4 SLOAD DIV MUL DUP4 MSTORE SWAP2 PUSH1 0x20 ADD SWAP2 PUSH2 0xB33 JUMP JUMPDEST DUP3 ADD SWAP2 SWAP1 PUSH0 MSTORE PUSH1 0x20 PUSH0 KECCAK256 SWAP1 JUMPDEST DUP2 SLOAD DUP2 MSTORE SWAP1 PUSH1 0x1 ADD SWAP1 PUSH1 0x20 ADD DUP1 DUP4 GT PUSH2 0xB16 JUMPI DUP3 SWAP1 SUB PUSH1 0x1F AND DUP3 ADD SWAP2 JUMPDEST POP POP POP POP POP SWAP1 DUP1 PUSH1 0x1 ADD PUSH0 SWAP1 SLOAD SWAP1 PUSH2 0x100 EXP SWAP1 DIV PUSH1 0xFF AND SWAP1 DUP1 PUSH1 0x2 ADD SLOAD SWAP1 DUP1 PUSH1 0x3 ADD SLOAD SWAP1 DUP1 PUSH1 0x4 ADD PUSH0 SWAP1 SLOAD SWAP1 PUSH2 0x100 EXP SWAP1 DIV PUSH1 0xFF AND SWAP1 DUP1 PUSH1 0x4 ADD PUSH1 0x1 SWAP1 SLOAD SWAP1 PUSH2 0x100 EXP SWAP1 DIV PUSH1 0xFF AND SWAP1 POP DUP7 JUMP JUMPDEST PUSH1 0xA DUP2 JUMP JUMPDEST PUSH32 0x0 DUP2 JUMP JUMPDEST PUSH1 0x1 PUSH0 SWAP1 SLOAD SWAP1 PUSH2 0x100 EXP SWAP1 DIV PUSH20 0xFFFFFFFFFFFFFFFFFFFFFFFFFFFFFFFFFFFFFFFF AND PUSH20 0xFFFFFFFFFFFFFFFFFFFFFFFFFFFFFFFFFFFFFFFF AND CALLER PUSH20 0xFFFFFFFFFFFFFFFFFFFFFFFFFFFFFFFFFFFFFFFF AND EQ PUSH2 0xC38 JUMPI PUSH1 0x40 MLOAD PUSH32 0x8C379A000000000000000000000000000000000000000000000000000000000 DUP2 MSTORE PUSH1 0x4 ADD PUSH2 0xC2F SWAP1 PUSH2 0x4401 JUMP JUMPDEST PUSH1 0x40 MLOAD DUP1 SWAP2 SUB SWAP1 REVERT JUMPDEST PUSH0 PUSH0 PUSH0 SWAP1 SLOAD SWAP1 PUSH2 0x100 EXP SWAP1 DIV PUSH20 0xFFFFFFFFFFFFFFFFFFFFFFFFFFFFFFFFFFFFFFFF AND SWAP1 POP CALLER PUSH0 PUSH0 PUSH2 0x100 EXP DUP2 SLOAD DUP2 PUSH20 0xFFFFFFFFFFFFFFFFFFFFFFFFFFFFFFFFFFFFFFFF MUL NOT AND SWAP1 DUP4 PUSH20 0xFFFFFFFFFFFFFFFFFFFFFFFFFFFFFFFFFFFFFFFF AND MUL OR SWAP1 SSTORE POP PUSH0 PUSH1 0x1 PUSH0 PUSH2 0x100 EXP DUP2 SLOAD DUP2 PUSH20 0xFFFFFFFFFFFFFFFFFFFFFFFFFFFFFFFFFFFFFFFF MUL NOT AND SWAP1 DUP4 PUSH20 0xFFFFFFFFFFFFFFFFFFFFFFFFFFFFFFFFFFFFFFFF AND MUL OR SWAP1 SSTORE POP CALLER PUSH20 0xFFFFFFFFFFFFFFFFFFFFFFFFFFFFFFFFFFFFFFFF AND DUP2 PUSH20 0xFFFFFFFFFFFFFFFFFFFFFFFFFFFFFFFFFFFFFFFF AND PUSH32 0x8BE0079C531659141344CD1FD0A4F28419497F9722A3DAAFE3B4186F6B6457E0 PUSH1 0x40 MLOAD PUSH1 0x40 MLOAD DUP1 SWAP2 SUB SWAP1 LOG3 POP JUMP JUMPDEST PUSH0 PUSH0 PUSH0 SWAP1 SLOAD SWAP1 PUSH2 0x100 EXP SWAP1 DIV PUSH20 0xFFFFFFFFFFFFFFFFFFFFFFFFFFFFFFFFFFFFFFFF AND SWAP1 POP SWAP1 JUMP JUMPDEST PUSH3 0x7A120 DUP2 JUMP JUMPDEST PUSH7 0xB1A2BC2EC50000 DUP2 JUMP JUMPDEST PUSH2 0x1C2 DUP2 JUMP JUMPDEST PUSH32 0x0 DUP2 JUMP JUMPDEST PUSH2 0xDA3 PUSH2 0x1A96 JUMP JUMPDEST PUSH0 PUSH1 0x3 PUSH0 CALLER PUSH20 0xFFFFFFFFFFFFFFFFFFFFFFFFFFFFFFFFFFFFFFFF AND PUSH20 0xFFFFFFFFFFFFFFFFFFFFFFFFFFFFFFFFFFFFFFFF AND DUP2 MSTORE PUSH1 0x20 ADD SWAP1 DUP2 MSTORE PUSH1 0x20 ADD PUSH0 KECCAK256 SWAP1 POP DUP1 PUSH1 0x4 ADD PUSH0 SWAP1 SLOAD SWAP1 PUSH2 0x100 EXP SWAP1 DIV PUSH1 0xFF AND PUSH2 0xE33 JUMPI PUSH1 0x40 MLOAD PUSH32 0x8C379A000000000000000000000000000000000000000000000000000000000 DUP2 MSTORE PUSH1 0x4 ADD PUSH2 0xE2A SWAP1 PUSH2 0x4469 JUMP JUMPDEST PUSH1 0x40 MLOAD DUP1 SWAP2 SUB SWAP1 REVERT JUMPDEST PUSH2 0x1C2 DUP2 PUSH1 0x3 ADD SLOAD PUSH2 0xE45 SWAP2 SWAP1 PUSH2 0x3F3A JUMP JUMPDEST TIMESTAMP GT ISZERO PUSH2 0xE87 JUMPI PUSH1 0x40 MLOAD PUSH32 0x8C379A000000000000000000000000000000000000000000000000000000000 DUP2 MSTORE PUSH1 0x4 ADD PUSH2 0xE7E SWAP1 PUSH2 0x44D1 JUMP JUMPDEST PUSH1 0x40 MLOAD DUP1 SWAP2 SUB SWAP1 REVERT JUMPDEST PUSH32 0x0 PUSH20 0xFFFFFFFFFFFFFFFFFFFFFFFFFFFFFFFFFFFFFFFF AND PUSH4 0xA9059CBB CALLER PUSH7 0x2386F26FC10000 PUSH1 0x40 MLOAD DUP4 PUSH4 0xFFFFFFFF AND PUSH1 0xE0 SHL DUP2 MSTORE PUSH1 0x4 ADD PUSH2 0xEE9 SWAP3 SWAP2 SWAP1 PUSH2 0x44EF JUMP JUMPDEST PUSH1 0x20 PUSH1 0x40 MLOAD DUP1 DUP4 SUB DUP2 PUSH0 DUP8 GAS CALL ISZERO DUP1 ISZERO PUSH2 0xF05 JUMPI RETURNDATASIZE PUSH0 PUSH0 RETURNDATACOPY RETURNDATASIZE PUSH0 REVERT JUMPDEST POP POP POP POP PUSH1 0x40 MLOAD RETURNDATASIZE PUSH1 0x1F NOT PUSH1 0x1F DUP3 ADD AND DUP3 ADD DUP1 PUSH1 0x40 MSTORE POP DUP2 ADD SWAP1 PUSH2 0xF29 SWAP2 SWAP1 PUSH2 0x4034 JUMP JUMPDEST POP PUSH0 DUP2 PUSH1 0x4 ADD PUSH0 PUSH2 0x100 EXP DUP2 SLOAD DUP2 PUSH1 0xFF MUL NOT AND SWAP1 DUP4 ISZERO ISZERO MUL OR SWAP1 SSTORE POP CALLER PUSH20 0xFFFFFFFFFFFFFFFFFFFFFFFFFFFFFFFFFFFFFFFF AND PUSH32 0xD9EF658E62B2D2EC36EA56E68DB6F49DCB5E7977F243F28354069876AD0B90E4 PUSH1 0x40 MLOAD PUSH1 0x40 MLOAD DUP1 SWAP2 SUB SWAP1 LOG2 POP PUSH2 0xF91 PUSH2 0x24E7 JUMP JUMPDEST JUMP JUMPDEST PUSH2 0xF9B PUSH2 0x24F1 JUMP JUMPDEST PUSH2 0xFA6 DUP4 DUP4 DUP4 PUSH2 0x142D JUMP JUMPDEST POP POP POP JUMP JUMPDEST PUSH2 0xFB3 PUSH2 0x1A96 JUMP JUMPDEST PUSH0 PUSH1 0x3 PUSH0 CALLER PUSH20 0xFFFFFFFFFFFFFFFFFFFFFFFFFFFFFFFFFFFFFFFF AND PUSH20 0xFFFFFFFFFFFFFFFFFFFFFFFFFFFFFFFFFFFFFFFF AND DUP2 MSTORE PUSH1 0x20 ADD SWAP1 DUP2 MSTORE PUSH1 0x20 ADD PUSH0 KECCAK256 SWAP1 POP DUP1 PUSH1 0x4 ADD PUSH0 SWAP1 SLOAD SWAP1 PUSH2 0x100 EXP SWAP1 DIV PUSH1 0xFF AND PUSH2 0x1043 JUMPI PUSH1 0x40 MLOAD PUSH32 0x8C379A000000000000000000000000000000000000000000000000000000000 DUP2 MSTORE PUSH1 0x4 ADD PUSH2 0x103A SWAP1 PUSH2 0x4469 JUMP JUMPDEST PUSH1 0x40 MLOAD DUP1 SWAP2 SUB SWAP1 REVERT JUMPDEST DUP1 PUSH1 0x4 ADD PUSH1 0x1 SWAP1 SLOAD SWAP1 PUSH2 0x100 EXP SWAP1 DIV PUSH1 0xFF AND PUSH1 0xFF AND DUP2 PUSH1 0x1 ADD PUSH0 SWAP1 SLOAD SWAP1 PUSH2 0x100 EXP SWAP1 DIV PUSH1 0xFF AND PUSH1 0xFF AND LT PUSH2 0x10AC JUMPI PUSH1 0x40 MLOAD PUSH32 0x8C379A000000000000000000000000000000000000000000000000000000000 DUP2 MSTORE PUSH1 0x4 ADD PUSH2 0x10A3 SWAP1 PUSH2 0x4560 JUMP JUMPDEST PUSH1 0x40 MLOAD DUP1 SWAP2 SUB SWAP1 REVERT JUMPDEST PUSH2 0x1C2 DUP2 PUSH1 0x3 ADD SLOAD PUSH2 0x10BE SWAP2 SWAP1 PUSH2 0x3F3A JUMP JUMPDEST TIMESTAMP GT ISZERO PUSH2 0x1100 JUMPI PUSH1 0x40 MLOAD PUSH32 0x8C379A000000000000000000000000000000000000000000000000000000000 DUP2 MSTORE PUSH1 0x4 ADD PUSH2 0x10F7 SWAP1 PUSH2 0x44D1 JUMP JUMPDEST PUSH1 0x40 MLOAD DUP1 SWAP2 SUB SWAP1 REVERT JUMPDEST PUSH2 0x1108 PUSH2 0x344E JUMP JUMPDEST PUSH2 0x1122 PUSH2 0x1113 PUSH2 0x2581 JUMP JUMPDEST DUP3 PUSH2 0x1B57 SWAP1 SWAP2 SWAP1 PUSH4 0xFFFFFFFF AND JUMP JUMPDEST PUSH0 PUSH1 0x5 PUSH8 0xFFFFFFFFFFFFFFFF DUP2 GT ISZERO PUSH2 0x113E JUMPI PUSH2 0x113D PUSH2 0x358C JUMP JUMPDEST JUMPDEST PUSH1 0x40 MLOAD SWAP1 DUP1 DUP3 MSTORE DUP1 PUSH1 0x20 MUL PUSH1 0x20 ADD DUP3 ADD PUSH1 0x40 MSTORE DUP1 ISZERO PUSH2 0x1171 JUMPI DUP2 PUSH1 0x20 ADD JUMPDEST PUSH1 0x60 DUP2 MSTORE PUSH1 0x20 ADD SWAP1 PUSH1 0x1 SWAP1 SUB SWAP1 DUP2 PUSH2 0x115C JUMPI SWAP1 POP JUMPDEST POP SWAP1 POP DUP3 PUSH0 ADD DUP1 SLOAD PUSH2 0x1182 SWAP1 PUSH2 0x40F4 JUMP JUMPDEST DUP1 PUSH1 0x1F ADD PUSH1 0x20 DUP1 SWAP2 DIV MUL PUSH1 0x20 ADD PUSH1 0x40 MLOAD SWAP1 DUP2 ADD PUSH1 0x40 MSTORE DUP1 SWAP3 SWAP2 SWAP1 DUP2 DUP2 MSTORE PUSH1 0x20 ADD DUP3 DUP1 SLOAD PUSH2 0x11AE SWAP1 PUSH2 0x40F4 JUMP JUMPDEST DUP1 ISZERO PUSH2 0x11F9 JUMPI DUP1 PUSH1 0x1F LT PUSH2 0x11D0 JUMPI PUSH2 0x100 DUP1 DUP4 SLOAD DIV MUL DUP4 MSTORE SWAP2 PUSH1 0x20 ADD SWAP2 PUSH2 0x11F9 JUMP JUMPDEST DUP3 ADD SWAP2 SWAP1 PUSH0 MSTORE PUSH1 0x20 PUSH0 KECCAK256 SWAP1 JUMPDEST DUP2 SLOAD DUP2 MSTORE SWAP1 PUSH1 0x1 ADD SWAP1 PUSH1 0x20 ADD DUP1 DUP4 GT PUSH2 0x11DC JUMPI DUP3 SWAP1 SUB PUSH1 0x1F AND DUP3 ADD SWAP2 JUMPDEST POP POP POP POP POP DUP2 PUSH0 DUP2 MLOAD DUP2 LT PUSH2 0x1211 JUMPI PUSH2 0x1210 PUSH2 0x438A JUMP JUMPDEST JUMPDEST PUSH1 0x20 MUL PUSH1 0x20 ADD ADD DUP2 SWAP1 MSTORE POP PUSH2 0x1225 CALLER PUSH2 0x1C81 JUMP JUMPDEST DUP2 PUSH1 0x1 DUP2 MLOAD DUP2 LT PUSH2 0x1239 JUMPI PUSH2 0x1238 PUSH2 0x438A JUMP JUMPDEST JUMPDEST PUSH1 0x20 MUL PUSH1 0x20 ADD ADD DUP2 SWAP1 MSTORE POP PUSH2 0x1260 DUP4 PUSH1 0x1 ADD PUSH0 SWAP1 SLOAD SWAP1 PUSH2 0x100 EXP SWAP1 DIV PUSH1 0xFF AND PUSH1 0xFF AND PUSH2 0x25A4 JUMP JUMPDEST DUP2 PUSH1 0x2 DUP2 MLOAD DUP2 LT PUSH2 0x1274 JUMPI PUSH2 0x1273 PUSH2 0x438A JUMP JUMPDEST JUMPDEST PUSH1 0x20 MUL PUSH1 0x20 ADD ADD DUP2 SWAP1 MSTORE POP PUSH2 0x128B DUP5 PUSH1 0xFF AND PUSH2 0x25A4 JUMP JUMPDEST DUP2 PUSH1 0x3 DUP2 MLOAD DUP2 LT PUSH2 0x129F JUMPI PUSH2 0x129E PUSH2 0x438A JUMP JUMPDEST JUMPDEST PUSH1 0x20 MUL PUSH1 0x20 ADD ADD DUP2 SWAP1 MSTORE POP PUSH2 0x12B2 PUSH2 0x1F59 JUMP JUMPDEST DUP2 PUSH1 0x4 DUP2 MLOAD DUP2 LT PUSH2 0x12C6 JUMPI PUSH2 0x12C5 PUSH2 0x438A JUMP JUMPDEST JUMPDEST PUSH1 0x20 MUL PUSH1 0x20 ADD ADD DUP2 SWAP1 MSTORE POP PUSH2 0x12E4 DUP2 DUP4 PUSH2 0x1FB6 SWAP1 SWAP2 SWAP1 PUSH4 0xFFFFFFFF AND JUMP JUMPDEST PUSH0 PUSH2 0x133C PUSH2 0x12F1 DUP5 PUSH2 0x1FFD JUMP JUMPDEST PUSH32 0x0 PUSH3 0x7A120 PUSH32 0x66756E2D626173652D7365706F6C69612D310000000000000000000000000000 PUSH2 0x2408 JUMP JUMPDEST SWAP1 POP CALLER PUSH1 0x4 PUSH0 DUP4 DUP2 MSTORE PUSH1 0x20 ADD SWAP1 DUP2 MSTORE PUSH1 0x20 ADD PUSH0 KECCAK256 PUSH0 PUSH2 0x100 EXP DUP2 SLOAD DUP2 PUSH20 0xFFFFFFFFFFFFFFFFFFFFFFFFFFFFFFFFFFFFFFFF MUL NOT AND SWAP1 DUP4 PUSH20 0xFFFFFFFFFFFFFFFFFFFFFFFFFFFFFFFFFFFFFFFF AND MUL OR SWAP1 SSTORE POP CALLER PUSH20 0xFFFFFFFFFFFFFFFFFFFFFFFFFFFFFFFFFFFFFFFF AND PUSH32 0xFE53552C44193345FCDB414850B39531BC6809B125E345B838A108231CBEF415 DUP3 PUSH1 0x40 MLOAD PUSH2 0x13D3 SWAP2 SWAP1 PUSH2 0x3747 JUMP JUMPDEST PUSH1 0x40 MLOAD DUP1 SWAP2 SUB SWAP1 LOG2 POP POP POP POP PUSH2 0x13E7 PUSH2 0x24E7 JUMP JUMPDEST POP JUMP JUMPDEST PUSH2 0x13F2 PUSH2 0x24F1 JUMP JUMPDEST PUSH2 0x13FB DUP2 PUSH2 0x26FC JUMP JUMPDEST POP JUMP JUMPDEST PUSH7 0x2386F26FC10000 DUP2 JUMP JUMPDEST PUSH32 0x0 DUP2 JUMP JUMPDEST PUSH0 PUSH1 0x4 PUSH0 DUP6 DUP2 MSTORE PUSH1 0x20 ADD SWAP1 DUP2 MSTORE PUSH1 0x20 ADD PUSH0 KECCAK256 PUSH0 SWAP1 SLOAD SWAP1 PUSH2 0x100 EXP SWAP1 DIV PUSH20 0xFFFFFFFFFFFFFFFFFFFFFFFFFFFFFFFFFFFFFFFF AND SWAP1 POP PUSH0 PUSH20 0xFFFFFFFFFFFFFFFFFFFFFFFFFFFFFFFFFFFFFFFF AND DUP2 PUSH20 0xFFFFFFFFFFFFFFFFFFFFFFFFFFFFFFFFFFFFFFFF AND SUB PUSH2 0x14CF JUMPI PUSH1 0x40 MLOAD PUSH32 0x8C379A000000000000000000000000000000000000000000000000000000000 DUP2 MSTORE PUSH1 0x4 ADD PUSH2 0x14C6 SWAP1 PUSH2 0x45C8 JUMP JUMPDEST PUSH1 0x40 MLOAD DUP1 SWAP2 SUB SWAP1 REVERT JUMPDEST PUSH0 PUSH1 0x3 PUSH0 DUP4 PUSH20 0xFFFFFFFFFFFFFFFFFFFFFFFFFFFFFFFFFFFFFFFF AND PUSH20 0xFFFFFFFFFFFFFFFFFFFFFFFFFFFFFFFFFFFFFFFF AND DUP2 MSTORE PUSH1 0x20 ADD SWAP1 DUP2 MSTORE PUSH1 0x20 ADD PUSH0 KECCAK256 SWAP1 POP DUP1 PUSH1 0x4 ADD PUSH0 SWAP1 SLOAD SWAP1 PUSH2 0x100 EXP SWAP1 DIV PUSH1 0xFF AND PUSH2 0x155F JUMPI PUSH1 0x40 MLOAD PUSH32 0x8C379A000000000000000000000000000000000000000000000000000000000 DUP2 MSTORE PUSH1 0x4 ADD PUSH2 0x1556 SWAP1 PUSH2 0x4630 JUMP JUMPDEST PUSH1 0x40 MLOAD DUP1 SWAP2 SUB SWAP1 REVERT JUMPDEST PUSH1 0x4 PUSH0 DUP7 DUP2 MSTORE PUSH1 0x20 ADD SWAP1 DUP2 MSTORE PUSH1 0x20 ADD PUSH0 KECCAK256 PUSH0 PUSH2 0x100 EXP DUP2 SLOAD SWAP1 PUSH20 0xFFFFFFFFFFFFFFFFFFFFFFFFFFFFFFFFFFFFFFFF MUL NOT AND SWAP1 SSTORE DUP5 PUSH32 0xACAA717AF134F780A4708EB8D27244FEE7ECBBBB96C882A85F0E6DAAB69BE0D5 DUP6 DUP6 PUSH1 0x40 MLOAD PUSH2 0x15C4 SWAP3 SWAP2 SWAP1 PUSH2 0x46A0 JUMP JUMPDEST PUSH1 0x40 MLOAD DUP1 SWAP2 SUB SWAP1 LOG2 PUSH0 DUP4 MLOAD GT ISZERO PUSH2 0x1631 JUMPI DUP3 PUSH1 0x40 MLOAD PUSH1 0x20 ADD PUSH2 0x15E6 SWAP2 SWAP1 PUSH2 0x4759 JUMP JUMPDEST PUSH1 0x40 MLOAD PUSH1 0x20 DUP2 DUP4 SUB SUB DUP2 MSTORE SWAP1 PUSH1 0x40 MSTORE PUSH1 0x40 MLOAD PUSH32 0x8C379A000000000000000000000000000000000000000000000000000000000 DUP2 MSTORE PUSH1 0x4 ADD PUSH2 0x1628 SWAP2 SWAP1 PUSH2 0x477A JUMP JUMPDEST PUSH1 0x40 MLOAD DUP1 SWAP2 SUB SWAP1 REVERT JUMPDEST PUSH0 DUP2 PUSH1 0x4 ADD PUSH1 0x1 SWAP1 SLOAD SWAP1 PUSH2 0x100 EXP SWAP1 DIV PUSH1 0xFF AND PUSH1 0xFF AND SUB PUSH2 0x17FA JUMPI PUSH0 PUSH0 PUSH2 0x1657 DUP7 PUSH2 0x2827 JUMP JUMPDEST SWAP2 POP SWAP2 POP PUSH1 0xA PUSH1 0xFF AND DUP2 GT ISZERO PUSH2 0x16A2 JUMPI PUSH1 0x40 MLOAD PUSH32 0x8C379A000000000000000000000000000000000000000000000000000000000 DUP2 MSTORE PUSH1 0x4 ADD PUSH2 0x1699 SWAP1 PUSH2 0x47E4 JUMP JUMPDEST PUSH1 0x40 MLOAD DUP1 SWAP2 SUB SWAP1 REVERT JUMPDEST PUSH0 DUP3 MLOAD GT PUSH2 0x16E5 JUMPI PUSH1 0x40 MLOAD PUSH32 0x8C379A000000000000000000000000000000000000000000000000000000000 DUP2 MSTORE PUSH1 0x4 ADD PUSH2 0x16DC SWAP1 PUSH2 0x484C JUMP JUMPDEST PUSH1 0x40 MLOAD DUP1 SWAP2 SUB SWAP1 REVERT JUMPDEST DUP3 PUSH0 ADD PUSH1 0x40 MLOAD PUSH1 0x20 ADD PUSH2 0x16F8 SWAP2 SWAP1 PUSH2 0x48EA JUMP JUMPDEST PUSH1 0x40 MLOAD PUSH1 0x20 DUP2 DUP4 SUB SUB DUP2 MSTORE SWAP1 PUSH1 0x40 MSTORE DUP1 MLOAD SWAP1 PUSH1 0x20 ADD KECCAK256 DUP3 PUSH1 0x40 MLOAD PUSH1 0x20 ADD PUSH2 0x171F SWAP2 SWAP1 PUSH2 0x4930 JUMP JUMPDEST PUSH1 0x40 MLOAD PUSH1 0x20 DUP2 DUP4 SUB SUB DUP2 MSTORE SWAP1 PUSH1 0x40 MSTORE DUP1 MLOAD SWAP1 PUSH1 0x20 ADD KECCAK256 EQ PUSH2 0x1775 JUMPI PUSH1 0x40 MLOAD PUSH32 0x8C379A000000000000000000000000000000000000000000000000000000000 DUP2 MSTORE PUSH1 0x4 ADD PUSH2 0x176C SWAP1 PUSH2 0x4990 JUMP JUMPDEST PUSH1 0x40 MLOAD DUP1 SWAP2 SUB SWAP1 REVERT JUMPDEST DUP1 DUP4 PUSH1 0x4 ADD PUSH1 0x1 PUSH2 0x100 EXP DUP2 SLOAD DUP2 PUSH1 0xFF MUL NOT AND SWAP1 DUP4 PUSH1 0xFF AND MUL OR SWAP1 SSTORE POP DUP4 PUSH20 0xFFFFFFFFFFFFFFFFFFFFFFFFFFFFFFFFFFFFFFFF AND PUSH32 0x24BB3705C7AD2A404FD0ED31143A60AC9C3ACF33C50E13C6FFD8D47330C6D9F3 DUP4 DUP6 PUSH1 0x4 ADD PUSH1 0x1 SWAP1 SLOAD SWAP1 PUSH2 0x100 EXP SWAP1 DIV PUSH1 0xFF AND PUSH1 0x40 MLOAD PUSH2 0x17EB SWAP3 SWAP2 SWAP1 PUSH2 0x49AE JUMP JUMPDEST PUSH1 0x40 MLOAD DUP1 SWAP2 SUB SWAP1 LOG2 POP POP PUSH2 0x1A8F JUMP JUMPDEST PUSH0 DUP5 MLOAD GT PUSH2 0x183D JUMPI PUSH1 0x40 MLOAD PUSH32 0x8C379A000000000000000000000000000000000000000000000000000000000 DUP2 MSTORE PUSH1 0x4 ADD PUSH2 0x1834 SWAP1 PUSH2 0x4A26 JUMP JUMPDEST PUSH1 0x40 MLOAD DUP1 SWAP2 SUB SWAP1 REVERT JUMPDEST PUSH0 PUSH1 0x31 DUP6 PUSH0 DUP2 MLOAD DUP2 LT PUSH2 0x1853 JUMPI PUSH2 0x1852 PUSH2 0x438A JUMP JUMPDEST JUMPDEST PUSH1 0x20 ADD ADD MLOAD PUSH1 0xF8 SHR PUSH1 0xF8 SHL PUSH1 0xF8 SHR PUSH1 0xFF AND EQ SWAP1 POP DUP1 ISZERO PUSH2 0x1887 JUMPI DUP2 PUSH1 0x2 ADD PUSH0 DUP2 SLOAD DUP1 SWAP3 SWAP2 SWAP1 PUSH2 0x1881 SWAP1 PUSH2 0x4A44 JUMP JUMPDEST SWAP2 SWAP1 POP SSTORE POP JUMPDEST DUP3 PUSH20 0xFFFFFFFFFFFFFFFFFFFFFFFFFFFFFFFFFFFFFFFF AND PUSH32 0x718B4E7FA380ADC3868ADD3B0F2B8E35C61335E0AFBC69549D60F0CF3C2F7CDE DUP3 DUP5 PUSH1 0x1 ADD PUSH0 SWAP1 SLOAD SWAP1 PUSH2 0x100 EXP SWAP1 DIV PUSH1 0xFF AND PUSH1 0x40 MLOAD PUSH2 0x18DF SWAP3 SWAP2 SWAP1 PUSH2 0x4A8B JUMP JUMPDEST PUSH1 0x40 MLOAD DUP1 SWAP2 SUB SWAP1 LOG2 DUP2 PUSH1 0x1 ADD PUSH0 DUP2 DUP2 SWAP1 SLOAD SWAP1 PUSH2 0x100 EXP SWAP1 DIV PUSH1 0xFF AND DUP1 SWAP3 SWAP2 SWAP1 PUSH2 0x1907 SWAP1 PUSH2 0x4AB2 JUMP JUMPDEST SWAP2 SWAP1 PUSH2 0x100 EXP DUP2 SLOAD DUP2 PUSH1 0xFF MUL NOT AND SWAP1 DUP4 PUSH1 0xFF AND MUL OR SWAP1 SSTORE POP POP DUP2 PUSH1 0x4 ADD PUSH1 0x1 SWAP1 SLOAD SWAP1 PUSH2 0x100 EXP SWAP1 DIV PUSH1 0xFF AND PUSH1 0xFF AND DUP3 PUSH1 0x1 ADD PUSH0 SWAP1 SLOAD SWAP1 PUSH2 0x100 EXP SWAP1 DIV PUSH1 0xFF AND PUSH1 0xFF AND LT PUSH2 0x1A8D JUMPI PUSH0 DUP3 PUSH1 0x4 ADD PUSH0 PUSH2 0x100 EXP DUP2 SLOAD DUP2 PUSH1 0xFF MUL NOT AND SWAP1 DUP4 ISZERO ISZERO MUL OR SWAP1 SSTORE POP PUSH0 PUSH7 0xB1A2BC2EC50000 DUP4 PUSH1 0x2 ADD SLOAD PUSH2 0x1981 SWAP2 SWAP1 PUSH2 0x4ADA JUMP JUMPDEST SWAP1 POP PUSH0 PUSH2 0x198D DUP3 PUSH2 0x2978 JUMP JUMPDEST SWAP1 POP PUSH0 DUP3 GT ISZERO PUSH2 0x1A34 JUMPI PUSH32 0x0 PUSH20 0xFFFFFFFFFFFFFFFFFFFFFFFFFFFFFFFFFFFFFFFF AND PUSH4 0xA9059CBB DUP7 DUP5 PUSH1 0x40 MLOAD DUP4 PUSH4 0xFFFFFFFF AND PUSH1 0xE0 SHL DUP2 MSTORE PUSH1 0x4 ADD PUSH2 0x19F2 SWAP3 SWAP2 SWAP1 PUSH2 0x44EF JUMP JUMPDEST PUSH1 0x20 PUSH1 0x40 MLOAD DUP1 DUP4 SUB DUP2 PUSH0 DUP8 GAS CALL ISZERO DUP1 ISZERO PUSH2 0x1A0E JUMPI RETURNDATASIZE PUSH0 PUSH0 RETURNDATACOPY RETURNDATASIZE PUSH0 REVERT JUMPDEST POP POP POP POP PUSH1 0x40 MLOAD RETURNDATASIZE PUSH1 0x1F NOT PUSH1 0x1F DUP3 ADD AND DUP3 ADD DUP1 PUSH1 0x40 MSTORE POP DUP2 ADD SWAP1 PUSH2 0x1A32 SWAP2 SWAP1 PUSH2 0x4034 JUMP JUMPDEST POP JUMPDEST DUP5 PUSH20 0xFFFFFFFFFFFFFFFFFFFFFFFFFFFFFFFFFFFFFFFF AND PUSH32 0xA0D4582659E33EBF7E1E80B7FD9C16D821A7F74598C47A09F3B891B428E268CB DUP6 PUSH1 0x2 ADD SLOAD DUP5 DUP5 PUSH1 0x40 MLOAD PUSH2 0x1A82 SWAP4 SWAP3 SWAP2 SWAP1 PUSH2 0x4B1B JUMP JUMPDEST PUSH1 0x40 MLOAD DUP1 SWAP2 SUB SWAP1 LOG2 POP POP JUMPDEST POP JUMPDEST POP POP POP POP POP JUMP JUMPDEST PUSH1 0x2 DUP1 SLOAD SUB PUSH2 0x1ADA JUMPI PUSH1 0x40 MLOAD PUSH32 0x8C379A000000000000000000000000000000000000000000000000000000000 DUP2 MSTORE PUSH1 0x4 ADD PUSH2 0x1AD1 SWAP1 PUSH2 0x4B9A JUMP JUMPDEST PUSH1 0x40 MLOAD DUP1 SWAP2 SUB SWAP1 REVERT JUMPDEST PUSH1 0x2 DUP1 DUP2 SWAP1 SSTORE POP JUMP JUMPDEST PUSH1 0x60 PUSH0 DUP4 DUP4 PUSH1 0x40 MLOAD PUSH1 0x20 ADD PUSH2 0x1AF9 SWAP3 SWAP2 SWAP1 PUSH2 0x4C1D JUMP JUMPDEST PUSH1 0x40 MLOAD PUSH1 0x20 DUP2 DUP4 SUB SUB DUP2 MSTORE SWAP1 PUSH1 0x40 MSTORE DUP1 MLOAD SWAP1 PUSH1 0x20 ADD KECCAK256 SWAP1 POP PUSH2 0x1B2B PUSH4 0x5F5E100 DUP3 PUSH0 SHR PUSH2 0x1B26 SWAP2 SWAP1 PUSH2 0x4C75 JUMP JUMPDEST PUSH2 0x2A76 JUMP JUMPDEST SWAP2 POP POP SWAP3 SWAP2 POP POP JUMP JUMPDEST PUSH1 0x60 PUSH1 0x40 MLOAD DUP1 PUSH2 0x2C0 ADD PUSH1 0x40 MSTORE DUP1 PUSH2 0x290 DUP2 MSTORE PUSH1 0x20 ADD PUSH2 0x5635 PUSH2 0x290 SWAP2 CODECOPY SWAP1 POP SWAP1 JUMP JUMPDEST PUSH2 0x1B63 DUP3 PUSH0 PUSH0 DUP5 PUSH2 0x2C2D JUMP JUMPDEST POP POP JUMP JUMPDEST PUSH1 0x60 PUSH0 PUSH1 0x40 MLOAD DUP1 PUSH1 0x40 ADD PUSH1 0x40 MSTORE DUP1 PUSH1 0x1 DUP2 MSTORE PUSH1 0x20 ADD PUSH32 0x5B00000000000000000000000000000000000000000000000000000000000000 DUP2 MSTORE POP SWAP1 POP PUSH0 JUMPDEST DUP4 MLOAD DUP2 LT ISZERO PUSH2 0x1C58 JUMPI DUP2 DUP5 DUP3 DUP2 MLOAD DUP2 LT PUSH2 0x1BC1 JUMPI PUSH2 0x1BC0 PUSH2 0x438A JUMP JUMPDEST JUMPDEST PUSH1 0x20 MUL PUSH1 0x20 ADD ADD MLOAD PUSH1 0x1 DUP7 MLOAD PUSH2 0x1BD7 SWAP2 SWAP1 PUSH2 0x4CA5 JUMP JUMPDEST DUP4 LT PUSH2 0x1BF1 JUMPI PUSH1 0x40 MLOAD DUP1 PUSH1 0x20 ADD PUSH1 0x40 MSTORE DUP1 PUSH0 DUP2 MSTORE POP PUSH2 0x1C28 JUMP JUMPDEST PUSH1 0x40 MLOAD DUP1 PUSH1 0x40 ADD PUSH1 0x40 MSTORE DUP1 PUSH1 0x1 DUP2 MSTORE PUSH1 0x20 ADD PUSH32 0x2C00000000000000000000000000000000000000000000000000000000000000 DUP2 MSTORE POP JUMPDEST PUSH1 0x40 MLOAD PUSH1 0x20 ADD PUSH2 0x1C3A SWAP4 SWAP3 SWAP2 SWAP1 PUSH2 0x4D22 JUMP JUMPDEST PUSH1 0x40 MLOAD PUSH1 0x20 DUP2 DUP4 SUB SUB DUP2 MSTORE SWAP1 PUSH1 0x40 MSTORE SWAP2 POP DUP1 DUP1 PUSH1 0x1 ADD SWAP2 POP POP PUSH2 0x1BA4 JUMP JUMPDEST POP DUP1 PUSH1 0x40 MLOAD PUSH1 0x20 ADD PUSH2 0x1C6A SWAP2 SWAP1 PUSH2 0x4DB2 JUMP JUMPDEST PUSH1 0x40 MLOAD PUSH1 0x20 DUP2 DUP4 SUB SUB DUP2 MSTORE SWAP1 PUSH1 0x40 MSTORE SWAP2 POP POP SWAP2 SWAP1 POP JUMP JUMPDEST PUSH1 0x60 PUSH0 PUSH1 0x40 MLOAD DUP1 PUSH1 0x40 ADD PUSH1 0x40 MSTORE DUP1 PUSH1 0x10 DUP2 MSTORE PUSH1 0x20 ADD PUSH32 0x3031323334353637383961626364656600000000000000000000000000000000 DUP2 MSTORE POP SWAP1 POP PUSH0 PUSH1 0x2A PUSH8 0xFFFFFFFFFFFFFFFF DUP2 GT ISZERO PUSH2 0x1CD8 JUMPI PUSH2 0x1CD7 PUSH2 0x358C JUMP JUMPDEST JUMPDEST PUSH1 0x40 MLOAD SWAP1 DUP1 DUP3 MSTORE DUP1 PUSH1 0x1F ADD PUSH1 0x1F NOT AND PUSH1 0x20 ADD DUP3 ADD PUSH1 0x40 MSTORE DUP1 ISZERO PUSH2 0x1D0A JUMPI DUP2 PUSH1 0x20 ADD PUSH1 0x1 DUP3 MUL DUP1 CALLDATASIZE DUP4 CALLDATACOPY DUP1 DUP3 ADD SWAP2 POP POP SWAP1 POP JUMPDEST POP SWAP1 POP PUSH32 0x3000000000000000000000000000000000000000000000000000000000000000 DUP2 PUSH0 DUP2 MLOAD DUP2 LT PUSH2 0x1D41 JUMPI PUSH2 0x1D40 PUSH2 0x438A JUMP JUMPDEST JUMPDEST PUSH1 0x20 ADD ADD SWAP1 PUSH31 0xFFFFFFFFFFFFFFFFFFFFFFFFFFFFFFFFFFFFFFFFFFFFFFFFFFFFFFFFFFFFFF NOT AND SWAP1 DUP2 PUSH0 BYTE SWAP1 MSTORE8 POP PUSH32 0x7800000000000000000000000000000000000000000000000000000000000000 DUP2 PUSH1 0x1 DUP2 MLOAD DUP2 LT PUSH2 0x1DA4 JUMPI PUSH2 0x1DA3 PUSH2 0x438A JUMP JUMPDEST JUMPDEST PUSH1 0x20 ADD ADD SWAP1 PUSH31 0xFFFFFFFFFFFFFFFFFFFFFFFFFFFFFFFFFFFFFFFFFFFFFFFFFFFFFFFFFFFFFF NOT AND SWAP1 DUP2 PUSH0 BYTE SWAP1 MSTORE8 POP PUSH0 DUP5 PUSH1 0x60 SHL SWAP1 POP PUSH0 PUSH0 SWAP1 POP JUMPDEST PUSH1 0x14 DUP2 LT ISZERO PUSH2 0x1F10 JUMPI PUSH0 DUP3 DUP3 PUSH1 0x14 DUP2 LT PUSH2 0x1DFB JUMPI PUSH2 0x1DFA PUSH2 0x438A JUMP JUMPDEST JUMPDEST BYTE PUSH1 0xF8 SHL PUSH1 0xF8 SHR SWAP1 POP DUP5 PUSH1 0x4 DUP3 PUSH1 0xFF AND SWAP1 SHR PUSH1 0xFF AND DUP2 MLOAD DUP2 LT PUSH2 0x1E21 JUMPI PUSH2 0x1E20 PUSH2 0x438A JUMP JUMPDEST JUMPDEST PUSH1 0x20 ADD ADD MLOAD PUSH1 0xF8 SHR PUSH1 0xF8 SHL DUP5 PUSH1 0x2 DUP5 PUSH2 0x1E3A SWAP2 SWAP1 PUSH2 0x4ADA JUMP JUMPDEST PUSH1 0x2 PUSH2 0x1E46 SWAP2 SWAP1 PUSH2 0x3F3A JUMP JUMPDEST DUP2 MLOAD DUP2 LT PUSH2 0x1E57 JUMPI PUSH2 0x1E56 PUSH2 0x438A JUMP JUMPDEST JUMPDEST PUSH1 0x20 ADD ADD SWAP1 PUSH31 0xFFFFFFFFFFFFFFFFFFFFFFFFFFFFFFFFFFFFFFFFFFFFFFFFFFFFFFFFFFFFFF NOT AND SWAP1 DUP2 PUSH0 BYTE SWAP1 MSTORE8 POP DUP5 PUSH1 0xF DUP3 AND PUSH1 0xFF AND DUP2 MLOAD DUP2 LT PUSH2 0x1E9E JUMPI PUSH2 0x1E9D PUSH2 0x438A JUMP JUMPDEST JUMPDEST PUSH1 0x20 ADD ADD MLOAD PUSH1 0xF8 SHR PUSH1 0xF8 SHL DUP5 PUSH1 0x2 DUP5 PUSH2 0x1EB7 SWAP2 SWAP1 PUSH2 0x4ADA JUMP JUMPDEST PUSH1 0x3 PUSH2 0x1EC3 SWAP2 SWAP1 PUSH2 0x3F3A JUMP JUMPDEST DUP2 MLOAD DUP2 LT PUSH2 0x1ED4 JUMPI PUSH2 0x1ED3 PUSH2 0x438A JUMP JUMPDEST JUMPDEST PUSH1 0x20 ADD ADD SWAP1 PUSH31 0xFFFFFFFFFFFFFFFFFFFFFFFFFFFFFFFFFFFFFFFFFFFFFFFFFFFFFFFFFFFFFF NOT AND SWAP1 DUP2 PUSH0 BYTE SWAP1 MSTORE8 POP POP DUP1 DUP1 PUSH1 0x1 ADD SWAP2 POP POP PUSH2 0x1DDE JUMP JUMPDEST POP DUP2 SWAP4 POP POP POP POP SWAP2 SWAP1 POP JUMP JUMPDEST PUSH1 0x60 PUSH1 0x40 MLOAD DUP1 PUSH1 0x40 ADD PUSH1 0x40 MSTORE DUP1 PUSH1 0x15 DUP2 MSTORE PUSH1 0x20 ADD PUSH32 0x687474703A2F2F6C6F63616C686F73743A353030300000000000000000000000 DUP2 MSTORE POP SWAP1 POP SWAP1 JUMP JUMPDEST PUSH1 0x60 PUSH1 0x40 MLOAD DUP1 PUSH1 0x60 ADD PUSH1 0x40 MSTORE DUP1 PUSH1 0x28 DUP2 MSTORE PUSH1 0x20 ADD PUSH2 0x543B PUSH1 0x28 SWAP2 CODECOPY SWAP1 POP SWAP1 JUMP JUMPDEST PUSH1 0x60 PUSH1 0x40 MLOAD DUP1 PUSH1 0x40 ADD PUSH1 0x40 MSTORE DUP1 PUSH1 0x7 DUP2 MSTORE PUSH1 0x20 ADD PUSH32 0x5175697A7A657300000000000000000000000000000000000000000000000000 DUP2 MSTORE POP SWAP1 POP SWAP1 JUMP JUMPDEST PUSH0 DUP2 MLOAD SUB PUSH2 0x1FF0 JUMPI PUSH1 0x40 MLOAD PUSH32 0xFE936CB700000000000000000000000000000000000000000000000000000000 DUP2 MSTORE PUSH1 0x4 ADD PUSH1 0x40 MLOAD DUP1 SWAP2 SUB SWAP1 REVERT JUMPDEST DUP1 DUP3 PUSH1 0xA0 ADD DUP2 SWAP1 MSTORE POP POP POP JUMP JUMPDEST PUSH1 0x60 PUSH0 PUSH2 0x200B PUSH2 0x100 PUSH2 0x2CD3 JUMP JUMPDEST SWAP1 POP PUSH2 0x2055 PUSH1 0x40 MLOAD DUP1 PUSH1 0x40 ADD PUSH1 0x40 MSTORE DUP1 PUSH1 0xC DUP2 MSTORE PUSH1 0x20 ADD PUSH32 0x636F64654C6F636174696F6E0000000000000000000000000000000000000000 DUP2 MSTORE POP DUP3 PUSH2 0x2CF8 SWAP1 SWAP2 SWAP1 PUSH4 0xFFFFFFFF AND JUMP JUMPDEST PUSH2 0x207D DUP4 PUSH0 ADD MLOAD PUSH1 0x2 DUP2 GT ISZERO PUSH2 0x206E JUMPI PUSH2 0x206D PUSH2 0x4DD3 JUMP JUMPDEST JUMPDEST DUP3 PUSH2 0x2D20 SWAP1 SWAP2 SWAP1 PUSH4 0xFFFFFFFF AND JUMP JUMPDEST PUSH2 0x20C5 PUSH1 0x40 MLOAD DUP1 PUSH1 0x40 ADD PUSH1 0x40 MSTORE DUP1 PUSH1 0x8 DUP2 MSTORE PUSH1 0x20 ADD PUSH32 0x6C616E6775616765000000000000000000000000000000000000000000000000 DUP2 MSTORE POP DUP3 PUSH2 0x2CF8 SWAP1 SWAP2 SWAP1 PUSH4 0xFFFFFFFF AND JUMP JUMPDEST PUSH2 0x20ED DUP4 PUSH1 0x40 ADD MLOAD PUSH0 DUP2 GT ISZERO PUSH2 0x20DE JUMPI PUSH2 0x20DD PUSH2 0x4DD3 JUMP JUMPDEST JUMPDEST DUP3 PUSH2 0x2D20 SWAP1 SWAP2 SWAP1 PUSH4 0xFFFFFFFF AND JUMP JUMPDEST PUSH2 0x2135 PUSH1 0x40 MLOAD DUP1 PUSH1 0x40 ADD PUSH1 0x40 MSTORE DUP1 PUSH1 0x6 DUP2 MSTORE PUSH1 0x20 ADD PUSH32 0x736F757263650000000000000000000000000000000000000000000000000000 DUP2 MSTORE POP DUP3 PUSH2 0x2CF8 SWAP1 SWAP2 SWAP1 PUSH4 0xFFFFFFFF AND JUMP JUMPDEST PUSH2 0x214C DUP4 PUSH1 0x60 ADD MLOAD DUP3 PUSH2 0x2CF8 SWAP1 SWAP2 SWAP1 PUSH4 0xFFFFFFFF AND JUMP JUMPDEST PUSH0 DUP4 PUSH1 0xA0 ADD MLOAD MLOAD GT ISZERO PUSH2 0x2203 JUMPI PUSH2 0x21A1 PUSH1 0x40 MLOAD DUP1 PUSH1 0x40 ADD PUSH1 0x40 MSTORE DUP1 PUSH1 0x4 DUP2 MSTORE PUSH1 0x20 ADD PUSH32 0x6172677300000000000000000000000000000000000000000000000000000000 DUP2 MSTORE POP DUP3 PUSH2 0x2CF8 SWAP1 SWAP2 SWAP1 PUSH4 0xFFFFFFFF AND JUMP JUMPDEST PUSH2 0x21AA DUP2 PUSH2 0x2D6F JUMP JUMPDEST PUSH0 PUSH0 SWAP1 POP JUMPDEST DUP4 PUSH1 0xA0 ADD MLOAD MLOAD DUP2 LT ISZERO PUSH2 0x21F8 JUMPI PUSH2 0x21ED DUP5 PUSH1 0xA0 ADD MLOAD DUP3 DUP2 MLOAD DUP2 LT PUSH2 0x21D6 JUMPI PUSH2 0x21D5 PUSH2 0x438A JUMP JUMPDEST JUMPDEST PUSH1 0x20 MUL PUSH1 0x20 ADD ADD MLOAD DUP4 PUSH2 0x2CF8 SWAP1 SWAP2 SWAP1 PUSH4 0xFFFFFFFF AND JUMP JUMPDEST DUP1 PUSH1 0x1 ADD SWAP1 POP PUSH2 0x21AF JUMP JUMPDEST POP PUSH2 0x2202 DUP2 PUSH2 0x2D97 JUMP JUMPDEST JUMPDEST PUSH0 DUP4 PUSH1 0x80 ADD MLOAD MLOAD GT ISZERO PUSH2 0x2342 JUMPI PUSH0 PUSH1 0x2 DUP2 GT ISZERO PUSH2 0x2223 JUMPI PUSH2 0x2222 PUSH2 0x4DD3 JUMP JUMPDEST JUMPDEST DUP4 PUSH1 0x20 ADD MLOAD PUSH1 0x2 DUP2 GT ISZERO PUSH2 0x223A JUMPI PUSH2 0x2239 PUSH2 0x4DD3 JUMP JUMPDEST JUMPDEST SUB PUSH2 0x2271 JUMPI PUSH1 0x40 MLOAD PUSH32 0xA80D31F700000000000000000000000000000000000000000000000000000000 DUP2 MSTORE PUSH1 0x4 ADD PUSH1 0x40 MLOAD DUP1 SWAP2 SUB SWAP1 REVERT JUMPDEST PUSH2 0x22B9 PUSH1 0x40 MLOAD DUP1 PUSH1 0x40 ADD PUSH1 0x40 MSTORE DUP1 PUSH1 0xF DUP2 MSTORE PUSH1 0x20 ADD PUSH32 0x736563726574734C6F636174696F6E0000000000000000000000000000000000 DUP2 MSTORE POP DUP3 PUSH2 0x2CF8 SWAP1 SWAP2 SWAP1 PUSH4 0xFFFFFFFF AND JUMP JUMPDEST PUSH2 0x22E2 DUP4 PUSH1 0x20 ADD MLOAD PUSH1 0x2 DUP2 GT ISZERO PUSH2 0x22D3 JUMPI PUSH2 0x22D2 PUSH2 0x4DD3 JUMP JUMPDEST JUMPDEST DUP3 PUSH2 0x2D20 SWAP1 SWAP2 SWAP1 PUSH4 0xFFFFFFFF AND JUMP JUMPDEST PUSH2 0x232A PUSH1 0x40 MLOAD DUP1 PUSH1 0x40 ADD PUSH1 0x40 MSTORE DUP1 PUSH1 0x7 DUP2 MSTORE PUSH1 0x20 ADD PUSH32 0x7365637265747300000000000000000000000000000000000000000000000000 DUP2 MSTORE POP DUP3 PUSH2 0x2CF8 SWAP1 SWAP2 SWAP1 PUSH4 0xFFFFFFFF AND JUMP JUMPDEST PUSH2 0x2341 DUP4 PUSH1 0x80 ADD MLOAD DUP3 PUSH2 0x2DBF SWAP1 SWAP2 SWAP1 PUSH4 0xFFFFFFFF AND JUMP JUMPDEST JUMPDEST PUSH0 DUP4 PUSH1 0xC0 ADD MLOAD MLOAD GT ISZERO PUSH2 0x23F9 JUMPI PUSH2 0x2397 PUSH1 0x40 MLOAD DUP1 PUSH1 0x40 ADD PUSH1 0x40 MSTORE DUP1 PUSH1 0x9 DUP2 MSTORE PUSH1 0x20 ADD PUSH32 0x6279746573417267730000000000000000000000000000000000000000000000 DUP2 MSTORE POP DUP3 PUSH2 0x2CF8 SWAP1 SWAP2 SWAP1 PUSH4 0xFFFFFFFF AND JUMP JUMPDEST PUSH2 0x23A0 DUP2 PUSH2 0x2D6F JUMP JUMPDEST PUSH0 PUSH0 SWAP1 POP JUMPDEST DUP4 PUSH1 0xC0 ADD MLOAD MLOAD DUP2 LT ISZERO PUSH2 0x23EE JUMPI PUSH2 0x23E3 DUP5 PUSH1 0xC0 ADD MLOAD DUP3 DUP2 MLOAD DUP2 LT PUSH2 0x23CC JUMPI PUSH2 0x23CB PUSH2 0x438A JUMP JUMPDEST JUMPDEST PUSH1 0x20 MUL PUSH1 0x20 ADD ADD MLOAD DUP4 PUSH2 0x2DBF SWAP1 SWAP2 SWAP1 PUSH4 0xFFFFFFFF AND JUMP JUMPDEST DUP1 PUSH1 0x1 ADD SWAP1 POP PUSH2 0x23A5 JUMP JUMPDEST POP PUSH2 0x23F8 DUP2 PUSH2 0x2D97 JUMP JUMPDEST JUMPDEST DUP1 PUSH0 ADD MLOAD PUSH0 ADD MLOAD SWAP2 POP POP SWAP2 SWAP1 POP JUMP JUMPDEST PUSH0 PUSH0 PUSH32 0x0 PUSH20 0xFFFFFFFFFFFFFFFFFFFFFFFFFFFFFFFFFFFFFFFF AND PUSH4 0x461D2762 DUP7 DUP9 PUSH1 0x1 DUP9 DUP9 PUSH1 0x40 MLOAD DUP7 PUSH4 0xFFFFFFFF AND PUSH1 0xE0 SHL DUP2 MSTORE PUSH1 0x4 ADD PUSH2 0x246C SWAP6 SWAP5 SWAP4 SWAP3 SWAP2 SWAP1 PUSH2 0x4E1C JUMP JUMPDEST PUSH1 0x20 PUSH1 0x40 MLOAD DUP1 DUP4 SUB DUP2 PUSH0 DUP8 GAS CALL ISZERO DUP1 ISZERO PUSH2 0x2488 JUMPI RETURNDATASIZE PUSH0 PUSH0 RETURNDATACOPY RETURNDATASIZE PUSH0 REVERT JUMPDEST POP POP POP POP PUSH1 0x40 MLOAD RETURNDATASIZE PUSH1 0x1F NOT PUSH1 0x1F DUP3 ADD AND DUP3 ADD DUP1 PUSH1 0x40 MSTORE POP DUP2 ADD SWAP1 PUSH2 0x24AC SWAP2 SWAP1 PUSH2 0x4E88 JUMP JUMPDEST SWAP1 POP DUP1 PUSH32 0x1131472297A800FEE664D1D89CFA8F7676FF07189ECC53F80BBB5F4969099DB8 PUSH1 0x40 MLOAD PUSH1 0x40 MLOAD DUP1 SWAP2 SUB SWAP1 LOG2 DUP1 SWAP2 POP POP SWAP5 SWAP4 POP POP POP POP JUMP JUMPDEST PUSH1 0x1 PUSH1 0x2 DUP2 SWAP1 SSTORE POP JUMP JUMPDEST PUSH0 PUSH0 SWAP1 SLOAD SWAP1 PUSH2 0x100 EXP SWAP1 DIV PUSH20 0xFFFFFFFFFFFFFFFFFFFFFFFFFFFFFFFFFFFFFFFF AND PUSH20 0xFFFFFFFFFFFFFFFFFFFFFFFFFFFFFFFFFFFFFFFF AND CALLER PUSH20 0xFFFFFFFFFFFFFFFFFFFFFFFFFFFFFFFFFFFFFFFF AND EQ PUSH2 0x257F JUMPI PUSH1 0x40 MLOAD PUSH32 0x8C379A000000000000000000000000000000000000000000000000000000000 DUP2 MSTORE PUSH1 0x4 ADD PUSH2 0x2576 SWAP1 PUSH2 0x4EFD JUMP JUMPDEST PUSH1 0x40 MLOAD DUP1 SWAP2 SUB SWAP1 REVERT JUMPDEST JUMP JUMPDEST PUSH1 0x60 PUSH1 0x40 MLOAD DUP1 PUSH2 0x200 ADD PUSH1 0x40 MSTORE DUP1 PUSH2 0x1D2 DUP2 MSTORE PUSH1 0x20 ADD PUSH2 0x5463 PUSH2 0x1D2 SWAP2 CODECOPY SWAP1 POP SWAP1 JUMP JUMPDEST PUSH1 0x60 PUSH0 DUP3 SUB PUSH2 0x25EA JUMPI PUSH1 0x40 MLOAD DUP1 PUSH1 0x40 ADD PUSH1 0x40 MSTORE DUP1 PUSH1 0x1 DUP2 MSTORE PUSH1 0x20 ADD PUSH32 0x3000000000000000000000000000000000000000000000000000000000000000 DUP2 MSTORE POP SWAP1 POP PUSH2 0x26F7 JUMP JUMPDEST PUSH0 PUSH0 DUP4 SWAP1 POP JUMPDEST PUSH0 DUP2 GT ISZERO PUSH2 0x261A JUMPI DUP2 DUP1 PUSH2 0x2603 SWAP1 PUSH2 0x4A44 JUMP JUMPDEST SWAP3 POP POP PUSH1 0xA DUP2 PUSH2 0x2613 SWAP2 SWAP1 PUSH2 0x4F1B JUMP JUMPDEST SWAP1 POP PUSH2 0x25F0 JUMP JUMPDEST POP PUSH0 DUP2 PUSH8 0xFFFFFFFFFFFFFFFF DUP2 GT ISZERO PUSH2 0x2636 JUMPI PUSH2 0x2635 PUSH2 0x358C JUMP JUMPDEST JUMPDEST PUSH1 0x40 MLOAD SWAP1 DUP1 DUP3 MSTORE DUP1 PUSH1 0x1F ADD PUSH1 0x1F NOT AND PUSH1 0x20 ADD DUP3 ADD PUSH1 0x40 MSTORE DUP1 ISZERO PUSH2 0x2668 JUMPI DUP2 PUSH1 0x20 ADD PUSH1 0x1 DUP3 MUL DUP1 CALLDATASIZE DUP4 CALLDATACOPY DUP1 DUP3 ADD SWAP2 POP POP SWAP1 POP JUMPDEST POP SWAP1 POP JUMPDEST PUSH0 DUP5 GT ISZERO PUSH2 0x26F1 JUMPI PUSH1 0xA DUP5 PUSH2 0x2681 SWAP2 SWAP1 PUSH2 0x4C75 JUMP JUMPDEST PUSH1 0x30 PUSH2 0x268D SWAP2 SWAP1 PUSH2 0x3F3A JUMP JUMPDEST PUSH1 0xF8 SHL DUP2 DUP4 PUSH2 0x269B SWAP1 PUSH2 0x4F4B JUMP JUMPDEST SWAP4 POP DUP4 DUP2 MLOAD DUP2 LT PUSH2 0x26AF JUMPI PUSH2 0x26AE PUSH2 0x438A JUMP JUMPDEST JUMPDEST PUSH1 0x20 ADD ADD SWAP1 PUSH31 0xFFFFFFFFFFFFFFFFFFFFFFFFFFFFFFFFFFFFFFFFFFFFFFFFFFFFFFFFFFFFFF NOT AND SWAP1 DUP2 PUSH0 BYTE SWAP1 MSTORE8 POP PUSH1 0xA DUP5 PUSH2 0x26EA SWAP2 SWAP1 PUSH2 0x4F1B JUMP JUMPDEST SWAP4 POP PUSH2 0x266C JUMP JUMPDEST DUP1 SWAP3 POP POP POP JUMPDEST SWAP2 SWAP1 POP JUMP JUMPDEST CALLER PUSH20 0xFFFFFFFFFFFFFFFFFFFFFFFFFFFFFFFFFFFFFFFF AND DUP2 PUSH20 0xFFFFFFFFFFFFFFFFFFFFFFFFFFFFFFFFFFFFFFFF AND SUB PUSH2 0x276A JUMPI PUSH1 0x40 MLOAD PUSH32 0x8C379A000000000000000000000000000000000000000000000000000000000 DUP2 MSTORE PUSH1 0x4 ADD PUSH2 0x2761 SWAP1 PUSH2 0x4FBC JUMP JUMPDEST PUSH1 0x40 MLOAD DUP1 SWAP2 SUB SWAP1 REVERT JUMPDEST DUP1 PUSH1 0x1 PUSH0 PUSH2 0x100 EXP DUP2 SLOAD DUP2 PUSH20 0xFFFFFFFFFFFFFFFFFFFFFFFFFFFFFFFFFFFFFFFF MUL NOT AND SWAP1 DUP4 PUSH20 0xFFFFFFFFFFFFFFFFFFFFFFFFFFFFFFFFFFFFFFFF AND MUL OR SWAP1 SSTORE POP DUP1 PUSH20 0xFFFFFFFFFFFFFFFFFFFFFFFFFFFFFFFFFFFFFFFF AND PUSH0 PUSH0 SWAP1 SLOAD SWAP1 PUSH2 0x100 EXP SWAP1 DIV PUSH20 0xFFFFFFFFFFFFFFFFFFFFFFFFFFFFFFFFFFFFFFFF AND PUSH20 0xFFFFFFFFFFFFFFFFFFFFFFFFFFFFFFFFFFFFFFFF AND PUSH32 0xED8889F560326EB138920D842192F0EB3DD22B4F139C87A2C57538E05BAE1278 PUSH1 0x40 MLOAD PUSH1 0x40 MLOAD DUP1 SWAP2 SUB SWAP1 LOG3 POP JUMP JUMPDEST PUSH1 0x60 PUSH0 PUSH0 DUP4 SWAP1 POP PUSH0 DUP2 MLOAD GT PUSH2 0x2871 JUMPI PUSH1 0x40 MLOAD PUSH32 0x8C379A000000000000000000000000000000000000000000000000000000000 DUP2 MSTORE PUSH1 0x4 ADD PUSH2 0x2868 SWAP1 PUSH2 0x4A26 JUMP JUMPDEST PUSH1 0x40 MLOAD DUP1 SWAP2 SUB SWAP1 REVERT JUMPDEST PUSH0 JUMPDEST DUP2 MLOAD DUP2 LT DUP1 ISZERO PUSH2 0x28C6 JUMPI POP PUSH1 0x7C PUSH1 0xF8 SHL DUP3 DUP3 DUP2 MLOAD DUP2 LT PUSH2 0x2896 JUMPI PUSH2 0x2895 PUSH2 0x438A JUMP JUMPDEST JUMPDEST PUSH1 0x20 ADD ADD MLOAD PUSH1 0xF8 SHR PUSH1 0xF8 SHL PUSH31 0xFFFFFFFFFFFFFFFFFFFFFFFFFFFFFFFFFFFFFFFFFFFFFFFFFFFFFFFFFFFFFF NOT AND EQ ISZERO JUMPDEST ISZERO PUSH2 0x28DE JUMPI DUP1 DUP1 PUSH2 0x28D6 SWAP1 PUSH2 0x4A44 JUMP JUMPDEST SWAP2 POP POP PUSH2 0x2873 JUMP JUMPDEST DUP2 MLOAD DUP2 LT PUSH2 0x2921 JUMPI PUSH1 0x40 MLOAD PUSH32 0x8C379A000000000000000000000000000000000000000000000000000000000 DUP2 MSTORE PUSH1 0x4 ADD PUSH2 0x2918 SWAP1 PUSH2 0x5024 JUMP JUMPDEST PUSH1 0x40 MLOAD DUP1 SWAP2 SUB SWAP1 REVERT JUMPDEST PUSH0 PUSH2 0x292D DUP4 PUSH0 DUP5 PUSH2 0x2DE7 JUMP JUMPDEST SWAP1 POP PUSH0 PUSH2 0x2967 PUSH2 0x2962 DUP6 PUSH1 0x1 DUP7 PUSH2 0x2944 SWAP2 SWAP1 PUSH2 0x3F3A JUMP JUMPDEST PUSH1 0x1 DUP8 DUP10 MLOAD PUSH2 0x2953 SWAP2 SWAP1 PUSH2 0x4CA5 JUMP JUMPDEST PUSH2 0x295D SWAP2 SWAP1 PUSH2 0x4CA5 JUMP JUMPDEST PUSH2 0x2DE7 JUMP JUMPDEST PUSH2 0x2EC1 JUMP JUMPDEST SWAP1 POP DUP2 DUP2 SWAP6 POP SWAP6 POP POP POP POP POP SWAP2 POP SWAP2 JUMP JUMPDEST PUSH0 PUSH0 PUSH32 0x0 PUSH20 0xFFFFFFFFFFFFFFFFFFFFFFFFFFFFFFFFFFFFFFFF AND PUSH4 0xFEAF968C PUSH1 0x40 MLOAD DUP2 PUSH4 0xFFFFFFFF AND PUSH1 0xE0 SHL DUP2 MSTORE PUSH1 0x4 ADD PUSH1 0xA0 PUSH1 0x40 MLOAD DUP1 DUP4 SUB DUP2 DUP7 GAS STATICCALL ISZERO DUP1 ISZERO PUSH2 0x29E3 JUMPI RETURNDATASIZE PUSH0 PUSH0 RETURNDATACOPY RETURNDATASIZE PUSH0 REVERT JUMPDEST POP POP POP POP PUSH1 0x40 MLOAD RETURNDATASIZE PUSH1 0x1F NOT PUSH1 0x1F DUP3 ADD AND DUP3 ADD DUP1 PUSH1 0x40 MSTORE POP DUP2 ADD SWAP1 PUSH2 0x2A07 SWAP2 SWAP1 PUSH2 0x50DE JUMP JUMPDEST POP POP POP SWAP2 POP POP PUSH0 DUP2 SGT PUSH2 0x2A4F JUMPI PUSH1 0x40 MLOAD PUSH32 0x8C379A000000000000000000000000000000000000000000000000000000000 DUP2 MSTORE PUSH1 0x4 ADD PUSH2 0x2A46 SWAP1 PUSH2 0x519F JUMP JUMPDEST PUSH1 0x40 MLOAD DUP1 SWAP2 SUB SWAP1 REVERT JUMPDEST PUSH8 0xDE0B6B3A7640000 DUP2 DUP5 PUSH2 0x2A64 SWAP2 SWAP1 PUSH2 0x4ADA JUMP JUMPDEST PUSH2 0x2A6E SWAP2 SWAP1 PUSH2 0x4F1B JUMP JUMPDEST SWAP2 POP POP SWAP2 SWAP1 POP JUMP JUMPDEST PUSH1 0x60 PUSH0 PUSH1 0x40 MLOAD DUP1 PUSH1 0x40 ADD PUSH1 0x40 MSTORE DUP1 PUSH1 0x10 DUP2 MSTORE PUSH1 0x20 ADD PUSH32 0x3031323334353637383961626364656600000000000000000000000000000000 DUP2 MSTORE POP SWAP1 POP PUSH0 PUSH1 0x10 PUSH8 0xFFFFFFFFFFFFFFFF DUP2 GT ISZERO PUSH2 0x2ACD JUMPI PUSH2 0x2ACC PUSH2 0x358C JUMP JUMPDEST JUMPDEST PUSH1 0x40 MLOAD SWAP1 DUP1 DUP3 MSTORE DUP1 PUSH1 0x1F ADD PUSH1 0x1F NOT AND PUSH1 0x20 ADD DUP3 ADD PUSH1 0x40 MSTORE DUP1 ISZERO PUSH2 0x2AFF JUMPI DUP2 PUSH1 0x20 ADD PUSH1 0x1 DUP3 MUL DUP1 CALLDATASIZE DUP4 CALLDATACOPY DUP1 DUP3 ADD SWAP2 POP POP SWAP1 POP JUMPDEST POP SWAP1 POP PUSH0 PUSH0 SWAP1 POP JUMPDEST PUSH1 0x8 DUP2 LT ISZERO PUSH2 0x2C22 JUMPI PUSH0 PUSH1 0xF DUP3 PUSH1 0x7 PUSH2 0x2B20 SWAP2 SWAP1 PUSH2 0x4CA5 JUMP JUMPDEST PUSH1 0x4 PUSH2 0x2B2C SWAP2 SWAP1 PUSH2 0x4ADA JUMP JUMPDEST DUP8 SWAP1 SHR AND SWAP1 POP DUP4 DUP2 DUP2 MLOAD DUP2 LT PUSH2 0x2B45 JUMPI PUSH2 0x2B44 PUSH2 0x438A JUMP JUMPDEST JUMPDEST PUSH1 0x20 ADD ADD MLOAD PUSH1 0xF8 SHR PUSH1 0xF8 SHL DUP4 PUSH1 0x2 DUP5 PUSH2 0x2B5E SWAP2 SWAP1 PUSH2 0x4ADA JUMP JUMPDEST DUP2 MLOAD DUP2 LT PUSH2 0x2B6F JUMPI PUSH2 0x2B6E PUSH2 0x438A JUMP JUMPDEST JUMPDEST PUSH1 0x20 ADD ADD SWAP1 PUSH31 0xFFFFFFFFFFFFFFFFFFFFFFFFFFFFFFFFFFFFFFFFFFFFFFFFFFFFFFFFFFFFFF NOT AND SWAP1 DUP2 PUSH0 BYTE SWAP1 MSTORE8 POP DUP4 DUP2 DUP2 MLOAD DUP2 LT PUSH2 0x2BB0 JUMPI PUSH2 0x2BAF PUSH2 0x438A JUMP JUMPDEST JUMPDEST PUSH1 0x20 ADD ADD MLOAD PUSH1 0xF8 SHR PUSH1 0xF8 SHL DUP4 PUSH1 0x1 PUSH1 0x2 DUP6 PUSH2 0x2BCB SWAP2 SWAP1 PUSH2 0x4ADA JUMP JUMPDEST PUSH2 0x2BD5 SWAP2 SWAP1 PUSH2 0x3F3A JUMP JUMPDEST DUP2 MLOAD DUP2 LT PUSH2 0x2BE6 JUMPI PUSH2 0x2BE5 PUSH2 0x438A JUMP JUMPDEST JUMPDEST PUSH1 0x20 ADD ADD SWAP1 PUSH31 0xFFFFFFFFFFFFFFFFFFFFFFFFFFFFFFFFFFFFFFFFFFFFFFFFFFFFFFFFFFFFFF NOT AND SWAP1 DUP2 PUSH0 BYTE SWAP1 MSTORE8 POP POP DUP1 DUP1 PUSH1 0x1 ADD SWAP2 POP POP PUSH2 0x2B07 JUMP JUMPDEST POP DUP1 SWAP3 POP POP POP SWAP2 SWAP1 POP JUMP JUMPDEST PUSH0 DUP2 MLOAD SUB PUSH2 0x2C67 JUMPI PUSH1 0x40 MLOAD PUSH32 0x22CE3EDD00000000000000000000000000000000000000000000000000000000 DUP2 MSTORE PUSH1 0x4 ADD PUSH1 0x40 MLOAD DUP1 SWAP2 SUB SWAP1 REVERT JUMPDEST DUP3 DUP5 PUSH0 ADD SWAP1 PUSH1 0x2 DUP2 GT ISZERO PUSH2 0x2C7E JUMPI PUSH2 0x2C7D PUSH2 0x4DD3 JUMP JUMPDEST JUMPDEST SWAP1 DUP2 PUSH1 0x2 DUP2 GT ISZERO PUSH2 0x2C92 JUMPI PUSH2 0x2C91 PUSH2 0x4DD3 JUMP JUMPDEST JUMPDEST DUP2 MSTORE POP POP DUP2 DUP5 PUSH1 0x40 ADD SWAP1 PUSH0 DUP2 GT ISZERO PUSH2 0x2CAD JUMPI PUSH2 0x2CAC PUSH2 0x4DD3 JUMP JUMPDEST JUMPDEST SWAP1 DUP2 PUSH0 DUP2 GT ISZERO PUSH2 0x2CC0 JUMPI PUSH2 0x2CBF PUSH2 0x4DD3 JUMP JUMPDEST JUMPDEST DUP2 MSTORE POP POP DUP1 DUP5 PUSH1 0x60 ADD DUP2 SWAP1 MSTORE POP POP POP POP POP JUMP JUMPDEST PUSH2 0x2CDB PUSH2 0x34BD JUMP JUMPDEST PUSH2 0x2CE8 DUP2 PUSH0 ADD MLOAD DUP4 PUSH2 0x3008 JUMP JUMPDEST POP PUSH0 DUP2 PUSH1 0x20 ADD DUP2 DUP2 MSTORE POP POP SWAP2 SWAP1 POP JUMP JUMPDEST PUSH2 0x2D05 DUP3 PUSH1 0x3 DUP4 MLOAD PUSH2 0x307E JUMP JUMPDEST PUSH2 0x2D1B DUP2 DUP4 PUSH0 ADD MLOAD PUSH2 0x321E SWAP1 SWAP2 SWAP1 PUSH4 0xFFFFFFFF AND JUMP JUMPDEST POP POP POP JUMP JUMPDEST PUSH2 0x2D41 PUSH1 0x2 PUSH1 0x5 PUSH1 0x6 PUSH1 0xFF AND SWAP1 SHL OR DUP4 PUSH0 ADD MLOAD PUSH2 0x323A SWAP1 SWAP2 SWAP1 PUSH4 0xFFFFFFFF AND JUMP JUMPDEST POP PUSH2 0x2D6B DUP3 DUP3 PUSH1 0x40 MLOAD PUSH1 0x20 ADD PUSH2 0x2D57 SWAP2 SWAP1 PUSH2 0x3C36 JUMP JUMPDEST PUSH1 0x40 MLOAD PUSH1 0x20 DUP2 DUP4 SUB SUB DUP2 MSTORE SWAP1 PUSH1 0x40 MSTORE PUSH2 0x2DBF JUMP JUMPDEST POP POP JUMP JUMPDEST PUSH2 0x2D7A DUP2 PUSH1 0x4 PUSH2 0x32A1 JUMP JUMPDEST PUSH1 0x1 DUP2 PUSH1 0x20 ADD DUP2 DUP2 MLOAD PUSH2 0x2D8D SWAP2 SWAP1 PUSH2 0x3F3A JUMP JUMPDEST SWAP2 POP DUP2 DUP2 MSTORE POP POP POP JUMP JUMPDEST PUSH2 0x2DA2 DUP2 PUSH1 0x7 PUSH2 0x32A1 JUMP JUMPDEST PUSH1 0x1 DUP2 PUSH1 0x20 ADD DUP2 DUP2 MLOAD PUSH2 0x2DB5 SWAP2 SWAP1 PUSH2 0x4CA5 JUMP JUMPDEST SWAP2 POP DUP2 DUP2 MSTORE POP POP POP JUMP JUMPDEST PUSH2 0x2DCC DUP3 PUSH1 0x2 DUP4 MLOAD PUSH2 0x307E JUMP JUMPDEST PUSH2 0x2DE2 DUP2 DUP4 PUSH0 ADD MLOAD PUSH2 0x321E SWAP1 SWAP2 SWAP1 PUSH4 0xFFFFFFFF AND JUMP JUMPDEST POP POP POP JUMP JUMPDEST PUSH1 0x60 DUP2 PUSH8 0xFFFFFFFFFFFFFFFF DUP2 GT ISZERO PUSH2 0x2E03 JUMPI PUSH2 0x2E02 PUSH2 0x358C JUMP JUMPDEST JUMPDEST PUSH1 0x40 MLOAD SWAP1 DUP1 DUP3 MSTORE DUP1 PUSH1 0x1F ADD PUSH1 0x1F NOT AND PUSH1 0x20 ADD DUP3 ADD PUSH1 0x40 MSTORE DUP1 ISZERO PUSH2 0x2E35 JUMPI DUP2 PUSH1 0x20 ADD PUSH1 0x1 DUP3 MUL DUP1 CALLDATASIZE DUP4 CALLDATACOPY DUP1 DUP3 ADD SWAP2 POP POP SWAP1 POP JUMPDEST POP SWAP1 POP PUSH0 JUMPDEST DUP3 DUP2 LT ISZERO PUSH2 0x2EB9 JUMPI DUP5 DUP2 DUP6 PUSH2 0x2E4F SWAP2 SWAP1 PUSH2 0x3F3A JUMP JUMPDEST DUP2 MLOAD DUP2 LT PUSH2 0x2E60 JUMPI PUSH2 0x2E5F PUSH2 0x438A JUMP JUMPDEST JUMPDEST PUSH1 0x20 ADD ADD MLOAD PUSH1 0xF8 SHR PUSH1 0xF8 SHL DUP3 DUP3 DUP2 MLOAD DUP2 LT PUSH2 0x2E7E JUMPI PUSH2 0x2E7D PUSH2 0x438A JUMP JUMPDEST JUMPDEST PUSH1 0x20 ADD ADD SWAP1 PUSH31 0xFFFFFFFFFFFFFFFFFFFFFFFFFFFFFFFFFFFFFFFFFFFFFFFFFFFFFFFFFFFFFF NOT AND SWAP1 DUP2 PUSH0 BYTE SWAP1 MSTORE8 POP DUP1 DUP1 PUSH1 0x1 ADD SWAP2 POP POP PUSH2 0x2E3A JUMP JUMPDEST POP SWAP4 SWAP3 POP POP POP JUMP JUMPDEST PUSH0 PUSH0 DUP3 SWAP1 POP PUSH0 DUP2 MLOAD GT PUSH2 0x2F09 JUMPI PUSH1 0x40 MLOAD PUSH32 0x8C379A000000000000000000000000000000000000000000000000000000000 DUP2 MSTORE PUSH1 0x4 ADD PUSH2 0x2F00 SWAP1 PUSH2 0x5207 JUMP JUMPDEST PUSH1 0x40 MLOAD DUP1 SWAP2 SUB SWAP1 REVERT JUMPDEST PUSH0 JUMPDEST DUP2 MLOAD DUP2 LT ISZERO PUSH2 0x3001 JUMPI PUSH1 0x30 DUP3 DUP3 DUP2 MLOAD DUP2 LT PUSH2 0x2F29 JUMPI PUSH2 0x2F28 PUSH2 0x438A JUMP JUMPDEST JUMPDEST PUSH1 0x20 ADD ADD MLOAD PUSH1 0xF8 SHR PUSH1 0xF8 SHL PUSH1 0xF8 SHR PUSH1 0xFF AND LT ISZERO DUP1 ISZERO PUSH2 0x2F6C JUMPI POP PUSH1 0x39 DUP3 DUP3 DUP2 MLOAD DUP2 LT PUSH2 0x2F58 JUMPI PUSH2 0x2F57 PUSH2 0x438A JUMP JUMPDEST JUMPDEST PUSH1 0x20 ADD ADD MLOAD PUSH1 0xF8 SHR PUSH1 0xF8 SHL PUSH1 0xF8 SHR PUSH1 0xFF AND GT ISZERO JUMPDEST PUSH2 0x2FAB JUMPI PUSH1 0x40 MLOAD PUSH32 0x8C379A000000000000000000000000000000000000000000000000000000000 DUP2 MSTORE PUSH1 0x4 ADD PUSH2 0x2FA2 SWAP1 PUSH2 0x526F JUMP JUMPDEST PUSH1 0x40 MLOAD DUP1 SWAP2 SUB SWAP1 REVERT JUMPDEST PUSH1 0x30 DUP3 DUP3 DUP2 MLOAD DUP2 LT PUSH2 0x2FC0 JUMPI PUSH2 0x2FBF PUSH2 0x438A JUMP JUMPDEST JUMPDEST PUSH1 0x20 ADD ADD MLOAD PUSH1 0xF8 SHR PUSH1 0xF8 SHL PUSH1 0xF8 SHR PUSH2 0x2FD8 SWAP2 SWAP1 PUSH2 0x528D JUMP JUMPDEST PUSH1 0xFF AND PUSH1 0xA DUP5 PUSH2 0x2FE8 SWAP2 SWAP1 PUSH2 0x4ADA JUMP JUMPDEST PUSH2 0x2FF2 SWAP2 SWAP1 PUSH2 0x3F3A JUMP JUMPDEST SWAP3 POP DUP1 DUP1 PUSH1 0x1 ADD SWAP2 POP POP PUSH2 0x2F0B JUMP JUMPDEST POP POP SWAP2 SWAP1 POP JUMP JUMPDEST PUSH2 0x3010 PUSH2 0x34DC JUMP JUMPDEST PUSH0 PUSH1 0x20 DUP4 PUSH2 0x301E SWAP2 SWAP1 PUSH2 0x4C75 JUMP JUMPDEST EQ PUSH2 0x304A JUMPI PUSH1 0x20 DUP3 PUSH2 0x3030 SWAP2 SWAP1 PUSH2 0x4C75 JUMP JUMPDEST PUSH1 0x20 PUSH2 0x303C SWAP2 SWAP1 PUSH2 0x4CA5 JUMP JUMPDEST DUP3 PUSH2 0x3047 SWAP2 SWAP1 PUSH2 0x3F3A JUMP JUMPDEST SWAP2 POP JUMPDEST DUP2 DUP4 PUSH1 0x20 ADD DUP2 DUP2 MSTORE POP POP PUSH1 0x40 MLOAD DUP1 DUP5 MSTORE PUSH0 DUP2 MSTORE DUP3 DUP2 ADD PUSH1 0x20 ADD DUP2 DUP2 LT ISZERO PUSH2 0x306F JUMPI PUSH0 PUSH0 REVERT JUMPDEST DUP1 PUSH1 0x40 MSTORE POP POP DUP3 SWAP1 POP SWAP3 SWAP2 POP POP JUMP JUMPDEST PUSH1 0x17 DUP2 PUSH8 0xFFFFFFFFFFFFFFFF AND GT PUSH2 0x30B8 JUMPI PUSH2 0x30B2 DUP2 PUSH1 0x5 DUP5 PUSH1 0xFF AND SWAP1 SHL PUSH1 0xFF AND OR DUP5 PUSH0 ADD MLOAD PUSH2 0x323A SWAP1 SWAP2 SWAP1 PUSH4 0xFFFFFFFF AND JUMP JUMPDEST POP PUSH2 0x3219 JUMP JUMPDEST PUSH1 0xFF DUP2 PUSH8 0xFFFFFFFFFFFFFFFF AND GT PUSH2 0x3114 JUMPI PUSH2 0x30EA PUSH1 0x18 PUSH1 0x5 DUP5 PUSH1 0xFF AND SWAP1 SHL OR DUP5 PUSH0 ADD MLOAD PUSH2 0x323A SWAP1 SWAP2 SWAP1 PUSH4 0xFFFFFFFF AND JUMP JUMPDEST POP PUSH2 0x310E DUP2 PUSH8 0xFFFFFFFFFFFFFFFF AND PUSH1 0x1 DUP6 PUSH0 ADD MLOAD PUSH2 0x32C6 SWAP1 SWAP3 SWAP2 SWAP1 PUSH4 0xFFFFFFFF AND JUMP JUMPDEST POP PUSH2 0x3218 JUMP JUMPDEST PUSH2 0xFFFF DUP2 PUSH8 0xFFFFFFFFFFFFFFFF AND GT PUSH2 0x3171 JUMPI PUSH2 0x3147 PUSH1 0x19 PUSH1 0x5 DUP5 PUSH1 0xFF AND SWAP1 SHL OR DUP5 PUSH0 ADD MLOAD PUSH2 0x323A SWAP1 SWAP2 SWAP1 PUSH4 0xFFFFFFFF AND JUMP JUMPDEST POP PUSH2 0x316B DUP2 PUSH8 0xFFFFFFFFFFFFFFFF AND PUSH1 0x2 DUP6 PUSH0 ADD MLOAD PUSH2 0x32C6 SWAP1 SWAP3 SWAP2 SWAP1 PUSH4 0xFFFFFFFF AND JUMP JUMPDEST POP PUSH2 0x3217 JUMP JUMPDEST PUSH4 0xFFFFFFFF DUP2 PUSH8 0xFFFFFFFFFFFFFFFF AND GT PUSH2 0x31D0 JUMPI PUSH2 0x31A6 PUSH1 0x1A PUSH1 0x5 DUP5 PUSH1 0xFF AND SWAP1 SHL OR DUP5 PUSH0 ADD MLOAD PUSH2 0x323A SWAP1 SWAP2 SWAP1 PUSH4 0xFFFFFFFF AND JUMP JUMPDEST POP PUSH2 0x31CA DUP2 PUSH8 0xFFFFFFFFFFFFFFFF AND PUSH1 0x4 DUP6 PUSH0 ADD MLOAD PUSH2 0x32C6 SWAP1 SWAP3 SWAP2 SWAP1 PUSH4 0xFFFFFFFF AND JUMP JUMPDEST POP PUSH2 0x3216 JUMP JUMPDEST PUSH2 0x31F0 PUSH1 0x1B PUSH1 0x5 DUP5 PUSH1 0xFF AND SWAP1 SHL OR DUP5 PUSH0 ADD MLOAD PUSH2 0x323A SWAP1 SWAP2 SWAP1 PUSH4 0xFFFFFFFF AND JUMP JUMPDEST POP PUSH2 0x3214 DUP2 PUSH8 0xFFFFFFFFFFFFFFFF AND PUSH1 0x8 DUP6 PUSH0 ADD MLOAD PUSH2 0x32C6 SWAP1 SWAP3 SWAP2 SWAP1 PUSH4 0xFFFFFFFF AND JUMP JUMPDEST POP JUMPDEST JUMPDEST JUMPDEST JUMPDEST POP POP POP JUMP JUMPDEST PUSH2 0x3226 PUSH2 0x34DC JUMP JUMPDEST PUSH2 0x3232 DUP4 DUP4 DUP5 MLOAD PUSH2 0x334F JUMP JUMPDEST SWAP1 POP SWAP3 SWAP2 POP POP JUMP JUMPDEST PUSH2 0x3242 PUSH2 0x34DC JUMP JUMPDEST PUSH0 DUP4 PUSH0 ADD MLOAD MLOAD SWAP1 POP PUSH0 PUSH1 0x1 DUP3 PUSH2 0x3258 SWAP2 SWAP1 PUSH2 0x3F3A JUMP JUMPDEST SWAP1 POP DUP5 PUSH1 0x20 ADD MLOAD DUP3 LT PUSH2 0x327C JUMPI PUSH2 0x327B DUP6 PUSH1 0x2 DUP4 PUSH2 0x3276 SWAP2 SWAP1 PUSH2 0x4ADA JUMP JUMPDEST PUSH2 0x342C JUMP JUMPDEST JUMPDEST DUP5 MLOAD PUSH1 0x20 DUP4 DUP3 ADD ADD DUP6 DUP2 MSTORE8 DUP2 MLOAD DUP4 GT ISZERO PUSH2 0x3294 JUMPI DUP3 DUP3 MSTORE JUMPDEST POP POP DUP5 SWAP3 POP POP POP SWAP3 SWAP2 POP POP JUMP JUMPDEST PUSH2 0x32C1 PUSH1 0x1F PUSH1 0x5 DUP4 PUSH1 0xFF AND SWAP1 SHL OR DUP4 PUSH0 ADD MLOAD PUSH2 0x323A SWAP1 SWAP2 SWAP1 PUSH4 0xFFFFFFFF AND JUMP JUMPDEST POP POP POP JUMP JUMPDEST PUSH2 0x32CE PUSH2 0x34DC JUMP JUMPDEST PUSH0 DUP5 PUSH0 ADD MLOAD MLOAD SWAP1 POP PUSH0 DUP2 DUP5 PUSH2 0x32E3 SWAP2 SWAP1 PUSH2 0x3F3A JUMP JUMPDEST SWAP1 POP DUP6 PUSH1 0x20 ADD MLOAD DUP2 GT ISZERO PUSH2 0x3308 JUMPI PUSH2 0x3307 DUP7 PUSH1 0x2 DUP4 PUSH2 0x3302 SWAP2 SWAP1 PUSH2 0x4ADA JUMP JUMPDEST PUSH2 0x342C JUMP JUMPDEST JUMPDEST PUSH0 PUSH1 0x1 DUP6 PUSH2 0x100 PUSH2 0x3319 SWAP2 SWAP1 PUSH2 0x53F0 JUMP JUMPDEST PUSH2 0x3323 SWAP2 SWAP1 PUSH2 0x4CA5 JUMP JUMPDEST SWAP1 POP DUP7 MLOAD DUP3 DUP2 ADD DUP8 DUP4 NOT DUP3 MLOAD AND OR DUP2 MSTORE DUP2 MLOAD DUP5 GT ISZERO PUSH2 0x3340 JUMPI DUP4 DUP3 MSTORE JUMPDEST POP POP DUP7 SWAP4 POP POP POP POP SWAP4 SWAP3 POP POP POP JUMP JUMPDEST PUSH2 0x3357 PUSH2 0x34DC JUMP JUMPDEST DUP3 MLOAD DUP3 GT ISZERO PUSH2 0x3364 JUMPI PUSH0 PUSH0 REVERT JUMPDEST PUSH0 DUP5 PUSH0 ADD MLOAD MLOAD SWAP1 POP PUSH0 DUP4 DUP3 PUSH2 0x3379 SWAP2 SWAP1 PUSH2 0x3F3A JUMP JUMPDEST SWAP1 POP DUP6 PUSH1 0x20 ADD MLOAD DUP2 GT ISZERO PUSH2 0x339E JUMPI PUSH2 0x339D DUP7 PUSH1 0x2 DUP4 PUSH2 0x3398 SWAP2 SWAP1 PUSH2 0x4ADA JUMP JUMPDEST PUSH2 0x342C JUMP JUMPDEST JUMPDEST PUSH0 PUSH0 DUP8 MLOAD DUP1 MLOAD DUP6 PUSH1 0x20 DUP4 ADD ADD SWAP4 POP DUP1 DUP6 GT ISZERO PUSH2 0x33B8 JUMPI DUP5 DUP3 MSTORE JUMPDEST PUSH1 0x20 DUP10 ADD SWAP3 POP POP POP JUMPDEST PUSH1 0x20 DUP7 LT PUSH2 0x33FF JUMPI DUP1 MLOAD DUP3 MSTORE PUSH1 0x20 DUP3 PUSH2 0x33DA SWAP2 SWAP1 PUSH2 0x3F3A JUMP JUMPDEST SWAP2 POP PUSH1 0x20 DUP2 PUSH2 0x33E9 SWAP2 SWAP1 PUSH2 0x3F3A JUMP JUMPDEST SWAP1 POP PUSH1 0x20 DUP7 PUSH2 0x33F8 SWAP2 SWAP1 PUSH2 0x4CA5 JUMP JUMPDEST SWAP6 POP PUSH2 0x33C1 JUMP JUMPDEST PUSH0 PUSH1 0x1 DUP8 PUSH1 0x20 SUB PUSH2 0x100 EXP SUB SWAP1 POP DUP1 NOT DUP3 MLOAD AND DUP2 DUP5 MLOAD AND DUP2 DUP2 OR DUP6 MSTORE POP POP POP DUP8 SWAP5 POP POP POP POP POP SWAP4 SWAP3 POP POP POP JUMP JUMPDEST PUSH0 DUP3 PUSH0 ADD MLOAD SWAP1 POP PUSH2 0x343D DUP4 DUP4 PUSH2 0x3008 JUMP JUMPDEST POP PUSH2 0x3448 DUP4 DUP3 PUSH2 0x321E JUMP JUMPDEST POP POP POP POP JUMP JUMPDEST PUSH1 0x40 MLOAD DUP1 PUSH1 0xE0 ADD PUSH1 0x40 MSTORE DUP1 PUSH0 PUSH1 0x2 DUP2 GT ISZERO PUSH2 0x346C JUMPI PUSH2 0x346B PUSH2 0x4DD3 JUMP JUMPDEST JUMPDEST DUP2 MSTORE PUSH1 0x20 ADD PUSH0 PUSH1 0x2 DUP2 GT ISZERO PUSH2 0x3484 JUMPI PUSH2 0x3483 PUSH2 0x4DD3 JUMP JUMPDEST JUMPDEST DUP2 MSTORE PUSH1 0x20 ADD PUSH0 PUSH0 DUP2 GT ISZERO PUSH2 0x349B JUMPI PUSH2 0x349A PUSH2 0x4DD3 JUMP JUMPDEST JUMPDEST DUP2 MSTORE PUSH1 0x20 ADD PUSH1 0x60 DUP2 MSTORE PUSH1 0x20 ADD PUSH1 0x60 DUP2 MSTORE PUSH1 0x20 ADD PUSH1 0x60 DUP2 MSTORE PUSH1 0x20 ADD PUSH1 0x60 DUP2 MSTORE POP SWAP1 JUMP JUMPDEST PUSH1 0x40 MLOAD DUP1 PUSH1 0x40 ADD PUSH1 0x40 MSTORE DUP1 PUSH2 0x34D0 PUSH2 0x34DC JUMP JUMPDEST DUP2 MSTORE PUSH1 0x20 ADD PUSH0 DUP2 MSTORE POP SWAP1 JUMP JUMPDEST PUSH1 0x40 MLOAD DUP1 PUSH1 0x40 ADD PUSH1 0x40 MSTORE DUP1 PUSH1 0x60 DUP2 MSTORE PUSH1 0x20 ADD PUSH0 DUP2 MSTORE POP SWAP1 JUMP JUMPDEST PUSH0 PUSH8 0xFFFFFFFFFFFFFFFF DUP3 AND SWAP1 POP SWAP2 SWAP1 POP JUMP JUMPDEST PUSH2 0x3511 DUP2 PUSH2 0x34F5 JUMP JUMPDEST DUP3 MSTORE POP POP JUMP JUMPDEST PUSH0 PUSH1 0x20 DUP3 ADD SWAP1 POP PUSH2 0x352A PUSH0 DUP4 ADD DUP5 PUSH2 0x3508 JUMP JUMPDEST SWAP3 SWAP2 POP POP JUMP JUMPDEST PUSH0 PUSH1 0x40 MLOAD SWAP1 POP SWAP1 JUMP JUMPDEST PUSH0 PUSH0 REVERT JUMPDEST PUSH0 PUSH0 REVERT JUMPDEST PUSH0 DUP2 SWAP1 POP SWAP2 SWAP1 POP JUMP JUMPDEST PUSH2 0x3553 DUP2 PUSH2 0x3541 JUMP JUMPDEST DUP2 EQ PUSH2 0x355D JUMPI PUSH0 PUSH0 REVERT JUMPDEST POP JUMP JUMPDEST PUSH0 DUP2 CALLDATALOAD SWAP1 POP PUSH2 0x356E DUP2 PUSH2 0x354A JUMP JUMPDEST SWAP3 SWAP2 POP POP JUMP JUMPDEST PUSH0 PUSH0 REVERT JUMPDEST PUSH0 PUSH0 REVERT JUMPDEST PUSH0 PUSH1 0x1F NOT PUSH1 0x1F DUP4 ADD AND SWAP1 POP SWAP2 SWAP1 POP JUMP JUMPDEST PUSH32 0x4E487B7100000000000000000000000000000000000000000000000000000000 PUSH0 MSTORE PUSH1 0x41 PUSH1 0x4 MSTORE PUSH1 0x24 PUSH0 REVERT JUMPDEST PUSH2 0x35C2 DUP3 PUSH2 0x357C JUMP JUMPDEST DUP2 ADD DUP2 DUP2 LT PUSH8 0xFFFFFFFFFFFFFFFF DUP3 GT OR ISZERO PUSH2 0x35E1 JUMPI PUSH2 0x35E0 PUSH2 0x358C JUMP JUMPDEST JUMPDEST DUP1 PUSH1 0x40 MSTORE POP POP POP JUMP JUMPDEST PUSH0 PUSH2 0x35F3 PUSH2 0x3530 JUMP JUMPDEST SWAP1 POP PUSH2 0x35FF DUP3 DUP3 PUSH2 0x35B9 JUMP JUMPDEST SWAP2 SWAP1 POP JUMP JUMPDEST PUSH0 PUSH8 0xFFFFFFFFFFFFFFFF DUP3 GT ISZERO PUSH2 0x361E JUMPI PUSH2 0x361D PUSH2 0x358C JUMP JUMPDEST JUMPDEST PUSH2 0x3627 DUP3 PUSH2 0x357C JUMP JUMPDEST SWAP1 POP PUSH1 0x20 DUP2 ADD SWAP1 POP SWAP2 SWAP1 POP JUMP JUMPDEST DUP3 DUP2 DUP4 CALLDATACOPY PUSH0 DUP4 DUP4 ADD MSTORE POP POP POP JUMP JUMPDEST PUSH0 PUSH2 0x3654 PUSH2 0x364F DUP5 PUSH2 0x3604 JUMP JUMPDEST PUSH2 0x35EA JUMP JUMPDEST SWAP1 POP DUP3 DUP2 MSTORE PUSH1 0x20 DUP2 ADD DUP5 DUP5 DUP5 ADD GT ISZERO PUSH2 0x3670 JUMPI PUSH2 0x366F PUSH2 0x3578 JUMP JUMPDEST JUMPDEST PUSH2 0x367B DUP5 DUP3 DUP6 PUSH2 0x3634 JUMP JUMPDEST POP SWAP4 SWAP3 POP POP POP JUMP JUMPDEST PUSH0 DUP3 PUSH1 0x1F DUP4 ADD SLT PUSH2 0x3697 JUMPI PUSH2 0x3696 PUSH2 0x3574 JUMP JUMPDEST JUMPDEST DUP2 CALLDATALOAD PUSH2 0x36A7 DUP5 DUP3 PUSH1 0x20 DUP7 ADD PUSH2 0x3642 JUMP JUMPDEST SWAP2 POP POP SWAP3 SWAP2 POP POP JUMP JUMPDEST PUSH0 PUSH0 PUSH0 PUSH1 0x60 DUP5 DUP7 SUB SLT ISZERO PUSH2 0x36C7 JUMPI PUSH2 0x36C6 PUSH2 0x3539 JUMP JUMPDEST JUMPDEST PUSH0 PUSH2 0x36D4 DUP7 DUP3 DUP8 ADD PUSH2 0x3560 JUMP JUMPDEST SWAP4 POP POP PUSH1 0x20 DUP5 ADD CALLDATALOAD PUSH8 0xFFFFFFFFFFFFFFFF DUP2 GT ISZERO PUSH2 0x36F5 JUMPI PUSH2 0x36F4 PUSH2 0x353D JUMP JUMPDEST JUMPDEST PUSH2 0x3701 DUP7 DUP3 DUP8 ADD PUSH2 0x3683 JUMP JUMPDEST SWAP3 POP POP PUSH1 0x40 DUP5 ADD CALLDATALOAD PUSH8 0xFFFFFFFFFFFFFFFF DUP2 GT ISZERO PUSH2 0x3722 JUMPI PUSH2 0x3721 PUSH2 0x353D JUMP JUMPDEST JUMPDEST PUSH2 0x372E DUP7 DUP3 DUP8 ADD PUSH2 0x3683 JUMP JUMPDEST SWAP2 POP POP SWAP3 POP SWAP3 POP SWAP3 JUMP JUMPDEST PUSH2 0x3741 DUP2 PUSH2 0x3541 JUMP JUMPDEST DUP3 MSTORE POP POP JUMP JUMPDEST PUSH0 PUSH1 0x20 DUP3 ADD SWAP1 POP PUSH2 0x375A PUSH0 DUP4 ADD DUP5 PUSH2 0x3738 JUMP JUMPDEST SWAP3 SWAP2 POP POP JUMP JUMPDEST PUSH0 PUSH8 0xFFFFFFFFFFFFFFFF DUP3 GT ISZERO PUSH2 0x377A JUMPI PUSH2 0x3779 PUSH2 0x358C JUMP JUMPDEST JUMPDEST PUSH1 0x20 DUP3 MUL SWAP1 POP PUSH1 0x20 DUP2 ADD SWAP1 POP SWAP2 SWAP1 POP JUMP JUMPDEST PUSH0 PUSH0 REVERT JUMPDEST PUSH0 PUSH8 0xFFFFFFFFFFFFFFFF DUP3 GT ISZERO PUSH2 0x37A9 JUMPI PUSH2 0x37A8 PUSH2 0x358C JUMP JUMPDEST JUMPDEST PUSH2 0x37B2 DUP3 PUSH2 0x357C JUMP JUMPDEST SWAP1 POP PUSH1 0x20 DUP2 ADD SWAP1 POP SWAP2 SWAP1 POP JUMP JUMPDEST PUSH0 PUSH2 0x37D1 PUSH2 0x37CC DUP5 PUSH2 0x378F JUMP JUMPDEST PUSH2 0x35EA JUMP JUMPDEST SWAP1 POP DUP3 DUP2 MSTORE PUSH1 0x20 DUP2 ADD DUP5 DUP5 DUP5 ADD GT ISZERO PUSH2 0x37ED JUMPI PUSH2 0x37EC PUSH2 0x3578 JUMP JUMPDEST JUMPDEST PUSH2 0x37F8 DUP5 DUP3 DUP6 PUSH2 0x3634 JUMP JUMPDEST POP SWAP4 SWAP3 POP POP POP JUMP JUMPDEST PUSH0 DUP3 PUSH1 0x1F DUP4 ADD SLT PUSH2 0x3814 JUMPI PUSH2 0x3813 PUSH2 0x3574 JUMP JUMPDEST JUMPDEST DUP2 CALLDATALOAD PUSH2 0x3824 DUP5 DUP3 PUSH1 0x20 DUP7 ADD PUSH2 0x37BF JUMP JUMPDEST SWAP2 POP POP SWAP3 SWAP2 POP POP JUMP JUMPDEST PUSH0 PUSH2 0x383F PUSH2 0x383A DUP5 PUSH2 0x3760 JUMP JUMPDEST PUSH2 0x35EA JUMP JUMPDEST SWAP1 POP DUP1 DUP4 DUP3 MSTORE PUSH1 0x20 DUP3 ADD SWAP1 POP PUSH1 0x20 DUP5 MUL DUP4 ADD DUP6 DUP2 GT ISZERO PUSH2 0x3862 JUMPI PUSH2 0x3861 PUSH2 0x378B JUMP JUMPDEST JUMPDEST DUP4 JUMPDEST DUP2 DUP2 LT ISZERO PUSH2 0x38A9 JUMPI DUP1 CALLDATALOAD PUSH8 0xFFFFFFFFFFFFFFFF DUP2 GT ISZERO PUSH2 0x3887 JUMPI PUSH2 0x3886 PUSH2 0x3574 JUMP JUMPDEST JUMPDEST DUP1 DUP7 ADD PUSH2 0x3894 DUP10 DUP3 PUSH2 0x3800 JUMP JUMPDEST DUP6 MSTORE PUSH1 0x20 DUP6 ADD SWAP5 POP POP POP PUSH1 0x20 DUP2 ADD SWAP1 POP PUSH2 0x3864 JUMP JUMPDEST POP POP POP SWAP4 SWAP3 POP POP POP JUMP JUMPDEST PUSH0 DUP3 PUSH1 0x1F DUP4 ADD SLT PUSH2 0x38C7 JUMPI PUSH2 0x38C6 PUSH2 0x3574 JUMP JUMPDEST JUMPDEST DUP2 CALLDATALOAD PUSH2 0x38D7 DUP5 DUP3 PUSH1 0x20 DUP7 ADD PUSH2 0x382D JUMP JUMPDEST SWAP2 POP POP SWAP3 SWAP2 POP POP JUMP JUMPDEST PUSH0 PUSH0 REVERT JUMPDEST PUSH0 PUSH0 DUP4 PUSH1 0x1F DUP5 ADD SLT PUSH2 0x38F9 JUMPI PUSH2 0x38F8 PUSH2 0x3574 JUMP JUMPDEST JUMPDEST DUP3 CALLDATALOAD SWAP1 POP PUSH8 0xFFFFFFFFFFFFFFFF DUP2 GT ISZERO PUSH2 0x3916 JUMPI PUSH2 0x3915 PUSH2 0x38E0 JUMP JUMPDEST JUMPDEST PUSH1 0x20 DUP4 ADD SWAP2 POP DUP4 PUSH1 0x1 DUP3 MUL DUP4 ADD GT ISZERO PUSH2 0x3932 JUMPI PUSH2 0x3931 PUSH2 0x378B JUMP JUMPDEST JUMPDEST SWAP3 POP SWAP3 SWAP1 POP JUMP JUMPDEST PUSH0 PUSH0 PUSH0 PUSH1 0x40 DUP5 DUP7 SUB SLT ISZERO PUSH2 0x3950 JUMPI PUSH2 0x394F PUSH2 0x3539 JUMP JUMPDEST JUMPDEST PUSH0 DUP5 ADD CALLDATALOAD PUSH8 0xFFFFFFFFFFFFFFFF DUP2 GT ISZERO PUSH2 0x396D JUMPI PUSH2 0x396C PUSH2 0x353D JUMP JUMPDEST JUMPDEST PUSH2 0x3979 DUP7 DUP3 DUP8 ADD PUSH2 0x38B3 JUMP JUMPDEST SWAP4 POP POP PUSH1 0x20 DUP5 ADD CALLDATALOAD PUSH8 0xFFFFFFFFFFFFFFFF DUP2 GT ISZERO PUSH2 0x399A JUMPI PUSH2 0x3999 PUSH2 0x353D JUMP JUMPDEST JUMPDEST PUSH2 0x39A6 DUP7 DUP3 DUP8 ADD PUSH2 0x38E4 JUMP JUMPDEST SWAP3 POP SWAP3 POP POP SWAP3 POP SWAP3 POP SWAP3 JUMP JUMPDEST PUSH0 PUSH20 0xFFFFFFFFFFFFFFFFFFFFFFFFFFFFFFFFFFFFFFFF DUP3 AND SWAP1 POP SWAP2 SWAP1 POP JUMP JUMPDEST PUSH0 PUSH2 0x39DB DUP3 PUSH2 0x39B2 JUMP JUMPDEST SWAP1 POP SWAP2 SWAP1 POP JUMP JUMPDEST PUSH2 0x39EB DUP2 PUSH2 0x39D1 JUMP JUMPDEST DUP2 EQ PUSH2 0x39F5 JUMPI PUSH0 PUSH0 REVERT JUMPDEST POP JUMP JUMPDEST PUSH0 DUP2 CALLDATALOAD SWAP1 POP PUSH2 0x3A06 DUP2 PUSH2 0x39E2 JUMP JUMPDEST SWAP3 SWAP2 POP POP JUMP JUMPDEST PUSH0 PUSH1 0x20 DUP3 DUP5 SUB SLT ISZERO PUSH2 0x3A21 JUMPI PUSH2 0x3A20 PUSH2 0x3539 JUMP JUMPDEST JUMPDEST PUSH0 PUSH2 0x3A2E DUP5 DUP3 DUP6 ADD PUSH2 0x39F8 JUMP JUMPDEST SWAP2 POP POP SWAP3 SWAP2 POP POP JUMP JUMPDEST PUSH0 DUP2 MLOAD SWAP1 POP SWAP2 SWAP1 POP JUMP JUMPDEST PUSH0 DUP3 DUP3 MSTORE PUSH1 0x20 DUP3 ADD SWAP1 POP SWAP3 SWAP2 POP POP JUMP JUMPDEST DUP3 DUP2 DUP4 MCOPY PUSH0 DUP4 DUP4 ADD MSTORE POP POP POP JUMP JUMPDEST PUSH0 PUSH2 0x3A69 DUP3 PUSH2 0x3A37 JUMP JUMPDEST PUSH2 0x3A73 DUP2 DUP6 PUSH2 0x3A41 JUMP JUMPDEST SWAP4 POP PUSH2 0x3A83 DUP2 DUP6 PUSH1 0x20 DUP7 ADD PUSH2 0x3A51 JUMP JUMPDEST PUSH2 0x3A8C DUP2 PUSH2 0x357C JUMP JUMPDEST DUP5 ADD SWAP2 POP POP SWAP3 SWAP2 POP POP JUMP JUMPDEST PUSH0 PUSH1 0xFF DUP3 AND SWAP1 POP SWAP2 SWAP1 POP JUMP JUMPDEST PUSH2 0x3AAC DUP2 PUSH2 0x3A97 JUMP JUMPDEST DUP3 MSTORE POP POP JUMP JUMPDEST PUSH0 DUP2 SWAP1 POP SWAP2 SWAP1 POP JUMP JUMPDEST PUSH2 0x3AC4 DUP2 PUSH2 0x3AB2 JUMP JUMPDEST DUP3 MSTORE POP POP JUMP JUMPDEST PUSH0 DUP2 ISZERO ISZERO SWAP1 POP SWAP2 SWAP1 POP JUMP JUMPDEST PUSH2 0x3ADE DUP2 PUSH2 0x3ACA JUMP JUMPDEST DUP3 MSTORE POP POP JUMP JUMPDEST PUSH0 PUSH1 0xC0 DUP3 ADD SWAP1 POP DUP2 DUP2 SUB PUSH0 DUP4 ADD MSTORE PUSH2 0x3AFC DUP2 DUP10 PUSH2 0x3A5F JUMP JUMPDEST SWAP1 POP PUSH2 0x3B0B PUSH1 0x20 DUP4 ADD DUP9 PUSH2 0x3AA3 JUMP JUMPDEST PUSH2 0x3B18 PUSH1 0x40 DUP4 ADD DUP8 PUSH2 0x3ABB JUMP JUMPDEST PUSH2 0x3B25 PUSH1 0x60 DUP4 ADD DUP7 PUSH2 0x3ABB JUMP JUMPDEST PUSH2 0x3B32 PUSH1 0x80 DUP4 ADD DUP6 PUSH2 0x3AD5 JUMP JUMPDEST PUSH2 0x3B3F PUSH1 0xA0 DUP4 ADD DUP5 PUSH2 0x3AA3 JUMP JUMPDEST SWAP8 SWAP7 POP POP POP POP POP POP POP JUMP JUMPDEST PUSH0 PUSH1 0x20 DUP3 ADD SWAP1 POP PUSH2 0x3B5D PUSH0 DUP4 ADD DUP5 PUSH2 0x3AA3 JUMP JUMPDEST SWAP3 SWAP2 POP POP JUMP JUMPDEST PUSH0 DUP2 SWAP1 POP SWAP2 SWAP1 POP JUMP JUMPDEST PUSH0 PUSH2 0x3B86 PUSH2 0x3B81 PUSH2 0x3B7C DUP5 PUSH2 0x39B2 JUMP JUMPDEST PUSH2 0x3B63 JUMP JUMPDEST PUSH2 0x39B2 JUMP JUMPDEST SWAP1 POP SWAP2 SWAP1 POP JUMP JUMPDEST PUSH0 PUSH2 0x3B97 DUP3 PUSH2 0x3B6C JUMP JUMPDEST SWAP1 POP SWAP2 SWAP1 POP JUMP JUMPDEST PUSH0 PUSH2 0x3BA8 DUP3 PUSH2 0x3B8D JUMP JUMPDEST SWAP1 POP SWAP2 SWAP1 POP JUMP JUMPDEST PUSH2 0x3BB8 DUP2 PUSH2 0x3B9E JUMP JUMPDEST DUP3 MSTORE POP POP JUMP JUMPDEST PUSH0 PUSH1 0x20 DUP3 ADD SWAP1 POP PUSH2 0x3BD1 PUSH0 DUP4 ADD DUP5 PUSH2 0x3BAF JUMP JUMPDEST SWAP3 SWAP2 POP POP JUMP JUMPDEST PUSH2 0x3BE0 DUP2 PUSH2 0x39D1 JUMP JUMPDEST DUP3 MSTORE POP POP JUMP JUMPDEST PUSH0 PUSH1 0x20 DUP3 ADD SWAP1 POP PUSH2 0x3BF9 PUSH0 DUP4 ADD DUP5 PUSH2 0x3BD7 JUMP JUMPDEST SWAP3 SWAP2 POP POP JUMP JUMPDEST PUSH0 PUSH4 0xFFFFFFFF DUP3 AND SWAP1 POP SWAP2 SWAP1 POP JUMP JUMPDEST PUSH2 0x3C17 DUP2 PUSH2 0x3BFF JUMP JUMPDEST DUP3 MSTORE POP POP JUMP JUMPDEST PUSH0 PUSH1 0x20 DUP3 ADD SWAP1 POP PUSH2 0x3C30 PUSH0 DUP4 ADD DUP5 PUSH2 0x3C0E JUMP JUMPDEST SWAP3 SWAP2 POP POP JUMP JUMPDEST PUSH0 PUSH1 0x20 DUP3 ADD SWAP1 POP PUSH2 0x3C49 PUSH0 DUP4 ADD DUP5 PUSH2 0x3ABB JUMP JUMPDEST SWAP3 SWAP2 POP POP JUMP JUMPDEST PUSH0 PUSH2 0x3C59 DUP3 PUSH2 0x3B8D JUMP JUMPDEST SWAP1 POP SWAP2 SWAP1 POP JUMP JUMPDEST PUSH2 0x3C69 DUP2 PUSH2 0x3C4F JUMP JUMPDEST DUP3 MSTORE POP POP JUMP JUMPDEST PUSH0 PUSH1 0x20 DUP3 ADD SWAP1 POP PUSH2 0x3C82 PUSH0 DUP4 ADD DUP5 PUSH2 0x3C60 JUMP JUMPDEST SWAP3 SWAP2 POP POP JUMP JUMPDEST PUSH2 0x3C91 DUP2 PUSH2 0x3A97 JUMP JUMPDEST DUP2 EQ PUSH2 0x3C9B JUMPI PUSH0 PUSH0 REVERT JUMPDEST POP JUMP JUMPDEST PUSH0 DUP2 CALLDATALOAD SWAP1 POP PUSH2 0x3CAC DUP2 PUSH2 0x3C88 JUMP JUMPDEST SWAP3 SWAP2 POP POP JUMP JUMPDEST PUSH0 PUSH1 0x20 DUP3 DUP5 SUB SLT ISZERO PUSH2 0x3CC7 JUMPI PUSH2 0x3CC6 PUSH2 0x3539 JUMP JUMPDEST JUMPDEST PUSH0 PUSH2 0x3CD4 DUP5 DUP3 DUP6 ADD PUSH2 0x3C9E JUMP JUMPDEST SWAP2 POP POP SWAP3 SWAP2 POP POP JUMP JUMPDEST PUSH32 0x4E656564203E3D203520646F6D61696E73000000000000000000000000000000 PUSH0 DUP3 ADD MSTORE POP JUMP JUMPDEST PUSH0 PUSH2 0x3D11 PUSH1 0x11 DUP4 PUSH2 0x3A41 JUMP JUMPDEST SWAP2 POP PUSH2 0x3D1C DUP3 PUSH2 0x3CDD JUMP JUMPDEST PUSH1 0x20 DUP3 ADD SWAP1 POP SWAP2 SWAP1 POP JUMP JUMPDEST PUSH0 PUSH1 0x20 DUP3 ADD SWAP1 POP DUP2 DUP2 SUB PUSH0 DUP4 ADD MSTORE PUSH2 0x3D3E DUP2 PUSH2 0x3D05 JUMP JUMPDEST SWAP1 POP SWAP2 SWAP1 POP JUMP JUMPDEST PUSH0 DUP2 SWAP1 POP SWAP3 SWAP2 POP POP JUMP JUMPDEST PUSH32 0x4561737900000000000000000000000000000000000000000000000000000000 PUSH0 DUP3 ADD MSTORE POP JUMP JUMPDEST PUSH0 PUSH2 0x3D83 PUSH1 0x4 DUP4 PUSH2 0x3D45 JUMP JUMPDEST SWAP2 POP PUSH2 0x3D8E DUP3 PUSH2 0x3D4F JUMP JUMPDEST PUSH1 0x4 DUP3 ADD SWAP1 POP SWAP2 SWAP1 POP JUMP JUMPDEST PUSH0 PUSH2 0x3DA3 DUP3 PUSH2 0x3D77 JUMP JUMPDEST SWAP2 POP DUP2 SWAP1 POP SWAP2 SWAP1 POP JUMP JUMPDEST PUSH0 PUSH2 0x3DB8 DUP4 DUP6 PUSH2 0x3D45 JUMP JUMPDEST SWAP4 POP PUSH2 0x3DC5 DUP4 DUP6 DUP5 PUSH2 0x3634 JUMP JUMPDEST DUP3 DUP5 ADD SWAP1 POP SWAP4 SWAP3 POP POP POP JUMP JUMPDEST PUSH0 PUSH2 0x3DDD DUP3 DUP5 DUP7 PUSH2 0x3DAD JUMP JUMPDEST SWAP2 POP DUP2 SWAP1 POP SWAP4 SWAP3 POP POP POP JUMP JUMPDEST PUSH32 0x4D656469756D0000000000000000000000000000000000000000000000000000 PUSH0 DUP3 ADD MSTORE POP JUMP JUMPDEST PUSH0 PUSH2 0x3E1D PUSH1 0x6 DUP4 PUSH2 0x3D45 JUMP JUMPDEST SWAP2 POP PUSH2 0x3E28 DUP3 PUSH2 0x3DE9 JUMP JUMPDEST PUSH1 0x6 DUP3 ADD SWAP1 POP SWAP2 SWAP1 POP JUMP JUMPDEST PUSH0 PUSH2 0x3E3D DUP3 PUSH2 0x3E11 JUMP JUMPDEST SWAP2 POP DUP2 SWAP1 POP SWAP2 SWAP1 POP JUMP JUMPDEST PUSH32 0x4861726400000000000000000000000000000000000000000000000000000000 PUSH0 DUP3 ADD MSTORE POP JUMP JUMPDEST PUSH0 PUSH2 0x3E7B PUSH1 0x4 DUP4 PUSH2 0x3D45 JUMP JUMPDEST SWAP2 POP PUSH2 0x3E86 DUP3 PUSH2 0x3E47 JUMP JUMPDEST PUSH1 0x4 DUP3 ADD SWAP1 POP SWAP2 SWAP1 POP JUMP JUMPDEST PUSH0 PUSH2 0x3E9B DUP3 PUSH2 0x3E6F JUMP JUMPDEST SWAP2 POP DUP2 SWAP1 POP SWAP2 SWAP1 POP JUMP JUMPDEST PUSH32 0x496E76616C696420646966666963756C74790000000000000000000000000000 PUSH0 DUP3 ADD MSTORE POP JUMP JUMPDEST PUSH0 PUSH2 0x3ED9 PUSH1 0x12 DUP4 PUSH2 0x3A41 JUMP JUMPDEST SWAP2 POP PUSH2 0x3EE4 DUP3 PUSH2 0x3EA5 JUMP JUMPDEST PUSH1 0x20 DUP3 ADD SWAP1 POP SWAP2 SWAP1 POP JUMP JUMPDEST PUSH0 PUSH1 0x20 DUP3 ADD SWAP1 POP DUP2 DUP2 SUB PUSH0 DUP4 ADD MSTORE PUSH2 0x3F06 DUP2 PUSH2 0x3ECD JUMP JUMPDEST SWAP1 POP SWAP2 SWAP1 POP JUMP JUMPDEST PUSH32 0x4E487B7100000000000000000000000000000000000000000000000000000000 PUSH0 MSTORE PUSH1 0x11 PUSH1 0x4 MSTORE PUSH1 0x24 PUSH0 REVERT JUMPDEST PUSH0 PUSH2 0x3F44 DUP3 PUSH2 0x3AB2 JUMP JUMPDEST SWAP2 POP PUSH2 0x3F4F DUP4 PUSH2 0x3AB2 JUMP JUMPDEST SWAP3 POP DUP3 DUP3 ADD SWAP1 POP DUP1 DUP3 GT ISZERO PUSH2 0x3F67 JUMPI PUSH2 0x3F66 PUSH2 0x3F0D JUMP JUMPDEST JUMPDEST SWAP3 SWAP2 POP POP JUMP JUMPDEST PUSH32 0x5175697A20696E2070726F677265737300000000000000000000000000000000 PUSH0 DUP3 ADD MSTORE POP JUMP JUMPDEST PUSH0 PUSH2 0x3FA1 PUSH1 0x10 DUP4 PUSH2 0x3A41 JUMP JUMPDEST SWAP2 POP PUSH2 0x3FAC DUP3 PUSH2 0x3F6D JUMP JUMPDEST PUSH1 0x20 DUP3 ADD SWAP1 POP SWAP2 SWAP1 POP JUMP JUMPDEST PUSH0 PUSH1 0x20 DUP3 ADD SWAP1 POP DUP2 DUP2 SUB PUSH0 DUP4 ADD MSTORE PUSH2 0x3FCE DUP2 PUSH2 0x3F95 JUMP JUMPDEST SWAP1 POP SWAP2 SWAP1 POP JUMP JUMPDEST PUSH0 PUSH1 0x60 DUP3 ADD SWAP1 POP PUSH2 0x3FE8 PUSH0 DUP4 ADD DUP7 PUSH2 0x3BD7 JUMP JUMPDEST PUSH2 0x3FF5 PUSH1 0x20 DUP4 ADD DUP6 PUSH2 0x3BD7 JUMP JUMPDEST PUSH2 0x4002 PUSH1 0x40 DUP4 ADD DUP5 PUSH2 0x3ABB JUMP JUMPDEST SWAP5 SWAP4 POP POP POP POP JUMP JUMPDEST PUSH2 0x4013 DUP2 PUSH2 0x3ACA JUMP JUMPDEST DUP2 EQ PUSH2 0x401D JUMPI PUSH0 PUSH0 REVERT JUMPDEST POP JUMP JUMPDEST PUSH0 DUP2 MLOAD SWAP1 POP PUSH2 0x402E DUP2 PUSH2 0x400A JUMP JUMPDEST SWAP3 SWAP2 POP POP JUMP JUMPDEST PUSH0 PUSH1 0x20 DUP3 DUP5 SUB SLT ISZERO PUSH2 0x4049 JUMPI PUSH2 0x4048 PUSH2 0x3539 JUMP JUMPDEST JUMPDEST PUSH0 PUSH2 0x4056 DUP5 DUP3 DUP6 ADD PUSH2 0x4020 JUMP JUMPDEST SWAP2 POP POP SWAP3 SWAP2 POP POP JUMP JUMPDEST PUSH32 0x466565207472616E73666572206661696C656400000000000000000000000000 PUSH0 DUP3 ADD MSTORE POP JUMP JUMPDEST PUSH0 PUSH2 0x4093 PUSH1 0x13 DUP4 PUSH2 0x3A41 JUMP JUMPDEST SWAP2 POP PUSH2 0x409E DUP3 PUSH2 0x405F JUMP JUMPDEST PUSH1 0x20 DUP3 ADD SWAP1 POP SWAP2 SWAP1 POP JUMP JUMPDEST PUSH0 PUSH1 0x20 DUP3 ADD SWAP1 POP DUP2 DUP2 SUB PUSH0 DUP4 ADD MSTORE PUSH2 0x40C0 DUP2 PUSH2 0x4087 JUMP JUMPDEST SWAP1 POP SWAP2 SWAP1 POP JUMP JUMPDEST PUSH32 0x4E487B7100000000000000000000000000000000000000000000000000000000 PUSH0 MSTORE PUSH1 0x22 PUSH1 0x4 MSTORE PUSH1 0x24 PUSH0 REVERT JUMPDEST PUSH0 PUSH1 0x2 DUP3 DIV SWAP1 POP PUSH1 0x1 DUP3 AND DUP1 PUSH2 0x410B JUMPI PUSH1 0x7F DUP3 AND SWAP2 POP JUMPDEST PUSH1 0x20 DUP3 LT DUP2 SUB PUSH2 0x411E JUMPI PUSH2 0x411D PUSH2 0x40C7 JUMP JUMPDEST JUMPDEST POP SWAP2 SWAP1 POP JUMP JUMPDEST PUSH0 DUP2 SWAP1 POP DUP2 PUSH0 MSTORE PUSH1 0x20 PUSH0 KECCAK256 SWAP1 POP SWAP2 SWAP1 POP JUMP JUMPDEST PUSH0 PUSH1 0x20 PUSH1 0x1F DUP4 ADD DIV SWAP1 POP SWAP2 SWAP1 POP JUMP JUMPDEST PUSH0 DUP3 DUP3 SHL SWAP1 POP SWAP3 SWAP2 POP POP JUMP JUMPDEST PUSH0 PUSH1 0x8 DUP4 MUL PUSH2 0x4180 PUSH32 0xFFFFFFFFFFFFFFFFFFFFFFFFFFFFFFFFFFFFFFFFFFFFFFFFFFFFFFFFFFFFFFFF DUP3 PUSH2 0x4145 JUMP JUMPDEST PUSH2 0x418A DUP7 DUP4 PUSH2 0x4145 JUMP JUMPDEST SWAP6 POP DUP1 NOT DUP5 AND SWAP4 POP DUP1 DUP7 AND DUP5 OR SWAP3 POP POP POP SWAP4 SWAP3 POP POP POP JUMP JUMPDEST PUSH0 PUSH2 0x41BC PUSH2 0x41B7 PUSH2 0x41B2 DUP5 PUSH2 0x3AB2 JUMP JUMPDEST PUSH2 0x3B63 JUMP JUMPDEST PUSH2 0x3AB2 JUMP JUMPDEST SWAP1 POP SWAP2 SWAP1 POP JUMP JUMPDEST PUSH0 DUP2 SWAP1 POP SWAP2 SWAP1 POP JUMP JUMPDEST PUSH2 0x41D5 DUP4 PUSH2 0x41A2 JUMP JUMPDEST PUSH2 0x41E9 PUSH2 0x41E1 DUP3 PUSH2 0x41C3 JUMP JUMPDEST DUP5 DUP5 SLOAD PUSH2 0x4151 JUMP JUMPDEST DUP3 SSTORE POP POP POP POP JUMP JUMPDEST PUSH0 PUSH0 SWAP1 POP SWAP1 JUMP JUMPDEST PUSH2 0x4200 PUSH2 0x41F1 JUMP JUMPDEST PUSH2 0x420B DUP2 DUP5 DUP5 PUSH2 0x41CC JUMP JUMPDEST POP POP POP JUMP JUMPDEST JUMPDEST DUP2 DUP2 LT ISZERO PUSH2 0x422E JUMPI PUSH2 0x4223 PUSH0 DUP3 PUSH2 0x41F8 JUMP JUMPDEST PUSH1 0x1 DUP2 ADD SWAP1 POP PUSH2 0x4211 JUMP JUMPDEST POP POP JUMP JUMPDEST PUSH1 0x1F DUP3 GT ISZERO PUSH2 0x4273 JUMPI PUSH2 0x4244 DUP2 PUSH2 0x4124 JUMP JUMPDEST PUSH2 0x424D DUP5 PUSH2 0x4136 JUMP JUMPDEST DUP2 ADD PUSH1 0x20 DUP6 LT ISZERO PUSH2 0x425C JUMPI DUP2 SWAP1 POP JUMPDEST PUSH2 0x4270 PUSH2 0x4268 DUP6 PUSH2 0x4136 JUMP JUMPDEST DUP4 ADD DUP3 PUSH2 0x4210 JUMP JUMPDEST POP POP JUMPDEST POP POP POP JUMP JUMPDEST PUSH0 DUP3 DUP3 SHR SWAP1 POP SWAP3 SWAP2 POP POP JUMP JUMPDEST PUSH0 PUSH2 0x4293 PUSH0 NOT DUP5 PUSH1 0x8 MUL PUSH2 0x4278 JUMP JUMPDEST NOT DUP1 DUP4 AND SWAP2 POP POP SWAP3 SWAP2 POP POP JUMP JUMPDEST PUSH0 PUSH2 0x42AB DUP4 DUP4 PUSH2 0x4284 JUMP JUMPDEST SWAP2 POP DUP3 PUSH1 0x2 MUL DUP3 OR SWAP1 POP SWAP3 SWAP2 POP POP JUMP JUMPDEST PUSH2 0x42C4 DUP3 PUSH2 0x3A37 JUMP JUMPDEST PUSH8 0xFFFFFFFFFFFFFFFF DUP2 GT ISZERO PUSH2 0x42DD JUMPI PUSH2 0x42DC PUSH2 0x358C JUMP JUMPDEST JUMPDEST PUSH2 0x42E7 DUP3 SLOAD PUSH2 0x40F4 JUMP JUMPDEST PUSH2 0x42F2 DUP3 DUP3 DUP6 PUSH2 0x4232 JUMP JUMPDEST PUSH0 PUSH1 0x20 SWAP1 POP PUSH1 0x1F DUP4 GT PUSH1 0x1 DUP2 EQ PUSH2 0x4323 JUMPI PUSH0 DUP5 ISZERO PUSH2 0x4311 JUMPI DUP3 DUP8 ADD MLOAD SWAP1 POP JUMPDEST PUSH2 0x431B DUP6 DUP3 PUSH2 0x42A0 JUMP JUMPDEST DUP7 SSTORE POP PUSH2 0x4382 JUMP JUMPDEST PUSH1 0x1F NOT DUP5 AND PUSH2 0x4331 DUP7 PUSH2 0x4124 JUMP JUMPDEST PUSH0 JUMPDEST DUP3 DUP2 LT ISZERO PUSH2 0x4358 JUMPI DUP5 DUP10 ADD MLOAD DUP3 SSTORE PUSH1 0x1 DUP3 ADD SWAP2 POP PUSH1 0x20 DUP6 ADD SWAP5 POP PUSH1 0x20 DUP2 ADD SWAP1 POP PUSH2 0x4333 JUMP JUMPDEST DUP7 DUP4 LT ISZERO PUSH2 0x4375 JUMPI DUP5 DUP10 ADD MLOAD PUSH2 0x4371 PUSH1 0x1F DUP10 AND DUP3 PUSH2 0x4284 JUMP JUMPDEST DUP4 SSTORE POP JUMPDEST PUSH1 0x1 PUSH1 0x2 DUP9 MUL ADD DUP9 SSTORE POP POP POP JUMPDEST POP POP POP POP POP POP JUMP JUMPDEST PUSH32 0x4E487B7100000000000000000000000000000000000000000000000000000000 PUSH0 MSTORE PUSH1 0x32 PUSH1 0x4 MSTORE PUSH1 0x24 PUSH0 REVERT JUMPDEST PUSH32 0x4D7573742062652070726F706F736564206F776E657200000000000000000000 PUSH0 DUP3 ADD MSTORE POP JUMP JUMPDEST PUSH0 PUSH2 0x43EB PUSH1 0x16 DUP4 PUSH2 0x3A41 JUMP JUMPDEST SWAP2 POP PUSH2 0x43F6 DUP3 PUSH2 0x43B7 JUMP JUMPDEST PUSH1 0x20 DUP3 ADD SWAP1 POP SWAP2 SWAP1 POP JUMP JUMPDEST PUSH0 PUSH1 0x20 DUP3 ADD SWAP1 POP DUP2 DUP2 SUB PUSH0 DUP4 ADD MSTORE PUSH2 0x4418 DUP2 PUSH2 0x43DF JUMP JUMPDEST SWAP1 POP SWAP2 SWAP1 POP JUMP JUMPDEST PUSH32 0x4E6F20616374697665207175697A000000000000000000000000000000000000 PUSH0 DUP3 ADD MSTORE POP JUMP JUMPDEST PUSH0 PUSH2 0x4453 PUSH1 0xE DUP4 PUSH2 0x3A41 JUMP JUMPDEST SWAP2 POP PUSH2 0x445E DUP3 PUSH2 0x441F JUMP JUMPDEST PUSH1 0x20 DUP3 ADD SWAP1 POP SWAP2 SWAP1 POP JUMP JUMPDEST PUSH0 PUSH1 0x20 DUP3 ADD SWAP1 POP DUP2 DUP2 SUB PUSH0 DUP4 ADD MSTORE PUSH2 0x4480 DUP2 PUSH2 0x4447 JUMP JUMPDEST SWAP1 POP SWAP2 SWAP1 POP JUMP JUMPDEST PUSH32 0x4578706972656400000000000000000000000000000000000000000000000000 PUSH0 DUP3 ADD MSTORE POP JUMP JUMPDEST PUSH0 PUSH2 0x44BB PUSH1 0x7 DUP4 PUSH2 0x3A41 JUMP JUMPDEST SWAP2 POP PUSH2 0x44C6 DUP3 PUSH2 0x4487 JUMP JUMPDEST PUSH1 0x20 DUP3 ADD SWAP1 POP SWAP2 SWAP1 POP JUMP JUMPDEST PUSH0 PUSH1 0x20 DUP3 ADD SWAP1 POP DUP2 DUP2 SUB PUSH0 DUP4 ADD MSTORE PUSH2 0x44E8 DUP2 PUSH2 0x44AF JUMP JUMPDEST SWAP1 POP SWAP2 SWAP1 POP JUMP JUMPDEST PUSH0 PUSH1 0x40 DUP3 ADD SWAP1 POP PUSH2 0x4502 PUSH0 DUP4 ADD DUP6 PUSH2 0x3BD7 JUMP JUMPDEST PUSH2 0x450F PUSH1 0x20 DUP4 ADD DUP5 PUSH2 0x3ABB JUMP JUMPDEST SWAP4 SWAP3 POP POP POP JUMP JUMPDEST PUSH32 0x5175697A20636F6D706C65746500000000000000000000000000000000000000 PUSH0 DUP3 ADD MSTORE POP JUMP JUMPDEST PUSH0 PUSH2 0x454A PUSH1 0xD DUP4 PUSH2 0x3A41 JUMP JUMPDEST SWAP2 POP PUSH2 0x4555 DUP3 PUSH2 0x4516 JUMP JUMPDEST PUSH1 0x20 DUP3 ADD SWAP1 POP SWAP2 SWAP1 POP JUMP JUMPDEST PUSH0 PUSH1 0x20 DUP3 ADD SWAP1 POP DUP2 DUP2 SUB PUSH0 DUP4 ADD MSTORE PUSH2 0x4577 DUP2 PUSH2 0x453E JUMP JUMPDEST SWAP1 POP SWAP2 SWAP1 POP JUMP JUMPDEST PUSH32 0x556E6B6E6F776E20726571756573740000000000000000000000000000000000 PUSH0 DUP3 ADD MSTORE POP JUMP JUMPDEST PUSH0 PUSH2 0x45B2 PUSH1 0xF DUP4 PUSH2 0x3A41 JUMP JUMPDEST SWAP2 POP PUSH2 0x45BD DUP3 PUSH2 0x457E JUMP JUMPDEST PUSH1 0x20 DUP3 ADD SWAP1 POP SWAP2 SWAP1 POP JUMP JUMPDEST PUSH0 PUSH1 0x20 DUP3 ADD SWAP1 POP DUP2 DUP2 SUB PUSH0 DUP4 ADD MSTORE PUSH2 0x45DF DUP2 PUSH2 0x45A6 JUMP JUMPDEST SWAP1 POP SWAP2 SWAP1 POP JUMP JUMPDEST PUSH32 0x53657373696F6E20656E64656400000000000000000000000000000000000000 PUSH0 DUP3 ADD MSTORE POP JUMP JUMPDEST PUSH0 PUSH2 0x461A PUSH1 0xD DUP4 PUSH2 0x3A41 JUMP JUMPDEST SWAP2 POP PUSH2 0x4625 DUP3 PUSH2 0x45E6 JUMP JUMPDEST PUSH1 0x20 DUP3 ADD SWAP1 POP SWAP2 SWAP1 POP JUMP JUMPDEST PUSH0 PUSH1 0x20 DUP3 ADD SWAP1 POP DUP2 DUP2 SUB PUSH0 DUP4 ADD MSTORE PUSH2 0x4647 DUP2 PUSH2 0x460E JUMP JUMPDEST SWAP1 POP SWAP2 SWAP1 POP JUMP JUMPDEST PUSH0 DUP2 MLOAD SWAP1 POP SWAP2 SWAP1 POP JUMP JUMPDEST PUSH0 DUP3 DUP3 MSTORE PUSH1 0x20 DUP3 ADD SWAP1 POP SWAP3 SWAP2 POP POP JUMP JUMPDEST PUSH0 PUSH2 0x4672 DUP3 PUSH2 0x464E JUMP JUMPDEST PUSH2 0x467C DUP2 DUP6 PUSH2 0x4658 JUMP JUMPDEST SWAP4 POP PUSH2 0x468C DUP2 DUP6 PUSH1 0x20 DUP7 ADD PUSH2 0x3A51 JUMP JUMPDEST PUSH2 0x4695 DUP2 PUSH2 0x357C JUMP JUMPDEST DUP5 ADD SWAP2 POP POP SWAP3 SWAP2 POP POP JUMP JUMPDEST PUSH0 PUSH1 0x40 DUP3 ADD SWAP1 POP DUP2 DUP2 SUB PUSH0 DUP4 ADD MSTORE PUSH2 0x46B8 DUP2 DUP6 PUSH2 0x3A5F JUMP JUMPDEST SWAP1 POP DUP2 DUP2 SUB PUSH1 0x20 DUP4 ADD MSTORE PUSH2 0x46CC DUP2 DUP5 PUSH2 0x4668 JUMP JUMPDEST SWAP1 POP SWAP4 SWAP3 POP POP POP JUMP JUMPDEST PUSH32 0x46756E6374696F6E73206572726F723A20000000000000000000000000000000 PUSH0 DUP3 ADD MSTORE POP JUMP JUMPDEST PUSH0 PUSH2 0x4709 PUSH1 0x11 DUP4 PUSH2 0x3D45 JUMP JUMPDEST SWAP2 POP PUSH2 0x4714 DUP3 PUSH2 0x46D5 JUMP JUMPDEST PUSH1 0x11 DUP3 ADD SWAP1 POP SWAP2 SWAP1 POP JUMP JUMPDEST PUSH0 DUP2 SWAP1 POP SWAP3 SWAP2 POP POP JUMP JUMPDEST PUSH0 PUSH2 0x4733 DUP3 PUSH2 0x464E JUMP JUMPDEST PUSH2 0x473D DUP2 DUP6 PUSH2 0x471F JUMP JUMPDEST SWAP4 POP PUSH2 0x474D DUP2 DUP6 PUSH1 0x20 DUP7 ADD PUSH2 0x3A51 JUMP JUMPDEST DUP1 DUP5 ADD SWAP2 POP POP SWAP3 SWAP2 POP POP JUMP JUMPDEST PUSH0 PUSH2 0x4763 DUP3 PUSH2 0x46FD JUMP JUMPDEST SWAP2 POP PUSH2 0x476F DUP3 DUP5 PUSH2 0x4729 JUMP JUMPDEST SWAP2 POP DUP2 SWAP1 POP SWAP3 SWAP2 POP POP JUMP JUMPDEST PUSH0 PUSH1 0x20 DUP3 ADD SWAP1 POP DUP2 DUP2 SUB PUSH0 DUP4 ADD MSTORE PUSH2 0x4792 DUP2 DUP5 PUSH2 0x3A5F JUMP JUMPDEST SWAP1 POP SWAP3 SWAP2 POP POP JUMP JUMPDEST PUSH32 0x546F6F206D616E79207175657374696F6E730000000000000000000000000000 PUSH0 DUP3 ADD MSTORE POP JUMP JUMPDEST PUSH0 PUSH2 0x47CE PUSH1 0x12 DUP4 PUSH2 0x3A41 JUMP JUMPDEST SWAP2 POP PUSH2 0x47D9 DUP3 PUSH2 0x479A JUMP JUMPDEST PUSH1 0x20 DUP3 ADD SWAP1 POP SWAP2 SWAP1 POP JUMP JUMPDEST PUSH0 PUSH1 0x20 DUP3 ADD SWAP1 POP DUP2 DUP2 SUB PUSH0 DUP4 ADD MSTORE PUSH2 0x47FB DUP2 PUSH2 0x47C2 JUMP JUMPDEST SWAP1 POP SWAP2 SWAP1 POP JUMP JUMPDEST PUSH32 0x496E76616C6964207175697A4964000000000000000000000000000000000000 PUSH0 DUP3 ADD MSTORE POP JUMP JUMPDEST PUSH0 PUSH2 0x4836 PUSH1 0xE DUP4 PUSH2 0x3A41 JUMP JUMPDEST SWAP2 POP PUSH2 0x4841 DUP3 PUSH2 0x4802 JUMP JUMPDEST PUSH1 0x20 DUP3 ADD SWAP1 POP SWAP2 SWAP1 POP JUMP JUMPDEST PUSH0 PUSH1 0x20 DUP3 ADD SWAP1 POP DUP2 DUP2 SUB PUSH0 DUP4 ADD MSTORE PUSH2 0x4863 DUP2 PUSH2 0x482A JUMP JUMPDEST SWAP1 POP SWAP2 SWAP1 POP JUMP JUMPDEST PUSH0 DUP2 SLOAD PUSH2 0x4876 DUP2 PUSH2 0x40F4 JUMP JUMPDEST PUSH2 0x4880 DUP2 DUP7 PUSH2 0x3D45 JUMP JUMPDEST SWAP5 POP PUSH1 0x1 DUP3 AND PUSH0 DUP2 EQ PUSH2 0x489A JUMPI PUSH1 0x1 DUP2 EQ PUSH2 0x48AF JUMPI PUSH2 0x48E1 JUMP JUMPDEST PUSH1 0xFF NOT DUP4 AND DUP7 MSTORE DUP2 ISZERO ISZERO DUP3 MUL DUP7 ADD SWAP4 POP PUSH2 0x48E1 JUMP JUMPDEST PUSH2 0x48B8 DUP6 PUSH2 0x4124 JUMP JUMPDEST PUSH0 JUMPDEST DUP4 DUP2 LT ISZERO PUSH2 0x48D9 JUMPI DUP2 SLOAD DUP2 DUP10 ADD MSTORE PUSH1 0x1 DUP3 ADD SWAP2 POP PUSH1 0x20 DUP2 ADD SWAP1 POP PUSH2 0x48BA JUMP JUMPDEST DUP4 DUP9 ADD SWAP6 POP POP POP JUMPDEST POP POP POP SWAP3 SWAP2 POP POP JUMP JUMPDEST PUSH0 PUSH2 0x48F5 DUP3 DUP5 PUSH2 0x486A JUMP JUMPDEST SWAP2 POP DUP2 SWAP1 POP SWAP3 SWAP2 POP POP JUMP JUMPDEST PUSH0 PUSH2 0x490A DUP3 PUSH2 0x3A37 JUMP JUMPDEST PUSH2 0x4914 DUP2 DUP6 PUSH2 0x3D45 JUMP JUMPDEST SWAP4 POP PUSH2 0x4924 DUP2 DUP6 PUSH1 0x20 DUP7 ADD PUSH2 0x3A51 JUMP JUMPDEST DUP1 DUP5 ADD SWAP2 POP POP SWAP3 SWAP2 POP POP JUMP JUMPDEST PUSH0 PUSH2 0x493B DUP3 DUP5 PUSH2 0x4900 JUMP JUMPDEST SWAP2 POP DUP2 SWAP1 POP SWAP3 SWAP2 POP POP JUMP JUMPDEST PUSH32 0x5175697A4964206D69736D617463680000000000000000000000000000000000 PUSH0 DUP3 ADD MSTORE POP JUMP JUMPDEST PUSH0 PUSH2 0x497A PUSH1 0xF DUP4 PUSH2 0x3A41 JUMP JUMPDEST SWAP2 POP PUSH2 0x4985 DUP3 PUSH2 0x4946 JUMP JUMPDEST PUSH1 0x20 DUP3 ADD SWAP1 POP SWAP2 SWAP1 POP JUMP JUMPDEST PUSH0 PUSH1 0x20 DUP3 ADD SWAP1 POP DUP2 DUP2 SUB PUSH0 DUP4 ADD MSTORE PUSH2 0x49A7 DUP2 PUSH2 0x496E JUMP JUMPDEST SWAP1 POP SWAP2 SWAP1 POP JUMP JUMPDEST PUSH0 PUSH1 0x40 DUP3 ADD SWAP1 POP DUP2 DUP2 SUB PUSH0 DUP4 ADD MSTORE PUSH2 0x49C6 DUP2 DUP6 PUSH2 0x3A5F JUMP JUMPDEST SWAP1 POP PUSH2 0x49D5 PUSH1 0x20 DUP4 ADD DUP5 PUSH2 0x3AA3 JUMP JUMPDEST SWAP4 SWAP3 POP POP POP JUMP JUMPDEST PUSH32 0x456D70747920726573706F6E7365000000000000000000000000000000000000 PUSH0 DUP3 ADD MSTORE POP JUMP JUMPDEST PUSH0 PUSH2 0x4A10 PUSH1 0xE DUP4 PUSH2 0x3A41 JUMP JUMPDEST SWAP2 POP PUSH2 0x4A1B DUP3 PUSH2 0x49DC JUMP JUMPDEST PUSH1 0x20 DUP3 ADD SWAP1 POP SWAP2 SWAP1 POP JUMP JUMPDEST PUSH0 PUSH1 0x20 DUP3 ADD SWAP1 POP DUP2 DUP2 SUB PUSH0 DUP4 ADD MSTORE PUSH2 0x4A3D DUP2 PUSH2 0x4A04 JUMP JUMPDEST SWAP1 POP SWAP2 SWAP1 POP JUMP JUMPDEST PUSH0 PUSH2 0x4A4E DUP3 PUSH2 0x3AB2 JUMP JUMPDEST SWAP2 POP PUSH32 0xFFFFFFFFFFFFFFFFFFFFFFFFFFFFFFFFFFFFFFFFFFFFFFFFFFFFFFFFFFFFFFFF DUP3 SUB PUSH2 0x4A80 JUMPI PUSH2 0x4A7F PUSH2 0x3F0D JUMP JUMPDEST JUMPDEST PUSH1 0x1 DUP3 ADD SWAP1 POP SWAP2 SWAP1 POP JUMP JUMPDEST PUSH0 PUSH1 0x40 DUP3 ADD SWAP1 POP PUSH2 0x4A9E PUSH0 DUP4 ADD DUP6 PUSH2 0x3AD5 JUMP JUMPDEST PUSH2 0x4AAB PUSH1 0x20 DUP4 ADD DUP5 PUSH2 0x3AA3 JUMP JUMPDEST SWAP4 SWAP3 POP POP POP JUMP JUMPDEST PUSH0 PUSH2 0x4ABC DUP3 PUSH2 0x3A97 JUMP JUMPDEST SWAP2 POP PUSH1 0xFF DUP3 SUB PUSH2 0x4ACF JUMPI PUSH2 0x4ACE PUSH2 0x3F0D JUMP JUMPDEST JUMPDEST PUSH1 0x1 DUP3 ADD SWAP1 POP SWAP2 SWAP1 POP JUMP JUMPDEST PUSH0 PUSH2 0x4AE4 DUP3 PUSH2 0x3AB2 JUMP JUMPDEST SWAP2 POP PUSH2 0x4AEF DUP4 PUSH2 0x3AB2 JUMP JUMPDEST SWAP3 POP DUP3 DUP3 MUL PUSH2 0x4AFD DUP2 PUSH2 0x3AB2 JUMP JUMPDEST SWAP2 POP DUP3 DUP3 DIV DUP5 EQ DUP4 ISZERO OR PUSH2 0x4B14 JUMPI PUSH2 0x4B13 PUSH2 0x3F0D JUMP JUMPDEST JUMPDEST POP SWAP3 SWAP2 POP POP JUMP JUMPDEST PUSH0 PUSH1 0x60 DUP3 ADD SWAP1 POP PUSH2 0x4B2E PUSH0 DUP4 ADD DUP7 PUSH2 0x3ABB JUMP JUMPDEST PUSH2 0x4B3B PUSH1 0x20 DUP4 ADD DUP6 PUSH2 0x3ABB JUMP JUMPDEST PUSH2 0x4B48 PUSH1 0x40 DUP4 ADD DUP5 PUSH2 0x3ABB JUMP JUMPDEST SWAP5 SWAP4 POP POP POP POP JUMP JUMPDEST PUSH32 0x5265656E7472616E637947756172643A207265656E7472616E742063616C6C00 PUSH0 DUP3 ADD MSTORE POP JUMP JUMPDEST PUSH0 PUSH2 0x4B84 PUSH1 0x1F DUP4 PUSH2 0x3A41 JUMP JUMPDEST SWAP2 POP PUSH2 0x4B8F DUP3 PUSH2 0x4B50 JUMP JUMPDEST PUSH1 0x20 DUP3 ADD SWAP1 POP SWAP2 SWAP1 POP JUMP JUMPDEST PUSH0 PUSH1 0x20 DUP3 ADD SWAP1 POP DUP2 DUP2 SUB PUSH0 DUP4 ADD MSTORE PUSH2 0x4BB1 DUP2 PUSH2 0x4B78 JUMP JUMPDEST SWAP1 POP SWAP2 SWAP1 POP JUMP JUMPDEST PUSH0 DUP2 PUSH1 0x60 SHL SWAP1 POP SWAP2 SWAP1 POP JUMP JUMPDEST PUSH0 PUSH2 0x4BCE DUP3 PUSH2 0x4BB8 JUMP JUMPDEST SWAP1 POP SWAP2 SWAP1 POP JUMP JUMPDEST PUSH0 PUSH2 0x4BDF DUP3 PUSH2 0x4BC4 JUMP JUMPDEST SWAP1 POP SWAP2 SWAP1 POP JUMP JUMPDEST PUSH2 0x4BF7 PUSH2 0x4BF2 DUP3 PUSH2 0x39D1 JUMP JUMPDEST PUSH2 0x4BD5 JUMP JUMPDEST DUP3 MSTORE POP POP JUMP JUMPDEST PUSH0 DUP2 SWAP1 POP SWAP2 SWAP1 POP JUMP JUMPDEST PUSH2 0x4C17 PUSH2 0x4C12 DUP3 PUSH2 0x3AB2 JUMP JUMPDEST PUSH2 0x4BFD JUMP JUMPDEST DUP3 MSTORE POP POP JUMP JUMPDEST PUSH0 PUSH2 0x4C28 DUP3 DUP6 PUSH2 0x4BE6 JUMP JUMPDEST PUSH1 0x14 DUP3 ADD SWAP2 POP PUSH2 0x4C38 DUP3 DUP5 PUSH2 0x4C06 JUMP JUMPDEST PUSH1 0x20 DUP3 ADD SWAP2 POP DUP2 SWAP1 POP SWAP4 SWAP3 POP POP POP JUMP JUMPDEST PUSH32 0x4E487B7100000000000000000000000000000000000000000000000000000000 PUSH0 MSTORE PUSH1 0x12 PUSH1 0x4 MSTORE PUSH1 0x24 PUSH0 REVERT JUMPDEST PUSH0 PUSH2 0x4C7F DUP3 PUSH2 0x3AB2 JUMP JUMPDEST SWAP2 POP PUSH2 0x4C8A DUP4 PUSH2 0x3AB2 JUMP JUMPDEST SWAP3 POP DUP3 PUSH2 0x4C9A JUMPI PUSH2 0x4C99 PUSH2 0x4C48 JUMP JUMPDEST JUMPDEST DUP3 DUP3 MOD SWAP1 POP SWAP3 SWAP2 POP POP JUMP JUMPDEST PUSH0 PUSH2 0x4CAF DUP3 PUSH2 0x3AB2 JUMP JUMPDEST SWAP2 POP PUSH2 0x4CBA DUP4 PUSH2 0x3AB2 JUMP JUMPDEST SWAP3 POP DUP3 DUP3 SUB SWAP1 POP DUP2 DUP2 GT ISZERO PUSH2 0x4CD2 JUMPI PUSH2 0x4CD1 PUSH2 0x3F0D JUMP JUMPDEST JUMPDEST SWAP3 SWAP2 POP POP JUMP JUMPDEST PUSH32 0x2200000000000000000000000000000000000000000000000000000000000000 PUSH0 DUP3 ADD MSTORE POP JUMP JUMPDEST PUSH0 PUSH2 0x4D0C PUSH1 0x1 DUP4 PUSH2 0x3D45 JUMP JUMPDEST SWAP2 POP PUSH2 0x4D17 DUP3 PUSH2 0x4CD8 JUMP JUMPDEST PUSH1 0x1 DUP3 ADD SWAP1 POP SWAP2 SWAP1 POP JUMP JUMPDEST PUSH0 PUSH2 0x4D2D DUP3 DUP7 PUSH2 0x4900 JUMP JUMPDEST SWAP2 POP PUSH2 0x4D38 DUP3 PUSH2 0x4D00 JUMP JUMPDEST SWAP2 POP PUSH2 0x4D44 DUP3 DUP6 PUSH2 0x4900 JUMP JUMPDEST SWAP2 POP PUSH2 0x4D4F DUP3 PUSH2 0x4D00 JUMP JUMPDEST SWAP2 POP PUSH2 0x4D5B DUP3 DUP5 PUSH2 0x4900 JUMP JUMPDEST SWAP2 POP DUP2 SWAP1 POP SWAP5 SWAP4 POP POP POP POP JUMP JUMPDEST PUSH32 0x5D00000000000000000000000000000000000000000000000000000000000000 PUSH0 DUP3 ADD MSTORE POP JUMP JUMPDEST PUSH0 PUSH2 0x4D9C PUSH1 0x1 DUP4 PUSH2 0x3D45 JUMP JUMPDEST SWAP2 POP PUSH2 0x4DA7 DUP3 PUSH2 0x4D68 JUMP JUMPDEST PUSH1 0x1 DUP3 ADD SWAP1 POP SWAP2 SWAP1 POP JUMP JUMPDEST PUSH0 PUSH2 0x4DBD DUP3 DUP5 PUSH2 0x4900 JUMP JUMPDEST SWAP2 POP PUSH2 0x4DC8 DUP3 PUSH2 0x4D90 JUMP JUMPDEST SWAP2 POP DUP2 SWAP1 POP SWAP3 SWAP2 POP POP JUMP JUMPDEST PUSH32 0x4E487B7100000000000000000000000000000000000000000000000000000000 PUSH0 MSTORE PUSH1 0x21 PUSH1 0x4 MSTORE PUSH1 0x24 PUSH0 REVERT JUMPDEST PUSH0 PUSH2 0xFFFF DUP3 AND SWAP1 POP SWAP2 SWAP1 POP JUMP JUMPDEST PUSH2 0x4E16 DUP2 PUSH2 0x4E00 JUMP JUMPDEST DUP3 MSTORE POP POP JUMP JUMPDEST PUSH0 PUSH1 0xA0 DUP3 ADD SWAP1 POP PUSH2 0x4E2F PUSH0 DUP4 ADD DUP9 PUSH2 0x3508 JUMP JUMPDEST DUP2 DUP2 SUB PUSH1 0x20 DUP4 ADD MSTORE PUSH2 0x4E41 DUP2 DUP8 PUSH2 0x4668 JUMP JUMPDEST SWAP1 POP PUSH2 0x4E50 PUSH1 0x40 DUP4 ADD DUP7 PUSH2 0x4E0D JUMP JUMPDEST PUSH2 0x4E5D PUSH1 0x60 DUP4 ADD DUP6 PUSH2 0x3C0E JUMP JUMPDEST PUSH2 0x4E6A PUSH1 0x80 DUP4 ADD DUP5 PUSH2 0x3738 JUMP JUMPDEST SWAP7 SWAP6 POP POP POP POP POP POP JUMP JUMPDEST PUSH0 DUP2 MLOAD SWAP1 POP PUSH2 0x4E82 DUP2 PUSH2 0x354A JUMP JUMPDEST SWAP3 SWAP2 POP POP JUMP JUMPDEST PUSH0 PUSH1 0x20 DUP3 DUP5 SUB SLT ISZERO PUSH2 0x4E9D JUMPI PUSH2 0x4E9C PUSH2 0x3539 JUMP JUMPDEST JUMPDEST PUSH0 PUSH2 0x4EAA DUP5 DUP3 DUP6 ADD PUSH2 0x4E74 JUMP JUMPDEST SWAP2 POP POP SWAP3 SWAP2 POP POP JUMP JUMPDEST PUSH32 0x4F6E6C792063616C6C61626C65206279206F776E657200000000000000000000 PUSH0 DUP3 ADD MSTORE POP JUMP JUMPDEST PUSH0 PUSH2 0x4EE7 PUSH1 0x16 DUP4 PUSH2 0x3A41 JUMP JUMPDEST SWAP2 POP PUSH2 0x4EF2 DUP3 PUSH2 0x4EB3 JUMP JUMPDEST PUSH1 0x20 DUP3 ADD SWAP1 POP SWAP2 SWAP1 POP JUMP JUMPDEST PUSH0 PUSH1 0x20 DUP3 ADD SWAP1 POP DUP2 DUP2 SUB PUSH0 DUP4 ADD MSTORE PUSH2 0x4F14 DUP2 PUSH2 0x4EDB JUMP JUMPDEST SWAP1 POP SWAP2 SWAP1 POP JUMP JUMPDEST PUSH0 PUSH2 0x4F25 DUP3 PUSH2 0x3AB2 JUMP JUMPDEST SWAP2 POP PUSH2 0x4F30 DUP4 PUSH2 0x3AB2 JUMP JUMPDEST SWAP3 POP DUP3 PUSH2 0x4F40 JUMPI PUSH2 0x4F3F PUSH2 0x4C48 JUMP JUMPDEST JUMPDEST DUP3 DUP3 DIV SWAP1 POP SWAP3 SWAP2 POP POP JUMP JUMPDEST PUSH0 PUSH2 0x4F55 DUP3 PUSH2 0x3AB2 JUMP JUMPDEST SWAP2 POP PUSH0 DUP3 SUB PUSH2 0x4F67 JUMPI PUSH2 0x4F66 PUSH2 0x3F0D JUMP JUMPDEST JUMPDEST PUSH1 0x1 DUP3 SUB SWAP1 POP SWAP2 SWAP1 POP JUMP JUMPDEST PUSH32 0x43616E6E6F74207472616E7366657220746F2073656C66000000000000000000 PUSH0 DUP3 ADD MSTORE POP JUMP JUMPDEST PUSH0 PUSH2 0x4FA6 PUSH1 0x17 DUP4 PUSH2 0x3A41 JUMP JUMPDEST SWAP2 POP PUSH2 0x4FB1 DUP3 PUSH2 0x4F72 JUMP JUMPDEST PUSH1 0x20 DUP3 ADD SWAP1 POP SWAP2 SWAP1 POP JUMP JUMPDEST PUSH0 PUSH1 0x20 DUP3 ADD SWAP1 POP DUP2 DUP2 SUB PUSH0 DUP4 ADD MSTORE PUSH2 0x4FD3 DUP2 PUSH2 0x4F9A JUMP JUMPDEST SWAP1 POP SWAP2 SWAP1 POP JUMP JUMPDEST PUSH32 0x496E76616C696420726573706F6E736520666F726D6174000000000000000000 PUSH0 DUP3 ADD MSTORE POP JUMP JUMPDEST PUSH0 PUSH2 0x500E PUSH1 0x17 DUP4 PUSH2 0x3A41 JUMP JUMPDEST SWAP2 POP PUSH2 0x5019 DUP3 PUSH2 0x4FDA JUMP JUMPDEST PUSH1 0x20 DUP3 ADD SWAP1 POP SWAP2 SWAP1 POP JUMP JUMPDEST PUSH0 PUSH1 0x20 DUP3 ADD SWAP1 POP DUP2 DUP2 SUB PUSH0 DUP4 ADD MSTORE PUSH2 0x503B DUP2 PUSH2 0x5002 JUMP JUMPDEST SWAP1 POP SWAP2 SWAP1 POP JUMP JUMPDEST PUSH0 PUSH10 0xFFFFFFFFFFFFFFFFFFFF DUP3 AND SWAP1 POP SWAP2 SWAP1 POP JUMP JUMPDEST PUSH2 0x5060 DUP2 PUSH2 0x5042 JUMP JUMPDEST DUP2 EQ PUSH2 0x506A JUMPI PUSH0 PUSH0 REVERT JUMPDEST POP JUMP JUMPDEST PUSH0 DUP2 MLOAD SWAP1 POP PUSH2 0x507B DUP2 PUSH2 0x5057 JUMP JUMPDEST SWAP3 SWAP2 POP POP JUMP JUMPDEST PUSH0 DUP2 SWAP1 POP SWAP2 SWAP1 POP JUMP JUMPDEST PUSH2 0x5093 DUP2 PUSH2 0x5081 JUMP JUMPDEST DUP2 EQ PUSH2 0x509D JUMPI PUSH0 PUSH0 REVERT JUMPDEST POP JUMP JUMPDEST PUSH0 DUP2 MLOAD SWAP1 POP PUSH2 0x50AE DUP2 PUSH2 0x508A JUMP JUMPDEST SWAP3 SWAP2 POP POP JUMP JUMPDEST PUSH2 0x50BD DUP2 PUSH2 0x3AB2 JUMP JUMPDEST DUP2 EQ PUSH2 0x50C7 JUMPI PUSH0 PUSH0 REVERT JUMPDEST POP JUMP JUMPDEST PUSH0 DUP2 MLOAD SWAP1 POP PUSH2 0x50D8 DUP2 PUSH2 0x50B4 JUMP JUMPDEST SWAP3 SWAP2 POP POP JUMP JUMPDEST PUSH0 PUSH0 PUSH0 PUSH0 PUSH0 PUSH1 0xA0 DUP7 DUP9 SUB SLT ISZERO PUSH2 0x50F7 JUMPI PUSH2 0x50F6 PUSH2 0x3539 JUMP JUMPDEST JUMPDEST PUSH0 PUSH2 0x5104 DUP9 DUP3 DUP10 ADD PUSH2 0x506D JUMP JUMPDEST SWAP6 POP POP PUSH1 0x20 PUSH2 0x5115 DUP9 DUP3 DUP10 ADD PUSH2 0x50A0 JUMP JUMPDEST SWAP5 POP POP PUSH1 0x40 PUSH2 0x5126 DUP9 DUP3 DUP10 ADD PUSH2 0x50CA JUMP JUMPDEST SWAP4 POP POP PUSH1 0x60 PUSH2 0x5137 DUP9 DUP3 DUP10 ADD PUSH2 0x50CA JUMP JUMPDEST SWAP3 POP POP PUSH1 0x80 PUSH2 0x5148 DUP9 DUP3 DUP10 ADD PUSH2 0x506D JUMP JUMPDEST SWAP2 POP POP SWAP3 SWAP6 POP SWAP3 SWAP6 SWAP1 SWAP4 POP JUMP JUMPDEST PUSH32 0x4261642066656564000000000000000000000000000000000000000000000000 PUSH0 DUP3 ADD MSTORE POP JUMP JUMPDEST PUSH0 PUSH2 0x5189 PUSH1 0x8 DUP4 PUSH2 0x3A41 JUMP JUMPDEST SWAP2 POP PUSH2 0x5194 DUP3 PUSH2 0x5155 JUMP JUMPDEST PUSH1 0x20 DUP3 ADD SWAP1 POP SWAP2 SWAP1 POP JUMP JUMPDEST PUSH0 PUSH1 0x20 DUP3 ADD SWAP1 POP DUP2 DUP2 SUB PUSH0 DUP4 ADD MSTORE PUSH2 0x51B6 DUP2 PUSH2 0x517D JUMP JUMPDEST SWAP1 POP SWAP2 SWAP1 POP JUMP JUMPDEST PUSH32 0x496E76616C6964206E756D626572000000000000000000000000000000000000 PUSH0 DUP3 ADD MSTORE POP JUMP JUMPDEST PUSH0 PUSH2 0x51F1 PUSH1 0xE DUP4 PUSH2 0x3A41 JUMP JUMPDEST SWAP2 POP PUSH2 0x51FC DUP3 PUSH2 0x51BD JUMP JUMPDEST PUSH1 0x20 DUP3 ADD SWAP1 POP SWAP2 SWAP1 POP JUMP JUMPDEST PUSH0 PUSH1 0x20 DUP3 ADD SWAP1 POP DUP2 DUP2 SUB PUSH0 DUP4 ADD MSTORE PUSH2 0x521E DUP2 PUSH2 0x51E5 JUMP JUMPDEST SWAP1 POP SWAP2 SWAP1 POP JUMP JUMPDEST PUSH32 0x4E6F6E2D6E756D65726963206368617261637465720000000000000000000000 PUSH0 DUP3 ADD MSTORE POP JUMP JUMPDEST PUSH0 PUSH2 0x5259 PUSH1 0x15 DUP4 PUSH2 0x3A41 JUMP JUMPDEST SWAP2 POP PUSH2 0x5264 DUP3 PUSH2 0x5225 JUMP JUMPDEST PUSH1 0x20 DUP3 ADD SWAP1 POP SWAP2 SWAP1 POP JUMP JUMPDEST PUSH0 PUSH1 0x20 DUP3 ADD SWAP1 POP DUP2 DUP2 SUB PUSH0 DUP4 ADD MSTORE PUSH2 0x5286 DUP2 PUSH2 0x524D JUMP JUMPDEST SWAP1 POP SWAP2 SWAP1 POP JUMP JUMPDEST PUSH0 PUSH2 0x5297 DUP3 PUSH2 0x3A97 JUMP JUMPDEST SWAP2 POP PUSH2 0x52A2 DUP4 PUSH2 0x3A97 JUMP JUMPDEST SWAP3 POP DUP3 DUP3 SUB SWAP1 POP PUSH1 0xFF DUP2 GT ISZERO PUSH2 0x52BB JUMPI PUSH2 0x52BA PUSH2 0x3F0D JUMP JUMPDEST JUMPDEST SWAP3 SWAP2 POP POP JUMP JUMPDEST PUSH0 DUP2 PUSH1 0x1 SHR SWAP1 POP SWAP2 SWAP1 POP JUMP JUMPDEST PUSH0 PUSH0 DUP3 SWAP2 POP DUP4 SWAP1 POP JUMPDEST PUSH1 0x1 DUP6 GT ISZERO PUSH2 0x5316 JUMPI DUP1 DUP7 DIV DUP2 GT ISZERO PUSH2 0x52F2 JUMPI PUSH2 0x52F1 PUSH2 0x3F0D JUMP JUMPDEST JUMPDEST PUSH1 0x1 DUP6 AND ISZERO PUSH2 0x5301 JUMPI DUP1 DUP3 MUL SWAP2 POP JUMPDEST DUP1 DUP2 MUL SWAP1 POP PUSH2 0x530F DUP6 PUSH2 0x52C1 JUMP JUMPDEST SWAP5 POP PUSH2 0x52D6 JUMP JUMPDEST SWAP5 POP SWAP5 SWAP3 POP POP POP JUMP JUMPDEST PUSH0 DUP3 PUSH2 0x532E JUMPI PUSH1 0x1 SWAP1 POP PUSH2 0x53E9 JUMP JUMPDEST DUP2 PUSH2 0x533B JUMPI PUSH0 SWAP1 POP PUSH2 0x53E9 JUMP JUMPDEST DUP2 PUSH1 0x1 DUP2 EQ PUSH2 0x5351 JUMPI PUSH1 0x2 DUP2 EQ PUSH2 0x535B JUMPI PUSH2 0x538A JUMP JUMPDEST PUSH1 0x1 SWAP2 POP POP PUSH2 0x53E9 JUMP JUMPDEST PUSH1 0xFF DUP5 GT ISZERO PUSH2 0x536D JUMPI PUSH2 0x536C PUSH2 0x3F0D JUMP JUMPDEST JUMPDEST DUP4 PUSH1 0x2 EXP SWAP2 POP DUP5 DUP3 GT ISZERO PUSH2 0x5384 JUMPI PUSH2 0x5383 PUSH2 0x3F0D JUMP JUMPDEST JUMPDEST POP PUSH2 0x53E9 JUMP JUMPDEST POP PUSH1 0x20 DUP4 LT PUSH2 0x133 DUP4 LT AND PUSH1 0x4E DUP5 LT PUSH1 0xB DUP5 LT AND OR ISZERO PUSH2 0x53BF JUMPI DUP3 DUP3 EXP SWAP1 POP DUP4 DUP2 GT ISZERO PUSH2 0x53BA JUMPI PUSH2 0x53B9 PUSH2 0x3F0D JUMP JUMPDEST JUMPDEST PUSH2 0x53E9 JUMP JUMPDEST PUSH2 0x53CC DUP5 DUP5 DUP5 PUSH1 0x1 PUSH2 0x52CD JUMP JUMPDEST SWAP3 POP SWAP1 POP DUP2 DUP5 DIV DUP2 GT ISZERO PUSH2 0x53E3 JUMPI PUSH2 0x53E2 PUSH2 0x3F0D JUMP JUMPDEST JUMPDEST DUP2 DUP2 MUL SWAP1 POP JUMPDEST SWAP4 SWAP3 POP POP POP JUMP JUMPDEST PUSH0 PUSH2 0x53FA DUP3 PUSH2 0x3AB2 JUMP JUMPDEST SWAP2 POP PUSH2 0x5405 DUP4 PUSH2 0x3AB2 JUMP JUMPDEST SWAP3 POP PUSH2 0x5432 PUSH32 0xFFFFFFFFFFFFFFFFFFFFFFFFFFFFFFFFFFFFFFFFFFFFFFFFFFFFFFFFFFFFFFFF DUP5 DUP5 PUSH2 0x531F JUMP JUMPDEST SWAP1 POP SWAP3 SWAP2 POP POP JUMP INVALID PUSH9 0x747470733A2F2F6377 PUSH10 0x7A72707276797A6E656C PUSH21 0x67687A6E6E612E73757061626173652E636F636F6E PUSH20 0x742075726C203D20617267735B345D202B20272F PUSH23 0x6572696679416E73776572273B636F6E73742072657320 RETURNDATASIZE KECCAK256 PUSH2 0x7761 PUSH10 0x742046756E6374696F6E PUSH20 0x2E6D616B654874747052657175657374287B2020 PUSH22 0x726C2C20206D6574686F643A2027504F5354272C2020 PUSH9 0x6561646572733A207B 0x27 NUMBER PUSH16 0x6E74656E742D54797065273A20276170 PUSH17 0x6C69636174696F6E2F6A736F6E277D2C20 KECCAK256 PUSH5 0x6174613A20 BLOBBASEFEE MSTORE8 0x4F 0x4E 0x2E PUSH20 0x7472696E67696679287B202020207175697A4964 GASPRICE KECCAK256 PUSH2 0x7267 PUSH20 0x5B305D2C20202020706C61796572416464726573 PUSH20 0x3A20617267735B315D2C20202020717565737469 PUSH16 0x6E496E6465783A207061727365496E74 0x28 PUSH2 0x7267 PUSH20 0x5B325D292C2020202073656C6563746564496E64 PUSH6 0x783A20706172 PUSH20 0x65496E7428617267735B335D2920207D297D293B PUSH10 0x6620287265732E657272 PUSH16 0x7229207B2020636F6E736F6C652E6572 PUSH19 0x6F7228274261636B656E64206572726F723A27 0x2C KECCAK256 PUSH19 0x65732E6572726F72293B202072657475726E20 CHAINID PUSH22 0x6E6374696F6E732E656E636F6465537472696E672827 ADDRESS 0x27 0x29 EXTCODESIZE PUSH30 0x72657475726E2046756E6374696F6E732E656E636F6465537472696E6728 PUSH19 0x65732E646174612E6973436F7272656374203F KECCAK256 0x27 BALANCE 0x27 KECCAK256 GASPRICE KECCAK256 0x27 ADDRESS 0x27 0x29 EXTCODESIZE PUSH4 0x6F6E7374 KECCAK256 PUSH22 0x726C203D20617267735B325D202B20272F67656E6572 PUSH2 0x7465 MLOAD PUSH22 0x697A273B636F6E737420726573203D20617761697420 CHAINID PUSH22 0x6E6374696F6E732E6D616B6548747470526571756573 PUSH21 0x287B202075726C2C20206D6574686F643A2027504F MSTORE8 SLOAD 0x27 0x2C KECCAK256 KECCAK256 PUSH9 0x6561646572733A207B 0x27 NUMBER PUSH16 0x6E74656E742D54797065273A20276170 PUSH17 0x6C69636174696F6E2F6A736F6E277D2C20 KECCAK256 PUSH5 0x6174613A20 BLOBBASEFEE MSTORE8 0x4F 0x4E 0x2E PUSH20 0x7472696E67696679287B20202020646F6D61696E PUSH20 0x3A204A534F4E2E706172736528617267735B305D 0x29 0x2C KECCAK256 KECCAK256 KECCAK256 KECCAK256 PUSH17 0x6C61796572416464726573733A20617267 PUSH20 0x5B315D2C20202020737570616261736555726C3A KECCAK256 PUSH2 0x7267 PUSH20 0x5B335D2C202020207461626C653A20617267735B CALLVALUE TSTORE 0x2C KECCAK256 KECCAK256 KECCAK256 KECCAK256 PUSH18 0x75697A49643A20617267735B315D2C202020 KECCAK256 PUSH5 0x6966666963 PUSH22 0x6C74793A20617267735B355D20207D297D293B696620 0x28 PUSH19 0x65732E6572726F7229207B2020636F6E736F6C PUSH6 0x2E6572726F72 0x28 0x27 TIMESTAMP PUSH2 0x636B PUSH6 0x6E6420657272 PUSH16 0x723A272C207265732E6572726F72293B KECCAK256 KECCAK256 PUSH19 0x657475726E2046756E6374696F6E732E656E63 PUSH16 0x6465537472696E6728276572726F727C ADDRESS 0x27 0x29 EXTCODESIZE PUSH30 0x69662028217265732E646174612E7175697A4964207C7C20217265732E64 PUSH2 0x7461 0x2E PUSH15 0x756D5175657374696F6E7329207B20 KECCAK256 PUSH4 0x6F6E736F PUSH13 0x652E6572726F722827496E7661 PUSH13 0x696420726573706F6E73653A27 0x2C KECCAK256 PUSH19 0x65732E64617461293B202072657475726E2046 PUSH22 0x6E6374696F6E732E656E636F6465537472696E672827 PUSH10 0x6E76616C69647C302729 EXTCODESIZE PUSH30 0x72657475726E2046756E6374696F6E732E656E636F6465537472696E6728 PUSH19 0x65732E646174612E7175697A4964202B20277C 0x27 KECCAK256 0x2B KECCAK256 PUSH19 0x65732E646174612E6E756D5175657374696F6E PUSH20 0x293BA2646970667358221220CE64395313C719DC SHL 0x2B PUSH2 0x43B6 CALLER 0xBD 0xAE 0xD2 PUSH0 PUSH25 0xF9C5C66BDABCFFB23D8B23395F64736F6C634300081E003300 "
		},
		"gasEstimates": {
			"creation": {
				"codeDepositCost": "4555600",
				"executionCost": "infinite",
				"totalCost": "infinite"
			},
			"external": {
				"CALLBACK_GAS()": "354",
				"DON_ID()": "393",
				"ENTRY_FEE()": "413",
				"MAX_DURATION()": "392",
				"MAX_QUESTIONS()": "376",
				"REWARD_PER()": "370",
				"acceptOwnership()": "54620",
				"cancelQuiz()": "infinite",
				"debugFulfillRequest(bytes32,bytes,bytes)": "infinite",
				"handleOracleFulfillment(bytes32,bytes,bytes)": "infinite",
				"owner()": "2625",
				"priceFeed()": "infinite",
				"quizToken()": "infinite",
				"router()": "infinite",
				"sessions(address)": "infinite",
				"startQuiz(string[],string)": "infinite",
				"submitAnswer(uint8)": "infinite",
				"subscriptionId()": "infinite",
				"transferOwnership(address)": "30715"
			},
			"internal": {
				"_atoi(string memory)": "infinite",
				"_encodeArray(string memory[] memory)": "infinite",
				"_generateQuizId(address,uint256)": "infinite",
				"_generateSource()": "infinite",
				"_getElizaUrl()": "infinite",
				"_getSupabaseUrl()": "infinite",
				"_getTableName()": "infinite",
				"_parse(string memory)": "infinite",
				"_slice(bytes memory,uint256,uint256)": "infinite",
				"_toHex(address)": "infinite",
				"_toHexString(uint256)": "infinite",
				"_toUSD(uint256)": "infinite",
				"_verifySource()": "infinite",
				"fulfillRequest(bytes32,bytes memory,bytes memory)": "infinite",
				"uint2str(uint256)": "infinite"
			}
		},
		"methodIdentifiers": {
			"CALLBACK_GAS()": "9779ea46",
			"DON_ID()": "0cde9f3c",
			"ENTRY_FEE()": "f6d361cc",
			"MAX_DURATION()": "b1724b46",
			"MAX_QUESTIONS()": "7416f166",
			"REWARD_PER()": "aa1fe14f",
			"acceptOwnership()": "79ba5097",
			"cancelQuiz()": "c320c1b9",
			"debugFulfillRequest(bytes32,bytes,bytes)": "c3865b6c",
			"handleOracleFulfillment(bytes32,bytes,bytes)": "0ca76175",
			"owner()": "8da5cb5b",
			"priceFeed()": "741bef1a",
			"quizToken()": "b68e71bf",
			"router()": "f887ea40",
			"sessions(address)": "431a1b97",
			"startQuiz(string[],string)": "1ca96bed",
			"submitAnswer(uint8)": "ec4fd914",
			"subscriptionId()": "09c1ba2e",
			"transferOwnership(address)": "f2fde38b"
		}
	},
	"abi": [
		{
			"inputs": [
				{
					"internalType": "address",
					"name": "_token",
					"type": "address"
				},
				{
					"internalType": "address",
					"name": "_priceFeed",
					"type": "address"
				},
				{
					"internalType": "uint64",
					"name": "_subId",
					"type": "uint64"
				},
				{
					"internalType": "address",
					"name": "_router",
					"type": "address"
				}
			],
			"stateMutability": "nonpayable",
			"type": "constructor"
		},
		{
			"inputs": [],
			"name": "EmptyArgs",
			"type": "error"
		},
		{
			"inputs": [],
			"name": "EmptySource",
			"type": "error"
		},
		{
			"inputs": [],
			"name": "NoInlineSecrets",
			"type": "error"
		},
		{
			"inputs": [],
			"name": "OnlyRouterCanFulfill",
			"type": "error"
		},
		{
			"anonymous": false,
			"inputs": [
				{
					"indexed": true,
					"internalType": "address",
					"name": "player",
					"type": "address"
				},
				{
					"indexed": false,
					"internalType": "bytes32",
					"name": "requestId",
					"type": "bytes32"
				}
			],
			"name": "AnswerChecked",
			"type": "event"
		},
		{
			"anonymous": false,
			"inputs": [
				{
					"indexed": true,
					"internalType": "address",
					"name": "player",
					"type": "address"
				},
				{
					"indexed": false,
					"internalType": "bool",
					"name": "isCorrect",
					"type": "bool"
				},
				{
					"indexed": false,
					"internalType": "uint8",
					"name": "questionIndex",
					"type": "uint8"
				}
			],
			"name": "AnswerResult",
			"type": "event"
		},
		{
			"anonymous": false,
			"inputs": [
				{
					"indexed": true,
					"internalType": "bytes32",
					"name": "requestId",
					"type": "bytes32"
				},
				{
					"indexed": false,
					"internalType": "string",
					"name": "response",
					"type": "string"
				},
				{
					"indexed": false,
					"internalType": "bytes",
					"name": "error",
					"type": "bytes"
				}
			],
			"name": "DebugResponse",
			"type": "event"
		},
		{
			"anonymous": false,
			"inputs": [
				{
					"indexed": true,
					"internalType": "address",
					"name": "from",
					"type": "address"
				},
				{
					"indexed": true,
					"internalType": "address",
					"name": "to",
					"type": "address"
				}
			],
			"name": "OwnershipTransferRequested",
			"type": "event"
		},
		{
			"anonymous": false,
			"inputs": [
				{
					"indexed": true,
					"internalType": "address",
					"name": "from",
					"type": "address"
				},
				{
					"indexed": true,
					"internalType": "address",
					"name": "to",
					"type": "address"
				}
			],
			"name": "OwnershipTransferred",
			"type": "event"
		},
		{
			"anonymous": false,
			"inputs": [
				{
					"indexed": true,
					"internalType": "address",
					"name": "player",
					"type": "address"
				}
			],
			"name": "QuizCancelled",
			"type": "event"
		},
		{
			"anonymous": false,
			"inputs": [
				{
					"indexed": true,
					"internalType": "address",
					"name": "player",
					"type": "address"
				},
				{
					"indexed": false,
					"internalType": "uint256",
					"name": "correctCount",
					"type": "uint256"
				},
				{
					"indexed": false,
					"internalType": "uint256",
					"name": "reward",
					"type": "uint256"
				},
				{
					"indexed": false,
					"internalType": "uint256",
					"name": "rewardUSD",
					"type": "uint256"
				}
			],
			"name": "QuizCompleted",
			"type": "event"
		},
		{
			"anonymous": false,
			"inputs": [
				{
					"indexed": true,
					"internalType": "address",
					"name": "player",
					"type": "address"
				},
				{
					"indexed": false,
					"internalType": "string",
					"name": "quizId",
					"type": "string"
				},
				{
					"indexed": false,
					"internalType": "uint8",
					"name": "numQuestions",
					"type": "uint8"
				}
			],
			"name": "QuizGenerated",
			"type": "event"
		},
		{
			"anonymous": false,
			"inputs": [
				{
					"indexed": true,
					"internalType": "address",
					"name": "player",
					"type": "address"
				},
				{
					"indexed": false,
					"internalType": "bytes32",
					"name": "requestId",
					"type": "bytes32"
				}
			],
			"name": "QuizRequested",
			"type": "event"
		},
		{
			"anonymous": false,
			"inputs": [
				{
					"indexed": true,
					"internalType": "bytes32",
					"name": "id",
					"type": "bytes32"
				}
			],
			"name": "RequestFulfilled",
			"type": "event"
		},
		{
			"anonymous": false,
			"inputs": [
				{
					"indexed": true,
					"internalType": "bytes32",
					"name": "id",
					"type": "bytes32"
				}
			],
			"name": "RequestSent",
			"type": "event"
		},
		{
			"inputs": [],
			"name": "CALLBACK_GAS",
			"outputs": [
				{
					"internalType": "uint32",
					"name": "",
					"type": "uint32"
				}
			],
			"stateMutability": "view",
			"type": "function"
		},
		{
			"inputs": [],
			"name": "DON_ID",
			"outputs": [
				{
					"internalType": "bytes32",
					"name": "",
					"type": "bytes32"
				}
			],
			"stateMutability": "view",
			"type": "function"
		},
		{
			"inputs": [],
			"name": "ENTRY_FEE",
			"outputs": [
				{
					"internalType": "uint256",
					"name": "",
					"type": "uint256"
				}
			],
			"stateMutability": "view",
			"type": "function"
		},
		{
			"inputs": [],
			"name": "MAX_DURATION",
			"outputs": [
				{
					"internalType": "uint256",
					"name": "",
					"type": "uint256"
				}
			],
			"stateMutability": "view",
			"type": "function"
		},
		{
			"inputs": [],
			"name": "MAX_QUESTIONS",
			"outputs": [
				{
					"internalType": "uint8",
					"name": "",
					"type": "uint8"
				}
			],
			"stateMutability": "view",
			"type": "function"
		},
		{
			"inputs": [],
			"name": "REWARD_PER",
			"outputs": [
				{
					"internalType": "uint256",
					"name": "",
					"type": "uint256"
				}
			],
			"stateMutability": "view",
			"type": "function"
		},
		{
			"inputs": [],
			"name": "acceptOwnership",
			"outputs": [],
			"stateMutability": "nonpayable",
			"type": "function"
		},
		{
			"inputs": [],
			"name": "cancelQuiz",
			"outputs": [],
			"stateMutability": "nonpayable",
			"type": "function"
		},
		{
			"inputs": [
				{
					"internalType": "bytes32",
					"name": "requestId",
					"type": "bytes32"
				},
				{
					"internalType": "bytes",
					"name": "response",
					"type": "bytes"
				},
				{
					"internalType": "bytes",
					"name": "err",
					"type": "bytes"
				}
			],
			"name": "debugFulfillRequest",
			"outputs": [],
			"stateMutability": "nonpayable",
			"type": "function"
		},
		{
			"inputs": [
				{
					"internalType": "bytes32",
					"name": "requestId",
					"type": "bytes32"
				},
				{
					"internalType": "bytes",
					"name": "response",
					"type": "bytes"
				},
				{
					"internalType": "bytes",
					"name": "err",
					"type": "bytes"
				}
			],
			"name": "handleOracleFulfillment",
			"outputs": [],
			"stateMutability": "nonpayable",
			"type": "function"
		},
		{
			"inputs": [],
			"name": "owner",
			"outputs": [
				{
					"internalType": "address",
					"name": "",
					"type": "address"
				}
			],
			"stateMutability": "view",
			"type": "function"
		},
		{
			"inputs": [],
			"name": "priceFeed",
			"outputs": [
				{
					"internalType": "contract AggregatorV3Interface",
					"name": "",
					"type": "address"
				}
			],
			"stateMutability": "view",
			"type": "function"
		},
		{
			"inputs": [],
			"name": "quizToken",
			"outputs": [
				{
					"internalType": "contract IERC20",
					"name": "",
					"type": "address"
				}
			],
			"stateMutability": "view",
			"type": "function"
		},
		{
			"inputs": [],
			"name": "router",
			"outputs": [
				{
					"internalType": "address",
					"name": "",
					"type": "address"
				}
			],
			"stateMutability": "view",
			"type": "function"
		},
		{
			"inputs": [
				{
					"internalType": "address",
					"name": "",
					"type": "address"
				}
			],
			"name": "sessions",
			"outputs": [
				{
					"internalType": "string",
					"name": "quizId",
					"type": "string"
				},
				{
					"internalType": "uint8",
					"name": "questionIndex",
					"type": "uint8"
				},
				{
					"internalType": "uint256",
					"name": "correctCount",
					"type": "uint256"
				},
				{
					"internalType": "uint256",
					"name": "startedAt",
					"type": "uint256"
				},
				{
					"internalType": "bool",
					"name": "active",
					"type": "bool"
				},
				{
					"internalType": "uint8",
					"name": "numQuestions",
					"type": "uint8"
				}
			],
			"stateMutability": "view",
			"type": "function"
		},
		{
			"inputs": [
				{
					"internalType": "string[]",
					"name": "domains",
					"type": "string[]"
				},
				{
					"internalType": "string",
					"name": "difficulty",
					"type": "string"
				}
			],
			"name": "startQuiz",
			"outputs": [],
			"stateMutability": "nonpayable",
			"type": "function"
		},
		{
			"inputs": [
				{
					"internalType": "uint8",
					"name": "selectedIndex",
					"type": "uint8"
				}
			],
			"name": "submitAnswer",
			"outputs": [],
			"stateMutability": "nonpayable",
			"type": "function"
		},
		{
			"inputs": [],
			"name": "subscriptionId",
			"outputs": [
				{
					"internalType": "uint64",
					"name": "",
					"type": "uint64"
				}
			],
			"stateMutability": "view",
			"type": "function"
		},
		{
			"inputs": [
				{
					"internalType": "address",
					"name": "to",
					"type": "address"
				}
			],
			"name": "transferOwnership",
			"outputs": [],
			"stateMutability": "nonpayable",
			"type": "function"
		}
	]
}