{
	"data": {
		"bytecode": {
			"linkReferences": {},
			"object": "60a060405234801561000f575f5ffd5b5033805f73f9b8fc078197181c841c296c876945aaa425b2788073ffffffffffffffffffffffffffffffffffffffff1660808173ffffffffffffffffffffffffffffffffffffffff1681525050505f73ffffffffffffffffffffffffffffffffffffffff168273ffffffffffffffffffffffffffffffffffffffff16036100cb576040517f08c379a00000000000000000000000000000000000000000000000000000000081526004016100c2906102da565b60405180910390fd5b815f5f6101000a81548173ffffffffffffffffffffffffffffffffffffffff021916908373ffffffffffffffffffffffffffffffffffffffff1602179055505f73ffffffffffffffffffffffffffffffffffffffff168173ffffffffffffffffffffffffffffffffffffffff161461014d5761014c8161015560201b60201c565b5b505050610360565b3373ffffffffffffffffffffffffffffffffffffffff168173ffffffffffffffffffffffffffffffffffffffff16036101c3576040517f08c379a00000000000000000000000000000000000000000000000000000000081526004016101ba90610342565b60405180910390fd5b8060015f6101000a81548173ffffffffffffffffffffffffffffffffffffffff021916908373ffffffffffffffffffffffffffffffffffffffff1602179055508073ffffffffffffffffffffffffffffffffffffffff165f5f9054906101000a900473ffffffffffffffffffffffffffffffffffffffff1673ffffffffffffffffffffffffffffffffffffffff167fed8889f560326eb138920d842192f0eb3dd22b4f139c87a2c57538e05bae127860405160405180910390a350565b5f82825260208201905092915050565b7f43616e6e6f7420736574206f776e657220746f207a65726f00000000000000005f82015250565b5f6102c4601883610280565b91506102cf82610290565b602082019050919050565b5f6020820190508181035f8301526102f1816102b8565b9050919050565b7f43616e6e6f74207472616e7366657220746f2073656c660000000000000000005f82015250565b5f61032c601783610280565b9150610337826102f8565b602082019050919050565b5f6020820190508181035f83015261035981610320565b9050919050565b60805161458961037f5f395f818161019e0152611fc101526145895ff3fe608060405234801561000f575f5ffd5b5060043610610091575f3560e01c80638da5cb5b116100645780638da5cb5b1461010c57806397cc19ba1461012a578063c320c1b91461015a578063ec4fd91414610164578063f2fde38b1461018057610091565b80630ca76175146100955780632ac87aa6146100b1578063431a1b97146100cd57806379ba509714610102575b5f5ffd5b6100af60048036038101906100aa9190612ddb565b61019c565b005b6100cb60048036038101906100c69190612ec0565b61025e565b005b6100e760048036038101906100e29190612f65565b610710565b6040516100f99695949392919061303d565b60405180910390f35b61010a6107f3565b005b610114610982565b60405161012191906130b2565b60405180910390f35b610144600480360381019061013f91906130cb565b6109a9565b60405161015191906130b2565b60405180910390f35b6101626109d9565b005b61017e60048036038101906101799190613120565b610b1d565b005b61019a60048036038101906101959190612f65565b610fcf565b005b7f000000000000000000000000000000000000000000000000000000000000000073ffffffffffffffffffffffffffffffffffffffff163373ffffffffffffffffffffffffffffffffffffffff1614610221576040517fc6829f8300000000000000000000000000000000000000000000000000000000815260040160405180910390fd5b61022c838383610fe3565b827f85e1543bf2f84fe80c6badbce3648c8539ad1df4d2b3d822938ca0538be727e660405160405180910390a2505050565b60058282905010156102a5576040517f08c379a000000000000000000000000000000000000000000000000000000000815260040161029c90613195565b60405180910390fd5b5f60025f3373ffffffffffffffffffffffffffffffffffffffff1673ffffffffffffffffffffffffffffffffffffffff1681526020019081526020015f209050806004015f9054906101000a900460ff1615610336576040517f08c379a000000000000000000000000000000000000000000000000000000000815260040161032d906131fd565b60405180910390fd5b6001816004015f6101000a81548160ff0219169083151502179055505f816001015f6101000a81548160ff021916908360ff1602179055505f81600201819055504281600301819055505f8160040160016101000a81548160ff021916908360ff1602179055506103a5612bb4565b6103bf6103b06113cf565b826113f290919063ffffffff16565b5f6103ca8585611402565b90505f6103d633611507565b90505f6104176040518060400160405280600b81526020017f454c495a414f535f55524c000000000000000000000000000000000000000000815250611802565b90505f6104586040518060400160405280600c81526020017f53555041424153455f55524c0000000000000000000000000000000000000000815250611802565b90505f6104a161049c6040518060400160405280601a81526020017f444f4e5f484f535445445f534543524554535f534c4f545f494400000000000081525061190c565b611a12565b6104e76104e26040518060400160405280601a81526020017f444f4e5f484f535445445f534543524554535f56455253494f4e00000000000081525061190c565b611a12565b6040516020016104f892919061329f565b60405160208183030381529060405290505f600567ffffffffffffffff81111561052557610524612cb7565b5b60405190808252806020026020018201604052801561055857816020015b60608152602001906001900390816105435790505b50905085815f8151811061056f5761056e6132cd565b5b6020026020010181905250848160018151811061058f5761058e6132cd565b5b602002602001018190525083816002815181106105af576105ae6132cd565b5b602002602001018190525082816003815181106105cf576105ce6132cd565b5b602002602001018190525081816004815181106105ef576105ee6132cd565b5b602002602001018190525061060d8188611b6b90919063ffffffff16565b5f61068261061a89611bb2565b6106586040518060400160405280600f81526020017f535542534352495054494f4e5f4944000000000000000000000000000000000081525061190c565b620493e07f66756e2d626173652d7365706f6c69612d310000000000000000000000000000611fbd565b90503360035f8381526020019081526020015f205f6101000a81548173ffffffffffffffffffffffffffffffffffffffff021916908373ffffffffffffffffffffffffffffffffffffffff160217905550806040516020016106e4919061331a565b604051602081830303815290604052895f0190816107029190613531565b505050505050505050505050565b6002602052805f5260405f205f91509050805f01805461072f90613361565b80601f016020809104026020016040519081016040528092919081815260200182805461075b90613361565b80156107a65780601f1061077d576101008083540402835291602001916107a6565b820191905f5260205f20905b81548152906001019060200180831161078957829003601f168201915b505050505090806001015f9054906101000a900460ff1690806002015490806003015490806004015f9054906101000a900460ff16908060040160019054906101000a900460ff16905086565b60015f9054906101000a900473ffffffffffffffffffffffffffffffffffffffff1673ffffffffffffffffffffffffffffffffffffffff163373ffffffffffffffffffffffffffffffffffffffff1614610882576040517f08c379a00000000000000000000000000000000000000000000000000000000081526004016108799061364a565b60405180910390fd5b5f5f5f9054906101000a900473ffffffffffffffffffffffffffffffffffffffff169050335f5f6101000a81548173ffffffffffffffffffffffffffffffffffffffff021916908373ffffffffffffffffffffffffffffffffffffffff1602179055505f60015f6101000a81548173ffffffffffffffffffffffffffffffffffffffff021916908373ffffffffffffffffffffffffffffffffffffffff1602179055503373ffffffffffffffffffffffffffffffffffffffff168173ffffffffffffffffffffffffffffffffffffffff167f8be0079c531659141344cd1fd0a4f28419497f9722a3daafe3b4186f6b6457e060405160405180910390a350565b5f5f5f9054906101000a900473ffffffffffffffffffffffffffffffffffffffff16905090565b6003602052805f5260405f205f915054906101000a900473ffffffffffffffffffffffffffffffffffffffff1681565b5f60025f3373ffffffffffffffffffffffffffffffffffffffff1673ffffffffffffffffffffffffffffffffffffffff1681526020019081526020015f209050806004015f9054906101000a900460ff16610a69576040517f08c379a0000000000000000000000000000000000000000000000000000000008152600401610a60906136b2565b60405180910390fd5b6101c28160030154610a7b91906136fd565b4211610abc576040517f08c379a0000000000000000000000000000000000000000000000000000000008152600401610ab39061377a565b60405180910390fd5b5f816004015f6101000a81548160ff0219169083151502179055503373ffffffffffffffffffffffffffffffffffffffff167fd9ef658e62b2d2ec36ea56e68db6f49dcb5e7977f243f28354069876ad0b90e460405160405180910390a250565b5f60025f3373ffffffffffffffffffffffffffffffffffffffff1673ffffffffffffffffffffffffffffffffffffffff1681526020019081526020015f209050806004015f9054906101000a900460ff16610bad576040517f08c379a0000000000000000000000000000000000000000000000000000000008152600401610ba4906136b2565b60405180910390fd5b6101c28160030154610bbf91906136fd565b421115610c01576040517f08c379a0000000000000000000000000000000000000000000000000000000008152600401610bf8906137e2565b60405180910390fd5b610c09612bb4565b610c23610c1461209c565b826113f290919063ffffffff16565b5f825f018054610c3290613361565b80601f0160208091040260200160405190810160405280929190818152602001828054610c5e90613361565b8015610ca95780601f10610c8057610100808354040283529160200191610ca9565b820191905f5260205f20905b815481529060010190602001808311610c8c57829003601f168201915b505050505090505f610cd96001856001015f9054906101000a900460ff16610cd19190613800565b60ff16611a12565b604051602001610ce9919061387e565b60405160208183030381529060405290505f610d078660ff16611a12565b90505f610d486040518060400160405280600b81526020017f454c495a414f535f55524c000000000000000000000000000000000000000000815250611802565b90505f610d91610d8c6040518060400160405280601a81526020017f444f4e5f484f535445445f534543524554535f534c4f545f494400000000000081525061190c565b611a12565b610dd7610dd26040518060400160405280601a81526020017f444f4e5f484f535445445f534543524554535f56455253494f4e00000000000081525061190c565b611a12565b604051602001610de892919061329f565b60405160208183030381529060405290505f600567ffffffffffffffff811115610e1557610e14612cb7565b5b604051908082528060200260200182016040528015610e4857816020015b6060815260200190600190039081610e335790505b50905085815f81518110610e5f57610e5e6132cd565b5b60200260200101819052508481600181518110610e7f57610e7e6132cd565b5b60200260200101819052508381600281518110610e9f57610e9e6132cd565b5b60200260200101819052508281600381518110610ebf57610ebe6132cd565b5b60200260200101819052508181600481518110610edf57610ede6132cd565b5b6020026020010181905250610efd8188611b6b90919063ffffffff16565b5f610f72610f0a89611bb2565b610f486040518060400160405280600f81526020017f535542534352495054494f4e5f4944000000000000000000000000000000000081525061190c565b620493e07f66756e2d626173652d7365706f6c69612d310000000000000000000000000000611fbd565b90503360035f8381526020019081526020015f205f6101000a81548173ffffffffffffffffffffffffffffffffffffffff021916908373ffffffffffffffffffffffffffffffffffffffff16021790555050505050505050505050565b610fd76120bf565b610fe08161214f565b50565b5f60035f8581526020019081526020015f205f9054906101000a900473ffffffffffffffffffffffffffffffffffffffff1690505f73ffffffffffffffffffffffffffffffffffffffff168173ffffffffffffffffffffffffffffffffffffffff1603611085576040517f08c379a000000000000000000000000000000000000000000000000000000000815260040161107c906138e9565b60405180910390fd5b5f60025f8373ffffffffffffffffffffffffffffffffffffffff1673ffffffffffffffffffffffffffffffffffffffff1681526020019081526020015f2090505f856040516020016110d7919061331a565b6040516020818303038152906040529050815f016040516110f891906139a3565b6040518091039020818051906020012003611394575f826001015f9054906101000a900460ff1660ff16036111bb575f5f6111328761227a565b9150915081845f0190816111469190613531565b50808460040160016101000a81548160ff021916908360ff1602179055508473ffffffffffffffffffffffffffffffffffffffff167f24bb3705c7ad2a404fd0ed31143a60ac9c3acf33c50e13c6ffd8d47330c6d9f383836040516111ac9291906139b9565b60405180910390a25050611393565b5f6040518060400160405280600181526020017f31000000000000000000000000000000000000000000000000000000000000008152505f81518110611204576112036132cd565b5b602001015160f81c60f81b60f81c60ff16865f81518110611228576112276132cd565b5b602001015160f81c60f81b60f81c60ff16149050801561125c57826002015f815480929190611256906139e7565b91905055505b8373ffffffffffffffffffffffffffffffffffffffff167fb768089c188a4564fccb0bb3cfc28eb0dd9aa31f098324d1a7d7e2ad929674bc82856001015f9054906101000a900460ff166040516112b4929190613a2e565b60405180910390a2826001015f81819054906101000a900460ff16809291906112dc90613a55565b91906101000a81548160ff021916908360ff160217905550508260040160019054906101000a900460ff1660ff16836001015f9054906101000a900460ff1660ff1610611391575f836004015f6101000a81548160ff0219169083151502179055508373ffffffffffffffffffffffffffffffffffffffff167f8e71bc2c0606decc62cb81ebffc09590f1445fccbc0149ca781a2a862cd77ad984600201546040516113889190613a7d565b60405180910390a25b505b5b60035f8781526020019081526020015f205f6101000a81549073ffffffffffffffffffffffffffffffffffffffff0219169055505050505050565b60606040518061020001604052806101cd81526020016141c46101cd9139905090565b6113fe825f5f84612364565b5050565b60605f6040518060400160405280600181526020017f5b0000000000000000000000000000000000000000000000000000000000000081525090505f5f90505b848490508110156114dd5781858583818110611461576114606132cd565b5b90506020028101906114739190613aa2565b60405160200161148593929190613b72565b60405160208183030381529060405291506001858590506114a69190613bad565b8110156114d057816040516020016114be9190613c2a565b60405160208183030381529060405291505b8080600101915050611442565b50806040516020016114ef9190613c95565b60405160208183030381529060405291505092915050565b60605f6040518060400160405280601081526020017f303132333435363738396162636465660000000000000000000000000000000081525090505f602a67ffffffffffffffff81111561155e5761155d612cb7565b5b6040519080825280601f01601f1916602001820160405280156115905781602001600182028036833780820191505090505b5090507f3000000000000000000000000000000000000000000000000000000000000000815f815181106115c7576115c66132cd565b5b60200101907effffffffffffffffffffffffffffffffffffffffffffffffffffffffffffff191690815f1a9053507f78000000000000000000000000000000000000000000000000000000000000008160018151811061162a576116296132cd565b5b60200101907effffffffffffffffffffffffffffffffffffffffffffffffffffffffffffff191690815f1a9053505f5f90505b60148110156117f75782600f6002836116769190613cb6565b60276116829190613bad565b601061168e9190613e26565b8773ffffffffffffffffffffffffffffffffffffffff166116af9190613e9d565b1660ff16815181106116c4576116c36132cd565b5b602001015160f81c60f81b826002836116dd9190613cb6565b60026116e991906136fd565b815181106116fa576116f96132cd565b5b60200101907effffffffffffffffffffffffffffffffffffffffffffffffffffffffffffff191690815f1a90535082600f6002836117389190613cb6565b60266117449190613bad565b60106117509190613e26565b8773ffffffffffffffffffffffffffffffffffffffff166117719190613e9d565b1660ff1681518110611786576117856132cd565b5b602001015160f81c60f81b8260028361179f9190613cb6565b60036117ab91906136fd565b815181106117bc576117bb6132cd565b5b60200101907effffffffffffffffffffffffffffffffffffffffffffffffffffffffffffff191690815f1a905350808060010191505061165d565b508092505050919050565b60606040518060400160405280600b81526020017f454c495a414f535f55524c0000000000000000000000000000000000000000008152508051906020012082805190602001200361188b576040518060400160405280601581526020017f687474703a2f2f6c6f63616c686f73743a3530303000000000000000000000008152509050611907565b6040518060400160405280600c81526020017f53555041424153455f55524c0000000000000000000000000000000000000000815250805190602001208280519060200120036118f55760405180606001604052806028815260200161419c602891399050611907565b60405180602001604052805f81525090505b919050565b5f6040518060400160405280601a81526020017f444f4e5f484f535445445f534543524554535f534c4f545f49440000000000008152508051906020012082805190602001200361195f575f9050611a0d565b6040518060400160405280601a81526020017f444f4e5f484f535445445f534543524554535f56455253494f4e000000000000815250805190602001208280519060200120036119b55763684002b99050611a0d565b6040518060400160405280600f81526020017f535542534352495054494f4e5f4944000000000000000000000000000000000081525080519060200120828051906020012003611a095761014a9050611a0d565b5f90505b919050565b60605f8203611a58576040518060400160405280600181526020017f30000000000000000000000000000000000000000000000000000000000000008152509050611b66565b5f8290505f5b5f8214611a87578080611a70906139e7565b915050600a82611a809190613e9d565b9150611a5e565b5f8167ffffffffffffffff811115611aa257611aa1612cb7565b5b6040519080825280601f01601f191660200182016040528015611ad45781602001600182028036833780820191505090505b5090505b5f8514611b5f57600182611aec9190613bad565b9150600a85611afb9190613ecd565b6030611b0791906136fd565b60f81b818381518110611b1d57611b1c6132cd565b5b60200101907effffffffffffffffffffffffffffffffffffffffffffffffffffffffffffff191690815f1a905350600a85611b589190613e9d565b9450611ad8565b8093505050505b919050565b5f815103611ba5576040517ffe936cb700000000000000000000000000000000000000000000000000000000815260040160405180910390fd5b808260a001819052505050565b60605f611bc061010061240a565b9050611c0a6040518060400160405280600c81526020017f636f64654c6f636174696f6e00000000000000000000000000000000000000008152508261242f90919063ffffffff16565b611c32835f01516002811115611c2357611c22613efd565b5b8261245790919063ffffffff16565b611c7a6040518060400160405280600881526020017f6c616e67756167650000000000000000000000000000000000000000000000008152508261242f90919063ffffffff16565b611ca283604001515f811115611c9357611c92613efd565b5b8261245790919063ffffffff16565b611cea6040518060400160405280600681526020017f736f7572636500000000000000000000000000000000000000000000000000008152508261242f90919063ffffffff16565b611d0183606001518261242f90919063ffffffff16565b5f8360a00151511115611db857611d566040518060400160405280600481526020017f61726773000000000000000000000000000000000000000000000000000000008152508261242f90919063ffffffff16565b611d5f816124a6565b5f5f90505b8360a0015151811015611dad57611da28460a001518281518110611d8b57611d8a6132cd565b5b60200260200101518361242f90919063ffffffff16565b806001019050611d64565b50611db7816124ce565b5b5f8360800151511115611ef7575f6002811115611dd857611dd7613efd565b5b83602001516002811115611def57611dee613efd565b5b03611e26576040517fa80d31f700000000000000000000000000000000000000000000000000000000815260040160405180910390fd5b611e6e6040518060400160405280600f81526020017f736563726574734c6f636174696f6e00000000000000000000000000000000008152508261242f90919063ffffffff16565b611e9783602001516002811115611e8857611e87613efd565b5b8261245790919063ffffffff16565b611edf6040518060400160405280600781526020017f73656372657473000000000000000000000000000000000000000000000000008152508261242f90919063ffffffff16565b611ef68360800151826124f690919063ffffffff16565b5b5f8360c00151511115611fae57611f4c6040518060400160405280600981526020017f62797465734172677300000000000000000000000000000000000000000000008152508261242f90919063ffffffff16565b611f55816124a6565b5f5f90505b8360c0015151811015611fa357611f988460c001518281518110611f8157611f806132cd565b5b6020026020010151836124f690919063ffffffff16565b806001019050611f5a565b50611fad816124ce565b5b805f01515f0151915050919050565b5f5f7f000000000000000000000000000000000000000000000000000000000000000073ffffffffffffffffffffffffffffffffffffffff1663461d27628688600188886040518663ffffffff1660e01b8152600401612021959493929190613fe7565b6020604051808303815f875af115801561203d573d5f5f3e3d5ffd5b505050506040513d601f19601f820116820180604052508101906120619190614053565b9050807f1131472297a800fee664d1d89cfa8f7676ff07189ecc53f80bbb5f4969099db860405160405180910390a280915050949350505050565b60606040518061020001604052806101c381526020016143916101c39139905090565b5f5f9054906101000a900473ffffffffffffffffffffffffffffffffffffffff1673ffffffffffffffffffffffffffffffffffffffff163373ffffffffffffffffffffffffffffffffffffffff161461214d576040517f08c379a0000000000000000000000000000000000000000000000000000000008152600401612144906140c8565b60405180910390fd5b565b3373ffffffffffffffffffffffffffffffffffffffff168173ffffffffffffffffffffffffffffffffffffffff16036121bd576040517f08c379a00000000000000000000000000000000000000000000000000000000081526004016121b490614130565b60405180910390fd5b8060015f6101000a81548173ffffffffffffffffffffffffffffffffffffffff021916908373ffffffffffffffffffffffffffffffffffffffff1602179055508073ffffffffffffffffffffffffffffffffffffffff165f5f9054906101000a900473ffffffffffffffffffffffffffffffffffffffff1673ffffffffffffffffffffffffffffffffffffffff167fed8889f560326eb138920d842192f0eb3dd22b4f139c87a2c57538e05bae127860405160405180910390a350565b60605f5f8390505f5f90505b8151811080156122f557507f7c000000000000000000000000000000000000000000000000000000000000008282815181106122c5576122c46132cd565b5b602001015160f81c60f81b7effffffffffffffffffffffffffffffffffffffffffffffffffffffffffffff191614155b1561230d578080612305906139e7565b915050612286565b5f612319835f8461251e565b90505f61235361234e8560018661233091906136fd565b60018761233d91906136fd565b88516123499190613bad565b61251e565b612600565b905081819550955050505050915091565b5f81510361239e576040517f22ce3edd00000000000000000000000000000000000000000000000000000000815260040160405180910390fd5b82845f019060028111156123b5576123b4613efd565b5b908160028111156123c9576123c8613efd565b5b815250508184604001905f8111156123e4576123e3613efd565b5b90815f8111156123f7576123f6613efd565b5b8152505080846060018190525050505050565b612412612c23565b61241f815f01518361276e565b505f816020018181525050919050565b61243c82600383516127e4565b61245281835f015161298490919063ffffffff16565b505050565b61247860026005600660ff16901b17835f01516129a090919063ffffffff16565b506124a2828260405160200161248e919061414e565b6040516020818303038152906040526124f6565b5050565b6124b1816004612a07565b6001816020018181516124c491906136fd565b9150818152505050565b6124d9816007612a07565b6001816020018181516124ec9190613bad565b9150818152505050565b61250382600283516127e4565b61251981835f015161298490919063ffffffff16565b505050565b60605f8267ffffffffffffffff81111561253b5761253a612cb7565b5b6040519080825280601f01601f19166020018201604052801561256d5781602001600182028036833780820191505090505b5090505f5f90505b838110156125f45785818661258a91906136fd565b8151811061259b5761259a6132cd565b5b602001015160f81c60f81b8282815181106125b9576125b86132cd565b5b60200101907effffffffffffffffffffffffffffffffffffffffffffffffffffffffffffff191690815f1a9053508080600101915050612575565b50809150509392505050565b5f5f8290505f5f90505f5f90505b8251811015612763577f300000000000000000000000000000000000000000000000000000000000000083828151811061264b5761264a6132cd565b5b602001015160f81c60f81b7effffffffffffffffffffffffffffffffffffffffffffffffffffffffffffff1916101580156126e557507f39000000000000000000000000000000000000000000000000000000000000008382815181106126b5576126b46132cd565b5b602001015160f81c60f81b7effffffffffffffffffffffffffffffffffffffffffffffffffffffffffffff191611155b15612756577f300000000000000000000000000000000000000000000000000000000000000060f81c838281518110612721576127206132cd565b5b602001015160f81c60f81b60f81c6127399190614167565b60ff16600a836127499190613cb6565b61275391906136fd565b91505b808060010191505061260e565b508092505050919050565b612776612c42565b5f6020836127849190613ecd565b146127b0576020826127969190613ecd565b60206127a29190613bad565b826127ad91906136fd565b91505b818360200181815250506040518084525f8152828101602001818110156127d5575f5ffd5b80604052505082905092915050565b60178167ffffffffffffffff161161281e576128188160058460ff16901b60ff1617845f01516129a090919063ffffffff16565b5061297f565b60ff8167ffffffffffffffff161161287a57612850601860058460ff16901b17845f01516129a090919063ffffffff16565b506128748167ffffffffffffffff166001855f0151612a2c9092919063ffffffff16565b5061297e565b61ffff8167ffffffffffffffff16116128d7576128ad601960058460ff16901b17845f01516129a090919063ffffffff16565b506128d18167ffffffffffffffff166002855f0151612a2c9092919063ffffffff16565b5061297d565b63ffffffff8167ffffffffffffffff16116129365761290c601a60058460ff16901b17845f01516129a090919063ffffffff16565b506129308167ffffffffffffffff166004855f0151612a2c9092919063ffffffff16565b5061297c565b612956601b60058460ff16901b17845f01516129a090919063ffffffff16565b5061297a8167ffffffffffffffff166008855f0151612a2c9092919063ffffffff16565b505b5b5b5b505050565b61298c612c42565b61299883838451612ab5565b905092915050565b6129a8612c42565b5f835f01515190505f6001826129be91906136fd565b9050846020015182106129e2576129e1856002836129dc9190613cb6565b612b92565b5b845160208382010185815381518311156129fa578282525b5050849250505092915050565b612a27601f60058360ff16901b17835f01516129a090919063ffffffff16565b505050565b612a34612c42565b5f845f01515190505f8184612a4991906136fd565b90508560200151811115612a6e57612a6d86600283612a689190613cb6565b612b92565b5b5f600185610100612a7f9190613e26565b612a899190613bad565b905086518281018783198251161781528151841115612aa6578382525b50508693505050509392505050565b612abd612c42565b8251821115612aca575f5ffd5b5f845f01515190505f8382612adf91906136fd565b90508560200151811115612b0457612b0386600283612afe9190613cb6565b612b92565b5b5f5f87518051856020830101935080851115612b1e578482525b60208901925050505b60208610612b655780518252602082612b4091906136fd565b9150602081612b4f91906136fd565b9050602086612b5e9190613bad565b9550612b27565b5f6001876020036101000a0390508019825116818451168181178552505050879450505050509392505050565b5f825f01519050612ba3838361276e565b50612bae8382612984565b50505050565b6040518060e001604052805f6002811115612bd257612bd1613efd565b5b81526020015f6002811115612bea57612be9613efd565b5b81526020015f5f811115612c0157612c00613efd565b5b8152602001606081526020016060815260200160608152602001606081525090565b6040518060400160405280612c36612c42565b81526020015f81525090565b6040518060400160405280606081526020015f81525090565b5f604051905090565b5f5ffd5b5f5ffd5b5f819050919050565b612c7e81612c6c565b8114612c88575f5ffd5b50565b5f81359050612c9981612c75565b92915050565b5f5ffd5b5f5ffd5b5f601f19601f8301169050919050565b7f4e487b71000000000000000000000000000000000000000000000000000000005f52604160045260245ffd5b612ced82612ca7565b810181811067ffffffffffffffff82111715612d0c57612d0b612cb7565b5b80604052505050565b5f612d1e612c5b565b9050612d2a8282612ce4565b919050565b5f67ffffffffffffffff821115612d4957612d48612cb7565b5b612d5282612ca7565b9050602081019050919050565b828183375f83830152505050565b5f612d7f612d7a84612d2f565b612d15565b905082815260208101848484011115612d9b57612d9a612ca3565b5b612da6848285612d5f565b509392505050565b5f82601f830112612dc257612dc1612c9f565b5b8135612dd2848260208601612d6d565b91505092915050565b5f5f5f60608486031215612df257612df1612c64565b5b5f612dff86828701612c8b565b935050602084013567ffffffffffffffff811115612e2057612e1f612c68565b5b612e2c86828701612dae565b925050604084013567ffffffffffffffff811115612e4d57612e4c612c68565b5b612e5986828701612dae565b9150509250925092565b5f5ffd5b5f5ffd5b5f5f83601f840112612e8057612e7f612c9f565b5b8235905067ffffffffffffffff811115612e9d57612e9c612e63565b5b602083019150836020820283011115612eb957612eb8612e67565b5b9250929050565b5f5f60208385031215612ed657612ed5612c64565b5b5f83013567ffffffffffffffff811115612ef357612ef2612c68565b5b612eff85828601612e6b565b92509250509250929050565b5f73ffffffffffffffffffffffffffffffffffffffff82169050919050565b5f612f3482612f0b565b9050919050565b612f4481612f2a565b8114612f4e575f5ffd5b50565b5f81359050612f5f81612f3b565b92915050565b5f60208284031215612f7a57612f79612c64565b5b5f612f8784828501612f51565b91505092915050565b5f81519050919050565b5f82825260208201905092915050565b8281835e5f83830152505050565b5f612fc282612f90565b612fcc8185612f9a565b9350612fdc818560208601612faa565b612fe581612ca7565b840191505092915050565b5f60ff82169050919050565b61300581612ff0565b82525050565b5f819050919050565b61301d8161300b565b82525050565b5f8115159050919050565b61303781613023565b82525050565b5f60c0820190508181035f8301526130558189612fb8565b90506130646020830188612ffc565b6130716040830187613014565b61307e6060830186613014565b61308b608083018561302e565b61309860a0830184612ffc565b979650505050505050565b6130ac81612f2a565b82525050565b5f6020820190506130c55f8301846130a3565b92915050565b5f602082840312156130e0576130df612c64565b5b5f6130ed84828501612c8b565b91505092915050565b6130ff81612ff0565b8114613109575f5ffd5b50565b5f8135905061311a816130f6565b92915050565b5f6020828403121561313557613134612c64565b5b5f6131428482850161310c565b91505092915050565b7f53656c656374206174206c65617374203520646f6d61696e73000000000000005f82015250565b5f61317f601983612f9a565b915061318a8261314b565b602082019050919050565b5f6020820190508181035f8301526131ac81613173565b9050919050565b7f5175697a20616c726561647920696e2070726f677265737300000000000000005f82015250565b5f6131e7601883612f9a565b91506131f2826131b3565b602082019050919050565b5f6020820190508181035f830152613214816131db565b9050919050565b5f81905092915050565b5f61322f82612f90565b613239818561321b565b9350613249818560208601612faa565b80840191505092915050565b7f7c000000000000000000000000000000000000000000000000000000000000005f82015250565b5f61328960018361321b565b915061329482613255565b600182019050919050565b5f6132aa8285613225565b91506132b58261327d565b91506132c18284613225565b91508190509392505050565b7f4e487b71000000000000000000000000000000000000000000000000000000005f52603260045260245ffd5b5f819050919050565b61331461330f82612c6c565b6132fa565b82525050565b5f6133258284613303565b60208201915081905092915050565b7f4e487b71000000000000000000000000000000000000000000000000000000005f52602260045260245ffd5b5f600282049050600182168061337857607f821691505b60208210810361338b5761338a613334565b5b50919050565b5f819050815f5260205f209050919050565b5f6020601f8301049050919050565b5f82821b905092915050565b5f600883026133ed7fffffffffffffffffffffffffffffffffffffffffffffffffffffffffffffffff826133b2565b6133f786836133b2565b95508019841693508086168417925050509392505050565b5f819050919050565b5f61343261342d6134288461300b565b61340f565b61300b565b9050919050565b5f819050919050565b61344b83613418565b61345f61345782613439565b8484546133be565b825550505050565b5f5f905090565b613476613467565b613481818484613442565b505050565b5b818110156134a4576134995f8261346e565b600181019050613487565b5050565b601f8211156134e9576134ba81613391565b6134c3846133a3565b810160208510156134d2578190505b6134e66134de856133a3565b830182613486565b50505b505050565b5f82821c905092915050565b5f6135095f19846008026134ee565b1980831691505092915050565b5f61352183836134fa565b9150826002028217905092915050565b61353a82612f90565b67ffffffffffffffff81111561355357613552612cb7565b5b61355d8254613361565b6135688282856134a8565b5f60209050601f831160018114613599575f8415613587578287015190505b6135918582613516565b8655506135f8565b601f1984166135a786613391565b5f5b828110156135ce578489015182556001820191506020850194506020810190506135a9565b868310156135eb57848901516135e7601f8916826134fa565b8355505b6001600288020188555050505b505050505050565b7f4d7573742062652070726f706f736564206f776e6572000000000000000000005f82015250565b5f613634601683612f9a565b915061363f82613600565b602082019050919050565b5f6020820190508181035f83015261366181613628565b9050919050565b7f4e6f20616374697665207175697a0000000000000000000000000000000000005f82015250565b5f61369c600e83612f9a565b91506136a782613668565b602082019050919050565b5f6020820190508181035f8301526136c981613690565b9050919050565b7f4e487b71000000000000000000000000000000000000000000000000000000005f52601160045260245ffd5b5f6137078261300b565b91506137128361300b565b925082820190508082111561372a576137296136d0565b5b92915050565b7f546f6f206561726c7920746f2063616e63656c000000000000000000000000005f82015250565b5f613764601383612f9a565b915061376f82613730565b602082019050919050565b5f6020820190508181035f83015261379181613758565b9050919050565b7f54696d65206578706972656400000000000000000000000000000000000000005f82015250565b5f6137cc600c83612f9a565b91506137d782613798565b602082019050919050565b5f6020820190508181035f8301526137f9816137c0565b9050919050565b5f61380a82612ff0565b915061381583612ff0565b9250828201905060ff81111561382e5761382d6136d0565b5b92915050565b7f71000000000000000000000000000000000000000000000000000000000000005f82015250565b5f61386860018361321b565b915061387382613834565b600182019050919050565b5f6138888261385c565b91506138948284613225565b915081905092915050565b7f496e76616c6964207265717565737420494400000000000000000000000000005f82015250565b5f6138d3601283612f9a565b91506138de8261389f565b602082019050919050565b5f6020820190508181035f830152613900816138c7565b9050919050565b5f81905092915050565b5f819050815f5260205f209050919050565b5f815461392f81613361565b6139398186613907565b9450600182165f811461395357600181146139685761399a565b60ff198316865281151582028601935061399a565b61397185613911565b5f5b8381101561399257815481890152600182019150602081019050613973565b838801955050505b50505092915050565b5f6139ae8284613923565b915081905092915050565b5f6040820190508181035f8301526139d18185612fb8565b90506139e06020830184612ffc565b9392505050565b5f6139f18261300b565b91507fffffffffffffffffffffffffffffffffffffffffffffffffffffffffffffffff8203613a2357613a226136d0565b5b600182019050919050565b5f604082019050613a415f83018561302e565b613a4e6020830184612ffc565b9392505050565b5f613a5f82612ff0565b915060ff8203613a7257613a716136d0565b5b600182019050919050565b5f602082019050613a905f830184612ffc565b92915050565b5f5ffd5b5f5ffd5b5f5ffd5b5f5f83356001602003843603038112613abe57613abd613a96565b5b80840192508235915067ffffffffffffffff821115613ae057613adf613a9a565b5b602083019250600182023603831315613afc57613afb613a9e565b5b509250929050565b7f22000000000000000000000000000000000000000000000000000000000000005f82015250565b5f613b3860018361321b565b9150613b4382613b04565b600182019050919050565b5f613b59838561321b565b9350613b66838584612d5f565b82840190509392505050565b5f613b7d8286613225565b9150613b8882613b2c565b9150613b95828486613b4e565b9150613ba082613b2c565b9150819050949350505050565b5f613bb78261300b565b9150613bc28361300b565b9250828203905081811115613bda57613bd96136d0565b5b92915050565b7f2c000000000000000000000000000000000000000000000000000000000000005f82015250565b5f613c1460018361321b565b9150613c1f82613be0565b600182019050919050565b5f613c358284613225565b9150613c4082613c08565b915081905092915050565b7f5d000000000000000000000000000000000000000000000000000000000000005f82015250565b5f613c7f60018361321b565b9150613c8a82613c4b565b600182019050919050565b5f613ca08284613225565b9150613cab82613c73565b915081905092915050565b5f613cc08261300b565b9150613ccb8361300b565b9250828202613cd98161300b565b91508282048414831517613cf057613cef6136d0565b5b5092915050565b5f8160011c9050919050565b5f5f8291508390505b6001851115613d4c57808604811115613d2857613d276136d0565b5b6001851615613d375780820291505b8081029050613d4585613cf7565b9450613d0c565b94509492505050565b5f82613d645760019050613e1f565b81613d71575f9050613e1f565b8160018114613d875760028114613d9157613dc0565b6001915050613e1f565b60ff841115613da357613da26136d0565b5b8360020a915084821115613dba57613db96136d0565b5b50613e1f565b5060208310610133831016604e8410600b8410161715613df55782820a905083811115613df057613def6136d0565b5b613e1f565b613e028484846001613d03565b92509050818404811115613e1957613e186136d0565b5b81810290505b9392505050565b5f613e308261300b565b9150613e3b8361300b565b9250613e687fffffffffffffffffffffffffffffffffffffffffffffffffffffffffffffffff8484613d55565b905092915050565b7f4e487b71000000000000000000000000000000000000000000000000000000005f52601260045260245ffd5b5f613ea78261300b565b9150613eb28361300b565b925082613ec257613ec1613e70565b5b828204905092915050565b5f613ed78261300b565b9150613ee28361300b565b925082613ef257613ef1613e70565b5b828206905092915050565b7f4e487b71000000000000000000000000000000000000000000000000000000005f52602160045260245ffd5b5f67ffffffffffffffff82169050919050565b613f4681613f2a565b82525050565b5f81519050919050565b5f82825260208201905092915050565b5f613f7082613f4c565b613f7a8185613f56565b9350613f8a818560208601612faa565b613f9381612ca7565b840191505092915050565b5f61ffff82169050919050565b613fb481613f9e565b82525050565b5f63ffffffff82169050919050565b613fd281613fba565b82525050565b613fe181612c6c565b82525050565b5f60a082019050613ffa5f830188613f3d565b818103602083015261400c8187613f66565b905061401b6040830186613fab565b6140286060830185613fc9565b6140356080830184613fd8565b9695505050505050565b5f8151905061404d81612c75565b92915050565b5f6020828403121561406857614067612c64565b5b5f6140758482850161403f565b91505092915050565b7f4f6e6c792063616c6c61626c65206279206f776e6572000000000000000000005f82015250565b5f6140b2601683612f9a565b91506140bd8261407e565b602082019050919050565b5f6020820190508181035f8301526140df816140a6565b9050919050565b7f43616e6e6f74207472616e7366657220746f2073656c660000000000000000005f82015250565b5f61411a601783612f9a565b9150614125826140e6565b602082019050919050565b5f6020820190508181035f8301526141478161410e565b9050919050565b5f6020820190506141615f830184613014565b92915050565b5f61417182612ff0565b915061417c83612ff0565b9250828203905060ff811115614195576141946136d0565b5b9291505056fe68747470733a2f2f6377697a72707276797a6e656c7467687a6e6e612e73757061626173652e636f636f6e737420656c697a6142617365203d20617267735b325d3b636f6e73742075726c203d2060247b656c697a61426173657d2f67656e65726174655175697a603b20636f6e7374207061796c6f6164203d204a534f4e2e737472696e67696679287b20646f6d61696e733a204a534f4e2e706172736528617267735b305d292c20706c61796572416464726573733a20617267735b315d207d293b20636f6e737420726573203d2061776169742046756e6374696f6e732e6d616b654874747052657175657374287b2075726c2c206d6574686f643a2027504f5354272c20686561646572733a207b2027436f6e74656e742d54797065273a20276170706c69636174696f6e2f6a736f6e27207d2c20646174613a207061796c6f6164207d293b20696620287265732e6572726f7229207468726f77206e6577204572726f72287265732e6572726f722e6d657373616765293b20636f6e7374207175697a4964203d207265732e646174612e7175697a49643b20636f6e7374206e756d51203d207265732e646174612e6e756d5175657374696f6e733b2072657475726e2046756e6374696f6e732e656e636f6465537472696e672860247b7175697a49647d7c247b6e756d517d60293b636f6e737420656c697a6142617365203d20617267735b335d3b636f6e73742075726c203d2060247b656c697a61426173657d2f766572696679416e73776572603b20636f6e7374207061796c6f6164203d204a534f4e2e737472696e67696679287b207175697a49643a20617267735b305d2c207175657374696f6e49643a20617267735b315d2c2073656c6563746564496e6465783a207061727365496e7428617267735b325d2c20313029207d293b20636f6e737420726573203d2061776169742046756e6374696f6e732e6d616b654874747052657175657374287b2075726c2c206d6574686f643a2027504f5354272c20686561646572733a207b2027436f6e74656e742d54797065273a20276170706c69636174696f6e2f6a736f6e27207d2c20646174613a207061796c6f6164207d293b20696620287265732e6572726f7229207468726f77206e6577204572726f72287265732e6572726f722e6d657373616765293b20636f6e737420636f7272656374203d207265732e646174612e6973436f7272656374203f20273127203a202730273b2072657475726e2046756e6374696f6e732e656e636f6465537472696e6728636f7272656374293ba26469706673582212205031fb02ec2586752c3dcd321baf36900f65897a57cf3f685b3c0394823a130f64736f6c634300081e0033",
			"opcodes": "PUSH1 0xA0 PUSH1 0x40 MSTORE CALLVALUE DUP1 ISZERO PUSH2 0xF JUMPI PUSH0 PUSH0 REVERT JUMPDEST POP CALLER DUP1 PUSH0 PUSH20 0xF9B8FC078197181C841C296C876945AAA425B278 DUP1 PUSH20 0xFFFFFFFFFFFFFFFFFFFFFFFFFFFFFFFFFFFFFFFF AND PUSH1 0x80 DUP2 PUSH20 0xFFFFFFFFFFFFFFFFFFFFFFFFFFFFFFFFFFFFFFFF AND DUP2 MSTORE POP POP POP PUSH0 PUSH20 0xFFFFFFFFFFFFFFFFFFFFFFFFFFFFFFFFFFFFFFFF AND DUP3 PUSH20 0xFFFFFFFFFFFFFFFFFFFFFFFFFFFFFFFFFFFFFFFF AND SUB PUSH2 0xCB JUMPI PUSH1 0x40 MLOAD PUSH32 0x8C379A000000000000000000000000000000000000000000000000000000000 DUP2 MSTORE PUSH1 0x4 ADD PUSH2 0xC2 SWAP1 PUSH2 0x2DA JUMP JUMPDEST PUSH1 0x40 MLOAD DUP1 SWAP2 SUB SWAP1 REVERT JUMPDEST DUP2 PUSH0 PUSH0 PUSH2 0x100 EXP DUP2 SLOAD DUP2 PUSH20 0xFFFFFFFFFFFFFFFFFFFFFFFFFFFFFFFFFFFFFFFF MUL NOT AND SWAP1 DUP4 PUSH20 0xFFFFFFFFFFFFFFFFFFFFFFFFFFFFFFFFFFFFFFFF AND MUL OR SWAP1 SSTORE POP PUSH0 PUSH20 0xFFFFFFFFFFFFFFFFFFFFFFFFFFFFFFFFFFFFFFFF AND DUP2 PUSH20 0xFFFFFFFFFFFFFFFFFFFFFFFFFFFFFFFFFFFFFFFF AND EQ PUSH2 0x14D JUMPI PUSH2 0x14C DUP2 PUSH2 0x155 PUSH1 0x20 SHL PUSH1 0x20 SHR JUMP JUMPDEST JUMPDEST POP POP POP PUSH2 0x360 JUMP JUMPDEST CALLER PUSH20 0xFFFFFFFFFFFFFFFFFFFFFFFFFFFFFFFFFFFFFFFF AND DUP2 PUSH20 0xFFFFFFFFFFFFFFFFFFFFFFFFFFFFFFFFFFFFFFFF AND SUB PUSH2 0x1C3 JUMPI PUSH1 0x40 MLOAD PUSH32 0x8C379A000000000000000000000000000000000000000000000000000000000 DUP2 MSTORE PUSH1 0x4 ADD PUSH2 0x1BA SWAP1 PUSH2 0x342 JUMP JUMPDEST PUSH1 0x40 MLOAD DUP1 SWAP2 SUB SWAP1 REVERT JUMPDEST DUP1 PUSH1 0x1 PUSH0 PUSH2 0x100 EXP DUP2 SLOAD DUP2 PUSH20 0xFFFFFFFFFFFFFFFFFFFFFFFFFFFFFFFFFFFFFFFF MUL NOT AND SWAP1 DUP4 PUSH20 0xFFFFFFFFFFFFFFFFFFFFFFFFFFFFFFFFFFFFFFFF AND MUL OR SWAP1 SSTORE POP DUP1 PUSH20 0xFFFFFFFFFFFFFFFFFFFFFFFFFFFFFFFFFFFFFFFF AND PUSH0 PUSH0 SWAP1 SLOAD SWAP1 PUSH2 0x100 EXP SWAP1 DIV PUSH20 0xFFFFFFFFFFFFFFFFFFFFFFFFFFFFFFFFFFFFFFFF AND PUSH20 0xFFFFFFFFFFFFFFFFFFFFFFFFFFFFFFFFFFFFFFFF AND PUSH32 0xED8889F560326EB138920D842192F0EB3DD22B4F139C87A2C57538E05BAE1278 PUSH1 0x40 MLOAD PUSH1 0x40 MLOAD DUP1 SWAP2 SUB SWAP1 LOG3 POP JUMP JUMPDEST PUSH0 DUP3 DUP3 MSTORE PUSH1 0x20 DUP3 ADD SWAP1 POP SWAP3 SWAP2 POP POP JUMP JUMPDEST PUSH32 0x43616E6E6F7420736574206F776E657220746F207A65726F0000000000000000 PUSH0 DUP3 ADD MSTORE POP JUMP JUMPDEST PUSH0 PUSH2 0x2C4 PUSH1 0x18 DUP4 PUSH2 0x280 JUMP JUMPDEST SWAP2 POP PUSH2 0x2CF DUP3 PUSH2 0x290 JUMP JUMPDEST PUSH1 0x20 DUP3 ADD SWAP1 POP SWAP2 SWAP1 POP JUMP JUMPDEST PUSH0 PUSH1 0x20 DUP3 ADD SWAP1 POP DUP2 DUP2 SUB PUSH0 DUP4 ADD MSTORE PUSH2 0x2F1 DUP2 PUSH2 0x2B8 JUMP JUMPDEST SWAP1 POP SWAP2 SWAP1 POP JUMP JUMPDEST PUSH32 0x43616E6E6F74207472616E7366657220746F2073656C66000000000000000000 PUSH0 DUP3 ADD MSTORE POP JUMP JUMPDEST PUSH0 PUSH2 0x32C PUSH1 0x17 DUP4 PUSH2 0x280 JUMP JUMPDEST SWAP2 POP PUSH2 0x337 DUP3 PUSH2 0x2F8 JUMP JUMPDEST PUSH1 0x20 DUP3 ADD SWAP1 POP SWAP2 SWAP1 POP JUMP JUMPDEST PUSH0 PUSH1 0x20 DUP3 ADD SWAP1 POP DUP2 DUP2 SUB PUSH0 DUP4 ADD MSTORE PUSH2 0x359 DUP2 PUSH2 0x320 JUMP JUMPDEST SWAP1 POP SWAP2 SWAP1 POP JUMP JUMPDEST PUSH1 0x80 MLOAD PUSH2 0x4589 PUSH2 0x37F PUSH0 CODECOPY PUSH0 DUP2 DUP2 PUSH2 0x19E ADD MSTORE PUSH2 0x1FC1 ADD MSTORE PUSH2 0x4589 PUSH0 RETURN INVALID PUSH1 0x80 PUSH1 0x40 MSTORE CALLVALUE DUP1 ISZERO PUSH2 0xF JUMPI PUSH0 PUSH0 REVERT JUMPDEST POP PUSH1 0x4 CALLDATASIZE LT PUSH2 0x91 JUMPI PUSH0 CALLDATALOAD PUSH1 0xE0 SHR DUP1 PUSH4 0x8DA5CB5B GT PUSH2 0x64 JUMPI DUP1 PUSH4 0x8DA5CB5B EQ PUSH2 0x10C JUMPI DUP1 PUSH4 0x97CC19BA EQ PUSH2 0x12A JUMPI DUP1 PUSH4 0xC320C1B9 EQ PUSH2 0x15A JUMPI DUP1 PUSH4 0xEC4FD914 EQ PUSH2 0x164 JUMPI DUP1 PUSH4 0xF2FDE38B EQ PUSH2 0x180 JUMPI PUSH2 0x91 JUMP JUMPDEST DUP1 PUSH4 0xCA76175 EQ PUSH2 0x95 JUMPI DUP1 PUSH4 0x2AC87AA6 EQ PUSH2 0xB1 JUMPI DUP1 PUSH4 0x431A1B97 EQ PUSH2 0xCD JUMPI DUP1 PUSH4 0x79BA5097 EQ PUSH2 0x102 JUMPI JUMPDEST PUSH0 PUSH0 REVERT JUMPDEST PUSH2 0xAF PUSH1 0x4 DUP1 CALLDATASIZE SUB DUP2 ADD SWAP1 PUSH2 0xAA SWAP2 SWAP1 PUSH2 0x2DDB JUMP JUMPDEST PUSH2 0x19C JUMP JUMPDEST STOP JUMPDEST PUSH2 0xCB PUSH1 0x4 DUP1 CALLDATASIZE SUB DUP2 ADD SWAP1 PUSH2 0xC6 SWAP2 SWAP1 PUSH2 0x2EC0 JUMP JUMPDEST PUSH2 0x25E JUMP JUMPDEST STOP JUMPDEST PUSH2 0xE7 PUSH1 0x4 DUP1 CALLDATASIZE SUB DUP2 ADD SWAP1 PUSH2 0xE2 SWAP2 SWAP1 PUSH2 0x2F65 JUMP JUMPDEST PUSH2 0x710 JUMP JUMPDEST PUSH1 0x40 MLOAD PUSH2 0xF9 SWAP7 SWAP6 SWAP5 SWAP4 SWAP3 SWAP2 SWAP1 PUSH2 0x303D JUMP JUMPDEST PUSH1 0x40 MLOAD DUP1 SWAP2 SUB SWAP1 RETURN JUMPDEST PUSH2 0x10A PUSH2 0x7F3 JUMP JUMPDEST STOP JUMPDEST PUSH2 0x114 PUSH2 0x982 JUMP JUMPDEST PUSH1 0x40 MLOAD PUSH2 0x121 SWAP2 SWAP1 PUSH2 0x30B2 JUMP JUMPDEST PUSH1 0x40 MLOAD DUP1 SWAP2 SUB SWAP1 RETURN JUMPDEST PUSH2 0x144 PUSH1 0x4 DUP1 CALLDATASIZE SUB DUP2 ADD SWAP1 PUSH2 0x13F SWAP2 SWAP1 PUSH2 0x30CB JUMP JUMPDEST PUSH2 0x9A9 JUMP JUMPDEST PUSH1 0x40 MLOAD PUSH2 0x151 SWAP2 SWAP1 PUSH2 0x30B2 JUMP JUMPDEST PUSH1 0x40 MLOAD DUP1 SWAP2 SUB SWAP1 RETURN JUMPDEST PUSH2 0x162 PUSH2 0x9D9 JUMP JUMPDEST STOP JUMPDEST PUSH2 0x17E PUSH1 0x4 DUP1 CALLDATASIZE SUB DUP2 ADD SWAP1 PUSH2 0x179 SWAP2 SWAP1 PUSH2 0x3120 JUMP JUMPDEST PUSH2 0xB1D JUMP JUMPDEST STOP JUMPDEST PUSH2 0x19A PUSH1 0x4 DUP1 CALLDATASIZE SUB DUP2 ADD SWAP1 PUSH2 0x195 SWAP2 SWAP1 PUSH2 0x2F65 JUMP JUMPDEST PUSH2 0xFCF JUMP JUMPDEST STOP JUMPDEST PUSH32 0x0 PUSH20 0xFFFFFFFFFFFFFFFFFFFFFFFFFFFFFFFFFFFFFFFF AND CALLER PUSH20 0xFFFFFFFFFFFFFFFFFFFFFFFFFFFFFFFFFFFFFFFF AND EQ PUSH2 0x221 JUMPI PUSH1 0x40 MLOAD PUSH32 0xC6829F8300000000000000000000000000000000000000000000000000000000 DUP2 MSTORE PUSH1 0x4 ADD PUSH1 0x40 MLOAD DUP1 SWAP2 SUB SWAP1 REVERT JUMPDEST PUSH2 0x22C DUP4 DUP4 DUP4 PUSH2 0xFE3 JUMP JUMPDEST DUP3 PUSH32 0x85E1543BF2F84FE80C6BADBCE3648C8539AD1DF4D2B3D822938CA0538BE727E6 PUSH1 0x40 MLOAD PUSH1 0x40 MLOAD DUP1 SWAP2 SUB SWAP1 LOG2 POP POP POP JUMP JUMPDEST PUSH1 0x5 DUP3 DUP3 SWAP1 POP LT ISZERO PUSH2 0x2A5 JUMPI PUSH1 0x40 MLOAD PUSH32 0x8C379A000000000000000000000000000000000000000000000000000000000 DUP2 MSTORE PUSH1 0x4 ADD PUSH2 0x29C SWAP1 PUSH2 0x3195 JUMP JUMPDEST PUSH1 0x40 MLOAD DUP1 SWAP2 SUB SWAP1 REVERT JUMPDEST PUSH0 PUSH1 0x2 PUSH0 CALLER PUSH20 0xFFFFFFFFFFFFFFFFFFFFFFFFFFFFFFFFFFFFFFFF AND PUSH20 0xFFFFFFFFFFFFFFFFFFFFFFFFFFFFFFFFFFFFFFFF AND DUP2 MSTORE PUSH1 0x20 ADD SWAP1 DUP2 MSTORE PUSH1 0x20 ADD PUSH0 KECCAK256 SWAP1 POP DUP1 PUSH1 0x4 ADD PUSH0 SWAP1 SLOAD SWAP1 PUSH2 0x100 EXP SWAP1 DIV PUSH1 0xFF AND ISZERO PUSH2 0x336 JUMPI PUSH1 0x40 MLOAD PUSH32 0x8C379A000000000000000000000000000000000000000000000000000000000 DUP2 MSTORE PUSH1 0x4 ADD PUSH2 0x32D SWAP1 PUSH2 0x31FD JUMP JUMPDEST PUSH1 0x40 MLOAD DUP1 SWAP2 SUB SWAP1 REVERT JUMPDEST PUSH1 0x1 DUP2 PUSH1 0x4 ADD PUSH0 PUSH2 0x100 EXP DUP2 SLOAD DUP2 PUSH1 0xFF MUL NOT AND SWAP1 DUP4 ISZERO ISZERO MUL OR SWAP1 SSTORE POP PUSH0 DUP2 PUSH1 0x1 ADD PUSH0 PUSH2 0x100 EXP DUP2 SLOAD DUP2 PUSH1 0xFF MUL NOT AND SWAP1 DUP4 PUSH1 0xFF AND MUL OR SWAP1 SSTORE POP PUSH0 DUP2 PUSH1 0x2 ADD DUP2 SWAP1 SSTORE POP TIMESTAMP DUP2 PUSH1 0x3 ADD DUP2 SWAP1 SSTORE POP PUSH0 DUP2 PUSH1 0x4 ADD PUSH1 0x1 PUSH2 0x100 EXP DUP2 SLOAD DUP2 PUSH1 0xFF MUL NOT AND SWAP1 DUP4 PUSH1 0xFF AND MUL OR SWAP1 SSTORE POP PUSH2 0x3A5 PUSH2 0x2BB4 JUMP JUMPDEST PUSH2 0x3BF PUSH2 0x3B0 PUSH2 0x13CF JUMP JUMPDEST DUP3 PUSH2 0x13F2 SWAP1 SWAP2 SWAP1 PUSH4 0xFFFFFFFF AND JUMP JUMPDEST PUSH0 PUSH2 0x3CA DUP6 DUP6 PUSH2 0x1402 JUMP JUMPDEST SWAP1 POP PUSH0 PUSH2 0x3D6 CALLER PUSH2 0x1507 JUMP JUMPDEST SWAP1 POP PUSH0 PUSH2 0x417 PUSH1 0x40 MLOAD DUP1 PUSH1 0x40 ADD PUSH1 0x40 MSTORE DUP1 PUSH1 0xB DUP2 MSTORE PUSH1 0x20 ADD PUSH32 0x454C495A414F535F55524C000000000000000000000000000000000000000000 DUP2 MSTORE POP PUSH2 0x1802 JUMP JUMPDEST SWAP1 POP PUSH0 PUSH2 0x458 PUSH1 0x40 MLOAD DUP1 PUSH1 0x40 ADD PUSH1 0x40 MSTORE DUP1 PUSH1 0xC DUP2 MSTORE PUSH1 0x20 ADD PUSH32 0x53555041424153455F55524C0000000000000000000000000000000000000000 DUP2 MSTORE POP PUSH2 0x1802 JUMP JUMPDEST SWAP1 POP PUSH0 PUSH2 0x4A1 PUSH2 0x49C PUSH1 0x40 MLOAD DUP1 PUSH1 0x40 ADD PUSH1 0x40 MSTORE DUP1 PUSH1 0x1A DUP2 MSTORE PUSH1 0x20 ADD PUSH32 0x444F4E5F484F535445445F534543524554535F534C4F545F4944000000000000 DUP2 MSTORE POP PUSH2 0x190C JUMP JUMPDEST PUSH2 0x1A12 JUMP JUMPDEST PUSH2 0x4E7 PUSH2 0x4E2 PUSH1 0x40 MLOAD DUP1 PUSH1 0x40 ADD PUSH1 0x40 MSTORE DUP1 PUSH1 0x1A DUP2 MSTORE PUSH1 0x20 ADD PUSH32 0x444F4E5F484F535445445F534543524554535F56455253494F4E000000000000 DUP2 MSTORE POP PUSH2 0x190C JUMP JUMPDEST PUSH2 0x1A12 JUMP JUMPDEST PUSH1 0x40 MLOAD PUSH1 0x20 ADD PUSH2 0x4F8 SWAP3 SWAP2 SWAP1 PUSH2 0x329F JUMP JUMPDEST PUSH1 0x40 MLOAD PUSH1 0x20 DUP2 DUP4 SUB SUB DUP2 MSTORE SWAP1 PUSH1 0x40 MSTORE SWAP1 POP PUSH0 PUSH1 0x5 PUSH8 0xFFFFFFFFFFFFFFFF DUP2 GT ISZERO PUSH2 0x525 JUMPI PUSH2 0x524 PUSH2 0x2CB7 JUMP JUMPDEST JUMPDEST PUSH1 0x40 MLOAD SWAP1 DUP1 DUP3 MSTORE DUP1 PUSH1 0x20 MUL PUSH1 0x20 ADD DUP3 ADD PUSH1 0x40 MSTORE DUP1 ISZERO PUSH2 0x558 JUMPI DUP2 PUSH1 0x20 ADD JUMPDEST PUSH1 0x60 DUP2 MSTORE PUSH1 0x20 ADD SWAP1 PUSH1 0x1 SWAP1 SUB SWAP1 DUP2 PUSH2 0x543 JUMPI SWAP1 POP JUMPDEST POP SWAP1 POP DUP6 DUP2 PUSH0 DUP2 MLOAD DUP2 LT PUSH2 0x56F JUMPI PUSH2 0x56E PUSH2 0x32CD JUMP JUMPDEST JUMPDEST PUSH1 0x20 MUL PUSH1 0x20 ADD ADD DUP2 SWAP1 MSTORE POP DUP5 DUP2 PUSH1 0x1 DUP2 MLOAD DUP2 LT PUSH2 0x58F JUMPI PUSH2 0x58E PUSH2 0x32CD JUMP JUMPDEST JUMPDEST PUSH1 0x20 MUL PUSH1 0x20 ADD ADD DUP2 SWAP1 MSTORE POP DUP4 DUP2 PUSH1 0x2 DUP2 MLOAD DUP2 LT PUSH2 0x5AF JUMPI PUSH2 0x5AE PUSH2 0x32CD JUMP JUMPDEST JUMPDEST PUSH1 0x20 MUL PUSH1 0x20 ADD ADD DUP2 SWAP1 MSTORE POP DUP3 DUP2 PUSH1 0x3 DUP2 MLOAD DUP2 LT PUSH2 0x5CF JUMPI PUSH2 0x5CE PUSH2 0x32CD JUMP JUMPDEST JUMPDEST PUSH1 0x20 MUL PUSH1 0x20 ADD ADD DUP2 SWAP1 MSTORE POP DUP2 DUP2 PUSH1 0x4 DUP2 MLOAD DUP2 LT PUSH2 0x5EF JUMPI PUSH2 0x5EE PUSH2 0x32CD JUMP JUMPDEST JUMPDEST PUSH1 0x20 MUL PUSH1 0x20 ADD ADD DUP2 SWAP1 MSTORE POP PUSH2 0x60D DUP2 DUP9 PUSH2 0x1B6B SWAP1 SWAP2 SWAP1 PUSH4 0xFFFFFFFF AND JUMP JUMPDEST PUSH0 PUSH2 0x682 PUSH2 0x61A DUP10 PUSH2 0x1BB2 JUMP JUMPDEST PUSH2 0x658 PUSH1 0x40 MLOAD DUP1 PUSH1 0x40 ADD PUSH1 0x40 MSTORE DUP1 PUSH1 0xF DUP2 MSTORE PUSH1 0x20 ADD PUSH32 0x535542534352495054494F4E5F49440000000000000000000000000000000000 DUP2 MSTORE POP PUSH2 0x190C JUMP JUMPDEST PUSH3 0x493E0 PUSH32 0x66756E2D626173652D7365706F6C69612D310000000000000000000000000000 PUSH2 0x1FBD JUMP JUMPDEST SWAP1 POP CALLER PUSH1 0x3 PUSH0 DUP4 DUP2 MSTORE PUSH1 0x20 ADD SWAP1 DUP2 MSTORE PUSH1 0x20 ADD PUSH0 KECCAK256 PUSH0 PUSH2 0x100 EXP DUP2 SLOAD DUP2 PUSH20 0xFFFFFFFFFFFFFFFFFFFFFFFFFFFFFFFFFFFFFFFF MUL NOT AND SWAP1 DUP4 PUSH20 0xFFFFFFFFFFFFFFFFFFFFFFFFFFFFFFFFFFFFFFFF AND MUL OR SWAP1 SSTORE POP DUP1 PUSH1 0x40 MLOAD PUSH1 0x20 ADD PUSH2 0x6E4 SWAP2 SWAP1 PUSH2 0x331A JUMP JUMPDEST PUSH1 0x40 MLOAD PUSH1 0x20 DUP2 DUP4 SUB SUB DUP2 MSTORE SWAP1 PUSH1 0x40 MSTORE DUP10 PUSH0 ADD SWAP1 DUP2 PUSH2 0x702 SWAP2 SWAP1 PUSH2 0x3531 JUMP JUMPDEST POP POP POP POP POP POP POP POP POP POP POP POP JUMP JUMPDEST PUSH1 0x2 PUSH1 0x20 MSTORE DUP1 PUSH0 MSTORE PUSH1 0x40 PUSH0 KECCAK256 PUSH0 SWAP2 POP SWAP1 POP DUP1 PUSH0 ADD DUP1 SLOAD PUSH2 0x72F SWAP1 PUSH2 0x3361 JUMP JUMPDEST DUP1 PUSH1 0x1F ADD PUSH1 0x20 DUP1 SWAP2 DIV MUL PUSH1 0x20 ADD PUSH1 0x40 MLOAD SWAP1 DUP2 ADD PUSH1 0x40 MSTORE DUP1 SWAP3 SWAP2 SWAP1 DUP2 DUP2 MSTORE PUSH1 0x20 ADD DUP3 DUP1 SLOAD PUSH2 0x75B SWAP1 PUSH2 0x3361 JUMP JUMPDEST DUP1 ISZERO PUSH2 0x7A6 JUMPI DUP1 PUSH1 0x1F LT PUSH2 0x77D JUMPI PUSH2 0x100 DUP1 DUP4 SLOAD DIV MUL DUP4 MSTORE SWAP2 PUSH1 0x20 ADD SWAP2 PUSH2 0x7A6 JUMP JUMPDEST DUP3 ADD SWAP2 SWAP1 PUSH0 MSTORE PUSH1 0x20 PUSH0 KECCAK256 SWAP1 JUMPDEST DUP2 SLOAD DUP2 MSTORE SWAP1 PUSH1 0x1 ADD SWAP1 PUSH1 0x20 ADD DUP1 DUP4 GT PUSH2 0x789 JUMPI DUP3 SWAP1 SUB PUSH1 0x1F AND DUP3 ADD SWAP2 JUMPDEST POP POP POP POP POP SWAP1 DUP1 PUSH1 0x1 ADD PUSH0 SWAP1 SLOAD SWAP1 PUSH2 0x100 EXP SWAP1 DIV PUSH1 0xFF AND SWAP1 DUP1 PUSH1 0x2 ADD SLOAD SWAP1 DUP1 PUSH1 0x3 ADD SLOAD SWAP1 DUP1 PUSH1 0x4 ADD PUSH0 SWAP1 SLOAD SWAP1 PUSH2 0x100 EXP SWAP1 DIV PUSH1 0xFF AND SWAP1 DUP1 PUSH1 0x4 ADD PUSH1 0x1 SWAP1 SLOAD SWAP1 PUSH2 0x100 EXP SWAP1 DIV PUSH1 0xFF AND SWAP1 POP DUP7 JUMP JUMPDEST PUSH1 0x1 PUSH0 SWAP1 SLOAD SWAP1 PUSH2 0x100 EXP SWAP1 DIV PUSH20 0xFFFFFFFFFFFFFFFFFFFFFFFFFFFFFFFFFFFFFFFF AND PUSH20 0xFFFFFFFFFFFFFFFFFFFFFFFFFFFFFFFFFFFFFFFF AND CALLER PUSH20 0xFFFFFFFFFFFFFFFFFFFFFFFFFFFFFFFFFFFFFFFF AND EQ PUSH2 0x882 JUMPI PUSH1 0x40 MLOAD PUSH32 0x8C379A000000000000000000000000000000000000000000000000000000000 DUP2 MSTORE PUSH1 0x4 ADD PUSH2 0x879 SWAP1 PUSH2 0x364A JUMP JUMPDEST PUSH1 0x40 MLOAD DUP1 SWAP2 SUB SWAP1 REVERT JUMPDEST PUSH0 PUSH0 PUSH0 SWAP1 SLOAD SWAP1 PUSH2 0x100 EXP SWAP1 DIV PUSH20 0xFFFFFFFFFFFFFFFFFFFFFFFFFFFFFFFFFFFFFFFF AND SWAP1 POP CALLER PUSH0 PUSH0 PUSH2 0x100 EXP DUP2 SLOAD DUP2 PUSH20 0xFFFFFFFFFFFFFFFFFFFFFFFFFFFFFFFFFFFFFFFF MUL NOT AND SWAP1 DUP4 PUSH20 0xFFFFFFFFFFFFFFFFFFFFFFFFFFFFFFFFFFFFFFFF AND MUL OR SWAP1 SSTORE POP PUSH0 PUSH1 0x1 PUSH0 PUSH2 0x100 EXP DUP2 SLOAD DUP2 PUSH20 0xFFFFFFFFFFFFFFFFFFFFFFFFFFFFFFFFFFFFFFFF MUL NOT AND SWAP1 DUP4 PUSH20 0xFFFFFFFFFFFFFFFFFFFFFFFFFFFFFFFFFFFFFFFF AND MUL OR SWAP1 SSTORE POP CALLER PUSH20 0xFFFFFFFFFFFFFFFFFFFFFFFFFFFFFFFFFFFFFFFF AND DUP2 PUSH20 0xFFFFFFFFFFFFFFFFFFFFFFFFFFFFFFFFFFFFFFFF AND PUSH32 0x8BE0079C531659141344CD1FD0A4F28419497F9722A3DAAFE3B4186F6B6457E0 PUSH1 0x40 MLOAD PUSH1 0x40 MLOAD DUP1 SWAP2 SUB SWAP1 LOG3 POP JUMP JUMPDEST PUSH0 PUSH0 PUSH0 SWAP1 SLOAD SWAP1 PUSH2 0x100 EXP SWAP1 DIV PUSH20 0xFFFFFFFFFFFFFFFFFFFFFFFFFFFFFFFFFFFFFFFF AND SWAP1 POP SWAP1 JUMP JUMPDEST PUSH1 0x3 PUSH1 0x20 MSTORE DUP1 PUSH0 MSTORE PUSH1 0x40 PUSH0 KECCAK256 PUSH0 SWAP2 POP SLOAD SWAP1 PUSH2 0x100 EXP SWAP1 DIV PUSH20 0xFFFFFFFFFFFFFFFFFFFFFFFFFFFFFFFFFFFFFFFF AND DUP2 JUMP JUMPDEST PUSH0 PUSH1 0x2 PUSH0 CALLER PUSH20 0xFFFFFFFFFFFFFFFFFFFFFFFFFFFFFFFFFFFFFFFF AND PUSH20 0xFFFFFFFFFFFFFFFFFFFFFFFFFFFFFFFFFFFFFFFF AND DUP2 MSTORE PUSH1 0x20 ADD SWAP1 DUP2 MSTORE PUSH1 0x20 ADD PUSH0 KECCAK256 SWAP1 POP DUP1 PUSH1 0x4 ADD PUSH0 SWAP1 SLOAD SWAP1 PUSH2 0x100 EXP SWAP1 DIV PUSH1 0xFF AND PUSH2 0xA69 JUMPI PUSH1 0x40 MLOAD PUSH32 0x8C379A000000000000000000000000000000000000000000000000000000000 DUP2 MSTORE PUSH1 0x4 ADD PUSH2 0xA60 SWAP1 PUSH2 0x36B2 JUMP JUMPDEST PUSH1 0x40 MLOAD DUP1 SWAP2 SUB SWAP1 REVERT JUMPDEST PUSH2 0x1C2 DUP2 PUSH1 0x3 ADD SLOAD PUSH2 0xA7B SWAP2 SWAP1 PUSH2 0x36FD JUMP JUMPDEST TIMESTAMP GT PUSH2 0xABC JUMPI PUSH1 0x40 MLOAD PUSH32 0x8C379A000000000000000000000000000000000000000000000000000000000 DUP2 MSTORE PUSH1 0x4 ADD PUSH2 0xAB3 SWAP1 PUSH2 0x377A JUMP JUMPDEST PUSH1 0x40 MLOAD DUP1 SWAP2 SUB SWAP1 REVERT JUMPDEST PUSH0 DUP2 PUSH1 0x4 ADD PUSH0 PUSH2 0x100 EXP DUP2 SLOAD DUP2 PUSH1 0xFF MUL NOT AND SWAP1 DUP4 ISZERO ISZERO MUL OR SWAP1 SSTORE POP CALLER PUSH20 0xFFFFFFFFFFFFFFFFFFFFFFFFFFFFFFFFFFFFFFFF AND PUSH32 0xD9EF658E62B2D2EC36EA56E68DB6F49DCB5E7977F243F28354069876AD0B90E4 PUSH1 0x40 MLOAD PUSH1 0x40 MLOAD DUP1 SWAP2 SUB SWAP1 LOG2 POP JUMP JUMPDEST PUSH0 PUSH1 0x2 PUSH0 CALLER PUSH20 0xFFFFFFFFFFFFFFFFFFFFFFFFFFFFFFFFFFFFFFFF AND PUSH20 0xFFFFFFFFFFFFFFFFFFFFFFFFFFFFFFFFFFFFFFFF AND DUP2 MSTORE PUSH1 0x20 ADD SWAP1 DUP2 MSTORE PUSH1 0x20 ADD PUSH0 KECCAK256 SWAP1 POP DUP1 PUSH1 0x4 ADD PUSH0 SWAP1 SLOAD SWAP1 PUSH2 0x100 EXP SWAP1 DIV PUSH1 0xFF AND PUSH2 0xBAD JUMPI PUSH1 0x40 MLOAD PUSH32 0x8C379A000000000000000000000000000000000000000000000000000000000 DUP2 MSTORE PUSH1 0x4 ADD PUSH2 0xBA4 SWAP1 PUSH2 0x36B2 JUMP JUMPDEST PUSH1 0x40 MLOAD DUP1 SWAP2 SUB SWAP1 REVERT JUMPDEST PUSH2 0x1C2 DUP2 PUSH1 0x3 ADD SLOAD PUSH2 0xBBF SWAP2 SWAP1 PUSH2 0x36FD JUMP JUMPDEST TIMESTAMP GT ISZERO PUSH2 0xC01 JUMPI PUSH1 0x40 MLOAD PUSH32 0x8C379A000000000000000000000000000000000000000000000000000000000 DUP2 MSTORE PUSH1 0x4 ADD PUSH2 0xBF8 SWAP1 PUSH2 0x37E2 JUMP JUMPDEST PUSH1 0x40 MLOAD DUP1 SWAP2 SUB SWAP1 REVERT JUMPDEST PUSH2 0xC09 PUSH2 0x2BB4 JUMP JUMPDEST PUSH2 0xC23 PUSH2 0xC14 PUSH2 0x209C JUMP JUMPDEST DUP3 PUSH2 0x13F2 SWAP1 SWAP2 SWAP1 PUSH4 0xFFFFFFFF AND JUMP JUMPDEST PUSH0 DUP3 PUSH0 ADD DUP1 SLOAD PUSH2 0xC32 SWAP1 PUSH2 0x3361 JUMP JUMPDEST DUP1 PUSH1 0x1F ADD PUSH1 0x20 DUP1 SWAP2 DIV MUL PUSH1 0x20 ADD PUSH1 0x40 MLOAD SWAP1 DUP2 ADD PUSH1 0x40 MSTORE DUP1 SWAP3 SWAP2 SWAP1 DUP2 DUP2 MSTORE PUSH1 0x20 ADD DUP3 DUP1 SLOAD PUSH2 0xC5E SWAP1 PUSH2 0x3361 JUMP JUMPDEST DUP1 ISZERO PUSH2 0xCA9 JUMPI DUP1 PUSH1 0x1F LT PUSH2 0xC80 JUMPI PUSH2 0x100 DUP1 DUP4 SLOAD DIV MUL DUP4 MSTORE SWAP2 PUSH1 0x20 ADD SWAP2 PUSH2 0xCA9 JUMP JUMPDEST DUP3 ADD SWAP2 SWAP1 PUSH0 MSTORE PUSH1 0x20 PUSH0 KECCAK256 SWAP1 JUMPDEST DUP2 SLOAD DUP2 MSTORE SWAP1 PUSH1 0x1 ADD SWAP1 PUSH1 0x20 ADD DUP1 DUP4 GT PUSH2 0xC8C JUMPI DUP3 SWAP1 SUB PUSH1 0x1F AND DUP3 ADD SWAP2 JUMPDEST POP POP POP POP POP SWAP1 POP PUSH0 PUSH2 0xCD9 PUSH1 0x1 DUP6 PUSH1 0x1 ADD PUSH0 SWAP1 SLOAD SWAP1 PUSH2 0x100 EXP SWAP1 DIV PUSH1 0xFF AND PUSH2 0xCD1 SWAP2 SWAP1 PUSH2 0x3800 JUMP JUMPDEST PUSH1 0xFF AND PUSH2 0x1A12 JUMP JUMPDEST PUSH1 0x40 MLOAD PUSH1 0x20 ADD PUSH2 0xCE9 SWAP2 SWAP1 PUSH2 0x387E JUMP JUMPDEST PUSH1 0x40 MLOAD PUSH1 0x20 DUP2 DUP4 SUB SUB DUP2 MSTORE SWAP1 PUSH1 0x40 MSTORE SWAP1 POP PUSH0 PUSH2 0xD07 DUP7 PUSH1 0xFF AND PUSH2 0x1A12 JUMP JUMPDEST SWAP1 POP PUSH0 PUSH2 0xD48 PUSH1 0x40 MLOAD DUP1 PUSH1 0x40 ADD PUSH1 0x40 MSTORE DUP1 PUSH1 0xB DUP2 MSTORE PUSH1 0x20 ADD PUSH32 0x454C495A414F535F55524C000000000000000000000000000000000000000000 DUP2 MSTORE POP PUSH2 0x1802 JUMP JUMPDEST SWAP1 POP PUSH0 PUSH2 0xD91 PUSH2 0xD8C PUSH1 0x40 MLOAD DUP1 PUSH1 0x40 ADD PUSH1 0x40 MSTORE DUP1 PUSH1 0x1A DUP2 MSTORE PUSH1 0x20 ADD PUSH32 0x444F4E5F484F535445445F534543524554535F534C4F545F4944000000000000 DUP2 MSTORE POP PUSH2 0x190C JUMP JUMPDEST PUSH2 0x1A12 JUMP JUMPDEST PUSH2 0xDD7 PUSH2 0xDD2 PUSH1 0x40 MLOAD DUP1 PUSH1 0x40 ADD PUSH1 0x40 MSTORE DUP1 PUSH1 0x1A DUP2 MSTORE PUSH1 0x20 ADD PUSH32 0x444F4E5F484F535445445F534543524554535F56455253494F4E000000000000 DUP2 MSTORE POP PUSH2 0x190C JUMP JUMPDEST PUSH2 0x1A12 JUMP JUMPDEST PUSH1 0x40 MLOAD PUSH1 0x20 ADD PUSH2 0xDE8 SWAP3 SWAP2 SWAP1 PUSH2 0x329F JUMP JUMPDEST PUSH1 0x40 MLOAD PUSH1 0x20 DUP2 DUP4 SUB SUB DUP2 MSTORE SWAP1 PUSH1 0x40 MSTORE SWAP1 POP PUSH0 PUSH1 0x5 PUSH8 0xFFFFFFFFFFFFFFFF DUP2 GT ISZERO PUSH2 0xE15 JUMPI PUSH2 0xE14 PUSH2 0x2CB7 JUMP JUMPDEST JUMPDEST PUSH1 0x40 MLOAD SWAP1 DUP1 DUP3 MSTORE DUP1 PUSH1 0x20 MUL PUSH1 0x20 ADD DUP3 ADD PUSH1 0x40 MSTORE DUP1 ISZERO PUSH2 0xE48 JUMPI DUP2 PUSH1 0x20 ADD JUMPDEST PUSH1 0x60 DUP2 MSTORE PUSH1 0x20 ADD SWAP1 PUSH1 0x1 SWAP1 SUB SWAP1 DUP2 PUSH2 0xE33 JUMPI SWAP1 POP JUMPDEST POP SWAP1 POP DUP6 DUP2 PUSH0 DUP2 MLOAD DUP2 LT PUSH2 0xE5F JUMPI PUSH2 0xE5E PUSH2 0x32CD JUMP JUMPDEST JUMPDEST PUSH1 0x20 MUL PUSH1 0x20 ADD ADD DUP2 SWAP1 MSTORE POP DUP5 DUP2 PUSH1 0x1 DUP2 MLOAD DUP2 LT PUSH2 0xE7F JUMPI PUSH2 0xE7E PUSH2 0x32CD JUMP JUMPDEST JUMPDEST PUSH1 0x20 MUL PUSH1 0x20 ADD ADD DUP2 SWAP1 MSTORE POP DUP4 DUP2 PUSH1 0x2 DUP2 MLOAD DUP2 LT PUSH2 0xE9F JUMPI PUSH2 0xE9E PUSH2 0x32CD JUMP JUMPDEST JUMPDEST PUSH1 0x20 MUL PUSH1 0x20 ADD ADD DUP2 SWAP1 MSTORE POP DUP3 DUP2 PUSH1 0x3 DUP2 MLOAD DUP2 LT PUSH2 0xEBF JUMPI PUSH2 0xEBE PUSH2 0x32CD JUMP JUMPDEST JUMPDEST PUSH1 0x20 MUL PUSH1 0x20 ADD ADD DUP2 SWAP1 MSTORE POP DUP2 DUP2 PUSH1 0x4 DUP2 MLOAD DUP2 LT PUSH2 0xEDF JUMPI PUSH2 0xEDE PUSH2 0x32CD JUMP JUMPDEST JUMPDEST PUSH1 0x20 MUL PUSH1 0x20 ADD ADD DUP2 SWAP1 MSTORE POP PUSH2 0xEFD DUP2 DUP9 PUSH2 0x1B6B SWAP1 SWAP2 SWAP1 PUSH4 0xFFFFFFFF AND JUMP JUMPDEST PUSH0 PUSH2 0xF72 PUSH2 0xF0A DUP10 PUSH2 0x1BB2 JUMP JUMPDEST PUSH2 0xF48 PUSH1 0x40 MLOAD DUP1 PUSH1 0x40 ADD PUSH1 0x40 MSTORE DUP1 PUSH1 0xF DUP2 MSTORE PUSH1 0x20 ADD PUSH32 0x535542534352495054494F4E5F49440000000000000000000000000000000000 DUP2 MSTORE POP PUSH2 0x190C JUMP JUMPDEST PUSH3 0x493E0 PUSH32 0x66756E2D626173652D7365706F6C69612D310000000000000000000000000000 PUSH2 0x1FBD JUMP JUMPDEST SWAP1 POP CALLER PUSH1 0x3 PUSH0 DUP4 DUP2 MSTORE PUSH1 0x20 ADD SWAP1 DUP2 MSTORE PUSH1 0x20 ADD PUSH0 KECCAK256 PUSH0 PUSH2 0x100 EXP DUP2 SLOAD DUP2 PUSH20 0xFFFFFFFFFFFFFFFFFFFFFFFFFFFFFFFFFFFFFFFF MUL NOT AND SWAP1 DUP4 PUSH20 0xFFFFFFFFFFFFFFFFFFFFFFFFFFFFFFFFFFFFFFFF AND MUL OR SWAP1 SSTORE POP POP POP POP POP POP POP POP POP POP POP JUMP JUMPDEST PUSH2 0xFD7 PUSH2 0x20BF JUMP JUMPDEST PUSH2 0xFE0 DUP2 PUSH2 0x214F JUMP JUMPDEST POP JUMP JUMPDEST PUSH0 PUSH1 0x3 PUSH0 DUP6 DUP2 MSTORE PUSH1 0x20 ADD SWAP1 DUP2 MSTORE PUSH1 0x20 ADD PUSH0 KECCAK256 PUSH0 SWAP1 SLOAD SWAP1 PUSH2 0x100 EXP SWAP1 DIV PUSH20 0xFFFFFFFFFFFFFFFFFFFFFFFFFFFFFFFFFFFFFFFF AND SWAP1 POP PUSH0 PUSH20 0xFFFFFFFFFFFFFFFFFFFFFFFFFFFFFFFFFFFFFFFF AND DUP2 PUSH20 0xFFFFFFFFFFFFFFFFFFFFFFFFFFFFFFFFFFFFFFFF AND SUB PUSH2 0x1085 JUMPI PUSH1 0x40 MLOAD PUSH32 0x8C379A000000000000000000000000000000000000000000000000000000000 DUP2 MSTORE PUSH1 0x4 ADD PUSH2 0x107C SWAP1 PUSH2 0x38E9 JUMP JUMPDEST PUSH1 0x40 MLOAD DUP1 SWAP2 SUB SWAP1 REVERT JUMPDEST PUSH0 PUSH1 0x2 PUSH0 DUP4 PUSH20 0xFFFFFFFFFFFFFFFFFFFFFFFFFFFFFFFFFFFFFFFF AND PUSH20 0xFFFFFFFFFFFFFFFFFFFFFFFFFFFFFFFFFFFFFFFF AND DUP2 MSTORE PUSH1 0x20 ADD SWAP1 DUP2 MSTORE PUSH1 0x20 ADD PUSH0 KECCAK256 SWAP1 POP PUSH0 DUP6 PUSH1 0x40 MLOAD PUSH1 0x20 ADD PUSH2 0x10D7 SWAP2 SWAP1 PUSH2 0x331A JUMP JUMPDEST PUSH1 0x40 MLOAD PUSH1 0x20 DUP2 DUP4 SUB SUB DUP2 MSTORE SWAP1 PUSH1 0x40 MSTORE SWAP1 POP DUP2 PUSH0 ADD PUSH1 0x40 MLOAD PUSH2 0x10F8 SWAP2 SWAP1 PUSH2 0x39A3 JUMP JUMPDEST PUSH1 0x40 MLOAD DUP1 SWAP2 SUB SWAP1 KECCAK256 DUP2 DUP1 MLOAD SWAP1 PUSH1 0x20 ADD KECCAK256 SUB PUSH2 0x1394 JUMPI PUSH0 DUP3 PUSH1 0x1 ADD PUSH0 SWAP1 SLOAD SWAP1 PUSH2 0x100 EXP SWAP1 DIV PUSH1 0xFF AND PUSH1 0xFF AND SUB PUSH2 0x11BB JUMPI PUSH0 PUSH0 PUSH2 0x1132 DUP8 PUSH2 0x227A JUMP JUMPDEST SWAP2 POP SWAP2 POP DUP2 DUP5 PUSH0 ADD SWAP1 DUP2 PUSH2 0x1146 SWAP2 SWAP1 PUSH2 0x3531 JUMP JUMPDEST POP DUP1 DUP5 PUSH1 0x4 ADD PUSH1 0x1 PUSH2 0x100 EXP DUP2 SLOAD DUP2 PUSH1 0xFF MUL NOT AND SWAP1 DUP4 PUSH1 0xFF AND MUL OR SWAP1 SSTORE POP DUP5 PUSH20 0xFFFFFFFFFFFFFFFFFFFFFFFFFFFFFFFFFFFFFFFF AND PUSH32 0x24BB3705C7AD2A404FD0ED31143A60AC9C3ACF33C50E13C6FFD8D47330C6D9F3 DUP4 DUP4 PUSH1 0x40 MLOAD PUSH2 0x11AC SWAP3 SWAP2 SWAP1 PUSH2 0x39B9 JUMP JUMPDEST PUSH1 0x40 MLOAD DUP1 SWAP2 SUB SWAP1 LOG2 POP POP PUSH2 0x1393 JUMP JUMPDEST PUSH0 PUSH1 0x40 MLOAD DUP1 PUSH1 0x40 ADD PUSH1 0x40 MSTORE DUP1 PUSH1 0x1 DUP2 MSTORE PUSH1 0x20 ADD PUSH32 0x3100000000000000000000000000000000000000000000000000000000000000 DUP2 MSTORE POP PUSH0 DUP2 MLOAD DUP2 LT PUSH2 0x1204 JUMPI PUSH2 0x1203 PUSH2 0x32CD JUMP JUMPDEST JUMPDEST PUSH1 0x20 ADD ADD MLOAD PUSH1 0xF8 SHR PUSH1 0xF8 SHL PUSH1 0xF8 SHR PUSH1 0xFF AND DUP7 PUSH0 DUP2 MLOAD DUP2 LT PUSH2 0x1228 JUMPI PUSH2 0x1227 PUSH2 0x32CD JUMP JUMPDEST JUMPDEST PUSH1 0x20 ADD ADD MLOAD PUSH1 0xF8 SHR PUSH1 0xF8 SHL PUSH1 0xF8 SHR PUSH1 0xFF AND EQ SWAP1 POP DUP1 ISZERO PUSH2 0x125C JUMPI DUP3 PUSH1 0x2 ADD PUSH0 DUP2 SLOAD DUP1 SWAP3 SWAP2 SWAP1 PUSH2 0x1256 SWAP1 PUSH2 0x39E7 JUMP JUMPDEST SWAP2 SWAP1 POP SSTORE POP JUMPDEST DUP4 PUSH20 0xFFFFFFFFFFFFFFFFFFFFFFFFFFFFFFFFFFFFFFFF AND PUSH32 0xB768089C188A4564FCCB0BB3CFC28EB0DD9AA31F098324D1A7D7E2AD929674BC DUP3 DUP6 PUSH1 0x1 ADD PUSH0 SWAP1 SLOAD SWAP1 PUSH2 0x100 EXP SWAP1 DIV PUSH1 0xFF AND PUSH1 0x40 MLOAD PUSH2 0x12B4 SWAP3 SWAP2 SWAP1 PUSH2 0x3A2E JUMP JUMPDEST PUSH1 0x40 MLOAD DUP1 SWAP2 SUB SWAP1 LOG2 DUP3 PUSH1 0x1 ADD PUSH0 DUP2 DUP2 SWAP1 SLOAD SWAP1 PUSH2 0x100 EXP SWAP1 DIV PUSH1 0xFF AND DUP1 SWAP3 SWAP2 SWAP1 PUSH2 0x12DC SWAP1 PUSH2 0x3A55 JUMP JUMPDEST SWAP2 SWAP1 PUSH2 0x100 EXP DUP2 SLOAD DUP2 PUSH1 0xFF MUL NOT AND SWAP1 DUP4 PUSH1 0xFF AND MUL OR SWAP1 SSTORE POP POP DUP3 PUSH1 0x4 ADD PUSH1 0x1 SWAP1 SLOAD SWAP1 PUSH2 0x100 EXP SWAP1 DIV PUSH1 0xFF AND PUSH1 0xFF AND DUP4 PUSH1 0x1 ADD PUSH0 SWAP1 SLOAD SWAP1 PUSH2 0x100 EXP SWAP1 DIV PUSH1 0xFF AND PUSH1 0xFF AND LT PUSH2 0x1391 JUMPI PUSH0 DUP4 PUSH1 0x4 ADD PUSH0 PUSH2 0x100 EXP DUP2 SLOAD DUP2 PUSH1 0xFF MUL NOT AND SWAP1 DUP4 ISZERO ISZERO MUL OR SWAP1 SSTORE POP DUP4 PUSH20 0xFFFFFFFFFFFFFFFFFFFFFFFFFFFFFFFFFFFFFFFF AND PUSH32 0x8E71BC2C0606DECC62CB81EBFFC09590F1445FCCBC0149CA781A2A862CD77AD9 DUP5 PUSH1 0x2 ADD SLOAD PUSH1 0x40 MLOAD PUSH2 0x1388 SWAP2 SWAP1 PUSH2 0x3A7D JUMP JUMPDEST PUSH1 0x40 MLOAD DUP1 SWAP2 SUB SWAP1 LOG2 JUMPDEST POP JUMPDEST JUMPDEST PUSH1 0x3 PUSH0 DUP8 DUP2 MSTORE PUSH1 0x20 ADD SWAP1 DUP2 MSTORE PUSH1 0x20 ADD PUSH0 KECCAK256 PUSH0 PUSH2 0x100 EXP DUP2 SLOAD SWAP1 PUSH20 0xFFFFFFFFFFFFFFFFFFFFFFFFFFFFFFFFFFFFFFFF MUL NOT AND SWAP1 SSTORE POP POP POP POP POP POP JUMP JUMPDEST PUSH1 0x60 PUSH1 0x40 MLOAD DUP1 PUSH2 0x200 ADD PUSH1 0x40 MSTORE DUP1 PUSH2 0x1CD DUP2 MSTORE PUSH1 0x20 ADD PUSH2 0x41C4 PUSH2 0x1CD SWAP2 CODECOPY SWAP1 POP SWAP1 JUMP JUMPDEST PUSH2 0x13FE DUP3 PUSH0 PUSH0 DUP5 PUSH2 0x2364 JUMP JUMPDEST POP POP JUMP JUMPDEST PUSH1 0x60 PUSH0 PUSH1 0x40 MLOAD DUP1 PUSH1 0x40 ADD PUSH1 0x40 MSTORE DUP1 PUSH1 0x1 DUP2 MSTORE PUSH1 0x20 ADD PUSH32 0x5B00000000000000000000000000000000000000000000000000000000000000 DUP2 MSTORE POP SWAP1 POP PUSH0 PUSH0 SWAP1 POP JUMPDEST DUP5 DUP5 SWAP1 POP DUP2 LT ISZERO PUSH2 0x14DD JUMPI DUP2 DUP6 DUP6 DUP4 DUP2 DUP2 LT PUSH2 0x1461 JUMPI PUSH2 0x1460 PUSH2 0x32CD JUMP JUMPDEST JUMPDEST SWAP1 POP PUSH1 0x20 MUL DUP2 ADD SWAP1 PUSH2 0x1473 SWAP2 SWAP1 PUSH2 0x3AA2 JUMP JUMPDEST PUSH1 0x40 MLOAD PUSH1 0x20 ADD PUSH2 0x1485 SWAP4 SWAP3 SWAP2 SWAP1 PUSH2 0x3B72 JUMP JUMPDEST PUSH1 0x40 MLOAD PUSH1 0x20 DUP2 DUP4 SUB SUB DUP2 MSTORE SWAP1 PUSH1 0x40 MSTORE SWAP2 POP PUSH1 0x1 DUP6 DUP6 SWAP1 POP PUSH2 0x14A6 SWAP2 SWAP1 PUSH2 0x3BAD JUMP JUMPDEST DUP2 LT ISZERO PUSH2 0x14D0 JUMPI DUP2 PUSH1 0x40 MLOAD PUSH1 0x20 ADD PUSH2 0x14BE SWAP2 SWAP1 PUSH2 0x3C2A JUMP JUMPDEST PUSH1 0x40 MLOAD PUSH1 0x20 DUP2 DUP4 SUB SUB DUP2 MSTORE SWAP1 PUSH1 0x40 MSTORE SWAP2 POP JUMPDEST DUP1 DUP1 PUSH1 0x1 ADD SWAP2 POP POP PUSH2 0x1442 JUMP JUMPDEST POP DUP1 PUSH1 0x40 MLOAD PUSH1 0x20 ADD PUSH2 0x14EF SWAP2 SWAP1 PUSH2 0x3C95 JUMP JUMPDEST PUSH1 0x40 MLOAD PUSH1 0x20 DUP2 DUP4 SUB SUB DUP2 MSTORE SWAP1 PUSH1 0x40 MSTORE SWAP2 POP POP SWAP3 SWAP2 POP POP JUMP JUMPDEST PUSH1 0x60 PUSH0 PUSH1 0x40 MLOAD DUP1 PUSH1 0x40 ADD PUSH1 0x40 MSTORE DUP1 PUSH1 0x10 DUP2 MSTORE PUSH1 0x20 ADD PUSH32 0x3031323334353637383961626364656600000000000000000000000000000000 DUP2 MSTORE POP SWAP1 POP PUSH0 PUSH1 0x2A PUSH8 0xFFFFFFFFFFFFFFFF DUP2 GT ISZERO PUSH2 0x155E JUMPI PUSH2 0x155D PUSH2 0x2CB7 JUMP JUMPDEST JUMPDEST PUSH1 0x40 MLOAD SWAP1 DUP1 DUP3 MSTORE DUP1 PUSH1 0x1F ADD PUSH1 0x1F NOT AND PUSH1 0x20 ADD DUP3 ADD PUSH1 0x40 MSTORE DUP1 ISZERO PUSH2 0x1590 JUMPI DUP2 PUSH1 0x20 ADD PUSH1 0x1 DUP3 MUL DUP1 CALLDATASIZE DUP4 CALLDATACOPY DUP1 DUP3 ADD SWAP2 POP POP SWAP1 POP JUMPDEST POP SWAP1 POP PUSH32 0x3000000000000000000000000000000000000000000000000000000000000000 DUP2 PUSH0 DUP2 MLOAD DUP2 LT PUSH2 0x15C7 JUMPI PUSH2 0x15C6 PUSH2 0x32CD JUMP JUMPDEST JUMPDEST PUSH1 0x20 ADD ADD SWAP1 PUSH31 0xFFFFFFFFFFFFFFFFFFFFFFFFFFFFFFFFFFFFFFFFFFFFFFFFFFFFFFFFFFFFFF NOT AND SWAP1 DUP2 PUSH0 BYTE SWAP1 MSTORE8 POP PUSH32 0x7800000000000000000000000000000000000000000000000000000000000000 DUP2 PUSH1 0x1 DUP2 MLOAD DUP2 LT PUSH2 0x162A JUMPI PUSH2 0x1629 PUSH2 0x32CD JUMP JUMPDEST JUMPDEST PUSH1 0x20 ADD ADD SWAP1 PUSH31 0xFFFFFFFFFFFFFFFFFFFFFFFFFFFFFFFFFFFFFFFFFFFFFFFFFFFFFFFFFFFFFF NOT AND SWAP1 DUP2 PUSH0 BYTE SWAP1 MSTORE8 POP PUSH0 PUSH0 SWAP1 POP JUMPDEST PUSH1 0x14 DUP2 LT ISZERO PUSH2 0x17F7 JUMPI DUP3 PUSH1 0xF PUSH1 0x2 DUP4 PUSH2 0x1676 SWAP2 SWAP1 PUSH2 0x3CB6 JUMP JUMPDEST PUSH1 0x27 PUSH2 0x1682 SWAP2 SWAP1 PUSH2 0x3BAD JUMP JUMPDEST PUSH1 0x10 PUSH2 0x168E SWAP2 SWAP1 PUSH2 0x3E26 JUMP JUMPDEST DUP8 PUSH20 0xFFFFFFFFFFFFFFFFFFFFFFFFFFFFFFFFFFFFFFFF AND PUSH2 0x16AF SWAP2 SWAP1 PUSH2 0x3E9D JUMP JUMPDEST AND PUSH1 0xFF AND DUP2 MLOAD DUP2 LT PUSH2 0x16C4 JUMPI PUSH2 0x16C3 PUSH2 0x32CD JUMP JUMPDEST JUMPDEST PUSH1 0x20 ADD ADD MLOAD PUSH1 0xF8 SHR PUSH1 0xF8 SHL DUP3 PUSH1 0x2 DUP4 PUSH2 0x16DD SWAP2 SWAP1 PUSH2 0x3CB6 JUMP JUMPDEST PUSH1 0x2 PUSH2 0x16E9 SWAP2 SWAP1 PUSH2 0x36FD JUMP JUMPDEST DUP2 MLOAD DUP2 LT PUSH2 0x16FA JUMPI PUSH2 0x16F9 PUSH2 0x32CD JUMP JUMPDEST JUMPDEST PUSH1 0x20 ADD ADD SWAP1 PUSH31 0xFFFFFFFFFFFFFFFFFFFFFFFFFFFFFFFFFFFFFFFFFFFFFFFFFFFFFFFFFFFFFF NOT AND SWAP1 DUP2 PUSH0 BYTE SWAP1 MSTORE8 POP DUP3 PUSH1 0xF PUSH1 0x2 DUP4 PUSH2 0x1738 SWAP2 SWAP1 PUSH2 0x3CB6 JUMP JUMPDEST PUSH1 0x26 PUSH2 0x1744 SWAP2 SWAP1 PUSH2 0x3BAD JUMP JUMPDEST PUSH1 0x10 PUSH2 0x1750 SWAP2 SWAP1 PUSH2 0x3E26 JUMP JUMPDEST DUP8 PUSH20 0xFFFFFFFFFFFFFFFFFFFFFFFFFFFFFFFFFFFFFFFF AND PUSH2 0x1771 SWAP2 SWAP1 PUSH2 0x3E9D JUMP JUMPDEST AND PUSH1 0xFF AND DUP2 MLOAD DUP2 LT PUSH2 0x1786 JUMPI PUSH2 0x1785 PUSH2 0x32CD JUMP JUMPDEST JUMPDEST PUSH1 0x20 ADD ADD MLOAD PUSH1 0xF8 SHR PUSH1 0xF8 SHL DUP3 PUSH1 0x2 DUP4 PUSH2 0x179F SWAP2 SWAP1 PUSH2 0x3CB6 JUMP JUMPDEST PUSH1 0x3 PUSH2 0x17AB SWAP2 SWAP1 PUSH2 0x36FD JUMP JUMPDEST DUP2 MLOAD DUP2 LT PUSH2 0x17BC JUMPI PUSH2 0x17BB PUSH2 0x32CD JUMP JUMPDEST JUMPDEST PUSH1 0x20 ADD ADD SWAP1 PUSH31 0xFFFFFFFFFFFFFFFFFFFFFFFFFFFFFFFFFFFFFFFFFFFFFFFFFFFFFFFFFFFFFF NOT AND SWAP1 DUP2 PUSH0 BYTE SWAP1 MSTORE8 POP DUP1 DUP1 PUSH1 0x1 ADD SWAP2 POP POP PUSH2 0x165D JUMP JUMPDEST POP DUP1 SWAP3 POP POP POP SWAP2 SWAP1 POP JUMP JUMPDEST PUSH1 0x60 PUSH1 0x40 MLOAD DUP1 PUSH1 0x40 ADD PUSH1 0x40 MSTORE DUP1 PUSH1 0xB DUP2 MSTORE PUSH1 0x20 ADD PUSH32 0x454C495A414F535F55524C000000000000000000000000000000000000000000 DUP2 MSTORE POP DUP1 MLOAD SWAP1 PUSH1 0x20 ADD KECCAK256 DUP3 DUP1 MLOAD SWAP1 PUSH1 0x20 ADD KECCAK256 SUB PUSH2 0x188B JUMPI PUSH1 0x40 MLOAD DUP1 PUSH1 0x40 ADD PUSH1 0x40 MSTORE DUP1 PUSH1 0x15 DUP2 MSTORE PUSH1 0x20 ADD PUSH32 0x687474703A2F2F6C6F63616C686F73743A353030300000000000000000000000 DUP2 MSTORE POP SWAP1 POP PUSH2 0x1907 JUMP JUMPDEST PUSH1 0x40 MLOAD DUP1 PUSH1 0x40 ADD PUSH1 0x40 MSTORE DUP1 PUSH1 0xC DUP2 MSTORE PUSH1 0x20 ADD PUSH32 0x53555041424153455F55524C0000000000000000000000000000000000000000 DUP2 MSTORE POP DUP1 MLOAD SWAP1 PUSH1 0x20 ADD KECCAK256 DUP3 DUP1 MLOAD SWAP1 PUSH1 0x20 ADD KECCAK256 SUB PUSH2 0x18F5 JUMPI PUSH1 0x40 MLOAD DUP1 PUSH1 0x60 ADD PUSH1 0x40 MSTORE DUP1 PUSH1 0x28 DUP2 MSTORE PUSH1 0x20 ADD PUSH2 0x419C PUSH1 0x28 SWAP2 CODECOPY SWAP1 POP PUSH2 0x1907 JUMP JUMPDEST PUSH1 0x40 MLOAD DUP1 PUSH1 0x20 ADD PUSH1 0x40 MSTORE DUP1 PUSH0 DUP2 MSTORE POP SWAP1 POP JUMPDEST SWAP2 SWAP1 POP JUMP JUMPDEST PUSH0 PUSH1 0x40 MLOAD DUP1 PUSH1 0x40 ADD PUSH1 0x40 MSTORE DUP1 PUSH1 0x1A DUP2 MSTORE PUSH1 0x20 ADD PUSH32 0x444F4E5F484F535445445F534543524554535F534C4F545F4944000000000000 DUP2 MSTORE POP DUP1 MLOAD SWAP1 PUSH1 0x20 ADD KECCAK256 DUP3 DUP1 MLOAD SWAP1 PUSH1 0x20 ADD KECCAK256 SUB PUSH2 0x195F JUMPI PUSH0 SWAP1 POP PUSH2 0x1A0D JUMP JUMPDEST PUSH1 0x40 MLOAD DUP1 PUSH1 0x40 ADD PUSH1 0x40 MSTORE DUP1 PUSH1 0x1A DUP2 MSTORE PUSH1 0x20 ADD PUSH32 0x444F4E5F484F535445445F534543524554535F56455253494F4E000000000000 DUP2 MSTORE POP DUP1 MLOAD SWAP1 PUSH1 0x20 ADD KECCAK256 DUP3 DUP1 MLOAD SWAP1 PUSH1 0x20 ADD KECCAK256 SUB PUSH2 0x19B5 JUMPI PUSH4 0x684002B9 SWAP1 POP PUSH2 0x1A0D JUMP JUMPDEST PUSH1 0x40 MLOAD DUP1 PUSH1 0x40 ADD PUSH1 0x40 MSTORE DUP1 PUSH1 0xF DUP2 MSTORE PUSH1 0x20 ADD PUSH32 0x535542534352495054494F4E5F49440000000000000000000000000000000000 DUP2 MSTORE POP DUP1 MLOAD SWAP1 PUSH1 0x20 ADD KECCAK256 DUP3 DUP1 MLOAD SWAP1 PUSH1 0x20 ADD KECCAK256 SUB PUSH2 0x1A09 JUMPI PUSH2 0x14A SWAP1 POP PUSH2 0x1A0D JUMP JUMPDEST PUSH0 SWAP1 POP JUMPDEST SWAP2 SWAP1 POP JUMP JUMPDEST PUSH1 0x60 PUSH0 DUP3 SUB PUSH2 0x1A58 JUMPI PUSH1 0x40 MLOAD DUP1 PUSH1 0x40 ADD PUSH1 0x40 MSTORE DUP1 PUSH1 0x1 DUP2 MSTORE PUSH1 0x20 ADD PUSH32 0x3000000000000000000000000000000000000000000000000000000000000000 DUP2 MSTORE POP SWAP1 POP PUSH2 0x1B66 JUMP JUMPDEST PUSH0 DUP3 SWAP1 POP PUSH0 JUMPDEST PUSH0 DUP3 EQ PUSH2 0x1A87 JUMPI DUP1 DUP1 PUSH2 0x1A70 SWAP1 PUSH2 0x39E7 JUMP JUMPDEST SWAP2 POP POP PUSH1 0xA DUP3 PUSH2 0x1A80 SWAP2 SWAP1 PUSH2 0x3E9D JUMP JUMPDEST SWAP2 POP PUSH2 0x1A5E JUMP JUMPDEST PUSH0 DUP2 PUSH8 0xFFFFFFFFFFFFFFFF DUP2 GT ISZERO PUSH2 0x1AA2 JUMPI PUSH2 0x1AA1 PUSH2 0x2CB7 JUMP JUMPDEST JUMPDEST PUSH1 0x40 MLOAD SWAP1 DUP1 DUP3 MSTORE DUP1 PUSH1 0x1F ADD PUSH1 0x1F NOT AND PUSH1 0x20 ADD DUP3 ADD PUSH1 0x40 MSTORE DUP1 ISZERO PUSH2 0x1AD4 JUMPI DUP2 PUSH1 0x20 ADD PUSH1 0x1 DUP3 MUL DUP1 CALLDATASIZE DUP4 CALLDATACOPY DUP1 DUP3 ADD SWAP2 POP POP SWAP1 POP JUMPDEST POP SWAP1 POP JUMPDEST PUSH0 DUP6 EQ PUSH2 0x1B5F JUMPI PUSH1 0x1 DUP3 PUSH2 0x1AEC SWAP2 SWAP1 PUSH2 0x3BAD JUMP JUMPDEST SWAP2 POP PUSH1 0xA DUP6 PUSH2 0x1AFB SWAP2 SWAP1 PUSH2 0x3ECD JUMP JUMPDEST PUSH1 0x30 PUSH2 0x1B07 SWAP2 SWAP1 PUSH2 0x36FD JUMP JUMPDEST PUSH1 0xF8 SHL DUP2 DUP4 DUP2 MLOAD DUP2 LT PUSH2 0x1B1D JUMPI PUSH2 0x1B1C PUSH2 0x32CD JUMP JUMPDEST JUMPDEST PUSH1 0x20 ADD ADD SWAP1 PUSH31 0xFFFFFFFFFFFFFFFFFFFFFFFFFFFFFFFFFFFFFFFFFFFFFFFFFFFFFFFFFFFFFF NOT AND SWAP1 DUP2 PUSH0 BYTE SWAP1 MSTORE8 POP PUSH1 0xA DUP6 PUSH2 0x1B58 SWAP2 SWAP1 PUSH2 0x3E9D JUMP JUMPDEST SWAP5 POP PUSH2 0x1AD8 JUMP JUMPDEST DUP1 SWAP4 POP POP POP POP JUMPDEST SWAP2 SWAP1 POP JUMP JUMPDEST PUSH0 DUP2 MLOAD SUB PUSH2 0x1BA5 JUMPI PUSH1 0x40 MLOAD PUSH32 0xFE936CB700000000000000000000000000000000000000000000000000000000 DUP2 MSTORE PUSH1 0x4 ADD PUSH1 0x40 MLOAD DUP1 SWAP2 SUB SWAP1 REVERT JUMPDEST DUP1 DUP3 PUSH1 0xA0 ADD DUP2 SWAP1 MSTORE POP POP POP JUMP JUMPDEST PUSH1 0x60 PUSH0 PUSH2 0x1BC0 PUSH2 0x100 PUSH2 0x240A JUMP JUMPDEST SWAP1 POP PUSH2 0x1C0A PUSH1 0x40 MLOAD DUP1 PUSH1 0x40 ADD PUSH1 0x40 MSTORE DUP1 PUSH1 0xC DUP2 MSTORE PUSH1 0x20 ADD PUSH32 0x636F64654C6F636174696F6E0000000000000000000000000000000000000000 DUP2 MSTORE POP DUP3 PUSH2 0x242F SWAP1 SWAP2 SWAP1 PUSH4 0xFFFFFFFF AND JUMP JUMPDEST PUSH2 0x1C32 DUP4 PUSH0 ADD MLOAD PUSH1 0x2 DUP2 GT ISZERO PUSH2 0x1C23 JUMPI PUSH2 0x1C22 PUSH2 0x3EFD JUMP JUMPDEST JUMPDEST DUP3 PUSH2 0x2457 SWAP1 SWAP2 SWAP1 PUSH4 0xFFFFFFFF AND JUMP JUMPDEST PUSH2 0x1C7A PUSH1 0x40 MLOAD DUP1 PUSH1 0x40 ADD PUSH1 0x40 MSTORE DUP1 PUSH1 0x8 DUP2 MSTORE PUSH1 0x20 ADD PUSH32 0x6C616E6775616765000000000000000000000000000000000000000000000000 DUP2 MSTORE POP DUP3 PUSH2 0x242F SWAP1 SWAP2 SWAP1 PUSH4 0xFFFFFFFF AND JUMP JUMPDEST PUSH2 0x1CA2 DUP4 PUSH1 0x40 ADD MLOAD PUSH0 DUP2 GT ISZERO PUSH2 0x1C93 JUMPI PUSH2 0x1C92 PUSH2 0x3EFD JUMP JUMPDEST JUMPDEST DUP3 PUSH2 0x2457 SWAP1 SWAP2 SWAP1 PUSH4 0xFFFFFFFF AND JUMP JUMPDEST PUSH2 0x1CEA PUSH1 0x40 MLOAD DUP1 PUSH1 0x40 ADD PUSH1 0x40 MSTORE DUP1 PUSH1 0x6 DUP2 MSTORE PUSH1 0x20 ADD PUSH32 0x736F757263650000000000000000000000000000000000000000000000000000 DUP2 MSTORE POP DUP3 PUSH2 0x242F SWAP1 SWAP2 SWAP1 PUSH4 0xFFFFFFFF AND JUMP JUMPDEST PUSH2 0x1D01 DUP4 PUSH1 0x60 ADD MLOAD DUP3 PUSH2 0x242F SWAP1 SWAP2 SWAP1 PUSH4 0xFFFFFFFF AND JUMP JUMPDEST PUSH0 DUP4 PUSH1 0xA0 ADD MLOAD MLOAD GT ISZERO PUSH2 0x1DB8 JUMPI PUSH2 0x1D56 PUSH1 0x40 MLOAD DUP1 PUSH1 0x40 ADD PUSH1 0x40 MSTORE DUP1 PUSH1 0x4 DUP2 MSTORE PUSH1 0x20 ADD PUSH32 0x6172677300000000000000000000000000000000000000000000000000000000 DUP2 MSTORE POP DUP3 PUSH2 0x242F SWAP1 SWAP2 SWAP1 PUSH4 0xFFFFFFFF AND JUMP JUMPDEST PUSH2 0x1D5F DUP2 PUSH2 0x24A6 JUMP JUMPDEST PUSH0 PUSH0 SWAP1 POP JUMPDEST DUP4 PUSH1 0xA0 ADD MLOAD MLOAD DUP2 LT ISZERO PUSH2 0x1DAD JUMPI PUSH2 0x1DA2 DUP5 PUSH1 0xA0 ADD MLOAD DUP3 DUP2 MLOAD DUP2 LT PUSH2 0x1D8B JUMPI PUSH2 0x1D8A PUSH2 0x32CD JUMP JUMPDEST JUMPDEST PUSH1 0x20 MUL PUSH1 0x20 ADD ADD MLOAD DUP4 PUSH2 0x242F SWAP1 SWAP2 SWAP1 PUSH4 0xFFFFFFFF AND JUMP JUMPDEST DUP1 PUSH1 0x1 ADD SWAP1 POP PUSH2 0x1D64 JUMP JUMPDEST POP PUSH2 0x1DB7 DUP2 PUSH2 0x24CE JUMP JUMPDEST JUMPDEST PUSH0 DUP4 PUSH1 0x80 ADD MLOAD MLOAD GT ISZERO PUSH2 0x1EF7 JUMPI PUSH0 PUSH1 0x2 DUP2 GT ISZERO PUSH2 0x1DD8 JUMPI PUSH2 0x1DD7 PUSH2 0x3EFD JUMP JUMPDEST JUMPDEST DUP4 PUSH1 0x20 ADD MLOAD PUSH1 0x2 DUP2 GT ISZERO PUSH2 0x1DEF JUMPI PUSH2 0x1DEE PUSH2 0x3EFD JUMP JUMPDEST JUMPDEST SUB PUSH2 0x1E26 JUMPI PUSH1 0x40 MLOAD PUSH32 0xA80D31F700000000000000000000000000000000000000000000000000000000 DUP2 MSTORE PUSH1 0x4 ADD PUSH1 0x40 MLOAD DUP1 SWAP2 SUB SWAP1 REVERT JUMPDEST PUSH2 0x1E6E PUSH1 0x40 MLOAD DUP1 PUSH1 0x40 ADD PUSH1 0x40 MSTORE DUP1 PUSH1 0xF DUP2 MSTORE PUSH1 0x20 ADD PUSH32 0x736563726574734C6F636174696F6E0000000000000000000000000000000000 DUP2 MSTORE POP DUP3 PUSH2 0x242F SWAP1 SWAP2 SWAP1 PUSH4 0xFFFFFFFF AND JUMP JUMPDEST PUSH2 0x1E97 DUP4 PUSH1 0x20 ADD MLOAD PUSH1 0x2 DUP2 GT ISZERO PUSH2 0x1E88 JUMPI PUSH2 0x1E87 PUSH2 0x3EFD JUMP JUMPDEST JUMPDEST DUP3 PUSH2 0x2457 SWAP1 SWAP2 SWAP1 PUSH4 0xFFFFFFFF AND JUMP JUMPDEST PUSH2 0x1EDF PUSH1 0x40 MLOAD DUP1 PUSH1 0x40 ADD PUSH1 0x40 MSTORE DUP1 PUSH1 0x7 DUP2 MSTORE PUSH1 0x20 ADD PUSH32 0x7365637265747300000000000000000000000000000000000000000000000000 DUP2 MSTORE POP DUP3 PUSH2 0x242F SWAP1 SWAP2 SWAP1 PUSH4 0xFFFFFFFF AND JUMP JUMPDEST PUSH2 0x1EF6 DUP4 PUSH1 0x80 ADD MLOAD DUP3 PUSH2 0x24F6 SWAP1 SWAP2 SWAP1 PUSH4 0xFFFFFFFF AND JUMP JUMPDEST JUMPDEST PUSH0 DUP4 PUSH1 0xC0 ADD MLOAD MLOAD GT ISZERO PUSH2 0x1FAE JUMPI PUSH2 0x1F4C PUSH1 0x40 MLOAD DUP1 PUSH1 0x40 ADD PUSH1 0x40 MSTORE DUP1 PUSH1 0x9 DUP2 MSTORE PUSH1 0x20 ADD PUSH32 0x6279746573417267730000000000000000000000000000000000000000000000 DUP2 MSTORE POP DUP3 PUSH2 0x242F SWAP1 SWAP2 SWAP1 PUSH4 0xFFFFFFFF AND JUMP JUMPDEST PUSH2 0x1F55 DUP2 PUSH2 0x24A6 JUMP JUMPDEST PUSH0 PUSH0 SWAP1 POP JUMPDEST DUP4 PUSH1 0xC0 ADD MLOAD MLOAD DUP2 LT ISZERO PUSH2 0x1FA3 JUMPI PUSH2 0x1F98 DUP5 PUSH1 0xC0 ADD MLOAD DUP3 DUP2 MLOAD DUP2 LT PUSH2 0x1F81 JUMPI PUSH2 0x1F80 PUSH2 0x32CD JUMP JUMPDEST JUMPDEST PUSH1 0x20 MUL PUSH1 0x20 ADD ADD MLOAD DUP4 PUSH2 0x24F6 SWAP1 SWAP2 SWAP1 PUSH4 0xFFFFFFFF AND JUMP JUMPDEST DUP1 PUSH1 0x1 ADD SWAP1 POP PUSH2 0x1F5A JUMP JUMPDEST POP PUSH2 0x1FAD DUP2 PUSH2 0x24CE JUMP JUMPDEST JUMPDEST DUP1 PUSH0 ADD MLOAD PUSH0 ADD MLOAD SWAP2 POP POP SWAP2 SWAP1 POP JUMP JUMPDEST PUSH0 PUSH0 PUSH32 0x0 PUSH20 0xFFFFFFFFFFFFFFFFFFFFFFFFFFFFFFFFFFFFFFFF AND PUSH4 0x461D2762 DUP7 DUP9 PUSH1 0x1 DUP9 DUP9 PUSH1 0x40 MLOAD DUP7 PUSH4 0xFFFFFFFF AND PUSH1 0xE0 SHL DUP2 MSTORE PUSH1 0x4 ADD PUSH2 0x2021 SWAP6 SWAP5 SWAP4 SWAP3 SWAP2 SWAP1 PUSH2 0x3FE7 JUMP JUMPDEST PUSH1 0x20 PUSH1 0x40 MLOAD DUP1 DUP4 SUB DUP2 PUSH0 DUP8 GAS CALL ISZERO DUP1 ISZERO PUSH2 0x203D JUMPI RETURNDATASIZE PUSH0 PUSH0 RETURNDATACOPY RETURNDATASIZE PUSH0 REVERT JUMPDEST POP POP POP POP PUSH1 0x40 MLOAD RETURNDATASIZE PUSH1 0x1F NOT PUSH1 0x1F DUP3 ADD AND DUP3 ADD DUP1 PUSH1 0x40 MSTORE POP DUP2 ADD SWAP1 PUSH2 0x2061 SWAP2 SWAP1 PUSH2 0x4053 JUMP JUMPDEST SWAP1 POP DUP1 PUSH32 0x1131472297A800FEE664D1D89CFA8F7676FF07189ECC53F80BBB5F4969099DB8 PUSH1 0x40 MLOAD PUSH1 0x40 MLOAD DUP1 SWAP2 SUB SWAP1 LOG2 DUP1 SWAP2 POP POP SWAP5 SWAP4 POP POP POP POP JUMP JUMPDEST PUSH1 0x60 PUSH1 0x40 MLOAD DUP1 PUSH2 0x200 ADD PUSH1 0x40 MSTORE DUP1 PUSH2 0x1C3 DUP2 MSTORE PUSH1 0x20 ADD PUSH2 0x4391 PUSH2 0x1C3 SWAP2 CODECOPY SWAP1 POP SWAP1 JUMP JUMPDEST PUSH0 PUSH0 SWAP1 SLOAD SWAP1 PUSH2 0x100 EXP SWAP1 DIV PUSH20 0xFFFFFFFFFFFFFFFFFFFFFFFFFFFFFFFFFFFFFFFF AND PUSH20 0xFFFFFFFFFFFFFFFFFFFFFFFFFFFFFFFFFFFFFFFF AND CALLER PUSH20 0xFFFFFFFFFFFFFFFFFFFFFFFFFFFFFFFFFFFFFFFF AND EQ PUSH2 0x214D JUMPI PUSH1 0x40 MLOAD PUSH32 0x8C379A000000000000000000000000000000000000000000000000000000000 DUP2 MSTORE PUSH1 0x4 ADD PUSH2 0x2144 SWAP1 PUSH2 0x40C8 JUMP JUMPDEST PUSH1 0x40 MLOAD DUP1 SWAP2 SUB SWAP1 REVERT JUMPDEST JUMP JUMPDEST CALLER PUSH20 0xFFFFFFFFFFFFFFFFFFFFFFFFFFFFFFFFFFFFFFFF AND DUP2 PUSH20 0xFFFFFFFFFFFFFFFFFFFFFFFFFFFFFFFFFFFFFFFF AND SUB PUSH2 0x21BD JUMPI PUSH1 0x40 MLOAD PUSH32 0x8C379A000000000000000000000000000000000000000000000000000000000 DUP2 MSTORE PUSH1 0x4 ADD PUSH2 0x21B4 SWAP1 PUSH2 0x4130 JUMP JUMPDEST PUSH1 0x40 MLOAD DUP1 SWAP2 SUB SWAP1 REVERT JUMPDEST DUP1 PUSH1 0x1 PUSH0 PUSH2 0x100 EXP DUP2 SLOAD DUP2 PUSH20 0xFFFFFFFFFFFFFFFFFFFFFFFFFFFFFFFFFFFFFFFF MUL NOT AND SWAP1 DUP4 PUSH20 0xFFFFFFFFFFFFFFFFFFFFFFFFFFFFFFFFFFFFFFFF AND MUL OR SWAP1 SSTORE POP DUP1 PUSH20 0xFFFFFFFFFFFFFFFFFFFFFFFFFFFFFFFFFFFFFFFF AND PUSH0 PUSH0 SWAP1 SLOAD SWAP1 PUSH2 0x100 EXP SWAP1 DIV PUSH20 0xFFFFFFFFFFFFFFFFFFFFFFFFFFFFFFFFFFFFFFFF AND PUSH20 0xFFFFFFFFFFFFFFFFFFFFFFFFFFFFFFFFFFFFFFFF AND PUSH32 0xED8889F560326EB138920D842192F0EB3DD22B4F139C87A2C57538E05BAE1278 PUSH1 0x40 MLOAD PUSH1 0x40 MLOAD DUP1 SWAP2 SUB SWAP1 LOG3 POP JUMP JUMPDEST PUSH1 0x60 PUSH0 PUSH0 DUP4 SWAP1 POP PUSH0 PUSH0 SWAP1 POP JUMPDEST DUP2 MLOAD DUP2 LT DUP1 ISZERO PUSH2 0x22F5 JUMPI POP PUSH32 0x7C00000000000000000000000000000000000000000000000000000000000000 DUP3 DUP3 DUP2 MLOAD DUP2 LT PUSH2 0x22C5 JUMPI PUSH2 0x22C4 PUSH2 0x32CD JUMP JUMPDEST JUMPDEST PUSH1 0x20 ADD ADD MLOAD PUSH1 0xF8 SHR PUSH1 0xF8 SHL PUSH31 0xFFFFFFFFFFFFFFFFFFFFFFFFFFFFFFFFFFFFFFFFFFFFFFFFFFFFFFFFFFFFFF NOT AND EQ ISZERO JUMPDEST ISZERO PUSH2 0x230D JUMPI DUP1 DUP1 PUSH2 0x2305 SWAP1 PUSH2 0x39E7 JUMP JUMPDEST SWAP2 POP POP PUSH2 0x2286 JUMP JUMPDEST PUSH0 PUSH2 0x2319 DUP4 PUSH0 DUP5 PUSH2 0x251E JUMP JUMPDEST SWAP1 POP PUSH0 PUSH2 0x2353 PUSH2 0x234E DUP6 PUSH1 0x1 DUP7 PUSH2 0x2330 SWAP2 SWAP1 PUSH2 0x36FD JUMP JUMPDEST PUSH1 0x1 DUP8 PUSH2 0x233D SWAP2 SWAP1 PUSH2 0x36FD JUMP JUMPDEST DUP9 MLOAD PUSH2 0x2349 SWAP2 SWAP1 PUSH2 0x3BAD JUMP JUMPDEST PUSH2 0x251E JUMP JUMPDEST PUSH2 0x2600 JUMP JUMPDEST SWAP1 POP DUP2 DUP2 SWAP6 POP SWAP6 POP POP POP POP POP SWAP2 POP SWAP2 JUMP JUMPDEST PUSH0 DUP2 MLOAD SUB PUSH2 0x239E JUMPI PUSH1 0x40 MLOAD PUSH32 0x22CE3EDD00000000000000000000000000000000000000000000000000000000 DUP2 MSTORE PUSH1 0x4 ADD PUSH1 0x40 MLOAD DUP1 SWAP2 SUB SWAP1 REVERT JUMPDEST DUP3 DUP5 PUSH0 ADD SWAP1 PUSH1 0x2 DUP2 GT ISZERO PUSH2 0x23B5 JUMPI PUSH2 0x23B4 PUSH2 0x3EFD JUMP JUMPDEST JUMPDEST SWAP1 DUP2 PUSH1 0x2 DUP2 GT ISZERO PUSH2 0x23C9 JUMPI PUSH2 0x23C8 PUSH2 0x3EFD JUMP JUMPDEST JUMPDEST DUP2 MSTORE POP POP DUP2 DUP5 PUSH1 0x40 ADD SWAP1 PUSH0 DUP2 GT ISZERO PUSH2 0x23E4 JUMPI PUSH2 0x23E3 PUSH2 0x3EFD JUMP JUMPDEST JUMPDEST SWAP1 DUP2 PUSH0 DUP2 GT ISZERO PUSH2 0x23F7 JUMPI PUSH2 0x23F6 PUSH2 0x3EFD JUMP JUMPDEST JUMPDEST DUP2 MSTORE POP POP DUP1 DUP5 PUSH1 0x60 ADD DUP2 SWAP1 MSTORE POP POP POP POP POP JUMP JUMPDEST PUSH2 0x2412 PUSH2 0x2C23 JUMP JUMPDEST PUSH2 0x241F DUP2 PUSH0 ADD MLOAD DUP4 PUSH2 0x276E JUMP JUMPDEST POP PUSH0 DUP2 PUSH1 0x20 ADD DUP2 DUP2 MSTORE POP POP SWAP2 SWAP1 POP JUMP JUMPDEST PUSH2 0x243C DUP3 PUSH1 0x3 DUP4 MLOAD PUSH2 0x27E4 JUMP JUMPDEST PUSH2 0x2452 DUP2 DUP4 PUSH0 ADD MLOAD PUSH2 0x2984 SWAP1 SWAP2 SWAP1 PUSH4 0xFFFFFFFF AND JUMP JUMPDEST POP POP POP JUMP JUMPDEST PUSH2 0x2478 PUSH1 0x2 PUSH1 0x5 PUSH1 0x6 PUSH1 0xFF AND SWAP1 SHL OR DUP4 PUSH0 ADD MLOAD PUSH2 0x29A0 SWAP1 SWAP2 SWAP1 PUSH4 0xFFFFFFFF AND JUMP JUMPDEST POP PUSH2 0x24A2 DUP3 DUP3 PUSH1 0x40 MLOAD PUSH1 0x20 ADD PUSH2 0x248E SWAP2 SWAP1 PUSH2 0x414E JUMP JUMPDEST PUSH1 0x40 MLOAD PUSH1 0x20 DUP2 DUP4 SUB SUB DUP2 MSTORE SWAP1 PUSH1 0x40 MSTORE PUSH2 0x24F6 JUMP JUMPDEST POP POP JUMP JUMPDEST PUSH2 0x24B1 DUP2 PUSH1 0x4 PUSH2 0x2A07 JUMP JUMPDEST PUSH1 0x1 DUP2 PUSH1 0x20 ADD DUP2 DUP2 MLOAD PUSH2 0x24C4 SWAP2 SWAP1 PUSH2 0x36FD JUMP JUMPDEST SWAP2 POP DUP2 DUP2 MSTORE POP POP POP JUMP JUMPDEST PUSH2 0x24D9 DUP2 PUSH1 0x7 PUSH2 0x2A07 JUMP JUMPDEST PUSH1 0x1 DUP2 PUSH1 0x20 ADD DUP2 DUP2 MLOAD PUSH2 0x24EC SWAP2 SWAP1 PUSH2 0x3BAD JUMP JUMPDEST SWAP2 POP DUP2 DUP2 MSTORE POP POP POP JUMP JUMPDEST PUSH2 0x2503 DUP3 PUSH1 0x2 DUP4 MLOAD PUSH2 0x27E4 JUMP JUMPDEST PUSH2 0x2519 DUP2 DUP4 PUSH0 ADD MLOAD PUSH2 0x2984 SWAP1 SWAP2 SWAP1 PUSH4 0xFFFFFFFF AND JUMP JUMPDEST POP POP POP JUMP JUMPDEST PUSH1 0x60 PUSH0 DUP3 PUSH8 0xFFFFFFFFFFFFFFFF DUP2 GT ISZERO PUSH2 0x253B JUMPI PUSH2 0x253A PUSH2 0x2CB7 JUMP JUMPDEST JUMPDEST PUSH1 0x40 MLOAD SWAP1 DUP1 DUP3 MSTORE DUP1 PUSH1 0x1F ADD PUSH1 0x1F NOT AND PUSH1 0x20 ADD DUP3 ADD PUSH1 0x40 MSTORE DUP1 ISZERO PUSH2 0x256D JUMPI DUP2 PUSH1 0x20 ADD PUSH1 0x1 DUP3 MUL DUP1 CALLDATASIZE DUP4 CALLDATACOPY DUP1 DUP3 ADD SWAP2 POP POP SWAP1 POP JUMPDEST POP SWAP1 POP PUSH0 PUSH0 SWAP1 POP JUMPDEST DUP4 DUP2 LT ISZERO PUSH2 0x25F4 JUMPI DUP6 DUP2 DUP7 PUSH2 0x258A SWAP2 SWAP1 PUSH2 0x36FD JUMP JUMPDEST DUP2 MLOAD DUP2 LT PUSH2 0x259B JUMPI PUSH2 0x259A PUSH2 0x32CD JUMP JUMPDEST JUMPDEST PUSH1 0x20 ADD ADD MLOAD PUSH1 0xF8 SHR PUSH1 0xF8 SHL DUP3 DUP3 DUP2 MLOAD DUP2 LT PUSH2 0x25B9 JUMPI PUSH2 0x25B8 PUSH2 0x32CD JUMP JUMPDEST JUMPDEST PUSH1 0x20 ADD ADD SWAP1 PUSH31 0xFFFFFFFFFFFFFFFFFFFFFFFFFFFFFFFFFFFFFFFFFFFFFFFFFFFFFFFFFFFFFF NOT AND SWAP1 DUP2 PUSH0 BYTE SWAP1 MSTORE8 POP DUP1 DUP1 PUSH1 0x1 ADD SWAP2 POP POP PUSH2 0x2575 JUMP JUMPDEST POP DUP1 SWAP2 POP POP SWAP4 SWAP3 POP POP POP JUMP JUMPDEST PUSH0 PUSH0 DUP3 SWAP1 POP PUSH0 PUSH0 SWAP1 POP PUSH0 PUSH0 SWAP1 POP JUMPDEST DUP3 MLOAD DUP2 LT ISZERO PUSH2 0x2763 JUMPI PUSH32 0x3000000000000000000000000000000000000000000000000000000000000000 DUP4 DUP3 DUP2 MLOAD DUP2 LT PUSH2 0x264B JUMPI PUSH2 0x264A PUSH2 0x32CD JUMP JUMPDEST JUMPDEST PUSH1 0x20 ADD ADD MLOAD PUSH1 0xF8 SHR PUSH1 0xF8 SHL PUSH31 0xFFFFFFFFFFFFFFFFFFFFFFFFFFFFFFFFFFFFFFFFFFFFFFFFFFFFFFFFFFFFFF NOT AND LT ISZERO DUP1 ISZERO PUSH2 0x26E5 JUMPI POP PUSH32 0x3900000000000000000000000000000000000000000000000000000000000000 DUP4 DUP3 DUP2 MLOAD DUP2 LT PUSH2 0x26B5 JUMPI PUSH2 0x26B4 PUSH2 0x32CD JUMP JUMPDEST JUMPDEST PUSH1 0x20 ADD ADD MLOAD PUSH1 0xF8 SHR PUSH1 0xF8 SHL PUSH31 0xFFFFFFFFFFFFFFFFFFFFFFFFFFFFFFFFFFFFFFFFFFFFFFFFFFFFFFFFFFFFFF NOT AND GT ISZERO JUMPDEST ISZERO PUSH2 0x2756 JUMPI PUSH32 0x3000000000000000000000000000000000000000000000000000000000000000 PUSH1 0xF8 SHR DUP4 DUP3 DUP2 MLOAD DUP2 LT PUSH2 0x2721 JUMPI PUSH2 0x2720 PUSH2 0x32CD JUMP JUMPDEST JUMPDEST PUSH1 0x20 ADD ADD MLOAD PUSH1 0xF8 SHR PUSH1 0xF8 SHL PUSH1 0xF8 SHR PUSH2 0x2739 SWAP2 SWAP1 PUSH2 0x4167 JUMP JUMPDEST PUSH1 0xFF AND PUSH1 0xA DUP4 PUSH2 0x2749 SWAP2 SWAP1 PUSH2 0x3CB6 JUMP JUMPDEST PUSH2 0x2753 SWAP2 SWAP1 PUSH2 0x36FD JUMP JUMPDEST SWAP2 POP JUMPDEST DUP1 DUP1 PUSH1 0x1 ADD SWAP2 POP POP PUSH2 0x260E JUMP JUMPDEST POP DUP1 SWAP3 POP POP POP SWAP2 SWAP1 POP JUMP JUMPDEST PUSH2 0x2776 PUSH2 0x2C42 JUMP JUMPDEST PUSH0 PUSH1 0x20 DUP4 PUSH2 0x2784 SWAP2 SWAP1 PUSH2 0x3ECD JUMP JUMPDEST EQ PUSH2 0x27B0 JUMPI PUSH1 0x20 DUP3 PUSH2 0x2796 SWAP2 SWAP1 PUSH2 0x3ECD JUMP JUMPDEST PUSH1 0x20 PUSH2 0x27A2 SWAP2 SWAP1 PUSH2 0x3BAD JUMP JUMPDEST DUP3 PUSH2 0x27AD SWAP2 SWAP1 PUSH2 0x36FD JUMP JUMPDEST SWAP2 POP JUMPDEST DUP2 DUP4 PUSH1 0x20 ADD DUP2 DUP2 MSTORE POP POP PUSH1 0x40 MLOAD DUP1 DUP5 MSTORE PUSH0 DUP2 MSTORE DUP3 DUP2 ADD PUSH1 0x20 ADD DUP2 DUP2 LT ISZERO PUSH2 0x27D5 JUMPI PUSH0 PUSH0 REVERT JUMPDEST DUP1 PUSH1 0x40 MSTORE POP POP DUP3 SWAP1 POP SWAP3 SWAP2 POP POP JUMP JUMPDEST PUSH1 0x17 DUP2 PUSH8 0xFFFFFFFFFFFFFFFF AND GT PUSH2 0x281E JUMPI PUSH2 0x2818 DUP2 PUSH1 0x5 DUP5 PUSH1 0xFF AND SWAP1 SHL PUSH1 0xFF AND OR DUP5 PUSH0 ADD MLOAD PUSH2 0x29A0 SWAP1 SWAP2 SWAP1 PUSH4 0xFFFFFFFF AND JUMP JUMPDEST POP PUSH2 0x297F JUMP JUMPDEST PUSH1 0xFF DUP2 PUSH8 0xFFFFFFFFFFFFFFFF AND GT PUSH2 0x287A JUMPI PUSH2 0x2850 PUSH1 0x18 PUSH1 0x5 DUP5 PUSH1 0xFF AND SWAP1 SHL OR DUP5 PUSH0 ADD MLOAD PUSH2 0x29A0 SWAP1 SWAP2 SWAP1 PUSH4 0xFFFFFFFF AND JUMP JUMPDEST POP PUSH2 0x2874 DUP2 PUSH8 0xFFFFFFFFFFFFFFFF AND PUSH1 0x1 DUP6 PUSH0 ADD MLOAD PUSH2 0x2A2C SWAP1 SWAP3 SWAP2 SWAP1 PUSH4 0xFFFFFFFF AND JUMP JUMPDEST POP PUSH2 0x297E JUMP JUMPDEST PUSH2 0xFFFF DUP2 PUSH8 0xFFFFFFFFFFFFFFFF AND GT PUSH2 0x28D7 JUMPI PUSH2 0x28AD PUSH1 0x19 PUSH1 0x5 DUP5 PUSH1 0xFF AND SWAP1 SHL OR DUP5 PUSH0 ADD MLOAD PUSH2 0x29A0 SWAP1 SWAP2 SWAP1 PUSH4 0xFFFFFFFF AND JUMP JUMPDEST POP PUSH2 0x28D1 DUP2 PUSH8 0xFFFFFFFFFFFFFFFF AND PUSH1 0x2 DUP6 PUSH0 ADD MLOAD PUSH2 0x2A2C SWAP1 SWAP3 SWAP2 SWAP1 PUSH4 0xFFFFFFFF AND JUMP JUMPDEST POP PUSH2 0x297D JUMP JUMPDEST PUSH4 0xFFFFFFFF DUP2 PUSH8 0xFFFFFFFFFFFFFFFF AND GT PUSH2 0x2936 JUMPI PUSH2 0x290C PUSH1 0x1A PUSH1 0x5 DUP5 PUSH1 0xFF AND SWAP1 SHL OR DUP5 PUSH0 ADD MLOAD PUSH2 0x29A0 SWAP1 SWAP2 SWAP1 PUSH4 0xFFFFFFFF AND JUMP JUMPDEST POP PUSH2 0x2930 DUP2 PUSH8 0xFFFFFFFFFFFFFFFF AND PUSH1 0x4 DUP6 PUSH0 ADD MLOAD PUSH2 0x2A2C SWAP1 SWAP3 SWAP2 SWAP1 PUSH4 0xFFFFFFFF AND JUMP JUMPDEST POP PUSH2 0x297C JUMP JUMPDEST PUSH2 0x2956 PUSH1 0x1B PUSH1 0x5 DUP5 PUSH1 0xFF AND SWAP1 SHL OR DUP5 PUSH0 ADD MLOAD PUSH2 0x29A0 SWAP1 SWAP2 SWAP1 PUSH4 0xFFFFFFFF AND JUMP JUMPDEST POP PUSH2 0x297A DUP2 PUSH8 0xFFFFFFFFFFFFFFFF AND PUSH1 0x8 DUP6 PUSH0 ADD MLOAD PUSH2 0x2A2C SWAP1 SWAP3 SWAP2 SWAP1 PUSH4 0xFFFFFFFF AND JUMP JUMPDEST POP JUMPDEST JUMPDEST JUMPDEST JUMPDEST POP POP POP JUMP JUMPDEST PUSH2 0x298C PUSH2 0x2C42 JUMP JUMPDEST PUSH2 0x2998 DUP4 DUP4 DUP5 MLOAD PUSH2 0x2AB5 JUMP JUMPDEST SWAP1 POP SWAP3 SWAP2 POP POP JUMP JUMPDEST PUSH2 0x29A8 PUSH2 0x2C42 JUMP JUMPDEST PUSH0 DUP4 PUSH0 ADD MLOAD MLOAD SWAP1 POP PUSH0 PUSH1 0x1 DUP3 PUSH2 0x29BE SWAP2 SWAP1 PUSH2 0x36FD JUMP JUMPDEST SWAP1 POP DUP5 PUSH1 0x20 ADD MLOAD DUP3 LT PUSH2 0x29E2 JUMPI PUSH2 0x29E1 DUP6 PUSH1 0x2 DUP4 PUSH2 0x29DC SWAP2 SWAP1 PUSH2 0x3CB6 JUMP JUMPDEST PUSH2 0x2B92 JUMP JUMPDEST JUMPDEST DUP5 MLOAD PUSH1 0x20 DUP4 DUP3 ADD ADD DUP6 DUP2 MSTORE8 DUP2 MLOAD DUP4 GT ISZERO PUSH2 0x29FA JUMPI DUP3 DUP3 MSTORE JUMPDEST POP POP DUP5 SWAP3 POP POP POP SWAP3 SWAP2 POP POP JUMP JUMPDEST PUSH2 0x2A27 PUSH1 0x1F PUSH1 0x5 DUP4 PUSH1 0xFF AND SWAP1 SHL OR DUP4 PUSH0 ADD MLOAD PUSH2 0x29A0 SWAP1 SWAP2 SWAP1 PUSH4 0xFFFFFFFF AND JUMP JUMPDEST POP POP POP JUMP JUMPDEST PUSH2 0x2A34 PUSH2 0x2C42 JUMP JUMPDEST PUSH0 DUP5 PUSH0 ADD MLOAD MLOAD SWAP1 POP PUSH0 DUP2 DUP5 PUSH2 0x2A49 SWAP2 SWAP1 PUSH2 0x36FD JUMP JUMPDEST SWAP1 POP DUP6 PUSH1 0x20 ADD MLOAD DUP2 GT ISZERO PUSH2 0x2A6E JUMPI PUSH2 0x2A6D DUP7 PUSH1 0x2 DUP4 PUSH2 0x2A68 SWAP2 SWAP1 PUSH2 0x3CB6 JUMP JUMPDEST PUSH2 0x2B92 JUMP JUMPDEST JUMPDEST PUSH0 PUSH1 0x1 DUP6 PUSH2 0x100 PUSH2 0x2A7F SWAP2 SWAP1 PUSH2 0x3E26 JUMP JUMPDEST PUSH2 0x2A89 SWAP2 SWAP1 PUSH2 0x3BAD JUMP JUMPDEST SWAP1 POP DUP7 MLOAD DUP3 DUP2 ADD DUP8 DUP4 NOT DUP3 MLOAD AND OR DUP2 MSTORE DUP2 MLOAD DUP5 GT ISZERO PUSH2 0x2AA6 JUMPI DUP4 DUP3 MSTORE JUMPDEST POP POP DUP7 SWAP4 POP POP POP POP SWAP4 SWAP3 POP POP POP JUMP JUMPDEST PUSH2 0x2ABD PUSH2 0x2C42 JUMP JUMPDEST DUP3 MLOAD DUP3 GT ISZERO PUSH2 0x2ACA JUMPI PUSH0 PUSH0 REVERT JUMPDEST PUSH0 DUP5 PUSH0 ADD MLOAD MLOAD SWAP1 POP PUSH0 DUP4 DUP3 PUSH2 0x2ADF SWAP2 SWAP1 PUSH2 0x36FD JUMP JUMPDEST SWAP1 POP DUP6 PUSH1 0x20 ADD MLOAD DUP2 GT ISZERO PUSH2 0x2B04 JUMPI PUSH2 0x2B03 DUP7 PUSH1 0x2 DUP4 PUSH2 0x2AFE SWAP2 SWAP1 PUSH2 0x3CB6 JUMP JUMPDEST PUSH2 0x2B92 JUMP JUMPDEST JUMPDEST PUSH0 PUSH0 DUP8 MLOAD DUP1 MLOAD DUP6 PUSH1 0x20 DUP4 ADD ADD SWAP4 POP DUP1 DUP6 GT ISZERO PUSH2 0x2B1E JUMPI DUP5 DUP3 MSTORE JUMPDEST PUSH1 0x20 DUP10 ADD SWAP3 POP POP POP JUMPDEST PUSH1 0x20 DUP7 LT PUSH2 0x2B65 JUMPI DUP1 MLOAD DUP3 MSTORE PUSH1 0x20 DUP3 PUSH2 0x2B40 SWAP2 SWAP1 PUSH2 0x36FD JUMP JUMPDEST SWAP2 POP PUSH1 0x20 DUP2 PUSH2 0x2B4F SWAP2 SWAP1 PUSH2 0x36FD JUMP JUMPDEST SWAP1 POP PUSH1 0x20 DUP7 PUSH2 0x2B5E SWAP2 SWAP1 PUSH2 0x3BAD JUMP JUMPDEST SWAP6 POP PUSH2 0x2B27 JUMP JUMPDEST PUSH0 PUSH1 0x1 DUP8 PUSH1 0x20 SUB PUSH2 0x100 EXP SUB SWAP1 POP DUP1 NOT DUP3 MLOAD AND DUP2 DUP5 MLOAD AND DUP2 DUP2 OR DUP6 MSTORE POP POP POP DUP8 SWAP5 POP POP POP POP POP SWAP4 SWAP3 POP POP POP JUMP JUMPDEST PUSH0 DUP3 PUSH0 ADD MLOAD SWAP1 POP PUSH2 0x2BA3 DUP4 DUP4 PUSH2 0x276E JUMP JUMPDEST POP PUSH2 0x2BAE DUP4 DUP3 PUSH2 0x2984 JUMP JUMPDEST POP POP POP POP JUMP JUMPDEST PUSH1 0x40 MLOAD DUP1 PUSH1 0xE0 ADD PUSH1 0x40 MSTORE DUP1 PUSH0 PUSH1 0x2 DUP2 GT ISZERO PUSH2 0x2BD2 JUMPI PUSH2 0x2BD1 PUSH2 0x3EFD JUMP JUMPDEST JUMPDEST DUP2 MSTORE PUSH1 0x20 ADD PUSH0 PUSH1 0x2 DUP2 GT ISZERO PUSH2 0x2BEA JUMPI PUSH2 0x2BE9 PUSH2 0x3EFD JUMP JUMPDEST JUMPDEST DUP2 MSTORE PUSH1 0x20 ADD PUSH0 PUSH0 DUP2 GT ISZERO PUSH2 0x2C01 JUMPI PUSH2 0x2C00 PUSH2 0x3EFD JUMP JUMPDEST JUMPDEST DUP2 MSTORE PUSH1 0x20 ADD PUSH1 0x60 DUP2 MSTORE PUSH1 0x20 ADD PUSH1 0x60 DUP2 MSTORE PUSH1 0x20 ADD PUSH1 0x60 DUP2 MSTORE PUSH1 0x20 ADD PUSH1 0x60 DUP2 MSTORE POP SWAP1 JUMP JUMPDEST PUSH1 0x40 MLOAD DUP1 PUSH1 0x40 ADD PUSH1 0x40 MSTORE DUP1 PUSH2 0x2C36 PUSH2 0x2C42 JUMP JUMPDEST DUP2 MSTORE PUSH1 0x20 ADD PUSH0 DUP2 MSTORE POP SWAP1 JUMP JUMPDEST PUSH1 0x40 MLOAD DUP1 PUSH1 0x40 ADD PUSH1 0x40 MSTORE DUP1 PUSH1 0x60 DUP2 MSTORE PUSH1 0x20 ADD PUSH0 DUP2 MSTORE POP SWAP1 JUMP JUMPDEST PUSH0 PUSH1 0x40 MLOAD SWAP1 POP SWAP1 JUMP JUMPDEST PUSH0 PUSH0 REVERT JUMPDEST PUSH0 PUSH0 REVERT JUMPDEST PUSH0 DUP2 SWAP1 POP SWAP2 SWAP1 POP JUMP JUMPDEST PUSH2 0x2C7E DUP2 PUSH2 0x2C6C JUMP JUMPDEST DUP2 EQ PUSH2 0x2C88 JUMPI PUSH0 PUSH0 REVERT JUMPDEST POP JUMP JUMPDEST PUSH0 DUP2 CALLDATALOAD SWAP1 POP PUSH2 0x2C99 DUP2 PUSH2 0x2C75 JUMP JUMPDEST SWAP3 SWAP2 POP POP JUMP JUMPDEST PUSH0 PUSH0 REVERT JUMPDEST PUSH0 PUSH0 REVERT JUMPDEST PUSH0 PUSH1 0x1F NOT PUSH1 0x1F DUP4 ADD AND SWAP1 POP SWAP2 SWAP1 POP JUMP JUMPDEST PUSH32 0x4E487B7100000000000000000000000000000000000000000000000000000000 PUSH0 MSTORE PUSH1 0x41 PUSH1 0x4 MSTORE PUSH1 0x24 PUSH0 REVERT JUMPDEST PUSH2 0x2CED DUP3 PUSH2 0x2CA7 JUMP JUMPDEST DUP2 ADD DUP2 DUP2 LT PUSH8 0xFFFFFFFFFFFFFFFF DUP3 GT OR ISZERO PUSH2 0x2D0C JUMPI PUSH2 0x2D0B PUSH2 0x2CB7 JUMP JUMPDEST JUMPDEST DUP1 PUSH1 0x40 MSTORE POP POP POP JUMP JUMPDEST PUSH0 PUSH2 0x2D1E PUSH2 0x2C5B JUMP JUMPDEST SWAP1 POP PUSH2 0x2D2A DUP3 DUP3 PUSH2 0x2CE4 JUMP JUMPDEST SWAP2 SWAP1 POP JUMP JUMPDEST PUSH0 PUSH8 0xFFFFFFFFFFFFFFFF DUP3 GT ISZERO PUSH2 0x2D49 JUMPI PUSH2 0x2D48 PUSH2 0x2CB7 JUMP JUMPDEST JUMPDEST PUSH2 0x2D52 DUP3 PUSH2 0x2CA7 JUMP JUMPDEST SWAP1 POP PUSH1 0x20 DUP2 ADD SWAP1 POP SWAP2 SWAP1 POP JUMP JUMPDEST DUP3 DUP2 DUP4 CALLDATACOPY PUSH0 DUP4 DUP4 ADD MSTORE POP POP POP JUMP JUMPDEST PUSH0 PUSH2 0x2D7F PUSH2 0x2D7A DUP5 PUSH2 0x2D2F JUMP JUMPDEST PUSH2 0x2D15 JUMP JUMPDEST SWAP1 POP DUP3 DUP2 MSTORE PUSH1 0x20 DUP2 ADD DUP5 DUP5 DUP5 ADD GT ISZERO PUSH2 0x2D9B JUMPI PUSH2 0x2D9A PUSH2 0x2CA3 JUMP JUMPDEST JUMPDEST PUSH2 0x2DA6 DUP5 DUP3 DUP6 PUSH2 0x2D5F JUMP JUMPDEST POP SWAP4 SWAP3 POP POP POP JUMP JUMPDEST PUSH0 DUP3 PUSH1 0x1F DUP4 ADD SLT PUSH2 0x2DC2 JUMPI PUSH2 0x2DC1 PUSH2 0x2C9F JUMP JUMPDEST JUMPDEST DUP2 CALLDATALOAD PUSH2 0x2DD2 DUP5 DUP3 PUSH1 0x20 DUP7 ADD PUSH2 0x2D6D JUMP JUMPDEST SWAP2 POP POP SWAP3 SWAP2 POP POP JUMP JUMPDEST PUSH0 PUSH0 PUSH0 PUSH1 0x60 DUP5 DUP7 SUB SLT ISZERO PUSH2 0x2DF2 JUMPI PUSH2 0x2DF1 PUSH2 0x2C64 JUMP JUMPDEST JUMPDEST PUSH0 PUSH2 0x2DFF DUP7 DUP3 DUP8 ADD PUSH2 0x2C8B JUMP JUMPDEST SWAP4 POP POP PUSH1 0x20 DUP5 ADD CALLDATALOAD PUSH8 0xFFFFFFFFFFFFFFFF DUP2 GT ISZERO PUSH2 0x2E20 JUMPI PUSH2 0x2E1F PUSH2 0x2C68 JUMP JUMPDEST JUMPDEST PUSH2 0x2E2C DUP7 DUP3 DUP8 ADD PUSH2 0x2DAE JUMP JUMPDEST SWAP3 POP POP PUSH1 0x40 DUP5 ADD CALLDATALOAD PUSH8 0xFFFFFFFFFFFFFFFF DUP2 GT ISZERO PUSH2 0x2E4D JUMPI PUSH2 0x2E4C PUSH2 0x2C68 JUMP JUMPDEST JUMPDEST PUSH2 0x2E59 DUP7 DUP3 DUP8 ADD PUSH2 0x2DAE JUMP JUMPDEST SWAP2 POP POP SWAP3 POP SWAP3 POP SWAP3 JUMP JUMPDEST PUSH0 PUSH0 REVERT JUMPDEST PUSH0 PUSH0 REVERT JUMPDEST PUSH0 PUSH0 DUP4 PUSH1 0x1F DUP5 ADD SLT PUSH2 0x2E80 JUMPI PUSH2 0x2E7F PUSH2 0x2C9F JUMP JUMPDEST JUMPDEST DUP3 CALLDATALOAD SWAP1 POP PUSH8 0xFFFFFFFFFFFFFFFF DUP2 GT ISZERO PUSH2 0x2E9D JUMPI PUSH2 0x2E9C PUSH2 0x2E63 JUMP JUMPDEST JUMPDEST PUSH1 0x20 DUP4 ADD SWAP2 POP DUP4 PUSH1 0x20 DUP3 MUL DUP4 ADD GT ISZERO PUSH2 0x2EB9 JUMPI PUSH2 0x2EB8 PUSH2 0x2E67 JUMP JUMPDEST JUMPDEST SWAP3 POP SWAP3 SWAP1 POP JUMP JUMPDEST PUSH0 PUSH0 PUSH1 0x20 DUP4 DUP6 SUB SLT ISZERO PUSH2 0x2ED6 JUMPI PUSH2 0x2ED5 PUSH2 0x2C64 JUMP JUMPDEST JUMPDEST PUSH0 DUP4 ADD CALLDATALOAD PUSH8 0xFFFFFFFFFFFFFFFF DUP2 GT ISZERO PUSH2 0x2EF3 JUMPI PUSH2 0x2EF2 PUSH2 0x2C68 JUMP JUMPDEST JUMPDEST PUSH2 0x2EFF DUP6 DUP3 DUP7 ADD PUSH2 0x2E6B JUMP JUMPDEST SWAP3 POP SWAP3 POP POP SWAP3 POP SWAP3 SWAP1 POP JUMP JUMPDEST PUSH0 PUSH20 0xFFFFFFFFFFFFFFFFFFFFFFFFFFFFFFFFFFFFFFFF DUP3 AND SWAP1 POP SWAP2 SWAP1 POP JUMP JUMPDEST PUSH0 PUSH2 0x2F34 DUP3 PUSH2 0x2F0B JUMP JUMPDEST SWAP1 POP SWAP2 SWAP1 POP JUMP JUMPDEST PUSH2 0x2F44 DUP2 PUSH2 0x2F2A JUMP JUMPDEST DUP2 EQ PUSH2 0x2F4E JUMPI PUSH0 PUSH0 REVERT JUMPDEST POP JUMP JUMPDEST PUSH0 DUP2 CALLDATALOAD SWAP1 POP PUSH2 0x2F5F DUP2 PUSH2 0x2F3B JUMP JUMPDEST SWAP3 SWAP2 POP POP JUMP JUMPDEST PUSH0 PUSH1 0x20 DUP3 DUP5 SUB SLT ISZERO PUSH2 0x2F7A JUMPI PUSH2 0x2F79 PUSH2 0x2C64 JUMP JUMPDEST JUMPDEST PUSH0 PUSH2 0x2F87 DUP5 DUP3 DUP6 ADD PUSH2 0x2F51 JUMP JUMPDEST SWAP2 POP POP SWAP3 SWAP2 POP POP JUMP JUMPDEST PUSH0 DUP2 MLOAD SWAP1 POP SWAP2 SWAP1 POP JUMP JUMPDEST PUSH0 DUP3 DUP3 MSTORE PUSH1 0x20 DUP3 ADD SWAP1 POP SWAP3 SWAP2 POP POP JUMP JUMPDEST DUP3 DUP2 DUP4 MCOPY PUSH0 DUP4 DUP4 ADD MSTORE POP POP POP JUMP JUMPDEST PUSH0 PUSH2 0x2FC2 DUP3 PUSH2 0x2F90 JUMP JUMPDEST PUSH2 0x2FCC DUP2 DUP6 PUSH2 0x2F9A JUMP JUMPDEST SWAP4 POP PUSH2 0x2FDC DUP2 DUP6 PUSH1 0x20 DUP7 ADD PUSH2 0x2FAA JUMP JUMPDEST PUSH2 0x2FE5 DUP2 PUSH2 0x2CA7 JUMP JUMPDEST DUP5 ADD SWAP2 POP POP SWAP3 SWAP2 POP POP JUMP JUMPDEST PUSH0 PUSH1 0xFF DUP3 AND SWAP1 POP SWAP2 SWAP1 POP JUMP JUMPDEST PUSH2 0x3005 DUP2 PUSH2 0x2FF0 JUMP JUMPDEST DUP3 MSTORE POP POP JUMP JUMPDEST PUSH0 DUP2 SWAP1 POP SWAP2 SWAP1 POP JUMP JUMPDEST PUSH2 0x301D DUP2 PUSH2 0x300B JUMP JUMPDEST DUP3 MSTORE POP POP JUMP JUMPDEST PUSH0 DUP2 ISZERO ISZERO SWAP1 POP SWAP2 SWAP1 POP JUMP JUMPDEST PUSH2 0x3037 DUP2 PUSH2 0x3023 JUMP JUMPDEST DUP3 MSTORE POP POP JUMP JUMPDEST PUSH0 PUSH1 0xC0 DUP3 ADD SWAP1 POP DUP2 DUP2 SUB PUSH0 DUP4 ADD MSTORE PUSH2 0x3055 DUP2 DUP10 PUSH2 0x2FB8 JUMP JUMPDEST SWAP1 POP PUSH2 0x3064 PUSH1 0x20 DUP4 ADD DUP9 PUSH2 0x2FFC JUMP JUMPDEST PUSH2 0x3071 PUSH1 0x40 DUP4 ADD DUP8 PUSH2 0x3014 JUMP JUMPDEST PUSH2 0x307E PUSH1 0x60 DUP4 ADD DUP7 PUSH2 0x3014 JUMP JUMPDEST PUSH2 0x308B PUSH1 0x80 DUP4 ADD DUP6 PUSH2 0x302E JUMP JUMPDEST PUSH2 0x3098 PUSH1 0xA0 DUP4 ADD DUP5 PUSH2 0x2FFC JUMP JUMPDEST SWAP8 SWAP7 POP POP POP POP POP POP POP JUMP JUMPDEST PUSH2 0x30AC DUP2 PUSH2 0x2F2A JUMP JUMPDEST DUP3 MSTORE POP POP JUMP JUMPDEST PUSH0 PUSH1 0x20 DUP3 ADD SWAP1 POP PUSH2 0x30C5 PUSH0 DUP4 ADD DUP5 PUSH2 0x30A3 JUMP JUMPDEST SWAP3 SWAP2 POP POP JUMP JUMPDEST PUSH0 PUSH1 0x20 DUP3 DUP5 SUB SLT ISZERO PUSH2 0x30E0 JUMPI PUSH2 0x30DF PUSH2 0x2C64 JUMP JUMPDEST JUMPDEST PUSH0 PUSH2 0x30ED DUP5 DUP3 DUP6 ADD PUSH2 0x2C8B JUMP JUMPDEST SWAP2 POP POP SWAP3 SWAP2 POP POP JUMP JUMPDEST PUSH2 0x30FF DUP2 PUSH2 0x2FF0 JUMP JUMPDEST DUP2 EQ PUSH2 0x3109 JUMPI PUSH0 PUSH0 REVERT JUMPDEST POP JUMP JUMPDEST PUSH0 DUP2 CALLDATALOAD SWAP1 POP PUSH2 0x311A DUP2 PUSH2 0x30F6 JUMP JUMPDEST SWAP3 SWAP2 POP POP JUMP JUMPDEST PUSH0 PUSH1 0x20 DUP3 DUP5 SUB SLT ISZERO PUSH2 0x3135 JUMPI PUSH2 0x3134 PUSH2 0x2C64 JUMP JUMPDEST JUMPDEST PUSH0 PUSH2 0x3142 DUP5 DUP3 DUP6 ADD PUSH2 0x310C JUMP JUMPDEST SWAP2 POP POP SWAP3 SWAP2 POP POP JUMP JUMPDEST PUSH32 0x53656C656374206174206C65617374203520646F6D61696E7300000000000000 PUSH0 DUP3 ADD MSTORE POP JUMP JUMPDEST PUSH0 PUSH2 0x317F PUSH1 0x19 DUP4 PUSH2 0x2F9A JUMP JUMPDEST SWAP2 POP PUSH2 0x318A DUP3 PUSH2 0x314B JUMP JUMPDEST PUSH1 0x20 DUP3 ADD SWAP1 POP SWAP2 SWAP1 POP JUMP JUMPDEST PUSH0 PUSH1 0x20 DUP3 ADD SWAP1 POP DUP2 DUP2 SUB PUSH0 DUP4 ADD MSTORE PUSH2 0x31AC DUP2 PUSH2 0x3173 JUMP JUMPDEST SWAP1 POP SWAP2 SWAP1 POP JUMP JUMPDEST PUSH32 0x5175697A20616C726561647920696E2070726F67726573730000000000000000 PUSH0 DUP3 ADD MSTORE POP JUMP JUMPDEST PUSH0 PUSH2 0x31E7 PUSH1 0x18 DUP4 PUSH2 0x2F9A JUMP JUMPDEST SWAP2 POP PUSH2 0x31F2 DUP3 PUSH2 0x31B3 JUMP JUMPDEST PUSH1 0x20 DUP3 ADD SWAP1 POP SWAP2 SWAP1 POP JUMP JUMPDEST PUSH0 PUSH1 0x20 DUP3 ADD SWAP1 POP DUP2 DUP2 SUB PUSH0 DUP4 ADD MSTORE PUSH2 0x3214 DUP2 PUSH2 0x31DB JUMP JUMPDEST SWAP1 POP SWAP2 SWAP1 POP JUMP JUMPDEST PUSH0 DUP2 SWAP1 POP SWAP3 SWAP2 POP POP JUMP JUMPDEST PUSH0 PUSH2 0x322F DUP3 PUSH2 0x2F90 JUMP JUMPDEST PUSH2 0x3239 DUP2 DUP6 PUSH2 0x321B JUMP JUMPDEST SWAP4 POP PUSH2 0x3249 DUP2 DUP6 PUSH1 0x20 DUP7 ADD PUSH2 0x2FAA JUMP JUMPDEST DUP1 DUP5 ADD SWAP2 POP POP SWAP3 SWAP2 POP POP JUMP JUMPDEST PUSH32 0x7C00000000000000000000000000000000000000000000000000000000000000 PUSH0 DUP3 ADD MSTORE POP JUMP JUMPDEST PUSH0 PUSH2 0x3289 PUSH1 0x1 DUP4 PUSH2 0x321B JUMP JUMPDEST SWAP2 POP PUSH2 0x3294 DUP3 PUSH2 0x3255 JUMP JUMPDEST PUSH1 0x1 DUP3 ADD SWAP1 POP SWAP2 SWAP1 POP JUMP JUMPDEST PUSH0 PUSH2 0x32AA DUP3 DUP6 PUSH2 0x3225 JUMP JUMPDEST SWAP2 POP PUSH2 0x32B5 DUP3 PUSH2 0x327D JUMP JUMPDEST SWAP2 POP PUSH2 0x32C1 DUP3 DUP5 PUSH2 0x3225 JUMP JUMPDEST SWAP2 POP DUP2 SWAP1 POP SWAP4 SWAP3 POP POP POP JUMP JUMPDEST PUSH32 0x4E487B7100000000000000000000000000000000000000000000000000000000 PUSH0 MSTORE PUSH1 0x32 PUSH1 0x4 MSTORE PUSH1 0x24 PUSH0 REVERT JUMPDEST PUSH0 DUP2 SWAP1 POP SWAP2 SWAP1 POP JUMP JUMPDEST PUSH2 0x3314 PUSH2 0x330F DUP3 PUSH2 0x2C6C JUMP JUMPDEST PUSH2 0x32FA JUMP JUMPDEST DUP3 MSTORE POP POP JUMP JUMPDEST PUSH0 PUSH2 0x3325 DUP3 DUP5 PUSH2 0x3303 JUMP JUMPDEST PUSH1 0x20 DUP3 ADD SWAP2 POP DUP2 SWAP1 POP SWAP3 SWAP2 POP POP JUMP JUMPDEST PUSH32 0x4E487B7100000000000000000000000000000000000000000000000000000000 PUSH0 MSTORE PUSH1 0x22 PUSH1 0x4 MSTORE PUSH1 0x24 PUSH0 REVERT JUMPDEST PUSH0 PUSH1 0x2 DUP3 DIV SWAP1 POP PUSH1 0x1 DUP3 AND DUP1 PUSH2 0x3378 JUMPI PUSH1 0x7F DUP3 AND SWAP2 POP JUMPDEST PUSH1 0x20 DUP3 LT DUP2 SUB PUSH2 0x338B JUMPI PUSH2 0x338A PUSH2 0x3334 JUMP JUMPDEST JUMPDEST POP SWAP2 SWAP1 POP JUMP JUMPDEST PUSH0 DUP2 SWAP1 POP DUP2 PUSH0 MSTORE PUSH1 0x20 PUSH0 KECCAK256 SWAP1 POP SWAP2 SWAP1 POP JUMP JUMPDEST PUSH0 PUSH1 0x20 PUSH1 0x1F DUP4 ADD DIV SWAP1 POP SWAP2 SWAP1 POP JUMP JUMPDEST PUSH0 DUP3 DUP3 SHL SWAP1 POP SWAP3 SWAP2 POP POP JUMP JUMPDEST PUSH0 PUSH1 0x8 DUP4 MUL PUSH2 0x33ED PUSH32 0xFFFFFFFFFFFFFFFFFFFFFFFFFFFFFFFFFFFFFFFFFFFFFFFFFFFFFFFFFFFFFFFF DUP3 PUSH2 0x33B2 JUMP JUMPDEST PUSH2 0x33F7 DUP7 DUP4 PUSH2 0x33B2 JUMP JUMPDEST SWAP6 POP DUP1 NOT DUP5 AND SWAP4 POP DUP1 DUP7 AND DUP5 OR SWAP3 POP POP POP SWAP4 SWAP3 POP POP POP JUMP JUMPDEST PUSH0 DUP2 SWAP1 POP SWAP2 SWAP1 POP JUMP JUMPDEST PUSH0 PUSH2 0x3432 PUSH2 0x342D PUSH2 0x3428 DUP5 PUSH2 0x300B JUMP JUMPDEST PUSH2 0x340F JUMP JUMPDEST PUSH2 0x300B JUMP JUMPDEST SWAP1 POP SWAP2 SWAP1 POP JUMP JUMPDEST PUSH0 DUP2 SWAP1 POP SWAP2 SWAP1 POP JUMP JUMPDEST PUSH2 0x344B DUP4 PUSH2 0x3418 JUMP JUMPDEST PUSH2 0x345F PUSH2 0x3457 DUP3 PUSH2 0x3439 JUMP JUMPDEST DUP5 DUP5 SLOAD PUSH2 0x33BE JUMP JUMPDEST DUP3 SSTORE POP POP POP POP JUMP JUMPDEST PUSH0 PUSH0 SWAP1 POP SWAP1 JUMP JUMPDEST PUSH2 0x3476 PUSH2 0x3467 JUMP JUMPDEST PUSH2 0x3481 DUP2 DUP5 DUP5 PUSH2 0x3442 JUMP JUMPDEST POP POP POP JUMP JUMPDEST JUMPDEST DUP2 DUP2 LT ISZERO PUSH2 0x34A4 JUMPI PUSH2 0x3499 PUSH0 DUP3 PUSH2 0x346E JUMP JUMPDEST PUSH1 0x1 DUP2 ADD SWAP1 POP PUSH2 0x3487 JUMP JUMPDEST POP POP JUMP JUMPDEST PUSH1 0x1F DUP3 GT ISZERO PUSH2 0x34E9 JUMPI PUSH2 0x34BA DUP2 PUSH2 0x3391 JUMP JUMPDEST PUSH2 0x34C3 DUP5 PUSH2 0x33A3 JUMP JUMPDEST DUP2 ADD PUSH1 0x20 DUP6 LT ISZERO PUSH2 0x34D2 JUMPI DUP2 SWAP1 POP JUMPDEST PUSH2 0x34E6 PUSH2 0x34DE DUP6 PUSH2 0x33A3 JUMP JUMPDEST DUP4 ADD DUP3 PUSH2 0x3486 JUMP JUMPDEST POP POP JUMPDEST POP POP POP JUMP JUMPDEST PUSH0 DUP3 DUP3 SHR SWAP1 POP SWAP3 SWAP2 POP POP JUMP JUMPDEST PUSH0 PUSH2 0x3509 PUSH0 NOT DUP5 PUSH1 0x8 MUL PUSH2 0x34EE JUMP JUMPDEST NOT DUP1 DUP4 AND SWAP2 POP POP SWAP3 SWAP2 POP POP JUMP JUMPDEST PUSH0 PUSH2 0x3521 DUP4 DUP4 PUSH2 0x34FA JUMP JUMPDEST SWAP2 POP DUP3 PUSH1 0x2 MUL DUP3 OR SWAP1 POP SWAP3 SWAP2 POP POP JUMP JUMPDEST PUSH2 0x353A DUP3 PUSH2 0x2F90 JUMP JUMPDEST PUSH8 0xFFFFFFFFFFFFFFFF DUP2 GT ISZERO PUSH2 0x3553 JUMPI PUSH2 0x3552 PUSH2 0x2CB7 JUMP JUMPDEST JUMPDEST PUSH2 0x355D DUP3 SLOAD PUSH2 0x3361 JUMP JUMPDEST PUSH2 0x3568 DUP3 DUP3 DUP6 PUSH2 0x34A8 JUMP JUMPDEST PUSH0 PUSH1 0x20 SWAP1 POP PUSH1 0x1F DUP4 GT PUSH1 0x1 DUP2 EQ PUSH2 0x3599 JUMPI PUSH0 DUP5 ISZERO PUSH2 0x3587 JUMPI DUP3 DUP8 ADD MLOAD SWAP1 POP JUMPDEST PUSH2 0x3591 DUP6 DUP3 PUSH2 0x3516 JUMP JUMPDEST DUP7 SSTORE POP PUSH2 0x35F8 JUMP JUMPDEST PUSH1 0x1F NOT DUP5 AND PUSH2 0x35A7 DUP7 PUSH2 0x3391 JUMP JUMPDEST PUSH0 JUMPDEST DUP3 DUP2 LT ISZERO PUSH2 0x35CE JUMPI DUP5 DUP10 ADD MLOAD DUP3 SSTORE PUSH1 0x1 DUP3 ADD SWAP2 POP PUSH1 0x20 DUP6 ADD SWAP5 POP PUSH1 0x20 DUP2 ADD SWAP1 POP PUSH2 0x35A9 JUMP JUMPDEST DUP7 DUP4 LT ISZERO PUSH2 0x35EB JUMPI DUP5 DUP10 ADD MLOAD PUSH2 0x35E7 PUSH1 0x1F DUP10 AND DUP3 PUSH2 0x34FA JUMP JUMPDEST DUP4 SSTORE POP JUMPDEST PUSH1 0x1 PUSH1 0x2 DUP9 MUL ADD DUP9 SSTORE POP POP POP JUMPDEST POP POP POP POP POP POP JUMP JUMPDEST PUSH32 0x4D7573742062652070726F706F736564206F776E657200000000000000000000 PUSH0 DUP3 ADD MSTORE POP JUMP JUMPDEST PUSH0 PUSH2 0x3634 PUSH1 0x16 DUP4 PUSH2 0x2F9A JUMP JUMPDEST SWAP2 POP PUSH2 0x363F DUP3 PUSH2 0x3600 JUMP JUMPDEST PUSH1 0x20 DUP3 ADD SWAP1 POP SWAP2 SWAP1 POP JUMP JUMPDEST PUSH0 PUSH1 0x20 DUP3 ADD SWAP1 POP DUP2 DUP2 SUB PUSH0 DUP4 ADD MSTORE PUSH2 0x3661 DUP2 PUSH2 0x3628 JUMP JUMPDEST SWAP1 POP SWAP2 SWAP1 POP JUMP JUMPDEST PUSH32 0x4E6F20616374697665207175697A000000000000000000000000000000000000 PUSH0 DUP3 ADD MSTORE POP JUMP JUMPDEST PUSH0 PUSH2 0x369C PUSH1 0xE DUP4 PUSH2 0x2F9A JUMP JUMPDEST SWAP2 POP PUSH2 0x36A7 DUP3 PUSH2 0x3668 JUMP JUMPDEST PUSH1 0x20 DUP3 ADD SWAP1 POP SWAP2 SWAP1 POP JUMP JUMPDEST PUSH0 PUSH1 0x20 DUP3 ADD SWAP1 POP DUP2 DUP2 SUB PUSH0 DUP4 ADD MSTORE PUSH2 0x36C9 DUP2 PUSH2 0x3690 JUMP JUMPDEST SWAP1 POP SWAP2 SWAP1 POP JUMP JUMPDEST PUSH32 0x4E487B7100000000000000000000000000000000000000000000000000000000 PUSH0 MSTORE PUSH1 0x11 PUSH1 0x4 MSTORE PUSH1 0x24 PUSH0 REVERT JUMPDEST PUSH0 PUSH2 0x3707 DUP3 PUSH2 0x300B JUMP JUMPDEST SWAP2 POP PUSH2 0x3712 DUP4 PUSH2 0x300B JUMP JUMPDEST SWAP3 POP DUP3 DUP3 ADD SWAP1 POP DUP1 DUP3 GT ISZERO PUSH2 0x372A JUMPI PUSH2 0x3729 PUSH2 0x36D0 JUMP JUMPDEST JUMPDEST SWAP3 SWAP2 POP POP JUMP JUMPDEST PUSH32 0x546F6F206561726C7920746F2063616E63656C00000000000000000000000000 PUSH0 DUP3 ADD MSTORE POP JUMP JUMPDEST PUSH0 PUSH2 0x3764 PUSH1 0x13 DUP4 PUSH2 0x2F9A JUMP JUMPDEST SWAP2 POP PUSH2 0x376F DUP3 PUSH2 0x3730 JUMP JUMPDEST PUSH1 0x20 DUP3 ADD SWAP1 POP SWAP2 SWAP1 POP JUMP JUMPDEST PUSH0 PUSH1 0x20 DUP3 ADD SWAP1 POP DUP2 DUP2 SUB PUSH0 DUP4 ADD MSTORE PUSH2 0x3791 DUP2 PUSH2 0x3758 JUMP JUMPDEST SWAP1 POP SWAP2 SWAP1 POP JUMP JUMPDEST PUSH32 0x54696D6520657870697265640000000000000000000000000000000000000000 PUSH0 DUP3 ADD MSTORE POP JUMP JUMPDEST PUSH0 PUSH2 0x37CC PUSH1 0xC DUP4 PUSH2 0x2F9A JUMP JUMPDEST SWAP2 POP PUSH2 0x37D7 DUP3 PUSH2 0x3798 JUMP JUMPDEST PUSH1 0x20 DUP3 ADD SWAP1 POP SWAP2 SWAP1 POP JUMP JUMPDEST PUSH0 PUSH1 0x20 DUP3 ADD SWAP1 POP DUP2 DUP2 SUB PUSH0 DUP4 ADD MSTORE PUSH2 0x37F9 DUP2 PUSH2 0x37C0 JUMP JUMPDEST SWAP1 POP SWAP2 SWAP1 POP JUMP JUMPDEST PUSH0 PUSH2 0x380A DUP3 PUSH2 0x2FF0 JUMP JUMPDEST SWAP2 POP PUSH2 0x3815 DUP4 PUSH2 0x2FF0 JUMP JUMPDEST SWAP3 POP DUP3 DUP3 ADD SWAP1 POP PUSH1 0xFF DUP2 GT ISZERO PUSH2 0x382E JUMPI PUSH2 0x382D PUSH2 0x36D0 JUMP JUMPDEST JUMPDEST SWAP3 SWAP2 POP POP JUMP JUMPDEST PUSH32 0x7100000000000000000000000000000000000000000000000000000000000000 PUSH0 DUP3 ADD MSTORE POP JUMP JUMPDEST PUSH0 PUSH2 0x3868 PUSH1 0x1 DUP4 PUSH2 0x321B JUMP JUMPDEST SWAP2 POP PUSH2 0x3873 DUP3 PUSH2 0x3834 JUMP JUMPDEST PUSH1 0x1 DUP3 ADD SWAP1 POP SWAP2 SWAP1 POP JUMP JUMPDEST PUSH0 PUSH2 0x3888 DUP3 PUSH2 0x385C JUMP JUMPDEST SWAP2 POP PUSH2 0x3894 DUP3 DUP5 PUSH2 0x3225 JUMP JUMPDEST SWAP2 POP DUP2 SWAP1 POP SWAP3 SWAP2 POP POP JUMP JUMPDEST PUSH32 0x496E76616C696420726571756573742049440000000000000000000000000000 PUSH0 DUP3 ADD MSTORE POP JUMP JUMPDEST PUSH0 PUSH2 0x38D3 PUSH1 0x12 DUP4 PUSH2 0x2F9A JUMP JUMPDEST SWAP2 POP PUSH2 0x38DE DUP3 PUSH2 0x389F JUMP JUMPDEST PUSH1 0x20 DUP3 ADD SWAP1 POP SWAP2 SWAP1 POP JUMP JUMPDEST PUSH0 PUSH1 0x20 DUP3 ADD SWAP1 POP DUP2 DUP2 SUB PUSH0 DUP4 ADD MSTORE PUSH2 0x3900 DUP2 PUSH2 0x38C7 JUMP JUMPDEST SWAP1 POP SWAP2 SWAP1 POP JUMP JUMPDEST PUSH0 DUP2 SWAP1 POP SWAP3 SWAP2 POP POP JUMP JUMPDEST PUSH0 DUP2 SWAP1 POP DUP2 PUSH0 MSTORE PUSH1 0x20 PUSH0 KECCAK256 SWAP1 POP SWAP2 SWAP1 POP JUMP JUMPDEST PUSH0 DUP2 SLOAD PUSH2 0x392F DUP2 PUSH2 0x3361 JUMP JUMPDEST PUSH2 0x3939 DUP2 DUP7 PUSH2 0x3907 JUMP JUMPDEST SWAP5 POP PUSH1 0x1 DUP3 AND PUSH0 DUP2 EQ PUSH2 0x3953 JUMPI PUSH1 0x1 DUP2 EQ PUSH2 0x3968 JUMPI PUSH2 0x399A JUMP JUMPDEST PUSH1 0xFF NOT DUP4 AND DUP7 MSTORE DUP2 ISZERO ISZERO DUP3 MUL DUP7 ADD SWAP4 POP PUSH2 0x399A JUMP JUMPDEST PUSH2 0x3971 DUP6 PUSH2 0x3911 JUMP JUMPDEST PUSH0 JUMPDEST DUP4 DUP2 LT ISZERO PUSH2 0x3992 JUMPI DUP2 SLOAD DUP2 DUP10 ADD MSTORE PUSH1 0x1 DUP3 ADD SWAP2 POP PUSH1 0x20 DUP2 ADD SWAP1 POP PUSH2 0x3973 JUMP JUMPDEST DUP4 DUP9 ADD SWAP6 POP POP POP JUMPDEST POP POP POP SWAP3 SWAP2 POP POP JUMP JUMPDEST PUSH0 PUSH2 0x39AE DUP3 DUP5 PUSH2 0x3923 JUMP JUMPDEST SWAP2 POP DUP2 SWAP1 POP SWAP3 SWAP2 POP POP JUMP JUMPDEST PUSH0 PUSH1 0x40 DUP3 ADD SWAP1 POP DUP2 DUP2 SUB PUSH0 DUP4 ADD MSTORE PUSH2 0x39D1 DUP2 DUP6 PUSH2 0x2FB8 JUMP JUMPDEST SWAP1 POP PUSH2 0x39E0 PUSH1 0x20 DUP4 ADD DUP5 PUSH2 0x2FFC JUMP JUMPDEST SWAP4 SWAP3 POP POP POP JUMP JUMPDEST PUSH0 PUSH2 0x39F1 DUP3 PUSH2 0x300B JUMP JUMPDEST SWAP2 POP PUSH32 0xFFFFFFFFFFFFFFFFFFFFFFFFFFFFFFFFFFFFFFFFFFFFFFFFFFFFFFFFFFFFFFFF DUP3 SUB PUSH2 0x3A23 JUMPI PUSH2 0x3A22 PUSH2 0x36D0 JUMP JUMPDEST JUMPDEST PUSH1 0x1 DUP3 ADD SWAP1 POP SWAP2 SWAP1 POP JUMP JUMPDEST PUSH0 PUSH1 0x40 DUP3 ADD SWAP1 POP PUSH2 0x3A41 PUSH0 DUP4 ADD DUP6 PUSH2 0x302E JUMP JUMPDEST PUSH2 0x3A4E PUSH1 0x20 DUP4 ADD DUP5 PUSH2 0x2FFC JUMP JUMPDEST SWAP4 SWAP3 POP POP POP JUMP JUMPDEST PUSH0 PUSH2 0x3A5F DUP3 PUSH2 0x2FF0 JUMP JUMPDEST SWAP2 POP PUSH1 0xFF DUP3 SUB PUSH2 0x3A72 JUMPI PUSH2 0x3A71 PUSH2 0x36D0 JUMP JUMPDEST JUMPDEST PUSH1 0x1 DUP3 ADD SWAP1 POP SWAP2 SWAP1 POP JUMP JUMPDEST PUSH0 PUSH1 0x20 DUP3 ADD SWAP1 POP PUSH2 0x3A90 PUSH0 DUP4 ADD DUP5 PUSH2 0x2FFC JUMP JUMPDEST SWAP3 SWAP2 POP POP JUMP JUMPDEST PUSH0 PUSH0 REVERT JUMPDEST PUSH0 PUSH0 REVERT JUMPDEST PUSH0 PUSH0 REVERT JUMPDEST PUSH0 PUSH0 DUP4 CALLDATALOAD PUSH1 0x1 PUSH1 0x20 SUB DUP5 CALLDATASIZE SUB SUB DUP2 SLT PUSH2 0x3ABE JUMPI PUSH2 0x3ABD PUSH2 0x3A96 JUMP JUMPDEST JUMPDEST DUP1 DUP5 ADD SWAP3 POP DUP3 CALLDATALOAD SWAP2 POP PUSH8 0xFFFFFFFFFFFFFFFF DUP3 GT ISZERO PUSH2 0x3AE0 JUMPI PUSH2 0x3ADF PUSH2 0x3A9A JUMP JUMPDEST JUMPDEST PUSH1 0x20 DUP4 ADD SWAP3 POP PUSH1 0x1 DUP3 MUL CALLDATASIZE SUB DUP4 SGT ISZERO PUSH2 0x3AFC JUMPI PUSH2 0x3AFB PUSH2 0x3A9E JUMP JUMPDEST JUMPDEST POP SWAP3 POP SWAP3 SWAP1 POP JUMP JUMPDEST PUSH32 0x2200000000000000000000000000000000000000000000000000000000000000 PUSH0 DUP3 ADD MSTORE POP JUMP JUMPDEST PUSH0 PUSH2 0x3B38 PUSH1 0x1 DUP4 PUSH2 0x321B JUMP JUMPDEST SWAP2 POP PUSH2 0x3B43 DUP3 PUSH2 0x3B04 JUMP JUMPDEST PUSH1 0x1 DUP3 ADD SWAP1 POP SWAP2 SWAP1 POP JUMP JUMPDEST PUSH0 PUSH2 0x3B59 DUP4 DUP6 PUSH2 0x321B JUMP JUMPDEST SWAP4 POP PUSH2 0x3B66 DUP4 DUP6 DUP5 PUSH2 0x2D5F JUMP JUMPDEST DUP3 DUP5 ADD SWAP1 POP SWAP4 SWAP3 POP POP POP JUMP JUMPDEST PUSH0 PUSH2 0x3B7D DUP3 DUP7 PUSH2 0x3225 JUMP JUMPDEST SWAP2 POP PUSH2 0x3B88 DUP3 PUSH2 0x3B2C JUMP JUMPDEST SWAP2 POP PUSH2 0x3B95 DUP3 DUP5 DUP7 PUSH2 0x3B4E JUMP JUMPDEST SWAP2 POP PUSH2 0x3BA0 DUP3 PUSH2 0x3B2C JUMP JUMPDEST SWAP2 POP DUP2 SWAP1 POP SWAP5 SWAP4 POP POP POP POP JUMP JUMPDEST PUSH0 PUSH2 0x3BB7 DUP3 PUSH2 0x300B JUMP JUMPDEST SWAP2 POP PUSH2 0x3BC2 DUP4 PUSH2 0x300B JUMP JUMPDEST SWAP3 POP DUP3 DUP3 SUB SWAP1 POP DUP2 DUP2 GT ISZERO PUSH2 0x3BDA JUMPI PUSH2 0x3BD9 PUSH2 0x36D0 JUMP JUMPDEST JUMPDEST SWAP3 SWAP2 POP POP JUMP JUMPDEST PUSH32 0x2C00000000000000000000000000000000000000000000000000000000000000 PUSH0 DUP3 ADD MSTORE POP JUMP JUMPDEST PUSH0 PUSH2 0x3C14 PUSH1 0x1 DUP4 PUSH2 0x321B JUMP JUMPDEST SWAP2 POP PUSH2 0x3C1F DUP3 PUSH2 0x3BE0 JUMP JUMPDEST PUSH1 0x1 DUP3 ADD SWAP1 POP SWAP2 SWAP1 POP JUMP JUMPDEST PUSH0 PUSH2 0x3C35 DUP3 DUP5 PUSH2 0x3225 JUMP JUMPDEST SWAP2 POP PUSH2 0x3C40 DUP3 PUSH2 0x3C08 JUMP JUMPDEST SWAP2 POP DUP2 SWAP1 POP SWAP3 SWAP2 POP POP JUMP JUMPDEST PUSH32 0x5D00000000000000000000000000000000000000000000000000000000000000 PUSH0 DUP3 ADD MSTORE POP JUMP JUMPDEST PUSH0 PUSH2 0x3C7F PUSH1 0x1 DUP4 PUSH2 0x321B JUMP JUMPDEST SWAP2 POP PUSH2 0x3C8A DUP3 PUSH2 0x3C4B JUMP JUMPDEST PUSH1 0x1 DUP3 ADD SWAP1 POP SWAP2 SWAP1 POP JUMP JUMPDEST PUSH0 PUSH2 0x3CA0 DUP3 DUP5 PUSH2 0x3225 JUMP JUMPDEST SWAP2 POP PUSH2 0x3CAB DUP3 PUSH2 0x3C73 JUMP JUMPDEST SWAP2 POP DUP2 SWAP1 POP SWAP3 SWAP2 POP POP JUMP JUMPDEST PUSH0 PUSH2 0x3CC0 DUP3 PUSH2 0x300B JUMP JUMPDEST SWAP2 POP PUSH2 0x3CCB DUP4 PUSH2 0x300B JUMP JUMPDEST SWAP3 POP DUP3 DUP3 MUL PUSH2 0x3CD9 DUP2 PUSH2 0x300B JUMP JUMPDEST SWAP2 POP DUP3 DUP3 DIV DUP5 EQ DUP4 ISZERO OR PUSH2 0x3CF0 JUMPI PUSH2 0x3CEF PUSH2 0x36D0 JUMP JUMPDEST JUMPDEST POP SWAP3 SWAP2 POP POP JUMP JUMPDEST PUSH0 DUP2 PUSH1 0x1 SHR SWAP1 POP SWAP2 SWAP1 POP JUMP JUMPDEST PUSH0 PUSH0 DUP3 SWAP2 POP DUP4 SWAP1 POP JUMPDEST PUSH1 0x1 DUP6 GT ISZERO PUSH2 0x3D4C JUMPI DUP1 DUP7 DIV DUP2 GT ISZERO PUSH2 0x3D28 JUMPI PUSH2 0x3D27 PUSH2 0x36D0 JUMP JUMPDEST JUMPDEST PUSH1 0x1 DUP6 AND ISZERO PUSH2 0x3D37 JUMPI DUP1 DUP3 MUL SWAP2 POP JUMPDEST DUP1 DUP2 MUL SWAP1 POP PUSH2 0x3D45 DUP6 PUSH2 0x3CF7 JUMP JUMPDEST SWAP5 POP PUSH2 0x3D0C JUMP JUMPDEST SWAP5 POP SWAP5 SWAP3 POP POP POP JUMP JUMPDEST PUSH0 DUP3 PUSH2 0x3D64 JUMPI PUSH1 0x1 SWAP1 POP PUSH2 0x3E1F JUMP JUMPDEST DUP2 PUSH2 0x3D71 JUMPI PUSH0 SWAP1 POP PUSH2 0x3E1F JUMP JUMPDEST DUP2 PUSH1 0x1 DUP2 EQ PUSH2 0x3D87 JUMPI PUSH1 0x2 DUP2 EQ PUSH2 0x3D91 JUMPI PUSH2 0x3DC0 JUMP JUMPDEST PUSH1 0x1 SWAP2 POP POP PUSH2 0x3E1F JUMP JUMPDEST PUSH1 0xFF DUP5 GT ISZERO PUSH2 0x3DA3 JUMPI PUSH2 0x3DA2 PUSH2 0x36D0 JUMP JUMPDEST JUMPDEST DUP4 PUSH1 0x2 EXP SWAP2 POP DUP5 DUP3 GT ISZERO PUSH2 0x3DBA JUMPI PUSH2 0x3DB9 PUSH2 0x36D0 JUMP JUMPDEST JUMPDEST POP PUSH2 0x3E1F JUMP JUMPDEST POP PUSH1 0x20 DUP4 LT PUSH2 0x133 DUP4 LT AND PUSH1 0x4E DUP5 LT PUSH1 0xB DUP5 LT AND OR ISZERO PUSH2 0x3DF5 JUMPI DUP3 DUP3 EXP SWAP1 POP DUP4 DUP2 GT ISZERO PUSH2 0x3DF0 JUMPI PUSH2 0x3DEF PUSH2 0x36D0 JUMP JUMPDEST JUMPDEST PUSH2 0x3E1F JUMP JUMPDEST PUSH2 0x3E02 DUP5 DUP5 DUP5 PUSH1 0x1 PUSH2 0x3D03 JUMP JUMPDEST SWAP3 POP SWAP1 POP DUP2 DUP5 DIV DUP2 GT ISZERO PUSH2 0x3E19 JUMPI PUSH2 0x3E18 PUSH2 0x36D0 JUMP JUMPDEST JUMPDEST DUP2 DUP2 MUL SWAP1 POP JUMPDEST SWAP4 SWAP3 POP POP POP JUMP JUMPDEST PUSH0 PUSH2 0x3E30 DUP3 PUSH2 0x300B JUMP JUMPDEST SWAP2 POP PUSH2 0x3E3B DUP4 PUSH2 0x300B JUMP JUMPDEST SWAP3 POP PUSH2 0x3E68 PUSH32 0xFFFFFFFFFFFFFFFFFFFFFFFFFFFFFFFFFFFFFFFFFFFFFFFFFFFFFFFFFFFFFFFF DUP5 DUP5 PUSH2 0x3D55 JUMP JUMPDEST SWAP1 POP SWAP3 SWAP2 POP POP JUMP JUMPDEST PUSH32 0x4E487B7100000000000000000000000000000000000000000000000000000000 PUSH0 MSTORE PUSH1 0x12 PUSH1 0x4 MSTORE PUSH1 0x24 PUSH0 REVERT JUMPDEST PUSH0 PUSH2 0x3EA7 DUP3 PUSH2 0x300B JUMP JUMPDEST SWAP2 POP PUSH2 0x3EB2 DUP4 PUSH2 0x300B JUMP JUMPDEST SWAP3 POP DUP3 PUSH2 0x3EC2 JUMPI PUSH2 0x3EC1 PUSH2 0x3E70 JUMP JUMPDEST JUMPDEST DUP3 DUP3 DIV SWAP1 POP SWAP3 SWAP2 POP POP JUMP JUMPDEST PUSH0 PUSH2 0x3ED7 DUP3 PUSH2 0x300B JUMP JUMPDEST SWAP2 POP PUSH2 0x3EE2 DUP4 PUSH2 0x300B JUMP JUMPDEST SWAP3 POP DUP3 PUSH2 0x3EF2 JUMPI PUSH2 0x3EF1 PUSH2 0x3E70 JUMP JUMPDEST JUMPDEST DUP3 DUP3 MOD SWAP1 POP SWAP3 SWAP2 POP POP JUMP JUMPDEST PUSH32 0x4E487B7100000000000000000000000000000000000000000000000000000000 PUSH0 MSTORE PUSH1 0x21 PUSH1 0x4 MSTORE PUSH1 0x24 PUSH0 REVERT JUMPDEST PUSH0 PUSH8 0xFFFFFFFFFFFFFFFF DUP3 AND SWAP1 POP SWAP2 SWAP1 POP JUMP JUMPDEST PUSH2 0x3F46 DUP2 PUSH2 0x3F2A JUMP JUMPDEST DUP3 MSTORE POP POP JUMP JUMPDEST PUSH0 DUP2 MLOAD SWAP1 POP SWAP2 SWAP1 POP JUMP JUMPDEST PUSH0 DUP3 DUP3 MSTORE PUSH1 0x20 DUP3 ADD SWAP1 POP SWAP3 SWAP2 POP POP JUMP JUMPDEST PUSH0 PUSH2 0x3F70 DUP3 PUSH2 0x3F4C JUMP JUMPDEST PUSH2 0x3F7A DUP2 DUP6 PUSH2 0x3F56 JUMP JUMPDEST SWAP4 POP PUSH2 0x3F8A DUP2 DUP6 PUSH1 0x20 DUP7 ADD PUSH2 0x2FAA JUMP JUMPDEST PUSH2 0x3F93 DUP2 PUSH2 0x2CA7 JUMP JUMPDEST DUP5 ADD SWAP2 POP POP SWAP3 SWAP2 POP POP JUMP JUMPDEST PUSH0 PUSH2 0xFFFF DUP3 AND SWAP1 POP SWAP2 SWAP1 POP JUMP JUMPDEST PUSH2 0x3FB4 DUP2 PUSH2 0x3F9E JUMP JUMPDEST DUP3 MSTORE POP POP JUMP JUMPDEST PUSH0 PUSH4 0xFFFFFFFF DUP3 AND SWAP1 POP SWAP2 SWAP1 POP JUMP JUMPDEST PUSH2 0x3FD2 DUP2 PUSH2 0x3FBA JUMP JUMPDEST DUP3 MSTORE POP POP JUMP JUMPDEST PUSH2 0x3FE1 DUP2 PUSH2 0x2C6C JUMP JUMPDEST DUP3 MSTORE POP POP JUMP JUMPDEST PUSH0 PUSH1 0xA0 DUP3 ADD SWAP1 POP PUSH2 0x3FFA PUSH0 DUP4 ADD DUP9 PUSH2 0x3F3D JUMP JUMPDEST DUP2 DUP2 SUB PUSH1 0x20 DUP4 ADD MSTORE PUSH2 0x400C DUP2 DUP8 PUSH2 0x3F66 JUMP JUMPDEST SWAP1 POP PUSH2 0x401B PUSH1 0x40 DUP4 ADD DUP7 PUSH2 0x3FAB JUMP JUMPDEST PUSH2 0x4028 PUSH1 0x60 DUP4 ADD DUP6 PUSH2 0x3FC9 JUMP JUMPDEST PUSH2 0x4035 PUSH1 0x80 DUP4 ADD DUP5 PUSH2 0x3FD8 JUMP JUMPDEST SWAP7 SWAP6 POP POP POP POP POP POP JUMP JUMPDEST PUSH0 DUP2 MLOAD SWAP1 POP PUSH2 0x404D DUP2 PUSH2 0x2C75 JUMP JUMPDEST SWAP3 SWAP2 POP POP JUMP JUMPDEST PUSH0 PUSH1 0x20 DUP3 DUP5 SUB SLT ISZERO PUSH2 0x4068 JUMPI PUSH2 0x4067 PUSH2 0x2C64 JUMP JUMPDEST JUMPDEST PUSH0 PUSH2 0x4075 DUP5 DUP3 DUP6 ADD PUSH2 0x403F JUMP JUMPDEST SWAP2 POP POP SWAP3 SWAP2 POP POP JUMP JUMPDEST PUSH32 0x4F6E6C792063616C6C61626C65206279206F776E657200000000000000000000 PUSH0 DUP3 ADD MSTORE POP JUMP JUMPDEST PUSH0 PUSH2 0x40B2 PUSH1 0x16 DUP4 PUSH2 0x2F9A JUMP JUMPDEST SWAP2 POP PUSH2 0x40BD DUP3 PUSH2 0x407E JUMP JUMPDEST PUSH1 0x20 DUP3 ADD SWAP1 POP SWAP2 SWAP1 POP JUMP JUMPDEST PUSH0 PUSH1 0x20 DUP3 ADD SWAP1 POP DUP2 DUP2 SUB PUSH0 DUP4 ADD MSTORE PUSH2 0x40DF DUP2 PUSH2 0x40A6 JUMP JUMPDEST SWAP1 POP SWAP2 SWAP1 POP JUMP JUMPDEST PUSH32 0x43616E6E6F74207472616E7366657220746F2073656C66000000000000000000 PUSH0 DUP3 ADD MSTORE POP JUMP JUMPDEST PUSH0 PUSH2 0x411A PUSH1 0x17 DUP4 PUSH2 0x2F9A JUMP JUMPDEST SWAP2 POP PUSH2 0x4125 DUP3 PUSH2 0x40E6 JUMP JUMPDEST PUSH1 0x20 DUP3 ADD SWAP1 POP SWAP2 SWAP1 POP JUMP JUMPDEST PUSH0 PUSH1 0x20 DUP3 ADD SWAP1 POP DUP2 DUP2 SUB PUSH0 DUP4 ADD MSTORE PUSH2 0x4147 DUP2 PUSH2 0x410E JUMP JUMPDEST SWAP1 POP SWAP2 SWAP1 POP JUMP JUMPDEST PUSH0 PUSH1 0x20 DUP3 ADD SWAP1 POP PUSH2 0x4161 PUSH0 DUP4 ADD DUP5 PUSH2 0x3014 JUMP JUMPDEST SWAP3 SWAP2 POP POP JUMP JUMPDEST PUSH0 PUSH2 0x4171 DUP3 PUSH2 0x2FF0 JUMP JUMPDEST SWAP2 POP PUSH2 0x417C DUP4 PUSH2 0x2FF0 JUMP JUMPDEST SWAP3 POP DUP3 DUP3 SUB SWAP1 POP PUSH1 0xFF DUP2 GT ISZERO PUSH2 0x4195 JUMPI PUSH2 0x4194 PUSH2 0x36D0 JUMP JUMPDEST JUMPDEST SWAP3 SWAP2 POP POP JUMP INVALID PUSH9 0x747470733A2F2F6377 PUSH10 0x7A72707276797A6E656C PUSH21 0x67687A6E6E612E73757061626173652E636F636F6E PUSH20 0x7420656C697A6142617365203D20617267735B32 TSTORE EXTCODESIZE PUSH4 0x6F6E7374 KECCAK256 PUSH22 0x726C203D2060247B656C697A61426173657D2F67656E PUSH6 0x726174655175 PUSH10 0x7A603B20636F6E737420 PUSH17 0x61796C6F6164203D204A534F4E2E737472 PUSH10 0x6E67696679287B20646F PUSH14 0x61696E733A204A534F4E2E706172 PUSH20 0x6528617267735B305D292C20706C617965724164 PUSH5 0x726573733A KECCAK256 PUSH2 0x7267 PUSH20 0x5B315D207D293B20636F6E737420726573203D20 PUSH2 0x7761 PUSH10 0x742046756E6374696F6E PUSH20 0x2E6D616B654874747052657175657374287B2075 PUSH19 0x6C2C206D6574686F643A2027504F5354272C20 PUSH9 0x6561646572733A207B KECCAK256 0x27 NUMBER PUSH16 0x6E74656E742D54797065273A20276170 PUSH17 0x6C69636174696F6E2F6A736F6E27207D2C KECCAK256 PUSH5 0x6174613A20 PUSH17 0x61796C6F6164207D293B20696620287265 PUSH20 0x2E6572726F7229207468726F77206E6577204572 PUSH19 0x6F72287265732E6572726F722E6D6573736167 PUSH6 0x293B20636F6E PUSH20 0x74207175697A4964203D207265732E646174612E PUSH18 0x75697A49643B20636F6E7374206E756D5120 RETURNDATASIZE KECCAK256 PUSH19 0x65732E646174612E6E756D5175657374696F6E PUSH20 0x3B2072657475726E2046756E6374696F6E732E65 PUSH15 0x636F6465537472696E672860247B71 PUSH22 0x697A49647D7C247B6E756D517D60293B636F6E737420 PUSH6 0x6C697A614261 PUSH20 0x65203D20617267735B335D3B636F6E7374207572 PUSH13 0x203D2060247B656C697A614261 PUSH20 0x657D2F766572696679416E73776572603B20636F PUSH15 0x7374207061796C6F6164203D204A53 0x4F 0x4E 0x2E PUSH20 0x7472696E67696679287B207175697A49643A2061 PUSH19 0x67735B305D2C207175657374696F6E49643A20 PUSH2 0x7267 PUSH20 0x5B315D2C2073656C6563746564496E6465783A20 PUSH17 0x61727365496E7428617267735B325D2C20 BALANCE ADDRESS 0x29 KECCAK256 PUSH30 0x293B20636F6E737420726573203D2061776169742046756E6374696F6E73 0x2E PUSH14 0x616B654874747052657175657374 0x28 PUSH28 0x2075726C2C206D6574686F643A2027504F5354272C20686561646572 PUSH20 0x3A207B2027436F6E74656E742D54797065273A20 0x27 PUSH2 0x7070 PUSH13 0x69636174696F6E2F6A736F6E27 KECCAK256 PUSH30 0x2C20646174613A207061796C6F6164207D293B20696620287265732E6572 PUSH19 0x6F7229207468726F77206E6577204572726F72 0x28 PUSH19 0x65732E6572726F722E6D657373616765293B20 PUSH4 0x6F6E7374 KECCAK256 PUSH4 0x6F727265 PUSH4 0x74203D20 PUSH19 0x65732E646174612E6973436F7272656374203F KECCAK256 0x27 BALANCE 0x27 KECCAK256 GASPRICE KECCAK256 0x27 ADDRESS 0x27 EXTCODESIZE KECCAK256 PUSH19 0x657475726E2046756E6374696F6E732E656E63 PUSH16 0x6465537472696E6728636F7272656374 0x29 EXTCODESIZE LOG2 PUSH5 0x6970667358 0x22 SLT KECCAK256 POP BALANCE EXTSTATICCALL MUL EOFCREATE 0x25 DUP7 PUSH22 0x2C3DCD321BAF36900F65897A57CF3F685B3C0394823A SGT 0xF PUSH5 0x736F6C6343 STOP ADDMOD 0x1E STOP CALLER "
		},
		"gasEstimates": {
			"creation": {
				"codeDepositCost": "3560200",
				"executionCost": "infinite",
				"totalCost": "infinite"
			},
			"external": {
				"acceptOwnership()": "54598",
				"cancelQuiz()": "infinite",
				"handleOracleFulfillment(bytes32,bytes,bytes)": "infinite",
				"owner()": "2514",
				"requestToPlayer(bytes32)": "2849",
				"sessions(address)": "infinite",
				"startQuiz(string[])": "infinite",
				"submitAnswer(uint8)": "infinite",
				"transferOwnership(address)": "30737"
			},
			"internal": {
				"_atoi(string memory)": "infinite",
				"_encodeDomains(string calldata[] calldata)": "infinite",
				"_generateSource()": "infinite",
				"_hardcoded(string memory)": "infinite",
				"_hardcodedUint(string memory)": "infinite",
				"_parseQuizResponse(string memory)": "infinite",
				"_slice(bytes memory,uint256,uint256)": "infinite",
				"_toHexString(address)": "infinite",
				"_verifySource()": "infinite",
				"fulfillRequest(bytes32,bytes memory,bytes memory)": "infinite",
				"uint2str(uint256)": "infinite"
			}
		},
		"methodIdentifiers": {
			"acceptOwnership()": "79ba5097",
			"cancelQuiz()": "c320c1b9",
			"handleOracleFulfillment(bytes32,bytes,bytes)": "0ca76175",
			"owner()": "8da5cb5b",
			"requestToPlayer(bytes32)": "97cc19ba",
			"sessions(address)": "431a1b97",
			"startQuiz(string[])": "2ac87aa6",
			"submitAnswer(uint8)": "ec4fd914",
			"transferOwnership(address)": "f2fde38b"
		}
	},
	"abi": [
		{
			"inputs": [],
			"stateMutability": "nonpayable",
			"type": "constructor"
		},
		{
			"inputs": [],
			"name": "EmptyArgs",
			"type": "error"
		},
		{
			"inputs": [],
			"name": "EmptySource",
			"type": "error"
		},
		{
			"inputs": [],
			"name": "NoInlineSecrets",
			"type": "error"
		},
		{
			"inputs": [],
			"name": "OnlyRouterCanFulfill",
			"type": "error"
		},
		{
			"anonymous": false,
			"inputs": [
				{
					"indexed": true,
					"internalType": "address",
					"name": "player",
					"type": "address"
				},
				{
					"indexed": false,
					"internalType": "bool",
					"name": "isCorrect",
					"type": "bool"
				},
				{
					"indexed": false,
					"internalType": "uint8",
					"name": "questionIndex",
					"type": "uint8"
				}
			],
			"name": "AnswerSubmitted",
			"type": "event"
		},
		{
			"anonymous": false,
			"inputs": [
				{
					"indexed": true,
					"internalType": "address",
					"name": "from",
					"type": "address"
				},
				{
					"indexed": true,
					"internalType": "address",
					"name": "to",
					"type": "address"
				}
			],
			"name": "OwnershipTransferRequested",
			"type": "event"
		},
		{
			"anonymous": false,
			"inputs": [
				{
					"indexed": true,
					"internalType": "address",
					"name": "from",
					"type": "address"
				},
				{
					"indexed": true,
					"internalType": "address",
					"name": "to",
					"type": "address"
				}
			],
			"name": "OwnershipTransferred",
			"type": "event"
		},
		{
			"anonymous": false,
			"inputs": [
				{
					"indexed": true,
					"internalType": "address",
					"name": "player",
					"type": "address"
				}
			],
			"name": "QuizCancelled",
			"type": "event"
		},
		{
			"anonymous": false,
			"inputs": [
				{
					"indexed": true,
					"internalType": "address",
					"name": "player",
					"type": "address"
				},
				{
					"indexed": false,
					"internalType": "uint8",
					"name": "correctCount",
					"type": "uint8"
				}
			],
			"name": "QuizCompleted",
			"type": "event"
		},
		{
			"anonymous": false,
			"inputs": [
				{
					"indexed": true,
					"internalType": "address",
					"name": "player",
					"type": "address"
				},
				{
					"indexed": false,
					"internalType": "string",
					"name": "quizId",
					"type": "string"
				},
				{
					"indexed": false,
					"internalType": "uint8",
					"name": "numQuestions",
					"type": "uint8"
				}
			],
			"name": "QuizGenerated",
			"type": "event"
		},
		{
			"anonymous": false,
			"inputs": [
				{
					"indexed": true,
					"internalType": "bytes32",
					"name": "id",
					"type": "bytes32"
				}
			],
			"name": "RequestFulfilled",
			"type": "event"
		},
		{
			"anonymous": false,
			"inputs": [
				{
					"indexed": true,
					"internalType": "bytes32",
					"name": "id",
					"type": "bytes32"
				}
			],
			"name": "RequestSent",
			"type": "event"
		},
		{
			"inputs": [],
			"name": "acceptOwnership",
			"outputs": [],
			"stateMutability": "nonpayable",
			"type": "function"
		},
		{
			"inputs": [],
			"name": "cancelQuiz",
			"outputs": [],
			"stateMutability": "nonpayable",
			"type": "function"
		},
		{
			"inputs": [
				{
					"internalType": "bytes32",
					"name": "requestId",
					"type": "bytes32"
				},
				{
					"internalType": "bytes",
					"name": "response",
					"type": "bytes"
				},
				{
					"internalType": "bytes",
					"name": "err",
					"type": "bytes"
				}
			],
			"name": "handleOracleFulfillment",
			"outputs": [],
			"stateMutability": "nonpayable",
			"type": "function"
		},
		{
			"inputs": [],
			"name": "owner",
			"outputs": [
				{
					"internalType": "address",
					"name": "",
					"type": "address"
				}
			],
			"stateMutability": "view",
			"type": "function"
		},
		{
			"inputs": [
				{
					"internalType": "bytes32",
					"name": "",
					"type": "bytes32"
				}
			],
			"name": "requestToPlayer",
			"outputs": [
				{
					"internalType": "address",
					"name": "",
					"type": "address"
				}
			],
			"stateMutability": "view",
			"type": "function"
		},
		{
			"inputs": [
				{
					"internalType": "address",
					"name": "",
					"type": "address"
				}
			],
			"name": "sessions",
			"outputs": [
				{
					"internalType": "string",
					"name": "quizId",
					"type": "string"
				},
				{
					"internalType": "uint8",
					"name": "questionIndex",
					"type": "uint8"
				},
				{
					"internalType": "uint256",
					"name": "correctCount",
					"type": "uint256"
				},
				{
					"internalType": "uint256",
					"name": "startedAt",
					"type": "uint256"
				},
				{
					"internalType": "bool",
					"name": "active",
					"type": "bool"
				},
				{
					"internalType": "uint8",
					"name": "numQuestions",
					"type": "uint8"
				}
			],
			"stateMutability": "view",
			"type": "function"
		},
		{
			"inputs": [
				{
					"internalType": "string[]",
					"name": "domains",
					"type": "string[]"
				}
			],
			"name": "startQuiz",
			"outputs": [],
			"stateMutability": "nonpayable",
			"type": "function"
		},
		{
			"inputs": [
				{
					"internalType": "uint8",
					"name": "selectedIndex",
					"type": "uint8"
				}
			],
			"name": "submitAnswer",
			"outputs": [],
			"stateMutability": "nonpayable",
			"type": "function"
		},
		{
			"inputs": [
				{
					"internalType": "address",
					"name": "to",
					"type": "address"
				}
			],
			"name": "transferOwnership",
			"outputs": [],
			"stateMutability": "nonpayable",
			"type": "function"
		}
	]
}