{
	"data": {
		"bytecode": {
			"linkReferences": {},
			"object": "60c060405234801561000f575f80fd5b50732ed832ba664535e5886b75d64c46eb9a228c261033805f73f9b8fc078197181c841c296c876945aaa425b2788073ffffffffffffffffffffffffffffffffffffffff1660808173ffffffffffffffffffffffffffffffffffffffff1681525050505f73ffffffffffffffffffffffffffffffffffffffff168273ffffffffffffffffffffffffffffffffffffffff16036100e0576040517f08c379a00000000000000000000000000000000000000000000000000000000081526004016100d7906103ec565b60405180910390fd5b815f806101000a81548173ffffffffffffffffffffffffffffffffffffffff021916908373ffffffffffffffffffffffffffffffffffffffff1602179055505f73ffffffffffffffffffffffffffffffffffffffff168173ffffffffffffffffffffffffffffffffffffffff1614610162576101618161026860201b60201c565b5b5050505f73ffffffffffffffffffffffffffffffffffffffff168173ffffffffffffffffffffffffffffffffffffffff16036101ca576040517fd92e233d00000000000000000000000000000000000000000000000000000000815260040160405180910390fd5b8060025f6101000a81548173ffffffffffffffffffffffffffffffffffffffff021916908373ffffffffffffffffffffffffffffffffffffffff160217905550507371f517833cf8c8a88f18c53ca9b1ceed34cadc6d73ffffffffffffffffffffffffffffffffffffffff1660a08173ffffffffffffffffffffffffffffffffffffffff168152505042600781905550610e10600881905550610472565b3373ffffffffffffffffffffffffffffffffffffffff168173ffffffffffffffffffffffffffffffffffffffff16036102d6576040517f08c379a00000000000000000000000000000000000000000000000000000000081526004016102cd90610454565b60405180910390fd5b8060015f6101000a81548173ffffffffffffffffffffffffffffffffffffffff021916908373ffffffffffffffffffffffffffffffffffffffff1602179055508073ffffffffffffffffffffffffffffffffffffffff165f8054906101000a900473ffffffffffffffffffffffffffffffffffffffff1673ffffffffffffffffffffffffffffffffffffffff167fed8889f560326eb138920d842192f0eb3dd22b4f139c87a2c57538e05bae127860405160405180910390a350565b5f82825260208201905092915050565b7f43616e6e6f7420736574206f776e657220746f207a65726f00000000000000005f82015250565b5f6103d6601883610392565b91506103e1826103a2565b602082019050919050565b5f6020820190508181035f830152610403816103ca565b9050919050565b7f43616e6e6f74207472616e7366657220746f2073656c660000000000000000005f82015250565b5f61043e601783610392565b91506104498261040a565b602082019050919050565b5f6020820190508181035f83015261046b81610432565b9050919050565b60805160a0516145406104af5f395f818161084e01528181610c4c0152818161144d01526115f401525f81816105ef01526120d201526145405ff3fe608060405234801561000f575f80fd5b5060043610610135575f3560e01c806379ba5097116100b6578063b55f108f1161007a578063b55f108f146102ef578063b68e71bf1461031f578063c320c1b91461033d578063ec4fd91414610347578063f2fde38b14610363578063fd2c80ae1461037f57610135565b806379ba50971461026f5780638da5cb5b146102795780638ea98117146102975780639eccacf6146102b3578063a2462712146102d157610135565b8063431a1b97116100fd578063431a1b97146101a15780634585e33b146101d65780636e04ff0d146101f25780636e56a8e7146102235780637124c6831461025357610135565b806302302025146101395780630ca76175146101435780631fe543e31461015f5780632ac87aa61461017b578063330d99d414610197575b5f80fd5b61014161039d565b005b61015d60048036038101906101589190612c08565b6105ed565b005b61017960048036038101906101749190612d20565b6106af565b005b61019560048036038101906101909190612dd2565b610773565b005b61019f610b38565b005b6101bb60048036038101906101b69190612e77565b610e8b565b6040516101cd96959493929190612f46565b60405180910390f35b6101f060048036038101906101eb9190613001565b610f61565b005b61020c60048036038101906102079190613001565b610fbb565b60405161021a92919061309e565b60405180910390f35b61023d60048036038101906102389190612e77565b610ff4565b60405161024a91906130cc565b60405180910390f35b61026d600480360381019061026891906130e5565b611009565b005b610277611052565b005b6102816111e1565b60405161028e919061311f565b60405180910390f35b6102b160048036038101906102ac9190612e77565b611208565b005b6102bb6113e5565b6040516102c89190613193565b60405180910390f35b6102d961140a565b6040516102e691906130cc565b60405180910390f35b610309600480360381019061030491906130e5565b611410565b604051610316919061311f565b60405180910390f35b61032761144b565b60405161033491906131cc565b60405180910390f35b61034561146f565b005b610361600480360381019061035c919061320f565b611723565b005b61037d60048036038101906103789190612e77565b611915565b005b610387611929565b60405161039491906130cc565b60405180910390f35b5f60045f3373ffffffffffffffffffffffffffffffffffffffff1673ffffffffffffffffffffffffffffffffffffffff1681526020019081526020015f209050806005015f9054906101000a900460ff1661042d576040517f08c379a000000000000000000000000000000000000000000000000000000000815260040161042490613284565b60405180910390fd5b5f6040518060c001604052807f354d2f95da55398f44b7cff77da56283d9c6c829a4bdf1bbcaf2ad6a4d081f615f1b815260200161162e8152602001600361ffff168152602001620186a063ffffffff168152602001600163ffffffff1681526020016104a960405180602001604052805f151581525061192f565b81525090505f60025f9054906101000a900473ffffffffffffffffffffffffffffffffffffffff1673ffffffffffffffffffffffffffffffffffffffff16639b1c385e836040518263ffffffff1660e01b815260040161050991906133c8565b6020604051808303815f875af1158015610525573d5f803e3d5ffd5b505050506040513d601f19601f8201168201806040525081019061054991906133fc565b90503360035f8381526020019081526020015f205f6101000a81548173ffffffffffffffffffffffffffffffffffffffff021916908373ffffffffffffffffffffffffffffffffffffffff1602179055503373ffffffffffffffffffffffffffffffffffffffff167f1f48676f1ac676ea5e1390a1b533955b8384ed34c9a4bf20500e38d2e5719c86826040516105e091906130cc565b60405180910390a2505050565b7f000000000000000000000000000000000000000000000000000000000000000073ffffffffffffffffffffffffffffffffffffffff163373ffffffffffffffffffffffffffffffffffffffff1614610672576040517fc6829f8300000000000000000000000000000000000000000000000000000000815260040160405180910390fd5b61067d8383836119c7565b827f85e1543bf2f84fe80c6badbce3648c8539ad1df4d2b3d822938ca0538be727e660405160405180910390a2505050565b60025f9054906101000a900473ffffffffffffffffffffffffffffffffffffffff1673ffffffffffffffffffffffffffffffffffffffff163373ffffffffffffffffffffffffffffffffffffffff1614610763573360025f9054906101000a900473ffffffffffffffffffffffffffffffffffffffff166040517f1cf993f400000000000000000000000000000000000000000000000000000000815260040161075a929190613427565b60405180910390fd5b61076e838383611acf565b505050565b5f60045f3373ffffffffffffffffffffffffffffffffffffffff1673ffffffffffffffffffffffffffffffffffffffff1681526020019081526020015f209050806005015f9054906101000a900460ff1615610804576040517f08c379a00000000000000000000000000000000000000000000000000000000081526004016107fb90613498565b60405180910390fd5b600483839050101561084b576040517f08c379a000000000000000000000000000000000000000000000000000000000815260040161084290613500565b60405180910390fd5b5f7f000000000000000000000000000000000000000000000000000000000000000073ffffffffffffffffffffffffffffffffffffffff166323b872dd3330678ac7230489e800006040518463ffffffff1660e01b81526004016108b19392919061351e565b6020604051808303815f875af11580156108cd573d5f803e3d5ffd5b505050506040513d601f19601f820116820180604052508101906108f1919061357d565b905080610933576040517f08c379a000000000000000000000000000000000000000000000000000000000815260040161092a906135f2565b60405180910390fd5b61093b612989565b610955610946611c96565b82611cb990919063ffffffff16565b5f61099161096283611cc9565b6104d2620493e07f66756e2d626173652d7365706f6c69612d3100000000000000000000000000005f1b6120ce565b90506040518060c001604052805f81526020015f8152602001678ac7230489e8000081526020015f60ff16815260200160405180602001604052805f81525081526020016001151581525060045f3373ffffffffffffffffffffffffffffffffffffffff1673ffffffffffffffffffffffffffffffffffffffff1681526020019081526020015f205f820151815f015560208201518160010155604082015181600201556060820151816003015f6101000a81548160ff021916908360ff1602179055506080820151816004019081610a6a9190613801565b5060a0820151816005015f6101000a81548160ff021916908315150217905550905050600533908060018154018082558091505060019003905f5260205f20015f9091909190916101000a81548173ffffffffffffffffffffffffffffffffffffffff021916908373ffffffffffffffffffffffffffffffffffffffff160217905550803373ffffffffffffffffffffffffffffffffffffffff167e40a08ff8a2c8de3747add6410ec4f7e6f2f1c30043e8dee77f0adae00b356860405160405180910390a3505050505050565b5f60045f3373ffffffffffffffffffffffffffffffffffffffff1673ffffffffffffffffffffffffffffffffffffffff1681526020019081526020015f209050806005015f9054906101000a900460ff16610bc8576040517f08c379a0000000000000000000000000000000000000000000000000000000008152600401610bbf90613284565b60405180910390fd5b600a816001015414610c0f576040517f08c379a0000000000000000000000000000000000000000000000000000000008152600401610c069061391a565b60405180910390fd5b5f600a826003015f9054906101000a900460ff1660ff168360020154610c359190613965565b610c3f91906139d3565b90505f811115610d29575f7f000000000000000000000000000000000000000000000000000000000000000073ffffffffffffffffffffffffffffffffffffffff1663a9059cbb33846040518363ffffffff1660e01b8152600401610ca5929190613a03565b6020604051808303815f875af1158015610cc1573d5f803e3d5ffd5b505050506040513d601f19601f82011682018060405250810190610ce5919061357d565b905080610d27576040517f08c379a0000000000000000000000000000000000000000000000000000000008152600401610d1e90613a74565b60405180910390fd5b505b8160020154826003015f9054906101000a900460ff1660ff16610d4c9190613965565b60065f3373ffffffffffffffffffffffffffffffffffffffff1673ffffffffffffffffffffffffffffffffffffffff1681526020019081526020015f205f828254610d979190613a92565b925050819055503373ffffffffffffffffffffffffffffffffffffffff167f1d0f096610fbc2eb1e49f27265130c9c8979bafe21966d391240f4e90ea92144836003015f9054906101000a900460ff1683604051610df6929190613ac5565b60405180910390a260045f3373ffffffffffffffffffffffffffffffffffffffff1673ffffffffffffffffffffffffffffffffffffffff1681526020019081526020015f205f8082015f9055600182015f9055600282015f9055600382015f6101000a81549060ff0219169055600482015f610e7291906129f8565b600582015f6101000a81549060ff021916905550505050565b6004602052805f5260405f205f91509050805f015490806001015490806002015490806003015f9054906101000a900460ff1690806004018054610ece9061363d565b80601f0160208091040260200160405190810160405280929190818152602001828054610efa9061363d565b8015610f455780601f10610f1c57610100808354040283529160200191610f45565b820191905f5260205f20905b815481529060010190602001808311610f2857829003601f168201915b505050505090806005015f9054906101000a900460ff16905086565b60085460075442610f729190613aec565b1115610fb757426007819055507f6de57e59f03f88a5737f7843df2f8e9fb747d34513ec31fbcb04760c530a21e942604051610fae91906130cc565b60405180910390a15b5050565b5f60605f60075442610fcd9190613aec565b90505f600854821190508060405180602001604052805f8152509350935050509250929050565b6006602052805f5260405f205f915090505481565b6110116121ad565b806008819055507f06a60a6a9bd26df0b38af118b3bfbf636cfe2705ef44a124c5baa2502c68c6668160405161104791906130cc565b60405180910390a150565b60015f9054906101000a900473ffffffffffffffffffffffffffffffffffffffff1673ffffffffffffffffffffffffffffffffffffffff163373ffffffffffffffffffffffffffffffffffffffff16146110e1576040517f08c379a00000000000000000000000000000000000000000000000000000000081526004016110d890613b69565b60405180910390fd5b5f805f9054906101000a900473ffffffffffffffffffffffffffffffffffffffff169050335f806101000a81548173ffffffffffffffffffffffffffffffffffffffff021916908373ffffffffffffffffffffffffffffffffffffffff1602179055505f60015f6101000a81548173ffffffffffffffffffffffffffffffffffffffff021916908373ffffffffffffffffffffffffffffffffffffffff1602179055503373ffffffffffffffffffffffffffffffffffffffff168173ffffffffffffffffffffffffffffffffffffffff167f8be0079c531659141344cd1fd0a4f28419497f9722a3daafe3b4186f6b6457e060405160405180910390a350565b5f805f9054906101000a900473ffffffffffffffffffffffffffffffffffffffff16905090565b6112106111e1565b73ffffffffffffffffffffffffffffffffffffffff163373ffffffffffffffffffffffffffffffffffffffff1614158015611298575060025f9054906101000a900473ffffffffffffffffffffffffffffffffffffffff1673ffffffffffffffffffffffffffffffffffffffff163373ffffffffffffffffffffffffffffffffffffffff1614155b1561130657336112a66111e1565b60025f9054906101000a900473ffffffffffffffffffffffffffffffffffffffff166040517f061db9c10000000000000000000000000000000000000000000000000000000081526004016112fd93929190613b87565b60405180910390fd5b5f73ffffffffffffffffffffffffffffffffffffffff168173ffffffffffffffffffffffffffffffffffffffff160361136b576040517fd92e233d00000000000000000000000000000000000000000000000000000000815260040160405180910390fd5b8060025f6101000a81548173ffffffffffffffffffffffffffffffffffffffff021916908373ffffffffffffffffffffffffffffffffffffffff1602179055507fd1a6a14209a385a964d036e404cb5cfb71f4000cdb03c9366292430787261be6816040516113da919061311f565b60405180910390a150565b60025f9054906101000a900473ffffffffffffffffffffffffffffffffffffffff1681565b60075481565b6005818154811061141f575f80fd5b905f5260205f20015f915054906101000a900473ffffffffffffffffffffffffffffffffffffffff1681565b7f000000000000000000000000000000000000000000000000000000000000000081565b5f60045f3373ffffffffffffffffffffffffffffffffffffffff1673ffffffffffffffffffffffffffffffffffffffff1681526020019081526020015f209050806005015f9054906101000a900460ff166114ff576040517f08c379a00000000000000000000000000000000000000000000000000000000081526004016114f690613284565b60405180910390fd5b5f600a602d61150e9190613965565b825f015461151c9190613a92565b9050804211611560576040517f08c379a000000000000000000000000000000000000000000000000000000000815260040161155790613c06565b60405180910390fd5b5f8260020154905060045f3373ffffffffffffffffffffffffffffffffffffffff1673ffffffffffffffffffffffffffffffffffffffff1681526020019081526020015f205f8082015f9055600182015f9055600282015f9055600382015f6101000a81549060ff0219169055600482015f6115dc91906129f8565b600582015f6101000a81549060ff021916905550505f7f000000000000000000000000000000000000000000000000000000000000000073ffffffffffffffffffffffffffffffffffffffff1663a9059cbb33846040518363ffffffff1660e01b815260040161164d929190613a03565b6020604051808303815f875af1158015611669573d5f803e3d5ffd5b505050506040513d601f19601f8201168201806040525081019061168d919061357d565b9050806116cf576040517f08c379a00000000000000000000000000000000000000000000000000000000081526004016116c690613c6e565b60405180910390fd5b3373ffffffffffffffffffffffffffffffffffffffff167ffe1df32ea0db777e09d3744dec8051b0b39aad603e12002048877c32b665a0c18360405161171591906130cc565b60405180910390a250505050565b5f60045f3373ffffffffffffffffffffffffffffffffffffffff1673ffffffffffffffffffffffffffffffffffffffff1681526020019081526020015f209050806005015f9054906101000a900460ff166117b3576040517f08c379a00000000000000000000000000000000000000000000000000000000081526004016117aa90613284565b60405180910390fd5b600a8160010154106117fa576040517f08c379a00000000000000000000000000000000000000000000000000000000081526004016117f190613cd6565b60405180910390fd5b5f602d826001015461180c9190613965565b825f015461181a9190613a92565b9050602d816118299190613a92565b42111561186b576040517f08c379a000000000000000000000000000000000000000000000000000000000815260040161186290613d3e565b60405180910390fd5b611873612989565b61188d61187e61223c565b82611cb990919063ffffffff16565b5f6118c961189a83611cc9565b6104d2620493e07f66756e2d626173652d7365706f6c69612d3100000000000000000000000000005f1b6120ce565b9050803373ffffffffffffffffffffffffffffffffffffffff167e40a08ff8a2c8de3747add6410ec4f7e6f2f1c30043e8dee77f0adae00b356860405160405180910390a35050505050565b61191d6121ad565b6119268161225f565b50565b60085481565b60607f92fd13387c7fe7befbc38d303d6468778fb9731bc4583f17d92989c6fcfdeaaa826040516024016119639190613d85565b604051602081830303815290604052907bffffffffffffffffffffffffffffffffffffffffffffffffffffffff19166020820180517bffffffffffffffffffffffffffffffffffffffffffffffffffffffff83818316178352505050509050919050565b5f8290505f3390505f60045f8373ffffffffffffffffffffffffffffffffffffffff1673ffffffffffffffffffffffffffffffffffffffff1681526020019081526020015f209050806005015f9054906101000a900460ff16611a5f576040517f08c379a0000000000000000000000000000000000000000000000000000000008152600401611a5690613284565b60405180910390fd5b82816004019081611a709190613801565b5042815f01819055508173ffffffffffffffffffffffffffffffffffffffff167f3a8a4da682bbd76dcdb1ce36aa632d21131bc02c50eecaaf7fe3c23ac14aff0c84604051611abf9190613d9e565b60405180910390a2505050505050565b5f60035f8581526020019081526020015f205f9054906101000a900473ffffffffffffffffffffffffffffffffffffffff1690505f73ffffffffffffffffffffffffffffffffffffffff168173ffffffffffffffffffffffffffffffffffffffff1603611b71576040517f08c379a0000000000000000000000000000000000000000000000000000000008152600401611b6890613e08565b60405180910390fd5b5f83835f818110611b8557611b84613e26565b5b9050602002013590505f600582611b9c9190613e53565b03611c5c575f678ac7230489e800006005611bb79190613965565b90508060065f8573ffffffffffffffffffffffffffffffffffffffff1673ffffffffffffffffffffffffffffffffffffffff1681526020019081526020015f205f828254611c059190613a92565b925050819055508273ffffffffffffffffffffffffffffffffffffffff167f9cf92e896d7fce8c4a7600daa08f0a39e68eb99cd4413843df33e0fdb755353882604051611c5291906130cc565b60405180910390a2505b60035f8681526020019081526020015f205f6101000a81549073ffffffffffffffffffffffffffffffffffffffff02191690555050505050565b6060604051806101c0016040528061018281526020016143896101829139905090565b611cc5825f8084612389565b5050565b60605f611cd761010061242f565b9050611d216040518060400160405280600c81526020017f636f64654c6f636174696f6e00000000000000000000000000000000000000008152508261245490919063ffffffff16565b611d49835f01516002811115611d3a57611d39613e83565b5b8261247c90919063ffffffff16565b611d916040518060400160405280600881526020017f6c616e67756167650000000000000000000000000000000000000000000000008152508261245490919063ffffffff16565b611db983604001515f811115611daa57611da9613e83565b5b8261247c90919063ffffffff16565b611e016040518060400160405280600681526020017f736f7572636500000000000000000000000000000000000000000000000000008152508261245490919063ffffffff16565b611e1883606001518261245490919063ffffffff16565b5f8360a00151511115611ecc57611e6d6040518060400160405280600481526020017f61726773000000000000000000000000000000000000000000000000000000008152508261245490919063ffffffff16565b611e76816124cb565b5f5b8360a0015151811015611ec157611eb68460a001518281518110611e9f57611e9e613e26565b5b60200260200101518361245490919063ffffffff16565b806001019050611e78565b50611ecb816124f3565b5b5f836080015151111561200b575f6002811115611eec57611eeb613e83565b5b83602001516002811115611f0357611f02613e83565b5b03611f3a576040517fa80d31f700000000000000000000000000000000000000000000000000000000815260040160405180910390fd5b611f826040518060400160405280600f81526020017f736563726574734c6f636174696f6e00000000000000000000000000000000008152508261245490919063ffffffff16565b611fab83602001516002811115611f9c57611f9b613e83565b5b8261247c90919063ffffffff16565b611ff36040518060400160405280600781526020017f73656372657473000000000000000000000000000000000000000000000000008152508261245490919063ffffffff16565b61200a83608001518261251b90919063ffffffff16565b5b5f8360c001515111156120bf576120606040518060400160405280600981526020017f62797465734172677300000000000000000000000000000000000000000000008152508261245490919063ffffffff16565b612069816124cb565b5f5b8360c00151518110156120b4576120a98460c00151828151811061209257612091613e26565b5b60200260200101518361251b90919063ffffffff16565b80600101905061206b565b506120be816124f3565b5b805f01515f0151915050919050565b5f807f000000000000000000000000000000000000000000000000000000000000000073ffffffffffffffffffffffffffffffffffffffff1663461d27628688600188886040518663ffffffff1660e01b8152600401612132959493929190613eff565b6020604051808303815f875af115801561214e573d5f803e3d5ffd5b505050506040513d601f19601f820116820180604052508101906121729190613f6b565b9050807f1131472297a800fee664d1d89cfa8f7676ff07189ecc53f80bbb5f4969099db860405160405180910390a280915050949350505050565b5f8054906101000a900473ffffffffffffffffffffffffffffffffffffffff1673ffffffffffffffffffffffffffffffffffffffff163373ffffffffffffffffffffffffffffffffffffffff161461223a576040517f08c379a000000000000000000000000000000000000000000000000000000000815260040161223190613fe0565b60405180910390fd5b565b6060604051806101e001604052806101a981526020016141e06101a99139905090565b3373ffffffffffffffffffffffffffffffffffffffff168173ffffffffffffffffffffffffffffffffffffffff16036122cd576040517f08c379a00000000000000000000000000000000000000000000000000000000081526004016122c490614048565b60405180910390fd5b8060015f6101000a81548173ffffffffffffffffffffffffffffffffffffffff021916908373ffffffffffffffffffffffffffffffffffffffff1602179055508073ffffffffffffffffffffffffffffffffffffffff165f8054906101000a900473ffffffffffffffffffffffffffffffffffffffff1673ffffffffffffffffffffffffffffffffffffffff167fed8889f560326eb138920d842192f0eb3dd22b4f139c87a2c57538e05bae127860405160405180910390a350565b5f8151036123c3576040517f22ce3edd00000000000000000000000000000000000000000000000000000000815260040160405180910390fd5b82845f019060028111156123da576123d9613e83565b5b908160028111156123ee576123ed613e83565b5b815250508184604001905f81111561240957612408613e83565b5b90815f81111561241c5761241b613e83565b5b8152505080846060018190525050505050565b612437612a35565b612444815f015183612543565b505f816020018181525050919050565b61246182600383516125b9565b61247781835f015161275990919063ffffffff16565b505050565b61249d60026005600660ff16901b17835f015161277590919063ffffffff16565b506124c782826040516020016124b391906130cc565b60405160208183030381529060405261251b565b5050565b6124d68160046127dc565b6001816020018181516124e99190613a92565b9150818152505050565b6124fe8160076127dc565b6001816020018181516125119190613aec565b9150818152505050565b61252882600283516125b9565b61253e81835f015161275990919063ffffffff16565b505050565b61254b612a54565b5f6020836125599190613e53565b146125855760208261256b9190613e53565b60206125779190613aec565b826125829190613a92565b91505b818360200181815250506040518084525f8152828101602001818110156125aa575f80fd5b80604052505082905092915050565b60178167ffffffffffffffff16116125f3576125ed8160058460ff16901b60ff1617845f015161277590919063ffffffff16565b50612754565b60ff8167ffffffffffffffff161161264f57612625601860058460ff16901b17845f015161277590919063ffffffff16565b506126498167ffffffffffffffff166001855f01516128019092919063ffffffff16565b50612753565b61ffff8167ffffffffffffffff16116126ac57612682601960058460ff16901b17845f015161277590919063ffffffff16565b506126a68167ffffffffffffffff166002855f01516128019092919063ffffffff16565b50612752565b63ffffffff8167ffffffffffffffff161161270b576126e1601a60058460ff16901b17845f015161277590919063ffffffff16565b506127058167ffffffffffffffff166004855f01516128019092919063ffffffff16565b50612751565b61272b601b60058460ff16901b17845f015161277590919063ffffffff16565b5061274f8167ffffffffffffffff166008855f01516128019092919063ffffffff16565b505b5b5b5b505050565b612761612a54565b61276d8383845161288a565b905092915050565b61277d612a54565b5f835f01515190505f6001826127939190613a92565b9050846020015182106127b7576127b6856002836127b19190613965565b612967565b5b845160208382010185815381518311156127cf578282525b5050849250505092915050565b6127fc601f60058360ff16901b17835f015161277590919063ffffffff16565b505050565b612809612a54565b5f845f01515190505f818461281e9190613a92565b90508560200151811115612843576128428660028361283d9190613965565b612967565b5b5f6001856101006128549190614195565b61285e9190613aec565b90508651828101878319825116178152815184111561287b578382525b50508693505050509392505050565b612892612a54565b825182111561289f575f80fd5b5f845f01515190505f83826128b49190613a92565b905085602001518111156128d9576128d8866002836128d39190613965565b612967565b5b5f80875180518560208301019350808511156128f3578482525b60208901925050505b6020861061293a57805182526020826129159190613a92565b91506020816129249190613a92565b90506020866129339190613aec565b95506128fc565b5f6001876020036101000a0390508019825116818451168181178552505050879450505050509392505050565b5f825f015190506129788383612543565b506129838382612759565b50505050565b6040518060e001604052805f60028111156129a7576129a6613e83565b5b81526020015f60028111156129bf576129be613e83565b5b81526020015f808111156129d6576129d5613e83565b5b8152602001606081526020016060815260200160608152602001606081525090565b508054612a049061363d565b5f825580601f10612a155750612a32565b601f0160209004905f5260205f2090810190612a319190612a6d565b5b50565b6040518060400160405280612a48612a54565b81526020015f81525090565b6040518060400160405280606081526020015f81525090565b5b80821115612a84575f815f905550600101612a6e565b5090565b5f604051905090565b5f80fd5b5f80fd5b5f819050919050565b612aab81612a99565b8114612ab5575f80fd5b50565b5f81359050612ac681612aa2565b92915050565b5f80fd5b5f80fd5b5f601f19601f8301169050919050565b7f4e487b71000000000000000000000000000000000000000000000000000000005f52604160045260245ffd5b612b1a82612ad4565b810181811067ffffffffffffffff82111715612b3957612b38612ae4565b5b80604052505050565b5f612b4b612a88565b9050612b578282612b11565b919050565b5f67ffffffffffffffff821115612b7657612b75612ae4565b5b612b7f82612ad4565b9050602081019050919050565b828183375f83830152505050565b5f612bac612ba784612b5c565b612b42565b905082815260208101848484011115612bc857612bc7612ad0565b5b612bd3848285612b8c565b509392505050565b5f82601f830112612bef57612bee612acc565b5b8135612bff848260208601612b9a565b91505092915050565b5f805f60608486031215612c1f57612c1e612a91565b5b5f612c2c86828701612ab8565b935050602084013567ffffffffffffffff811115612c4d57612c4c612a95565b5b612c5986828701612bdb565b925050604084013567ffffffffffffffff811115612c7a57612c79612a95565b5b612c8686828701612bdb565b9150509250925092565b5f819050919050565b612ca281612c90565b8114612cac575f80fd5b50565b5f81359050612cbd81612c99565b92915050565b5f80fd5b5f80fd5b5f8083601f840112612ce057612cdf612acc565b5b8235905067ffffffffffffffff811115612cfd57612cfc612cc3565b5b602083019150836020820283011115612d1957612d18612cc7565b5b9250929050565b5f805f60408486031215612d3757612d36612a91565b5b5f612d4486828701612caf565b935050602084013567ffffffffffffffff811115612d6557612d64612a95565b5b612d7186828701612ccb565b92509250509250925092565b5f8083601f840112612d9257612d91612acc565b5b8235905067ffffffffffffffff811115612daf57612dae612cc3565b5b602083019150836020820283011115612dcb57612dca612cc7565b5b9250929050565b5f8060208385031215612de857612de7612a91565b5b5f83013567ffffffffffffffff811115612e0557612e04612a95565b5b612e1185828601612d7d565b92509250509250929050565b5f73ffffffffffffffffffffffffffffffffffffffff82169050919050565b5f612e4682612e1d565b9050919050565b612e5681612e3c565b8114612e60575f80fd5b50565b5f81359050612e7181612e4d565b92915050565b5f60208284031215612e8c57612e8b612a91565b5b5f612e9984828501612e63565b91505092915050565b612eab81612c90565b82525050565b5f60ff82169050919050565b612ec681612eb1565b82525050565b5f81519050919050565b5f82825260208201905092915050565b8281835e5f83830152505050565b5f612efe82612ecc565b612f088185612ed6565b9350612f18818560208601612ee6565b612f2181612ad4565b840191505092915050565b5f8115159050919050565b612f4081612f2c565b82525050565b5f60c082019050612f595f830189612ea2565b612f666020830188612ea2565b612f736040830187612ea2565b612f806060830186612ebd565b8181036080830152612f928185612ef4565b9050612fa160a0830184612f37565b979650505050505050565b5f8083601f840112612fc157612fc0612acc565b5b8235905067ffffffffffffffff811115612fde57612fdd612cc3565b5b602083019150836001820283011115612ffa57612ff9612cc7565b5b9250929050565b5f806020838503121561301757613016612a91565b5b5f83013567ffffffffffffffff81111561303457613033612a95565b5b61304085828601612fac565b92509250509250929050565b5f81519050919050565b5f82825260208201905092915050565b5f6130708261304c565b61307a8185613056565b935061308a818560208601612ee6565b61309381612ad4565b840191505092915050565b5f6040820190506130b15f830185612f37565b81810360208301526130c38184613066565b90509392505050565b5f6020820190506130df5f830184612ea2565b92915050565b5f602082840312156130fa576130f9612a91565b5b5f61310784828501612caf565b91505092915050565b61311981612e3c565b82525050565b5f6020820190506131325f830184613110565b92915050565b5f819050919050565b5f61315b61315661315184612e1d565b613138565b612e1d565b9050919050565b5f61316c82613141565b9050919050565b5f61317d82613162565b9050919050565b61318d81613173565b82525050565b5f6020820190506131a65f830184613184565b92915050565b5f6131b682613162565b9050919050565b6131c6816131ac565b82525050565b5f6020820190506131df5f8301846131bd565b92915050565b6131ee81612eb1565b81146131f8575f80fd5b50565b5f81359050613209816131e5565b92915050565b5f6020828403121561322457613223612a91565b5b5f613231848285016131fb565b91505092915050565b7f4e6f206163746976652073657373696f6e0000000000000000000000000000005f82015250565b5f61326e601183612ed6565b91506132798261323a565b602082019050919050565b5f6020820190508181035f83015261329b81613262565b9050919050565b6132ab81612a99565b82525050565b6132ba81612c90565b82525050565b5f61ffff82169050919050565b6132d6816132c0565b82525050565b5f63ffffffff82169050919050565b6132f4816132dc565b82525050565b5f82825260208201905092915050565b5f6133148261304c565b61331e81856132fa565b935061332e818560208601612ee6565b61333781612ad4565b840191505092915050565b5f60c083015f8301516133575f8601826132a2565b50602083015161336a60208601826132b1565b50604083015161337d60408601826132cd565b50606083015161339060608601826132eb565b5060808301516133a360808601826132eb565b5060a083015184820360a08601526133bb828261330a565b9150508091505092915050565b5f6020820190508181035f8301526133e08184613342565b905092915050565b5f815190506133f681612c99565b92915050565b5f6020828403121561341157613410612a91565b5b5f61341e848285016133e8565b91505092915050565b5f60408201905061343a5f830185613110565b6134476020830184613110565b9392505050565b7f4163746976652073657373696f6e2065786973747300000000000000000000005f82015250565b5f613482601583612ed6565b915061348d8261344e565b602082019050919050565b5f6020820190508181035f8301526134af81613476565b9050919050565b7f53656c656374203e3d203420646f6d61696e73000000000000000000000000005f82015250565b5f6134ea601383612ed6565b91506134f5826134b6565b602082019050919050565b5f6020820190508181035f830152613517816134de565b9050919050565b5f6060820190506135315f830186613110565b61353e6020830185613110565b61354b6040830184612ea2565b949350505050565b61355c81612f2c565b8114613566575f80fd5b50565b5f8151905061357781613553565b92915050565b5f6020828403121561359257613591612a91565b5b5f61359f84828501613569565b91505092915050565b7f5374616b65207472616e73666572206661696c656400000000000000000000005f82015250565b5f6135dc601583612ed6565b91506135e7826135a8565b602082019050919050565b5f6020820190508181035f830152613609816135d0565b9050919050565b7f4e487b71000000000000000000000000000000000000000000000000000000005f52602260045260245ffd5b5f600282049050600182168061365457607f821691505b60208210810361366757613666613610565b5b50919050565b5f819050815f5260205f209050919050565b5f6020601f8301049050919050565b5f82821b905092915050565b5f600883026136c97fffffffffffffffffffffffffffffffffffffffffffffffffffffffffffffffff8261368e565b6136d3868361368e565b95508019841693508086168417925050509392505050565b5f6137056137006136fb84612c90565b613138565b612c90565b9050919050565b5f819050919050565b61371e836136eb565b61373261372a8261370c565b84845461369a565b825550505050565b5f90565b61374661373a565b613751818484613715565b505050565b5b81811015613774576137695f8261373e565b600181019050613757565b5050565b601f8211156137b95761378a8161366d565b6137938461367f565b810160208510156137a2578190505b6137b66137ae8561367f565b830182613756565b50505b505050565b5f82821c905092915050565b5f6137d95f19846008026137be565b1980831691505092915050565b5f6137f183836137ca565b9150826002028217905092915050565b61380a82612ecc565b67ffffffffffffffff81111561382357613822612ae4565b5b61382d825461363d565b613838828285613778565b5f60209050601f831160018114613869575f8415613857578287015190505b61386185826137e6565b8655506138c8565b601f1984166138778661366d565b5f5b8281101561389e57848901518255600182019150602085019450602081019050613879565b868310156138bb57848901516138b7601f8916826137ca565b8355505b6001600288020188555050505b505050505050565b7f4e6f7420616c6c207175657374696f6e7320616e7377657265640000000000005f82015250565b5f613904601a83612ed6565b915061390f826138d0565b602082019050919050565b5f6020820190508181035f830152613931816138f8565b9050919050565b7f4e487b71000000000000000000000000000000000000000000000000000000005f52601160045260245ffd5b5f61396f82612c90565b915061397a83612c90565b925082820261398881612c90565b9150828204841483151761399f5761399e613938565b5b5092915050565b7f4e487b71000000000000000000000000000000000000000000000000000000005f52601260045260245ffd5b5f6139dd82612c90565b91506139e883612c90565b9250826139f8576139f76139a6565b5b828204905092915050565b5f604082019050613a165f830185613110565b613a236020830184612ea2565b9392505050565b7f526577617264207472616e73666572206661696c6564000000000000000000005f82015250565b5f613a5e601683612ed6565b9150613a6982613a2a565b602082019050919050565b5f6020820190508181035f830152613a8b81613a52565b9050919050565b5f613a9c82612c90565b9150613aa783612c90565b9250828201905080821115613abf57613abe613938565b5b92915050565b5f604082019050613ad85f830185612ebd565b613ae56020830184612ea2565b9392505050565b5f613af682612c90565b9150613b0183612c90565b9250828203905081811115613b1957613b18613938565b5b92915050565b7f4d7573742062652070726f706f736564206f776e6572000000000000000000005f82015250565b5f613b53601683612ed6565b9150613b5e82613b1f565b602082019050919050565b5f6020820190508181035f830152613b8081613b47565b9050919050565b5f606082019050613b9a5f830186613110565b613ba76020830185613110565b613bb46040830184613110565b949350505050565b7f5175697a207374696c6c20696e2070726f6772657373000000000000000000005f82015250565b5f613bf0601683612ed6565b9150613bfb82613bbc565b602082019050919050565b5f6020820190508181035f830152613c1d81613be4565b9050919050565b7f526566756e64207472616e73666572206661696c6564000000000000000000005f82015250565b5f613c58601683612ed6565b9150613c6382613c24565b602082019050919050565b5f6020820190508181035f830152613c8581613c4c565b9050919050565b7f5175697a20636f6d706c657465640000000000000000000000000000000000005f82015250565b5f613cc0600e83612ed6565b9150613ccb82613c8c565b602082019050919050565b5f6020820190508181035f830152613ced81613cb4565b9050919050565b7f54696d65206578706972656400000000000000000000000000000000000000005f82015250565b5f613d28600c83612ed6565b9150613d3382613cf4565b602082019050919050565b5f6020820190508181035f830152613d5581613d1c565b9050919050565b613d6581612f2c565b82525050565b602082015f820151613d7f5f850182613d5c565b50505050565b5f602082019050613d985f830184613d6b565b92915050565b5f6020820190508181035f830152613db68184612ef4565b905092915050565b7f556e6b6e6f776e205652462072657175657374000000000000000000000000005f82015250565b5f613df2601383612ed6565b9150613dfd82613dbe565b602082019050919050565b5f6020820190508181035f830152613e1f81613de6565b9050919050565b7f4e487b71000000000000000000000000000000000000000000000000000000005f52603260045260245ffd5b5f613e5d82612c90565b9150613e6883612c90565b925082613e7857613e776139a6565b5b828206905092915050565b7f4e487b71000000000000000000000000000000000000000000000000000000005f52602160045260245ffd5b5f67ffffffffffffffff82169050919050565b613ecc81613eb0565b82525050565b613edb816132c0565b82525050565b613eea816132dc565b82525050565b613ef981612a99565b82525050565b5f60a082019050613f125f830188613ec3565b8181036020830152613f248187613066565b9050613f336040830186613ed2565b613f406060830185613ee1565b613f4d6080830184613ef0565b9695505050505050565b5f81519050613f6581612aa2565b92915050565b5f60208284031215613f8057613f7f612a91565b5b5f613f8d84828501613f57565b91505092915050565b7f4f6e6c792063616c6c61626c65206279206f776e6572000000000000000000005f82015250565b5f613fca601683612ed6565b9150613fd582613f96565b602082019050919050565b5f6020820190508181035f830152613ff781613fbe565b9050919050565b7f43616e6e6f74207472616e7366657220746f2073656c660000000000000000005f82015250565b5f614032601783612ed6565b915061403d82613ffe565b602082019050919050565b5f6020820190508181035f83015261405f81614026565b9050919050565b5f8160011c9050919050565b5f808291508390505b60018511156140bb5780860481111561409757614096613938565b5b60018516156140a65780820291505b80810290506140b485614066565b945061407b565b94509492505050565b5f826140d3576001905061418e565b816140e0575f905061418e565b81600181146140f657600281146141005761412f565b600191505061418e565b60ff84111561411257614111613938565b5b8360020a91508482111561412957614128613938565b5b5061418e565b5060208310610133831016604e8410600b84101617156141645782820a90508381111561415f5761415e613938565b5b61418e565b6141718484846001614072565b9250905081840481111561418857614187613938565b5b81810290505b9392505050565b5f61419f82612c90565b91506141aa83612c90565b92506141d77fffffffffffffffffffffffffffffffffffffffffffffffffffffffffffffffff84846140c4565b90509291505056fe636f6e73742075726c203d2060247b617267735b335d7d2f766572696679416e73776572603b0a636f6e7374207061796c6f6164203d204a534f4e2e737472696e67696679287b207175697a49643a20617267735b305d2c207175657374696f6e49643a20617267735b315d2c2073656c6563746564496e6465783a207061727365496e7428617267735b325d29207d293b0a636f6e737420726573203d2061776169742046756e6374696f6e732e6d616b654874747052657175657374287b0a202075726c2c206d6574686f643a2027504f5354272c20686561646572733a207b2027436f6e74656e742d54797065273a20276170706c69636174696f6e2f6a736f6e27207d2c20646174613a207061796c6f61640a7d293b0a6966287265732e6572726f7229207b207468726f77204572726f72287265732e6572726f722e6d657373616765293b207d0a636f6e7374206973436f7272656374203d207265732e646174612e6973436f7272656374203f20273127203a202730273b0a72657475726e2046756e6374696f6e732e656e636f6465537472696e67286973436f7272656374293b0a636f6e73742075726c203d2060247b617267735b325d7d2f67656e65726174655175697a603b0a636f6e7374207061796c6f6164203d204a534f4e2e737472696e67696679287b20646f6d61696e733a204a534f4e2e706172736528617267735b305d292c20706c61796572416464726573733a20617267735b315d207d293b0a636f6e737420726573203d2061776169742046756e6374696f6e732e6d616b654874747052657175657374287b0a202075726c2c206d6574686f643a2027504f5354272c20686561646572733a207b2027436f6e74656e742d54797065273a20276170706c69636174696f6e2f6a736f6e27207d2c20646174613a207061796c6f61640a7d293b0a6966287265732e6572726f7229207b207468726f77204572726f72287265732e6572726f722e6d657373616765293b207d0a636f6e7374207175697a4964203d207265732e646174612e7175697a49643b0a72657475726e2046756e6374696f6e732e656e636f6465537472696e67287175697a4964293b0aa26469706673582212209f9437da07d17f2dbe35148e7bde5f2adb236a2675ec40cee664eb77c5fd9c1064736f6c63430008190033",
			"opcodes": "PUSH1 0xC0 PUSH1 0x40 MSTORE CALLVALUE DUP1 ISZERO PUSH2 0xF JUMPI PUSH0 DUP1 REVERT JUMPDEST POP PUSH20 0x2ED832BA664535E5886B75D64C46EB9A228C2610 CALLER DUP1 PUSH0 PUSH20 0xF9B8FC078197181C841C296C876945AAA425B278 DUP1 PUSH20 0xFFFFFFFFFFFFFFFFFFFFFFFFFFFFFFFFFFFFFFFF AND PUSH1 0x80 DUP2 PUSH20 0xFFFFFFFFFFFFFFFFFFFFFFFFFFFFFFFFFFFFFFFF AND DUP2 MSTORE POP POP POP PUSH0 PUSH20 0xFFFFFFFFFFFFFFFFFFFFFFFFFFFFFFFFFFFFFFFF AND DUP3 PUSH20 0xFFFFFFFFFFFFFFFFFFFFFFFFFFFFFFFFFFFFFFFF AND SUB PUSH2 0xE0 JUMPI PUSH1 0x40 MLOAD PUSH32 0x8C379A000000000000000000000000000000000000000000000000000000000 DUP2 MSTORE PUSH1 0x4 ADD PUSH2 0xD7 SWAP1 PUSH2 0x3EC JUMP JUMPDEST PUSH1 0x40 MLOAD DUP1 SWAP2 SUB SWAP1 REVERT JUMPDEST DUP2 PUSH0 DUP1 PUSH2 0x100 EXP DUP2 SLOAD DUP2 PUSH20 0xFFFFFFFFFFFFFFFFFFFFFFFFFFFFFFFFFFFFFFFF MUL NOT AND SWAP1 DUP4 PUSH20 0xFFFFFFFFFFFFFFFFFFFFFFFFFFFFFFFFFFFFFFFF AND MUL OR SWAP1 SSTORE POP PUSH0 PUSH20 0xFFFFFFFFFFFFFFFFFFFFFFFFFFFFFFFFFFFFFFFF AND DUP2 PUSH20 0xFFFFFFFFFFFFFFFFFFFFFFFFFFFFFFFFFFFFFFFF AND EQ PUSH2 0x162 JUMPI PUSH2 0x161 DUP2 PUSH2 0x268 PUSH1 0x20 SHL PUSH1 0x20 SHR JUMP JUMPDEST JUMPDEST POP POP POP PUSH0 PUSH20 0xFFFFFFFFFFFFFFFFFFFFFFFFFFFFFFFFFFFFFFFF AND DUP2 PUSH20 0xFFFFFFFFFFFFFFFFFFFFFFFFFFFFFFFFFFFFFFFF AND SUB PUSH2 0x1CA JUMPI PUSH1 0x40 MLOAD PUSH32 0xD92E233D00000000000000000000000000000000000000000000000000000000 DUP2 MSTORE PUSH1 0x4 ADD PUSH1 0x40 MLOAD DUP1 SWAP2 SUB SWAP1 REVERT JUMPDEST DUP1 PUSH1 0x2 PUSH0 PUSH2 0x100 EXP DUP2 SLOAD DUP2 PUSH20 0xFFFFFFFFFFFFFFFFFFFFFFFFFFFFFFFFFFFFFFFF MUL NOT AND SWAP1 DUP4 PUSH20 0xFFFFFFFFFFFFFFFFFFFFFFFFFFFFFFFFFFFFFFFF AND MUL OR SWAP1 SSTORE POP POP PUSH20 0x71F517833CF8C8A88F18C53CA9B1CEED34CADC6D PUSH20 0xFFFFFFFFFFFFFFFFFFFFFFFFFFFFFFFFFFFFFFFF AND PUSH1 0xA0 DUP2 PUSH20 0xFFFFFFFFFFFFFFFFFFFFFFFFFFFFFFFFFFFFFFFF AND DUP2 MSTORE POP POP TIMESTAMP PUSH1 0x7 DUP2 SWAP1 SSTORE POP PUSH2 0xE10 PUSH1 0x8 DUP2 SWAP1 SSTORE POP PUSH2 0x472 JUMP JUMPDEST CALLER PUSH20 0xFFFFFFFFFFFFFFFFFFFFFFFFFFFFFFFFFFFFFFFF AND DUP2 PUSH20 0xFFFFFFFFFFFFFFFFFFFFFFFFFFFFFFFFFFFFFFFF AND SUB PUSH2 0x2D6 JUMPI PUSH1 0x40 MLOAD PUSH32 0x8C379A000000000000000000000000000000000000000000000000000000000 DUP2 MSTORE PUSH1 0x4 ADD PUSH2 0x2CD SWAP1 PUSH2 0x454 JUMP JUMPDEST PUSH1 0x40 MLOAD DUP1 SWAP2 SUB SWAP1 REVERT JUMPDEST DUP1 PUSH1 0x1 PUSH0 PUSH2 0x100 EXP DUP2 SLOAD DUP2 PUSH20 0xFFFFFFFFFFFFFFFFFFFFFFFFFFFFFFFFFFFFFFFF MUL NOT AND SWAP1 DUP4 PUSH20 0xFFFFFFFFFFFFFFFFFFFFFFFFFFFFFFFFFFFFFFFF AND MUL OR SWAP1 SSTORE POP DUP1 PUSH20 0xFFFFFFFFFFFFFFFFFFFFFFFFFFFFFFFFFFFFFFFF AND PUSH0 DUP1 SLOAD SWAP1 PUSH2 0x100 EXP SWAP1 DIV PUSH20 0xFFFFFFFFFFFFFFFFFFFFFFFFFFFFFFFFFFFFFFFF AND PUSH20 0xFFFFFFFFFFFFFFFFFFFFFFFFFFFFFFFFFFFFFFFF AND PUSH32 0xED8889F560326EB138920D842192F0EB3DD22B4F139C87A2C57538E05BAE1278 PUSH1 0x40 MLOAD PUSH1 0x40 MLOAD DUP1 SWAP2 SUB SWAP1 LOG3 POP JUMP JUMPDEST PUSH0 DUP3 DUP3 MSTORE PUSH1 0x20 DUP3 ADD SWAP1 POP SWAP3 SWAP2 POP POP JUMP JUMPDEST PUSH32 0x43616E6E6F7420736574206F776E657220746F207A65726F0000000000000000 PUSH0 DUP3 ADD MSTORE POP JUMP JUMPDEST PUSH0 PUSH2 0x3D6 PUSH1 0x18 DUP4 PUSH2 0x392 JUMP JUMPDEST SWAP2 POP PUSH2 0x3E1 DUP3 PUSH2 0x3A2 JUMP JUMPDEST PUSH1 0x20 DUP3 ADD SWAP1 POP SWAP2 SWAP1 POP JUMP JUMPDEST PUSH0 PUSH1 0x20 DUP3 ADD SWAP1 POP DUP2 DUP2 SUB PUSH0 DUP4 ADD MSTORE PUSH2 0x403 DUP2 PUSH2 0x3CA JUMP JUMPDEST SWAP1 POP SWAP2 SWAP1 POP JUMP JUMPDEST PUSH32 0x43616E6E6F74207472616E7366657220746F2073656C66000000000000000000 PUSH0 DUP3 ADD MSTORE POP JUMP JUMPDEST PUSH0 PUSH2 0x43E PUSH1 0x17 DUP4 PUSH2 0x392 JUMP JUMPDEST SWAP2 POP PUSH2 0x449 DUP3 PUSH2 0x40A JUMP JUMPDEST PUSH1 0x20 DUP3 ADD SWAP1 POP SWAP2 SWAP1 POP JUMP JUMPDEST PUSH0 PUSH1 0x20 DUP3 ADD SWAP1 POP DUP2 DUP2 SUB PUSH0 DUP4 ADD MSTORE PUSH2 0x46B DUP2 PUSH2 0x432 JUMP JUMPDEST SWAP1 POP SWAP2 SWAP1 POP JUMP JUMPDEST PUSH1 0x80 MLOAD PUSH1 0xA0 MLOAD PUSH2 0x4540 PUSH2 0x4AF PUSH0 CODECOPY PUSH0 DUP2 DUP2 PUSH2 0x84E ADD MSTORE DUP2 DUP2 PUSH2 0xC4C ADD MSTORE DUP2 DUP2 PUSH2 0x144D ADD MSTORE PUSH2 0x15F4 ADD MSTORE PUSH0 DUP2 DUP2 PUSH2 0x5EF ADD MSTORE PUSH2 0x20D2 ADD MSTORE PUSH2 0x4540 PUSH0 RETURN INVALID PUSH1 0x80 PUSH1 0x40 MSTORE CALLVALUE DUP1 ISZERO PUSH2 0xF JUMPI PUSH0 DUP1 REVERT JUMPDEST POP PUSH1 0x4 CALLDATASIZE LT PUSH2 0x135 JUMPI PUSH0 CALLDATALOAD PUSH1 0xE0 SHR DUP1 PUSH4 0x79BA5097 GT PUSH2 0xB6 JUMPI DUP1 PUSH4 0xB55F108F GT PUSH2 0x7A JUMPI DUP1 PUSH4 0xB55F108F EQ PUSH2 0x2EF JUMPI DUP1 PUSH4 0xB68E71BF EQ PUSH2 0x31F JUMPI DUP1 PUSH4 0xC320C1B9 EQ PUSH2 0x33D JUMPI DUP1 PUSH4 0xEC4FD914 EQ PUSH2 0x347 JUMPI DUP1 PUSH4 0xF2FDE38B EQ PUSH2 0x363 JUMPI DUP1 PUSH4 0xFD2C80AE EQ PUSH2 0x37F JUMPI PUSH2 0x135 JUMP JUMPDEST DUP1 PUSH4 0x79BA5097 EQ PUSH2 0x26F JUMPI DUP1 PUSH4 0x8DA5CB5B EQ PUSH2 0x279 JUMPI DUP1 PUSH4 0x8EA98117 EQ PUSH2 0x297 JUMPI DUP1 PUSH4 0x9ECCACF6 EQ PUSH2 0x2B3 JUMPI DUP1 PUSH4 0xA2462712 EQ PUSH2 0x2D1 JUMPI PUSH2 0x135 JUMP JUMPDEST DUP1 PUSH4 0x431A1B97 GT PUSH2 0xFD JUMPI DUP1 PUSH4 0x431A1B97 EQ PUSH2 0x1A1 JUMPI DUP1 PUSH4 0x4585E33B EQ PUSH2 0x1D6 JUMPI DUP1 PUSH4 0x6E04FF0D EQ PUSH2 0x1F2 JUMPI DUP1 PUSH4 0x6E56A8E7 EQ PUSH2 0x223 JUMPI DUP1 PUSH4 0x7124C683 EQ PUSH2 0x253 JUMPI PUSH2 0x135 JUMP JUMPDEST DUP1 PUSH4 0x2302025 EQ PUSH2 0x139 JUMPI DUP1 PUSH4 0xCA76175 EQ PUSH2 0x143 JUMPI DUP1 PUSH4 0x1FE543E3 EQ PUSH2 0x15F JUMPI DUP1 PUSH4 0x2AC87AA6 EQ PUSH2 0x17B JUMPI DUP1 PUSH4 0x330D99D4 EQ PUSH2 0x197 JUMPI JUMPDEST PUSH0 DUP1 REVERT JUMPDEST PUSH2 0x141 PUSH2 0x39D JUMP JUMPDEST STOP JUMPDEST PUSH2 0x15D PUSH1 0x4 DUP1 CALLDATASIZE SUB DUP2 ADD SWAP1 PUSH2 0x158 SWAP2 SWAP1 PUSH2 0x2C08 JUMP JUMPDEST PUSH2 0x5ED JUMP JUMPDEST STOP JUMPDEST PUSH2 0x179 PUSH1 0x4 DUP1 CALLDATASIZE SUB DUP2 ADD SWAP1 PUSH2 0x174 SWAP2 SWAP1 PUSH2 0x2D20 JUMP JUMPDEST PUSH2 0x6AF JUMP JUMPDEST STOP JUMPDEST PUSH2 0x195 PUSH1 0x4 DUP1 CALLDATASIZE SUB DUP2 ADD SWAP1 PUSH2 0x190 SWAP2 SWAP1 PUSH2 0x2DD2 JUMP JUMPDEST PUSH2 0x773 JUMP JUMPDEST STOP JUMPDEST PUSH2 0x19F PUSH2 0xB38 JUMP JUMPDEST STOP JUMPDEST PUSH2 0x1BB PUSH1 0x4 DUP1 CALLDATASIZE SUB DUP2 ADD SWAP1 PUSH2 0x1B6 SWAP2 SWAP1 PUSH2 0x2E77 JUMP JUMPDEST PUSH2 0xE8B JUMP JUMPDEST PUSH1 0x40 MLOAD PUSH2 0x1CD SWAP7 SWAP6 SWAP5 SWAP4 SWAP3 SWAP2 SWAP1 PUSH2 0x2F46 JUMP JUMPDEST PUSH1 0x40 MLOAD DUP1 SWAP2 SUB SWAP1 RETURN JUMPDEST PUSH2 0x1F0 PUSH1 0x4 DUP1 CALLDATASIZE SUB DUP2 ADD SWAP1 PUSH2 0x1EB SWAP2 SWAP1 PUSH2 0x3001 JUMP JUMPDEST PUSH2 0xF61 JUMP JUMPDEST STOP JUMPDEST PUSH2 0x20C PUSH1 0x4 DUP1 CALLDATASIZE SUB DUP2 ADD SWAP1 PUSH2 0x207 SWAP2 SWAP1 PUSH2 0x3001 JUMP JUMPDEST PUSH2 0xFBB JUMP JUMPDEST PUSH1 0x40 MLOAD PUSH2 0x21A SWAP3 SWAP2 SWAP1 PUSH2 0x309E JUMP JUMPDEST PUSH1 0x40 MLOAD DUP1 SWAP2 SUB SWAP1 RETURN JUMPDEST PUSH2 0x23D PUSH1 0x4 DUP1 CALLDATASIZE SUB DUP2 ADD SWAP1 PUSH2 0x238 SWAP2 SWAP1 PUSH2 0x2E77 JUMP JUMPDEST PUSH2 0xFF4 JUMP JUMPDEST PUSH1 0x40 MLOAD PUSH2 0x24A SWAP2 SWAP1 PUSH2 0x30CC JUMP JUMPDEST PUSH1 0x40 MLOAD DUP1 SWAP2 SUB SWAP1 RETURN JUMPDEST PUSH2 0x26D PUSH1 0x4 DUP1 CALLDATASIZE SUB DUP2 ADD SWAP1 PUSH2 0x268 SWAP2 SWAP1 PUSH2 0x30E5 JUMP JUMPDEST PUSH2 0x1009 JUMP JUMPDEST STOP JUMPDEST PUSH2 0x277 PUSH2 0x1052 JUMP JUMPDEST STOP JUMPDEST PUSH2 0x281 PUSH2 0x11E1 JUMP JUMPDEST PUSH1 0x40 MLOAD PUSH2 0x28E SWAP2 SWAP1 PUSH2 0x311F JUMP JUMPDEST PUSH1 0x40 MLOAD DUP1 SWAP2 SUB SWAP1 RETURN JUMPDEST PUSH2 0x2B1 PUSH1 0x4 DUP1 CALLDATASIZE SUB DUP2 ADD SWAP1 PUSH2 0x2AC SWAP2 SWAP1 PUSH2 0x2E77 JUMP JUMPDEST PUSH2 0x1208 JUMP JUMPDEST STOP JUMPDEST PUSH2 0x2BB PUSH2 0x13E5 JUMP JUMPDEST PUSH1 0x40 MLOAD PUSH2 0x2C8 SWAP2 SWAP1 PUSH2 0x3193 JUMP JUMPDEST PUSH1 0x40 MLOAD DUP1 SWAP2 SUB SWAP1 RETURN JUMPDEST PUSH2 0x2D9 PUSH2 0x140A JUMP JUMPDEST PUSH1 0x40 MLOAD PUSH2 0x2E6 SWAP2 SWAP1 PUSH2 0x30CC JUMP JUMPDEST PUSH1 0x40 MLOAD DUP1 SWAP2 SUB SWAP1 RETURN JUMPDEST PUSH2 0x309 PUSH1 0x4 DUP1 CALLDATASIZE SUB DUP2 ADD SWAP1 PUSH2 0x304 SWAP2 SWAP1 PUSH2 0x30E5 JUMP JUMPDEST PUSH2 0x1410 JUMP JUMPDEST PUSH1 0x40 MLOAD PUSH2 0x316 SWAP2 SWAP1 PUSH2 0x311F JUMP JUMPDEST PUSH1 0x40 MLOAD DUP1 SWAP2 SUB SWAP1 RETURN JUMPDEST PUSH2 0x327 PUSH2 0x144B JUMP JUMPDEST PUSH1 0x40 MLOAD PUSH2 0x334 SWAP2 SWAP1 PUSH2 0x31CC JUMP JUMPDEST PUSH1 0x40 MLOAD DUP1 SWAP2 SUB SWAP1 RETURN JUMPDEST PUSH2 0x345 PUSH2 0x146F JUMP JUMPDEST STOP JUMPDEST PUSH2 0x361 PUSH1 0x4 DUP1 CALLDATASIZE SUB DUP2 ADD SWAP1 PUSH2 0x35C SWAP2 SWAP1 PUSH2 0x320F JUMP JUMPDEST PUSH2 0x1723 JUMP JUMPDEST STOP JUMPDEST PUSH2 0x37D PUSH1 0x4 DUP1 CALLDATASIZE SUB DUP2 ADD SWAP1 PUSH2 0x378 SWAP2 SWAP1 PUSH2 0x2E77 JUMP JUMPDEST PUSH2 0x1915 JUMP JUMPDEST STOP JUMPDEST PUSH2 0x387 PUSH2 0x1929 JUMP JUMPDEST PUSH1 0x40 MLOAD PUSH2 0x394 SWAP2 SWAP1 PUSH2 0x30CC JUMP JUMPDEST PUSH1 0x40 MLOAD DUP1 SWAP2 SUB SWAP1 RETURN JUMPDEST PUSH0 PUSH1 0x4 PUSH0 CALLER PUSH20 0xFFFFFFFFFFFFFFFFFFFFFFFFFFFFFFFFFFFFFFFF AND PUSH20 0xFFFFFFFFFFFFFFFFFFFFFFFFFFFFFFFFFFFFFFFF AND DUP2 MSTORE PUSH1 0x20 ADD SWAP1 DUP2 MSTORE PUSH1 0x20 ADD PUSH0 KECCAK256 SWAP1 POP DUP1 PUSH1 0x5 ADD PUSH0 SWAP1 SLOAD SWAP1 PUSH2 0x100 EXP SWAP1 DIV PUSH1 0xFF AND PUSH2 0x42D JUMPI PUSH1 0x40 MLOAD PUSH32 0x8C379A000000000000000000000000000000000000000000000000000000000 DUP2 MSTORE PUSH1 0x4 ADD PUSH2 0x424 SWAP1 PUSH2 0x3284 JUMP JUMPDEST PUSH1 0x40 MLOAD DUP1 SWAP2 SUB SWAP1 REVERT JUMPDEST PUSH0 PUSH1 0x40 MLOAD DUP1 PUSH1 0xC0 ADD PUSH1 0x40 MSTORE DUP1 PUSH32 0x354D2F95DA55398F44B7CFF77DA56283D9C6C829A4BDF1BBCAF2AD6A4D081F61 PUSH0 SHL DUP2 MSTORE PUSH1 0x20 ADD PUSH2 0x162E DUP2 MSTORE PUSH1 0x20 ADD PUSH1 0x3 PUSH2 0xFFFF AND DUP2 MSTORE PUSH1 0x20 ADD PUSH3 0x186A0 PUSH4 0xFFFFFFFF AND DUP2 MSTORE PUSH1 0x20 ADD PUSH1 0x1 PUSH4 0xFFFFFFFF AND DUP2 MSTORE PUSH1 0x20 ADD PUSH2 0x4A9 PUSH1 0x40 MLOAD DUP1 PUSH1 0x20 ADD PUSH1 0x40 MSTORE DUP1 PUSH0 ISZERO ISZERO DUP2 MSTORE POP PUSH2 0x192F JUMP JUMPDEST DUP2 MSTORE POP SWAP1 POP PUSH0 PUSH1 0x2 PUSH0 SWAP1 SLOAD SWAP1 PUSH2 0x100 EXP SWAP1 DIV PUSH20 0xFFFFFFFFFFFFFFFFFFFFFFFFFFFFFFFFFFFFFFFF AND PUSH20 0xFFFFFFFFFFFFFFFFFFFFFFFFFFFFFFFFFFFFFFFF AND PUSH4 0x9B1C385E DUP4 PUSH1 0x40 MLOAD DUP3 PUSH4 0xFFFFFFFF AND PUSH1 0xE0 SHL DUP2 MSTORE PUSH1 0x4 ADD PUSH2 0x509 SWAP2 SWAP1 PUSH2 0x33C8 JUMP JUMPDEST PUSH1 0x20 PUSH1 0x40 MLOAD DUP1 DUP4 SUB DUP2 PUSH0 DUP8 GAS CALL ISZERO DUP1 ISZERO PUSH2 0x525 JUMPI RETURNDATASIZE PUSH0 DUP1 RETURNDATACOPY RETURNDATASIZE PUSH0 REVERT JUMPDEST POP POP POP POP PUSH1 0x40 MLOAD RETURNDATASIZE PUSH1 0x1F NOT PUSH1 0x1F DUP3 ADD AND DUP3 ADD DUP1 PUSH1 0x40 MSTORE POP DUP2 ADD SWAP1 PUSH2 0x549 SWAP2 SWAP1 PUSH2 0x33FC JUMP JUMPDEST SWAP1 POP CALLER PUSH1 0x3 PUSH0 DUP4 DUP2 MSTORE PUSH1 0x20 ADD SWAP1 DUP2 MSTORE PUSH1 0x20 ADD PUSH0 KECCAK256 PUSH0 PUSH2 0x100 EXP DUP2 SLOAD DUP2 PUSH20 0xFFFFFFFFFFFFFFFFFFFFFFFFFFFFFFFFFFFFFFFF MUL NOT AND SWAP1 DUP4 PUSH20 0xFFFFFFFFFFFFFFFFFFFFFFFFFFFFFFFFFFFFFFFF AND MUL OR SWAP1 SSTORE POP CALLER PUSH20 0xFFFFFFFFFFFFFFFFFFFFFFFFFFFFFFFFFFFFFFFF AND PUSH32 0x1F48676F1AC676EA5E1390A1B533955B8384ED34C9A4BF20500E38D2E5719C86 DUP3 PUSH1 0x40 MLOAD PUSH2 0x5E0 SWAP2 SWAP1 PUSH2 0x30CC JUMP JUMPDEST PUSH1 0x40 MLOAD DUP1 SWAP2 SUB SWAP1 LOG2 POP POP POP JUMP JUMPDEST PUSH32 0x0 PUSH20 0xFFFFFFFFFFFFFFFFFFFFFFFFFFFFFFFFFFFFFFFF AND CALLER PUSH20 0xFFFFFFFFFFFFFFFFFFFFFFFFFFFFFFFFFFFFFFFF AND EQ PUSH2 0x672 JUMPI PUSH1 0x40 MLOAD PUSH32 0xC6829F8300000000000000000000000000000000000000000000000000000000 DUP2 MSTORE PUSH1 0x4 ADD PUSH1 0x40 MLOAD DUP1 SWAP2 SUB SWAP1 REVERT JUMPDEST PUSH2 0x67D DUP4 DUP4 DUP4 PUSH2 0x19C7 JUMP JUMPDEST DUP3 PUSH32 0x85E1543BF2F84FE80C6BADBCE3648C8539AD1DF4D2B3D822938CA0538BE727E6 PUSH1 0x40 MLOAD PUSH1 0x40 MLOAD DUP1 SWAP2 SUB SWAP1 LOG2 POP POP POP JUMP JUMPDEST PUSH1 0x2 PUSH0 SWAP1 SLOAD SWAP1 PUSH2 0x100 EXP SWAP1 DIV PUSH20 0xFFFFFFFFFFFFFFFFFFFFFFFFFFFFFFFFFFFFFFFF AND PUSH20 0xFFFFFFFFFFFFFFFFFFFFFFFFFFFFFFFFFFFFFFFF AND CALLER PUSH20 0xFFFFFFFFFFFFFFFFFFFFFFFFFFFFFFFFFFFFFFFF AND EQ PUSH2 0x763 JUMPI CALLER PUSH1 0x2 PUSH0 SWAP1 SLOAD SWAP1 PUSH2 0x100 EXP SWAP1 DIV PUSH20 0xFFFFFFFFFFFFFFFFFFFFFFFFFFFFFFFFFFFFFFFF AND PUSH1 0x40 MLOAD PUSH32 0x1CF993F400000000000000000000000000000000000000000000000000000000 DUP2 MSTORE PUSH1 0x4 ADD PUSH2 0x75A SWAP3 SWAP2 SWAP1 PUSH2 0x3427 JUMP JUMPDEST PUSH1 0x40 MLOAD DUP1 SWAP2 SUB SWAP1 REVERT JUMPDEST PUSH2 0x76E DUP4 DUP4 DUP4 PUSH2 0x1ACF JUMP JUMPDEST POP POP POP JUMP JUMPDEST PUSH0 PUSH1 0x4 PUSH0 CALLER PUSH20 0xFFFFFFFFFFFFFFFFFFFFFFFFFFFFFFFFFFFFFFFF AND PUSH20 0xFFFFFFFFFFFFFFFFFFFFFFFFFFFFFFFFFFFFFFFF AND DUP2 MSTORE PUSH1 0x20 ADD SWAP1 DUP2 MSTORE PUSH1 0x20 ADD PUSH0 KECCAK256 SWAP1 POP DUP1 PUSH1 0x5 ADD PUSH0 SWAP1 SLOAD SWAP1 PUSH2 0x100 EXP SWAP1 DIV PUSH1 0xFF AND ISZERO PUSH2 0x804 JUMPI PUSH1 0x40 MLOAD PUSH32 0x8C379A000000000000000000000000000000000000000000000000000000000 DUP2 MSTORE PUSH1 0x4 ADD PUSH2 0x7FB SWAP1 PUSH2 0x3498 JUMP JUMPDEST PUSH1 0x40 MLOAD DUP1 SWAP2 SUB SWAP1 REVERT JUMPDEST PUSH1 0x4 DUP4 DUP4 SWAP1 POP LT ISZERO PUSH2 0x84B JUMPI PUSH1 0x40 MLOAD PUSH32 0x8C379A000000000000000000000000000000000000000000000000000000000 DUP2 MSTORE PUSH1 0x4 ADD PUSH2 0x842 SWAP1 PUSH2 0x3500 JUMP JUMPDEST PUSH1 0x40 MLOAD DUP1 SWAP2 SUB SWAP1 REVERT JUMPDEST PUSH0 PUSH32 0x0 PUSH20 0xFFFFFFFFFFFFFFFFFFFFFFFFFFFFFFFFFFFFFFFF AND PUSH4 0x23B872DD CALLER ADDRESS PUSH8 0x8AC7230489E80000 PUSH1 0x40 MLOAD DUP5 PUSH4 0xFFFFFFFF AND PUSH1 0xE0 SHL DUP2 MSTORE PUSH1 0x4 ADD PUSH2 0x8B1 SWAP4 SWAP3 SWAP2 SWAP1 PUSH2 0x351E JUMP JUMPDEST PUSH1 0x20 PUSH1 0x40 MLOAD DUP1 DUP4 SUB DUP2 PUSH0 DUP8 GAS CALL ISZERO DUP1 ISZERO PUSH2 0x8CD JUMPI RETURNDATASIZE PUSH0 DUP1 RETURNDATACOPY RETURNDATASIZE PUSH0 REVERT JUMPDEST POP POP POP POP PUSH1 0x40 MLOAD RETURNDATASIZE PUSH1 0x1F NOT PUSH1 0x1F DUP3 ADD AND DUP3 ADD DUP1 PUSH1 0x40 MSTORE POP DUP2 ADD SWAP1 PUSH2 0x8F1 SWAP2 SWAP1 PUSH2 0x357D JUMP JUMPDEST SWAP1 POP DUP1 PUSH2 0x933 JUMPI PUSH1 0x40 MLOAD PUSH32 0x8C379A000000000000000000000000000000000000000000000000000000000 DUP2 MSTORE PUSH1 0x4 ADD PUSH2 0x92A SWAP1 PUSH2 0x35F2 JUMP JUMPDEST PUSH1 0x40 MLOAD DUP1 SWAP2 SUB SWAP1 REVERT JUMPDEST PUSH2 0x93B PUSH2 0x2989 JUMP JUMPDEST PUSH2 0x955 PUSH2 0x946 PUSH2 0x1C96 JUMP JUMPDEST DUP3 PUSH2 0x1CB9 SWAP1 SWAP2 SWAP1 PUSH4 0xFFFFFFFF AND JUMP JUMPDEST PUSH0 PUSH2 0x991 PUSH2 0x962 DUP4 PUSH2 0x1CC9 JUMP JUMPDEST PUSH2 0x4D2 PUSH3 0x493E0 PUSH32 0x66756E2D626173652D7365706F6C69612D310000000000000000000000000000 PUSH0 SHL PUSH2 0x20CE JUMP JUMPDEST SWAP1 POP PUSH1 0x40 MLOAD DUP1 PUSH1 0xC0 ADD PUSH1 0x40 MSTORE DUP1 PUSH0 DUP2 MSTORE PUSH1 0x20 ADD PUSH0 DUP2 MSTORE PUSH1 0x20 ADD PUSH8 0x8AC7230489E80000 DUP2 MSTORE PUSH1 0x20 ADD PUSH0 PUSH1 0xFF AND DUP2 MSTORE PUSH1 0x20 ADD PUSH1 0x40 MLOAD DUP1 PUSH1 0x20 ADD PUSH1 0x40 MSTORE DUP1 PUSH0 DUP2 MSTORE POP DUP2 MSTORE PUSH1 0x20 ADD PUSH1 0x1 ISZERO ISZERO DUP2 MSTORE POP PUSH1 0x4 PUSH0 CALLER PUSH20 0xFFFFFFFFFFFFFFFFFFFFFFFFFFFFFFFFFFFFFFFF AND PUSH20 0xFFFFFFFFFFFFFFFFFFFFFFFFFFFFFFFFFFFFFFFF AND DUP2 MSTORE PUSH1 0x20 ADD SWAP1 DUP2 MSTORE PUSH1 0x20 ADD PUSH0 KECCAK256 PUSH0 DUP3 ADD MLOAD DUP2 PUSH0 ADD SSTORE PUSH1 0x20 DUP3 ADD MLOAD DUP2 PUSH1 0x1 ADD SSTORE PUSH1 0x40 DUP3 ADD MLOAD DUP2 PUSH1 0x2 ADD SSTORE PUSH1 0x60 DUP3 ADD MLOAD DUP2 PUSH1 0x3 ADD PUSH0 PUSH2 0x100 EXP DUP2 SLOAD DUP2 PUSH1 0xFF MUL NOT AND SWAP1 DUP4 PUSH1 0xFF AND MUL OR SWAP1 SSTORE POP PUSH1 0x80 DUP3 ADD MLOAD DUP2 PUSH1 0x4 ADD SWAP1 DUP2 PUSH2 0xA6A SWAP2 SWAP1 PUSH2 0x3801 JUMP JUMPDEST POP PUSH1 0xA0 DUP3 ADD MLOAD DUP2 PUSH1 0x5 ADD PUSH0 PUSH2 0x100 EXP DUP2 SLOAD DUP2 PUSH1 0xFF MUL NOT AND SWAP1 DUP4 ISZERO ISZERO MUL OR SWAP1 SSTORE POP SWAP1 POP POP PUSH1 0x5 CALLER SWAP1 DUP1 PUSH1 0x1 DUP2 SLOAD ADD DUP1 DUP3 SSTORE DUP1 SWAP2 POP POP PUSH1 0x1 SWAP1 SUB SWAP1 PUSH0 MSTORE PUSH1 0x20 PUSH0 KECCAK256 ADD PUSH0 SWAP1 SWAP2 SWAP1 SWAP2 SWAP1 SWAP2 PUSH2 0x100 EXP DUP2 SLOAD DUP2 PUSH20 0xFFFFFFFFFFFFFFFFFFFFFFFFFFFFFFFFFFFFFFFF MUL NOT AND SWAP1 DUP4 PUSH20 0xFFFFFFFFFFFFFFFFFFFFFFFFFFFFFFFFFFFFFFFF AND MUL OR SWAP1 SSTORE POP DUP1 CALLER PUSH20 0xFFFFFFFFFFFFFFFFFFFFFFFFFFFFFFFFFFFFFFFF AND PUSH31 0x40A08FF8A2C8DE3747ADD6410EC4F7E6F2F1C30043E8DEE77F0ADAE00B3568 PUSH1 0x40 MLOAD PUSH1 0x40 MLOAD DUP1 SWAP2 SUB SWAP1 LOG3 POP POP POP POP POP POP JUMP JUMPDEST PUSH0 PUSH1 0x4 PUSH0 CALLER PUSH20 0xFFFFFFFFFFFFFFFFFFFFFFFFFFFFFFFFFFFFFFFF AND PUSH20 0xFFFFFFFFFFFFFFFFFFFFFFFFFFFFFFFFFFFFFFFF AND DUP2 MSTORE PUSH1 0x20 ADD SWAP1 DUP2 MSTORE PUSH1 0x20 ADD PUSH0 KECCAK256 SWAP1 POP DUP1 PUSH1 0x5 ADD PUSH0 SWAP1 SLOAD SWAP1 PUSH2 0x100 EXP SWAP1 DIV PUSH1 0xFF AND PUSH2 0xBC8 JUMPI PUSH1 0x40 MLOAD PUSH32 0x8C379A000000000000000000000000000000000000000000000000000000000 DUP2 MSTORE PUSH1 0x4 ADD PUSH2 0xBBF SWAP1 PUSH2 0x3284 JUMP JUMPDEST PUSH1 0x40 MLOAD DUP1 SWAP2 SUB SWAP1 REVERT JUMPDEST PUSH1 0xA DUP2 PUSH1 0x1 ADD SLOAD EQ PUSH2 0xC0F JUMPI PUSH1 0x40 MLOAD PUSH32 0x8C379A000000000000000000000000000000000000000000000000000000000 DUP2 MSTORE PUSH1 0x4 ADD PUSH2 0xC06 SWAP1 PUSH2 0x391A JUMP JUMPDEST PUSH1 0x40 MLOAD DUP1 SWAP2 SUB SWAP1 REVERT JUMPDEST PUSH0 PUSH1 0xA DUP3 PUSH1 0x3 ADD PUSH0 SWAP1 SLOAD SWAP1 PUSH2 0x100 EXP SWAP1 DIV PUSH1 0xFF AND PUSH1 0xFF AND DUP4 PUSH1 0x2 ADD SLOAD PUSH2 0xC35 SWAP2 SWAP1 PUSH2 0x3965 JUMP JUMPDEST PUSH2 0xC3F SWAP2 SWAP1 PUSH2 0x39D3 JUMP JUMPDEST SWAP1 POP PUSH0 DUP2 GT ISZERO PUSH2 0xD29 JUMPI PUSH0 PUSH32 0x0 PUSH20 0xFFFFFFFFFFFFFFFFFFFFFFFFFFFFFFFFFFFFFFFF AND PUSH4 0xA9059CBB CALLER DUP5 PUSH1 0x40 MLOAD DUP4 PUSH4 0xFFFFFFFF AND PUSH1 0xE0 SHL DUP2 MSTORE PUSH1 0x4 ADD PUSH2 0xCA5 SWAP3 SWAP2 SWAP1 PUSH2 0x3A03 JUMP JUMPDEST PUSH1 0x20 PUSH1 0x40 MLOAD DUP1 DUP4 SUB DUP2 PUSH0 DUP8 GAS CALL ISZERO DUP1 ISZERO PUSH2 0xCC1 JUMPI RETURNDATASIZE PUSH0 DUP1 RETURNDATACOPY RETURNDATASIZE PUSH0 REVERT JUMPDEST POP POP POP POP PUSH1 0x40 MLOAD RETURNDATASIZE PUSH1 0x1F NOT PUSH1 0x1F DUP3 ADD AND DUP3 ADD DUP1 PUSH1 0x40 MSTORE POP DUP2 ADD SWAP1 PUSH2 0xCE5 SWAP2 SWAP1 PUSH2 0x357D JUMP JUMPDEST SWAP1 POP DUP1 PUSH2 0xD27 JUMPI PUSH1 0x40 MLOAD PUSH32 0x8C379A000000000000000000000000000000000000000000000000000000000 DUP2 MSTORE PUSH1 0x4 ADD PUSH2 0xD1E SWAP1 PUSH2 0x3A74 JUMP JUMPDEST PUSH1 0x40 MLOAD DUP1 SWAP2 SUB SWAP1 REVERT JUMPDEST POP JUMPDEST DUP2 PUSH1 0x2 ADD SLOAD DUP3 PUSH1 0x3 ADD PUSH0 SWAP1 SLOAD SWAP1 PUSH2 0x100 EXP SWAP1 DIV PUSH1 0xFF AND PUSH1 0xFF AND PUSH2 0xD4C SWAP2 SWAP1 PUSH2 0x3965 JUMP JUMPDEST PUSH1 0x6 PUSH0 CALLER PUSH20 0xFFFFFFFFFFFFFFFFFFFFFFFFFFFFFFFFFFFFFFFF AND PUSH20 0xFFFFFFFFFFFFFFFFFFFFFFFFFFFFFFFFFFFFFFFF AND DUP2 MSTORE PUSH1 0x20 ADD SWAP1 DUP2 MSTORE PUSH1 0x20 ADD PUSH0 KECCAK256 PUSH0 DUP3 DUP3 SLOAD PUSH2 0xD97 SWAP2 SWAP1 PUSH2 0x3A92 JUMP JUMPDEST SWAP3 POP POP DUP2 SWAP1 SSTORE POP CALLER PUSH20 0xFFFFFFFFFFFFFFFFFFFFFFFFFFFFFFFFFFFFFFFF AND PUSH32 0x1D0F096610FBC2EB1E49F27265130C9C8979BAFE21966D391240F4E90EA92144 DUP4 PUSH1 0x3 ADD PUSH0 SWAP1 SLOAD SWAP1 PUSH2 0x100 EXP SWAP1 DIV PUSH1 0xFF AND DUP4 PUSH1 0x40 MLOAD PUSH2 0xDF6 SWAP3 SWAP2 SWAP1 PUSH2 0x3AC5 JUMP JUMPDEST PUSH1 0x40 MLOAD DUP1 SWAP2 SUB SWAP1 LOG2 PUSH1 0x4 PUSH0 CALLER PUSH20 0xFFFFFFFFFFFFFFFFFFFFFFFFFFFFFFFFFFFFFFFF AND PUSH20 0xFFFFFFFFFFFFFFFFFFFFFFFFFFFFFFFFFFFFFFFF AND DUP2 MSTORE PUSH1 0x20 ADD SWAP1 DUP2 MSTORE PUSH1 0x20 ADD PUSH0 KECCAK256 PUSH0 DUP1 DUP3 ADD PUSH0 SWAP1 SSTORE PUSH1 0x1 DUP3 ADD PUSH0 SWAP1 SSTORE PUSH1 0x2 DUP3 ADD PUSH0 SWAP1 SSTORE PUSH1 0x3 DUP3 ADD PUSH0 PUSH2 0x100 EXP DUP2 SLOAD SWAP1 PUSH1 0xFF MUL NOT AND SWAP1 SSTORE PUSH1 0x4 DUP3 ADD PUSH0 PUSH2 0xE72 SWAP2 SWAP1 PUSH2 0x29F8 JUMP JUMPDEST PUSH1 0x5 DUP3 ADD PUSH0 PUSH2 0x100 EXP DUP2 SLOAD SWAP1 PUSH1 0xFF MUL NOT AND SWAP1 SSTORE POP POP POP POP JUMP JUMPDEST PUSH1 0x4 PUSH1 0x20 MSTORE DUP1 PUSH0 MSTORE PUSH1 0x40 PUSH0 KECCAK256 PUSH0 SWAP2 POP SWAP1 POP DUP1 PUSH0 ADD SLOAD SWAP1 DUP1 PUSH1 0x1 ADD SLOAD SWAP1 DUP1 PUSH1 0x2 ADD SLOAD SWAP1 DUP1 PUSH1 0x3 ADD PUSH0 SWAP1 SLOAD SWAP1 PUSH2 0x100 EXP SWAP1 DIV PUSH1 0xFF AND SWAP1 DUP1 PUSH1 0x4 ADD DUP1 SLOAD PUSH2 0xECE SWAP1 PUSH2 0x363D JUMP JUMPDEST DUP1 PUSH1 0x1F ADD PUSH1 0x20 DUP1 SWAP2 DIV MUL PUSH1 0x20 ADD PUSH1 0x40 MLOAD SWAP1 DUP2 ADD PUSH1 0x40 MSTORE DUP1 SWAP3 SWAP2 SWAP1 DUP2 DUP2 MSTORE PUSH1 0x20 ADD DUP3 DUP1 SLOAD PUSH2 0xEFA SWAP1 PUSH2 0x363D JUMP JUMPDEST DUP1 ISZERO PUSH2 0xF45 JUMPI DUP1 PUSH1 0x1F LT PUSH2 0xF1C JUMPI PUSH2 0x100 DUP1 DUP4 SLOAD DIV MUL DUP4 MSTORE SWAP2 PUSH1 0x20 ADD SWAP2 PUSH2 0xF45 JUMP JUMPDEST DUP3 ADD SWAP2 SWAP1 PUSH0 MSTORE PUSH1 0x20 PUSH0 KECCAK256 SWAP1 JUMPDEST DUP2 SLOAD DUP2 MSTORE SWAP1 PUSH1 0x1 ADD SWAP1 PUSH1 0x20 ADD DUP1 DUP4 GT PUSH2 0xF28 JUMPI DUP3 SWAP1 SUB PUSH1 0x1F AND DUP3 ADD SWAP2 JUMPDEST POP POP POP POP POP SWAP1 DUP1 PUSH1 0x5 ADD PUSH0 SWAP1 SLOAD SWAP1 PUSH2 0x100 EXP SWAP1 DIV PUSH1 0xFF AND SWAP1 POP DUP7 JUMP JUMPDEST PUSH1 0x8 SLOAD PUSH1 0x7 SLOAD TIMESTAMP PUSH2 0xF72 SWAP2 SWAP1 PUSH2 0x3AEC JUMP JUMPDEST GT ISZERO PUSH2 0xFB7 JUMPI TIMESTAMP PUSH1 0x7 DUP2 SWAP1 SSTORE POP PUSH32 0x6DE57E59F03F88A5737F7843DF2F8E9FB747D34513EC31FBCB04760C530A21E9 TIMESTAMP PUSH1 0x40 MLOAD PUSH2 0xFAE SWAP2 SWAP1 PUSH2 0x30CC JUMP JUMPDEST PUSH1 0x40 MLOAD DUP1 SWAP2 SUB SWAP1 LOG1 JUMPDEST POP POP JUMP JUMPDEST PUSH0 PUSH1 0x60 PUSH0 PUSH1 0x7 SLOAD TIMESTAMP PUSH2 0xFCD SWAP2 SWAP1 PUSH2 0x3AEC JUMP JUMPDEST SWAP1 POP PUSH0 PUSH1 0x8 SLOAD DUP3 GT SWAP1 POP DUP1 PUSH1 0x40 MLOAD DUP1 PUSH1 0x20 ADD PUSH1 0x40 MSTORE DUP1 PUSH0 DUP2 MSTORE POP SWAP4 POP SWAP4 POP POP POP SWAP3 POP SWAP3 SWAP1 POP JUMP JUMPDEST PUSH1 0x6 PUSH1 0x20 MSTORE DUP1 PUSH0 MSTORE PUSH1 0x40 PUSH0 KECCAK256 PUSH0 SWAP2 POP SWAP1 POP SLOAD DUP2 JUMP JUMPDEST PUSH2 0x1011 PUSH2 0x21AD JUMP JUMPDEST DUP1 PUSH1 0x8 DUP2 SWAP1 SSTORE POP PUSH32 0x6A60A6A9BD26DF0B38AF118B3BFBF636CFE2705EF44A124C5BAA2502C68C666 DUP2 PUSH1 0x40 MLOAD PUSH2 0x1047 SWAP2 SWAP1 PUSH2 0x30CC JUMP JUMPDEST PUSH1 0x40 MLOAD DUP1 SWAP2 SUB SWAP1 LOG1 POP JUMP JUMPDEST PUSH1 0x1 PUSH0 SWAP1 SLOAD SWAP1 PUSH2 0x100 EXP SWAP1 DIV PUSH20 0xFFFFFFFFFFFFFFFFFFFFFFFFFFFFFFFFFFFFFFFF AND PUSH20 0xFFFFFFFFFFFFFFFFFFFFFFFFFFFFFFFFFFFFFFFF AND CALLER PUSH20 0xFFFFFFFFFFFFFFFFFFFFFFFFFFFFFFFFFFFFFFFF AND EQ PUSH2 0x10E1 JUMPI PUSH1 0x40 MLOAD PUSH32 0x8C379A000000000000000000000000000000000000000000000000000000000 DUP2 MSTORE PUSH1 0x4 ADD PUSH2 0x10D8 SWAP1 PUSH2 0x3B69 JUMP JUMPDEST PUSH1 0x40 MLOAD DUP1 SWAP2 SUB SWAP1 REVERT JUMPDEST PUSH0 DUP1 PUSH0 SWAP1 SLOAD SWAP1 PUSH2 0x100 EXP SWAP1 DIV PUSH20 0xFFFFFFFFFFFFFFFFFFFFFFFFFFFFFFFFFFFFFFFF AND SWAP1 POP CALLER PUSH0 DUP1 PUSH2 0x100 EXP DUP2 SLOAD DUP2 PUSH20 0xFFFFFFFFFFFFFFFFFFFFFFFFFFFFFFFFFFFFFFFF MUL NOT AND SWAP1 DUP4 PUSH20 0xFFFFFFFFFFFFFFFFFFFFFFFFFFFFFFFFFFFFFFFF AND MUL OR SWAP1 SSTORE POP PUSH0 PUSH1 0x1 PUSH0 PUSH2 0x100 EXP DUP2 SLOAD DUP2 PUSH20 0xFFFFFFFFFFFFFFFFFFFFFFFFFFFFFFFFFFFFFFFF MUL NOT AND SWAP1 DUP4 PUSH20 0xFFFFFFFFFFFFFFFFFFFFFFFFFFFFFFFFFFFFFFFF AND MUL OR SWAP1 SSTORE POP CALLER PUSH20 0xFFFFFFFFFFFFFFFFFFFFFFFFFFFFFFFFFFFFFFFF AND DUP2 PUSH20 0xFFFFFFFFFFFFFFFFFFFFFFFFFFFFFFFFFFFFFFFF AND PUSH32 0x8BE0079C531659141344CD1FD0A4F28419497F9722A3DAAFE3B4186F6B6457E0 PUSH1 0x40 MLOAD PUSH1 0x40 MLOAD DUP1 SWAP2 SUB SWAP1 LOG3 POP JUMP JUMPDEST PUSH0 DUP1 PUSH0 SWAP1 SLOAD SWAP1 PUSH2 0x100 EXP SWAP1 DIV PUSH20 0xFFFFFFFFFFFFFFFFFFFFFFFFFFFFFFFFFFFFFFFF AND SWAP1 POP SWAP1 JUMP JUMPDEST PUSH2 0x1210 PUSH2 0x11E1 JUMP JUMPDEST PUSH20 0xFFFFFFFFFFFFFFFFFFFFFFFFFFFFFFFFFFFFFFFF AND CALLER PUSH20 0xFFFFFFFFFFFFFFFFFFFFFFFFFFFFFFFFFFFFFFFF AND EQ ISZERO DUP1 ISZERO PUSH2 0x1298 JUMPI POP PUSH1 0x2 PUSH0 SWAP1 SLOAD SWAP1 PUSH2 0x100 EXP SWAP1 DIV PUSH20 0xFFFFFFFFFFFFFFFFFFFFFFFFFFFFFFFFFFFFFFFF AND PUSH20 0xFFFFFFFFFFFFFFFFFFFFFFFFFFFFFFFFFFFFFFFF AND CALLER PUSH20 0xFFFFFFFFFFFFFFFFFFFFFFFFFFFFFFFFFFFFFFFF AND EQ ISZERO JUMPDEST ISZERO PUSH2 0x1306 JUMPI CALLER PUSH2 0x12A6 PUSH2 0x11E1 JUMP JUMPDEST PUSH1 0x2 PUSH0 SWAP1 SLOAD SWAP1 PUSH2 0x100 EXP SWAP1 DIV PUSH20 0xFFFFFFFFFFFFFFFFFFFFFFFFFFFFFFFFFFFFFFFF AND PUSH1 0x40 MLOAD PUSH32 0x61DB9C100000000000000000000000000000000000000000000000000000000 DUP2 MSTORE PUSH1 0x4 ADD PUSH2 0x12FD SWAP4 SWAP3 SWAP2 SWAP1 PUSH2 0x3B87 JUMP JUMPDEST PUSH1 0x40 MLOAD DUP1 SWAP2 SUB SWAP1 REVERT JUMPDEST PUSH0 PUSH20 0xFFFFFFFFFFFFFFFFFFFFFFFFFFFFFFFFFFFFFFFF AND DUP2 PUSH20 0xFFFFFFFFFFFFFFFFFFFFFFFFFFFFFFFFFFFFFFFF AND SUB PUSH2 0x136B JUMPI PUSH1 0x40 MLOAD PUSH32 0xD92E233D00000000000000000000000000000000000000000000000000000000 DUP2 MSTORE PUSH1 0x4 ADD PUSH1 0x40 MLOAD DUP1 SWAP2 SUB SWAP1 REVERT JUMPDEST DUP1 PUSH1 0x2 PUSH0 PUSH2 0x100 EXP DUP2 SLOAD DUP2 PUSH20 0xFFFFFFFFFFFFFFFFFFFFFFFFFFFFFFFFFFFFFFFF MUL NOT AND SWAP1 DUP4 PUSH20 0xFFFFFFFFFFFFFFFFFFFFFFFFFFFFFFFFFFFFFFFF AND MUL OR SWAP1 SSTORE POP PUSH32 0xD1A6A14209A385A964D036E404CB5CFB71F4000CDB03C9366292430787261BE6 DUP2 PUSH1 0x40 MLOAD PUSH2 0x13DA SWAP2 SWAP1 PUSH2 0x311F JUMP JUMPDEST PUSH1 0x40 MLOAD DUP1 SWAP2 SUB SWAP1 LOG1 POP JUMP JUMPDEST PUSH1 0x2 PUSH0 SWAP1 SLOAD SWAP1 PUSH2 0x100 EXP SWAP1 DIV PUSH20 0xFFFFFFFFFFFFFFFFFFFFFFFFFFFFFFFFFFFFFFFF AND DUP2 JUMP JUMPDEST PUSH1 0x7 SLOAD DUP2 JUMP JUMPDEST PUSH1 0x5 DUP2 DUP2 SLOAD DUP2 LT PUSH2 0x141F JUMPI PUSH0 DUP1 REVERT JUMPDEST SWAP1 PUSH0 MSTORE PUSH1 0x20 PUSH0 KECCAK256 ADD PUSH0 SWAP2 POP SLOAD SWAP1 PUSH2 0x100 EXP SWAP1 DIV PUSH20 0xFFFFFFFFFFFFFFFFFFFFFFFFFFFFFFFFFFFFFFFF AND DUP2 JUMP JUMPDEST PUSH32 0x0 DUP2 JUMP JUMPDEST PUSH0 PUSH1 0x4 PUSH0 CALLER PUSH20 0xFFFFFFFFFFFFFFFFFFFFFFFFFFFFFFFFFFFFFFFF AND PUSH20 0xFFFFFFFFFFFFFFFFFFFFFFFFFFFFFFFFFFFFFFFF AND DUP2 MSTORE PUSH1 0x20 ADD SWAP1 DUP2 MSTORE PUSH1 0x20 ADD PUSH0 KECCAK256 SWAP1 POP DUP1 PUSH1 0x5 ADD PUSH0 SWAP1 SLOAD SWAP1 PUSH2 0x100 EXP SWAP1 DIV PUSH1 0xFF AND PUSH2 0x14FF JUMPI PUSH1 0x40 MLOAD PUSH32 0x8C379A000000000000000000000000000000000000000000000000000000000 DUP2 MSTORE PUSH1 0x4 ADD PUSH2 0x14F6 SWAP1 PUSH2 0x3284 JUMP JUMPDEST PUSH1 0x40 MLOAD DUP1 SWAP2 SUB SWAP1 REVERT JUMPDEST PUSH0 PUSH1 0xA PUSH1 0x2D PUSH2 0x150E SWAP2 SWAP1 PUSH2 0x3965 JUMP JUMPDEST DUP3 PUSH0 ADD SLOAD PUSH2 0x151C SWAP2 SWAP1 PUSH2 0x3A92 JUMP JUMPDEST SWAP1 POP DUP1 TIMESTAMP GT PUSH2 0x1560 JUMPI PUSH1 0x40 MLOAD PUSH32 0x8C379A000000000000000000000000000000000000000000000000000000000 DUP2 MSTORE PUSH1 0x4 ADD PUSH2 0x1557 SWAP1 PUSH2 0x3C06 JUMP JUMPDEST PUSH1 0x40 MLOAD DUP1 SWAP2 SUB SWAP1 REVERT JUMPDEST PUSH0 DUP3 PUSH1 0x2 ADD SLOAD SWAP1 POP PUSH1 0x4 PUSH0 CALLER PUSH20 0xFFFFFFFFFFFFFFFFFFFFFFFFFFFFFFFFFFFFFFFF AND PUSH20 0xFFFFFFFFFFFFFFFFFFFFFFFFFFFFFFFFFFFFFFFF AND DUP2 MSTORE PUSH1 0x20 ADD SWAP1 DUP2 MSTORE PUSH1 0x20 ADD PUSH0 KECCAK256 PUSH0 DUP1 DUP3 ADD PUSH0 SWAP1 SSTORE PUSH1 0x1 DUP3 ADD PUSH0 SWAP1 SSTORE PUSH1 0x2 DUP3 ADD PUSH0 SWAP1 SSTORE PUSH1 0x3 DUP3 ADD PUSH0 PUSH2 0x100 EXP DUP2 SLOAD SWAP1 PUSH1 0xFF MUL NOT AND SWAP1 SSTORE PUSH1 0x4 DUP3 ADD PUSH0 PUSH2 0x15DC SWAP2 SWAP1 PUSH2 0x29F8 JUMP JUMPDEST PUSH1 0x5 DUP3 ADD PUSH0 PUSH2 0x100 EXP DUP2 SLOAD SWAP1 PUSH1 0xFF MUL NOT AND SWAP1 SSTORE POP POP PUSH0 PUSH32 0x0 PUSH20 0xFFFFFFFFFFFFFFFFFFFFFFFFFFFFFFFFFFFFFFFF AND PUSH4 0xA9059CBB CALLER DUP5 PUSH1 0x40 MLOAD DUP4 PUSH4 0xFFFFFFFF AND PUSH1 0xE0 SHL DUP2 MSTORE PUSH1 0x4 ADD PUSH2 0x164D SWAP3 SWAP2 SWAP1 PUSH2 0x3A03 JUMP JUMPDEST PUSH1 0x20 PUSH1 0x40 MLOAD DUP1 DUP4 SUB DUP2 PUSH0 DUP8 GAS CALL ISZERO DUP1 ISZERO PUSH2 0x1669 JUMPI RETURNDATASIZE PUSH0 DUP1 RETURNDATACOPY RETURNDATASIZE PUSH0 REVERT JUMPDEST POP POP POP POP PUSH1 0x40 MLOAD RETURNDATASIZE PUSH1 0x1F NOT PUSH1 0x1F DUP3 ADD AND DUP3 ADD DUP1 PUSH1 0x40 MSTORE POP DUP2 ADD SWAP1 PUSH2 0x168D SWAP2 SWAP1 PUSH2 0x357D JUMP JUMPDEST SWAP1 POP DUP1 PUSH2 0x16CF JUMPI PUSH1 0x40 MLOAD PUSH32 0x8C379A000000000000000000000000000000000000000000000000000000000 DUP2 MSTORE PUSH1 0x4 ADD PUSH2 0x16C6 SWAP1 PUSH2 0x3C6E JUMP JUMPDEST PUSH1 0x40 MLOAD DUP1 SWAP2 SUB SWAP1 REVERT JUMPDEST CALLER PUSH20 0xFFFFFFFFFFFFFFFFFFFFFFFFFFFFFFFFFFFFFFFF AND PUSH32 0xFE1DF32EA0DB777E09D3744DEC8051B0B39AAD603E12002048877C32B665A0C1 DUP4 PUSH1 0x40 MLOAD PUSH2 0x1715 SWAP2 SWAP1 PUSH2 0x30CC JUMP JUMPDEST PUSH1 0x40 MLOAD DUP1 SWAP2 SUB SWAP1 LOG2 POP POP POP POP JUMP JUMPDEST PUSH0 PUSH1 0x4 PUSH0 CALLER PUSH20 0xFFFFFFFFFFFFFFFFFFFFFFFFFFFFFFFFFFFFFFFF AND PUSH20 0xFFFFFFFFFFFFFFFFFFFFFFFFFFFFFFFFFFFFFFFF AND DUP2 MSTORE PUSH1 0x20 ADD SWAP1 DUP2 MSTORE PUSH1 0x20 ADD PUSH0 KECCAK256 SWAP1 POP DUP1 PUSH1 0x5 ADD PUSH0 SWAP1 SLOAD SWAP1 PUSH2 0x100 EXP SWAP1 DIV PUSH1 0xFF AND PUSH2 0x17B3 JUMPI PUSH1 0x40 MLOAD PUSH32 0x8C379A000000000000000000000000000000000000000000000000000000000 DUP2 MSTORE PUSH1 0x4 ADD PUSH2 0x17AA SWAP1 PUSH2 0x3284 JUMP JUMPDEST PUSH1 0x40 MLOAD DUP1 SWAP2 SUB SWAP1 REVERT JUMPDEST PUSH1 0xA DUP2 PUSH1 0x1 ADD SLOAD LT PUSH2 0x17FA JUMPI PUSH1 0x40 MLOAD PUSH32 0x8C379A000000000000000000000000000000000000000000000000000000000 DUP2 MSTORE PUSH1 0x4 ADD PUSH2 0x17F1 SWAP1 PUSH2 0x3CD6 JUMP JUMPDEST PUSH1 0x40 MLOAD DUP1 SWAP2 SUB SWAP1 REVERT JUMPDEST PUSH0 PUSH1 0x2D DUP3 PUSH1 0x1 ADD SLOAD PUSH2 0x180C SWAP2 SWAP1 PUSH2 0x3965 JUMP JUMPDEST DUP3 PUSH0 ADD SLOAD PUSH2 0x181A SWAP2 SWAP1 PUSH2 0x3A92 JUMP JUMPDEST SWAP1 POP PUSH1 0x2D DUP2 PUSH2 0x1829 SWAP2 SWAP1 PUSH2 0x3A92 JUMP JUMPDEST TIMESTAMP GT ISZERO PUSH2 0x186B JUMPI PUSH1 0x40 MLOAD PUSH32 0x8C379A000000000000000000000000000000000000000000000000000000000 DUP2 MSTORE PUSH1 0x4 ADD PUSH2 0x1862 SWAP1 PUSH2 0x3D3E JUMP JUMPDEST PUSH1 0x40 MLOAD DUP1 SWAP2 SUB SWAP1 REVERT JUMPDEST PUSH2 0x1873 PUSH2 0x2989 JUMP JUMPDEST PUSH2 0x188D PUSH2 0x187E PUSH2 0x223C JUMP JUMPDEST DUP3 PUSH2 0x1CB9 SWAP1 SWAP2 SWAP1 PUSH4 0xFFFFFFFF AND JUMP JUMPDEST PUSH0 PUSH2 0x18C9 PUSH2 0x189A DUP4 PUSH2 0x1CC9 JUMP JUMPDEST PUSH2 0x4D2 PUSH3 0x493E0 PUSH32 0x66756E2D626173652D7365706F6C69612D310000000000000000000000000000 PUSH0 SHL PUSH2 0x20CE JUMP JUMPDEST SWAP1 POP DUP1 CALLER PUSH20 0xFFFFFFFFFFFFFFFFFFFFFFFFFFFFFFFFFFFFFFFF AND PUSH31 0x40A08FF8A2C8DE3747ADD6410EC4F7E6F2F1C30043E8DEE77F0ADAE00B3568 PUSH1 0x40 MLOAD PUSH1 0x40 MLOAD DUP1 SWAP2 SUB SWAP1 LOG3 POP POP POP POP POP JUMP JUMPDEST PUSH2 0x191D PUSH2 0x21AD JUMP JUMPDEST PUSH2 0x1926 DUP2 PUSH2 0x225F JUMP JUMPDEST POP JUMP JUMPDEST PUSH1 0x8 SLOAD DUP2 JUMP JUMPDEST PUSH1 0x60 PUSH32 0x92FD13387C7FE7BEFBC38D303D6468778FB9731BC4583F17D92989C6FCFDEAAA DUP3 PUSH1 0x40 MLOAD PUSH1 0x24 ADD PUSH2 0x1963 SWAP2 SWAP1 PUSH2 0x3D85 JUMP JUMPDEST PUSH1 0x40 MLOAD PUSH1 0x20 DUP2 DUP4 SUB SUB DUP2 MSTORE SWAP1 PUSH1 0x40 MSTORE SWAP1 PUSH28 0xFFFFFFFFFFFFFFFFFFFFFFFFFFFFFFFFFFFFFFFFFFFFFFFFFFFFFFFF NOT AND PUSH1 0x20 DUP3 ADD DUP1 MLOAD PUSH28 0xFFFFFFFFFFFFFFFFFFFFFFFFFFFFFFFFFFFFFFFFFFFFFFFFFFFFFFFF DUP4 DUP2 DUP4 AND OR DUP4 MSTORE POP POP POP POP SWAP1 POP SWAP2 SWAP1 POP JUMP JUMPDEST PUSH0 DUP3 SWAP1 POP PUSH0 CALLER SWAP1 POP PUSH0 PUSH1 0x4 PUSH0 DUP4 PUSH20 0xFFFFFFFFFFFFFFFFFFFFFFFFFFFFFFFFFFFFFFFF AND PUSH20 0xFFFFFFFFFFFFFFFFFFFFFFFFFFFFFFFFFFFFFFFF AND DUP2 MSTORE PUSH1 0x20 ADD SWAP1 DUP2 MSTORE PUSH1 0x20 ADD PUSH0 KECCAK256 SWAP1 POP DUP1 PUSH1 0x5 ADD PUSH0 SWAP1 SLOAD SWAP1 PUSH2 0x100 EXP SWAP1 DIV PUSH1 0xFF AND PUSH2 0x1A5F JUMPI PUSH1 0x40 MLOAD PUSH32 0x8C379A000000000000000000000000000000000000000000000000000000000 DUP2 MSTORE PUSH1 0x4 ADD PUSH2 0x1A56 SWAP1 PUSH2 0x3284 JUMP JUMPDEST PUSH1 0x40 MLOAD DUP1 SWAP2 SUB SWAP1 REVERT JUMPDEST DUP3 DUP2 PUSH1 0x4 ADD SWAP1 DUP2 PUSH2 0x1A70 SWAP2 SWAP1 PUSH2 0x3801 JUMP JUMPDEST POP TIMESTAMP DUP2 PUSH0 ADD DUP2 SWAP1 SSTORE POP DUP2 PUSH20 0xFFFFFFFFFFFFFFFFFFFFFFFFFFFFFFFFFFFFFFFF AND PUSH32 0x3A8A4DA682BBD76DCDB1CE36AA632D21131BC02C50EECAAF7FE3C23AC14AFF0C DUP5 PUSH1 0x40 MLOAD PUSH2 0x1ABF SWAP2 SWAP1 PUSH2 0x3D9E JUMP JUMPDEST PUSH1 0x40 MLOAD DUP1 SWAP2 SUB SWAP1 LOG2 POP POP POP POP POP POP JUMP JUMPDEST PUSH0 PUSH1 0x3 PUSH0 DUP6 DUP2 MSTORE PUSH1 0x20 ADD SWAP1 DUP2 MSTORE PUSH1 0x20 ADD PUSH0 KECCAK256 PUSH0 SWAP1 SLOAD SWAP1 PUSH2 0x100 EXP SWAP1 DIV PUSH20 0xFFFFFFFFFFFFFFFFFFFFFFFFFFFFFFFFFFFFFFFF AND SWAP1 POP PUSH0 PUSH20 0xFFFFFFFFFFFFFFFFFFFFFFFFFFFFFFFFFFFFFFFF AND DUP2 PUSH20 0xFFFFFFFFFFFFFFFFFFFFFFFFFFFFFFFFFFFFFFFF AND SUB PUSH2 0x1B71 JUMPI PUSH1 0x40 MLOAD PUSH32 0x8C379A000000000000000000000000000000000000000000000000000000000 DUP2 MSTORE PUSH1 0x4 ADD PUSH2 0x1B68 SWAP1 PUSH2 0x3E08 JUMP JUMPDEST PUSH1 0x40 MLOAD DUP1 SWAP2 SUB SWAP1 REVERT JUMPDEST PUSH0 DUP4 DUP4 PUSH0 DUP2 DUP2 LT PUSH2 0x1B85 JUMPI PUSH2 0x1B84 PUSH2 0x3E26 JUMP JUMPDEST JUMPDEST SWAP1 POP PUSH1 0x20 MUL ADD CALLDATALOAD SWAP1 POP PUSH0 PUSH1 0x5 DUP3 PUSH2 0x1B9C SWAP2 SWAP1 PUSH2 0x3E53 JUMP JUMPDEST SUB PUSH2 0x1C5C JUMPI PUSH0 PUSH8 0x8AC7230489E80000 PUSH1 0x5 PUSH2 0x1BB7 SWAP2 SWAP1 PUSH2 0x3965 JUMP JUMPDEST SWAP1 POP DUP1 PUSH1 0x6 PUSH0 DUP6 PUSH20 0xFFFFFFFFFFFFFFFFFFFFFFFFFFFFFFFFFFFFFFFF AND PUSH20 0xFFFFFFFFFFFFFFFFFFFFFFFFFFFFFFFFFFFFFFFF AND DUP2 MSTORE PUSH1 0x20 ADD SWAP1 DUP2 MSTORE PUSH1 0x20 ADD PUSH0 KECCAK256 PUSH0 DUP3 DUP3 SLOAD PUSH2 0x1C05 SWAP2 SWAP1 PUSH2 0x3A92 JUMP JUMPDEST SWAP3 POP POP DUP2 SWAP1 SSTORE POP DUP3 PUSH20 0xFFFFFFFFFFFFFFFFFFFFFFFFFFFFFFFFFFFFFFFF AND PUSH32 0x9CF92E896D7FCE8C4A7600DAA08F0A39E68EB99CD4413843DF33E0FDB7553538 DUP3 PUSH1 0x40 MLOAD PUSH2 0x1C52 SWAP2 SWAP1 PUSH2 0x30CC JUMP JUMPDEST PUSH1 0x40 MLOAD DUP1 SWAP2 SUB SWAP1 LOG2 POP JUMPDEST PUSH1 0x3 PUSH0 DUP7 DUP2 MSTORE PUSH1 0x20 ADD SWAP1 DUP2 MSTORE PUSH1 0x20 ADD PUSH0 KECCAK256 PUSH0 PUSH2 0x100 EXP DUP2 SLOAD SWAP1 PUSH20 0xFFFFFFFFFFFFFFFFFFFFFFFFFFFFFFFFFFFFFFFF MUL NOT AND SWAP1 SSTORE POP POP POP POP POP JUMP JUMPDEST PUSH1 0x60 PUSH1 0x40 MLOAD DUP1 PUSH2 0x1C0 ADD PUSH1 0x40 MSTORE DUP1 PUSH2 0x182 DUP2 MSTORE PUSH1 0x20 ADD PUSH2 0x4389 PUSH2 0x182 SWAP2 CODECOPY SWAP1 POP SWAP1 JUMP JUMPDEST PUSH2 0x1CC5 DUP3 PUSH0 DUP1 DUP5 PUSH2 0x2389 JUMP JUMPDEST POP POP JUMP JUMPDEST PUSH1 0x60 PUSH0 PUSH2 0x1CD7 PUSH2 0x100 PUSH2 0x242F JUMP JUMPDEST SWAP1 POP PUSH2 0x1D21 PUSH1 0x40 MLOAD DUP1 PUSH1 0x40 ADD PUSH1 0x40 MSTORE DUP1 PUSH1 0xC DUP2 MSTORE PUSH1 0x20 ADD PUSH32 0x636F64654C6F636174696F6E0000000000000000000000000000000000000000 DUP2 MSTORE POP DUP3 PUSH2 0x2454 SWAP1 SWAP2 SWAP1 PUSH4 0xFFFFFFFF AND JUMP JUMPDEST PUSH2 0x1D49 DUP4 PUSH0 ADD MLOAD PUSH1 0x2 DUP2 GT ISZERO PUSH2 0x1D3A JUMPI PUSH2 0x1D39 PUSH2 0x3E83 JUMP JUMPDEST JUMPDEST DUP3 PUSH2 0x247C SWAP1 SWAP2 SWAP1 PUSH4 0xFFFFFFFF AND JUMP JUMPDEST PUSH2 0x1D91 PUSH1 0x40 MLOAD DUP1 PUSH1 0x40 ADD PUSH1 0x40 MSTORE DUP1 PUSH1 0x8 DUP2 MSTORE PUSH1 0x20 ADD PUSH32 0x6C616E6775616765000000000000000000000000000000000000000000000000 DUP2 MSTORE POP DUP3 PUSH2 0x2454 SWAP1 SWAP2 SWAP1 PUSH4 0xFFFFFFFF AND JUMP JUMPDEST PUSH2 0x1DB9 DUP4 PUSH1 0x40 ADD MLOAD PUSH0 DUP2 GT ISZERO PUSH2 0x1DAA JUMPI PUSH2 0x1DA9 PUSH2 0x3E83 JUMP JUMPDEST JUMPDEST DUP3 PUSH2 0x247C SWAP1 SWAP2 SWAP1 PUSH4 0xFFFFFFFF AND JUMP JUMPDEST PUSH2 0x1E01 PUSH1 0x40 MLOAD DUP1 PUSH1 0x40 ADD PUSH1 0x40 MSTORE DUP1 PUSH1 0x6 DUP2 MSTORE PUSH1 0x20 ADD PUSH32 0x736F757263650000000000000000000000000000000000000000000000000000 DUP2 MSTORE POP DUP3 PUSH2 0x2454 SWAP1 SWAP2 SWAP1 PUSH4 0xFFFFFFFF AND JUMP JUMPDEST PUSH2 0x1E18 DUP4 PUSH1 0x60 ADD MLOAD DUP3 PUSH2 0x2454 SWAP1 SWAP2 SWAP1 PUSH4 0xFFFFFFFF AND JUMP JUMPDEST PUSH0 DUP4 PUSH1 0xA0 ADD MLOAD MLOAD GT ISZERO PUSH2 0x1ECC JUMPI PUSH2 0x1E6D PUSH1 0x40 MLOAD DUP1 PUSH1 0x40 ADD PUSH1 0x40 MSTORE DUP1 PUSH1 0x4 DUP2 MSTORE PUSH1 0x20 ADD PUSH32 0x6172677300000000000000000000000000000000000000000000000000000000 DUP2 MSTORE POP DUP3 PUSH2 0x2454 SWAP1 SWAP2 SWAP1 PUSH4 0xFFFFFFFF AND JUMP JUMPDEST PUSH2 0x1E76 DUP2 PUSH2 0x24CB JUMP JUMPDEST PUSH0 JUMPDEST DUP4 PUSH1 0xA0 ADD MLOAD MLOAD DUP2 LT ISZERO PUSH2 0x1EC1 JUMPI PUSH2 0x1EB6 DUP5 PUSH1 0xA0 ADD MLOAD DUP3 DUP2 MLOAD DUP2 LT PUSH2 0x1E9F JUMPI PUSH2 0x1E9E PUSH2 0x3E26 JUMP JUMPDEST JUMPDEST PUSH1 0x20 MUL PUSH1 0x20 ADD ADD MLOAD DUP4 PUSH2 0x2454 SWAP1 SWAP2 SWAP1 PUSH4 0xFFFFFFFF AND JUMP JUMPDEST DUP1 PUSH1 0x1 ADD SWAP1 POP PUSH2 0x1E78 JUMP JUMPDEST POP PUSH2 0x1ECB DUP2 PUSH2 0x24F3 JUMP JUMPDEST JUMPDEST PUSH0 DUP4 PUSH1 0x80 ADD MLOAD MLOAD GT ISZERO PUSH2 0x200B JUMPI PUSH0 PUSH1 0x2 DUP2 GT ISZERO PUSH2 0x1EEC JUMPI PUSH2 0x1EEB PUSH2 0x3E83 JUMP JUMPDEST JUMPDEST DUP4 PUSH1 0x20 ADD MLOAD PUSH1 0x2 DUP2 GT ISZERO PUSH2 0x1F03 JUMPI PUSH2 0x1F02 PUSH2 0x3E83 JUMP JUMPDEST JUMPDEST SUB PUSH2 0x1F3A JUMPI PUSH1 0x40 MLOAD PUSH32 0xA80D31F700000000000000000000000000000000000000000000000000000000 DUP2 MSTORE PUSH1 0x4 ADD PUSH1 0x40 MLOAD DUP1 SWAP2 SUB SWAP1 REVERT JUMPDEST PUSH2 0x1F82 PUSH1 0x40 MLOAD DUP1 PUSH1 0x40 ADD PUSH1 0x40 MSTORE DUP1 PUSH1 0xF DUP2 MSTORE PUSH1 0x20 ADD PUSH32 0x736563726574734C6F636174696F6E0000000000000000000000000000000000 DUP2 MSTORE POP DUP3 PUSH2 0x2454 SWAP1 SWAP2 SWAP1 PUSH4 0xFFFFFFFF AND JUMP JUMPDEST PUSH2 0x1FAB DUP4 PUSH1 0x20 ADD MLOAD PUSH1 0x2 DUP2 GT ISZERO PUSH2 0x1F9C JUMPI PUSH2 0x1F9B PUSH2 0x3E83 JUMP JUMPDEST JUMPDEST DUP3 PUSH2 0x247C SWAP1 SWAP2 SWAP1 PUSH4 0xFFFFFFFF AND JUMP JUMPDEST PUSH2 0x1FF3 PUSH1 0x40 MLOAD DUP1 PUSH1 0x40 ADD PUSH1 0x40 MSTORE DUP1 PUSH1 0x7 DUP2 MSTORE PUSH1 0x20 ADD PUSH32 0x7365637265747300000000000000000000000000000000000000000000000000 DUP2 MSTORE POP DUP3 PUSH2 0x2454 SWAP1 SWAP2 SWAP1 PUSH4 0xFFFFFFFF AND JUMP JUMPDEST PUSH2 0x200A DUP4 PUSH1 0x80 ADD MLOAD DUP3 PUSH2 0x251B SWAP1 SWAP2 SWAP1 PUSH4 0xFFFFFFFF AND JUMP JUMPDEST JUMPDEST PUSH0 DUP4 PUSH1 0xC0 ADD MLOAD MLOAD GT ISZERO PUSH2 0x20BF JUMPI PUSH2 0x2060 PUSH1 0x40 MLOAD DUP1 PUSH1 0x40 ADD PUSH1 0x40 MSTORE DUP1 PUSH1 0x9 DUP2 MSTORE PUSH1 0x20 ADD PUSH32 0x6279746573417267730000000000000000000000000000000000000000000000 DUP2 MSTORE POP DUP3 PUSH2 0x2454 SWAP1 SWAP2 SWAP1 PUSH4 0xFFFFFFFF AND JUMP JUMPDEST PUSH2 0x2069 DUP2 PUSH2 0x24CB JUMP JUMPDEST PUSH0 JUMPDEST DUP4 PUSH1 0xC0 ADD MLOAD MLOAD DUP2 LT ISZERO PUSH2 0x20B4 JUMPI PUSH2 0x20A9 DUP5 PUSH1 0xC0 ADD MLOAD DUP3 DUP2 MLOAD DUP2 LT PUSH2 0x2092 JUMPI PUSH2 0x2091 PUSH2 0x3E26 JUMP JUMPDEST JUMPDEST PUSH1 0x20 MUL PUSH1 0x20 ADD ADD MLOAD DUP4 PUSH2 0x251B SWAP1 SWAP2 SWAP1 PUSH4 0xFFFFFFFF AND JUMP JUMPDEST DUP1 PUSH1 0x1 ADD SWAP1 POP PUSH2 0x206B JUMP JUMPDEST POP PUSH2 0x20BE DUP2 PUSH2 0x24F3 JUMP JUMPDEST JUMPDEST DUP1 PUSH0 ADD MLOAD PUSH0 ADD MLOAD SWAP2 POP POP SWAP2 SWAP1 POP JUMP JUMPDEST PUSH0 DUP1 PUSH32 0x0 PUSH20 0xFFFFFFFFFFFFFFFFFFFFFFFFFFFFFFFFFFFFFFFF AND PUSH4 0x461D2762 DUP7 DUP9 PUSH1 0x1 DUP9 DUP9 PUSH1 0x40 MLOAD DUP7 PUSH4 0xFFFFFFFF AND PUSH1 0xE0 SHL DUP2 MSTORE PUSH1 0x4 ADD PUSH2 0x2132 SWAP6 SWAP5 SWAP4 SWAP3 SWAP2 SWAP1 PUSH2 0x3EFF JUMP JUMPDEST PUSH1 0x20 PUSH1 0x40 MLOAD DUP1 DUP4 SUB DUP2 PUSH0 DUP8 GAS CALL ISZERO DUP1 ISZERO PUSH2 0x214E JUMPI RETURNDATASIZE PUSH0 DUP1 RETURNDATACOPY RETURNDATASIZE PUSH0 REVERT JUMPDEST POP POP POP POP PUSH1 0x40 MLOAD RETURNDATASIZE PUSH1 0x1F NOT PUSH1 0x1F DUP3 ADD AND DUP3 ADD DUP1 PUSH1 0x40 MSTORE POP DUP2 ADD SWAP1 PUSH2 0x2172 SWAP2 SWAP1 PUSH2 0x3F6B JUMP JUMPDEST SWAP1 POP DUP1 PUSH32 0x1131472297A800FEE664D1D89CFA8F7676FF07189ECC53F80BBB5F4969099DB8 PUSH1 0x40 MLOAD PUSH1 0x40 MLOAD DUP1 SWAP2 SUB SWAP1 LOG2 DUP1 SWAP2 POP POP SWAP5 SWAP4 POP POP POP POP JUMP JUMPDEST PUSH0 DUP1 SLOAD SWAP1 PUSH2 0x100 EXP SWAP1 DIV PUSH20 0xFFFFFFFFFFFFFFFFFFFFFFFFFFFFFFFFFFFFFFFF AND PUSH20 0xFFFFFFFFFFFFFFFFFFFFFFFFFFFFFFFFFFFFFFFF AND CALLER PUSH20 0xFFFFFFFFFFFFFFFFFFFFFFFFFFFFFFFFFFFFFFFF AND EQ PUSH2 0x223A JUMPI PUSH1 0x40 MLOAD PUSH32 0x8C379A000000000000000000000000000000000000000000000000000000000 DUP2 MSTORE PUSH1 0x4 ADD PUSH2 0x2231 SWAP1 PUSH2 0x3FE0 JUMP JUMPDEST PUSH1 0x40 MLOAD DUP1 SWAP2 SUB SWAP1 REVERT JUMPDEST JUMP JUMPDEST PUSH1 0x60 PUSH1 0x40 MLOAD DUP1 PUSH2 0x1E0 ADD PUSH1 0x40 MSTORE DUP1 PUSH2 0x1A9 DUP2 MSTORE PUSH1 0x20 ADD PUSH2 0x41E0 PUSH2 0x1A9 SWAP2 CODECOPY SWAP1 POP SWAP1 JUMP JUMPDEST CALLER PUSH20 0xFFFFFFFFFFFFFFFFFFFFFFFFFFFFFFFFFFFFFFFF AND DUP2 PUSH20 0xFFFFFFFFFFFFFFFFFFFFFFFFFFFFFFFFFFFFFFFF AND SUB PUSH2 0x22CD JUMPI PUSH1 0x40 MLOAD PUSH32 0x8C379A000000000000000000000000000000000000000000000000000000000 DUP2 MSTORE PUSH1 0x4 ADD PUSH2 0x22C4 SWAP1 PUSH2 0x4048 JUMP JUMPDEST PUSH1 0x40 MLOAD DUP1 SWAP2 SUB SWAP1 REVERT JUMPDEST DUP1 PUSH1 0x1 PUSH0 PUSH2 0x100 EXP DUP2 SLOAD DUP2 PUSH20 0xFFFFFFFFFFFFFFFFFFFFFFFFFFFFFFFFFFFFFFFF MUL NOT AND SWAP1 DUP4 PUSH20 0xFFFFFFFFFFFFFFFFFFFFFFFFFFFFFFFFFFFFFFFF AND MUL OR SWAP1 SSTORE POP DUP1 PUSH20 0xFFFFFFFFFFFFFFFFFFFFFFFFFFFFFFFFFFFFFFFF AND PUSH0 DUP1 SLOAD SWAP1 PUSH2 0x100 EXP SWAP1 DIV PUSH20 0xFFFFFFFFFFFFFFFFFFFFFFFFFFFFFFFFFFFFFFFF AND PUSH20 0xFFFFFFFFFFFFFFFFFFFFFFFFFFFFFFFFFFFFFFFF AND PUSH32 0xED8889F560326EB138920D842192F0EB3DD22B4F139C87A2C57538E05BAE1278 PUSH1 0x40 MLOAD PUSH1 0x40 MLOAD DUP1 SWAP2 SUB SWAP1 LOG3 POP JUMP JUMPDEST PUSH0 DUP2 MLOAD SUB PUSH2 0x23C3 JUMPI PUSH1 0x40 MLOAD PUSH32 0x22CE3EDD00000000000000000000000000000000000000000000000000000000 DUP2 MSTORE PUSH1 0x4 ADD PUSH1 0x40 MLOAD DUP1 SWAP2 SUB SWAP1 REVERT JUMPDEST DUP3 DUP5 PUSH0 ADD SWAP1 PUSH1 0x2 DUP2 GT ISZERO PUSH2 0x23DA JUMPI PUSH2 0x23D9 PUSH2 0x3E83 JUMP JUMPDEST JUMPDEST SWAP1 DUP2 PUSH1 0x2 DUP2 GT ISZERO PUSH2 0x23EE JUMPI PUSH2 0x23ED PUSH2 0x3E83 JUMP JUMPDEST JUMPDEST DUP2 MSTORE POP POP DUP2 DUP5 PUSH1 0x40 ADD SWAP1 PUSH0 DUP2 GT ISZERO PUSH2 0x2409 JUMPI PUSH2 0x2408 PUSH2 0x3E83 JUMP JUMPDEST JUMPDEST SWAP1 DUP2 PUSH0 DUP2 GT ISZERO PUSH2 0x241C JUMPI PUSH2 0x241B PUSH2 0x3E83 JUMP JUMPDEST JUMPDEST DUP2 MSTORE POP POP DUP1 DUP5 PUSH1 0x60 ADD DUP2 SWAP1 MSTORE POP POP POP POP POP JUMP JUMPDEST PUSH2 0x2437 PUSH2 0x2A35 JUMP JUMPDEST PUSH2 0x2444 DUP2 PUSH0 ADD MLOAD DUP4 PUSH2 0x2543 JUMP JUMPDEST POP PUSH0 DUP2 PUSH1 0x20 ADD DUP2 DUP2 MSTORE POP POP SWAP2 SWAP1 POP JUMP JUMPDEST PUSH2 0x2461 DUP3 PUSH1 0x3 DUP4 MLOAD PUSH2 0x25B9 JUMP JUMPDEST PUSH2 0x2477 DUP2 DUP4 PUSH0 ADD MLOAD PUSH2 0x2759 SWAP1 SWAP2 SWAP1 PUSH4 0xFFFFFFFF AND JUMP JUMPDEST POP POP POP JUMP JUMPDEST PUSH2 0x249D PUSH1 0x2 PUSH1 0x5 PUSH1 0x6 PUSH1 0xFF AND SWAP1 SHL OR DUP4 PUSH0 ADD MLOAD PUSH2 0x2775 SWAP1 SWAP2 SWAP1 PUSH4 0xFFFFFFFF AND JUMP JUMPDEST POP PUSH2 0x24C7 DUP3 DUP3 PUSH1 0x40 MLOAD PUSH1 0x20 ADD PUSH2 0x24B3 SWAP2 SWAP1 PUSH2 0x30CC JUMP JUMPDEST PUSH1 0x40 MLOAD PUSH1 0x20 DUP2 DUP4 SUB SUB DUP2 MSTORE SWAP1 PUSH1 0x40 MSTORE PUSH2 0x251B JUMP JUMPDEST POP POP JUMP JUMPDEST PUSH2 0x24D6 DUP2 PUSH1 0x4 PUSH2 0x27DC JUMP JUMPDEST PUSH1 0x1 DUP2 PUSH1 0x20 ADD DUP2 DUP2 MLOAD PUSH2 0x24E9 SWAP2 SWAP1 PUSH2 0x3A92 JUMP JUMPDEST SWAP2 POP DUP2 DUP2 MSTORE POP POP POP JUMP JUMPDEST PUSH2 0x24FE DUP2 PUSH1 0x7 PUSH2 0x27DC JUMP JUMPDEST PUSH1 0x1 DUP2 PUSH1 0x20 ADD DUP2 DUP2 MLOAD PUSH2 0x2511 SWAP2 SWAP1 PUSH2 0x3AEC JUMP JUMPDEST SWAP2 POP DUP2 DUP2 MSTORE POP POP POP JUMP JUMPDEST PUSH2 0x2528 DUP3 PUSH1 0x2 DUP4 MLOAD PUSH2 0x25B9 JUMP JUMPDEST PUSH2 0x253E DUP2 DUP4 PUSH0 ADD MLOAD PUSH2 0x2759 SWAP1 SWAP2 SWAP1 PUSH4 0xFFFFFFFF AND JUMP JUMPDEST POP POP POP JUMP JUMPDEST PUSH2 0x254B PUSH2 0x2A54 JUMP JUMPDEST PUSH0 PUSH1 0x20 DUP4 PUSH2 0x2559 SWAP2 SWAP1 PUSH2 0x3E53 JUMP JUMPDEST EQ PUSH2 0x2585 JUMPI PUSH1 0x20 DUP3 PUSH2 0x256B SWAP2 SWAP1 PUSH2 0x3E53 JUMP JUMPDEST PUSH1 0x20 PUSH2 0x2577 SWAP2 SWAP1 PUSH2 0x3AEC JUMP JUMPDEST DUP3 PUSH2 0x2582 SWAP2 SWAP1 PUSH2 0x3A92 JUMP JUMPDEST SWAP2 POP JUMPDEST DUP2 DUP4 PUSH1 0x20 ADD DUP2 DUP2 MSTORE POP POP PUSH1 0x40 MLOAD DUP1 DUP5 MSTORE PUSH0 DUP2 MSTORE DUP3 DUP2 ADD PUSH1 0x20 ADD DUP2 DUP2 LT ISZERO PUSH2 0x25AA JUMPI PUSH0 DUP1 REVERT JUMPDEST DUP1 PUSH1 0x40 MSTORE POP POP DUP3 SWAP1 POP SWAP3 SWAP2 POP POP JUMP JUMPDEST PUSH1 0x17 DUP2 PUSH8 0xFFFFFFFFFFFFFFFF AND GT PUSH2 0x25F3 JUMPI PUSH2 0x25ED DUP2 PUSH1 0x5 DUP5 PUSH1 0xFF AND SWAP1 SHL PUSH1 0xFF AND OR DUP5 PUSH0 ADD MLOAD PUSH2 0x2775 SWAP1 SWAP2 SWAP1 PUSH4 0xFFFFFFFF AND JUMP JUMPDEST POP PUSH2 0x2754 JUMP JUMPDEST PUSH1 0xFF DUP2 PUSH8 0xFFFFFFFFFFFFFFFF AND GT PUSH2 0x264F JUMPI PUSH2 0x2625 PUSH1 0x18 PUSH1 0x5 DUP5 PUSH1 0xFF AND SWAP1 SHL OR DUP5 PUSH0 ADD MLOAD PUSH2 0x2775 SWAP1 SWAP2 SWAP1 PUSH4 0xFFFFFFFF AND JUMP JUMPDEST POP PUSH2 0x2649 DUP2 PUSH8 0xFFFFFFFFFFFFFFFF AND PUSH1 0x1 DUP6 PUSH0 ADD MLOAD PUSH2 0x2801 SWAP1 SWAP3 SWAP2 SWAP1 PUSH4 0xFFFFFFFF AND JUMP JUMPDEST POP PUSH2 0x2753 JUMP JUMPDEST PUSH2 0xFFFF DUP2 PUSH8 0xFFFFFFFFFFFFFFFF AND GT PUSH2 0x26AC JUMPI PUSH2 0x2682 PUSH1 0x19 PUSH1 0x5 DUP5 PUSH1 0xFF AND SWAP1 SHL OR DUP5 PUSH0 ADD MLOAD PUSH2 0x2775 SWAP1 SWAP2 SWAP1 PUSH4 0xFFFFFFFF AND JUMP JUMPDEST POP PUSH2 0x26A6 DUP2 PUSH8 0xFFFFFFFFFFFFFFFF AND PUSH1 0x2 DUP6 PUSH0 ADD MLOAD PUSH2 0x2801 SWAP1 SWAP3 SWAP2 SWAP1 PUSH4 0xFFFFFFFF AND JUMP JUMPDEST POP PUSH2 0x2752 JUMP JUMPDEST PUSH4 0xFFFFFFFF DUP2 PUSH8 0xFFFFFFFFFFFFFFFF AND GT PUSH2 0x270B JUMPI PUSH2 0x26E1 PUSH1 0x1A PUSH1 0x5 DUP5 PUSH1 0xFF AND SWAP1 SHL OR DUP5 PUSH0 ADD MLOAD PUSH2 0x2775 SWAP1 SWAP2 SWAP1 PUSH4 0xFFFFFFFF AND JUMP JUMPDEST POP PUSH2 0x2705 DUP2 PUSH8 0xFFFFFFFFFFFFFFFF AND PUSH1 0x4 DUP6 PUSH0 ADD MLOAD PUSH2 0x2801 SWAP1 SWAP3 SWAP2 SWAP1 PUSH4 0xFFFFFFFF AND JUMP JUMPDEST POP PUSH2 0x2751 JUMP JUMPDEST PUSH2 0x272B PUSH1 0x1B PUSH1 0x5 DUP5 PUSH1 0xFF AND SWAP1 SHL OR DUP5 PUSH0 ADD MLOAD PUSH2 0x2775 SWAP1 SWAP2 SWAP1 PUSH4 0xFFFFFFFF AND JUMP JUMPDEST POP PUSH2 0x274F DUP2 PUSH8 0xFFFFFFFFFFFFFFFF AND PUSH1 0x8 DUP6 PUSH0 ADD MLOAD PUSH2 0x2801 SWAP1 SWAP3 SWAP2 SWAP1 PUSH4 0xFFFFFFFF AND JUMP JUMPDEST POP JUMPDEST JUMPDEST JUMPDEST JUMPDEST POP POP POP JUMP JUMPDEST PUSH2 0x2761 PUSH2 0x2A54 JUMP JUMPDEST PUSH2 0x276D DUP4 DUP4 DUP5 MLOAD PUSH2 0x288A JUMP JUMPDEST SWAP1 POP SWAP3 SWAP2 POP POP JUMP JUMPDEST PUSH2 0x277D PUSH2 0x2A54 JUMP JUMPDEST PUSH0 DUP4 PUSH0 ADD MLOAD MLOAD SWAP1 POP PUSH0 PUSH1 0x1 DUP3 PUSH2 0x2793 SWAP2 SWAP1 PUSH2 0x3A92 JUMP JUMPDEST SWAP1 POP DUP5 PUSH1 0x20 ADD MLOAD DUP3 LT PUSH2 0x27B7 JUMPI PUSH2 0x27B6 DUP6 PUSH1 0x2 DUP4 PUSH2 0x27B1 SWAP2 SWAP1 PUSH2 0x3965 JUMP JUMPDEST PUSH2 0x2967 JUMP JUMPDEST JUMPDEST DUP5 MLOAD PUSH1 0x20 DUP4 DUP3 ADD ADD DUP6 DUP2 MSTORE8 DUP2 MLOAD DUP4 GT ISZERO PUSH2 0x27CF JUMPI DUP3 DUP3 MSTORE JUMPDEST POP POP DUP5 SWAP3 POP POP POP SWAP3 SWAP2 POP POP JUMP JUMPDEST PUSH2 0x27FC PUSH1 0x1F PUSH1 0x5 DUP4 PUSH1 0xFF AND SWAP1 SHL OR DUP4 PUSH0 ADD MLOAD PUSH2 0x2775 SWAP1 SWAP2 SWAP1 PUSH4 0xFFFFFFFF AND JUMP JUMPDEST POP POP POP JUMP JUMPDEST PUSH2 0x2809 PUSH2 0x2A54 JUMP JUMPDEST PUSH0 DUP5 PUSH0 ADD MLOAD MLOAD SWAP1 POP PUSH0 DUP2 DUP5 PUSH2 0x281E SWAP2 SWAP1 PUSH2 0x3A92 JUMP JUMPDEST SWAP1 POP DUP6 PUSH1 0x20 ADD MLOAD DUP2 GT ISZERO PUSH2 0x2843 JUMPI PUSH2 0x2842 DUP7 PUSH1 0x2 DUP4 PUSH2 0x283D SWAP2 SWAP1 PUSH2 0x3965 JUMP JUMPDEST PUSH2 0x2967 JUMP JUMPDEST JUMPDEST PUSH0 PUSH1 0x1 DUP6 PUSH2 0x100 PUSH2 0x2854 SWAP2 SWAP1 PUSH2 0x4195 JUMP JUMPDEST PUSH2 0x285E SWAP2 SWAP1 PUSH2 0x3AEC JUMP JUMPDEST SWAP1 POP DUP7 MLOAD DUP3 DUP2 ADD DUP8 DUP4 NOT DUP3 MLOAD AND OR DUP2 MSTORE DUP2 MLOAD DUP5 GT ISZERO PUSH2 0x287B JUMPI DUP4 DUP3 MSTORE JUMPDEST POP POP DUP7 SWAP4 POP POP POP POP SWAP4 SWAP3 POP POP POP JUMP JUMPDEST PUSH2 0x2892 PUSH2 0x2A54 JUMP JUMPDEST DUP3 MLOAD DUP3 GT ISZERO PUSH2 0x289F JUMPI PUSH0 DUP1 REVERT JUMPDEST PUSH0 DUP5 PUSH0 ADD MLOAD MLOAD SWAP1 POP PUSH0 DUP4 DUP3 PUSH2 0x28B4 SWAP2 SWAP1 PUSH2 0x3A92 JUMP JUMPDEST SWAP1 POP DUP6 PUSH1 0x20 ADD MLOAD DUP2 GT ISZERO PUSH2 0x28D9 JUMPI PUSH2 0x28D8 DUP7 PUSH1 0x2 DUP4 PUSH2 0x28D3 SWAP2 SWAP1 PUSH2 0x3965 JUMP JUMPDEST PUSH2 0x2967 JUMP JUMPDEST JUMPDEST PUSH0 DUP1 DUP8 MLOAD DUP1 MLOAD DUP6 PUSH1 0x20 DUP4 ADD ADD SWAP4 POP DUP1 DUP6 GT ISZERO PUSH2 0x28F3 JUMPI DUP5 DUP3 MSTORE JUMPDEST PUSH1 0x20 DUP10 ADD SWAP3 POP POP POP JUMPDEST PUSH1 0x20 DUP7 LT PUSH2 0x293A JUMPI DUP1 MLOAD DUP3 MSTORE PUSH1 0x20 DUP3 PUSH2 0x2915 SWAP2 SWAP1 PUSH2 0x3A92 JUMP JUMPDEST SWAP2 POP PUSH1 0x20 DUP2 PUSH2 0x2924 SWAP2 SWAP1 PUSH2 0x3A92 JUMP JUMPDEST SWAP1 POP PUSH1 0x20 DUP7 PUSH2 0x2933 SWAP2 SWAP1 PUSH2 0x3AEC JUMP JUMPDEST SWAP6 POP PUSH2 0x28FC JUMP JUMPDEST PUSH0 PUSH1 0x1 DUP8 PUSH1 0x20 SUB PUSH2 0x100 EXP SUB SWAP1 POP DUP1 NOT DUP3 MLOAD AND DUP2 DUP5 MLOAD AND DUP2 DUP2 OR DUP6 MSTORE POP POP POP DUP8 SWAP5 POP POP POP POP POP SWAP4 SWAP3 POP POP POP JUMP JUMPDEST PUSH0 DUP3 PUSH0 ADD MLOAD SWAP1 POP PUSH2 0x2978 DUP4 DUP4 PUSH2 0x2543 JUMP JUMPDEST POP PUSH2 0x2983 DUP4 DUP3 PUSH2 0x2759 JUMP JUMPDEST POP POP POP POP JUMP JUMPDEST PUSH1 0x40 MLOAD DUP1 PUSH1 0xE0 ADD PUSH1 0x40 MSTORE DUP1 PUSH0 PUSH1 0x2 DUP2 GT ISZERO PUSH2 0x29A7 JUMPI PUSH2 0x29A6 PUSH2 0x3E83 JUMP JUMPDEST JUMPDEST DUP2 MSTORE PUSH1 0x20 ADD PUSH0 PUSH1 0x2 DUP2 GT ISZERO PUSH2 0x29BF JUMPI PUSH2 0x29BE PUSH2 0x3E83 JUMP JUMPDEST JUMPDEST DUP2 MSTORE PUSH1 0x20 ADD PUSH0 DUP1 DUP2 GT ISZERO PUSH2 0x29D6 JUMPI PUSH2 0x29D5 PUSH2 0x3E83 JUMP JUMPDEST JUMPDEST DUP2 MSTORE PUSH1 0x20 ADD PUSH1 0x60 DUP2 MSTORE PUSH1 0x20 ADD PUSH1 0x60 DUP2 MSTORE PUSH1 0x20 ADD PUSH1 0x60 DUP2 MSTORE PUSH1 0x20 ADD PUSH1 0x60 DUP2 MSTORE POP SWAP1 JUMP JUMPDEST POP DUP1 SLOAD PUSH2 0x2A04 SWAP1 PUSH2 0x363D JUMP JUMPDEST PUSH0 DUP3 SSTORE DUP1 PUSH1 0x1F LT PUSH2 0x2A15 JUMPI POP PUSH2 0x2A32 JUMP JUMPDEST PUSH1 0x1F ADD PUSH1 0x20 SWAP1 DIV SWAP1 PUSH0 MSTORE PUSH1 0x20 PUSH0 KECCAK256 SWAP1 DUP2 ADD SWAP1 PUSH2 0x2A31 SWAP2 SWAP1 PUSH2 0x2A6D JUMP JUMPDEST JUMPDEST POP JUMP JUMPDEST PUSH1 0x40 MLOAD DUP1 PUSH1 0x40 ADD PUSH1 0x40 MSTORE DUP1 PUSH2 0x2A48 PUSH2 0x2A54 JUMP JUMPDEST DUP2 MSTORE PUSH1 0x20 ADD PUSH0 DUP2 MSTORE POP SWAP1 JUMP JUMPDEST PUSH1 0x40 MLOAD DUP1 PUSH1 0x40 ADD PUSH1 0x40 MSTORE DUP1 PUSH1 0x60 DUP2 MSTORE PUSH1 0x20 ADD PUSH0 DUP2 MSTORE POP SWAP1 JUMP JUMPDEST JUMPDEST DUP1 DUP3 GT ISZERO PUSH2 0x2A84 JUMPI PUSH0 DUP2 PUSH0 SWAP1 SSTORE POP PUSH1 0x1 ADD PUSH2 0x2A6E JUMP JUMPDEST POP SWAP1 JUMP JUMPDEST PUSH0 PUSH1 0x40 MLOAD SWAP1 POP SWAP1 JUMP JUMPDEST PUSH0 DUP1 REVERT JUMPDEST PUSH0 DUP1 REVERT JUMPDEST PUSH0 DUP2 SWAP1 POP SWAP2 SWAP1 POP JUMP JUMPDEST PUSH2 0x2AAB DUP2 PUSH2 0x2A99 JUMP JUMPDEST DUP2 EQ PUSH2 0x2AB5 JUMPI PUSH0 DUP1 REVERT JUMPDEST POP JUMP JUMPDEST PUSH0 DUP2 CALLDATALOAD SWAP1 POP PUSH2 0x2AC6 DUP2 PUSH2 0x2AA2 JUMP JUMPDEST SWAP3 SWAP2 POP POP JUMP JUMPDEST PUSH0 DUP1 REVERT JUMPDEST PUSH0 DUP1 REVERT JUMPDEST PUSH0 PUSH1 0x1F NOT PUSH1 0x1F DUP4 ADD AND SWAP1 POP SWAP2 SWAP1 POP JUMP JUMPDEST PUSH32 0x4E487B7100000000000000000000000000000000000000000000000000000000 PUSH0 MSTORE PUSH1 0x41 PUSH1 0x4 MSTORE PUSH1 0x24 PUSH0 REVERT JUMPDEST PUSH2 0x2B1A DUP3 PUSH2 0x2AD4 JUMP JUMPDEST DUP2 ADD DUP2 DUP2 LT PUSH8 0xFFFFFFFFFFFFFFFF DUP3 GT OR ISZERO PUSH2 0x2B39 JUMPI PUSH2 0x2B38 PUSH2 0x2AE4 JUMP JUMPDEST JUMPDEST DUP1 PUSH1 0x40 MSTORE POP POP POP JUMP JUMPDEST PUSH0 PUSH2 0x2B4B PUSH2 0x2A88 JUMP JUMPDEST SWAP1 POP PUSH2 0x2B57 DUP3 DUP3 PUSH2 0x2B11 JUMP JUMPDEST SWAP2 SWAP1 POP JUMP JUMPDEST PUSH0 PUSH8 0xFFFFFFFFFFFFFFFF DUP3 GT ISZERO PUSH2 0x2B76 JUMPI PUSH2 0x2B75 PUSH2 0x2AE4 JUMP JUMPDEST JUMPDEST PUSH2 0x2B7F DUP3 PUSH2 0x2AD4 JUMP JUMPDEST SWAP1 POP PUSH1 0x20 DUP2 ADD SWAP1 POP SWAP2 SWAP1 POP JUMP JUMPDEST DUP3 DUP2 DUP4 CALLDATACOPY PUSH0 DUP4 DUP4 ADD MSTORE POP POP POP JUMP JUMPDEST PUSH0 PUSH2 0x2BAC PUSH2 0x2BA7 DUP5 PUSH2 0x2B5C JUMP JUMPDEST PUSH2 0x2B42 JUMP JUMPDEST SWAP1 POP DUP3 DUP2 MSTORE PUSH1 0x20 DUP2 ADD DUP5 DUP5 DUP5 ADD GT ISZERO PUSH2 0x2BC8 JUMPI PUSH2 0x2BC7 PUSH2 0x2AD0 JUMP JUMPDEST JUMPDEST PUSH2 0x2BD3 DUP5 DUP3 DUP6 PUSH2 0x2B8C JUMP JUMPDEST POP SWAP4 SWAP3 POP POP POP JUMP JUMPDEST PUSH0 DUP3 PUSH1 0x1F DUP4 ADD SLT PUSH2 0x2BEF JUMPI PUSH2 0x2BEE PUSH2 0x2ACC JUMP JUMPDEST JUMPDEST DUP2 CALLDATALOAD PUSH2 0x2BFF DUP5 DUP3 PUSH1 0x20 DUP7 ADD PUSH2 0x2B9A JUMP JUMPDEST SWAP2 POP POP SWAP3 SWAP2 POP POP JUMP JUMPDEST PUSH0 DUP1 PUSH0 PUSH1 0x60 DUP5 DUP7 SUB SLT ISZERO PUSH2 0x2C1F JUMPI PUSH2 0x2C1E PUSH2 0x2A91 JUMP JUMPDEST JUMPDEST PUSH0 PUSH2 0x2C2C DUP7 DUP3 DUP8 ADD PUSH2 0x2AB8 JUMP JUMPDEST SWAP4 POP POP PUSH1 0x20 DUP5 ADD CALLDATALOAD PUSH8 0xFFFFFFFFFFFFFFFF DUP2 GT ISZERO PUSH2 0x2C4D JUMPI PUSH2 0x2C4C PUSH2 0x2A95 JUMP JUMPDEST JUMPDEST PUSH2 0x2C59 DUP7 DUP3 DUP8 ADD PUSH2 0x2BDB JUMP JUMPDEST SWAP3 POP POP PUSH1 0x40 DUP5 ADD CALLDATALOAD PUSH8 0xFFFFFFFFFFFFFFFF DUP2 GT ISZERO PUSH2 0x2C7A JUMPI PUSH2 0x2C79 PUSH2 0x2A95 JUMP JUMPDEST JUMPDEST PUSH2 0x2C86 DUP7 DUP3 DUP8 ADD PUSH2 0x2BDB JUMP JUMPDEST SWAP2 POP POP SWAP3 POP SWAP3 POP SWAP3 JUMP JUMPDEST PUSH0 DUP2 SWAP1 POP SWAP2 SWAP1 POP JUMP JUMPDEST PUSH2 0x2CA2 DUP2 PUSH2 0x2C90 JUMP JUMPDEST DUP2 EQ PUSH2 0x2CAC JUMPI PUSH0 DUP1 REVERT JUMPDEST POP JUMP JUMPDEST PUSH0 DUP2 CALLDATALOAD SWAP1 POP PUSH2 0x2CBD DUP2 PUSH2 0x2C99 JUMP JUMPDEST SWAP3 SWAP2 POP POP JUMP JUMPDEST PUSH0 DUP1 REVERT JUMPDEST PUSH0 DUP1 REVERT JUMPDEST PUSH0 DUP1 DUP4 PUSH1 0x1F DUP5 ADD SLT PUSH2 0x2CE0 JUMPI PUSH2 0x2CDF PUSH2 0x2ACC JUMP JUMPDEST JUMPDEST DUP3 CALLDATALOAD SWAP1 POP PUSH8 0xFFFFFFFFFFFFFFFF DUP2 GT ISZERO PUSH2 0x2CFD JUMPI PUSH2 0x2CFC PUSH2 0x2CC3 JUMP JUMPDEST JUMPDEST PUSH1 0x20 DUP4 ADD SWAP2 POP DUP4 PUSH1 0x20 DUP3 MUL DUP4 ADD GT ISZERO PUSH2 0x2D19 JUMPI PUSH2 0x2D18 PUSH2 0x2CC7 JUMP JUMPDEST JUMPDEST SWAP3 POP SWAP3 SWAP1 POP JUMP JUMPDEST PUSH0 DUP1 PUSH0 PUSH1 0x40 DUP5 DUP7 SUB SLT ISZERO PUSH2 0x2D37 JUMPI PUSH2 0x2D36 PUSH2 0x2A91 JUMP JUMPDEST JUMPDEST PUSH0 PUSH2 0x2D44 DUP7 DUP3 DUP8 ADD PUSH2 0x2CAF JUMP JUMPDEST SWAP4 POP POP PUSH1 0x20 DUP5 ADD CALLDATALOAD PUSH8 0xFFFFFFFFFFFFFFFF DUP2 GT ISZERO PUSH2 0x2D65 JUMPI PUSH2 0x2D64 PUSH2 0x2A95 JUMP JUMPDEST JUMPDEST PUSH2 0x2D71 DUP7 DUP3 DUP8 ADD PUSH2 0x2CCB JUMP JUMPDEST SWAP3 POP SWAP3 POP POP SWAP3 POP SWAP3 POP SWAP3 JUMP JUMPDEST PUSH0 DUP1 DUP4 PUSH1 0x1F DUP5 ADD SLT PUSH2 0x2D92 JUMPI PUSH2 0x2D91 PUSH2 0x2ACC JUMP JUMPDEST JUMPDEST DUP3 CALLDATALOAD SWAP1 POP PUSH8 0xFFFFFFFFFFFFFFFF DUP2 GT ISZERO PUSH2 0x2DAF JUMPI PUSH2 0x2DAE PUSH2 0x2CC3 JUMP JUMPDEST JUMPDEST PUSH1 0x20 DUP4 ADD SWAP2 POP DUP4 PUSH1 0x20 DUP3 MUL DUP4 ADD GT ISZERO PUSH2 0x2DCB JUMPI PUSH2 0x2DCA PUSH2 0x2CC7 JUMP JUMPDEST JUMPDEST SWAP3 POP SWAP3 SWAP1 POP JUMP JUMPDEST PUSH0 DUP1 PUSH1 0x20 DUP4 DUP6 SUB SLT ISZERO PUSH2 0x2DE8 JUMPI PUSH2 0x2DE7 PUSH2 0x2A91 JUMP JUMPDEST JUMPDEST PUSH0 DUP4 ADD CALLDATALOAD PUSH8 0xFFFFFFFFFFFFFFFF DUP2 GT ISZERO PUSH2 0x2E05 JUMPI PUSH2 0x2E04 PUSH2 0x2A95 JUMP JUMPDEST JUMPDEST PUSH2 0x2E11 DUP6 DUP3 DUP7 ADD PUSH2 0x2D7D JUMP JUMPDEST SWAP3 POP SWAP3 POP POP SWAP3 POP SWAP3 SWAP1 POP JUMP JUMPDEST PUSH0 PUSH20 0xFFFFFFFFFFFFFFFFFFFFFFFFFFFFFFFFFFFFFFFF DUP3 AND SWAP1 POP SWAP2 SWAP1 POP JUMP JUMPDEST PUSH0 PUSH2 0x2E46 DUP3 PUSH2 0x2E1D JUMP JUMPDEST SWAP1 POP SWAP2 SWAP1 POP JUMP JUMPDEST PUSH2 0x2E56 DUP2 PUSH2 0x2E3C JUMP JUMPDEST DUP2 EQ PUSH2 0x2E60 JUMPI PUSH0 DUP1 REVERT JUMPDEST POP JUMP JUMPDEST PUSH0 DUP2 CALLDATALOAD SWAP1 POP PUSH2 0x2E71 DUP2 PUSH2 0x2E4D JUMP JUMPDEST SWAP3 SWAP2 POP POP JUMP JUMPDEST PUSH0 PUSH1 0x20 DUP3 DUP5 SUB SLT ISZERO PUSH2 0x2E8C JUMPI PUSH2 0x2E8B PUSH2 0x2A91 JUMP JUMPDEST JUMPDEST PUSH0 PUSH2 0x2E99 DUP5 DUP3 DUP6 ADD PUSH2 0x2E63 JUMP JUMPDEST SWAP2 POP POP SWAP3 SWAP2 POP POP JUMP JUMPDEST PUSH2 0x2EAB DUP2 PUSH2 0x2C90 JUMP JUMPDEST DUP3 MSTORE POP POP JUMP JUMPDEST PUSH0 PUSH1 0xFF DUP3 AND SWAP1 POP SWAP2 SWAP1 POP JUMP JUMPDEST PUSH2 0x2EC6 DUP2 PUSH2 0x2EB1 JUMP JUMPDEST DUP3 MSTORE POP POP JUMP JUMPDEST PUSH0 DUP2 MLOAD SWAP1 POP SWAP2 SWAP1 POP JUMP JUMPDEST PUSH0 DUP3 DUP3 MSTORE PUSH1 0x20 DUP3 ADD SWAP1 POP SWAP3 SWAP2 POP POP JUMP JUMPDEST DUP3 DUP2 DUP4 MCOPY PUSH0 DUP4 DUP4 ADD MSTORE POP POP POP JUMP JUMPDEST PUSH0 PUSH2 0x2EFE DUP3 PUSH2 0x2ECC JUMP JUMPDEST PUSH2 0x2F08 DUP2 DUP6 PUSH2 0x2ED6 JUMP JUMPDEST SWAP4 POP PUSH2 0x2F18 DUP2 DUP6 PUSH1 0x20 DUP7 ADD PUSH2 0x2EE6 JUMP JUMPDEST PUSH2 0x2F21 DUP2 PUSH2 0x2AD4 JUMP JUMPDEST DUP5 ADD SWAP2 POP POP SWAP3 SWAP2 POP POP JUMP JUMPDEST PUSH0 DUP2 ISZERO ISZERO SWAP1 POP SWAP2 SWAP1 POP JUMP JUMPDEST PUSH2 0x2F40 DUP2 PUSH2 0x2F2C JUMP JUMPDEST DUP3 MSTORE POP POP JUMP JUMPDEST PUSH0 PUSH1 0xC0 DUP3 ADD SWAP1 POP PUSH2 0x2F59 PUSH0 DUP4 ADD DUP10 PUSH2 0x2EA2 JUMP JUMPDEST PUSH2 0x2F66 PUSH1 0x20 DUP4 ADD DUP9 PUSH2 0x2EA2 JUMP JUMPDEST PUSH2 0x2F73 PUSH1 0x40 DUP4 ADD DUP8 PUSH2 0x2EA2 JUMP JUMPDEST PUSH2 0x2F80 PUSH1 0x60 DUP4 ADD DUP7 PUSH2 0x2EBD JUMP JUMPDEST DUP2 DUP2 SUB PUSH1 0x80 DUP4 ADD MSTORE PUSH2 0x2F92 DUP2 DUP6 PUSH2 0x2EF4 JUMP JUMPDEST SWAP1 POP PUSH2 0x2FA1 PUSH1 0xA0 DUP4 ADD DUP5 PUSH2 0x2F37 JUMP JUMPDEST SWAP8 SWAP7 POP POP POP POP POP POP POP JUMP JUMPDEST PUSH0 DUP1 DUP4 PUSH1 0x1F DUP5 ADD SLT PUSH2 0x2FC1 JUMPI PUSH2 0x2FC0 PUSH2 0x2ACC JUMP JUMPDEST JUMPDEST DUP3 CALLDATALOAD SWAP1 POP PUSH8 0xFFFFFFFFFFFFFFFF DUP2 GT ISZERO PUSH2 0x2FDE JUMPI PUSH2 0x2FDD PUSH2 0x2CC3 JUMP JUMPDEST JUMPDEST PUSH1 0x20 DUP4 ADD SWAP2 POP DUP4 PUSH1 0x1 DUP3 MUL DUP4 ADD GT ISZERO PUSH2 0x2FFA JUMPI PUSH2 0x2FF9 PUSH2 0x2CC7 JUMP JUMPDEST JUMPDEST SWAP3 POP SWAP3 SWAP1 POP JUMP JUMPDEST PUSH0 DUP1 PUSH1 0x20 DUP4 DUP6 SUB SLT ISZERO PUSH2 0x3017 JUMPI PUSH2 0x3016 PUSH2 0x2A91 JUMP JUMPDEST JUMPDEST PUSH0 DUP4 ADD CALLDATALOAD PUSH8 0xFFFFFFFFFFFFFFFF DUP2 GT ISZERO PUSH2 0x3034 JUMPI PUSH2 0x3033 PUSH2 0x2A95 JUMP JUMPDEST JUMPDEST PUSH2 0x3040 DUP6 DUP3 DUP7 ADD PUSH2 0x2FAC JUMP JUMPDEST SWAP3 POP SWAP3 POP POP SWAP3 POP SWAP3 SWAP1 POP JUMP JUMPDEST PUSH0 DUP2 MLOAD SWAP1 POP SWAP2 SWAP1 POP JUMP JUMPDEST PUSH0 DUP3 DUP3 MSTORE PUSH1 0x20 DUP3 ADD SWAP1 POP SWAP3 SWAP2 POP POP JUMP JUMPDEST PUSH0 PUSH2 0x3070 DUP3 PUSH2 0x304C JUMP JUMPDEST PUSH2 0x307A DUP2 DUP6 PUSH2 0x3056 JUMP JUMPDEST SWAP4 POP PUSH2 0x308A DUP2 DUP6 PUSH1 0x20 DUP7 ADD PUSH2 0x2EE6 JUMP JUMPDEST PUSH2 0x3093 DUP2 PUSH2 0x2AD4 JUMP JUMPDEST DUP5 ADD SWAP2 POP POP SWAP3 SWAP2 POP POP JUMP JUMPDEST PUSH0 PUSH1 0x40 DUP3 ADD SWAP1 POP PUSH2 0x30B1 PUSH0 DUP4 ADD DUP6 PUSH2 0x2F37 JUMP JUMPDEST DUP2 DUP2 SUB PUSH1 0x20 DUP4 ADD MSTORE PUSH2 0x30C3 DUP2 DUP5 PUSH2 0x3066 JUMP JUMPDEST SWAP1 POP SWAP4 SWAP3 POP POP POP JUMP JUMPDEST PUSH0 PUSH1 0x20 DUP3 ADD SWAP1 POP PUSH2 0x30DF PUSH0 DUP4 ADD DUP5 PUSH2 0x2EA2 JUMP JUMPDEST SWAP3 SWAP2 POP POP JUMP JUMPDEST PUSH0 PUSH1 0x20 DUP3 DUP5 SUB SLT ISZERO PUSH2 0x30FA JUMPI PUSH2 0x30F9 PUSH2 0x2A91 JUMP JUMPDEST JUMPDEST PUSH0 PUSH2 0x3107 DUP5 DUP3 DUP6 ADD PUSH2 0x2CAF JUMP JUMPDEST SWAP2 POP POP SWAP3 SWAP2 POP POP JUMP JUMPDEST PUSH2 0x3119 DUP2 PUSH2 0x2E3C JUMP JUMPDEST DUP3 MSTORE POP POP JUMP JUMPDEST PUSH0 PUSH1 0x20 DUP3 ADD SWAP1 POP PUSH2 0x3132 PUSH0 DUP4 ADD DUP5 PUSH2 0x3110 JUMP JUMPDEST SWAP3 SWAP2 POP POP JUMP JUMPDEST PUSH0 DUP2 SWAP1 POP SWAP2 SWAP1 POP JUMP JUMPDEST PUSH0 PUSH2 0x315B PUSH2 0x3156 PUSH2 0x3151 DUP5 PUSH2 0x2E1D JUMP JUMPDEST PUSH2 0x3138 JUMP JUMPDEST PUSH2 0x2E1D JUMP JUMPDEST SWAP1 POP SWAP2 SWAP1 POP JUMP JUMPDEST PUSH0 PUSH2 0x316C DUP3 PUSH2 0x3141 JUMP JUMPDEST SWAP1 POP SWAP2 SWAP1 POP JUMP JUMPDEST PUSH0 PUSH2 0x317D DUP3 PUSH2 0x3162 JUMP JUMPDEST SWAP1 POP SWAP2 SWAP1 POP JUMP JUMPDEST PUSH2 0x318D DUP2 PUSH2 0x3173 JUMP JUMPDEST DUP3 MSTORE POP POP JUMP JUMPDEST PUSH0 PUSH1 0x20 DUP3 ADD SWAP1 POP PUSH2 0x31A6 PUSH0 DUP4 ADD DUP5 PUSH2 0x3184 JUMP JUMPDEST SWAP3 SWAP2 POP POP JUMP JUMPDEST PUSH0 PUSH2 0x31B6 DUP3 PUSH2 0x3162 JUMP JUMPDEST SWAP1 POP SWAP2 SWAP1 POP JUMP JUMPDEST PUSH2 0x31C6 DUP2 PUSH2 0x31AC JUMP JUMPDEST DUP3 MSTORE POP POP JUMP JUMPDEST PUSH0 PUSH1 0x20 DUP3 ADD SWAP1 POP PUSH2 0x31DF PUSH0 DUP4 ADD DUP5 PUSH2 0x31BD JUMP JUMPDEST SWAP3 SWAP2 POP POP JUMP JUMPDEST PUSH2 0x31EE DUP2 PUSH2 0x2EB1 JUMP JUMPDEST DUP2 EQ PUSH2 0x31F8 JUMPI PUSH0 DUP1 REVERT JUMPDEST POP JUMP JUMPDEST PUSH0 DUP2 CALLDATALOAD SWAP1 POP PUSH2 0x3209 DUP2 PUSH2 0x31E5 JUMP JUMPDEST SWAP3 SWAP2 POP POP JUMP JUMPDEST PUSH0 PUSH1 0x20 DUP3 DUP5 SUB SLT ISZERO PUSH2 0x3224 JUMPI PUSH2 0x3223 PUSH2 0x2A91 JUMP JUMPDEST JUMPDEST PUSH0 PUSH2 0x3231 DUP5 DUP3 DUP6 ADD PUSH2 0x31FB JUMP JUMPDEST SWAP2 POP POP SWAP3 SWAP2 POP POP JUMP JUMPDEST PUSH32 0x4E6F206163746976652073657373696F6E000000000000000000000000000000 PUSH0 DUP3 ADD MSTORE POP JUMP JUMPDEST PUSH0 PUSH2 0x326E PUSH1 0x11 DUP4 PUSH2 0x2ED6 JUMP JUMPDEST SWAP2 POP PUSH2 0x3279 DUP3 PUSH2 0x323A JUMP JUMPDEST PUSH1 0x20 DUP3 ADD SWAP1 POP SWAP2 SWAP1 POP JUMP JUMPDEST PUSH0 PUSH1 0x20 DUP3 ADD SWAP1 POP DUP2 DUP2 SUB PUSH0 DUP4 ADD MSTORE PUSH2 0x329B DUP2 PUSH2 0x3262 JUMP JUMPDEST SWAP1 POP SWAP2 SWAP1 POP JUMP JUMPDEST PUSH2 0x32AB DUP2 PUSH2 0x2A99 JUMP JUMPDEST DUP3 MSTORE POP POP JUMP JUMPDEST PUSH2 0x32BA DUP2 PUSH2 0x2C90 JUMP JUMPDEST DUP3 MSTORE POP POP JUMP JUMPDEST PUSH0 PUSH2 0xFFFF DUP3 AND SWAP1 POP SWAP2 SWAP1 POP JUMP JUMPDEST PUSH2 0x32D6 DUP2 PUSH2 0x32C0 JUMP JUMPDEST DUP3 MSTORE POP POP JUMP JUMPDEST PUSH0 PUSH4 0xFFFFFFFF DUP3 AND SWAP1 POP SWAP2 SWAP1 POP JUMP JUMPDEST PUSH2 0x32F4 DUP2 PUSH2 0x32DC JUMP JUMPDEST DUP3 MSTORE POP POP JUMP JUMPDEST PUSH0 DUP3 DUP3 MSTORE PUSH1 0x20 DUP3 ADD SWAP1 POP SWAP3 SWAP2 POP POP JUMP JUMPDEST PUSH0 PUSH2 0x3314 DUP3 PUSH2 0x304C JUMP JUMPDEST PUSH2 0x331E DUP2 DUP6 PUSH2 0x32FA JUMP JUMPDEST SWAP4 POP PUSH2 0x332E DUP2 DUP6 PUSH1 0x20 DUP7 ADD PUSH2 0x2EE6 JUMP JUMPDEST PUSH2 0x3337 DUP2 PUSH2 0x2AD4 JUMP JUMPDEST DUP5 ADD SWAP2 POP POP SWAP3 SWAP2 POP POP JUMP JUMPDEST PUSH0 PUSH1 0xC0 DUP4 ADD PUSH0 DUP4 ADD MLOAD PUSH2 0x3357 PUSH0 DUP7 ADD DUP3 PUSH2 0x32A2 JUMP JUMPDEST POP PUSH1 0x20 DUP4 ADD MLOAD PUSH2 0x336A PUSH1 0x20 DUP7 ADD DUP3 PUSH2 0x32B1 JUMP JUMPDEST POP PUSH1 0x40 DUP4 ADD MLOAD PUSH2 0x337D PUSH1 0x40 DUP7 ADD DUP3 PUSH2 0x32CD JUMP JUMPDEST POP PUSH1 0x60 DUP4 ADD MLOAD PUSH2 0x3390 PUSH1 0x60 DUP7 ADD DUP3 PUSH2 0x32EB JUMP JUMPDEST POP PUSH1 0x80 DUP4 ADD MLOAD PUSH2 0x33A3 PUSH1 0x80 DUP7 ADD DUP3 PUSH2 0x32EB JUMP JUMPDEST POP PUSH1 0xA0 DUP4 ADD MLOAD DUP5 DUP3 SUB PUSH1 0xA0 DUP7 ADD MSTORE PUSH2 0x33BB DUP3 DUP3 PUSH2 0x330A JUMP JUMPDEST SWAP2 POP POP DUP1 SWAP2 POP POP SWAP3 SWAP2 POP POP JUMP JUMPDEST PUSH0 PUSH1 0x20 DUP3 ADD SWAP1 POP DUP2 DUP2 SUB PUSH0 DUP4 ADD MSTORE PUSH2 0x33E0 DUP2 DUP5 PUSH2 0x3342 JUMP JUMPDEST SWAP1 POP SWAP3 SWAP2 POP POP JUMP JUMPDEST PUSH0 DUP2 MLOAD SWAP1 POP PUSH2 0x33F6 DUP2 PUSH2 0x2C99 JUMP JUMPDEST SWAP3 SWAP2 POP POP JUMP JUMPDEST PUSH0 PUSH1 0x20 DUP3 DUP5 SUB SLT ISZERO PUSH2 0x3411 JUMPI PUSH2 0x3410 PUSH2 0x2A91 JUMP JUMPDEST JUMPDEST PUSH0 PUSH2 0x341E DUP5 DUP3 DUP6 ADD PUSH2 0x33E8 JUMP JUMPDEST SWAP2 POP POP SWAP3 SWAP2 POP POP JUMP JUMPDEST PUSH0 PUSH1 0x40 DUP3 ADD SWAP1 POP PUSH2 0x343A PUSH0 DUP4 ADD DUP6 PUSH2 0x3110 JUMP JUMPDEST PUSH2 0x3447 PUSH1 0x20 DUP4 ADD DUP5 PUSH2 0x3110 JUMP JUMPDEST SWAP4 SWAP3 POP POP POP JUMP JUMPDEST PUSH32 0x4163746976652073657373696F6E206578697374730000000000000000000000 PUSH0 DUP3 ADD MSTORE POP JUMP JUMPDEST PUSH0 PUSH2 0x3482 PUSH1 0x15 DUP4 PUSH2 0x2ED6 JUMP JUMPDEST SWAP2 POP PUSH2 0x348D DUP3 PUSH2 0x344E JUMP JUMPDEST PUSH1 0x20 DUP3 ADD SWAP1 POP SWAP2 SWAP1 POP JUMP JUMPDEST PUSH0 PUSH1 0x20 DUP3 ADD SWAP1 POP DUP2 DUP2 SUB PUSH0 DUP4 ADD MSTORE PUSH2 0x34AF DUP2 PUSH2 0x3476 JUMP JUMPDEST SWAP1 POP SWAP2 SWAP1 POP JUMP JUMPDEST PUSH32 0x53656C656374203E3D203420646F6D61696E7300000000000000000000000000 PUSH0 DUP3 ADD MSTORE POP JUMP JUMPDEST PUSH0 PUSH2 0x34EA PUSH1 0x13 DUP4 PUSH2 0x2ED6 JUMP JUMPDEST SWAP2 POP PUSH2 0x34F5 DUP3 PUSH2 0x34B6 JUMP JUMPDEST PUSH1 0x20 DUP3 ADD SWAP1 POP SWAP2 SWAP1 POP JUMP JUMPDEST PUSH0 PUSH1 0x20 DUP3 ADD SWAP1 POP DUP2 DUP2 SUB PUSH0 DUP4 ADD MSTORE PUSH2 0x3517 DUP2 PUSH2 0x34DE JUMP JUMPDEST SWAP1 POP SWAP2 SWAP1 POP JUMP JUMPDEST PUSH0 PUSH1 0x60 DUP3 ADD SWAP1 POP PUSH2 0x3531 PUSH0 DUP4 ADD DUP7 PUSH2 0x3110 JUMP JUMPDEST PUSH2 0x353E PUSH1 0x20 DUP4 ADD DUP6 PUSH2 0x3110 JUMP JUMPDEST PUSH2 0x354B PUSH1 0x40 DUP4 ADD DUP5 PUSH2 0x2EA2 JUMP JUMPDEST SWAP5 SWAP4 POP POP POP POP JUMP JUMPDEST PUSH2 0x355C DUP2 PUSH2 0x2F2C JUMP JUMPDEST DUP2 EQ PUSH2 0x3566 JUMPI PUSH0 DUP1 REVERT JUMPDEST POP JUMP JUMPDEST PUSH0 DUP2 MLOAD SWAP1 POP PUSH2 0x3577 DUP2 PUSH2 0x3553 JUMP JUMPDEST SWAP3 SWAP2 POP POP JUMP JUMPDEST PUSH0 PUSH1 0x20 DUP3 DUP5 SUB SLT ISZERO PUSH2 0x3592 JUMPI PUSH2 0x3591 PUSH2 0x2A91 JUMP JUMPDEST JUMPDEST PUSH0 PUSH2 0x359F DUP5 DUP3 DUP6 ADD PUSH2 0x3569 JUMP JUMPDEST SWAP2 POP POP SWAP3 SWAP2 POP POP JUMP JUMPDEST PUSH32 0x5374616B65207472616E73666572206661696C65640000000000000000000000 PUSH0 DUP3 ADD MSTORE POP JUMP JUMPDEST PUSH0 PUSH2 0x35DC PUSH1 0x15 DUP4 PUSH2 0x2ED6 JUMP JUMPDEST SWAP2 POP PUSH2 0x35E7 DUP3 PUSH2 0x35A8 JUMP JUMPDEST PUSH1 0x20 DUP3 ADD SWAP1 POP SWAP2 SWAP1 POP JUMP JUMPDEST PUSH0 PUSH1 0x20 DUP3 ADD SWAP1 POP DUP2 DUP2 SUB PUSH0 DUP4 ADD MSTORE PUSH2 0x3609 DUP2 PUSH2 0x35D0 JUMP JUMPDEST SWAP1 POP SWAP2 SWAP1 POP JUMP JUMPDEST PUSH32 0x4E487B7100000000000000000000000000000000000000000000000000000000 PUSH0 MSTORE PUSH1 0x22 PUSH1 0x4 MSTORE PUSH1 0x24 PUSH0 REVERT JUMPDEST PUSH0 PUSH1 0x2 DUP3 DIV SWAP1 POP PUSH1 0x1 DUP3 AND DUP1 PUSH2 0x3654 JUMPI PUSH1 0x7F DUP3 AND SWAP2 POP JUMPDEST PUSH1 0x20 DUP3 LT DUP2 SUB PUSH2 0x3667 JUMPI PUSH2 0x3666 PUSH2 0x3610 JUMP JUMPDEST JUMPDEST POP SWAP2 SWAP1 POP JUMP JUMPDEST PUSH0 DUP2 SWAP1 POP DUP2 PUSH0 MSTORE PUSH1 0x20 PUSH0 KECCAK256 SWAP1 POP SWAP2 SWAP1 POP JUMP JUMPDEST PUSH0 PUSH1 0x20 PUSH1 0x1F DUP4 ADD DIV SWAP1 POP SWAP2 SWAP1 POP JUMP JUMPDEST PUSH0 DUP3 DUP3 SHL SWAP1 POP SWAP3 SWAP2 POP POP JUMP JUMPDEST PUSH0 PUSH1 0x8 DUP4 MUL PUSH2 0x36C9 PUSH32 0xFFFFFFFFFFFFFFFFFFFFFFFFFFFFFFFFFFFFFFFFFFFFFFFFFFFFFFFFFFFFFFFF DUP3 PUSH2 0x368E JUMP JUMPDEST PUSH2 0x36D3 DUP7 DUP4 PUSH2 0x368E JUMP JUMPDEST SWAP6 POP DUP1 NOT DUP5 AND SWAP4 POP DUP1 DUP7 AND DUP5 OR SWAP3 POP POP POP SWAP4 SWAP3 POP POP POP JUMP JUMPDEST PUSH0 PUSH2 0x3705 PUSH2 0x3700 PUSH2 0x36FB DUP5 PUSH2 0x2C90 JUMP JUMPDEST PUSH2 0x3138 JUMP JUMPDEST PUSH2 0x2C90 JUMP JUMPDEST SWAP1 POP SWAP2 SWAP1 POP JUMP JUMPDEST PUSH0 DUP2 SWAP1 POP SWAP2 SWAP1 POP JUMP JUMPDEST PUSH2 0x371E DUP4 PUSH2 0x36EB JUMP JUMPDEST PUSH2 0x3732 PUSH2 0x372A DUP3 PUSH2 0x370C JUMP JUMPDEST DUP5 DUP5 SLOAD PUSH2 0x369A JUMP JUMPDEST DUP3 SSTORE POP POP POP POP JUMP JUMPDEST PUSH0 SWAP1 JUMP JUMPDEST PUSH2 0x3746 PUSH2 0x373A JUMP JUMPDEST PUSH2 0x3751 DUP2 DUP5 DUP5 PUSH2 0x3715 JUMP JUMPDEST POP POP POP JUMP JUMPDEST JUMPDEST DUP2 DUP2 LT ISZERO PUSH2 0x3774 JUMPI PUSH2 0x3769 PUSH0 DUP3 PUSH2 0x373E JUMP JUMPDEST PUSH1 0x1 DUP2 ADD SWAP1 POP PUSH2 0x3757 JUMP JUMPDEST POP POP JUMP JUMPDEST PUSH1 0x1F DUP3 GT ISZERO PUSH2 0x37B9 JUMPI PUSH2 0x378A DUP2 PUSH2 0x366D JUMP JUMPDEST PUSH2 0x3793 DUP5 PUSH2 0x367F JUMP JUMPDEST DUP2 ADD PUSH1 0x20 DUP6 LT ISZERO PUSH2 0x37A2 JUMPI DUP2 SWAP1 POP JUMPDEST PUSH2 0x37B6 PUSH2 0x37AE DUP6 PUSH2 0x367F JUMP JUMPDEST DUP4 ADD DUP3 PUSH2 0x3756 JUMP JUMPDEST POP POP JUMPDEST POP POP POP JUMP JUMPDEST PUSH0 DUP3 DUP3 SHR SWAP1 POP SWAP3 SWAP2 POP POP JUMP JUMPDEST PUSH0 PUSH2 0x37D9 PUSH0 NOT DUP5 PUSH1 0x8 MUL PUSH2 0x37BE JUMP JUMPDEST NOT DUP1 DUP4 AND SWAP2 POP POP SWAP3 SWAP2 POP POP JUMP JUMPDEST PUSH0 PUSH2 0x37F1 DUP4 DUP4 PUSH2 0x37CA JUMP JUMPDEST SWAP2 POP DUP3 PUSH1 0x2 MUL DUP3 OR SWAP1 POP SWAP3 SWAP2 POP POP JUMP JUMPDEST PUSH2 0x380A DUP3 PUSH2 0x2ECC JUMP JUMPDEST PUSH8 0xFFFFFFFFFFFFFFFF DUP2 GT ISZERO PUSH2 0x3823 JUMPI PUSH2 0x3822 PUSH2 0x2AE4 JUMP JUMPDEST JUMPDEST PUSH2 0x382D DUP3 SLOAD PUSH2 0x363D JUMP JUMPDEST PUSH2 0x3838 DUP3 DUP3 DUP6 PUSH2 0x3778 JUMP JUMPDEST PUSH0 PUSH1 0x20 SWAP1 POP PUSH1 0x1F DUP4 GT PUSH1 0x1 DUP2 EQ PUSH2 0x3869 JUMPI PUSH0 DUP5 ISZERO PUSH2 0x3857 JUMPI DUP3 DUP8 ADD MLOAD SWAP1 POP JUMPDEST PUSH2 0x3861 DUP6 DUP3 PUSH2 0x37E6 JUMP JUMPDEST DUP7 SSTORE POP PUSH2 0x38C8 JUMP JUMPDEST PUSH1 0x1F NOT DUP5 AND PUSH2 0x3877 DUP7 PUSH2 0x366D JUMP JUMPDEST PUSH0 JUMPDEST DUP3 DUP2 LT ISZERO PUSH2 0x389E JUMPI DUP5 DUP10 ADD MLOAD DUP3 SSTORE PUSH1 0x1 DUP3 ADD SWAP2 POP PUSH1 0x20 DUP6 ADD SWAP5 POP PUSH1 0x20 DUP2 ADD SWAP1 POP PUSH2 0x3879 JUMP JUMPDEST DUP7 DUP4 LT ISZERO PUSH2 0x38BB JUMPI DUP5 DUP10 ADD MLOAD PUSH2 0x38B7 PUSH1 0x1F DUP10 AND DUP3 PUSH2 0x37CA JUMP JUMPDEST DUP4 SSTORE POP JUMPDEST PUSH1 0x1 PUSH1 0x2 DUP9 MUL ADD DUP9 SSTORE POP POP POP JUMPDEST POP POP POP POP POP POP JUMP JUMPDEST PUSH32 0x4E6F7420616C6C207175657374696F6E7320616E737765726564000000000000 PUSH0 DUP3 ADD MSTORE POP JUMP JUMPDEST PUSH0 PUSH2 0x3904 PUSH1 0x1A DUP4 PUSH2 0x2ED6 JUMP JUMPDEST SWAP2 POP PUSH2 0x390F DUP3 PUSH2 0x38D0 JUMP JUMPDEST PUSH1 0x20 DUP3 ADD SWAP1 POP SWAP2 SWAP1 POP JUMP JUMPDEST PUSH0 PUSH1 0x20 DUP3 ADD SWAP1 POP DUP2 DUP2 SUB PUSH0 DUP4 ADD MSTORE PUSH2 0x3931 DUP2 PUSH2 0x38F8 JUMP JUMPDEST SWAP1 POP SWAP2 SWAP1 POP JUMP JUMPDEST PUSH32 0x4E487B7100000000000000000000000000000000000000000000000000000000 PUSH0 MSTORE PUSH1 0x11 PUSH1 0x4 MSTORE PUSH1 0x24 PUSH0 REVERT JUMPDEST PUSH0 PUSH2 0x396F DUP3 PUSH2 0x2C90 JUMP JUMPDEST SWAP2 POP PUSH2 0x397A DUP4 PUSH2 0x2C90 JUMP JUMPDEST SWAP3 POP DUP3 DUP3 MUL PUSH2 0x3988 DUP2 PUSH2 0x2C90 JUMP JUMPDEST SWAP2 POP DUP3 DUP3 DIV DUP5 EQ DUP4 ISZERO OR PUSH2 0x399F JUMPI PUSH2 0x399E PUSH2 0x3938 JUMP JUMPDEST JUMPDEST POP SWAP3 SWAP2 POP POP JUMP JUMPDEST PUSH32 0x4E487B7100000000000000000000000000000000000000000000000000000000 PUSH0 MSTORE PUSH1 0x12 PUSH1 0x4 MSTORE PUSH1 0x24 PUSH0 REVERT JUMPDEST PUSH0 PUSH2 0x39DD DUP3 PUSH2 0x2C90 JUMP JUMPDEST SWAP2 POP PUSH2 0x39E8 DUP4 PUSH2 0x2C90 JUMP JUMPDEST SWAP3 POP DUP3 PUSH2 0x39F8 JUMPI PUSH2 0x39F7 PUSH2 0x39A6 JUMP JUMPDEST JUMPDEST DUP3 DUP3 DIV SWAP1 POP SWAP3 SWAP2 POP POP JUMP JUMPDEST PUSH0 PUSH1 0x40 DUP3 ADD SWAP1 POP PUSH2 0x3A16 PUSH0 DUP4 ADD DUP6 PUSH2 0x3110 JUMP JUMPDEST PUSH2 0x3A23 PUSH1 0x20 DUP4 ADD DUP5 PUSH2 0x2EA2 JUMP JUMPDEST SWAP4 SWAP3 POP POP POP JUMP JUMPDEST PUSH32 0x526577617264207472616E73666572206661696C656400000000000000000000 PUSH0 DUP3 ADD MSTORE POP JUMP JUMPDEST PUSH0 PUSH2 0x3A5E PUSH1 0x16 DUP4 PUSH2 0x2ED6 JUMP JUMPDEST SWAP2 POP PUSH2 0x3A69 DUP3 PUSH2 0x3A2A JUMP JUMPDEST PUSH1 0x20 DUP3 ADD SWAP1 POP SWAP2 SWAP1 POP JUMP JUMPDEST PUSH0 PUSH1 0x20 DUP3 ADD SWAP1 POP DUP2 DUP2 SUB PUSH0 DUP4 ADD MSTORE PUSH2 0x3A8B DUP2 PUSH2 0x3A52 JUMP JUMPDEST SWAP1 POP SWAP2 SWAP1 POP JUMP JUMPDEST PUSH0 PUSH2 0x3A9C DUP3 PUSH2 0x2C90 JUMP JUMPDEST SWAP2 POP PUSH2 0x3AA7 DUP4 PUSH2 0x2C90 JUMP JUMPDEST SWAP3 POP DUP3 DUP3 ADD SWAP1 POP DUP1 DUP3 GT ISZERO PUSH2 0x3ABF JUMPI PUSH2 0x3ABE PUSH2 0x3938 JUMP JUMPDEST JUMPDEST SWAP3 SWAP2 POP POP JUMP JUMPDEST PUSH0 PUSH1 0x40 DUP3 ADD SWAP1 POP PUSH2 0x3AD8 PUSH0 DUP4 ADD DUP6 PUSH2 0x2EBD JUMP JUMPDEST PUSH2 0x3AE5 PUSH1 0x20 DUP4 ADD DUP5 PUSH2 0x2EA2 JUMP JUMPDEST SWAP4 SWAP3 POP POP POP JUMP JUMPDEST PUSH0 PUSH2 0x3AF6 DUP3 PUSH2 0x2C90 JUMP JUMPDEST SWAP2 POP PUSH2 0x3B01 DUP4 PUSH2 0x2C90 JUMP JUMPDEST SWAP3 POP DUP3 DUP3 SUB SWAP1 POP DUP2 DUP2 GT ISZERO PUSH2 0x3B19 JUMPI PUSH2 0x3B18 PUSH2 0x3938 JUMP JUMPDEST JUMPDEST SWAP3 SWAP2 POP POP JUMP JUMPDEST PUSH32 0x4D7573742062652070726F706F736564206F776E657200000000000000000000 PUSH0 DUP3 ADD MSTORE POP JUMP JUMPDEST PUSH0 PUSH2 0x3B53 PUSH1 0x16 DUP4 PUSH2 0x2ED6 JUMP JUMPDEST SWAP2 POP PUSH2 0x3B5E DUP3 PUSH2 0x3B1F JUMP JUMPDEST PUSH1 0x20 DUP3 ADD SWAP1 POP SWAP2 SWAP1 POP JUMP JUMPDEST PUSH0 PUSH1 0x20 DUP3 ADD SWAP1 POP DUP2 DUP2 SUB PUSH0 DUP4 ADD MSTORE PUSH2 0x3B80 DUP2 PUSH2 0x3B47 JUMP JUMPDEST SWAP1 POP SWAP2 SWAP1 POP JUMP JUMPDEST PUSH0 PUSH1 0x60 DUP3 ADD SWAP1 POP PUSH2 0x3B9A PUSH0 DUP4 ADD DUP7 PUSH2 0x3110 JUMP JUMPDEST PUSH2 0x3BA7 PUSH1 0x20 DUP4 ADD DUP6 PUSH2 0x3110 JUMP JUMPDEST PUSH2 0x3BB4 PUSH1 0x40 DUP4 ADD DUP5 PUSH2 0x3110 JUMP JUMPDEST SWAP5 SWAP4 POP POP POP POP JUMP JUMPDEST PUSH32 0x5175697A207374696C6C20696E2070726F677265737300000000000000000000 PUSH0 DUP3 ADD MSTORE POP JUMP JUMPDEST PUSH0 PUSH2 0x3BF0 PUSH1 0x16 DUP4 PUSH2 0x2ED6 JUMP JUMPDEST SWAP2 POP PUSH2 0x3BFB DUP3 PUSH2 0x3BBC JUMP JUMPDEST PUSH1 0x20 DUP3 ADD SWAP1 POP SWAP2 SWAP1 POP JUMP JUMPDEST PUSH0 PUSH1 0x20 DUP3 ADD SWAP1 POP DUP2 DUP2 SUB PUSH0 DUP4 ADD MSTORE PUSH2 0x3C1D DUP2 PUSH2 0x3BE4 JUMP JUMPDEST SWAP1 POP SWAP2 SWAP1 POP JUMP JUMPDEST PUSH32 0x526566756E64207472616E73666572206661696C656400000000000000000000 PUSH0 DUP3 ADD MSTORE POP JUMP JUMPDEST PUSH0 PUSH2 0x3C58 PUSH1 0x16 DUP4 PUSH2 0x2ED6 JUMP JUMPDEST SWAP2 POP PUSH2 0x3C63 DUP3 PUSH2 0x3C24 JUMP JUMPDEST PUSH1 0x20 DUP3 ADD SWAP1 POP SWAP2 SWAP1 POP JUMP JUMPDEST PUSH0 PUSH1 0x20 DUP3 ADD SWAP1 POP DUP2 DUP2 SUB PUSH0 DUP4 ADD MSTORE PUSH2 0x3C85 DUP2 PUSH2 0x3C4C JUMP JUMPDEST SWAP1 POP SWAP2 SWAP1 POP JUMP JUMPDEST PUSH32 0x5175697A20636F6D706C65746564000000000000000000000000000000000000 PUSH0 DUP3 ADD MSTORE POP JUMP JUMPDEST PUSH0 PUSH2 0x3CC0 PUSH1 0xE DUP4 PUSH2 0x2ED6 JUMP JUMPDEST SWAP2 POP PUSH2 0x3CCB DUP3 PUSH2 0x3C8C JUMP JUMPDEST PUSH1 0x20 DUP3 ADD SWAP1 POP SWAP2 SWAP1 POP JUMP JUMPDEST PUSH0 PUSH1 0x20 DUP3 ADD SWAP1 POP DUP2 DUP2 SUB PUSH0 DUP4 ADD MSTORE PUSH2 0x3CED DUP2 PUSH2 0x3CB4 JUMP JUMPDEST SWAP1 POP SWAP2 SWAP1 POP JUMP JUMPDEST PUSH32 0x54696D6520657870697265640000000000000000000000000000000000000000 PUSH0 DUP3 ADD MSTORE POP JUMP JUMPDEST PUSH0 PUSH2 0x3D28 PUSH1 0xC DUP4 PUSH2 0x2ED6 JUMP JUMPDEST SWAP2 POP PUSH2 0x3D33 DUP3 PUSH2 0x3CF4 JUMP JUMPDEST PUSH1 0x20 DUP3 ADD SWAP1 POP SWAP2 SWAP1 POP JUMP JUMPDEST PUSH0 PUSH1 0x20 DUP3 ADD SWAP1 POP DUP2 DUP2 SUB PUSH0 DUP4 ADD MSTORE PUSH2 0x3D55 DUP2 PUSH2 0x3D1C JUMP JUMPDEST SWAP1 POP SWAP2 SWAP1 POP JUMP JUMPDEST PUSH2 0x3D65 DUP2 PUSH2 0x2F2C JUMP JUMPDEST DUP3 MSTORE POP POP JUMP JUMPDEST PUSH1 0x20 DUP3 ADD PUSH0 DUP3 ADD MLOAD PUSH2 0x3D7F PUSH0 DUP6 ADD DUP3 PUSH2 0x3D5C JUMP JUMPDEST POP POP POP POP JUMP JUMPDEST PUSH0 PUSH1 0x20 DUP3 ADD SWAP1 POP PUSH2 0x3D98 PUSH0 DUP4 ADD DUP5 PUSH2 0x3D6B JUMP JUMPDEST SWAP3 SWAP2 POP POP JUMP JUMPDEST PUSH0 PUSH1 0x20 DUP3 ADD SWAP1 POP DUP2 DUP2 SUB PUSH0 DUP4 ADD MSTORE PUSH2 0x3DB6 DUP2 DUP5 PUSH2 0x2EF4 JUMP JUMPDEST SWAP1 POP SWAP3 SWAP2 POP POP JUMP JUMPDEST PUSH32 0x556E6B6E6F776E20565246207265717565737400000000000000000000000000 PUSH0 DUP3 ADD MSTORE POP JUMP JUMPDEST PUSH0 PUSH2 0x3DF2 PUSH1 0x13 DUP4 PUSH2 0x2ED6 JUMP JUMPDEST SWAP2 POP PUSH2 0x3DFD DUP3 PUSH2 0x3DBE JUMP JUMPDEST PUSH1 0x20 DUP3 ADD SWAP1 POP SWAP2 SWAP1 POP JUMP JUMPDEST PUSH0 PUSH1 0x20 DUP3 ADD SWAP1 POP DUP2 DUP2 SUB PUSH0 DUP4 ADD MSTORE PUSH2 0x3E1F DUP2 PUSH2 0x3DE6 JUMP JUMPDEST SWAP1 POP SWAP2 SWAP1 POP JUMP JUMPDEST PUSH32 0x4E487B7100000000000000000000000000000000000000000000000000000000 PUSH0 MSTORE PUSH1 0x32 PUSH1 0x4 MSTORE PUSH1 0x24 PUSH0 REVERT JUMPDEST PUSH0 PUSH2 0x3E5D DUP3 PUSH2 0x2C90 JUMP JUMPDEST SWAP2 POP PUSH2 0x3E68 DUP4 PUSH2 0x2C90 JUMP JUMPDEST SWAP3 POP DUP3 PUSH2 0x3E78 JUMPI PUSH2 0x3E77 PUSH2 0x39A6 JUMP JUMPDEST JUMPDEST DUP3 DUP3 MOD SWAP1 POP SWAP3 SWAP2 POP POP JUMP JUMPDEST PUSH32 0x4E487B7100000000000000000000000000000000000000000000000000000000 PUSH0 MSTORE PUSH1 0x21 PUSH1 0x4 MSTORE PUSH1 0x24 PUSH0 REVERT JUMPDEST PUSH0 PUSH8 0xFFFFFFFFFFFFFFFF DUP3 AND SWAP1 POP SWAP2 SWAP1 POP JUMP JUMPDEST PUSH2 0x3ECC DUP2 PUSH2 0x3EB0 JUMP JUMPDEST DUP3 MSTORE POP POP JUMP JUMPDEST PUSH2 0x3EDB DUP2 PUSH2 0x32C0 JUMP JUMPDEST DUP3 MSTORE POP POP JUMP JUMPDEST PUSH2 0x3EEA DUP2 PUSH2 0x32DC JUMP JUMPDEST DUP3 MSTORE POP POP JUMP JUMPDEST PUSH2 0x3EF9 DUP2 PUSH2 0x2A99 JUMP JUMPDEST DUP3 MSTORE POP POP JUMP JUMPDEST PUSH0 PUSH1 0xA0 DUP3 ADD SWAP1 POP PUSH2 0x3F12 PUSH0 DUP4 ADD DUP9 PUSH2 0x3EC3 JUMP JUMPDEST DUP2 DUP2 SUB PUSH1 0x20 DUP4 ADD MSTORE PUSH2 0x3F24 DUP2 DUP8 PUSH2 0x3066 JUMP JUMPDEST SWAP1 POP PUSH2 0x3F33 PUSH1 0x40 DUP4 ADD DUP7 PUSH2 0x3ED2 JUMP JUMPDEST PUSH2 0x3F40 PUSH1 0x60 DUP4 ADD DUP6 PUSH2 0x3EE1 JUMP JUMPDEST PUSH2 0x3F4D PUSH1 0x80 DUP4 ADD DUP5 PUSH2 0x3EF0 JUMP JUMPDEST SWAP7 SWAP6 POP POP POP POP POP POP JUMP JUMPDEST PUSH0 DUP2 MLOAD SWAP1 POP PUSH2 0x3F65 DUP2 PUSH2 0x2AA2 JUMP JUMPDEST SWAP3 SWAP2 POP POP JUMP JUMPDEST PUSH0 PUSH1 0x20 DUP3 DUP5 SUB SLT ISZERO PUSH2 0x3F80 JUMPI PUSH2 0x3F7F PUSH2 0x2A91 JUMP JUMPDEST JUMPDEST PUSH0 PUSH2 0x3F8D DUP5 DUP3 DUP6 ADD PUSH2 0x3F57 JUMP JUMPDEST SWAP2 POP POP SWAP3 SWAP2 POP POP JUMP JUMPDEST PUSH32 0x4F6E6C792063616C6C61626C65206279206F776E657200000000000000000000 PUSH0 DUP3 ADD MSTORE POP JUMP JUMPDEST PUSH0 PUSH2 0x3FCA PUSH1 0x16 DUP4 PUSH2 0x2ED6 JUMP JUMPDEST SWAP2 POP PUSH2 0x3FD5 DUP3 PUSH2 0x3F96 JUMP JUMPDEST PUSH1 0x20 DUP3 ADD SWAP1 POP SWAP2 SWAP1 POP JUMP JUMPDEST PUSH0 PUSH1 0x20 DUP3 ADD SWAP1 POP DUP2 DUP2 SUB PUSH0 DUP4 ADD MSTORE PUSH2 0x3FF7 DUP2 PUSH2 0x3FBE JUMP JUMPDEST SWAP1 POP SWAP2 SWAP1 POP JUMP JUMPDEST PUSH32 0x43616E6E6F74207472616E7366657220746F2073656C66000000000000000000 PUSH0 DUP3 ADD MSTORE POP JUMP JUMPDEST PUSH0 PUSH2 0x4032 PUSH1 0x17 DUP4 PUSH2 0x2ED6 JUMP JUMPDEST SWAP2 POP PUSH2 0x403D DUP3 PUSH2 0x3FFE JUMP JUMPDEST PUSH1 0x20 DUP3 ADD SWAP1 POP SWAP2 SWAP1 POP JUMP JUMPDEST PUSH0 PUSH1 0x20 DUP3 ADD SWAP1 POP DUP2 DUP2 SUB PUSH0 DUP4 ADD MSTORE PUSH2 0x405F DUP2 PUSH2 0x4026 JUMP JUMPDEST SWAP1 POP SWAP2 SWAP1 POP JUMP JUMPDEST PUSH0 DUP2 PUSH1 0x1 SHR SWAP1 POP SWAP2 SWAP1 POP JUMP JUMPDEST PUSH0 DUP1 DUP3 SWAP2 POP DUP4 SWAP1 POP JUMPDEST PUSH1 0x1 DUP6 GT ISZERO PUSH2 0x40BB JUMPI DUP1 DUP7 DIV DUP2 GT ISZERO PUSH2 0x4097 JUMPI PUSH2 0x4096 PUSH2 0x3938 JUMP JUMPDEST JUMPDEST PUSH1 0x1 DUP6 AND ISZERO PUSH2 0x40A6 JUMPI DUP1 DUP3 MUL SWAP2 POP JUMPDEST DUP1 DUP2 MUL SWAP1 POP PUSH2 0x40B4 DUP6 PUSH2 0x4066 JUMP JUMPDEST SWAP5 POP PUSH2 0x407B JUMP JUMPDEST SWAP5 POP SWAP5 SWAP3 POP POP POP JUMP JUMPDEST PUSH0 DUP3 PUSH2 0x40D3 JUMPI PUSH1 0x1 SWAP1 POP PUSH2 0x418E JUMP JUMPDEST DUP2 PUSH2 0x40E0 JUMPI PUSH0 SWAP1 POP PUSH2 0x418E JUMP JUMPDEST DUP2 PUSH1 0x1 DUP2 EQ PUSH2 0x40F6 JUMPI PUSH1 0x2 DUP2 EQ PUSH2 0x4100 JUMPI PUSH2 0x412F JUMP JUMPDEST PUSH1 0x1 SWAP2 POP POP PUSH2 0x418E JUMP JUMPDEST PUSH1 0xFF DUP5 GT ISZERO PUSH2 0x4112 JUMPI PUSH2 0x4111 PUSH2 0x3938 JUMP JUMPDEST JUMPDEST DUP4 PUSH1 0x2 EXP SWAP2 POP DUP5 DUP3 GT ISZERO PUSH2 0x4129 JUMPI PUSH2 0x4128 PUSH2 0x3938 JUMP JUMPDEST JUMPDEST POP PUSH2 0x418E JUMP JUMPDEST POP PUSH1 0x20 DUP4 LT PUSH2 0x133 DUP4 LT AND PUSH1 0x4E DUP5 LT PUSH1 0xB DUP5 LT AND OR ISZERO PUSH2 0x4164 JUMPI DUP3 DUP3 EXP SWAP1 POP DUP4 DUP2 GT ISZERO PUSH2 0x415F JUMPI PUSH2 0x415E PUSH2 0x3938 JUMP JUMPDEST JUMPDEST PUSH2 0x418E JUMP JUMPDEST PUSH2 0x4171 DUP5 DUP5 DUP5 PUSH1 0x1 PUSH2 0x4072 JUMP JUMPDEST SWAP3 POP SWAP1 POP DUP2 DUP5 DIV DUP2 GT ISZERO PUSH2 0x4188 JUMPI PUSH2 0x4187 PUSH2 0x3938 JUMP JUMPDEST JUMPDEST DUP2 DUP2 MUL SWAP1 POP JUMPDEST SWAP4 SWAP3 POP POP POP JUMP JUMPDEST PUSH0 PUSH2 0x419F DUP3 PUSH2 0x2C90 JUMP JUMPDEST SWAP2 POP PUSH2 0x41AA DUP4 PUSH2 0x2C90 JUMP JUMPDEST SWAP3 POP PUSH2 0x41D7 PUSH32 0xFFFFFFFFFFFFFFFFFFFFFFFFFFFFFFFFFFFFFFFFFFFFFFFFFFFFFFFFFFFFFFFF DUP5 DUP5 PUSH2 0x40C4 JUMP JUMPDEST SWAP1 POP SWAP3 SWAP2 POP POP JUMP INVALID PUSH4 0x6F6E7374 KECCAK256 PUSH22 0x726C203D2060247B617267735B335D7D2F7665726966 PUSH26 0x416E73776572603B0A636F6E7374207061796C6F6164203D204A MSTORE8 0x4F 0x4E 0x2E PUSH20 0x7472696E67696679287B207175697A49643A2061 PUSH19 0x67735B305D2C207175657374696F6E49643A20 PUSH2 0x7267 PUSH20 0x5B315D2C2073656C6563746564496E6465783A20 PUSH17 0x61727365496E7428617267735B325D2920 PUSH30 0x293B0A636F6E737420726573203D2061776169742046756E6374696F6E73 0x2E PUSH14 0x616B654874747052657175657374 0x28 PUSH28 0xA202075726C2C206D6574686F643A2027504F5354272C2068656164 PUSH6 0x72733A207B20 0x27 NUMBER PUSH16 0x6E74656E742D54797065273A20276170 PUSH17 0x6C69636174696F6E2F6A736F6E27207D2C KECCAK256 PUSH5 0x6174613A20 PUSH17 0x61796C6F61640A7D293B0A696628726573 0x2E PUSH6 0x72726F722920 PUSH28 0x207468726F77204572726F72287265732E6572726F722E6D65737361 PUSH8 0x65293B207D0A636F PUSH15 0x7374206973436F7272656374203D20 PUSH19 0x65732E646174612E6973436F7272656374203F KECCAK256 0x27 BALANCE 0x27 KECCAK256 GASPRICE KECCAK256 0x27 ADDRESS 0x27 EXTCODESIZE EXP PUSH19 0x657475726E2046756E6374696F6E732E656E63 PUSH16 0x6465537472696E67286973436F727265 PUSH4 0x74293B0A PUSH4 0x6F6E7374 KECCAK256 PUSH22 0x726C203D2060247B617267735B325D7D2F67656E6572 PUSH2 0x7465 MLOAD PUSH22 0x697A603B0A636F6E7374207061796C6F6164203D204A MSTORE8 0x4F 0x4E 0x2E PUSH20 0x7472696E67696679287B20646F6D61696E733A20 BLOBBASEFEE MSTORE8 0x4F 0x4E 0x2E PUSH17 0x6172736528617267735B305D292C20706C PUSH2 0x7965 PUSH19 0x416464726573733A20617267735B315D207D29 EXTCODESIZE EXP PUSH4 0x6F6E7374 KECCAK256 PUSH19 0x6573203D2061776169742046756E6374696F6E PUSH20 0x2E6D616B654874747052657175657374287B0A20 KECCAK256 PUSH22 0x726C2C206D6574686F643A2027504F5354272C206865 PUSH2 0x6465 PUSH19 0x733A207B2027436F6E74656E742D5479706527 GASPRICE KECCAK256 0x27 PUSH2 0x7070 PUSH13 0x69636174696F6E2F6A736F6E27 KECCAK256 PUSH30 0x2C20646174613A207061796C6F61640A7D293B0A6966287265732E657272 PUSH16 0x7229207B207468726F77204572726F72 0x28 PUSH19 0x65732E6572726F722E6D657373616765293B20 PUSH30 0xA636F6E7374207175697A4964203D207265732E646174612E7175697A49 PUSH5 0x3B0A726574 PUSH22 0x726E2046756E6374696F6E732E656E636F6465537472 PUSH10 0x6E67287175697A496429 EXTCODESIZE EXP LOG2 PUSH5 0x6970667358 0x22 SLT KECCAK256 SWAP16 SWAP5 CALLDATACOPY 0xDA SMOD 0xD1 PUSH32 0x2DBE35148E7BDE5F2ADB236A2675EC40CEE664EB77C5FD9C1064736F6C634300 ADDMOD NOT STOP CALLER "
		},
		"gasEstimates": {
			"creation": {
				"codeDepositCost": "3545600",
				"executionCost": "infinite",
				"totalCost": "infinite"
			},
			"external": {
				"acceptOwnership()": "54556",
				"activePlayers(uint256)": "4966",
				"cancelQuiz()": "infinite",
				"checkUpkeep(bytes)": "infinite",
				"finishQuiz()": "infinite",
				"handleOracleFulfillment(bytes32,bytes,bytes)": "infinite",
				"lastLeaderboardUpdate()": "2536",
				"leaderboardScore(address)": "2891",
				"owner()": "2560",
				"performUpkeep(bytes)": "infinite",
				"quizToken()": "infinite",
				"rawFulfillRandomWords(uint256,uint256[])": "infinite",
				"requestRandomBonus()": "infinite",
				"s_vrfCoordinator()": "infinite",
				"sessions(address)": "infinite",
				"setCoordinator(address)": "infinite",
				"setUpdateInterval(uint256)": "infinite",
				"startQuiz(string[])": "infinite",
				"submitAnswer(uint8)": "infinite",
				"transferOwnership(address)": "30755",
				"updateInterval()": "2557"
			},
			"internal": {
				"_encodeDomains(string calldata[] calldata)": "infinite",
				"_generateQuizSource()": "infinite",
				"_toHexString(address)": "infinite",
				"_uintToString(uint256)": "infinite",
				"_verifyAnswerSource()": "infinite",
				"fulfillAnswerCallback(bytes32,bytes memory,bytes memory)": "infinite",
				"fulfillRandomWords(uint256,uint256[] calldata)": "infinite",
				"fulfillRequest(bytes32,bytes memory,bytes memory)": "infinite"
			}
		},
		"methodIdentifiers": {
			"acceptOwnership()": "79ba5097",
			"activePlayers(uint256)": "b55f108f",
			"cancelQuiz()": "c320c1b9",
			"checkUpkeep(bytes)": "6e04ff0d",
			"finishQuiz()": "330d99d4",
			"handleOracleFulfillment(bytes32,bytes,bytes)": "0ca76175",
			"lastLeaderboardUpdate()": "a2462712",
			"leaderboardScore(address)": "6e56a8e7",
			"owner()": "8da5cb5b",
			"performUpkeep(bytes)": "4585e33b",
			"quizToken()": "b68e71bf",
			"rawFulfillRandomWords(uint256,uint256[])": "1fe543e3",
			"requestRandomBonus()": "02302025",
			"s_vrfCoordinator()": "9eccacf6",
			"sessions(address)": "431a1b97",
			"setCoordinator(address)": "8ea98117",
			"setUpdateInterval(uint256)": "7124c683",
			"startQuiz(string[])": "2ac87aa6",
			"submitAnswer(uint8)": "ec4fd914",
			"transferOwnership(address)": "f2fde38b",
			"updateInterval()": "fd2c80ae"
		}
	},
	"abi": [
		{
			"inputs": [],
			"stateMutability": "nonpayable",
			"type": "constructor"
		},
		{
			"inputs": [],
			"name": "EmptySource",
			"type": "error"
		},
		{
			"inputs": [],
			"name": "NoInlineSecrets",
			"type": "error"
		},
		{
			"inputs": [
				{
					"internalType": "address",
					"name": "have",
					"type": "address"
				},
				{
					"internalType": "address",
					"name": "want",
					"type": "address"
				}
			],
			"name": "OnlyCoordinatorCanFulfill",
			"type": "error"
		},
		{
			"inputs": [
				{
					"internalType": "address",
					"name": "have",
					"type": "address"
				},
				{
					"internalType": "address",
					"name": "owner",
					"type": "address"
				},
				{
					"internalType": "address",
					"name": "coordinator",
					"type": "address"
				}
			],
			"name": "OnlyOwnerOrCoordinator",
			"type": "error"
		},
		{
			"inputs": [],
			"name": "OnlyRouterCanFulfill",
			"type": "error"
		},
		{
			"inputs": [],
			"name": "ZeroAddress",
			"type": "error"
		},
		{
			"anonymous": false,
			"inputs": [
				{
					"indexed": true,
					"internalType": "address",
					"name": "player",
					"type": "address"
				},
				{
					"indexed": false,
					"internalType": "bool",
					"name": "correct",
					"type": "bool"
				},
				{
					"indexed": false,
					"internalType": "uint256",
					"name": "timeElapsed",
					"type": "uint256"
				}
			],
			"name": "AnswerSubmitted",
			"type": "event"
		},
		{
			"anonymous": false,
			"inputs": [
				{
					"indexed": true,
					"internalType": "address",
					"name": "player",
					"type": "address"
				},
				{
					"indexed": false,
					"internalType": "uint256",
					"name": "bonus",
					"type": "uint256"
				}
			],
			"name": "BonusAwarded",
			"type": "event"
		},
		{
			"anonymous": false,
			"inputs": [
				{
					"indexed": false,
					"internalType": "address",
					"name": "vrfCoordinator",
					"type": "address"
				}
			],
			"name": "CoordinatorSet",
			"type": "event"
		},
		{
			"anonymous": false,
			"inputs": [
				{
					"indexed": false,
					"internalType": "uint256",
					"name": "timestamp",
					"type": "uint256"
				}
			],
			"name": "LeaderboardRefreshed",
			"type": "event"
		},
		{
			"anonymous": false,
			"inputs": [
				{
					"indexed": true,
					"internalType": "address",
					"name": "from",
					"type": "address"
				},
				{
					"indexed": true,
					"internalType": "address",
					"name": "to",
					"type": "address"
				}
			],
			"name": "OwnershipTransferRequested",
			"type": "event"
		},
		{
			"anonymous": false,
			"inputs": [
				{
					"indexed": true,
					"internalType": "address",
					"name": "from",
					"type": "address"
				},
				{
					"indexed": true,
					"internalType": "address",
					"name": "to",
					"type": "address"
				}
			],
			"name": "OwnershipTransferred",
			"type": "event"
		},
		{
			"anonymous": false,
			"inputs": [
				{
					"indexed": true,
					"internalType": "address",
					"name": "player",
					"type": "address"
				},
				{
					"indexed": false,
					"internalType": "uint256",
					"name": "refunded",
					"type": "uint256"
				}
			],
			"name": "QuizCancelled",
			"type": "event"
		},
		{
			"anonymous": false,
			"inputs": [
				{
					"indexed": true,
					"internalType": "address",
					"name": "player",
					"type": "address"
				},
				{
					"indexed": false,
					"internalType": "uint8",
					"name": "totalCorrect",
					"type": "uint8"
				},
				{
					"indexed": false,
					"internalType": "uint256",
					"name": "reward",
					"type": "uint256"
				}
			],
			"name": "QuizCompleted",
			"type": "event"
		},
		{
			"anonymous": false,
			"inputs": [
				{
					"indexed": true,
					"internalType": "address",
					"name": "player",
					"type": "address"
				},
				{
					"indexed": false,
					"internalType": "string",
					"name": "quizId",
					"type": "string"
				}
			],
			"name": "QuizGenerated",
			"type": "event"
		},
		{
			"anonymous": false,
			"inputs": [
				{
					"indexed": true,
					"internalType": "address",
					"name": "player",
					"type": "address"
				},
				{
					"indexed": true,
					"internalType": "bytes32",
					"name": "requestId",
					"type": "bytes32"
				}
			],
			"name": "QuizRequested",
			"type": "event"
		},
		{
			"anonymous": false,
			"inputs": [
				{
					"indexed": true,
					"internalType": "address",
					"name": "player",
					"type": "address"
				},
				{
					"indexed": false,
					"internalType": "uint256",
					"name": "requestId",
					"type": "uint256"
				}
			],
			"name": "RandomBonusRequested",
			"type": "event"
		},
		{
			"anonymous": false,
			"inputs": [
				{
					"indexed": true,
					"internalType": "bytes32",
					"name": "id",
					"type": "bytes32"
				}
			],
			"name": "RequestFulfilled",
			"type": "event"
		},
		{
			"anonymous": false,
			"inputs": [
				{
					"indexed": true,
					"internalType": "bytes32",
					"name": "id",
					"type": "bytes32"
				}
			],
			"name": "RequestSent",
			"type": "event"
		},
		{
			"anonymous": false,
			"inputs": [
				{
					"indexed": false,
					"internalType": "uint256",
					"name": "newInterval",
					"type": "uint256"
				}
			],
			"name": "UpdateIntervalSet",
			"type": "event"
		},
		{
			"inputs": [],
			"name": "acceptOwnership",
			"outputs": [],
			"stateMutability": "nonpayable",
			"type": "function"
		},
		{
			"inputs": [
				{
					"internalType": "uint256",
					"name": "",
					"type": "uint256"
				}
			],
			"name": "activePlayers",
			"outputs": [
				{
					"internalType": "address",
					"name": "",
					"type": "address"
				}
			],
			"stateMutability": "view",
			"type": "function"
		},
		{
			"inputs": [],
			"name": "cancelQuiz",
			"outputs": [],
			"stateMutability": "nonpayable",
			"type": "function"
		},
		{
			"inputs": [
				{
					"internalType": "bytes",
					"name": "",
					"type": "bytes"
				}
			],
			"name": "checkUpkeep",
			"outputs": [
				{
					"internalType": "bool",
					"name": "upkeepNeeded",
					"type": "bool"
				},
				{
					"internalType": "bytes",
					"name": "",
					"type": "bytes"
				}
			],
			"stateMutability": "view",
			"type": "function"
		},
		{
			"inputs": [],
			"name": "finishQuiz",
			"outputs": [],
			"stateMutability": "nonpayable",
			"type": "function"
		},
		{
			"inputs": [
				{
					"internalType": "bytes32",
					"name": "requestId",
					"type": "bytes32"
				},
				{
					"internalType": "bytes",
					"name": "response",
					"type": "bytes"
				},
				{
					"internalType": "bytes",
					"name": "err",
					"type": "bytes"
				}
			],
			"name": "handleOracleFulfillment",
			"outputs": [],
			"stateMutability": "nonpayable",
			"type": "function"
		},
		{
			"inputs": [],
			"name": "lastLeaderboardUpdate",
			"outputs": [
				{
					"internalType": "uint256",
					"name": "",
					"type": "uint256"
				}
			],
			"stateMutability": "view",
			"type": "function"
		},
		{
			"inputs": [
				{
					"internalType": "address",
					"name": "",
					"type": "address"
				}
			],
			"name": "leaderboardScore",
			"outputs": [
				{
					"internalType": "uint256",
					"name": "",
					"type": "uint256"
				}
			],
			"stateMutability": "view",
			"type": "function"
		},
		{
			"inputs": [],
			"name": "owner",
			"outputs": [
				{
					"internalType": "address",
					"name": "",
					"type": "address"
				}
			],
			"stateMutability": "view",
			"type": "function"
		},
		{
			"inputs": [
				{
					"internalType": "bytes",
					"name": "",
					"type": "bytes"
				}
			],
			"name": "performUpkeep",
			"outputs": [],
			"stateMutability": "nonpayable",
			"type": "function"
		},
		{
			"inputs": [],
			"name": "quizToken",
			"outputs": [
				{
					"internalType": "contract IERC20",
					"name": "",
					"type": "address"
				}
			],
			"stateMutability": "view",
			"type": "function"
		},
		{
			"inputs": [
				{
					"internalType": "uint256",
					"name": "requestId",
					"type": "uint256"
				},
				{
					"internalType": "uint256[]",
					"name": "randomWords",
					"type": "uint256[]"
				}
			],
			"name": "rawFulfillRandomWords",
			"outputs": [],
			"stateMutability": "nonpayable",
			"type": "function"
		},
		{
			"inputs": [],
			"name": "requestRandomBonus",
			"outputs": [],
			"stateMutability": "nonpayable",
			"type": "function"
		},
		{
			"inputs": [],
			"name": "s_vrfCoordinator",
			"outputs": [
				{
					"internalType": "contract IVRFCoordinatorV2Plus",
					"name": "",
					"type": "address"
				}
			],
			"stateMutability": "view",
			"type": "function"
		},
		{
			"inputs": [
				{
					"internalType": "address",
					"name": "",
					"type": "address"
				}
			],
			"name": "sessions",
			"outputs": [
				{
					"internalType": "uint256",
					"name": "startTime",
					"type": "uint256"
				},
				{
					"internalType": "uint256",
					"name": "questionIndex",
					"type": "uint256"
				},
				{
					"internalType": "uint256",
					"name": "stakeAmount",
					"type": "uint256"
				},
				{
					"internalType": "uint8",
					"name": "correctCount",
					"type": "uint8"
				},
				{
					"internalType": "string",
					"name": "quizId",
					"type": "string"
				},
				{
					"internalType": "bool",
					"name": "isActive",
					"type": "bool"
				}
			],
			"stateMutability": "view",
			"type": "function"
		},
		{
			"inputs": [
				{
					"internalType": "address",
					"name": "_vrfCoordinator",
					"type": "address"
				}
			],
			"name": "setCoordinator",
			"outputs": [],
			"stateMutability": "nonpayable",
			"type": "function"
		},
		{
			"inputs": [
				{
					"internalType": "uint256",
					"name": "_interval",
					"type": "uint256"
				}
			],
			"name": "setUpdateInterval",
			"outputs": [],
			"stateMutability": "nonpayable",
			"type": "function"
		},
		{
			"inputs": [
				{
					"internalType": "string[]",
					"name": "domains",
					"type": "string[]"
				}
			],
			"name": "startQuiz",
			"outputs": [],
			"stateMutability": "nonpayable",
			"type": "function"
		},
		{
			"inputs": [
				{
					"internalType": "uint8",
					"name": "selectedIndex",
					"type": "uint8"
				}
			],
			"name": "submitAnswer",
			"outputs": [],
			"stateMutability": "nonpayable",
			"type": "function"
		},
		{
			"inputs": [
				{
					"internalType": "address",
					"name": "to",
					"type": "address"
				}
			],
			"name": "transferOwnership",
			"outputs": [],
			"stateMutability": "nonpayable",
			"type": "function"
		},
		{
			"inputs": [],
			"name": "updateInterval",
			"outputs": [
				{
					"internalType": "uint256",
					"name": "",
					"type": "uint256"
				}
			],
			"stateMutability": "view",
			"type": "function"
		}
	]
}