{
	"data": {
		"bytecode": {
			"linkReferences": {},
			"object": "610120604052348015610010575f5ffd5b5060405161619138038061619183398181016040528101906100329190610538565b33805f838073ffffffffffffffffffffffffffffffffffffffff1660808173ffffffffffffffffffffffffffffffffffffffff1681525050505f73ffffffffffffffffffffffffffffffffffffffff168273ffffffffffffffffffffffffffffffffffffffff16036100d9576040517f08c379a00000000000000000000000000000000000000000000000000000000081526004016100d0906105f6565b60405180910390fd5b815f5f6101000a81548173ffffffffffffffffffffffffffffffffffffffff021916908373ffffffffffffffffffffffffffffffffffffffff1602179055505f73ffffffffffffffffffffffffffffffffffffffff168173ffffffffffffffffffffffffffffffffffffffff161461015b5761015a8161037260201b60201c565b5b50505060016002819055505f73ffffffffffffffffffffffffffffffffffffffff168473ffffffffffffffffffffffffffffffffffffffff16036101d4576040517f08c379a00000000000000000000000000000000000000000000000000000000081526004016101cb9061065e565b60405180910390fd5b5f73ffffffffffffffffffffffffffffffffffffffff168373ffffffffffffffffffffffffffffffffffffffff1603610242576040517f08c379a0000000000000000000000000000000000000000000000000000000008152600401610239906106c6565b60405180910390fd5b5f73ffffffffffffffffffffffffffffffffffffffff168173ffffffffffffffffffffffffffffffffffffffff16036102b0576040517f08c379a00000000000000000000000000000000000000000000000000000000081526004016102a79061072e565b60405180910390fd5b8373ffffffffffffffffffffffffffffffffffffffff1660a08173ffffffffffffffffffffffffffffffffffffffff16815250508273ffffffffffffffffffffffffffffffffffffffff1660c08173ffffffffffffffffffffffffffffffffffffffff16815250508167ffffffffffffffff1660e08167ffffffffffffffff16815250508073ffffffffffffffffffffffffffffffffffffffff166101008173ffffffffffffffffffffffffffffffffffffffff1681525050505050506107b4565b3373ffffffffffffffffffffffffffffffffffffffff168173ffffffffffffffffffffffffffffffffffffffff16036103e0576040517f08c379a00000000000000000000000000000000000000000000000000000000081526004016103d790610796565b60405180910390fd5b8060015f6101000a81548173ffffffffffffffffffffffffffffffffffffffff021916908373ffffffffffffffffffffffffffffffffffffffff1602179055508073ffffffffffffffffffffffffffffffffffffffff165f5f9054906101000a900473ffffffffffffffffffffffffffffffffffffffff1673ffffffffffffffffffffffffffffffffffffffff167fed8889f560326eb138920d842192f0eb3dd22b4f139c87a2c57538e05bae127860405160405180910390a350565b5f5ffd5b5f73ffffffffffffffffffffffffffffffffffffffff82169050919050565b5f6104ca826104a1565b9050919050565b6104da816104c0565b81146104e4575f5ffd5b50565b5f815190506104f5816104d1565b92915050565b5f67ffffffffffffffff82169050919050565b610517816104fb565b8114610521575f5ffd5b50565b5f815190506105328161050e565b92915050565b5f5f5f5f608085870312156105505761054f61049d565b5b5f61055d878288016104e7565b945050602061056e878288016104e7565b935050604061057f87828801610524565b9250506060610590878288016104e7565b91505092959194509250565b5f82825260208201905092915050565b7f43616e6e6f7420736574206f776e657220746f207a65726f00000000000000005f82015250565b5f6105e060188361059c565b91506105eb826105ac565b602082019050919050565b5f6020820190508181035f83015261060d816105d4565b9050919050565b7f496e76616c696420746f6b656e000000000000000000000000000000000000005f82015250565b5f610648600d8361059c565b915061065382610614565b602082019050919050565b5f6020820190508181035f8301526106758161063c565b9050919050565b7f496e76616c6964207072696365206665656400000000000000000000000000005f82015250565b5f6106b060128361059c565b91506106bb8261067c565b602082019050919050565b5f6020820190508181035f8301526106dd816106a4565b9050919050565b7f496e76616c696420726f757465720000000000000000000000000000000000005f82015250565b5f610718600e8361059c565b9150610723826106e4565b602082019050919050565b5f6020820190508181035f8301526107458161070c565b9050919050565b7f43616e6e6f74207472616e7366657220746f2073656c660000000000000000005f82015250565b5f61078060178361059c565b915061078b8261074c565b602082019050919050565b5f6020820190508181035f8301526107ad81610774565b9050919050565b60805160a05160c05160e051610100516159686108295f395f61147901525f81816103440152818161079e01528181610a10015261136101525f8181610bf501526129ea01525f818161063501528181610de701528181610ef70152611a0701525f8181610368015261247a01526159685ff3fe608060405234801561000f575f5ffd5b506004361061011f575f3560e01c80639779ea46116100ab578063c3865b6c1161006f578063c3865b6c146102b2578063ec4fd914146102ce578063f2fde38b146102ea578063f6d361cc14610306578063f887ea40146103245761011f565b80639779ea4614610230578063aa1fe14f1461024e578063b1724b461461026c578063b68e71bf1461028a578063c320c1b9146102a85761011f565b8063431a1b97116100f2578063431a1b97146101975780637416f166146101cc578063741bef1a146101ea57806379ba5097146102085780638da5cb5b146102125761011f565b806309c1ba2e146101235780630ca76175146101415780630cde9f3c1461015d5780631ca96bed1461017b575b5f5ffd5b61012b610342565b6040516101389190613585565b60405180910390f35b61015b6004803603810190610156919061371e565b610366565b005b610165610428565b60405161017291906137b5565b60405180910390f35b610195600480360381019061019091906139a7565b61044c565b005b6101b160048036038101906101ac9190613a7a565b610b0b565b6040516101c396959493929190613b52565b60405180910390f35b6101d4610bee565b6040516101e19190613bb8565b60405180910390f35b6101f2610bf3565b6040516101ff9190613c2c565b60405180910390f35b610210610c17565b005b61021a610da6565b6040516102279190613c54565b60405180910390f35b610238610dcd565b6040516102459190613c8b565b60405180910390f35b610256610dd4565b6040516102639190613ca4565b60405180910390f35b610274610ddf565b6040516102819190613ca4565b60405180910390f35b610292610de5565b60405161029f9190613cdd565b60405180910390f35b6102b0610e09565b005b6102cc60048036038101906102c7919061371e565b611001565b005b6102e860048036038101906102e39190613d20565b611019565b005b61030460048036038101906102ff9190613a7a565b611458565b005b61030e61146c565b60405161031b9190613ca4565b60405180910390f35b61032c611477565b6040516103399190613c54565b60405180910390f35b7f000000000000000000000000000000000000000000000000000000000000000081565b7f000000000000000000000000000000000000000000000000000000000000000073ffffffffffffffffffffffffffffffffffffffff163373ffffffffffffffffffffffffffffffffffffffff16146103eb576040517fc6829f8300000000000000000000000000000000000000000000000000000000815260040160405180910390fd5b6103f683838361149b565b827f85e1543bf2f84fe80c6badbce3648c8539ad1df4d2b3d822938ca0538be727e660405160405180910390a2505050565b7f66756e2d626173652d7365706f6c69612d31000000000000000000000000000081565b610454611b04565b600583511015610499576040517f08c379a000000000000000000000000000000000000000000000000000000000815260040161049090613d95565b60405180910390fd5b5f82826040516020016104ad929190613de1565b6040516020818303038152906040528051906020012090506040516020016104d490613e43565b6040516020818303038152906040528051906020012081148061051a575060405160200161050190613ea1565b6040516020818303038152906040528051906020012081145b80610548575060405160200161052f90613eff565b6040516020818303038152906040528051906020012081145b610587576040517f08c379a000000000000000000000000000000000000000000000000000000000815260040161057e90613f5d565b60405180910390fd5b5f60035f3373ffffffffffffffffffffffffffffffffffffffff1673ffffffffffffffffffffffffffffffffffffffff1681526020019081526020015f209050806004015f9054906101000a900460ff1615806105f457506101c281600301546105f19190613fa8565b42115b610633576040517f08c379a000000000000000000000000000000000000000000000000000000000815260040161062a90614025565b60405180910390fd5b7f000000000000000000000000000000000000000000000000000000000000000073ffffffffffffffffffffffffffffffffffffffff166323b872dd3330662386f26fc100006040518463ffffffff1660e01b815260040161069793929190614043565b6020604051808303815f875af11580156106b3573d5f5f3e3d5ffd5b505050506040513d601f19601f820116820180604052508101906106d791906140a2565b610716576040517f08c379a000000000000000000000000000000000000000000000000000000000815260040161070d90614117565b60405180910390fd5b5f6107213342611b51565b90506001826004015f6101000a81548160ff0219169083151502179055504282600301819055505f826001015f6101000a81548160ff021916908360ff1602179055505f82600201819055505f8260040160016101000a81548160ff021916908360ff16021790555080825f01908161079a9190614329565b505f7f000000000000000000000000000000000000000000000000000000000000000067ffffffffffffffff160361085357600a8260040160016101000a81548160ff021916908360ff1602179055503373ffffffffffffffffffffffffffffffffffffffff167f24bb3705c7ad2a404fd0ed31143a60ac9c3acf33c50e13c6ffd8d47330c6d9f3828460040160019054906101000a900460ff166040516108439291906143f8565b60405180910390a2505050610afe565b61085b6134bc565b610875610866611ba2565b82611bc590919063ffffffff16565b5f604167ffffffffffffffff811115610891576108906135fa565b5b6040519080825280602002602001820160405280156108c457816020015b60608152602001906001900390816108af5790505b5090506108d088611bd5565b815f815181106108e3576108e2614426565b5b60200260200101819052506108f733611cef565b8160018151811061090b5761090a614426565b5b602002602001018190525061091e611f8a565b8160028151811061093257610931614426565b5b6020026020010181905250610945611fc7565b8160038151811061095957610958614426565b5b602002602001018190525061096c611fe7565b816004815181106109805761097f614426565b5b602002602001018190525086868080601f0160208091040260200160405190810160405280939291908181526020018383808284375f81840152601f19601f82011690508083019250505050505050816005815181106109e3576109e2614426565b5b6020026020010181905250610a01818361202490919063ffffffff16565b5f610a59610a0e8461206b565b7f00000000000000000000000000000000000000000000000000000000000000006207a1207f66756e2d626173652d7365706f6c69612d310000000000000000000000000000612476565b90503360045f8381526020019081526020015f205f6101000a81548173ffffffffffffffffffffffffffffffffffffffff021916908373ffffffffffffffffffffffffffffffffffffffff1602179055503373ffffffffffffffffffffffffffffffffffffffff167e40a08ff8a2c8de3747add6410ec4f7e6f2f1c30043e8dee77f0adae00b356882604051610aef91906137b5565b60405180910390a25050505050505b610b06612555565b505050565b6003602052805f5260405f205f91509050805f018054610b2a90614162565b80601f0160208091040260200160405190810160405280929190818152602001828054610b5690614162565b8015610ba15780601f10610b7857610100808354040283529160200191610ba1565b820191905f5260205f20905b815481529060010190602001808311610b8457829003601f168201915b505050505090806001015f9054906101000a900460ff1690806002015490806003015490806004015f9054906101000a900460ff16908060040160019054906101000a900460ff16905086565b600a81565b7f000000000000000000000000000000000000000000000000000000000000000081565b60015f9054906101000a900473ffffffffffffffffffffffffffffffffffffffff1673ffffffffffffffffffffffffffffffffffffffff163373ffffffffffffffffffffffffffffffffffffffff1614610ca6576040517f08c379a0000000000000000000000000000000000000000000000000000000008152600401610c9d9061449d565b60405180910390fd5b5f5f5f9054906101000a900473ffffffffffffffffffffffffffffffffffffffff169050335f5f6101000a81548173ffffffffffffffffffffffffffffffffffffffff021916908373ffffffffffffffffffffffffffffffffffffffff1602179055505f60015f6101000a81548173ffffffffffffffffffffffffffffffffffffffff021916908373ffffffffffffffffffffffffffffffffffffffff1602179055503373ffffffffffffffffffffffffffffffffffffffff168173ffffffffffffffffffffffffffffffffffffffff167f8be0079c531659141344cd1fd0a4f28419497f9722a3daafe3b4186f6b6457e060405160405180910390a350565b5f5f5f9054906101000a900473ffffffffffffffffffffffffffffffffffffffff16905090565b6207a12081565b66b1a2bc2ec5000081565b6101c281565b7f000000000000000000000000000000000000000000000000000000000000000081565b610e11611b04565b5f60035f3373ffffffffffffffffffffffffffffffffffffffff1673ffffffffffffffffffffffffffffffffffffffff1681526020019081526020015f209050806004015f9054906101000a900460ff16610ea1576040517f08c379a0000000000000000000000000000000000000000000000000000000008152600401610e9890614505565b60405180910390fd5b6101c28160030154610eb39190613fa8565b421115610ef5576040517f08c379a0000000000000000000000000000000000000000000000000000000008152600401610eec9061456d565b60405180910390fd5b7f000000000000000000000000000000000000000000000000000000000000000073ffffffffffffffffffffffffffffffffffffffff1663a9059cbb33662386f26fc100006040518363ffffffff1660e01b8152600401610f5792919061458b565b6020604051808303815f875af1158015610f73573d5f5f3e3d5ffd5b505050506040513d601f19601f82011682018060405250810190610f9791906140a2565b505f816004015f6101000a81548160ff0219169083151502179055503373ffffffffffffffffffffffffffffffffffffffff167fd9ef658e62b2d2ec36ea56e68db6f49dcb5e7977f243f28354069876ad0b90e460405160405180910390a250610fff612555565b565b61100961255f565b61101483838361149b565b505050565b611021611b04565b5f60035f3373ffffffffffffffffffffffffffffffffffffffff1673ffffffffffffffffffffffffffffffffffffffff1681526020019081526020015f209050806004015f9054906101000a900460ff166110b1576040517f08c379a00000000000000000000000000000000000000000000000000000000081526004016110a890614505565b60405180910390fd5b8060040160019054906101000a900460ff1660ff16816001015f9054906101000a900460ff1660ff161061111a576040517f08c379a0000000000000000000000000000000000000000000000000000000008152600401611111906145fc565b60405180910390fd5b6101c2816003015461112c9190613fa8565b42111561116e576040517f08c379a00000000000000000000000000000000000000000000000000000000081526004016111659061456d565b60405180910390fd5b6111766134bc565b6111906111816125ef565b82611bc590919063ffffffff16565b5f600567ffffffffffffffff8111156111ac576111ab6135fa565b5b6040519080825280602002602001820160405280156111df57816020015b60608152602001906001900390816111ca5790505b509050825f0180546111f090614162565b80601f016020809104026020016040519081016040528092919081815260200182805461121c90614162565b80156112675780601f1061123e57610100808354040283529160200191611267565b820191905f5260205f20905b81548152906001019060200180831161124a57829003601f168201915b5050505050815f8151811061127f5761127e614426565b5b602002602001018190525061129333611cef565b816001815181106112a7576112a6614426565b5b60200260200101819052506112ce836001015f9054906101000a900460ff1660ff16612612565b816002815181106112e2576112e1614426565b5b60200260200101819052506112f98460ff16612612565b8160038151811061130d5761130c614426565b5b6020026020010181905250611320611fc7565b8160048151811061133457611333614426565b5b6020026020010181905250611352818361202490919063ffffffff16565b5f6113aa61135f8461206b565b7f00000000000000000000000000000000000000000000000000000000000000006207a1207f66756e2d626173652d7365706f6c69612d310000000000000000000000000000612476565b90503360045f8381526020019081526020015f205f6101000a81548173ffffffffffffffffffffffffffffffffffffffff021916908373ffffffffffffffffffffffffffffffffffffffff1602179055503373ffffffffffffffffffffffffffffffffffffffff167ffe53552c44193345fcdb414850b39531bc6809b125e345b838a108231cbef4158260405161144191906137b5565b60405180910390a250505050611455612555565b50565b61146061255f565b6114698161276a565b50565b662386f26fc1000081565b7f000000000000000000000000000000000000000000000000000000000000000081565b5f60045f8581526020019081526020015f205f9054906101000a900473ffffffffffffffffffffffffffffffffffffffff1690505f73ffffffffffffffffffffffffffffffffffffffff168173ffffffffffffffffffffffffffffffffffffffff160361153d576040517f08c379a000000000000000000000000000000000000000000000000000000000815260040161153490614664565b60405180910390fd5b5f60035f8373ffffffffffffffffffffffffffffffffffffffff1673ffffffffffffffffffffffffffffffffffffffff1681526020019081526020015f209050806004015f9054906101000a900460ff166115cd576040517f08c379a00000000000000000000000000000000000000000000000000000000081526004016115c4906146cc565b60405180910390fd5b60045f8681526020019081526020015f205f6101000a81549073ffffffffffffffffffffffffffffffffffffffff0219169055847facaa717af134f780a4708eb8d27244fee7ecbbbb96c882a85f0e6daab69be0d5858560405161163292919061473c565b60405180910390a25f8351111561169f578260405160200161165491906147f5565b6040516020818303038152906040526040517f08c379a00000000000000000000000000000000000000000000000000000000081526004016116969190614816565b60405180910390fd5b5f8160040160019054906101000a900460ff1660ff1603611868575f5f6116c586612895565b91509150600a60ff16811115611710576040517f08c379a000000000000000000000000000000000000000000000000000000000815260040161170790614880565b60405180910390fd5b5f825111611753576040517f08c379a000000000000000000000000000000000000000000000000000000000815260040161174a906148e8565b60405180910390fd5b825f016040516020016117669190614986565b604051602081830303815290604052805190602001208260405160200161178d91906149cc565b60405160208183030381529060405280519060200120146117e3576040517f08c379a00000000000000000000000000000000000000000000000000000000081526004016117da90614a2c565b60405180910390fd5b808360040160016101000a81548160ff021916908360ff1602179055508373ffffffffffffffffffffffffffffffffffffffff167f24bb3705c7ad2a404fd0ed31143a60ac9c3acf33c50e13c6ffd8d47330c6d9f3838560040160019054906101000a900460ff166040516118599291906143f8565b60405180910390a25050611afd565b5f8451116118ab576040517f08c379a00000000000000000000000000000000000000000000000000000000081526004016118a290614a94565b60405180910390fd5b5f6031855f815181106118c1576118c0614426565b5b602001015160f81c60f81b60f81c60ff1614905080156118f557816002015f8154809291906118ef90614ab2565b91905055505b8273ffffffffffffffffffffffffffffffffffffffff167f718b4e7fa380adc3868add3b0f2b8e35c61335e0afbc69549d60f0cf3c2f7cde82846001015f9054906101000a900460ff1660405161194d929190614af9565b60405180910390a2816001015f81819054906101000a900460ff168092919061197590614b20565b91906101000a81548160ff021916908360ff160217905550508160040160019054906101000a900460ff1660ff16826001015f9054906101000a900460ff1660ff1610611afb575f826004015f6101000a81548160ff0219169083151502179055505f66b1a2bc2ec5000083600201546119ef9190614b48565b90505f6119fb826129e6565b90505f821115611aa2577f000000000000000000000000000000000000000000000000000000000000000073ffffffffffffffffffffffffffffffffffffffff1663a9059cbb86846040518363ffffffff1660e01b8152600401611a6092919061458b565b6020604051808303815f875af1158015611a7c573d5f5f3e3d5ffd5b505050506040513d601f19601f82011682018060405250810190611aa091906140a2565b505b8473ffffffffffffffffffffffffffffffffffffffff167fa0d4582659e33ebf7e1e80b7fd9c16d821a7f74598c47a09f3b891b428e268cb85600201548484604051611af093929190614b89565b60405180910390a250505b505b5050505050565b6002805403611b48576040517f08c379a0000000000000000000000000000000000000000000000000000000008152600401611b3f90614c08565b60405180910390fd5b60028081905550565b60605f8383604051602001611b67929190614c8b565b604051602081830303815290604052805190602001209050611b996305f5e100825f1c611b949190614ce3565b612ae4565b91505092915050565b6060604051806102c0016040528061029081526020016156a36102909139905090565b611bd1825f5f84612c9b565b5050565b60605f6040518060400160405280600181526020017f5b0000000000000000000000000000000000000000000000000000000000000081525090505f5b8351811015611cc65781848281518110611c2f57611c2e614426565b5b602002602001015160018651611c459190614d13565b8310611c5f5760405180602001604052805f815250611c96565b6040518060400160405280600181526020017f2c000000000000000000000000000000000000000000000000000000000000008152505b604051602001611ca893929190614d90565b60405160208183030381529060405291508080600101915050611c12565b5080604051602001611cd89190614e20565b604051602081830303815290604052915050919050565b60605f6040518060400160405280601081526020017f303132333435363738396162636465660000000000000000000000000000000081525090505f602a67ffffffffffffffff811115611d4657611d456135fa565b5b6040519080825280601f01601f191660200182016040528015611d785781602001600182028036833780820191505090505b5090507f3000000000000000000000000000000000000000000000000000000000000000815f81518110611daf57611dae614426565b5b60200101907effffffffffffffffffffffffffffffffffffffffffffffffffffffffffffff191690815f1a9053507f780000000000000000000000000000000000000000000000000000000000000081600181518110611e1257611e11614426565b5b60200101907effffffffffffffffffffffffffffffffffffffffffffffffffffffffffffff191690815f1a9053505f8460601b90505f5f90505b6014811015611f7e575f828260148110611e6957611e68614426565b5b1a60f81b60f81c90508460048260ff16901c60ff1681518110611e8f57611e8e614426565b5b602001015160f81c60f81b84600284611ea89190614b48565b6002611eb49190613fa8565b81518110611ec557611ec4614426565b5b60200101907effffffffffffffffffffffffffffffffffffffffffffffffffffffffffffff191690815f1a90535084600f821660ff1681518110611f0c57611f0b614426565b5b602001015160f81c60f81b84600284611f259190614b48565b6003611f319190613fa8565b81518110611f4257611f41614426565b5b60200101907effffffffffffffffffffffffffffffffffffffffffffffffffffffffffffff191690815f1a905350508080600101915050611e4c565b50819350505050919050565b60606040518060400160405280601581526020017f687474703a2f2f6c6f63616c686f73743a353030300000000000000000000000815250905090565b60606040518060600160405280602881526020016154a960289139905090565b60606040518060400160405280600781526020017f5175697a7a657300000000000000000000000000000000000000000000000000815250905090565b5f81510361205e576040517ffe936cb700000000000000000000000000000000000000000000000000000000815260040160405180910390fd5b808260a001819052505050565b60605f612079610100612d41565b90506120c36040518060400160405280600c81526020017f636f64654c6f636174696f6e000000000000000000000000000000000000000081525082612d6690919063ffffffff16565b6120eb835f015160028111156120dc576120db614e41565b5b82612d8e90919063ffffffff16565b6121336040518060400160405280600881526020017f6c616e677561676500000000000000000000000000000000000000000000000081525082612d6690919063ffffffff16565b61215b83604001515f81111561214c5761214b614e41565b5b82612d8e90919063ffffffff16565b6121a36040518060400160405280600681526020017f736f75726365000000000000000000000000000000000000000000000000000081525082612d6690919063ffffffff16565b6121ba836060015182612d6690919063ffffffff16565b5f8360a001515111156122715761220f6040518060400160405280600481526020017f617267730000000000000000000000000000000000000000000000000000000081525082612d6690919063ffffffff16565b61221881612ddd565b5f5f90505b8360a00151518110156122665761225b8460a00151828151811061224457612243614426565b5b602002602001015183612d6690919063ffffffff16565b80600101905061221d565b5061227081612e05565b5b5f83608001515111156123b0575f600281111561229157612290614e41565b5b836020015160028111156122a8576122a7614e41565b5b036122df576040517fa80d31f700000000000000000000000000000000000000000000000000000000815260040160405180910390fd5b6123276040518060400160405280600f81526020017f736563726574734c6f636174696f6e000000000000000000000000000000000081525082612d6690919063ffffffff16565b6123508360200151600281111561234157612340614e41565b5b82612d8e90919063ffffffff16565b6123986040518060400160405280600781526020017f736563726574730000000000000000000000000000000000000000000000000081525082612d6690919063ffffffff16565b6123af836080015182612e2d90919063ffffffff16565b5b5f8360c00151511115612467576124056040518060400160405280600981526020017f627974657341726773000000000000000000000000000000000000000000000081525082612d6690919063ffffffff16565b61240e81612ddd565b5f5f90505b8360c001515181101561245c576124518460c00151828151811061243a57612439614426565b5b602002602001015183612e2d90919063ffffffff16565b806001019050612413565b5061246681612e05565b5b805f01515f0151915050919050565b5f5f7f000000000000000000000000000000000000000000000000000000000000000073ffffffffffffffffffffffffffffffffffffffff1663461d27628688600188886040518663ffffffff1660e01b81526004016124da959493929190614e8a565b6020604051808303815f875af11580156124f6573d5f5f3e3d5ffd5b505050506040513d601f19601f8201168201806040525081019061251a9190614ef6565b9050807f1131472297a800fee664d1d89cfa8f7676ff07189ecc53f80bbb5f4969099db860405160405180910390a280915050949350505050565b6001600281905550565b5f5f9054906101000a900473ffffffffffffffffffffffffffffffffffffffff1673ffffffffffffffffffffffffffffffffffffffff163373ffffffffffffffffffffffffffffffffffffffff16146125ed576040517f08c379a00000000000000000000000000000000000000000000000000000000081526004016125e490614f6b565b60405180910390fd5b565b60606040518061020001604052806101d281526020016154d16101d29139905090565b60605f8203612658576040518060400160405280600181526020017f30000000000000000000000000000000000000000000000000000000000000008152509050612765565b5f5f8390505b5f81111561268857818061267190614ab2565b925050600a816126819190614f89565b905061265e565b505f8167ffffffffffffffff8111156126a4576126a36135fa565b5b6040519080825280601f01601f1916602001820160405280156126d65781602001600182028036833780820191505090505b5090505b5f84111561275f57600a846126ef9190614ce3565b60306126fb9190613fa8565b60f81b818361270990614fb9565b9350838151811061271d5761271c614426565b5b60200101907effffffffffffffffffffffffffffffffffffffffffffffffffffffffffffff191690815f1a905350600a846127589190614f89565b93506126da565b80925050505b919050565b3373ffffffffffffffffffffffffffffffffffffffff168173ffffffffffffffffffffffffffffffffffffffff16036127d8576040517f08c379a00000000000000000000000000000000000000000000000000000000081526004016127cf9061502a565b60405180910390fd5b8060015f6101000a81548173ffffffffffffffffffffffffffffffffffffffff021916908373ffffffffffffffffffffffffffffffffffffffff1602179055508073ffffffffffffffffffffffffffffffffffffffff165f5f9054906101000a900473ffffffffffffffffffffffffffffffffffffffff1673ffffffffffffffffffffffffffffffffffffffff167fed8889f560326eb138920d842192f0eb3dd22b4f139c87a2c57538e05bae127860405160405180910390a350565b60605f5f8390505f8151116128df576040517f08c379a00000000000000000000000000000000000000000000000000000000081526004016128d690614a94565b60405180910390fd5b5f5b8151811080156129345750607c60f81b82828151811061290457612903614426565b5b602001015160f81c60f81b7effffffffffffffffffffffffffffffffffffffffffffffffffffffffffffff191614155b1561294c57808061294490614ab2565b9150506128e1565b8151811061298f576040517f08c379a000000000000000000000000000000000000000000000000000000000815260040161298690615092565b60405180910390fd5b5f61299b835f84612e55565b90505f6129d56129d0856001866129b29190613fa8565b60018789516129c19190614d13565b6129cb9190614d13565b612e55565b612f2f565b905081819550955050505050915091565b5f5f7f000000000000000000000000000000000000000000000000000000000000000073ffffffffffffffffffffffffffffffffffffffff1663feaf968c6040518163ffffffff1660e01b815260040160a060405180830381865afa158015612a51573d5f5f3e3d5ffd5b505050506040513d601f19601f82011682018060405250810190612a75919061514c565b5050509150505f8113612abd576040517f08c379a0000000000000000000000000000000000000000000000000000000008152600401612ab49061520d565b60405180910390fd5b670de0b6b3a76400008184612ad29190614b48565b612adc9190614f89565b915050919050565b60605f6040518060400160405280601081526020017f303132333435363738396162636465660000000000000000000000000000000081525090505f601067ffffffffffffffff811115612b3b57612b3a6135fa565b5b6040519080825280601f01601f191660200182016040528015612b6d5781602001600182028036833780820191505090505b5090505f5f90505b6008811015612c90575f600f826007612b8e9190614d13565b6004612b9a9190614b48565b87901c169050838181518110612bb357612bb2614426565b5b602001015160f81c60f81b83600284612bcc9190614b48565b81518110612bdd57612bdc614426565b5b60200101907effffffffffffffffffffffffffffffffffffffffffffffffffffffffffffff191690815f1a905350838181518110612c1e57612c1d614426565b5b602001015160f81c60f81b836001600285612c399190614b48565b612c439190613fa8565b81518110612c5457612c53614426565b5b60200101907effffffffffffffffffffffffffffffffffffffffffffffffffffffffffffff191690815f1a905350508080600101915050612b75565b508092505050919050565b5f815103612cd5576040517f22ce3edd00000000000000000000000000000000000000000000000000000000815260040160405180910390fd5b82845f01906002811115612cec57612ceb614e41565b5b90816002811115612d0057612cff614e41565b5b815250508184604001905f811115612d1b57612d1a614e41565b5b90815f811115612d2e57612d2d614e41565b5b8152505080846060018190525050505050565b612d4961352b565b612d56815f015183613076565b505f816020018181525050919050565b612d7382600383516130ec565b612d8981835f015161328c90919063ffffffff16565b505050565b612daf60026005600660ff16901b17835f01516132a890919063ffffffff16565b50612dd98282604051602001612dc59190613ca4565b604051602081830303815290604052612e2d565b5050565b612de881600461330f565b600181602001818151612dfb9190613fa8565b9150818152505050565b612e1081600761330f565b600181602001818151612e239190614d13565b9150818152505050565b612e3a82600283516130ec565b612e5081835f015161328c90919063ffffffff16565b505050565b60608167ffffffffffffffff811115612e7157612e706135fa565b5b6040519080825280601f01601f191660200182016040528015612ea35781602001600182028036833780820191505090505b5090505f5b82811015612f2757848185612ebd9190613fa8565b81518110612ece57612ecd614426565b5b602001015160f81c60f81b828281518110612eec57612eeb614426565b5b60200101907effffffffffffffffffffffffffffffffffffffffffffffffffffffffffffff191690815f1a9053508080600101915050612ea8565b509392505050565b5f5f8290505f815111612f77576040517f08c379a0000000000000000000000000000000000000000000000000000000008152600401612f6e90615275565b60405180910390fd5b5f5b815181101561306f576030828281518110612f9757612f96614426565b5b602001015160f81c60f81b60f81c60ff1610158015612fda57506039828281518110612fc657612fc5614426565b5b602001015160f81c60f81b60f81c60ff1611155b613019576040517f08c379a0000000000000000000000000000000000000000000000000000000008152600401613010906152dd565b60405180910390fd5b603082828151811061302e5761302d614426565b5b602001015160f81c60f81b60f81c61304691906152fb565b60ff16600a846130569190614b48565b6130609190613fa8565b92508080600101915050612f79565b5050919050565b61307e61354a565b5f60208361308c9190614ce3565b146130b85760208261309e9190614ce3565b60206130aa9190614d13565b826130b59190613fa8565b91505b818360200181815250506040518084525f8152828101602001818110156130dd575f5ffd5b80604052505082905092915050565b60178167ffffffffffffffff1611613126576131208160058460ff16901b60ff1617845f01516132a890919063ffffffff16565b50613287565b60ff8167ffffffffffffffff161161318257613158601860058460ff16901b17845f01516132a890919063ffffffff16565b5061317c8167ffffffffffffffff166001855f01516133349092919063ffffffff16565b50613286565b61ffff8167ffffffffffffffff16116131df576131b5601960058460ff16901b17845f01516132a890919063ffffffff16565b506131d98167ffffffffffffffff166002855f01516133349092919063ffffffff16565b50613285565b63ffffffff8167ffffffffffffffff161161323e57613214601a60058460ff16901b17845f01516132a890919063ffffffff16565b506132388167ffffffffffffffff166004855f01516133349092919063ffffffff16565b50613284565b61325e601b60058460ff16901b17845f01516132a890919063ffffffff16565b506132828167ffffffffffffffff166008855f01516133349092919063ffffffff16565b505b5b5b5b505050565b61329461354a565b6132a0838384516133bd565b905092915050565b6132b061354a565b5f835f01515190505f6001826132c69190613fa8565b9050846020015182106132ea576132e9856002836132e49190614b48565b61349a565b5b84516020838201018581538151831115613302578282525b5050849250505092915050565b61332f601f60058360ff16901b17835f01516132a890919063ffffffff16565b505050565b61333c61354a565b5f845f01515190505f81846133519190613fa8565b9050856020015181111561337657613375866002836133709190614b48565b61349a565b5b5f600185610100613387919061545e565b6133919190614d13565b9050865182810187831982511617815281518411156133ae578382525b50508693505050509392505050565b6133c561354a565b82518211156133d2575f5ffd5b5f845f01515190505f83826133e79190613fa8565b9050856020015181111561340c5761340b866002836134069190614b48565b61349a565b5b5f5f87518051856020830101935080851115613426578482525b60208901925050505b6020861061346d57805182526020826134489190613fa8565b91506020816134579190613fa8565b90506020866134669190614d13565b955061342f565b5f6001876020036101000a0390508019825116818451168181178552505050879450505050509392505050565b5f825f015190506134ab8383613076565b506134b6838261328c565b50505050565b6040518060e001604052805f60028111156134da576134d9614e41565b5b81526020015f60028111156134f2576134f1614e41565b5b81526020015f5f81111561350957613508614e41565b5b8152602001606081526020016060815260200160608152602001606081525090565b604051806040016040528061353e61354a565b81526020015f81525090565b6040518060400160405280606081526020015f81525090565b5f67ffffffffffffffff82169050919050565b61357f81613563565b82525050565b5f6020820190506135985f830184613576565b92915050565b5f604051905090565b5f5ffd5b5f5ffd5b5f819050919050565b6135c1816135af565b81146135cb575f5ffd5b50565b5f813590506135dc816135b8565b92915050565b5f5ffd5b5f5ffd5b5f601f19601f8301169050919050565b7f4e487b71000000000000000000000000000000000000000000000000000000005f52604160045260245ffd5b613630826135ea565b810181811067ffffffffffffffff8211171561364f5761364e6135fa565b5b80604052505050565b5f61366161359e565b905061366d8282613627565b919050565b5f67ffffffffffffffff82111561368c5761368b6135fa565b5b613695826135ea565b9050602081019050919050565b828183375f83830152505050565b5f6136c26136bd84613672565b613658565b9050828152602081018484840111156136de576136dd6135e6565b5b6136e98482856136a2565b509392505050565b5f82601f830112613705576137046135e2565b5b81356137158482602086016136b0565b91505092915050565b5f5f5f60608486031215613735576137346135a7565b5b5f613742868287016135ce565b935050602084013567ffffffffffffffff811115613763576137626135ab565b5b61376f868287016136f1565b925050604084013567ffffffffffffffff8111156137905761378f6135ab565b5b61379c868287016136f1565b9150509250925092565b6137af816135af565b82525050565b5f6020820190506137c85f8301846137a6565b92915050565b5f67ffffffffffffffff8211156137e8576137e76135fa565b5b602082029050602081019050919050565b5f5ffd5b5f67ffffffffffffffff821115613817576138166135fa565b5b613820826135ea565b9050602081019050919050565b5f61383f61383a846137fd565b613658565b90508281526020810184848401111561385b5761385a6135e6565b5b6138668482856136a2565b509392505050565b5f82601f830112613882576138816135e2565b5b813561389284826020860161382d565b91505092915050565b5f6138ad6138a8846137ce565b613658565b905080838252602082019050602084028301858111156138d0576138cf6137f9565b5b835b8181101561391757803567ffffffffffffffff8111156138f5576138f46135e2565b5b808601613902898261386e565b855260208501945050506020810190506138d2565b5050509392505050565b5f82601f830112613935576139346135e2565b5b813561394584826020860161389b565b91505092915050565b5f5ffd5b5f5f83601f840112613967576139666135e2565b5b8235905067ffffffffffffffff8111156139845761398361394e565b5b6020830191508360018202830111156139a05761399f6137f9565b5b9250929050565b5f5f5f604084860312156139be576139bd6135a7565b5b5f84013567ffffffffffffffff8111156139db576139da6135ab565b5b6139e786828701613921565b935050602084013567ffffffffffffffff811115613a0857613a076135ab565b5b613a1486828701613952565b92509250509250925092565b5f73ffffffffffffffffffffffffffffffffffffffff82169050919050565b5f613a4982613a20565b9050919050565b613a5981613a3f565b8114613a63575f5ffd5b50565b5f81359050613a7481613a50565b92915050565b5f60208284031215613a8f57613a8e6135a7565b5b5f613a9c84828501613a66565b91505092915050565b5f81519050919050565b5f82825260208201905092915050565b8281835e5f83830152505050565b5f613ad782613aa5565b613ae18185613aaf565b9350613af1818560208601613abf565b613afa816135ea565b840191505092915050565b5f60ff82169050919050565b613b1a81613b05565b82525050565b5f819050919050565b613b3281613b20565b82525050565b5f8115159050919050565b613b4c81613b38565b82525050565b5f60c0820190508181035f830152613b6a8189613acd565b9050613b796020830188613b11565b613b866040830187613b29565b613b936060830186613b29565b613ba06080830185613b43565b613bad60a0830184613b11565b979650505050505050565b5f602082019050613bcb5f830184613b11565b92915050565b5f819050919050565b5f613bf4613bef613bea84613a20565b613bd1565b613a20565b9050919050565b5f613c0582613bda565b9050919050565b5f613c1682613bfb565b9050919050565b613c2681613c0c565b82525050565b5f602082019050613c3f5f830184613c1d565b92915050565b613c4e81613a3f565b82525050565b5f602082019050613c675f830184613c45565b92915050565b5f63ffffffff82169050919050565b613c8581613c6d565b82525050565b5f602082019050613c9e5f830184613c7c565b92915050565b5f602082019050613cb75f830184613b29565b92915050565b5f613cc782613bfb565b9050919050565b613cd781613cbd565b82525050565b5f602082019050613cf05f830184613cce565b92915050565b613cff81613b05565b8114613d09575f5ffd5b50565b5f81359050613d1a81613cf6565b92915050565b5f60208284031215613d3557613d346135a7565b5b5f613d4284828501613d0c565b91505092915050565b7f4e656564203e3d203520646f6d61696e730000000000000000000000000000005f82015250565b5f613d7f601183613aaf565b9150613d8a82613d4b565b602082019050919050565b5f6020820190508181035f830152613dac81613d73565b9050919050565b5f81905092915050565b5f613dc88385613db3565b9350613dd58385846136a2565b82840190509392505050565b5f613ded828486613dbd565b91508190509392505050565b7f45617379000000000000000000000000000000000000000000000000000000005f82015250565b5f613e2d600483613db3565b9150613e3882613df9565b600482019050919050565b5f613e4d82613e21565b9150819050919050565b7f4d656469756d00000000000000000000000000000000000000000000000000005f82015250565b5f613e8b600683613db3565b9150613e9682613e57565b600682019050919050565b5f613eab82613e7f565b9150819050919050565b7f48617264000000000000000000000000000000000000000000000000000000005f82015250565b5f613ee9600483613db3565b9150613ef482613eb5565b600482019050919050565b5f613f0982613edd565b9150819050919050565b7f496e76616c696420646966666963756c747900000000000000000000000000005f82015250565b5f613f47601283613aaf565b9150613f5282613f13565b602082019050919050565b5f6020820190508181035f830152613f7481613f3b565b9050919050565b7f4e487b71000000000000000000000000000000000000000000000000000000005f52601160045260245ffd5b5f613fb282613b20565b9150613fbd83613b20565b9250828201905080821115613fd557613fd4613f7b565b5b92915050565b7f5175697a20696e2070726f6772657373000000000000000000000000000000005f82015250565b5f61400f601083613aaf565b915061401a82613fdb565b602082019050919050565b5f6020820190508181035f83015261403c81614003565b9050919050565b5f6060820190506140565f830186613c45565b6140636020830185613c45565b6140706040830184613b29565b949350505050565b61408181613b38565b811461408b575f5ffd5b50565b5f8151905061409c81614078565b92915050565b5f602082840312156140b7576140b66135a7565b5b5f6140c48482850161408e565b91505092915050565b7f466565207472616e73666572206661696c6564000000000000000000000000005f82015250565b5f614101601383613aaf565b915061410c826140cd565b602082019050919050565b5f6020820190508181035f83015261412e816140f5565b9050919050565b7f4e487b71000000000000000000000000000000000000000000000000000000005f52602260045260245ffd5b5f600282049050600182168061417957607f821691505b60208210810361418c5761418b614135565b5b50919050565b5f819050815f5260205f209050919050565b5f6020601f8301049050919050565b5f82821b905092915050565b5f600883026141ee7fffffffffffffffffffffffffffffffffffffffffffffffffffffffffffffffff826141b3565b6141f886836141b3565b95508019841693508086168417925050509392505050565b5f61422a61422561422084613b20565b613bd1565b613b20565b9050919050565b5f819050919050565b61424383614210565b61425761424f82614231565b8484546141bf565b825550505050565b5f5f905090565b61426e61425f565b61427981848461423a565b505050565b5b8181101561429c576142915f82614266565b60018101905061427f565b5050565b601f8211156142e1576142b281614192565b6142bb846141a4565b810160208510156142ca578190505b6142de6142d6856141a4565b83018261427e565b50505b505050565b5f82821c905092915050565b5f6143015f19846008026142e6565b1980831691505092915050565b5f61431983836142f2565b9150826002028217905092915050565b61433282613aa5565b67ffffffffffffffff81111561434b5761434a6135fa565b5b6143558254614162565b6143608282856142a0565b5f60209050601f831160018114614391575f841561437f578287015190505b614389858261430e565b8655506143f0565b601f19841661439f86614192565b5f5b828110156143c6578489015182556001820191506020850194506020810190506143a1565b868310156143e357848901516143df601f8916826142f2565b8355505b6001600288020188555050505b505050505050565b5f6040820190508181035f8301526144108185613acd565b905061441f6020830184613b11565b9392505050565b7f4e487b71000000000000000000000000000000000000000000000000000000005f52603260045260245ffd5b7f4d7573742062652070726f706f736564206f776e6572000000000000000000005f82015250565b5f614487601683613aaf565b915061449282614453565b602082019050919050565b5f6020820190508181035f8301526144b48161447b565b9050919050565b7f4e6f20616374697665207175697a0000000000000000000000000000000000005f82015250565b5f6144ef600e83613aaf565b91506144fa826144bb565b602082019050919050565b5f6020820190508181035f83015261451c816144e3565b9050919050565b7f45787069726564000000000000000000000000000000000000000000000000005f82015250565b5f614557600783613aaf565b915061456282614523565b602082019050919050565b5f6020820190508181035f8301526145848161454b565b9050919050565b5f60408201905061459e5f830185613c45565b6145ab6020830184613b29565b9392505050565b7f5175697a20636f6d706c657465000000000000000000000000000000000000005f82015250565b5f6145e6600d83613aaf565b91506145f1826145b2565b602082019050919050565b5f6020820190508181035f830152614613816145da565b9050919050565b7f556e6b6e6f776e207265717565737400000000000000000000000000000000005f82015250565b5f61464e600f83613aaf565b91506146598261461a565b602082019050919050565b5f6020820190508181035f83015261467b81614642565b9050919050565b7f53657373696f6e20656e646564000000000000000000000000000000000000005f82015250565b5f6146b6600d83613aaf565b91506146c182614682565b602082019050919050565b5f6020820190508181035f8301526146e3816146aa565b9050919050565b5f81519050919050565b5f82825260208201905092915050565b5f61470e826146ea565b61471881856146f4565b9350614728818560208601613abf565b614731816135ea565b840191505092915050565b5f6040820190508181035f8301526147548185613acd565b905081810360208301526147688184614704565b90509392505050565b7f46756e6374696f6e73206572726f723a200000000000000000000000000000005f82015250565b5f6147a5601183613db3565b91506147b082614771565b601182019050919050565b5f81905092915050565b5f6147cf826146ea565b6147d981856147bb565b93506147e9818560208601613abf565b80840191505092915050565b5f6147ff82614799565b915061480b82846147c5565b915081905092915050565b5f6020820190508181035f83015261482e8184613acd565b905092915050565b7f546f6f206d616e79207175657374696f6e7300000000000000000000000000005f82015250565b5f61486a601283613aaf565b915061487582614836565b602082019050919050565b5f6020820190508181035f8301526148978161485e565b9050919050565b7f496e76616c6964207175697a49640000000000000000000000000000000000005f82015250565b5f6148d2600e83613aaf565b91506148dd8261489e565b602082019050919050565b5f6020820190508181035f8301526148ff816148c6565b9050919050565b5f815461491281614162565b61491c8186613db3565b9450600182165f8114614936576001811461494b5761497d565b60ff198316865281151582028601935061497d565b61495485614192565b5f5b8381101561497557815481890152600182019150602081019050614956565b838801955050505b50505092915050565b5f6149918284614906565b915081905092915050565b5f6149a682613aa5565b6149b08185613db3565b93506149c0818560208601613abf565b80840191505092915050565b5f6149d7828461499c565b915081905092915050565b7f5175697a4964206d69736d6174636800000000000000000000000000000000005f82015250565b5f614a16600f83613aaf565b9150614a21826149e2565b602082019050919050565b5f6020820190508181035f830152614a4381614a0a565b9050919050565b7f456d70747920726573706f6e73650000000000000000000000000000000000005f82015250565b5f614a7e600e83613aaf565b9150614a8982614a4a565b602082019050919050565b5f6020820190508181035f830152614aab81614a72565b9050919050565b5f614abc82613b20565b91507fffffffffffffffffffffffffffffffffffffffffffffffffffffffffffffffff8203614aee57614aed613f7b565b5b600182019050919050565b5f604082019050614b0c5f830185613b43565b614b196020830184613b11565b9392505050565b5f614b2a82613b05565b915060ff8203614b3d57614b3c613f7b565b5b600182019050919050565b5f614b5282613b20565b9150614b5d83613b20565b9250828202614b6b81613b20565b91508282048414831517614b8257614b81613f7b565b5b5092915050565b5f606082019050614b9c5f830186613b29565b614ba96020830185613b29565b614bb66040830184613b29565b949350505050565b7f5265656e7472616e637947756172643a207265656e7472616e742063616c6c005f82015250565b5f614bf2601f83613aaf565b9150614bfd82614bbe565b602082019050919050565b5f6020820190508181035f830152614c1f81614be6565b9050919050565b5f8160601b9050919050565b5f614c3c82614c26565b9050919050565b5f614c4d82614c32565b9050919050565b614c65614c6082613a3f565b614c43565b82525050565b5f819050919050565b614c85614c8082613b20565b614c6b565b82525050565b5f614c968285614c54565b601482019150614ca68284614c74565b6020820191508190509392505050565b7f4e487b71000000000000000000000000000000000000000000000000000000005f52601260045260245ffd5b5f614ced82613b20565b9150614cf883613b20565b925082614d0857614d07614cb6565b5b828206905092915050565b5f614d1d82613b20565b9150614d2883613b20565b9250828203905081811115614d4057614d3f613f7b565b5b92915050565b7f22000000000000000000000000000000000000000000000000000000000000005f82015250565b5f614d7a600183613db3565b9150614d8582614d46565b600182019050919050565b5f614d9b828661499c565b9150614da682614d6e565b9150614db2828561499c565b9150614dbd82614d6e565b9150614dc9828461499c565b9150819050949350505050565b7f5d000000000000000000000000000000000000000000000000000000000000005f82015250565b5f614e0a600183613db3565b9150614e1582614dd6565b600182019050919050565b5f614e2b828461499c565b9150614e3682614dfe565b915081905092915050565b7f4e487b71000000000000000000000000000000000000000000000000000000005f52602160045260245ffd5b5f61ffff82169050919050565b614e8481614e6e565b82525050565b5f60a082019050614e9d5f830188613576565b8181036020830152614eaf8187614704565b9050614ebe6040830186614e7b565b614ecb6060830185613c7c565b614ed860808301846137a6565b9695505050505050565b5f81519050614ef0816135b8565b92915050565b5f60208284031215614f0b57614f0a6135a7565b5b5f614f1884828501614ee2565b91505092915050565b7f4f6e6c792063616c6c61626c65206279206f776e6572000000000000000000005f82015250565b5f614f55601683613aaf565b9150614f6082614f21565b602082019050919050565b5f6020820190508181035f830152614f8281614f49565b9050919050565b5f614f9382613b20565b9150614f9e83613b20565b925082614fae57614fad614cb6565b5b828204905092915050565b5f614fc382613b20565b91505f8203614fd557614fd4613f7b565b5b600182039050919050565b7f43616e6e6f74207472616e7366657220746f2073656c660000000000000000005f82015250565b5f615014601783613aaf565b915061501f82614fe0565b602082019050919050565b5f6020820190508181035f83015261504181615008565b9050919050565b7f496e76616c696420726573706f6e736520666f726d61740000000000000000005f82015250565b5f61507c601783613aaf565b915061508782615048565b602082019050919050565b5f6020820190508181035f8301526150a981615070565b9050919050565b5f69ffffffffffffffffffff82169050919050565b6150ce816150b0565b81146150d8575f5ffd5b50565b5f815190506150e9816150c5565b92915050565b5f819050919050565b615101816150ef565b811461510b575f5ffd5b50565b5f8151905061511c816150f8565b92915050565b61512b81613b20565b8114615135575f5ffd5b50565b5f8151905061514681615122565b92915050565b5f5f5f5f5f60a08688031215615165576151646135a7565b5b5f615172888289016150db565b95505060206151838882890161510e565b945050604061519488828901615138565b93505060606151a588828901615138565b92505060806151b6888289016150db565b9150509295509295909350565b7f42616420666565640000000000000000000000000000000000000000000000005f82015250565b5f6151f7600883613aaf565b9150615202826151c3565b602082019050919050565b5f6020820190508181035f830152615224816151eb565b9050919050565b7f496e76616c6964206e756d6265720000000000000000000000000000000000005f82015250565b5f61525f600e83613aaf565b915061526a8261522b565b602082019050919050565b5f6020820190508181035f83015261528c81615253565b9050919050565b7f4e6f6e2d6e756d657269632063686172616374657200000000000000000000005f82015250565b5f6152c7601583613aaf565b91506152d282615293565b602082019050919050565b5f6020820190508181035f8301526152f4816152bb565b9050919050565b5f61530582613b05565b915061531083613b05565b9250828203905060ff81111561532957615328613f7b565b5b92915050565b5f8160011c9050919050565b5f5f8291508390505b6001851115615384578086048111156153605761535f613f7b565b5b600185161561536f5780820291505b808102905061537d8561532f565b9450615344565b94509492505050565b5f8261539c5760019050615457565b816153a9575f9050615457565b81600181146153bf57600281146153c9576153f8565b6001915050615457565b60ff8411156153db576153da613f7b565b5b8360020a9150848211156153f2576153f1613f7b565b5b50615457565b5060208310610133831016604e8410600b841016171561542d5782820a90508381111561542857615427613f7b565b5b615457565b61543a848484600161533b565b9250905081840481111561545157615450613f7b565b5b81810290505b9392505050565b5f61546882613b20565b915061547383613b20565b92506154a07fffffffffffffffffffffffffffffffffffffffffffffffffffffffffffffffff848461538d565b90509291505056fe68747470733a2f2f6377697a72707276797a6e656c7467687a6e6e612e73757061626173652e636f636f6e73742075726c203d20617267735b345d202b20272f766572696679416e73776572273b636f6e737420726573203d2061776169742046756e6374696f6e732e6d616b654874747052657175657374287b202075726c2c20206d6574686f643a2027504f5354272c2020686561646572733a207b27436f6e74656e742d54797065273a20276170706c69636174696f6e2f6a736f6e277d2c2020646174613a204a534f4e2e737472696e67696679287b202020207175697a49643a20617267735b305d2c20202020706c61796572416464726573733a20617267735b315d2c202020207175657374696f6e496e6465783a207061727365496e7428617267735b325d292c2020202073656c6563746564496e6465783a207061727365496e7428617267735b335d2920207d297d293b696620287265732e6572726f7229207b2020636f6e736f6c652e6572726f7228274261636b656e64206572726f723a272c207265732e6572726f72293b202072657475726e2046756e6374696f6e732e656e636f6465537472696e6728273027293b7d72657475726e2046756e6374696f6e732e656e636f6465537472696e67287265732e646174612e6973436f7272656374203f20273127203a20273027293b636f6e73742075726c203d20617267735b325d202b20272f67656e65726174655175697a273b636f6e737420726573203d2061776169742046756e6374696f6e732e6d616b654874747052657175657374287b202075726c2c20206d6574686f643a2027504f5354272c2020686561646572733a207b27436f6e74656e742d54797065273a20276170706c69636174696f6e2f6a736f6e277d2c2020646174613a204a534f4e2e737472696e67696679287b20202020646f6d61696e733a204a534f4e2e706172736528617267735b305d292c20202020706c61796572416464726573733a20617267735b315d2c20202020737570616261736555726c3a20617267735b335d2c202020207461626c653a20617267735b345d2c202020207175697a49643a20617267735b315d2c20202020646966666963756c74793a20617267735b355d20207d297d293b696620287265732e6572726f7229207b2020636f6e736f6c652e6572726f7228274261636b656e64206572726f723a272c207265732e6572726f72293b202072657475726e2046756e6374696f6e732e656e636f6465537472696e6728276572726f727c3027293b7d69662028217265732e646174612e7175697a4964207c7c20217265732e646174612e6e756d5175657374696f6e7329207b2020636f6e736f6c652e6572726f722827496e76616c696420726573706f6e73653a272c207265732e64617461293b202072657475726e2046756e6374696f6e732e656e636f6465537472696e672827696e76616c69647c3027293b7d72657475726e2046756e6374696f6e732e656e636f6465537472696e67287265732e646174612e7175697a4964202b20277c27202b207265732e646174612e6e756d5175657374696f6e73293ba2646970667358221220530149bf8c642a97bb1b627fc76955ed42ff0f0467efc60b2c4e9952feb3799b64736f6c634300081e0033",
			"opcodes": "PUSH2 0x120 PUSH1 0x40 MSTORE CALLVALUE DUP1 ISZERO PUSH2 0x10 JUMPI PUSH0 PUSH0 REVERT JUMPDEST POP PUSH1 0x40 MLOAD PUSH2 0x6191 CODESIZE SUB DUP1 PUSH2 0x6191 DUP4 CODECOPY DUP2 DUP2 ADD PUSH1 0x40 MSTORE DUP2 ADD SWAP1 PUSH2 0x32 SWAP2 SWAP1 PUSH2 0x538 JUMP JUMPDEST CALLER DUP1 PUSH0 DUP4 DUP1 PUSH20 0xFFFFFFFFFFFFFFFFFFFFFFFFFFFFFFFFFFFFFFFF AND PUSH1 0x80 DUP2 PUSH20 0xFFFFFFFFFFFFFFFFFFFFFFFFFFFFFFFFFFFFFFFF AND DUP2 MSTORE POP POP POP PUSH0 PUSH20 0xFFFFFFFFFFFFFFFFFFFFFFFFFFFFFFFFFFFFFFFF AND DUP3 PUSH20 0xFFFFFFFFFFFFFFFFFFFFFFFFFFFFFFFFFFFFFFFF AND SUB PUSH2 0xD9 JUMPI PUSH1 0x40 MLOAD PUSH32 0x8C379A000000000000000000000000000000000000000000000000000000000 DUP2 MSTORE PUSH1 0x4 ADD PUSH2 0xD0 SWAP1 PUSH2 0x5F6 JUMP JUMPDEST PUSH1 0x40 MLOAD DUP1 SWAP2 SUB SWAP1 REVERT JUMPDEST DUP2 PUSH0 PUSH0 PUSH2 0x100 EXP DUP2 SLOAD DUP2 PUSH20 0xFFFFFFFFFFFFFFFFFFFFFFFFFFFFFFFFFFFFFFFF MUL NOT AND SWAP1 DUP4 PUSH20 0xFFFFFFFFFFFFFFFFFFFFFFFFFFFFFFFFFFFFFFFF AND MUL OR SWAP1 SSTORE POP PUSH0 PUSH20 0xFFFFFFFFFFFFFFFFFFFFFFFFFFFFFFFFFFFFFFFF AND DUP2 PUSH20 0xFFFFFFFFFFFFFFFFFFFFFFFFFFFFFFFFFFFFFFFF AND EQ PUSH2 0x15B JUMPI PUSH2 0x15A DUP2 PUSH2 0x372 PUSH1 0x20 SHL PUSH1 0x20 SHR JUMP JUMPDEST JUMPDEST POP POP POP PUSH1 0x1 PUSH1 0x2 DUP2 SWAP1 SSTORE POP PUSH0 PUSH20 0xFFFFFFFFFFFFFFFFFFFFFFFFFFFFFFFFFFFFFFFF AND DUP5 PUSH20 0xFFFFFFFFFFFFFFFFFFFFFFFFFFFFFFFFFFFFFFFF AND SUB PUSH2 0x1D4 JUMPI PUSH1 0x40 MLOAD PUSH32 0x8C379A000000000000000000000000000000000000000000000000000000000 DUP2 MSTORE PUSH1 0x4 ADD PUSH2 0x1CB SWAP1 PUSH2 0x65E JUMP JUMPDEST PUSH1 0x40 MLOAD DUP1 SWAP2 SUB SWAP1 REVERT JUMPDEST PUSH0 PUSH20 0xFFFFFFFFFFFFFFFFFFFFFFFFFFFFFFFFFFFFFFFF AND DUP4 PUSH20 0xFFFFFFFFFFFFFFFFFFFFFFFFFFFFFFFFFFFFFFFF AND SUB PUSH2 0x242 JUMPI PUSH1 0x40 MLOAD PUSH32 0x8C379A000000000000000000000000000000000000000000000000000000000 DUP2 MSTORE PUSH1 0x4 ADD PUSH2 0x239 SWAP1 PUSH2 0x6C6 JUMP JUMPDEST PUSH1 0x40 MLOAD DUP1 SWAP2 SUB SWAP1 REVERT JUMPDEST PUSH0 PUSH20 0xFFFFFFFFFFFFFFFFFFFFFFFFFFFFFFFFFFFFFFFF AND DUP2 PUSH20 0xFFFFFFFFFFFFFFFFFFFFFFFFFFFFFFFFFFFFFFFF AND SUB PUSH2 0x2B0 JUMPI PUSH1 0x40 MLOAD PUSH32 0x8C379A000000000000000000000000000000000000000000000000000000000 DUP2 MSTORE PUSH1 0x4 ADD PUSH2 0x2A7 SWAP1 PUSH2 0x72E JUMP JUMPDEST PUSH1 0x40 MLOAD DUP1 SWAP2 SUB SWAP1 REVERT JUMPDEST DUP4 PUSH20 0xFFFFFFFFFFFFFFFFFFFFFFFFFFFFFFFFFFFFFFFF AND PUSH1 0xA0 DUP2 PUSH20 0xFFFFFFFFFFFFFFFFFFFFFFFFFFFFFFFFFFFFFFFF AND DUP2 MSTORE POP POP DUP3 PUSH20 0xFFFFFFFFFFFFFFFFFFFFFFFFFFFFFFFFFFFFFFFF AND PUSH1 0xC0 DUP2 PUSH20 0xFFFFFFFFFFFFFFFFFFFFFFFFFFFFFFFFFFFFFFFF AND DUP2 MSTORE POP POP DUP2 PUSH8 0xFFFFFFFFFFFFFFFF AND PUSH1 0xE0 DUP2 PUSH8 0xFFFFFFFFFFFFFFFF AND DUP2 MSTORE POP POP DUP1 PUSH20 0xFFFFFFFFFFFFFFFFFFFFFFFFFFFFFFFFFFFFFFFF AND PUSH2 0x100 DUP2 PUSH20 0xFFFFFFFFFFFFFFFFFFFFFFFFFFFFFFFFFFFFFFFF AND DUP2 MSTORE POP POP POP POP POP POP PUSH2 0x7B4 JUMP JUMPDEST CALLER PUSH20 0xFFFFFFFFFFFFFFFFFFFFFFFFFFFFFFFFFFFFFFFF AND DUP2 PUSH20 0xFFFFFFFFFFFFFFFFFFFFFFFFFFFFFFFFFFFFFFFF AND SUB PUSH2 0x3E0 JUMPI PUSH1 0x40 MLOAD PUSH32 0x8C379A000000000000000000000000000000000000000000000000000000000 DUP2 MSTORE PUSH1 0x4 ADD PUSH2 0x3D7 SWAP1 PUSH2 0x796 JUMP JUMPDEST PUSH1 0x40 MLOAD DUP1 SWAP2 SUB SWAP1 REVERT JUMPDEST DUP1 PUSH1 0x1 PUSH0 PUSH2 0x100 EXP DUP2 SLOAD DUP2 PUSH20 0xFFFFFFFFFFFFFFFFFFFFFFFFFFFFFFFFFFFFFFFF MUL NOT AND SWAP1 DUP4 PUSH20 0xFFFFFFFFFFFFFFFFFFFFFFFFFFFFFFFFFFFFFFFF AND MUL OR SWAP1 SSTORE POP DUP1 PUSH20 0xFFFFFFFFFFFFFFFFFFFFFFFFFFFFFFFFFFFFFFFF AND PUSH0 PUSH0 SWAP1 SLOAD SWAP1 PUSH2 0x100 EXP SWAP1 DIV PUSH20 0xFFFFFFFFFFFFFFFFFFFFFFFFFFFFFFFFFFFFFFFF AND PUSH20 0xFFFFFFFFFFFFFFFFFFFFFFFFFFFFFFFFFFFFFFFF AND PUSH32 0xED8889F560326EB138920D842192F0EB3DD22B4F139C87A2C57538E05BAE1278 PUSH1 0x40 MLOAD PUSH1 0x40 MLOAD DUP1 SWAP2 SUB SWAP1 LOG3 POP JUMP JUMPDEST PUSH0 PUSH0 REVERT JUMPDEST PUSH0 PUSH20 0xFFFFFFFFFFFFFFFFFFFFFFFFFFFFFFFFFFFFFFFF DUP3 AND SWAP1 POP SWAP2 SWAP1 POP JUMP JUMPDEST PUSH0 PUSH2 0x4CA DUP3 PUSH2 0x4A1 JUMP JUMPDEST SWAP1 POP SWAP2 SWAP1 POP JUMP JUMPDEST PUSH2 0x4DA DUP2 PUSH2 0x4C0 JUMP JUMPDEST DUP2 EQ PUSH2 0x4E4 JUMPI PUSH0 PUSH0 REVERT JUMPDEST POP JUMP JUMPDEST PUSH0 DUP2 MLOAD SWAP1 POP PUSH2 0x4F5 DUP2 PUSH2 0x4D1 JUMP JUMPDEST SWAP3 SWAP2 POP POP JUMP JUMPDEST PUSH0 PUSH8 0xFFFFFFFFFFFFFFFF DUP3 AND SWAP1 POP SWAP2 SWAP1 POP JUMP JUMPDEST PUSH2 0x517 DUP2 PUSH2 0x4FB JUMP JUMPDEST DUP2 EQ PUSH2 0x521 JUMPI PUSH0 PUSH0 REVERT JUMPDEST POP JUMP JUMPDEST PUSH0 DUP2 MLOAD SWAP1 POP PUSH2 0x532 DUP2 PUSH2 0x50E JUMP JUMPDEST SWAP3 SWAP2 POP POP JUMP JUMPDEST PUSH0 PUSH0 PUSH0 PUSH0 PUSH1 0x80 DUP6 DUP8 SUB SLT ISZERO PUSH2 0x550 JUMPI PUSH2 0x54F PUSH2 0x49D JUMP JUMPDEST JUMPDEST PUSH0 PUSH2 0x55D DUP8 DUP3 DUP9 ADD PUSH2 0x4E7 JUMP JUMPDEST SWAP5 POP POP PUSH1 0x20 PUSH2 0x56E DUP8 DUP3 DUP9 ADD PUSH2 0x4E7 JUMP JUMPDEST SWAP4 POP POP PUSH1 0x40 PUSH2 0x57F DUP8 DUP3 DUP9 ADD PUSH2 0x524 JUMP JUMPDEST SWAP3 POP POP PUSH1 0x60 PUSH2 0x590 DUP8 DUP3 DUP9 ADD PUSH2 0x4E7 JUMP JUMPDEST SWAP2 POP POP SWAP3 SWAP6 SWAP2 SWAP5 POP SWAP3 POP JUMP JUMPDEST PUSH0 DUP3 DUP3 MSTORE PUSH1 0x20 DUP3 ADD SWAP1 POP SWAP3 SWAP2 POP POP JUMP JUMPDEST PUSH32 0x43616E6E6F7420736574206F776E657220746F207A65726F0000000000000000 PUSH0 DUP3 ADD MSTORE POP JUMP JUMPDEST PUSH0 PUSH2 0x5E0 PUSH1 0x18 DUP4 PUSH2 0x59C JUMP JUMPDEST SWAP2 POP PUSH2 0x5EB DUP3 PUSH2 0x5AC JUMP JUMPDEST PUSH1 0x20 DUP3 ADD SWAP1 POP SWAP2 SWAP1 POP JUMP JUMPDEST PUSH0 PUSH1 0x20 DUP3 ADD SWAP1 POP DUP2 DUP2 SUB PUSH0 DUP4 ADD MSTORE PUSH2 0x60D DUP2 PUSH2 0x5D4 JUMP JUMPDEST SWAP1 POP SWAP2 SWAP1 POP JUMP JUMPDEST PUSH32 0x496E76616C696420746F6B656E00000000000000000000000000000000000000 PUSH0 DUP3 ADD MSTORE POP JUMP JUMPDEST PUSH0 PUSH2 0x648 PUSH1 0xD DUP4 PUSH2 0x59C JUMP JUMPDEST SWAP2 POP PUSH2 0x653 DUP3 PUSH2 0x614 JUMP JUMPDEST PUSH1 0x20 DUP3 ADD SWAP1 POP SWAP2 SWAP1 POP JUMP JUMPDEST PUSH0 PUSH1 0x20 DUP3 ADD SWAP1 POP DUP2 DUP2 SUB PUSH0 DUP4 ADD MSTORE PUSH2 0x675 DUP2 PUSH2 0x63C JUMP JUMPDEST SWAP1 POP SWAP2 SWAP1 POP JUMP JUMPDEST PUSH32 0x496E76616C696420707269636520666565640000000000000000000000000000 PUSH0 DUP3 ADD MSTORE POP JUMP JUMPDEST PUSH0 PUSH2 0x6B0 PUSH1 0x12 DUP4 PUSH2 0x59C JUMP JUMPDEST SWAP2 POP PUSH2 0x6BB DUP3 PUSH2 0x67C JUMP JUMPDEST PUSH1 0x20 DUP3 ADD SWAP1 POP SWAP2 SWAP1 POP JUMP JUMPDEST PUSH0 PUSH1 0x20 DUP3 ADD SWAP1 POP DUP2 DUP2 SUB PUSH0 DUP4 ADD MSTORE PUSH2 0x6DD DUP2 PUSH2 0x6A4 JUMP JUMPDEST SWAP1 POP SWAP2 SWAP1 POP JUMP JUMPDEST PUSH32 0x496E76616C696420726F75746572000000000000000000000000000000000000 PUSH0 DUP3 ADD MSTORE POP JUMP JUMPDEST PUSH0 PUSH2 0x718 PUSH1 0xE DUP4 PUSH2 0x59C JUMP JUMPDEST SWAP2 POP PUSH2 0x723 DUP3 PUSH2 0x6E4 JUMP JUMPDEST PUSH1 0x20 DUP3 ADD SWAP1 POP SWAP2 SWAP1 POP JUMP JUMPDEST PUSH0 PUSH1 0x20 DUP3 ADD SWAP1 POP DUP2 DUP2 SUB PUSH0 DUP4 ADD MSTORE PUSH2 0x745 DUP2 PUSH2 0x70C JUMP JUMPDEST SWAP1 POP SWAP2 SWAP1 POP JUMP JUMPDEST PUSH32 0x43616E6E6F74207472616E7366657220746F2073656C66000000000000000000 PUSH0 DUP3 ADD MSTORE POP JUMP JUMPDEST PUSH0 PUSH2 0x780 PUSH1 0x17 DUP4 PUSH2 0x59C JUMP JUMPDEST SWAP2 POP PUSH2 0x78B DUP3 PUSH2 0x74C JUMP JUMPDEST PUSH1 0x20 DUP3 ADD SWAP1 POP SWAP2 SWAP1 POP JUMP JUMPDEST PUSH0 PUSH1 0x20 DUP3 ADD SWAP1 POP DUP2 DUP2 SUB PUSH0 DUP4 ADD MSTORE PUSH2 0x7AD DUP2 PUSH2 0x774 JUMP JUMPDEST SWAP1 POP SWAP2 SWAP1 POP JUMP JUMPDEST PUSH1 0x80 MLOAD PUSH1 0xA0 MLOAD PUSH1 0xC0 MLOAD PUSH1 0xE0 MLOAD PUSH2 0x100 MLOAD PUSH2 0x5968 PUSH2 0x829 PUSH0 CODECOPY PUSH0 PUSH2 0x1479 ADD MSTORE PUSH0 DUP2 DUP2 PUSH2 0x344 ADD MSTORE DUP2 DUP2 PUSH2 0x79E ADD MSTORE DUP2 DUP2 PUSH2 0xA10 ADD MSTORE PUSH2 0x1361 ADD MSTORE PUSH0 DUP2 DUP2 PUSH2 0xBF5 ADD MSTORE PUSH2 0x29EA ADD MSTORE PUSH0 DUP2 DUP2 PUSH2 0x635 ADD MSTORE DUP2 DUP2 PUSH2 0xDE7 ADD MSTORE DUP2 DUP2 PUSH2 0xEF7 ADD MSTORE PUSH2 0x1A07 ADD MSTORE PUSH0 DUP2 DUP2 PUSH2 0x368 ADD MSTORE PUSH2 0x247A ADD MSTORE PUSH2 0x5968 PUSH0 RETURN INVALID PUSH1 0x80 PUSH1 0x40 MSTORE CALLVALUE DUP1 ISZERO PUSH2 0xF JUMPI PUSH0 PUSH0 REVERT JUMPDEST POP PUSH1 0x4 CALLDATASIZE LT PUSH2 0x11F JUMPI PUSH0 CALLDATALOAD PUSH1 0xE0 SHR DUP1 PUSH4 0x9779EA46 GT PUSH2 0xAB JUMPI DUP1 PUSH4 0xC3865B6C GT PUSH2 0x6F JUMPI DUP1 PUSH4 0xC3865B6C EQ PUSH2 0x2B2 JUMPI DUP1 PUSH4 0xEC4FD914 EQ PUSH2 0x2CE JUMPI DUP1 PUSH4 0xF2FDE38B EQ PUSH2 0x2EA JUMPI DUP1 PUSH4 0xF6D361CC EQ PUSH2 0x306 JUMPI DUP1 PUSH4 0xF887EA40 EQ PUSH2 0x324 JUMPI PUSH2 0x11F JUMP JUMPDEST DUP1 PUSH4 0x9779EA46 EQ PUSH2 0x230 JUMPI DUP1 PUSH4 0xAA1FE14F EQ PUSH2 0x24E JUMPI DUP1 PUSH4 0xB1724B46 EQ PUSH2 0x26C JUMPI DUP1 PUSH4 0xB68E71BF EQ PUSH2 0x28A JUMPI DUP1 PUSH4 0xC320C1B9 EQ PUSH2 0x2A8 JUMPI PUSH2 0x11F JUMP JUMPDEST DUP1 PUSH4 0x431A1B97 GT PUSH2 0xF2 JUMPI DUP1 PUSH4 0x431A1B97 EQ PUSH2 0x197 JUMPI DUP1 PUSH4 0x7416F166 EQ PUSH2 0x1CC JUMPI DUP1 PUSH4 0x741BEF1A EQ PUSH2 0x1EA JUMPI DUP1 PUSH4 0x79BA5097 EQ PUSH2 0x208 JUMPI DUP1 PUSH4 0x8DA5CB5B EQ PUSH2 0x212 JUMPI PUSH2 0x11F JUMP JUMPDEST DUP1 PUSH4 0x9C1BA2E EQ PUSH2 0x123 JUMPI DUP1 PUSH4 0xCA76175 EQ PUSH2 0x141 JUMPI DUP1 PUSH4 0xCDE9F3C EQ PUSH2 0x15D JUMPI DUP1 PUSH4 0x1CA96BED EQ PUSH2 0x17B JUMPI JUMPDEST PUSH0 PUSH0 REVERT JUMPDEST PUSH2 0x12B PUSH2 0x342 JUMP JUMPDEST PUSH1 0x40 MLOAD PUSH2 0x138 SWAP2 SWAP1 PUSH2 0x3585 JUMP JUMPDEST PUSH1 0x40 MLOAD DUP1 SWAP2 SUB SWAP1 RETURN JUMPDEST PUSH2 0x15B PUSH1 0x4 DUP1 CALLDATASIZE SUB DUP2 ADD SWAP1 PUSH2 0x156 SWAP2 SWAP1 PUSH2 0x371E JUMP JUMPDEST PUSH2 0x366 JUMP JUMPDEST STOP JUMPDEST PUSH2 0x165 PUSH2 0x428 JUMP JUMPDEST PUSH1 0x40 MLOAD PUSH2 0x172 SWAP2 SWAP1 PUSH2 0x37B5 JUMP JUMPDEST PUSH1 0x40 MLOAD DUP1 SWAP2 SUB SWAP1 RETURN JUMPDEST PUSH2 0x195 PUSH1 0x4 DUP1 CALLDATASIZE SUB DUP2 ADD SWAP1 PUSH2 0x190 SWAP2 SWAP1 PUSH2 0x39A7 JUMP JUMPDEST PUSH2 0x44C JUMP JUMPDEST STOP JUMPDEST PUSH2 0x1B1 PUSH1 0x4 DUP1 CALLDATASIZE SUB DUP2 ADD SWAP1 PUSH2 0x1AC SWAP2 SWAP1 PUSH2 0x3A7A JUMP JUMPDEST PUSH2 0xB0B JUMP JUMPDEST PUSH1 0x40 MLOAD PUSH2 0x1C3 SWAP7 SWAP6 SWAP5 SWAP4 SWAP3 SWAP2 SWAP1 PUSH2 0x3B52 JUMP JUMPDEST PUSH1 0x40 MLOAD DUP1 SWAP2 SUB SWAP1 RETURN JUMPDEST PUSH2 0x1D4 PUSH2 0xBEE JUMP JUMPDEST PUSH1 0x40 MLOAD PUSH2 0x1E1 SWAP2 SWAP1 PUSH2 0x3BB8 JUMP JUMPDEST PUSH1 0x40 MLOAD DUP1 SWAP2 SUB SWAP1 RETURN JUMPDEST PUSH2 0x1F2 PUSH2 0xBF3 JUMP JUMPDEST PUSH1 0x40 MLOAD PUSH2 0x1FF SWAP2 SWAP1 PUSH2 0x3C2C JUMP JUMPDEST PUSH1 0x40 MLOAD DUP1 SWAP2 SUB SWAP1 RETURN JUMPDEST PUSH2 0x210 PUSH2 0xC17 JUMP JUMPDEST STOP JUMPDEST PUSH2 0x21A PUSH2 0xDA6 JUMP JUMPDEST PUSH1 0x40 MLOAD PUSH2 0x227 SWAP2 SWAP1 PUSH2 0x3C54 JUMP JUMPDEST PUSH1 0x40 MLOAD DUP1 SWAP2 SUB SWAP1 RETURN JUMPDEST PUSH2 0x238 PUSH2 0xDCD JUMP JUMPDEST PUSH1 0x40 MLOAD PUSH2 0x245 SWAP2 SWAP1 PUSH2 0x3C8B JUMP JUMPDEST PUSH1 0x40 MLOAD DUP1 SWAP2 SUB SWAP1 RETURN JUMPDEST PUSH2 0x256 PUSH2 0xDD4 JUMP JUMPDEST PUSH1 0x40 MLOAD PUSH2 0x263 SWAP2 SWAP1 PUSH2 0x3CA4 JUMP JUMPDEST PUSH1 0x40 MLOAD DUP1 SWAP2 SUB SWAP1 RETURN JUMPDEST PUSH2 0x274 PUSH2 0xDDF JUMP JUMPDEST PUSH1 0x40 MLOAD PUSH2 0x281 SWAP2 SWAP1 PUSH2 0x3CA4 JUMP JUMPDEST PUSH1 0x40 MLOAD DUP1 SWAP2 SUB SWAP1 RETURN JUMPDEST PUSH2 0x292 PUSH2 0xDE5 JUMP JUMPDEST PUSH1 0x40 MLOAD PUSH2 0x29F SWAP2 SWAP1 PUSH2 0x3CDD JUMP JUMPDEST PUSH1 0x40 MLOAD DUP1 SWAP2 SUB SWAP1 RETURN JUMPDEST PUSH2 0x2B0 PUSH2 0xE09 JUMP JUMPDEST STOP JUMPDEST PUSH2 0x2CC PUSH1 0x4 DUP1 CALLDATASIZE SUB DUP2 ADD SWAP1 PUSH2 0x2C7 SWAP2 SWAP1 PUSH2 0x371E JUMP JUMPDEST PUSH2 0x1001 JUMP JUMPDEST STOP JUMPDEST PUSH2 0x2E8 PUSH1 0x4 DUP1 CALLDATASIZE SUB DUP2 ADD SWAP1 PUSH2 0x2E3 SWAP2 SWAP1 PUSH2 0x3D20 JUMP JUMPDEST PUSH2 0x1019 JUMP JUMPDEST STOP JUMPDEST PUSH2 0x304 PUSH1 0x4 DUP1 CALLDATASIZE SUB DUP2 ADD SWAP1 PUSH2 0x2FF SWAP2 SWAP1 PUSH2 0x3A7A JUMP JUMPDEST PUSH2 0x1458 JUMP JUMPDEST STOP JUMPDEST PUSH2 0x30E PUSH2 0x146C JUMP JUMPDEST PUSH1 0x40 MLOAD PUSH2 0x31B SWAP2 SWAP1 PUSH2 0x3CA4 JUMP JUMPDEST PUSH1 0x40 MLOAD DUP1 SWAP2 SUB SWAP1 RETURN JUMPDEST PUSH2 0x32C PUSH2 0x1477 JUMP JUMPDEST PUSH1 0x40 MLOAD PUSH2 0x339 SWAP2 SWAP1 PUSH2 0x3C54 JUMP JUMPDEST PUSH1 0x40 MLOAD DUP1 SWAP2 SUB SWAP1 RETURN JUMPDEST PUSH32 0x0 DUP2 JUMP JUMPDEST PUSH32 0x0 PUSH20 0xFFFFFFFFFFFFFFFFFFFFFFFFFFFFFFFFFFFFFFFF AND CALLER PUSH20 0xFFFFFFFFFFFFFFFFFFFFFFFFFFFFFFFFFFFFFFFF AND EQ PUSH2 0x3EB JUMPI PUSH1 0x40 MLOAD PUSH32 0xC6829F8300000000000000000000000000000000000000000000000000000000 DUP2 MSTORE PUSH1 0x4 ADD PUSH1 0x40 MLOAD DUP1 SWAP2 SUB SWAP1 REVERT JUMPDEST PUSH2 0x3F6 DUP4 DUP4 DUP4 PUSH2 0x149B JUMP JUMPDEST DUP3 PUSH32 0x85E1543BF2F84FE80C6BADBCE3648C8539AD1DF4D2B3D822938CA0538BE727E6 PUSH1 0x40 MLOAD PUSH1 0x40 MLOAD DUP1 SWAP2 SUB SWAP1 LOG2 POP POP POP JUMP JUMPDEST PUSH32 0x66756E2D626173652D7365706F6C69612D310000000000000000000000000000 DUP2 JUMP JUMPDEST PUSH2 0x454 PUSH2 0x1B04 JUMP JUMPDEST PUSH1 0x5 DUP4 MLOAD LT ISZERO PUSH2 0x499 JUMPI PUSH1 0x40 MLOAD PUSH32 0x8C379A000000000000000000000000000000000000000000000000000000000 DUP2 MSTORE PUSH1 0x4 ADD PUSH2 0x490 SWAP1 PUSH2 0x3D95 JUMP JUMPDEST PUSH1 0x40 MLOAD DUP1 SWAP2 SUB SWAP1 REVERT JUMPDEST PUSH0 DUP3 DUP3 PUSH1 0x40 MLOAD PUSH1 0x20 ADD PUSH2 0x4AD SWAP3 SWAP2 SWAP1 PUSH2 0x3DE1 JUMP JUMPDEST PUSH1 0x40 MLOAD PUSH1 0x20 DUP2 DUP4 SUB SUB DUP2 MSTORE SWAP1 PUSH1 0x40 MSTORE DUP1 MLOAD SWAP1 PUSH1 0x20 ADD KECCAK256 SWAP1 POP PUSH1 0x40 MLOAD PUSH1 0x20 ADD PUSH2 0x4D4 SWAP1 PUSH2 0x3E43 JUMP JUMPDEST PUSH1 0x40 MLOAD PUSH1 0x20 DUP2 DUP4 SUB SUB DUP2 MSTORE SWAP1 PUSH1 0x40 MSTORE DUP1 MLOAD SWAP1 PUSH1 0x20 ADD KECCAK256 DUP2 EQ DUP1 PUSH2 0x51A JUMPI POP PUSH1 0x40 MLOAD PUSH1 0x20 ADD PUSH2 0x501 SWAP1 PUSH2 0x3EA1 JUMP JUMPDEST PUSH1 0x40 MLOAD PUSH1 0x20 DUP2 DUP4 SUB SUB DUP2 MSTORE SWAP1 PUSH1 0x40 MSTORE DUP1 MLOAD SWAP1 PUSH1 0x20 ADD KECCAK256 DUP2 EQ JUMPDEST DUP1 PUSH2 0x548 JUMPI POP PUSH1 0x40 MLOAD PUSH1 0x20 ADD PUSH2 0x52F SWAP1 PUSH2 0x3EFF JUMP JUMPDEST PUSH1 0x40 MLOAD PUSH1 0x20 DUP2 DUP4 SUB SUB DUP2 MSTORE SWAP1 PUSH1 0x40 MSTORE DUP1 MLOAD SWAP1 PUSH1 0x20 ADD KECCAK256 DUP2 EQ JUMPDEST PUSH2 0x587 JUMPI PUSH1 0x40 MLOAD PUSH32 0x8C379A000000000000000000000000000000000000000000000000000000000 DUP2 MSTORE PUSH1 0x4 ADD PUSH2 0x57E SWAP1 PUSH2 0x3F5D JUMP JUMPDEST PUSH1 0x40 MLOAD DUP1 SWAP2 SUB SWAP1 REVERT JUMPDEST PUSH0 PUSH1 0x3 PUSH0 CALLER PUSH20 0xFFFFFFFFFFFFFFFFFFFFFFFFFFFFFFFFFFFFFFFF AND PUSH20 0xFFFFFFFFFFFFFFFFFFFFFFFFFFFFFFFFFFFFFFFF AND DUP2 MSTORE PUSH1 0x20 ADD SWAP1 DUP2 MSTORE PUSH1 0x20 ADD PUSH0 KECCAK256 SWAP1 POP DUP1 PUSH1 0x4 ADD PUSH0 SWAP1 SLOAD SWAP1 PUSH2 0x100 EXP SWAP1 DIV PUSH1 0xFF AND ISZERO DUP1 PUSH2 0x5F4 JUMPI POP PUSH2 0x1C2 DUP2 PUSH1 0x3 ADD SLOAD PUSH2 0x5F1 SWAP2 SWAP1 PUSH2 0x3FA8 JUMP JUMPDEST TIMESTAMP GT JUMPDEST PUSH2 0x633 JUMPI PUSH1 0x40 MLOAD PUSH32 0x8C379A000000000000000000000000000000000000000000000000000000000 DUP2 MSTORE PUSH1 0x4 ADD PUSH2 0x62A SWAP1 PUSH2 0x4025 JUMP JUMPDEST PUSH1 0x40 MLOAD DUP1 SWAP2 SUB SWAP1 REVERT JUMPDEST PUSH32 0x0 PUSH20 0xFFFFFFFFFFFFFFFFFFFFFFFFFFFFFFFFFFFFFFFF AND PUSH4 0x23B872DD CALLER ADDRESS PUSH7 0x2386F26FC10000 PUSH1 0x40 MLOAD DUP5 PUSH4 0xFFFFFFFF AND PUSH1 0xE0 SHL DUP2 MSTORE PUSH1 0x4 ADD PUSH2 0x697 SWAP4 SWAP3 SWAP2 SWAP1 PUSH2 0x4043 JUMP JUMPDEST PUSH1 0x20 PUSH1 0x40 MLOAD DUP1 DUP4 SUB DUP2 PUSH0 DUP8 GAS CALL ISZERO DUP1 ISZERO PUSH2 0x6B3 JUMPI RETURNDATASIZE PUSH0 PUSH0 RETURNDATACOPY RETURNDATASIZE PUSH0 REVERT JUMPDEST POP POP POP POP PUSH1 0x40 MLOAD RETURNDATASIZE PUSH1 0x1F NOT PUSH1 0x1F DUP3 ADD AND DUP3 ADD DUP1 PUSH1 0x40 MSTORE POP DUP2 ADD SWAP1 PUSH2 0x6D7 SWAP2 SWAP1 PUSH2 0x40A2 JUMP JUMPDEST PUSH2 0x716 JUMPI PUSH1 0x40 MLOAD PUSH32 0x8C379A000000000000000000000000000000000000000000000000000000000 DUP2 MSTORE PUSH1 0x4 ADD PUSH2 0x70D SWAP1 PUSH2 0x4117 JUMP JUMPDEST PUSH1 0x40 MLOAD DUP1 SWAP2 SUB SWAP1 REVERT JUMPDEST PUSH0 PUSH2 0x721 CALLER TIMESTAMP PUSH2 0x1B51 JUMP JUMPDEST SWAP1 POP PUSH1 0x1 DUP3 PUSH1 0x4 ADD PUSH0 PUSH2 0x100 EXP DUP2 SLOAD DUP2 PUSH1 0xFF MUL NOT AND SWAP1 DUP4 ISZERO ISZERO MUL OR SWAP1 SSTORE POP TIMESTAMP DUP3 PUSH1 0x3 ADD DUP2 SWAP1 SSTORE POP PUSH0 DUP3 PUSH1 0x1 ADD PUSH0 PUSH2 0x100 EXP DUP2 SLOAD DUP2 PUSH1 0xFF MUL NOT AND SWAP1 DUP4 PUSH1 0xFF AND MUL OR SWAP1 SSTORE POP PUSH0 DUP3 PUSH1 0x2 ADD DUP2 SWAP1 SSTORE POP PUSH0 DUP3 PUSH1 0x4 ADD PUSH1 0x1 PUSH2 0x100 EXP DUP2 SLOAD DUP2 PUSH1 0xFF MUL NOT AND SWAP1 DUP4 PUSH1 0xFF AND MUL OR SWAP1 SSTORE POP DUP1 DUP3 PUSH0 ADD SWAP1 DUP2 PUSH2 0x79A SWAP2 SWAP1 PUSH2 0x4329 JUMP JUMPDEST POP PUSH0 PUSH32 0x0 PUSH8 0xFFFFFFFFFFFFFFFF AND SUB PUSH2 0x853 JUMPI PUSH1 0xA DUP3 PUSH1 0x4 ADD PUSH1 0x1 PUSH2 0x100 EXP DUP2 SLOAD DUP2 PUSH1 0xFF MUL NOT AND SWAP1 DUP4 PUSH1 0xFF AND MUL OR SWAP1 SSTORE POP CALLER PUSH20 0xFFFFFFFFFFFFFFFFFFFFFFFFFFFFFFFFFFFFFFFF AND PUSH32 0x24BB3705C7AD2A404FD0ED31143A60AC9C3ACF33C50E13C6FFD8D47330C6D9F3 DUP3 DUP5 PUSH1 0x4 ADD PUSH1 0x1 SWAP1 SLOAD SWAP1 PUSH2 0x100 EXP SWAP1 DIV PUSH1 0xFF AND PUSH1 0x40 MLOAD PUSH2 0x843 SWAP3 SWAP2 SWAP1 PUSH2 0x43F8 JUMP JUMPDEST PUSH1 0x40 MLOAD DUP1 SWAP2 SUB SWAP1 LOG2 POP POP POP PUSH2 0xAFE JUMP JUMPDEST PUSH2 0x85B PUSH2 0x34BC JUMP JUMPDEST PUSH2 0x875 PUSH2 0x866 PUSH2 0x1BA2 JUMP JUMPDEST DUP3 PUSH2 0x1BC5 SWAP1 SWAP2 SWAP1 PUSH4 0xFFFFFFFF AND JUMP JUMPDEST PUSH0 PUSH1 0x41 PUSH8 0xFFFFFFFFFFFFFFFF DUP2 GT ISZERO PUSH2 0x891 JUMPI PUSH2 0x890 PUSH2 0x35FA JUMP JUMPDEST JUMPDEST PUSH1 0x40 MLOAD SWAP1 DUP1 DUP3 MSTORE DUP1 PUSH1 0x20 MUL PUSH1 0x20 ADD DUP3 ADD PUSH1 0x40 MSTORE DUP1 ISZERO PUSH2 0x8C4 JUMPI DUP2 PUSH1 0x20 ADD JUMPDEST PUSH1 0x60 DUP2 MSTORE PUSH1 0x20 ADD SWAP1 PUSH1 0x1 SWAP1 SUB SWAP1 DUP2 PUSH2 0x8AF JUMPI SWAP1 POP JUMPDEST POP SWAP1 POP PUSH2 0x8D0 DUP9 PUSH2 0x1BD5 JUMP JUMPDEST DUP2 PUSH0 DUP2 MLOAD DUP2 LT PUSH2 0x8E3 JUMPI PUSH2 0x8E2 PUSH2 0x4426 JUMP JUMPDEST JUMPDEST PUSH1 0x20 MUL PUSH1 0x20 ADD ADD DUP2 SWAP1 MSTORE POP PUSH2 0x8F7 CALLER PUSH2 0x1CEF JUMP JUMPDEST DUP2 PUSH1 0x1 DUP2 MLOAD DUP2 LT PUSH2 0x90B JUMPI PUSH2 0x90A PUSH2 0x4426 JUMP JUMPDEST JUMPDEST PUSH1 0x20 MUL PUSH1 0x20 ADD ADD DUP2 SWAP1 MSTORE POP PUSH2 0x91E PUSH2 0x1F8A JUMP JUMPDEST DUP2 PUSH1 0x2 DUP2 MLOAD DUP2 LT PUSH2 0x932 JUMPI PUSH2 0x931 PUSH2 0x4426 JUMP JUMPDEST JUMPDEST PUSH1 0x20 MUL PUSH1 0x20 ADD ADD DUP2 SWAP1 MSTORE POP PUSH2 0x945 PUSH2 0x1FC7 JUMP JUMPDEST DUP2 PUSH1 0x3 DUP2 MLOAD DUP2 LT PUSH2 0x959 JUMPI PUSH2 0x958 PUSH2 0x4426 JUMP JUMPDEST JUMPDEST PUSH1 0x20 MUL PUSH1 0x20 ADD ADD DUP2 SWAP1 MSTORE POP PUSH2 0x96C PUSH2 0x1FE7 JUMP JUMPDEST DUP2 PUSH1 0x4 DUP2 MLOAD DUP2 LT PUSH2 0x980 JUMPI PUSH2 0x97F PUSH2 0x4426 JUMP JUMPDEST JUMPDEST PUSH1 0x20 MUL PUSH1 0x20 ADD ADD DUP2 SWAP1 MSTORE POP DUP7 DUP7 DUP1 DUP1 PUSH1 0x1F ADD PUSH1 0x20 DUP1 SWAP2 DIV MUL PUSH1 0x20 ADD PUSH1 0x40 MLOAD SWAP1 DUP2 ADD PUSH1 0x40 MSTORE DUP1 SWAP4 SWAP3 SWAP2 SWAP1 DUP2 DUP2 MSTORE PUSH1 0x20 ADD DUP4 DUP4 DUP1 DUP3 DUP5 CALLDATACOPY PUSH0 DUP2 DUP5 ADD MSTORE PUSH1 0x1F NOT PUSH1 0x1F DUP3 ADD AND SWAP1 POP DUP1 DUP4 ADD SWAP3 POP POP POP POP POP POP POP DUP2 PUSH1 0x5 DUP2 MLOAD DUP2 LT PUSH2 0x9E3 JUMPI PUSH2 0x9E2 PUSH2 0x4426 JUMP JUMPDEST JUMPDEST PUSH1 0x20 MUL PUSH1 0x20 ADD ADD DUP2 SWAP1 MSTORE POP PUSH2 0xA01 DUP2 DUP4 PUSH2 0x2024 SWAP1 SWAP2 SWAP1 PUSH4 0xFFFFFFFF AND JUMP JUMPDEST PUSH0 PUSH2 0xA59 PUSH2 0xA0E DUP5 PUSH2 0x206B JUMP JUMPDEST PUSH32 0x0 PUSH3 0x7A120 PUSH32 0x66756E2D626173652D7365706F6C69612D310000000000000000000000000000 PUSH2 0x2476 JUMP JUMPDEST SWAP1 POP CALLER PUSH1 0x4 PUSH0 DUP4 DUP2 MSTORE PUSH1 0x20 ADD SWAP1 DUP2 MSTORE PUSH1 0x20 ADD PUSH0 KECCAK256 PUSH0 PUSH2 0x100 EXP DUP2 SLOAD DUP2 PUSH20 0xFFFFFFFFFFFFFFFFFFFFFFFFFFFFFFFFFFFFFFFF MUL NOT AND SWAP1 DUP4 PUSH20 0xFFFFFFFFFFFFFFFFFFFFFFFFFFFFFFFFFFFFFFFF AND MUL OR SWAP1 SSTORE POP CALLER PUSH20 0xFFFFFFFFFFFFFFFFFFFFFFFFFFFFFFFFFFFFFFFF AND PUSH31 0x40A08FF8A2C8DE3747ADD6410EC4F7E6F2F1C30043E8DEE77F0ADAE00B3568 DUP3 PUSH1 0x40 MLOAD PUSH2 0xAEF SWAP2 SWAP1 PUSH2 0x37B5 JUMP JUMPDEST PUSH1 0x40 MLOAD DUP1 SWAP2 SUB SWAP1 LOG2 POP POP POP POP POP POP JUMPDEST PUSH2 0xB06 PUSH2 0x2555 JUMP JUMPDEST POP POP POP JUMP JUMPDEST PUSH1 0x3 PUSH1 0x20 MSTORE DUP1 PUSH0 MSTORE PUSH1 0x40 PUSH0 KECCAK256 PUSH0 SWAP2 POP SWAP1 POP DUP1 PUSH0 ADD DUP1 SLOAD PUSH2 0xB2A SWAP1 PUSH2 0x4162 JUMP JUMPDEST DUP1 PUSH1 0x1F ADD PUSH1 0x20 DUP1 SWAP2 DIV MUL PUSH1 0x20 ADD PUSH1 0x40 MLOAD SWAP1 DUP2 ADD PUSH1 0x40 MSTORE DUP1 SWAP3 SWAP2 SWAP1 DUP2 DUP2 MSTORE PUSH1 0x20 ADD DUP3 DUP1 SLOAD PUSH2 0xB56 SWAP1 PUSH2 0x4162 JUMP JUMPDEST DUP1 ISZERO PUSH2 0xBA1 JUMPI DUP1 PUSH1 0x1F LT PUSH2 0xB78 JUMPI PUSH2 0x100 DUP1 DUP4 SLOAD DIV MUL DUP4 MSTORE SWAP2 PUSH1 0x20 ADD SWAP2 PUSH2 0xBA1 JUMP JUMPDEST DUP3 ADD SWAP2 SWAP1 PUSH0 MSTORE PUSH1 0x20 PUSH0 KECCAK256 SWAP1 JUMPDEST DUP2 SLOAD DUP2 MSTORE SWAP1 PUSH1 0x1 ADD SWAP1 PUSH1 0x20 ADD DUP1 DUP4 GT PUSH2 0xB84 JUMPI DUP3 SWAP1 SUB PUSH1 0x1F AND DUP3 ADD SWAP2 JUMPDEST POP POP POP POP POP SWAP1 DUP1 PUSH1 0x1 ADD PUSH0 SWAP1 SLOAD SWAP1 PUSH2 0x100 EXP SWAP1 DIV PUSH1 0xFF AND SWAP1 DUP1 PUSH1 0x2 ADD SLOAD SWAP1 DUP1 PUSH1 0x3 ADD SLOAD SWAP1 DUP1 PUSH1 0x4 ADD PUSH0 SWAP1 SLOAD SWAP1 PUSH2 0x100 EXP SWAP1 DIV PUSH1 0xFF AND SWAP1 DUP1 PUSH1 0x4 ADD PUSH1 0x1 SWAP1 SLOAD SWAP1 PUSH2 0x100 EXP SWAP1 DIV PUSH1 0xFF AND SWAP1 POP DUP7 JUMP JUMPDEST PUSH1 0xA DUP2 JUMP JUMPDEST PUSH32 0x0 DUP2 JUMP JUMPDEST PUSH1 0x1 PUSH0 SWAP1 SLOAD SWAP1 PUSH2 0x100 EXP SWAP1 DIV PUSH20 0xFFFFFFFFFFFFFFFFFFFFFFFFFFFFFFFFFFFFFFFF AND PUSH20 0xFFFFFFFFFFFFFFFFFFFFFFFFFFFFFFFFFFFFFFFF AND CALLER PUSH20 0xFFFFFFFFFFFFFFFFFFFFFFFFFFFFFFFFFFFFFFFF AND EQ PUSH2 0xCA6 JUMPI PUSH1 0x40 MLOAD PUSH32 0x8C379A000000000000000000000000000000000000000000000000000000000 DUP2 MSTORE PUSH1 0x4 ADD PUSH2 0xC9D SWAP1 PUSH2 0x449D JUMP JUMPDEST PUSH1 0x40 MLOAD DUP1 SWAP2 SUB SWAP1 REVERT JUMPDEST PUSH0 PUSH0 PUSH0 SWAP1 SLOAD SWAP1 PUSH2 0x100 EXP SWAP1 DIV PUSH20 0xFFFFFFFFFFFFFFFFFFFFFFFFFFFFFFFFFFFFFFFF AND SWAP1 POP CALLER PUSH0 PUSH0 PUSH2 0x100 EXP DUP2 SLOAD DUP2 PUSH20 0xFFFFFFFFFFFFFFFFFFFFFFFFFFFFFFFFFFFFFFFF MUL NOT AND SWAP1 DUP4 PUSH20 0xFFFFFFFFFFFFFFFFFFFFFFFFFFFFFFFFFFFFFFFF AND MUL OR SWAP1 SSTORE POP PUSH0 PUSH1 0x1 PUSH0 PUSH2 0x100 EXP DUP2 SLOAD DUP2 PUSH20 0xFFFFFFFFFFFFFFFFFFFFFFFFFFFFFFFFFFFFFFFF MUL NOT AND SWAP1 DUP4 PUSH20 0xFFFFFFFFFFFFFFFFFFFFFFFFFFFFFFFFFFFFFFFF AND MUL OR SWAP1 SSTORE POP CALLER PUSH20 0xFFFFFFFFFFFFFFFFFFFFFFFFFFFFFFFFFFFFFFFF AND DUP2 PUSH20 0xFFFFFFFFFFFFFFFFFFFFFFFFFFFFFFFFFFFFFFFF AND PUSH32 0x8BE0079C531659141344CD1FD0A4F28419497F9722A3DAAFE3B4186F6B6457E0 PUSH1 0x40 MLOAD PUSH1 0x40 MLOAD DUP1 SWAP2 SUB SWAP1 LOG3 POP JUMP JUMPDEST PUSH0 PUSH0 PUSH0 SWAP1 SLOAD SWAP1 PUSH2 0x100 EXP SWAP1 DIV PUSH20 0xFFFFFFFFFFFFFFFFFFFFFFFFFFFFFFFFFFFFFFFF AND SWAP1 POP SWAP1 JUMP JUMPDEST PUSH3 0x7A120 DUP2 JUMP JUMPDEST PUSH7 0xB1A2BC2EC50000 DUP2 JUMP JUMPDEST PUSH2 0x1C2 DUP2 JUMP JUMPDEST PUSH32 0x0 DUP2 JUMP JUMPDEST PUSH2 0xE11 PUSH2 0x1B04 JUMP JUMPDEST PUSH0 PUSH1 0x3 PUSH0 CALLER PUSH20 0xFFFFFFFFFFFFFFFFFFFFFFFFFFFFFFFFFFFFFFFF AND PUSH20 0xFFFFFFFFFFFFFFFFFFFFFFFFFFFFFFFFFFFFFFFF AND DUP2 MSTORE PUSH1 0x20 ADD SWAP1 DUP2 MSTORE PUSH1 0x20 ADD PUSH0 KECCAK256 SWAP1 POP DUP1 PUSH1 0x4 ADD PUSH0 SWAP1 SLOAD SWAP1 PUSH2 0x100 EXP SWAP1 DIV PUSH1 0xFF AND PUSH2 0xEA1 JUMPI PUSH1 0x40 MLOAD PUSH32 0x8C379A000000000000000000000000000000000000000000000000000000000 DUP2 MSTORE PUSH1 0x4 ADD PUSH2 0xE98 SWAP1 PUSH2 0x4505 JUMP JUMPDEST PUSH1 0x40 MLOAD DUP1 SWAP2 SUB SWAP1 REVERT JUMPDEST PUSH2 0x1C2 DUP2 PUSH1 0x3 ADD SLOAD PUSH2 0xEB3 SWAP2 SWAP1 PUSH2 0x3FA8 JUMP JUMPDEST TIMESTAMP GT ISZERO PUSH2 0xEF5 JUMPI PUSH1 0x40 MLOAD PUSH32 0x8C379A000000000000000000000000000000000000000000000000000000000 DUP2 MSTORE PUSH1 0x4 ADD PUSH2 0xEEC SWAP1 PUSH2 0x456D JUMP JUMPDEST PUSH1 0x40 MLOAD DUP1 SWAP2 SUB SWAP1 REVERT JUMPDEST PUSH32 0x0 PUSH20 0xFFFFFFFFFFFFFFFFFFFFFFFFFFFFFFFFFFFFFFFF AND PUSH4 0xA9059CBB CALLER PUSH7 0x2386F26FC10000 PUSH1 0x40 MLOAD DUP4 PUSH4 0xFFFFFFFF AND PUSH1 0xE0 SHL DUP2 MSTORE PUSH1 0x4 ADD PUSH2 0xF57 SWAP3 SWAP2 SWAP1 PUSH2 0x458B JUMP JUMPDEST PUSH1 0x20 PUSH1 0x40 MLOAD DUP1 DUP4 SUB DUP2 PUSH0 DUP8 GAS CALL ISZERO DUP1 ISZERO PUSH2 0xF73 JUMPI RETURNDATASIZE PUSH0 PUSH0 RETURNDATACOPY RETURNDATASIZE PUSH0 REVERT JUMPDEST POP POP POP POP PUSH1 0x40 MLOAD RETURNDATASIZE PUSH1 0x1F NOT PUSH1 0x1F DUP3 ADD AND DUP3 ADD DUP1 PUSH1 0x40 MSTORE POP DUP2 ADD SWAP1 PUSH2 0xF97 SWAP2 SWAP1 PUSH2 0x40A2 JUMP JUMPDEST POP PUSH0 DUP2 PUSH1 0x4 ADD PUSH0 PUSH2 0x100 EXP DUP2 SLOAD DUP2 PUSH1 0xFF MUL NOT AND SWAP1 DUP4 ISZERO ISZERO MUL OR SWAP1 SSTORE POP CALLER PUSH20 0xFFFFFFFFFFFFFFFFFFFFFFFFFFFFFFFFFFFFFFFF AND PUSH32 0xD9EF658E62B2D2EC36EA56E68DB6F49DCB5E7977F243F28354069876AD0B90E4 PUSH1 0x40 MLOAD PUSH1 0x40 MLOAD DUP1 SWAP2 SUB SWAP1 LOG2 POP PUSH2 0xFFF PUSH2 0x2555 JUMP JUMPDEST JUMP JUMPDEST PUSH2 0x1009 PUSH2 0x255F JUMP JUMPDEST PUSH2 0x1014 DUP4 DUP4 DUP4 PUSH2 0x149B JUMP JUMPDEST POP POP POP JUMP JUMPDEST PUSH2 0x1021 PUSH2 0x1B04 JUMP JUMPDEST PUSH0 PUSH1 0x3 PUSH0 CALLER PUSH20 0xFFFFFFFFFFFFFFFFFFFFFFFFFFFFFFFFFFFFFFFF AND PUSH20 0xFFFFFFFFFFFFFFFFFFFFFFFFFFFFFFFFFFFFFFFF AND DUP2 MSTORE PUSH1 0x20 ADD SWAP1 DUP2 MSTORE PUSH1 0x20 ADD PUSH0 KECCAK256 SWAP1 POP DUP1 PUSH1 0x4 ADD PUSH0 SWAP1 SLOAD SWAP1 PUSH2 0x100 EXP SWAP1 DIV PUSH1 0xFF AND PUSH2 0x10B1 JUMPI PUSH1 0x40 MLOAD PUSH32 0x8C379A000000000000000000000000000000000000000000000000000000000 DUP2 MSTORE PUSH1 0x4 ADD PUSH2 0x10A8 SWAP1 PUSH2 0x4505 JUMP JUMPDEST PUSH1 0x40 MLOAD DUP1 SWAP2 SUB SWAP1 REVERT JUMPDEST DUP1 PUSH1 0x4 ADD PUSH1 0x1 SWAP1 SLOAD SWAP1 PUSH2 0x100 EXP SWAP1 DIV PUSH1 0xFF AND PUSH1 0xFF AND DUP2 PUSH1 0x1 ADD PUSH0 SWAP1 SLOAD SWAP1 PUSH2 0x100 EXP SWAP1 DIV PUSH1 0xFF AND PUSH1 0xFF AND LT PUSH2 0x111A JUMPI PUSH1 0x40 MLOAD PUSH32 0x8C379A000000000000000000000000000000000000000000000000000000000 DUP2 MSTORE PUSH1 0x4 ADD PUSH2 0x1111 SWAP1 PUSH2 0x45FC JUMP JUMPDEST PUSH1 0x40 MLOAD DUP1 SWAP2 SUB SWAP1 REVERT JUMPDEST PUSH2 0x1C2 DUP2 PUSH1 0x3 ADD SLOAD PUSH2 0x112C SWAP2 SWAP1 PUSH2 0x3FA8 JUMP JUMPDEST TIMESTAMP GT ISZERO PUSH2 0x116E JUMPI PUSH1 0x40 MLOAD PUSH32 0x8C379A000000000000000000000000000000000000000000000000000000000 DUP2 MSTORE PUSH1 0x4 ADD PUSH2 0x1165 SWAP1 PUSH2 0x456D JUMP JUMPDEST PUSH1 0x40 MLOAD DUP1 SWAP2 SUB SWAP1 REVERT JUMPDEST PUSH2 0x1176 PUSH2 0x34BC JUMP JUMPDEST PUSH2 0x1190 PUSH2 0x1181 PUSH2 0x25EF JUMP JUMPDEST DUP3 PUSH2 0x1BC5 SWAP1 SWAP2 SWAP1 PUSH4 0xFFFFFFFF AND JUMP JUMPDEST PUSH0 PUSH1 0x5 PUSH8 0xFFFFFFFFFFFFFFFF DUP2 GT ISZERO PUSH2 0x11AC JUMPI PUSH2 0x11AB PUSH2 0x35FA JUMP JUMPDEST JUMPDEST PUSH1 0x40 MLOAD SWAP1 DUP1 DUP3 MSTORE DUP1 PUSH1 0x20 MUL PUSH1 0x20 ADD DUP3 ADD PUSH1 0x40 MSTORE DUP1 ISZERO PUSH2 0x11DF JUMPI DUP2 PUSH1 0x20 ADD JUMPDEST PUSH1 0x60 DUP2 MSTORE PUSH1 0x20 ADD SWAP1 PUSH1 0x1 SWAP1 SUB SWAP1 DUP2 PUSH2 0x11CA JUMPI SWAP1 POP JUMPDEST POP SWAP1 POP DUP3 PUSH0 ADD DUP1 SLOAD PUSH2 0x11F0 SWAP1 PUSH2 0x4162 JUMP JUMPDEST DUP1 PUSH1 0x1F ADD PUSH1 0x20 DUP1 SWAP2 DIV MUL PUSH1 0x20 ADD PUSH1 0x40 MLOAD SWAP1 DUP2 ADD PUSH1 0x40 MSTORE DUP1 SWAP3 SWAP2 SWAP1 DUP2 DUP2 MSTORE PUSH1 0x20 ADD DUP3 DUP1 SLOAD PUSH2 0x121C SWAP1 PUSH2 0x4162 JUMP JUMPDEST DUP1 ISZERO PUSH2 0x1267 JUMPI DUP1 PUSH1 0x1F LT PUSH2 0x123E JUMPI PUSH2 0x100 DUP1 DUP4 SLOAD DIV MUL DUP4 MSTORE SWAP2 PUSH1 0x20 ADD SWAP2 PUSH2 0x1267 JUMP JUMPDEST DUP3 ADD SWAP2 SWAP1 PUSH0 MSTORE PUSH1 0x20 PUSH0 KECCAK256 SWAP1 JUMPDEST DUP2 SLOAD DUP2 MSTORE SWAP1 PUSH1 0x1 ADD SWAP1 PUSH1 0x20 ADD DUP1 DUP4 GT PUSH2 0x124A JUMPI DUP3 SWAP1 SUB PUSH1 0x1F AND DUP3 ADD SWAP2 JUMPDEST POP POP POP POP POP DUP2 PUSH0 DUP2 MLOAD DUP2 LT PUSH2 0x127F JUMPI PUSH2 0x127E PUSH2 0x4426 JUMP JUMPDEST JUMPDEST PUSH1 0x20 MUL PUSH1 0x20 ADD ADD DUP2 SWAP1 MSTORE POP PUSH2 0x1293 CALLER PUSH2 0x1CEF JUMP JUMPDEST DUP2 PUSH1 0x1 DUP2 MLOAD DUP2 LT PUSH2 0x12A7 JUMPI PUSH2 0x12A6 PUSH2 0x4426 JUMP JUMPDEST JUMPDEST PUSH1 0x20 MUL PUSH1 0x20 ADD ADD DUP2 SWAP1 MSTORE POP PUSH2 0x12CE DUP4 PUSH1 0x1 ADD PUSH0 SWAP1 SLOAD SWAP1 PUSH2 0x100 EXP SWAP1 DIV PUSH1 0xFF AND PUSH1 0xFF AND PUSH2 0x2612 JUMP JUMPDEST DUP2 PUSH1 0x2 DUP2 MLOAD DUP2 LT PUSH2 0x12E2 JUMPI PUSH2 0x12E1 PUSH2 0x4426 JUMP JUMPDEST JUMPDEST PUSH1 0x20 MUL PUSH1 0x20 ADD ADD DUP2 SWAP1 MSTORE POP PUSH2 0x12F9 DUP5 PUSH1 0xFF AND PUSH2 0x2612 JUMP JUMPDEST DUP2 PUSH1 0x3 DUP2 MLOAD DUP2 LT PUSH2 0x130D JUMPI PUSH2 0x130C PUSH2 0x4426 JUMP JUMPDEST JUMPDEST PUSH1 0x20 MUL PUSH1 0x20 ADD ADD DUP2 SWAP1 MSTORE POP PUSH2 0x1320 PUSH2 0x1FC7 JUMP JUMPDEST DUP2 PUSH1 0x4 DUP2 MLOAD DUP2 LT PUSH2 0x1334 JUMPI PUSH2 0x1333 PUSH2 0x4426 JUMP JUMPDEST JUMPDEST PUSH1 0x20 MUL PUSH1 0x20 ADD ADD DUP2 SWAP1 MSTORE POP PUSH2 0x1352 DUP2 DUP4 PUSH2 0x2024 SWAP1 SWAP2 SWAP1 PUSH4 0xFFFFFFFF AND JUMP JUMPDEST PUSH0 PUSH2 0x13AA PUSH2 0x135F DUP5 PUSH2 0x206B JUMP JUMPDEST PUSH32 0x0 PUSH3 0x7A120 PUSH32 0x66756E2D626173652D7365706F6C69612D310000000000000000000000000000 PUSH2 0x2476 JUMP JUMPDEST SWAP1 POP CALLER PUSH1 0x4 PUSH0 DUP4 DUP2 MSTORE PUSH1 0x20 ADD SWAP1 DUP2 MSTORE PUSH1 0x20 ADD PUSH0 KECCAK256 PUSH0 PUSH2 0x100 EXP DUP2 SLOAD DUP2 PUSH20 0xFFFFFFFFFFFFFFFFFFFFFFFFFFFFFFFFFFFFFFFF MUL NOT AND SWAP1 DUP4 PUSH20 0xFFFFFFFFFFFFFFFFFFFFFFFFFFFFFFFFFFFFFFFF AND MUL OR SWAP1 SSTORE POP CALLER PUSH20 0xFFFFFFFFFFFFFFFFFFFFFFFFFFFFFFFFFFFFFFFF AND PUSH32 0xFE53552C44193345FCDB414850B39531BC6809B125E345B838A108231CBEF415 DUP3 PUSH1 0x40 MLOAD PUSH2 0x1441 SWAP2 SWAP1 PUSH2 0x37B5 JUMP JUMPDEST PUSH1 0x40 MLOAD DUP1 SWAP2 SUB SWAP1 LOG2 POP POP POP POP PUSH2 0x1455 PUSH2 0x2555 JUMP JUMPDEST POP JUMP JUMPDEST PUSH2 0x1460 PUSH2 0x255F JUMP JUMPDEST PUSH2 0x1469 DUP2 PUSH2 0x276A JUMP JUMPDEST POP JUMP JUMPDEST PUSH7 0x2386F26FC10000 DUP2 JUMP JUMPDEST PUSH32 0x0 DUP2 JUMP JUMPDEST PUSH0 PUSH1 0x4 PUSH0 DUP6 DUP2 MSTORE PUSH1 0x20 ADD SWAP1 DUP2 MSTORE PUSH1 0x20 ADD PUSH0 KECCAK256 PUSH0 SWAP1 SLOAD SWAP1 PUSH2 0x100 EXP SWAP1 DIV PUSH20 0xFFFFFFFFFFFFFFFFFFFFFFFFFFFFFFFFFFFFFFFF AND SWAP1 POP PUSH0 PUSH20 0xFFFFFFFFFFFFFFFFFFFFFFFFFFFFFFFFFFFFFFFF AND DUP2 PUSH20 0xFFFFFFFFFFFFFFFFFFFFFFFFFFFFFFFFFFFFFFFF AND SUB PUSH2 0x153D JUMPI PUSH1 0x40 MLOAD PUSH32 0x8C379A000000000000000000000000000000000000000000000000000000000 DUP2 MSTORE PUSH1 0x4 ADD PUSH2 0x1534 SWAP1 PUSH2 0x4664 JUMP JUMPDEST PUSH1 0x40 MLOAD DUP1 SWAP2 SUB SWAP1 REVERT JUMPDEST PUSH0 PUSH1 0x3 PUSH0 DUP4 PUSH20 0xFFFFFFFFFFFFFFFFFFFFFFFFFFFFFFFFFFFFFFFF AND PUSH20 0xFFFFFFFFFFFFFFFFFFFFFFFFFFFFFFFFFFFFFFFF AND DUP2 MSTORE PUSH1 0x20 ADD SWAP1 DUP2 MSTORE PUSH1 0x20 ADD PUSH0 KECCAK256 SWAP1 POP DUP1 PUSH1 0x4 ADD PUSH0 SWAP1 SLOAD SWAP1 PUSH2 0x100 EXP SWAP1 DIV PUSH1 0xFF AND PUSH2 0x15CD JUMPI PUSH1 0x40 MLOAD PUSH32 0x8C379A000000000000000000000000000000000000000000000000000000000 DUP2 MSTORE PUSH1 0x4 ADD PUSH2 0x15C4 SWAP1 PUSH2 0x46CC JUMP JUMPDEST PUSH1 0x40 MLOAD DUP1 SWAP2 SUB SWAP1 REVERT JUMPDEST PUSH1 0x4 PUSH0 DUP7 DUP2 MSTORE PUSH1 0x20 ADD SWAP1 DUP2 MSTORE PUSH1 0x20 ADD PUSH0 KECCAK256 PUSH0 PUSH2 0x100 EXP DUP2 SLOAD SWAP1 PUSH20 0xFFFFFFFFFFFFFFFFFFFFFFFFFFFFFFFFFFFFFFFF MUL NOT AND SWAP1 SSTORE DUP5 PUSH32 0xACAA717AF134F780A4708EB8D27244FEE7ECBBBB96C882A85F0E6DAAB69BE0D5 DUP6 DUP6 PUSH1 0x40 MLOAD PUSH2 0x1632 SWAP3 SWAP2 SWAP1 PUSH2 0x473C JUMP JUMPDEST PUSH1 0x40 MLOAD DUP1 SWAP2 SUB SWAP1 LOG2 PUSH0 DUP4 MLOAD GT ISZERO PUSH2 0x169F JUMPI DUP3 PUSH1 0x40 MLOAD PUSH1 0x20 ADD PUSH2 0x1654 SWAP2 SWAP1 PUSH2 0x47F5 JUMP JUMPDEST PUSH1 0x40 MLOAD PUSH1 0x20 DUP2 DUP4 SUB SUB DUP2 MSTORE SWAP1 PUSH1 0x40 MSTORE PUSH1 0x40 MLOAD PUSH32 0x8C379A000000000000000000000000000000000000000000000000000000000 DUP2 MSTORE PUSH1 0x4 ADD PUSH2 0x1696 SWAP2 SWAP1 PUSH2 0x4816 JUMP JUMPDEST PUSH1 0x40 MLOAD DUP1 SWAP2 SUB SWAP1 REVERT JUMPDEST PUSH0 DUP2 PUSH1 0x4 ADD PUSH1 0x1 SWAP1 SLOAD SWAP1 PUSH2 0x100 EXP SWAP1 DIV PUSH1 0xFF AND PUSH1 0xFF AND SUB PUSH2 0x1868 JUMPI PUSH0 PUSH0 PUSH2 0x16C5 DUP7 PUSH2 0x2895 JUMP JUMPDEST SWAP2 POP SWAP2 POP PUSH1 0xA PUSH1 0xFF AND DUP2 GT ISZERO PUSH2 0x1710 JUMPI PUSH1 0x40 MLOAD PUSH32 0x8C379A000000000000000000000000000000000000000000000000000000000 DUP2 MSTORE PUSH1 0x4 ADD PUSH2 0x1707 SWAP1 PUSH2 0x4880 JUMP JUMPDEST PUSH1 0x40 MLOAD DUP1 SWAP2 SUB SWAP1 REVERT JUMPDEST PUSH0 DUP3 MLOAD GT PUSH2 0x1753 JUMPI PUSH1 0x40 MLOAD PUSH32 0x8C379A000000000000000000000000000000000000000000000000000000000 DUP2 MSTORE PUSH1 0x4 ADD PUSH2 0x174A SWAP1 PUSH2 0x48E8 JUMP JUMPDEST PUSH1 0x40 MLOAD DUP1 SWAP2 SUB SWAP1 REVERT JUMPDEST DUP3 PUSH0 ADD PUSH1 0x40 MLOAD PUSH1 0x20 ADD PUSH2 0x1766 SWAP2 SWAP1 PUSH2 0x4986 JUMP JUMPDEST PUSH1 0x40 MLOAD PUSH1 0x20 DUP2 DUP4 SUB SUB DUP2 MSTORE SWAP1 PUSH1 0x40 MSTORE DUP1 MLOAD SWAP1 PUSH1 0x20 ADD KECCAK256 DUP3 PUSH1 0x40 MLOAD PUSH1 0x20 ADD PUSH2 0x178D SWAP2 SWAP1 PUSH2 0x49CC JUMP JUMPDEST PUSH1 0x40 MLOAD PUSH1 0x20 DUP2 DUP4 SUB SUB DUP2 MSTORE SWAP1 PUSH1 0x40 MSTORE DUP1 MLOAD SWAP1 PUSH1 0x20 ADD KECCAK256 EQ PUSH2 0x17E3 JUMPI PUSH1 0x40 MLOAD PUSH32 0x8C379A000000000000000000000000000000000000000000000000000000000 DUP2 MSTORE PUSH1 0x4 ADD PUSH2 0x17DA SWAP1 PUSH2 0x4A2C JUMP JUMPDEST PUSH1 0x40 MLOAD DUP1 SWAP2 SUB SWAP1 REVERT JUMPDEST DUP1 DUP4 PUSH1 0x4 ADD PUSH1 0x1 PUSH2 0x100 EXP DUP2 SLOAD DUP2 PUSH1 0xFF MUL NOT AND SWAP1 DUP4 PUSH1 0xFF AND MUL OR SWAP1 SSTORE POP DUP4 PUSH20 0xFFFFFFFFFFFFFFFFFFFFFFFFFFFFFFFFFFFFFFFF AND PUSH32 0x24BB3705C7AD2A404FD0ED31143A60AC9C3ACF33C50E13C6FFD8D47330C6D9F3 DUP4 DUP6 PUSH1 0x4 ADD PUSH1 0x1 SWAP1 SLOAD SWAP1 PUSH2 0x100 EXP SWAP1 DIV PUSH1 0xFF AND PUSH1 0x40 MLOAD PUSH2 0x1859 SWAP3 SWAP2 SWAP1 PUSH2 0x43F8 JUMP JUMPDEST PUSH1 0x40 MLOAD DUP1 SWAP2 SUB SWAP1 LOG2 POP POP PUSH2 0x1AFD JUMP JUMPDEST PUSH0 DUP5 MLOAD GT PUSH2 0x18AB JUMPI PUSH1 0x40 MLOAD PUSH32 0x8C379A000000000000000000000000000000000000000000000000000000000 DUP2 MSTORE PUSH1 0x4 ADD PUSH2 0x18A2 SWAP1 PUSH2 0x4A94 JUMP JUMPDEST PUSH1 0x40 MLOAD DUP1 SWAP2 SUB SWAP1 REVERT JUMPDEST PUSH0 PUSH1 0x31 DUP6 PUSH0 DUP2 MLOAD DUP2 LT PUSH2 0x18C1 JUMPI PUSH2 0x18C0 PUSH2 0x4426 JUMP JUMPDEST JUMPDEST PUSH1 0x20 ADD ADD MLOAD PUSH1 0xF8 SHR PUSH1 0xF8 SHL PUSH1 0xF8 SHR PUSH1 0xFF AND EQ SWAP1 POP DUP1 ISZERO PUSH2 0x18F5 JUMPI DUP2 PUSH1 0x2 ADD PUSH0 DUP2 SLOAD DUP1 SWAP3 SWAP2 SWAP1 PUSH2 0x18EF SWAP1 PUSH2 0x4AB2 JUMP JUMPDEST SWAP2 SWAP1 POP SSTORE POP JUMPDEST DUP3 PUSH20 0xFFFFFFFFFFFFFFFFFFFFFFFFFFFFFFFFFFFFFFFF AND PUSH32 0x718B4E7FA380ADC3868ADD3B0F2B8E35C61335E0AFBC69549D60F0CF3C2F7CDE DUP3 DUP5 PUSH1 0x1 ADD PUSH0 SWAP1 SLOAD SWAP1 PUSH2 0x100 EXP SWAP1 DIV PUSH1 0xFF AND PUSH1 0x40 MLOAD PUSH2 0x194D SWAP3 SWAP2 SWAP1 PUSH2 0x4AF9 JUMP JUMPDEST PUSH1 0x40 MLOAD DUP1 SWAP2 SUB SWAP1 LOG2 DUP2 PUSH1 0x1 ADD PUSH0 DUP2 DUP2 SWAP1 SLOAD SWAP1 PUSH2 0x100 EXP SWAP1 DIV PUSH1 0xFF AND DUP1 SWAP3 SWAP2 SWAP1 PUSH2 0x1975 SWAP1 PUSH2 0x4B20 JUMP JUMPDEST SWAP2 SWAP1 PUSH2 0x100 EXP DUP2 SLOAD DUP2 PUSH1 0xFF MUL NOT AND SWAP1 DUP4 PUSH1 0xFF AND MUL OR SWAP1 SSTORE POP POP DUP2 PUSH1 0x4 ADD PUSH1 0x1 SWAP1 SLOAD SWAP1 PUSH2 0x100 EXP SWAP1 DIV PUSH1 0xFF AND PUSH1 0xFF AND DUP3 PUSH1 0x1 ADD PUSH0 SWAP1 SLOAD SWAP1 PUSH2 0x100 EXP SWAP1 DIV PUSH1 0xFF AND PUSH1 0xFF AND LT PUSH2 0x1AFB JUMPI PUSH0 DUP3 PUSH1 0x4 ADD PUSH0 PUSH2 0x100 EXP DUP2 SLOAD DUP2 PUSH1 0xFF MUL NOT AND SWAP1 DUP4 ISZERO ISZERO MUL OR SWAP1 SSTORE POP PUSH0 PUSH7 0xB1A2BC2EC50000 DUP4 PUSH1 0x2 ADD SLOAD PUSH2 0x19EF SWAP2 SWAP1 PUSH2 0x4B48 JUMP JUMPDEST SWAP1 POP PUSH0 PUSH2 0x19FB DUP3 PUSH2 0x29E6 JUMP JUMPDEST SWAP1 POP PUSH0 DUP3 GT ISZERO PUSH2 0x1AA2 JUMPI PUSH32 0x0 PUSH20 0xFFFFFFFFFFFFFFFFFFFFFFFFFFFFFFFFFFFFFFFF AND PUSH4 0xA9059CBB DUP7 DUP5 PUSH1 0x40 MLOAD DUP4 PUSH4 0xFFFFFFFF AND PUSH1 0xE0 SHL DUP2 MSTORE PUSH1 0x4 ADD PUSH2 0x1A60 SWAP3 SWAP2 SWAP1 PUSH2 0x458B JUMP JUMPDEST PUSH1 0x20 PUSH1 0x40 MLOAD DUP1 DUP4 SUB DUP2 PUSH0 DUP8 GAS CALL ISZERO DUP1 ISZERO PUSH2 0x1A7C JUMPI RETURNDATASIZE PUSH0 PUSH0 RETURNDATACOPY RETURNDATASIZE PUSH0 REVERT JUMPDEST POP POP POP POP PUSH1 0x40 MLOAD RETURNDATASIZE PUSH1 0x1F NOT PUSH1 0x1F DUP3 ADD AND DUP3 ADD DUP1 PUSH1 0x40 MSTORE POP DUP2 ADD SWAP1 PUSH2 0x1AA0 SWAP2 SWAP1 PUSH2 0x40A2 JUMP JUMPDEST POP JUMPDEST DUP5 PUSH20 0xFFFFFFFFFFFFFFFFFFFFFFFFFFFFFFFFFFFFFFFF AND PUSH32 0xA0D4582659E33EBF7E1E80B7FD9C16D821A7F74598C47A09F3B891B428E268CB DUP6 PUSH1 0x2 ADD SLOAD DUP5 DUP5 PUSH1 0x40 MLOAD PUSH2 0x1AF0 SWAP4 SWAP3 SWAP2 SWAP1 PUSH2 0x4B89 JUMP JUMPDEST PUSH1 0x40 MLOAD DUP1 SWAP2 SUB SWAP1 LOG2 POP POP JUMPDEST POP JUMPDEST POP POP POP POP POP JUMP JUMPDEST PUSH1 0x2 DUP1 SLOAD SUB PUSH2 0x1B48 JUMPI PUSH1 0x40 MLOAD PUSH32 0x8C379A000000000000000000000000000000000000000000000000000000000 DUP2 MSTORE PUSH1 0x4 ADD PUSH2 0x1B3F SWAP1 PUSH2 0x4C08 JUMP JUMPDEST PUSH1 0x40 MLOAD DUP1 SWAP2 SUB SWAP1 REVERT JUMPDEST PUSH1 0x2 DUP1 DUP2 SWAP1 SSTORE POP JUMP JUMPDEST PUSH1 0x60 PUSH0 DUP4 DUP4 PUSH1 0x40 MLOAD PUSH1 0x20 ADD PUSH2 0x1B67 SWAP3 SWAP2 SWAP1 PUSH2 0x4C8B JUMP JUMPDEST PUSH1 0x40 MLOAD PUSH1 0x20 DUP2 DUP4 SUB SUB DUP2 MSTORE SWAP1 PUSH1 0x40 MSTORE DUP1 MLOAD SWAP1 PUSH1 0x20 ADD KECCAK256 SWAP1 POP PUSH2 0x1B99 PUSH4 0x5F5E100 DUP3 PUSH0 SHR PUSH2 0x1B94 SWAP2 SWAP1 PUSH2 0x4CE3 JUMP JUMPDEST PUSH2 0x2AE4 JUMP JUMPDEST SWAP2 POP POP SWAP3 SWAP2 POP POP JUMP JUMPDEST PUSH1 0x60 PUSH1 0x40 MLOAD DUP1 PUSH2 0x2C0 ADD PUSH1 0x40 MSTORE DUP1 PUSH2 0x290 DUP2 MSTORE PUSH1 0x20 ADD PUSH2 0x56A3 PUSH2 0x290 SWAP2 CODECOPY SWAP1 POP SWAP1 JUMP JUMPDEST PUSH2 0x1BD1 DUP3 PUSH0 PUSH0 DUP5 PUSH2 0x2C9B JUMP JUMPDEST POP POP JUMP JUMPDEST PUSH1 0x60 PUSH0 PUSH1 0x40 MLOAD DUP1 PUSH1 0x40 ADD PUSH1 0x40 MSTORE DUP1 PUSH1 0x1 DUP2 MSTORE PUSH1 0x20 ADD PUSH32 0x5B00000000000000000000000000000000000000000000000000000000000000 DUP2 MSTORE POP SWAP1 POP PUSH0 JUMPDEST DUP4 MLOAD DUP2 LT ISZERO PUSH2 0x1CC6 JUMPI DUP2 DUP5 DUP3 DUP2 MLOAD DUP2 LT PUSH2 0x1C2F JUMPI PUSH2 0x1C2E PUSH2 0x4426 JUMP JUMPDEST JUMPDEST PUSH1 0x20 MUL PUSH1 0x20 ADD ADD MLOAD PUSH1 0x1 DUP7 MLOAD PUSH2 0x1C45 SWAP2 SWAP1 PUSH2 0x4D13 JUMP JUMPDEST DUP4 LT PUSH2 0x1C5F JUMPI PUSH1 0x40 MLOAD DUP1 PUSH1 0x20 ADD PUSH1 0x40 MSTORE DUP1 PUSH0 DUP2 MSTORE POP PUSH2 0x1C96 JUMP JUMPDEST PUSH1 0x40 MLOAD DUP1 PUSH1 0x40 ADD PUSH1 0x40 MSTORE DUP1 PUSH1 0x1 DUP2 MSTORE PUSH1 0x20 ADD PUSH32 0x2C00000000000000000000000000000000000000000000000000000000000000 DUP2 MSTORE POP JUMPDEST PUSH1 0x40 MLOAD PUSH1 0x20 ADD PUSH2 0x1CA8 SWAP4 SWAP3 SWAP2 SWAP1 PUSH2 0x4D90 JUMP JUMPDEST PUSH1 0x40 MLOAD PUSH1 0x20 DUP2 DUP4 SUB SUB DUP2 MSTORE SWAP1 PUSH1 0x40 MSTORE SWAP2 POP DUP1 DUP1 PUSH1 0x1 ADD SWAP2 POP POP PUSH2 0x1C12 JUMP JUMPDEST POP DUP1 PUSH1 0x40 MLOAD PUSH1 0x20 ADD PUSH2 0x1CD8 SWAP2 SWAP1 PUSH2 0x4E20 JUMP JUMPDEST PUSH1 0x40 MLOAD PUSH1 0x20 DUP2 DUP4 SUB SUB DUP2 MSTORE SWAP1 PUSH1 0x40 MSTORE SWAP2 POP POP SWAP2 SWAP1 POP JUMP JUMPDEST PUSH1 0x60 PUSH0 PUSH1 0x40 MLOAD DUP1 PUSH1 0x40 ADD PUSH1 0x40 MSTORE DUP1 PUSH1 0x10 DUP2 MSTORE PUSH1 0x20 ADD PUSH32 0x3031323334353637383961626364656600000000000000000000000000000000 DUP2 MSTORE POP SWAP1 POP PUSH0 PUSH1 0x2A PUSH8 0xFFFFFFFFFFFFFFFF DUP2 GT ISZERO PUSH2 0x1D46 JUMPI PUSH2 0x1D45 PUSH2 0x35FA JUMP JUMPDEST JUMPDEST PUSH1 0x40 MLOAD SWAP1 DUP1 DUP3 MSTORE DUP1 PUSH1 0x1F ADD PUSH1 0x1F NOT AND PUSH1 0x20 ADD DUP3 ADD PUSH1 0x40 MSTORE DUP1 ISZERO PUSH2 0x1D78 JUMPI DUP2 PUSH1 0x20 ADD PUSH1 0x1 DUP3 MUL DUP1 CALLDATASIZE DUP4 CALLDATACOPY DUP1 DUP3 ADD SWAP2 POP POP SWAP1 POP JUMPDEST POP SWAP1 POP PUSH32 0x3000000000000000000000000000000000000000000000000000000000000000 DUP2 PUSH0 DUP2 MLOAD DUP2 LT PUSH2 0x1DAF JUMPI PUSH2 0x1DAE PUSH2 0x4426 JUMP JUMPDEST JUMPDEST PUSH1 0x20 ADD ADD SWAP1 PUSH31 0xFFFFFFFFFFFFFFFFFFFFFFFFFFFFFFFFFFFFFFFFFFFFFFFFFFFFFFFFFFFFFF NOT AND SWAP1 DUP2 PUSH0 BYTE SWAP1 MSTORE8 POP PUSH32 0x7800000000000000000000000000000000000000000000000000000000000000 DUP2 PUSH1 0x1 DUP2 MLOAD DUP2 LT PUSH2 0x1E12 JUMPI PUSH2 0x1E11 PUSH2 0x4426 JUMP JUMPDEST JUMPDEST PUSH1 0x20 ADD ADD SWAP1 PUSH31 0xFFFFFFFFFFFFFFFFFFFFFFFFFFFFFFFFFFFFFFFFFFFFFFFFFFFFFFFFFFFFFF NOT AND SWAP1 DUP2 PUSH0 BYTE SWAP1 MSTORE8 POP PUSH0 DUP5 PUSH1 0x60 SHL SWAP1 POP PUSH0 PUSH0 SWAP1 POP JUMPDEST PUSH1 0x14 DUP2 LT ISZERO PUSH2 0x1F7E JUMPI PUSH0 DUP3 DUP3 PUSH1 0x14 DUP2 LT PUSH2 0x1E69 JUMPI PUSH2 0x1E68 PUSH2 0x4426 JUMP JUMPDEST JUMPDEST BYTE PUSH1 0xF8 SHL PUSH1 0xF8 SHR SWAP1 POP DUP5 PUSH1 0x4 DUP3 PUSH1 0xFF AND SWAP1 SHR PUSH1 0xFF AND DUP2 MLOAD DUP2 LT PUSH2 0x1E8F JUMPI PUSH2 0x1E8E PUSH2 0x4426 JUMP JUMPDEST JUMPDEST PUSH1 0x20 ADD ADD MLOAD PUSH1 0xF8 SHR PUSH1 0xF8 SHL DUP5 PUSH1 0x2 DUP5 PUSH2 0x1EA8 SWAP2 SWAP1 PUSH2 0x4B48 JUMP JUMPDEST PUSH1 0x2 PUSH2 0x1EB4 SWAP2 SWAP1 PUSH2 0x3FA8 JUMP JUMPDEST DUP2 MLOAD DUP2 LT PUSH2 0x1EC5 JUMPI PUSH2 0x1EC4 PUSH2 0x4426 JUMP JUMPDEST JUMPDEST PUSH1 0x20 ADD ADD SWAP1 PUSH31 0xFFFFFFFFFFFFFFFFFFFFFFFFFFFFFFFFFFFFFFFFFFFFFFFFFFFFFFFFFFFFFF NOT AND SWAP1 DUP2 PUSH0 BYTE SWAP1 MSTORE8 POP DUP5 PUSH1 0xF DUP3 AND PUSH1 0xFF AND DUP2 MLOAD DUP2 LT PUSH2 0x1F0C JUMPI PUSH2 0x1F0B PUSH2 0x4426 JUMP JUMPDEST JUMPDEST PUSH1 0x20 ADD ADD MLOAD PUSH1 0xF8 SHR PUSH1 0xF8 SHL DUP5 PUSH1 0x2 DUP5 PUSH2 0x1F25 SWAP2 SWAP1 PUSH2 0x4B48 JUMP JUMPDEST PUSH1 0x3 PUSH2 0x1F31 SWAP2 SWAP1 PUSH2 0x3FA8 JUMP JUMPDEST DUP2 MLOAD DUP2 LT PUSH2 0x1F42 JUMPI PUSH2 0x1F41 PUSH2 0x4426 JUMP JUMPDEST JUMPDEST PUSH1 0x20 ADD ADD SWAP1 PUSH31 0xFFFFFFFFFFFFFFFFFFFFFFFFFFFFFFFFFFFFFFFFFFFFFFFFFFFFFFFFFFFFFF NOT AND SWAP1 DUP2 PUSH0 BYTE SWAP1 MSTORE8 POP POP DUP1 DUP1 PUSH1 0x1 ADD SWAP2 POP POP PUSH2 0x1E4C JUMP JUMPDEST POP DUP2 SWAP4 POP POP POP POP SWAP2 SWAP1 POP JUMP JUMPDEST PUSH1 0x60 PUSH1 0x40 MLOAD DUP1 PUSH1 0x40 ADD PUSH1 0x40 MSTORE DUP1 PUSH1 0x15 DUP2 MSTORE PUSH1 0x20 ADD PUSH32 0x687474703A2F2F6C6F63616C686F73743A353030300000000000000000000000 DUP2 MSTORE POP SWAP1 POP SWAP1 JUMP JUMPDEST PUSH1 0x60 PUSH1 0x40 MLOAD DUP1 PUSH1 0x60 ADD PUSH1 0x40 MSTORE DUP1 PUSH1 0x28 DUP2 MSTORE PUSH1 0x20 ADD PUSH2 0x54A9 PUSH1 0x28 SWAP2 CODECOPY SWAP1 POP SWAP1 JUMP JUMPDEST PUSH1 0x60 PUSH1 0x40 MLOAD DUP1 PUSH1 0x40 ADD PUSH1 0x40 MSTORE DUP1 PUSH1 0x7 DUP2 MSTORE PUSH1 0x20 ADD PUSH32 0x5175697A7A657300000000000000000000000000000000000000000000000000 DUP2 MSTORE POP SWAP1 POP SWAP1 JUMP JUMPDEST PUSH0 DUP2 MLOAD SUB PUSH2 0x205E JUMPI PUSH1 0x40 MLOAD PUSH32 0xFE936CB700000000000000000000000000000000000000000000000000000000 DUP2 MSTORE PUSH1 0x4 ADD PUSH1 0x40 MLOAD DUP1 SWAP2 SUB SWAP1 REVERT JUMPDEST DUP1 DUP3 PUSH1 0xA0 ADD DUP2 SWAP1 MSTORE POP POP POP JUMP JUMPDEST PUSH1 0x60 PUSH0 PUSH2 0x2079 PUSH2 0x100 PUSH2 0x2D41 JUMP JUMPDEST SWAP1 POP PUSH2 0x20C3 PUSH1 0x40 MLOAD DUP1 PUSH1 0x40 ADD PUSH1 0x40 MSTORE DUP1 PUSH1 0xC DUP2 MSTORE PUSH1 0x20 ADD PUSH32 0x636F64654C6F636174696F6E0000000000000000000000000000000000000000 DUP2 MSTORE POP DUP3 PUSH2 0x2D66 SWAP1 SWAP2 SWAP1 PUSH4 0xFFFFFFFF AND JUMP JUMPDEST PUSH2 0x20EB DUP4 PUSH0 ADD MLOAD PUSH1 0x2 DUP2 GT ISZERO PUSH2 0x20DC JUMPI PUSH2 0x20DB PUSH2 0x4E41 JUMP JUMPDEST JUMPDEST DUP3 PUSH2 0x2D8E SWAP1 SWAP2 SWAP1 PUSH4 0xFFFFFFFF AND JUMP JUMPDEST PUSH2 0x2133 PUSH1 0x40 MLOAD DUP1 PUSH1 0x40 ADD PUSH1 0x40 MSTORE DUP1 PUSH1 0x8 DUP2 MSTORE PUSH1 0x20 ADD PUSH32 0x6C616E6775616765000000000000000000000000000000000000000000000000 DUP2 MSTORE POP DUP3 PUSH2 0x2D66 SWAP1 SWAP2 SWAP1 PUSH4 0xFFFFFFFF AND JUMP JUMPDEST PUSH2 0x215B DUP4 PUSH1 0x40 ADD MLOAD PUSH0 DUP2 GT ISZERO PUSH2 0x214C JUMPI PUSH2 0x214B PUSH2 0x4E41 JUMP JUMPDEST JUMPDEST DUP3 PUSH2 0x2D8E SWAP1 SWAP2 SWAP1 PUSH4 0xFFFFFFFF AND JUMP JUMPDEST PUSH2 0x21A3 PUSH1 0x40 MLOAD DUP1 PUSH1 0x40 ADD PUSH1 0x40 MSTORE DUP1 PUSH1 0x6 DUP2 MSTORE PUSH1 0x20 ADD PUSH32 0x736F757263650000000000000000000000000000000000000000000000000000 DUP2 MSTORE POP DUP3 PUSH2 0x2D66 SWAP1 SWAP2 SWAP1 PUSH4 0xFFFFFFFF AND JUMP JUMPDEST PUSH2 0x21BA DUP4 PUSH1 0x60 ADD MLOAD DUP3 PUSH2 0x2D66 SWAP1 SWAP2 SWAP1 PUSH4 0xFFFFFFFF AND JUMP JUMPDEST PUSH0 DUP4 PUSH1 0xA0 ADD MLOAD MLOAD GT ISZERO PUSH2 0x2271 JUMPI PUSH2 0x220F PUSH1 0x40 MLOAD DUP1 PUSH1 0x40 ADD PUSH1 0x40 MSTORE DUP1 PUSH1 0x4 DUP2 MSTORE PUSH1 0x20 ADD PUSH32 0x6172677300000000000000000000000000000000000000000000000000000000 DUP2 MSTORE POP DUP3 PUSH2 0x2D66 SWAP1 SWAP2 SWAP1 PUSH4 0xFFFFFFFF AND JUMP JUMPDEST PUSH2 0x2218 DUP2 PUSH2 0x2DDD JUMP JUMPDEST PUSH0 PUSH0 SWAP1 POP JUMPDEST DUP4 PUSH1 0xA0 ADD MLOAD MLOAD DUP2 LT ISZERO PUSH2 0x2266 JUMPI PUSH2 0x225B DUP5 PUSH1 0xA0 ADD MLOAD DUP3 DUP2 MLOAD DUP2 LT PUSH2 0x2244 JUMPI PUSH2 0x2243 PUSH2 0x4426 JUMP JUMPDEST JUMPDEST PUSH1 0x20 MUL PUSH1 0x20 ADD ADD MLOAD DUP4 PUSH2 0x2D66 SWAP1 SWAP2 SWAP1 PUSH4 0xFFFFFFFF AND JUMP JUMPDEST DUP1 PUSH1 0x1 ADD SWAP1 POP PUSH2 0x221D JUMP JUMPDEST POP PUSH2 0x2270 DUP2 PUSH2 0x2E05 JUMP JUMPDEST JUMPDEST PUSH0 DUP4 PUSH1 0x80 ADD MLOAD MLOAD GT ISZERO PUSH2 0x23B0 JUMPI PUSH0 PUSH1 0x2 DUP2 GT ISZERO PUSH2 0x2291 JUMPI PUSH2 0x2290 PUSH2 0x4E41 JUMP JUMPDEST JUMPDEST DUP4 PUSH1 0x20 ADD MLOAD PUSH1 0x2 DUP2 GT ISZERO PUSH2 0x22A8 JUMPI PUSH2 0x22A7 PUSH2 0x4E41 JUMP JUMPDEST JUMPDEST SUB PUSH2 0x22DF JUMPI PUSH1 0x40 MLOAD PUSH32 0xA80D31F700000000000000000000000000000000000000000000000000000000 DUP2 MSTORE PUSH1 0x4 ADD PUSH1 0x40 MLOAD DUP1 SWAP2 SUB SWAP1 REVERT JUMPDEST PUSH2 0x2327 PUSH1 0x40 MLOAD DUP1 PUSH1 0x40 ADD PUSH1 0x40 MSTORE DUP1 PUSH1 0xF DUP2 MSTORE PUSH1 0x20 ADD PUSH32 0x736563726574734C6F636174696F6E0000000000000000000000000000000000 DUP2 MSTORE POP DUP3 PUSH2 0x2D66 SWAP1 SWAP2 SWAP1 PUSH4 0xFFFFFFFF AND JUMP JUMPDEST PUSH2 0x2350 DUP4 PUSH1 0x20 ADD MLOAD PUSH1 0x2 DUP2 GT ISZERO PUSH2 0x2341 JUMPI PUSH2 0x2340 PUSH2 0x4E41 JUMP JUMPDEST JUMPDEST DUP3 PUSH2 0x2D8E SWAP1 SWAP2 SWAP1 PUSH4 0xFFFFFFFF AND JUMP JUMPDEST PUSH2 0x2398 PUSH1 0x40 MLOAD DUP1 PUSH1 0x40 ADD PUSH1 0x40 MSTORE DUP1 PUSH1 0x7 DUP2 MSTORE PUSH1 0x20 ADD PUSH32 0x7365637265747300000000000000000000000000000000000000000000000000 DUP2 MSTORE POP DUP3 PUSH2 0x2D66 SWAP1 SWAP2 SWAP1 PUSH4 0xFFFFFFFF AND JUMP JUMPDEST PUSH2 0x23AF DUP4 PUSH1 0x80 ADD MLOAD DUP3 PUSH2 0x2E2D SWAP1 SWAP2 SWAP1 PUSH4 0xFFFFFFFF AND JUMP JUMPDEST JUMPDEST PUSH0 DUP4 PUSH1 0xC0 ADD MLOAD MLOAD GT ISZERO PUSH2 0x2467 JUMPI PUSH2 0x2405 PUSH1 0x40 MLOAD DUP1 PUSH1 0x40 ADD PUSH1 0x40 MSTORE DUP1 PUSH1 0x9 DUP2 MSTORE PUSH1 0x20 ADD PUSH32 0x6279746573417267730000000000000000000000000000000000000000000000 DUP2 MSTORE POP DUP3 PUSH2 0x2D66 SWAP1 SWAP2 SWAP1 PUSH4 0xFFFFFFFF AND JUMP JUMPDEST PUSH2 0x240E DUP2 PUSH2 0x2DDD JUMP JUMPDEST PUSH0 PUSH0 SWAP1 POP JUMPDEST DUP4 PUSH1 0xC0 ADD MLOAD MLOAD DUP2 LT ISZERO PUSH2 0x245C JUMPI PUSH2 0x2451 DUP5 PUSH1 0xC0 ADD MLOAD DUP3 DUP2 MLOAD DUP2 LT PUSH2 0x243A JUMPI PUSH2 0x2439 PUSH2 0x4426 JUMP JUMPDEST JUMPDEST PUSH1 0x20 MUL PUSH1 0x20 ADD ADD MLOAD DUP4 PUSH2 0x2E2D SWAP1 SWAP2 SWAP1 PUSH4 0xFFFFFFFF AND JUMP JUMPDEST DUP1 PUSH1 0x1 ADD SWAP1 POP PUSH2 0x2413 JUMP JUMPDEST POP PUSH2 0x2466 DUP2 PUSH2 0x2E05 JUMP JUMPDEST JUMPDEST DUP1 PUSH0 ADD MLOAD PUSH0 ADD MLOAD SWAP2 POP POP SWAP2 SWAP1 POP JUMP JUMPDEST PUSH0 PUSH0 PUSH32 0x0 PUSH20 0xFFFFFFFFFFFFFFFFFFFFFFFFFFFFFFFFFFFFFFFF AND PUSH4 0x461D2762 DUP7 DUP9 PUSH1 0x1 DUP9 DUP9 PUSH1 0x40 MLOAD DUP7 PUSH4 0xFFFFFFFF AND PUSH1 0xE0 SHL DUP2 MSTORE PUSH1 0x4 ADD PUSH2 0x24DA SWAP6 SWAP5 SWAP4 SWAP3 SWAP2 SWAP1 PUSH2 0x4E8A JUMP JUMPDEST PUSH1 0x20 PUSH1 0x40 MLOAD DUP1 DUP4 SUB DUP2 PUSH0 DUP8 GAS CALL ISZERO DUP1 ISZERO PUSH2 0x24F6 JUMPI RETURNDATASIZE PUSH0 PUSH0 RETURNDATACOPY RETURNDATASIZE PUSH0 REVERT JUMPDEST POP POP POP POP PUSH1 0x40 MLOAD RETURNDATASIZE PUSH1 0x1F NOT PUSH1 0x1F DUP3 ADD AND DUP3 ADD DUP1 PUSH1 0x40 MSTORE POP DUP2 ADD SWAP1 PUSH2 0x251A SWAP2 SWAP1 PUSH2 0x4EF6 JUMP JUMPDEST SWAP1 POP DUP1 PUSH32 0x1131472297A800FEE664D1D89CFA8F7676FF07189ECC53F80BBB5F4969099DB8 PUSH1 0x40 MLOAD PUSH1 0x40 MLOAD DUP1 SWAP2 SUB SWAP1 LOG2 DUP1 SWAP2 POP POP SWAP5 SWAP4 POP POP POP POP JUMP JUMPDEST PUSH1 0x1 PUSH1 0x2 DUP2 SWAP1 SSTORE POP JUMP JUMPDEST PUSH0 PUSH0 SWAP1 SLOAD SWAP1 PUSH2 0x100 EXP SWAP1 DIV PUSH20 0xFFFFFFFFFFFFFFFFFFFFFFFFFFFFFFFFFFFFFFFF AND PUSH20 0xFFFFFFFFFFFFFFFFFFFFFFFFFFFFFFFFFFFFFFFF AND CALLER PUSH20 0xFFFFFFFFFFFFFFFFFFFFFFFFFFFFFFFFFFFFFFFF AND EQ PUSH2 0x25ED JUMPI PUSH1 0x40 MLOAD PUSH32 0x8C379A000000000000000000000000000000000000000000000000000000000 DUP2 MSTORE PUSH1 0x4 ADD PUSH2 0x25E4 SWAP1 PUSH2 0x4F6B JUMP JUMPDEST PUSH1 0x40 MLOAD DUP1 SWAP2 SUB SWAP1 REVERT JUMPDEST JUMP JUMPDEST PUSH1 0x60 PUSH1 0x40 MLOAD DUP1 PUSH2 0x200 ADD PUSH1 0x40 MSTORE DUP1 PUSH2 0x1D2 DUP2 MSTORE PUSH1 0x20 ADD PUSH2 0x54D1 PUSH2 0x1D2 SWAP2 CODECOPY SWAP1 POP SWAP1 JUMP JUMPDEST PUSH1 0x60 PUSH0 DUP3 SUB PUSH2 0x2658 JUMPI PUSH1 0x40 MLOAD DUP1 PUSH1 0x40 ADD PUSH1 0x40 MSTORE DUP1 PUSH1 0x1 DUP2 MSTORE PUSH1 0x20 ADD PUSH32 0x3000000000000000000000000000000000000000000000000000000000000000 DUP2 MSTORE POP SWAP1 POP PUSH2 0x2765 JUMP JUMPDEST PUSH0 PUSH0 DUP4 SWAP1 POP JUMPDEST PUSH0 DUP2 GT ISZERO PUSH2 0x2688 JUMPI DUP2 DUP1 PUSH2 0x2671 SWAP1 PUSH2 0x4AB2 JUMP JUMPDEST SWAP3 POP POP PUSH1 0xA DUP2 PUSH2 0x2681 SWAP2 SWAP1 PUSH2 0x4F89 JUMP JUMPDEST SWAP1 POP PUSH2 0x265E JUMP JUMPDEST POP PUSH0 DUP2 PUSH8 0xFFFFFFFFFFFFFFFF DUP2 GT ISZERO PUSH2 0x26A4 JUMPI PUSH2 0x26A3 PUSH2 0x35FA JUMP JUMPDEST JUMPDEST PUSH1 0x40 MLOAD SWAP1 DUP1 DUP3 MSTORE DUP1 PUSH1 0x1F ADD PUSH1 0x1F NOT AND PUSH1 0x20 ADD DUP3 ADD PUSH1 0x40 MSTORE DUP1 ISZERO PUSH2 0x26D6 JUMPI DUP2 PUSH1 0x20 ADD PUSH1 0x1 DUP3 MUL DUP1 CALLDATASIZE DUP4 CALLDATACOPY DUP1 DUP3 ADD SWAP2 POP POP SWAP1 POP JUMPDEST POP SWAP1 POP JUMPDEST PUSH0 DUP5 GT ISZERO PUSH2 0x275F JUMPI PUSH1 0xA DUP5 PUSH2 0x26EF SWAP2 SWAP1 PUSH2 0x4CE3 JUMP JUMPDEST PUSH1 0x30 PUSH2 0x26FB SWAP2 SWAP1 PUSH2 0x3FA8 JUMP JUMPDEST PUSH1 0xF8 SHL DUP2 DUP4 PUSH2 0x2709 SWAP1 PUSH2 0x4FB9 JUMP JUMPDEST SWAP4 POP DUP4 DUP2 MLOAD DUP2 LT PUSH2 0x271D JUMPI PUSH2 0x271C PUSH2 0x4426 JUMP JUMPDEST JUMPDEST PUSH1 0x20 ADD ADD SWAP1 PUSH31 0xFFFFFFFFFFFFFFFFFFFFFFFFFFFFFFFFFFFFFFFFFFFFFFFFFFFFFFFFFFFFFF NOT AND SWAP1 DUP2 PUSH0 BYTE SWAP1 MSTORE8 POP PUSH1 0xA DUP5 PUSH2 0x2758 SWAP2 SWAP1 PUSH2 0x4F89 JUMP JUMPDEST SWAP4 POP PUSH2 0x26DA JUMP JUMPDEST DUP1 SWAP3 POP POP POP JUMPDEST SWAP2 SWAP1 POP JUMP JUMPDEST CALLER PUSH20 0xFFFFFFFFFFFFFFFFFFFFFFFFFFFFFFFFFFFFFFFF AND DUP2 PUSH20 0xFFFFFFFFFFFFFFFFFFFFFFFFFFFFFFFFFFFFFFFF AND SUB PUSH2 0x27D8 JUMPI PUSH1 0x40 MLOAD PUSH32 0x8C379A000000000000000000000000000000000000000000000000000000000 DUP2 MSTORE PUSH1 0x4 ADD PUSH2 0x27CF SWAP1 PUSH2 0x502A JUMP JUMPDEST PUSH1 0x40 MLOAD DUP1 SWAP2 SUB SWAP1 REVERT JUMPDEST DUP1 PUSH1 0x1 PUSH0 PUSH2 0x100 EXP DUP2 SLOAD DUP2 PUSH20 0xFFFFFFFFFFFFFFFFFFFFFFFFFFFFFFFFFFFFFFFF MUL NOT AND SWAP1 DUP4 PUSH20 0xFFFFFFFFFFFFFFFFFFFFFFFFFFFFFFFFFFFFFFFF AND MUL OR SWAP1 SSTORE POP DUP1 PUSH20 0xFFFFFFFFFFFFFFFFFFFFFFFFFFFFFFFFFFFFFFFF AND PUSH0 PUSH0 SWAP1 SLOAD SWAP1 PUSH2 0x100 EXP SWAP1 DIV PUSH20 0xFFFFFFFFFFFFFFFFFFFFFFFFFFFFFFFFFFFFFFFF AND PUSH20 0xFFFFFFFFFFFFFFFFFFFFFFFFFFFFFFFFFFFFFFFF AND PUSH32 0xED8889F560326EB138920D842192F0EB3DD22B4F139C87A2C57538E05BAE1278 PUSH1 0x40 MLOAD PUSH1 0x40 MLOAD DUP1 SWAP2 SUB SWAP1 LOG3 POP JUMP JUMPDEST PUSH1 0x60 PUSH0 PUSH0 DUP4 SWAP1 POP PUSH0 DUP2 MLOAD GT PUSH2 0x28DF JUMPI PUSH1 0x40 MLOAD PUSH32 0x8C379A000000000000000000000000000000000000000000000000000000000 DUP2 MSTORE PUSH1 0x4 ADD PUSH2 0x28D6 SWAP1 PUSH2 0x4A94 JUMP JUMPDEST PUSH1 0x40 MLOAD DUP1 SWAP2 SUB SWAP1 REVERT JUMPDEST PUSH0 JUMPDEST DUP2 MLOAD DUP2 LT DUP1 ISZERO PUSH2 0x2934 JUMPI POP PUSH1 0x7C PUSH1 0xF8 SHL DUP3 DUP3 DUP2 MLOAD DUP2 LT PUSH2 0x2904 JUMPI PUSH2 0x2903 PUSH2 0x4426 JUMP JUMPDEST JUMPDEST PUSH1 0x20 ADD ADD MLOAD PUSH1 0xF8 SHR PUSH1 0xF8 SHL PUSH31 0xFFFFFFFFFFFFFFFFFFFFFFFFFFFFFFFFFFFFFFFFFFFFFFFFFFFFFFFFFFFFFF NOT AND EQ ISZERO JUMPDEST ISZERO PUSH2 0x294C JUMPI DUP1 DUP1 PUSH2 0x2944 SWAP1 PUSH2 0x4AB2 JUMP JUMPDEST SWAP2 POP POP PUSH2 0x28E1 JUMP JUMPDEST DUP2 MLOAD DUP2 LT PUSH2 0x298F JUMPI PUSH1 0x40 MLOAD PUSH32 0x8C379A000000000000000000000000000000000000000000000000000000000 DUP2 MSTORE PUSH1 0x4 ADD PUSH2 0x2986 SWAP1 PUSH2 0x5092 JUMP JUMPDEST PUSH1 0x40 MLOAD DUP1 SWAP2 SUB SWAP1 REVERT JUMPDEST PUSH0 PUSH2 0x299B DUP4 PUSH0 DUP5 PUSH2 0x2E55 JUMP JUMPDEST SWAP1 POP PUSH0 PUSH2 0x29D5 PUSH2 0x29D0 DUP6 PUSH1 0x1 DUP7 PUSH2 0x29B2 SWAP2 SWAP1 PUSH2 0x3FA8 JUMP JUMPDEST PUSH1 0x1 DUP8 DUP10 MLOAD PUSH2 0x29C1 SWAP2 SWAP1 PUSH2 0x4D13 JUMP JUMPDEST PUSH2 0x29CB SWAP2 SWAP1 PUSH2 0x4D13 JUMP JUMPDEST PUSH2 0x2E55 JUMP JUMPDEST PUSH2 0x2F2F JUMP JUMPDEST SWAP1 POP DUP2 DUP2 SWAP6 POP SWAP6 POP POP POP POP POP SWAP2 POP SWAP2 JUMP JUMPDEST PUSH0 PUSH0 PUSH32 0x0 PUSH20 0xFFFFFFFFFFFFFFFFFFFFFFFFFFFFFFFFFFFFFFFF AND PUSH4 0xFEAF968C PUSH1 0x40 MLOAD DUP2 PUSH4 0xFFFFFFFF AND PUSH1 0xE0 SHL DUP2 MSTORE PUSH1 0x4 ADD PUSH1 0xA0 PUSH1 0x40 MLOAD DUP1 DUP4 SUB DUP2 DUP7 GAS STATICCALL ISZERO DUP1 ISZERO PUSH2 0x2A51 JUMPI RETURNDATASIZE PUSH0 PUSH0 RETURNDATACOPY RETURNDATASIZE PUSH0 REVERT JUMPDEST POP POP POP POP PUSH1 0x40 MLOAD RETURNDATASIZE PUSH1 0x1F NOT PUSH1 0x1F DUP3 ADD AND DUP3 ADD DUP1 PUSH1 0x40 MSTORE POP DUP2 ADD SWAP1 PUSH2 0x2A75 SWAP2 SWAP1 PUSH2 0x514C JUMP JUMPDEST POP POP POP SWAP2 POP POP PUSH0 DUP2 SGT PUSH2 0x2ABD JUMPI PUSH1 0x40 MLOAD PUSH32 0x8C379A000000000000000000000000000000000000000000000000000000000 DUP2 MSTORE PUSH1 0x4 ADD PUSH2 0x2AB4 SWAP1 PUSH2 0x520D JUMP JUMPDEST PUSH1 0x40 MLOAD DUP1 SWAP2 SUB SWAP1 REVERT JUMPDEST PUSH8 0xDE0B6B3A7640000 DUP2 DUP5 PUSH2 0x2AD2 SWAP2 SWAP1 PUSH2 0x4B48 JUMP JUMPDEST PUSH2 0x2ADC SWAP2 SWAP1 PUSH2 0x4F89 JUMP JUMPDEST SWAP2 POP POP SWAP2 SWAP1 POP JUMP JUMPDEST PUSH1 0x60 PUSH0 PUSH1 0x40 MLOAD DUP1 PUSH1 0x40 ADD PUSH1 0x40 MSTORE DUP1 PUSH1 0x10 DUP2 MSTORE PUSH1 0x20 ADD PUSH32 0x3031323334353637383961626364656600000000000000000000000000000000 DUP2 MSTORE POP SWAP1 POP PUSH0 PUSH1 0x10 PUSH8 0xFFFFFFFFFFFFFFFF DUP2 GT ISZERO PUSH2 0x2B3B JUMPI PUSH2 0x2B3A PUSH2 0x35FA JUMP JUMPDEST JUMPDEST PUSH1 0x40 MLOAD SWAP1 DUP1 DUP3 MSTORE DUP1 PUSH1 0x1F ADD PUSH1 0x1F NOT AND PUSH1 0x20 ADD DUP3 ADD PUSH1 0x40 MSTORE DUP1 ISZERO PUSH2 0x2B6D JUMPI DUP2 PUSH1 0x20 ADD PUSH1 0x1 DUP3 MUL DUP1 CALLDATASIZE DUP4 CALLDATACOPY DUP1 DUP3 ADD SWAP2 POP POP SWAP1 POP JUMPDEST POP SWAP1 POP PUSH0 PUSH0 SWAP1 POP JUMPDEST PUSH1 0x8 DUP2 LT ISZERO PUSH2 0x2C90 JUMPI PUSH0 PUSH1 0xF DUP3 PUSH1 0x7 PUSH2 0x2B8E SWAP2 SWAP1 PUSH2 0x4D13 JUMP JUMPDEST PUSH1 0x4 PUSH2 0x2B9A SWAP2 SWAP1 PUSH2 0x4B48 JUMP JUMPDEST DUP8 SWAP1 SHR AND SWAP1 POP DUP4 DUP2 DUP2 MLOAD DUP2 LT PUSH2 0x2BB3 JUMPI PUSH2 0x2BB2 PUSH2 0x4426 JUMP JUMPDEST JUMPDEST PUSH1 0x20 ADD ADD MLOAD PUSH1 0xF8 SHR PUSH1 0xF8 SHL DUP4 PUSH1 0x2 DUP5 PUSH2 0x2BCC SWAP2 SWAP1 PUSH2 0x4B48 JUMP JUMPDEST DUP2 MLOAD DUP2 LT PUSH2 0x2BDD JUMPI PUSH2 0x2BDC PUSH2 0x4426 JUMP JUMPDEST JUMPDEST PUSH1 0x20 ADD ADD SWAP1 PUSH31 0xFFFFFFFFFFFFFFFFFFFFFFFFFFFFFFFFFFFFFFFFFFFFFFFFFFFFFFFFFFFFFF NOT AND SWAP1 DUP2 PUSH0 BYTE SWAP1 MSTORE8 POP DUP4 DUP2 DUP2 MLOAD DUP2 LT PUSH2 0x2C1E JUMPI PUSH2 0x2C1D PUSH2 0x4426 JUMP JUMPDEST JUMPDEST PUSH1 0x20 ADD ADD MLOAD PUSH1 0xF8 SHR PUSH1 0xF8 SHL DUP4 PUSH1 0x1 PUSH1 0x2 DUP6 PUSH2 0x2C39 SWAP2 SWAP1 PUSH2 0x4B48 JUMP JUMPDEST PUSH2 0x2C43 SWAP2 SWAP1 PUSH2 0x3FA8 JUMP JUMPDEST DUP2 MLOAD DUP2 LT PUSH2 0x2C54 JUMPI PUSH2 0x2C53 PUSH2 0x4426 JUMP JUMPDEST JUMPDEST PUSH1 0x20 ADD ADD SWAP1 PUSH31 0xFFFFFFFFFFFFFFFFFFFFFFFFFFFFFFFFFFFFFFFFFFFFFFFFFFFFFFFFFFFFFF NOT AND SWAP1 DUP2 PUSH0 BYTE SWAP1 MSTORE8 POP POP DUP1 DUP1 PUSH1 0x1 ADD SWAP2 POP POP PUSH2 0x2B75 JUMP JUMPDEST POP DUP1 SWAP3 POP POP POP SWAP2 SWAP1 POP JUMP JUMPDEST PUSH0 DUP2 MLOAD SUB PUSH2 0x2CD5 JUMPI PUSH1 0x40 MLOAD PUSH32 0x22CE3EDD00000000000000000000000000000000000000000000000000000000 DUP2 MSTORE PUSH1 0x4 ADD PUSH1 0x40 MLOAD DUP1 SWAP2 SUB SWAP1 REVERT JUMPDEST DUP3 DUP5 PUSH0 ADD SWAP1 PUSH1 0x2 DUP2 GT ISZERO PUSH2 0x2CEC JUMPI PUSH2 0x2CEB PUSH2 0x4E41 JUMP JUMPDEST JUMPDEST SWAP1 DUP2 PUSH1 0x2 DUP2 GT ISZERO PUSH2 0x2D00 JUMPI PUSH2 0x2CFF PUSH2 0x4E41 JUMP JUMPDEST JUMPDEST DUP2 MSTORE POP POP DUP2 DUP5 PUSH1 0x40 ADD SWAP1 PUSH0 DUP2 GT ISZERO PUSH2 0x2D1B JUMPI PUSH2 0x2D1A PUSH2 0x4E41 JUMP JUMPDEST JUMPDEST SWAP1 DUP2 PUSH0 DUP2 GT ISZERO PUSH2 0x2D2E JUMPI PUSH2 0x2D2D PUSH2 0x4E41 JUMP JUMPDEST JUMPDEST DUP2 MSTORE POP POP DUP1 DUP5 PUSH1 0x60 ADD DUP2 SWAP1 MSTORE POP POP POP POP POP JUMP JUMPDEST PUSH2 0x2D49 PUSH2 0x352B JUMP JUMPDEST PUSH2 0x2D56 DUP2 PUSH0 ADD MLOAD DUP4 PUSH2 0x3076 JUMP JUMPDEST POP PUSH0 DUP2 PUSH1 0x20 ADD DUP2 DUP2 MSTORE POP POP SWAP2 SWAP1 POP JUMP JUMPDEST PUSH2 0x2D73 DUP3 PUSH1 0x3 DUP4 MLOAD PUSH2 0x30EC JUMP JUMPDEST PUSH2 0x2D89 DUP2 DUP4 PUSH0 ADD MLOAD PUSH2 0x328C SWAP1 SWAP2 SWAP1 PUSH4 0xFFFFFFFF AND JUMP JUMPDEST POP POP POP JUMP JUMPDEST PUSH2 0x2DAF PUSH1 0x2 PUSH1 0x5 PUSH1 0x6 PUSH1 0xFF AND SWAP1 SHL OR DUP4 PUSH0 ADD MLOAD PUSH2 0x32A8 SWAP1 SWAP2 SWAP1 PUSH4 0xFFFFFFFF AND JUMP JUMPDEST POP PUSH2 0x2DD9 DUP3 DUP3 PUSH1 0x40 MLOAD PUSH1 0x20 ADD PUSH2 0x2DC5 SWAP2 SWAP1 PUSH2 0x3CA4 JUMP JUMPDEST PUSH1 0x40 MLOAD PUSH1 0x20 DUP2 DUP4 SUB SUB DUP2 MSTORE SWAP1 PUSH1 0x40 MSTORE PUSH2 0x2E2D JUMP JUMPDEST POP POP JUMP JUMPDEST PUSH2 0x2DE8 DUP2 PUSH1 0x4 PUSH2 0x330F JUMP JUMPDEST PUSH1 0x1 DUP2 PUSH1 0x20 ADD DUP2 DUP2 MLOAD PUSH2 0x2DFB SWAP2 SWAP1 PUSH2 0x3FA8 JUMP JUMPDEST SWAP2 POP DUP2 DUP2 MSTORE POP POP POP JUMP JUMPDEST PUSH2 0x2E10 DUP2 PUSH1 0x7 PUSH2 0x330F JUMP JUMPDEST PUSH1 0x1 DUP2 PUSH1 0x20 ADD DUP2 DUP2 MLOAD PUSH2 0x2E23 SWAP2 SWAP1 PUSH2 0x4D13 JUMP JUMPDEST SWAP2 POP DUP2 DUP2 MSTORE POP POP POP JUMP JUMPDEST PUSH2 0x2E3A DUP3 PUSH1 0x2 DUP4 MLOAD PUSH2 0x30EC JUMP JUMPDEST PUSH2 0x2E50 DUP2 DUP4 PUSH0 ADD MLOAD PUSH2 0x328C SWAP1 SWAP2 SWAP1 PUSH4 0xFFFFFFFF AND JUMP JUMPDEST POP POP POP JUMP JUMPDEST PUSH1 0x60 DUP2 PUSH8 0xFFFFFFFFFFFFFFFF DUP2 GT ISZERO PUSH2 0x2E71 JUMPI PUSH2 0x2E70 PUSH2 0x35FA JUMP JUMPDEST JUMPDEST PUSH1 0x40 MLOAD SWAP1 DUP1 DUP3 MSTORE DUP1 PUSH1 0x1F ADD PUSH1 0x1F NOT AND PUSH1 0x20 ADD DUP3 ADD PUSH1 0x40 MSTORE DUP1 ISZERO PUSH2 0x2EA3 JUMPI DUP2 PUSH1 0x20 ADD PUSH1 0x1 DUP3 MUL DUP1 CALLDATASIZE DUP4 CALLDATACOPY DUP1 DUP3 ADD SWAP2 POP POP SWAP1 POP JUMPDEST POP SWAP1 POP PUSH0 JUMPDEST DUP3 DUP2 LT ISZERO PUSH2 0x2F27 JUMPI DUP5 DUP2 DUP6 PUSH2 0x2EBD SWAP2 SWAP1 PUSH2 0x3FA8 JUMP JUMPDEST DUP2 MLOAD DUP2 LT PUSH2 0x2ECE JUMPI PUSH2 0x2ECD PUSH2 0x4426 JUMP JUMPDEST JUMPDEST PUSH1 0x20 ADD ADD MLOAD PUSH1 0xF8 SHR PUSH1 0xF8 SHL DUP3 DUP3 DUP2 MLOAD DUP2 LT PUSH2 0x2EEC JUMPI PUSH2 0x2EEB PUSH2 0x4426 JUMP JUMPDEST JUMPDEST PUSH1 0x20 ADD ADD SWAP1 PUSH31 0xFFFFFFFFFFFFFFFFFFFFFFFFFFFFFFFFFFFFFFFFFFFFFFFFFFFFFFFFFFFFFF NOT AND SWAP1 DUP2 PUSH0 BYTE SWAP1 MSTORE8 POP DUP1 DUP1 PUSH1 0x1 ADD SWAP2 POP POP PUSH2 0x2EA8 JUMP JUMPDEST POP SWAP4 SWAP3 POP POP POP JUMP JUMPDEST PUSH0 PUSH0 DUP3 SWAP1 POP PUSH0 DUP2 MLOAD GT PUSH2 0x2F77 JUMPI PUSH1 0x40 MLOAD PUSH32 0x8C379A000000000000000000000000000000000000000000000000000000000 DUP2 MSTORE PUSH1 0x4 ADD PUSH2 0x2F6E SWAP1 PUSH2 0x5275 JUMP JUMPDEST PUSH1 0x40 MLOAD DUP1 SWAP2 SUB SWAP1 REVERT JUMPDEST PUSH0 JUMPDEST DUP2 MLOAD DUP2 LT ISZERO PUSH2 0x306F JUMPI PUSH1 0x30 DUP3 DUP3 DUP2 MLOAD DUP2 LT PUSH2 0x2F97 JUMPI PUSH2 0x2F96 PUSH2 0x4426 JUMP JUMPDEST JUMPDEST PUSH1 0x20 ADD ADD MLOAD PUSH1 0xF8 SHR PUSH1 0xF8 SHL PUSH1 0xF8 SHR PUSH1 0xFF AND LT ISZERO DUP1 ISZERO PUSH2 0x2FDA JUMPI POP PUSH1 0x39 DUP3 DUP3 DUP2 MLOAD DUP2 LT PUSH2 0x2FC6 JUMPI PUSH2 0x2FC5 PUSH2 0x4426 JUMP JUMPDEST JUMPDEST PUSH1 0x20 ADD ADD MLOAD PUSH1 0xF8 SHR PUSH1 0xF8 SHL PUSH1 0xF8 SHR PUSH1 0xFF AND GT ISZERO JUMPDEST PUSH2 0x3019 JUMPI PUSH1 0x40 MLOAD PUSH32 0x8C379A000000000000000000000000000000000000000000000000000000000 DUP2 MSTORE PUSH1 0x4 ADD PUSH2 0x3010 SWAP1 PUSH2 0x52DD JUMP JUMPDEST PUSH1 0x40 MLOAD DUP1 SWAP2 SUB SWAP1 REVERT JUMPDEST PUSH1 0x30 DUP3 DUP3 DUP2 MLOAD DUP2 LT PUSH2 0x302E JUMPI PUSH2 0x302D PUSH2 0x4426 JUMP JUMPDEST JUMPDEST PUSH1 0x20 ADD ADD MLOAD PUSH1 0xF8 SHR PUSH1 0xF8 SHL PUSH1 0xF8 SHR PUSH2 0x3046 SWAP2 SWAP1 PUSH2 0x52FB JUMP JUMPDEST PUSH1 0xFF AND PUSH1 0xA DUP5 PUSH2 0x3056 SWAP2 SWAP1 PUSH2 0x4B48 JUMP JUMPDEST PUSH2 0x3060 SWAP2 SWAP1 PUSH2 0x3FA8 JUMP JUMPDEST SWAP3 POP DUP1 DUP1 PUSH1 0x1 ADD SWAP2 POP POP PUSH2 0x2F79 JUMP JUMPDEST POP POP SWAP2 SWAP1 POP JUMP JUMPDEST PUSH2 0x307E PUSH2 0x354A JUMP JUMPDEST PUSH0 PUSH1 0x20 DUP4 PUSH2 0x308C SWAP2 SWAP1 PUSH2 0x4CE3 JUMP JUMPDEST EQ PUSH2 0x30B8 JUMPI PUSH1 0x20 DUP3 PUSH2 0x309E SWAP2 SWAP1 PUSH2 0x4CE3 JUMP JUMPDEST PUSH1 0x20 PUSH2 0x30AA SWAP2 SWAP1 PUSH2 0x4D13 JUMP JUMPDEST DUP3 PUSH2 0x30B5 SWAP2 SWAP1 PUSH2 0x3FA8 JUMP JUMPDEST SWAP2 POP JUMPDEST DUP2 DUP4 PUSH1 0x20 ADD DUP2 DUP2 MSTORE POP POP PUSH1 0x40 MLOAD DUP1 DUP5 MSTORE PUSH0 DUP2 MSTORE DUP3 DUP2 ADD PUSH1 0x20 ADD DUP2 DUP2 LT ISZERO PUSH2 0x30DD JUMPI PUSH0 PUSH0 REVERT JUMPDEST DUP1 PUSH1 0x40 MSTORE POP POP DUP3 SWAP1 POP SWAP3 SWAP2 POP POP JUMP JUMPDEST PUSH1 0x17 DUP2 PUSH8 0xFFFFFFFFFFFFFFFF AND GT PUSH2 0x3126 JUMPI PUSH2 0x3120 DUP2 PUSH1 0x5 DUP5 PUSH1 0xFF AND SWAP1 SHL PUSH1 0xFF AND OR DUP5 PUSH0 ADD MLOAD PUSH2 0x32A8 SWAP1 SWAP2 SWAP1 PUSH4 0xFFFFFFFF AND JUMP JUMPDEST POP PUSH2 0x3287 JUMP JUMPDEST PUSH1 0xFF DUP2 PUSH8 0xFFFFFFFFFFFFFFFF AND GT PUSH2 0x3182 JUMPI PUSH2 0x3158 PUSH1 0x18 PUSH1 0x5 DUP5 PUSH1 0xFF AND SWAP1 SHL OR DUP5 PUSH0 ADD MLOAD PUSH2 0x32A8 SWAP1 SWAP2 SWAP1 PUSH4 0xFFFFFFFF AND JUMP JUMPDEST POP PUSH2 0x317C DUP2 PUSH8 0xFFFFFFFFFFFFFFFF AND PUSH1 0x1 DUP6 PUSH0 ADD MLOAD PUSH2 0x3334 SWAP1 SWAP3 SWAP2 SWAP1 PUSH4 0xFFFFFFFF AND JUMP JUMPDEST POP PUSH2 0x3286 JUMP JUMPDEST PUSH2 0xFFFF DUP2 PUSH8 0xFFFFFFFFFFFFFFFF AND GT PUSH2 0x31DF JUMPI PUSH2 0x31B5 PUSH1 0x19 PUSH1 0x5 DUP5 PUSH1 0xFF AND SWAP1 SHL OR DUP5 PUSH0 ADD MLOAD PUSH2 0x32A8 SWAP1 SWAP2 SWAP1 PUSH4 0xFFFFFFFF AND JUMP JUMPDEST POP PUSH2 0x31D9 DUP2 PUSH8 0xFFFFFFFFFFFFFFFF AND PUSH1 0x2 DUP6 PUSH0 ADD MLOAD PUSH2 0x3334 SWAP1 SWAP3 SWAP2 SWAP1 PUSH4 0xFFFFFFFF AND JUMP JUMPDEST POP PUSH2 0x3285 JUMP JUMPDEST PUSH4 0xFFFFFFFF DUP2 PUSH8 0xFFFFFFFFFFFFFFFF AND GT PUSH2 0x323E JUMPI PUSH2 0x3214 PUSH1 0x1A PUSH1 0x5 DUP5 PUSH1 0xFF AND SWAP1 SHL OR DUP5 PUSH0 ADD MLOAD PUSH2 0x32A8 SWAP1 SWAP2 SWAP1 PUSH4 0xFFFFFFFF AND JUMP JUMPDEST POP PUSH2 0x3238 DUP2 PUSH8 0xFFFFFFFFFFFFFFFF AND PUSH1 0x4 DUP6 PUSH0 ADD MLOAD PUSH2 0x3334 SWAP1 SWAP3 SWAP2 SWAP1 PUSH4 0xFFFFFFFF AND JUMP JUMPDEST POP PUSH2 0x3284 JUMP JUMPDEST PUSH2 0x325E PUSH1 0x1B PUSH1 0x5 DUP5 PUSH1 0xFF AND SWAP1 SHL OR DUP5 PUSH0 ADD MLOAD PUSH2 0x32A8 SWAP1 SWAP2 SWAP1 PUSH4 0xFFFFFFFF AND JUMP JUMPDEST POP PUSH2 0x3282 DUP2 PUSH8 0xFFFFFFFFFFFFFFFF AND PUSH1 0x8 DUP6 PUSH0 ADD MLOAD PUSH2 0x3334 SWAP1 SWAP3 SWAP2 SWAP1 PUSH4 0xFFFFFFFF AND JUMP JUMPDEST POP JUMPDEST JUMPDEST JUMPDEST JUMPDEST POP POP POP JUMP JUMPDEST PUSH2 0x3294 PUSH2 0x354A JUMP JUMPDEST PUSH2 0x32A0 DUP4 DUP4 DUP5 MLOAD PUSH2 0x33BD JUMP JUMPDEST SWAP1 POP SWAP3 SWAP2 POP POP JUMP JUMPDEST PUSH2 0x32B0 PUSH2 0x354A JUMP JUMPDEST PUSH0 DUP4 PUSH0 ADD MLOAD MLOAD SWAP1 POP PUSH0 PUSH1 0x1 DUP3 PUSH2 0x32C6 SWAP2 SWAP1 PUSH2 0x3FA8 JUMP JUMPDEST SWAP1 POP DUP5 PUSH1 0x20 ADD MLOAD DUP3 LT PUSH2 0x32EA JUMPI PUSH2 0x32E9 DUP6 PUSH1 0x2 DUP4 PUSH2 0x32E4 SWAP2 SWAP1 PUSH2 0x4B48 JUMP JUMPDEST PUSH2 0x349A JUMP JUMPDEST JUMPDEST DUP5 MLOAD PUSH1 0x20 DUP4 DUP3 ADD ADD DUP6 DUP2 MSTORE8 DUP2 MLOAD DUP4 GT ISZERO PUSH2 0x3302 JUMPI DUP3 DUP3 MSTORE JUMPDEST POP POP DUP5 SWAP3 POP POP POP SWAP3 SWAP2 POP POP JUMP JUMPDEST PUSH2 0x332F PUSH1 0x1F PUSH1 0x5 DUP4 PUSH1 0xFF AND SWAP1 SHL OR DUP4 PUSH0 ADD MLOAD PUSH2 0x32A8 SWAP1 SWAP2 SWAP1 PUSH4 0xFFFFFFFF AND JUMP JUMPDEST POP POP POP JUMP JUMPDEST PUSH2 0x333C PUSH2 0x354A JUMP JUMPDEST PUSH0 DUP5 PUSH0 ADD MLOAD MLOAD SWAP1 POP PUSH0 DUP2 DUP5 PUSH2 0x3351 SWAP2 SWAP1 PUSH2 0x3FA8 JUMP JUMPDEST SWAP1 POP DUP6 PUSH1 0x20 ADD MLOAD DUP2 GT ISZERO PUSH2 0x3376 JUMPI PUSH2 0x3375 DUP7 PUSH1 0x2 DUP4 PUSH2 0x3370 SWAP2 SWAP1 PUSH2 0x4B48 JUMP JUMPDEST PUSH2 0x349A JUMP JUMPDEST JUMPDEST PUSH0 PUSH1 0x1 DUP6 PUSH2 0x100 PUSH2 0x3387 SWAP2 SWAP1 PUSH2 0x545E JUMP JUMPDEST PUSH2 0x3391 SWAP2 SWAP1 PUSH2 0x4D13 JUMP JUMPDEST SWAP1 POP DUP7 MLOAD DUP3 DUP2 ADD DUP8 DUP4 NOT DUP3 MLOAD AND OR DUP2 MSTORE DUP2 MLOAD DUP5 GT ISZERO PUSH2 0x33AE JUMPI DUP4 DUP3 MSTORE JUMPDEST POP POP DUP7 SWAP4 POP POP POP POP SWAP4 SWAP3 POP POP POP JUMP JUMPDEST PUSH2 0x33C5 PUSH2 0x354A JUMP JUMPDEST DUP3 MLOAD DUP3 GT ISZERO PUSH2 0x33D2 JUMPI PUSH0 PUSH0 REVERT JUMPDEST PUSH0 DUP5 PUSH0 ADD MLOAD MLOAD SWAP1 POP PUSH0 DUP4 DUP3 PUSH2 0x33E7 SWAP2 SWAP1 PUSH2 0x3FA8 JUMP JUMPDEST SWAP1 POP DUP6 PUSH1 0x20 ADD MLOAD DUP2 GT ISZERO PUSH2 0x340C JUMPI PUSH2 0x340B DUP7 PUSH1 0x2 DUP4 PUSH2 0x3406 SWAP2 SWAP1 PUSH2 0x4B48 JUMP JUMPDEST PUSH2 0x349A JUMP JUMPDEST JUMPDEST PUSH0 PUSH0 DUP8 MLOAD DUP1 MLOAD DUP6 PUSH1 0x20 DUP4 ADD ADD SWAP4 POP DUP1 DUP6 GT ISZERO PUSH2 0x3426 JUMPI DUP5 DUP3 MSTORE JUMPDEST PUSH1 0x20 DUP10 ADD SWAP3 POP POP POP JUMPDEST PUSH1 0x20 DUP7 LT PUSH2 0x346D JUMPI DUP1 MLOAD DUP3 MSTORE PUSH1 0x20 DUP3 PUSH2 0x3448 SWAP2 SWAP1 PUSH2 0x3FA8 JUMP JUMPDEST SWAP2 POP PUSH1 0x20 DUP2 PUSH2 0x3457 SWAP2 SWAP1 PUSH2 0x3FA8 JUMP JUMPDEST SWAP1 POP PUSH1 0x20 DUP7 PUSH2 0x3466 SWAP2 SWAP1 PUSH2 0x4D13 JUMP JUMPDEST SWAP6 POP PUSH2 0x342F JUMP JUMPDEST PUSH0 PUSH1 0x1 DUP8 PUSH1 0x20 SUB PUSH2 0x100 EXP SUB SWAP1 POP DUP1 NOT DUP3 MLOAD AND DUP2 DUP5 MLOAD AND DUP2 DUP2 OR DUP6 MSTORE POP POP POP DUP8 SWAP5 POP POP POP POP POP SWAP4 SWAP3 POP POP POP JUMP JUMPDEST PUSH0 DUP3 PUSH0 ADD MLOAD SWAP1 POP PUSH2 0x34AB DUP4 DUP4 PUSH2 0x3076 JUMP JUMPDEST POP PUSH2 0x34B6 DUP4 DUP3 PUSH2 0x328C JUMP JUMPDEST POP POP POP POP JUMP JUMPDEST PUSH1 0x40 MLOAD DUP1 PUSH1 0xE0 ADD PUSH1 0x40 MSTORE DUP1 PUSH0 PUSH1 0x2 DUP2 GT ISZERO PUSH2 0x34DA JUMPI PUSH2 0x34D9 PUSH2 0x4E41 JUMP JUMPDEST JUMPDEST DUP2 MSTORE PUSH1 0x20 ADD PUSH0 PUSH1 0x2 DUP2 GT ISZERO PUSH2 0x34F2 JUMPI PUSH2 0x34F1 PUSH2 0x4E41 JUMP JUMPDEST JUMPDEST DUP2 MSTORE PUSH1 0x20 ADD PUSH0 PUSH0 DUP2 GT ISZERO PUSH2 0x3509 JUMPI PUSH2 0x3508 PUSH2 0x4E41 JUMP JUMPDEST JUMPDEST DUP2 MSTORE PUSH1 0x20 ADD PUSH1 0x60 DUP2 MSTORE PUSH1 0x20 ADD PUSH1 0x60 DUP2 MSTORE PUSH1 0x20 ADD PUSH1 0x60 DUP2 MSTORE PUSH1 0x20 ADD PUSH1 0x60 DUP2 MSTORE POP SWAP1 JUMP JUMPDEST PUSH1 0x40 MLOAD DUP1 PUSH1 0x40 ADD PUSH1 0x40 MSTORE DUP1 PUSH2 0x353E PUSH2 0x354A JUMP JUMPDEST DUP2 MSTORE PUSH1 0x20 ADD PUSH0 DUP2 MSTORE POP SWAP1 JUMP JUMPDEST PUSH1 0x40 MLOAD DUP1 PUSH1 0x40 ADD PUSH1 0x40 MSTORE DUP1 PUSH1 0x60 DUP2 MSTORE PUSH1 0x20 ADD PUSH0 DUP2 MSTORE POP SWAP1 JUMP JUMPDEST PUSH0 PUSH8 0xFFFFFFFFFFFFFFFF DUP3 AND SWAP1 POP SWAP2 SWAP1 POP JUMP JUMPDEST PUSH2 0x357F DUP2 PUSH2 0x3563 JUMP JUMPDEST DUP3 MSTORE POP POP JUMP JUMPDEST PUSH0 PUSH1 0x20 DUP3 ADD SWAP1 POP PUSH2 0x3598 PUSH0 DUP4 ADD DUP5 PUSH2 0x3576 JUMP JUMPDEST SWAP3 SWAP2 POP POP JUMP JUMPDEST PUSH0 PUSH1 0x40 MLOAD SWAP1 POP SWAP1 JUMP JUMPDEST PUSH0 PUSH0 REVERT JUMPDEST PUSH0 PUSH0 REVERT JUMPDEST PUSH0 DUP2 SWAP1 POP SWAP2 SWAP1 POP JUMP JUMPDEST PUSH2 0x35C1 DUP2 PUSH2 0x35AF JUMP JUMPDEST DUP2 EQ PUSH2 0x35CB JUMPI PUSH0 PUSH0 REVERT JUMPDEST POP JUMP JUMPDEST PUSH0 DUP2 CALLDATALOAD SWAP1 POP PUSH2 0x35DC DUP2 PUSH2 0x35B8 JUMP JUMPDEST SWAP3 SWAP2 POP POP JUMP JUMPDEST PUSH0 PUSH0 REVERT JUMPDEST PUSH0 PUSH0 REVERT JUMPDEST PUSH0 PUSH1 0x1F NOT PUSH1 0x1F DUP4 ADD AND SWAP1 POP SWAP2 SWAP1 POP JUMP JUMPDEST PUSH32 0x4E487B7100000000000000000000000000000000000000000000000000000000 PUSH0 MSTORE PUSH1 0x41 PUSH1 0x4 MSTORE PUSH1 0x24 PUSH0 REVERT JUMPDEST PUSH2 0x3630 DUP3 PUSH2 0x35EA JUMP JUMPDEST DUP2 ADD DUP2 DUP2 LT PUSH8 0xFFFFFFFFFFFFFFFF DUP3 GT OR ISZERO PUSH2 0x364F JUMPI PUSH2 0x364E PUSH2 0x35FA JUMP JUMPDEST JUMPDEST DUP1 PUSH1 0x40 MSTORE POP POP POP JUMP JUMPDEST PUSH0 PUSH2 0x3661 PUSH2 0x359E JUMP JUMPDEST SWAP1 POP PUSH2 0x366D DUP3 DUP3 PUSH2 0x3627 JUMP JUMPDEST SWAP2 SWAP1 POP JUMP JUMPDEST PUSH0 PUSH8 0xFFFFFFFFFFFFFFFF DUP3 GT ISZERO PUSH2 0x368C JUMPI PUSH2 0x368B PUSH2 0x35FA JUMP JUMPDEST JUMPDEST PUSH2 0x3695 DUP3 PUSH2 0x35EA JUMP JUMPDEST SWAP1 POP PUSH1 0x20 DUP2 ADD SWAP1 POP SWAP2 SWAP1 POP JUMP JUMPDEST DUP3 DUP2 DUP4 CALLDATACOPY PUSH0 DUP4 DUP4 ADD MSTORE POP POP POP JUMP JUMPDEST PUSH0 PUSH2 0x36C2 PUSH2 0x36BD DUP5 PUSH2 0x3672 JUMP JUMPDEST PUSH2 0x3658 JUMP JUMPDEST SWAP1 POP DUP3 DUP2 MSTORE PUSH1 0x20 DUP2 ADD DUP5 DUP5 DUP5 ADD GT ISZERO PUSH2 0x36DE JUMPI PUSH2 0x36DD PUSH2 0x35E6 JUMP JUMPDEST JUMPDEST PUSH2 0x36E9 DUP5 DUP3 DUP6 PUSH2 0x36A2 JUMP JUMPDEST POP SWAP4 SWAP3 POP POP POP JUMP JUMPDEST PUSH0 DUP3 PUSH1 0x1F DUP4 ADD SLT PUSH2 0x3705 JUMPI PUSH2 0x3704 PUSH2 0x35E2 JUMP JUMPDEST JUMPDEST DUP2 CALLDATALOAD PUSH2 0x3715 DUP5 DUP3 PUSH1 0x20 DUP7 ADD PUSH2 0x36B0 JUMP JUMPDEST SWAP2 POP POP SWAP3 SWAP2 POP POP JUMP JUMPDEST PUSH0 PUSH0 PUSH0 PUSH1 0x60 DUP5 DUP7 SUB SLT ISZERO PUSH2 0x3735 JUMPI PUSH2 0x3734 PUSH2 0x35A7 JUMP JUMPDEST JUMPDEST PUSH0 PUSH2 0x3742 DUP7 DUP3 DUP8 ADD PUSH2 0x35CE JUMP JUMPDEST SWAP4 POP POP PUSH1 0x20 DUP5 ADD CALLDATALOAD PUSH8 0xFFFFFFFFFFFFFFFF DUP2 GT ISZERO PUSH2 0x3763 JUMPI PUSH2 0x3762 PUSH2 0x35AB JUMP JUMPDEST JUMPDEST PUSH2 0x376F DUP7 DUP3 DUP8 ADD PUSH2 0x36F1 JUMP JUMPDEST SWAP3 POP POP PUSH1 0x40 DUP5 ADD CALLDATALOAD PUSH8 0xFFFFFFFFFFFFFFFF DUP2 GT ISZERO PUSH2 0x3790 JUMPI PUSH2 0x378F PUSH2 0x35AB JUMP JUMPDEST JUMPDEST PUSH2 0x379C DUP7 DUP3 DUP8 ADD PUSH2 0x36F1 JUMP JUMPDEST SWAP2 POP POP SWAP3 POP SWAP3 POP SWAP3 JUMP JUMPDEST PUSH2 0x37AF DUP2 PUSH2 0x35AF JUMP JUMPDEST DUP3 MSTORE POP POP JUMP JUMPDEST PUSH0 PUSH1 0x20 DUP3 ADD SWAP1 POP PUSH2 0x37C8 PUSH0 DUP4 ADD DUP5 PUSH2 0x37A6 JUMP JUMPDEST SWAP3 SWAP2 POP POP JUMP JUMPDEST PUSH0 PUSH8 0xFFFFFFFFFFFFFFFF DUP3 GT ISZERO PUSH2 0x37E8 JUMPI PUSH2 0x37E7 PUSH2 0x35FA JUMP JUMPDEST JUMPDEST PUSH1 0x20 DUP3 MUL SWAP1 POP PUSH1 0x20 DUP2 ADD SWAP1 POP SWAP2 SWAP1 POP JUMP JUMPDEST PUSH0 PUSH0 REVERT JUMPDEST PUSH0 PUSH8 0xFFFFFFFFFFFFFFFF DUP3 GT ISZERO PUSH2 0x3817 JUMPI PUSH2 0x3816 PUSH2 0x35FA JUMP JUMPDEST JUMPDEST PUSH2 0x3820 DUP3 PUSH2 0x35EA JUMP JUMPDEST SWAP1 POP PUSH1 0x20 DUP2 ADD SWAP1 POP SWAP2 SWAP1 POP JUMP JUMPDEST PUSH0 PUSH2 0x383F PUSH2 0x383A DUP5 PUSH2 0x37FD JUMP JUMPDEST PUSH2 0x3658 JUMP JUMPDEST SWAP1 POP DUP3 DUP2 MSTORE PUSH1 0x20 DUP2 ADD DUP5 DUP5 DUP5 ADD GT ISZERO PUSH2 0x385B JUMPI PUSH2 0x385A PUSH2 0x35E6 JUMP JUMPDEST JUMPDEST PUSH2 0x3866 DUP5 DUP3 DUP6 PUSH2 0x36A2 JUMP JUMPDEST POP SWAP4 SWAP3 POP POP POP JUMP JUMPDEST PUSH0 DUP3 PUSH1 0x1F DUP4 ADD SLT PUSH2 0x3882 JUMPI PUSH2 0x3881 PUSH2 0x35E2 JUMP JUMPDEST JUMPDEST DUP2 CALLDATALOAD PUSH2 0x3892 DUP5 DUP3 PUSH1 0x20 DUP7 ADD PUSH2 0x382D JUMP JUMPDEST SWAP2 POP POP SWAP3 SWAP2 POP POP JUMP JUMPDEST PUSH0 PUSH2 0x38AD PUSH2 0x38A8 DUP5 PUSH2 0x37CE JUMP JUMPDEST PUSH2 0x3658 JUMP JUMPDEST SWAP1 POP DUP1 DUP4 DUP3 MSTORE PUSH1 0x20 DUP3 ADD SWAP1 POP PUSH1 0x20 DUP5 MUL DUP4 ADD DUP6 DUP2 GT ISZERO PUSH2 0x38D0 JUMPI PUSH2 0x38CF PUSH2 0x37F9 JUMP JUMPDEST JUMPDEST DUP4 JUMPDEST DUP2 DUP2 LT ISZERO PUSH2 0x3917 JUMPI DUP1 CALLDATALOAD PUSH8 0xFFFFFFFFFFFFFFFF DUP2 GT ISZERO PUSH2 0x38F5 JUMPI PUSH2 0x38F4 PUSH2 0x35E2 JUMP JUMPDEST JUMPDEST DUP1 DUP7 ADD PUSH2 0x3902 DUP10 DUP3 PUSH2 0x386E JUMP JUMPDEST DUP6 MSTORE PUSH1 0x20 DUP6 ADD SWAP5 POP POP POP PUSH1 0x20 DUP2 ADD SWAP1 POP PUSH2 0x38D2 JUMP JUMPDEST POP POP POP SWAP4 SWAP3 POP POP POP JUMP JUMPDEST PUSH0 DUP3 PUSH1 0x1F DUP4 ADD SLT PUSH2 0x3935 JUMPI PUSH2 0x3934 PUSH2 0x35E2 JUMP JUMPDEST JUMPDEST DUP2 CALLDATALOAD PUSH2 0x3945 DUP5 DUP3 PUSH1 0x20 DUP7 ADD PUSH2 0x389B JUMP JUMPDEST SWAP2 POP POP SWAP3 SWAP2 POP POP JUMP JUMPDEST PUSH0 PUSH0 REVERT JUMPDEST PUSH0 PUSH0 DUP4 PUSH1 0x1F DUP5 ADD SLT PUSH2 0x3967 JUMPI PUSH2 0x3966 PUSH2 0x35E2 JUMP JUMPDEST JUMPDEST DUP3 CALLDATALOAD SWAP1 POP PUSH8 0xFFFFFFFFFFFFFFFF DUP2 GT ISZERO PUSH2 0x3984 JUMPI PUSH2 0x3983 PUSH2 0x394E JUMP JUMPDEST JUMPDEST PUSH1 0x20 DUP4 ADD SWAP2 POP DUP4 PUSH1 0x1 DUP3 MUL DUP4 ADD GT ISZERO PUSH2 0x39A0 JUMPI PUSH2 0x399F PUSH2 0x37F9 JUMP JUMPDEST JUMPDEST SWAP3 POP SWAP3 SWAP1 POP JUMP JUMPDEST PUSH0 PUSH0 PUSH0 PUSH1 0x40 DUP5 DUP7 SUB SLT ISZERO PUSH2 0x39BE JUMPI PUSH2 0x39BD PUSH2 0x35A7 JUMP JUMPDEST JUMPDEST PUSH0 DUP5 ADD CALLDATALOAD PUSH8 0xFFFFFFFFFFFFFFFF DUP2 GT ISZERO PUSH2 0x39DB JUMPI PUSH2 0x39DA PUSH2 0x35AB JUMP JUMPDEST JUMPDEST PUSH2 0x39E7 DUP7 DUP3 DUP8 ADD PUSH2 0x3921 JUMP JUMPDEST SWAP4 POP POP PUSH1 0x20 DUP5 ADD CALLDATALOAD PUSH8 0xFFFFFFFFFFFFFFFF DUP2 GT ISZERO PUSH2 0x3A08 JUMPI PUSH2 0x3A07 PUSH2 0x35AB JUMP JUMPDEST JUMPDEST PUSH2 0x3A14 DUP7 DUP3 DUP8 ADD PUSH2 0x3952 JUMP JUMPDEST SWAP3 POP SWAP3 POP POP SWAP3 POP SWAP3 POP SWAP3 JUMP JUMPDEST PUSH0 PUSH20 0xFFFFFFFFFFFFFFFFFFFFFFFFFFFFFFFFFFFFFFFF DUP3 AND SWAP1 POP SWAP2 SWAP1 POP JUMP JUMPDEST PUSH0 PUSH2 0x3A49 DUP3 PUSH2 0x3A20 JUMP JUMPDEST SWAP1 POP SWAP2 SWAP1 POP JUMP JUMPDEST PUSH2 0x3A59 DUP2 PUSH2 0x3A3F JUMP JUMPDEST DUP2 EQ PUSH2 0x3A63 JUMPI PUSH0 PUSH0 REVERT JUMPDEST POP JUMP JUMPDEST PUSH0 DUP2 CALLDATALOAD SWAP1 POP PUSH2 0x3A74 DUP2 PUSH2 0x3A50 JUMP JUMPDEST SWAP3 SWAP2 POP POP JUMP JUMPDEST PUSH0 PUSH1 0x20 DUP3 DUP5 SUB SLT ISZERO PUSH2 0x3A8F JUMPI PUSH2 0x3A8E PUSH2 0x35A7 JUMP JUMPDEST JUMPDEST PUSH0 PUSH2 0x3A9C DUP5 DUP3 DUP6 ADD PUSH2 0x3A66 JUMP JUMPDEST SWAP2 POP POP SWAP3 SWAP2 POP POP JUMP JUMPDEST PUSH0 DUP2 MLOAD SWAP1 POP SWAP2 SWAP1 POP JUMP JUMPDEST PUSH0 DUP3 DUP3 MSTORE PUSH1 0x20 DUP3 ADD SWAP1 POP SWAP3 SWAP2 POP POP JUMP JUMPDEST DUP3 DUP2 DUP4 MCOPY PUSH0 DUP4 DUP4 ADD MSTORE POP POP POP JUMP JUMPDEST PUSH0 PUSH2 0x3AD7 DUP3 PUSH2 0x3AA5 JUMP JUMPDEST PUSH2 0x3AE1 DUP2 DUP6 PUSH2 0x3AAF JUMP JUMPDEST SWAP4 POP PUSH2 0x3AF1 DUP2 DUP6 PUSH1 0x20 DUP7 ADD PUSH2 0x3ABF JUMP JUMPDEST PUSH2 0x3AFA DUP2 PUSH2 0x35EA JUMP JUMPDEST DUP5 ADD SWAP2 POP POP SWAP3 SWAP2 POP POP JUMP JUMPDEST PUSH0 PUSH1 0xFF DUP3 AND SWAP1 POP SWAP2 SWAP1 POP JUMP JUMPDEST PUSH2 0x3B1A DUP2 PUSH2 0x3B05 JUMP JUMPDEST DUP3 MSTORE POP POP JUMP JUMPDEST PUSH0 DUP2 SWAP1 POP SWAP2 SWAP1 POP JUMP JUMPDEST PUSH2 0x3B32 DUP2 PUSH2 0x3B20 JUMP JUMPDEST DUP3 MSTORE POP POP JUMP JUMPDEST PUSH0 DUP2 ISZERO ISZERO SWAP1 POP SWAP2 SWAP1 POP JUMP JUMPDEST PUSH2 0x3B4C DUP2 PUSH2 0x3B38 JUMP JUMPDEST DUP3 MSTORE POP POP JUMP JUMPDEST PUSH0 PUSH1 0xC0 DUP3 ADD SWAP1 POP DUP2 DUP2 SUB PUSH0 DUP4 ADD MSTORE PUSH2 0x3B6A DUP2 DUP10 PUSH2 0x3ACD JUMP JUMPDEST SWAP1 POP PUSH2 0x3B79 PUSH1 0x20 DUP4 ADD DUP9 PUSH2 0x3B11 JUMP JUMPDEST PUSH2 0x3B86 PUSH1 0x40 DUP4 ADD DUP8 PUSH2 0x3B29 JUMP JUMPDEST PUSH2 0x3B93 PUSH1 0x60 DUP4 ADD DUP7 PUSH2 0x3B29 JUMP JUMPDEST PUSH2 0x3BA0 PUSH1 0x80 DUP4 ADD DUP6 PUSH2 0x3B43 JUMP JUMPDEST PUSH2 0x3BAD PUSH1 0xA0 DUP4 ADD DUP5 PUSH2 0x3B11 JUMP JUMPDEST SWAP8 SWAP7 POP POP POP POP POP POP POP JUMP JUMPDEST PUSH0 PUSH1 0x20 DUP3 ADD SWAP1 POP PUSH2 0x3BCB PUSH0 DUP4 ADD DUP5 PUSH2 0x3B11 JUMP JUMPDEST SWAP3 SWAP2 POP POP JUMP JUMPDEST PUSH0 DUP2 SWAP1 POP SWAP2 SWAP1 POP JUMP JUMPDEST PUSH0 PUSH2 0x3BF4 PUSH2 0x3BEF PUSH2 0x3BEA DUP5 PUSH2 0x3A20 JUMP JUMPDEST PUSH2 0x3BD1 JUMP JUMPDEST PUSH2 0x3A20 JUMP JUMPDEST SWAP1 POP SWAP2 SWAP1 POP JUMP JUMPDEST PUSH0 PUSH2 0x3C05 DUP3 PUSH2 0x3BDA JUMP JUMPDEST SWAP1 POP SWAP2 SWAP1 POP JUMP JUMPDEST PUSH0 PUSH2 0x3C16 DUP3 PUSH2 0x3BFB JUMP JUMPDEST SWAP1 POP SWAP2 SWAP1 POP JUMP JUMPDEST PUSH2 0x3C26 DUP2 PUSH2 0x3C0C JUMP JUMPDEST DUP3 MSTORE POP POP JUMP JUMPDEST PUSH0 PUSH1 0x20 DUP3 ADD SWAP1 POP PUSH2 0x3C3F PUSH0 DUP4 ADD DUP5 PUSH2 0x3C1D JUMP JUMPDEST SWAP3 SWAP2 POP POP JUMP JUMPDEST PUSH2 0x3C4E DUP2 PUSH2 0x3A3F JUMP JUMPDEST DUP3 MSTORE POP POP JUMP JUMPDEST PUSH0 PUSH1 0x20 DUP3 ADD SWAP1 POP PUSH2 0x3C67 PUSH0 DUP4 ADD DUP5 PUSH2 0x3C45 JUMP JUMPDEST SWAP3 SWAP2 POP POP JUMP JUMPDEST PUSH0 PUSH4 0xFFFFFFFF DUP3 AND SWAP1 POP SWAP2 SWAP1 POP JUMP JUMPDEST PUSH2 0x3C85 DUP2 PUSH2 0x3C6D JUMP JUMPDEST DUP3 MSTORE POP POP JUMP JUMPDEST PUSH0 PUSH1 0x20 DUP3 ADD SWAP1 POP PUSH2 0x3C9E PUSH0 DUP4 ADD DUP5 PUSH2 0x3C7C JUMP JUMPDEST SWAP3 SWAP2 POP POP JUMP JUMPDEST PUSH0 PUSH1 0x20 DUP3 ADD SWAP1 POP PUSH2 0x3CB7 PUSH0 DUP4 ADD DUP5 PUSH2 0x3B29 JUMP JUMPDEST SWAP3 SWAP2 POP POP JUMP JUMPDEST PUSH0 PUSH2 0x3CC7 DUP3 PUSH2 0x3BFB JUMP JUMPDEST SWAP1 POP SWAP2 SWAP1 POP JUMP JUMPDEST PUSH2 0x3CD7 DUP2 PUSH2 0x3CBD JUMP JUMPDEST DUP3 MSTORE POP POP JUMP JUMPDEST PUSH0 PUSH1 0x20 DUP3 ADD SWAP1 POP PUSH2 0x3CF0 PUSH0 DUP4 ADD DUP5 PUSH2 0x3CCE JUMP JUMPDEST SWAP3 SWAP2 POP POP JUMP JUMPDEST PUSH2 0x3CFF DUP2 PUSH2 0x3B05 JUMP JUMPDEST DUP2 EQ PUSH2 0x3D09 JUMPI PUSH0 PUSH0 REVERT JUMPDEST POP JUMP JUMPDEST PUSH0 DUP2 CALLDATALOAD SWAP1 POP PUSH2 0x3D1A DUP2 PUSH2 0x3CF6 JUMP JUMPDEST SWAP3 SWAP2 POP POP JUMP JUMPDEST PUSH0 PUSH1 0x20 DUP3 DUP5 SUB SLT ISZERO PUSH2 0x3D35 JUMPI PUSH2 0x3D34 PUSH2 0x35A7 JUMP JUMPDEST JUMPDEST PUSH0 PUSH2 0x3D42 DUP5 DUP3 DUP6 ADD PUSH2 0x3D0C JUMP JUMPDEST SWAP2 POP POP SWAP3 SWAP2 POP POP JUMP JUMPDEST PUSH32 0x4E656564203E3D203520646F6D61696E73000000000000000000000000000000 PUSH0 DUP3 ADD MSTORE POP JUMP JUMPDEST PUSH0 PUSH2 0x3D7F PUSH1 0x11 DUP4 PUSH2 0x3AAF JUMP JUMPDEST SWAP2 POP PUSH2 0x3D8A DUP3 PUSH2 0x3D4B JUMP JUMPDEST PUSH1 0x20 DUP3 ADD SWAP1 POP SWAP2 SWAP1 POP JUMP JUMPDEST PUSH0 PUSH1 0x20 DUP3 ADD SWAP1 POP DUP2 DUP2 SUB PUSH0 DUP4 ADD MSTORE PUSH2 0x3DAC DUP2 PUSH2 0x3D73 JUMP JUMPDEST SWAP1 POP SWAP2 SWAP1 POP JUMP JUMPDEST PUSH0 DUP2 SWAP1 POP SWAP3 SWAP2 POP POP JUMP JUMPDEST PUSH0 PUSH2 0x3DC8 DUP4 DUP6 PUSH2 0x3DB3 JUMP JUMPDEST SWAP4 POP PUSH2 0x3DD5 DUP4 DUP6 DUP5 PUSH2 0x36A2 JUMP JUMPDEST DUP3 DUP5 ADD SWAP1 POP SWAP4 SWAP3 POP POP POP JUMP JUMPDEST PUSH0 PUSH2 0x3DED DUP3 DUP5 DUP7 PUSH2 0x3DBD JUMP JUMPDEST SWAP2 POP DUP2 SWAP1 POP SWAP4 SWAP3 POP POP POP JUMP JUMPDEST PUSH32 0x4561737900000000000000000000000000000000000000000000000000000000 PUSH0 DUP3 ADD MSTORE POP JUMP JUMPDEST PUSH0 PUSH2 0x3E2D PUSH1 0x4 DUP4 PUSH2 0x3DB3 JUMP JUMPDEST SWAP2 POP PUSH2 0x3E38 DUP3 PUSH2 0x3DF9 JUMP JUMPDEST PUSH1 0x4 DUP3 ADD SWAP1 POP SWAP2 SWAP1 POP JUMP JUMPDEST PUSH0 PUSH2 0x3E4D DUP3 PUSH2 0x3E21 JUMP JUMPDEST SWAP2 POP DUP2 SWAP1 POP SWAP2 SWAP1 POP JUMP JUMPDEST PUSH32 0x4D656469756D0000000000000000000000000000000000000000000000000000 PUSH0 DUP3 ADD MSTORE POP JUMP JUMPDEST PUSH0 PUSH2 0x3E8B PUSH1 0x6 DUP4 PUSH2 0x3DB3 JUMP JUMPDEST SWAP2 POP PUSH2 0x3E96 DUP3 PUSH2 0x3E57 JUMP JUMPDEST PUSH1 0x6 DUP3 ADD SWAP1 POP SWAP2 SWAP1 POP JUMP JUMPDEST PUSH0 PUSH2 0x3EAB DUP3 PUSH2 0x3E7F JUMP JUMPDEST SWAP2 POP DUP2 SWAP1 POP SWAP2 SWAP1 POP JUMP JUMPDEST PUSH32 0x4861726400000000000000000000000000000000000000000000000000000000 PUSH0 DUP3 ADD MSTORE POP JUMP JUMPDEST PUSH0 PUSH2 0x3EE9 PUSH1 0x4 DUP4 PUSH2 0x3DB3 JUMP JUMPDEST SWAP2 POP PUSH2 0x3EF4 DUP3 PUSH2 0x3EB5 JUMP JUMPDEST PUSH1 0x4 DUP3 ADD SWAP1 POP SWAP2 SWAP1 POP JUMP JUMPDEST PUSH0 PUSH2 0x3F09 DUP3 PUSH2 0x3EDD JUMP JUMPDEST SWAP2 POP DUP2 SWAP1 POP SWAP2 SWAP1 POP JUMP JUMPDEST PUSH32 0x496E76616C696420646966666963756C74790000000000000000000000000000 PUSH0 DUP3 ADD MSTORE POP JUMP JUMPDEST PUSH0 PUSH2 0x3F47 PUSH1 0x12 DUP4 PUSH2 0x3AAF JUMP JUMPDEST SWAP2 POP PUSH2 0x3F52 DUP3 PUSH2 0x3F13 JUMP JUMPDEST PUSH1 0x20 DUP3 ADD SWAP1 POP SWAP2 SWAP1 POP JUMP JUMPDEST PUSH0 PUSH1 0x20 DUP3 ADD SWAP1 POP DUP2 DUP2 SUB PUSH0 DUP4 ADD MSTORE PUSH2 0x3F74 DUP2 PUSH2 0x3F3B JUMP JUMPDEST SWAP1 POP SWAP2 SWAP1 POP JUMP JUMPDEST PUSH32 0x4E487B7100000000000000000000000000000000000000000000000000000000 PUSH0 MSTORE PUSH1 0x11 PUSH1 0x4 MSTORE PUSH1 0x24 PUSH0 REVERT JUMPDEST PUSH0 PUSH2 0x3FB2 DUP3 PUSH2 0x3B20 JUMP JUMPDEST SWAP2 POP PUSH2 0x3FBD DUP4 PUSH2 0x3B20 JUMP JUMPDEST SWAP3 POP DUP3 DUP3 ADD SWAP1 POP DUP1 DUP3 GT ISZERO PUSH2 0x3FD5 JUMPI PUSH2 0x3FD4 PUSH2 0x3F7B JUMP JUMPDEST JUMPDEST SWAP3 SWAP2 POP POP JUMP JUMPDEST PUSH32 0x5175697A20696E2070726F677265737300000000000000000000000000000000 PUSH0 DUP3 ADD MSTORE POP JUMP JUMPDEST PUSH0 PUSH2 0x400F PUSH1 0x10 DUP4 PUSH2 0x3AAF JUMP JUMPDEST SWAP2 POP PUSH2 0x401A DUP3 PUSH2 0x3FDB JUMP JUMPDEST PUSH1 0x20 DUP3 ADD SWAP1 POP SWAP2 SWAP1 POP JUMP JUMPDEST PUSH0 PUSH1 0x20 DUP3 ADD SWAP1 POP DUP2 DUP2 SUB PUSH0 DUP4 ADD MSTORE PUSH2 0x403C DUP2 PUSH2 0x4003 JUMP JUMPDEST SWAP1 POP SWAP2 SWAP1 POP JUMP JUMPDEST PUSH0 PUSH1 0x60 DUP3 ADD SWAP1 POP PUSH2 0x4056 PUSH0 DUP4 ADD DUP7 PUSH2 0x3C45 JUMP JUMPDEST PUSH2 0x4063 PUSH1 0x20 DUP4 ADD DUP6 PUSH2 0x3C45 JUMP JUMPDEST PUSH2 0x4070 PUSH1 0x40 DUP4 ADD DUP5 PUSH2 0x3B29 JUMP JUMPDEST SWAP5 SWAP4 POP POP POP POP JUMP JUMPDEST PUSH2 0x4081 DUP2 PUSH2 0x3B38 JUMP JUMPDEST DUP2 EQ PUSH2 0x408B JUMPI PUSH0 PUSH0 REVERT JUMPDEST POP JUMP JUMPDEST PUSH0 DUP2 MLOAD SWAP1 POP PUSH2 0x409C DUP2 PUSH2 0x4078 JUMP JUMPDEST SWAP3 SWAP2 POP POP JUMP JUMPDEST PUSH0 PUSH1 0x20 DUP3 DUP5 SUB SLT ISZERO PUSH2 0x40B7 JUMPI PUSH2 0x40B6 PUSH2 0x35A7 JUMP JUMPDEST JUMPDEST PUSH0 PUSH2 0x40C4 DUP5 DUP3 DUP6 ADD PUSH2 0x408E JUMP JUMPDEST SWAP2 POP POP SWAP3 SWAP2 POP POP JUMP JUMPDEST PUSH32 0x466565207472616E73666572206661696C656400000000000000000000000000 PUSH0 DUP3 ADD MSTORE POP JUMP JUMPDEST PUSH0 PUSH2 0x4101 PUSH1 0x13 DUP4 PUSH2 0x3AAF JUMP JUMPDEST SWAP2 POP PUSH2 0x410C DUP3 PUSH2 0x40CD JUMP JUMPDEST PUSH1 0x20 DUP3 ADD SWAP1 POP SWAP2 SWAP1 POP JUMP JUMPDEST PUSH0 PUSH1 0x20 DUP3 ADD SWAP1 POP DUP2 DUP2 SUB PUSH0 DUP4 ADD MSTORE PUSH2 0x412E DUP2 PUSH2 0x40F5 JUMP JUMPDEST SWAP1 POP SWAP2 SWAP1 POP JUMP JUMPDEST PUSH32 0x4E487B7100000000000000000000000000000000000000000000000000000000 PUSH0 MSTORE PUSH1 0x22 PUSH1 0x4 MSTORE PUSH1 0x24 PUSH0 REVERT JUMPDEST PUSH0 PUSH1 0x2 DUP3 DIV SWAP1 POP PUSH1 0x1 DUP3 AND DUP1 PUSH2 0x4179 JUMPI PUSH1 0x7F DUP3 AND SWAP2 POP JUMPDEST PUSH1 0x20 DUP3 LT DUP2 SUB PUSH2 0x418C JUMPI PUSH2 0x418B PUSH2 0x4135 JUMP JUMPDEST JUMPDEST POP SWAP2 SWAP1 POP JUMP JUMPDEST PUSH0 DUP2 SWAP1 POP DUP2 PUSH0 MSTORE PUSH1 0x20 PUSH0 KECCAK256 SWAP1 POP SWAP2 SWAP1 POP JUMP JUMPDEST PUSH0 PUSH1 0x20 PUSH1 0x1F DUP4 ADD DIV SWAP1 POP SWAP2 SWAP1 POP JUMP JUMPDEST PUSH0 DUP3 DUP3 SHL SWAP1 POP SWAP3 SWAP2 POP POP JUMP JUMPDEST PUSH0 PUSH1 0x8 DUP4 MUL PUSH2 0x41EE PUSH32 0xFFFFFFFFFFFFFFFFFFFFFFFFFFFFFFFFFFFFFFFFFFFFFFFFFFFFFFFFFFFFFFFF DUP3 PUSH2 0x41B3 JUMP JUMPDEST PUSH2 0x41F8 DUP7 DUP4 PUSH2 0x41B3 JUMP JUMPDEST SWAP6 POP DUP1 NOT DUP5 AND SWAP4 POP DUP1 DUP7 AND DUP5 OR SWAP3 POP POP POP SWAP4 SWAP3 POP POP POP JUMP JUMPDEST PUSH0 PUSH2 0x422A PUSH2 0x4225 PUSH2 0x4220 DUP5 PUSH2 0x3B20 JUMP JUMPDEST PUSH2 0x3BD1 JUMP JUMPDEST PUSH2 0x3B20 JUMP JUMPDEST SWAP1 POP SWAP2 SWAP1 POP JUMP JUMPDEST PUSH0 DUP2 SWAP1 POP SWAP2 SWAP1 POP JUMP JUMPDEST PUSH2 0x4243 DUP4 PUSH2 0x4210 JUMP JUMPDEST PUSH2 0x4257 PUSH2 0x424F DUP3 PUSH2 0x4231 JUMP JUMPDEST DUP5 DUP5 SLOAD PUSH2 0x41BF JUMP JUMPDEST DUP3 SSTORE POP POP POP POP JUMP JUMPDEST PUSH0 PUSH0 SWAP1 POP SWAP1 JUMP JUMPDEST PUSH2 0x426E PUSH2 0x425F JUMP JUMPDEST PUSH2 0x4279 DUP2 DUP5 DUP5 PUSH2 0x423A JUMP JUMPDEST POP POP POP JUMP JUMPDEST JUMPDEST DUP2 DUP2 LT ISZERO PUSH2 0x429C JUMPI PUSH2 0x4291 PUSH0 DUP3 PUSH2 0x4266 JUMP JUMPDEST PUSH1 0x1 DUP2 ADD SWAP1 POP PUSH2 0x427F JUMP JUMPDEST POP POP JUMP JUMPDEST PUSH1 0x1F DUP3 GT ISZERO PUSH2 0x42E1 JUMPI PUSH2 0x42B2 DUP2 PUSH2 0x4192 JUMP JUMPDEST PUSH2 0x42BB DUP5 PUSH2 0x41A4 JUMP JUMPDEST DUP2 ADD PUSH1 0x20 DUP6 LT ISZERO PUSH2 0x42CA JUMPI DUP2 SWAP1 POP JUMPDEST PUSH2 0x42DE PUSH2 0x42D6 DUP6 PUSH2 0x41A4 JUMP JUMPDEST DUP4 ADD DUP3 PUSH2 0x427E JUMP JUMPDEST POP POP JUMPDEST POP POP POP JUMP JUMPDEST PUSH0 DUP3 DUP3 SHR SWAP1 POP SWAP3 SWAP2 POP POP JUMP JUMPDEST PUSH0 PUSH2 0x4301 PUSH0 NOT DUP5 PUSH1 0x8 MUL PUSH2 0x42E6 JUMP JUMPDEST NOT DUP1 DUP4 AND SWAP2 POP POP SWAP3 SWAP2 POP POP JUMP JUMPDEST PUSH0 PUSH2 0x4319 DUP4 DUP4 PUSH2 0x42F2 JUMP JUMPDEST SWAP2 POP DUP3 PUSH1 0x2 MUL DUP3 OR SWAP1 POP SWAP3 SWAP2 POP POP JUMP JUMPDEST PUSH2 0x4332 DUP3 PUSH2 0x3AA5 JUMP JUMPDEST PUSH8 0xFFFFFFFFFFFFFFFF DUP2 GT ISZERO PUSH2 0x434B JUMPI PUSH2 0x434A PUSH2 0x35FA JUMP JUMPDEST JUMPDEST PUSH2 0x4355 DUP3 SLOAD PUSH2 0x4162 JUMP JUMPDEST PUSH2 0x4360 DUP3 DUP3 DUP6 PUSH2 0x42A0 JUMP JUMPDEST PUSH0 PUSH1 0x20 SWAP1 POP PUSH1 0x1F DUP4 GT PUSH1 0x1 DUP2 EQ PUSH2 0x4391 JUMPI PUSH0 DUP5 ISZERO PUSH2 0x437F JUMPI DUP3 DUP8 ADD MLOAD SWAP1 POP JUMPDEST PUSH2 0x4389 DUP6 DUP3 PUSH2 0x430E JUMP JUMPDEST DUP7 SSTORE POP PUSH2 0x43F0 JUMP JUMPDEST PUSH1 0x1F NOT DUP5 AND PUSH2 0x439F DUP7 PUSH2 0x4192 JUMP JUMPDEST PUSH0 JUMPDEST DUP3 DUP2 LT ISZERO PUSH2 0x43C6 JUMPI DUP5 DUP10 ADD MLOAD DUP3 SSTORE PUSH1 0x1 DUP3 ADD SWAP2 POP PUSH1 0x20 DUP6 ADD SWAP5 POP PUSH1 0x20 DUP2 ADD SWAP1 POP PUSH2 0x43A1 JUMP JUMPDEST DUP7 DUP4 LT ISZERO PUSH2 0x43E3 JUMPI DUP5 DUP10 ADD MLOAD PUSH2 0x43DF PUSH1 0x1F DUP10 AND DUP3 PUSH2 0x42F2 JUMP JUMPDEST DUP4 SSTORE POP JUMPDEST PUSH1 0x1 PUSH1 0x2 DUP9 MUL ADD DUP9 SSTORE POP POP POP JUMPDEST POP POP POP POP POP POP JUMP JUMPDEST PUSH0 PUSH1 0x40 DUP3 ADD SWAP1 POP DUP2 DUP2 SUB PUSH0 DUP4 ADD MSTORE PUSH2 0x4410 DUP2 DUP6 PUSH2 0x3ACD JUMP JUMPDEST SWAP1 POP PUSH2 0x441F PUSH1 0x20 DUP4 ADD DUP5 PUSH2 0x3B11 JUMP JUMPDEST SWAP4 SWAP3 POP POP POP JUMP JUMPDEST PUSH32 0x4E487B7100000000000000000000000000000000000000000000000000000000 PUSH0 MSTORE PUSH1 0x32 PUSH1 0x4 MSTORE PUSH1 0x24 PUSH0 REVERT JUMPDEST PUSH32 0x4D7573742062652070726F706F736564206F776E657200000000000000000000 PUSH0 DUP3 ADD MSTORE POP JUMP JUMPDEST PUSH0 PUSH2 0x4487 PUSH1 0x16 DUP4 PUSH2 0x3AAF JUMP JUMPDEST SWAP2 POP PUSH2 0x4492 DUP3 PUSH2 0x4453 JUMP JUMPDEST PUSH1 0x20 DUP3 ADD SWAP1 POP SWAP2 SWAP1 POP JUMP JUMPDEST PUSH0 PUSH1 0x20 DUP3 ADD SWAP1 POP DUP2 DUP2 SUB PUSH0 DUP4 ADD MSTORE PUSH2 0x44B4 DUP2 PUSH2 0x447B JUMP JUMPDEST SWAP1 POP SWAP2 SWAP1 POP JUMP JUMPDEST PUSH32 0x4E6F20616374697665207175697A000000000000000000000000000000000000 PUSH0 DUP3 ADD MSTORE POP JUMP JUMPDEST PUSH0 PUSH2 0x44EF PUSH1 0xE DUP4 PUSH2 0x3AAF JUMP JUMPDEST SWAP2 POP PUSH2 0x44FA DUP3 PUSH2 0x44BB JUMP JUMPDEST PUSH1 0x20 DUP3 ADD SWAP1 POP SWAP2 SWAP1 POP JUMP JUMPDEST PUSH0 PUSH1 0x20 DUP3 ADD SWAP1 POP DUP2 DUP2 SUB PUSH0 DUP4 ADD MSTORE PUSH2 0x451C DUP2 PUSH2 0x44E3 JUMP JUMPDEST SWAP1 POP SWAP2 SWAP1 POP JUMP JUMPDEST PUSH32 0x4578706972656400000000000000000000000000000000000000000000000000 PUSH0 DUP3 ADD MSTORE POP JUMP JUMPDEST PUSH0 PUSH2 0x4557 PUSH1 0x7 DUP4 PUSH2 0x3AAF JUMP JUMPDEST SWAP2 POP PUSH2 0x4562 DUP3 PUSH2 0x4523 JUMP JUMPDEST PUSH1 0x20 DUP3 ADD SWAP1 POP SWAP2 SWAP1 POP JUMP JUMPDEST PUSH0 PUSH1 0x20 DUP3 ADD SWAP1 POP DUP2 DUP2 SUB PUSH0 DUP4 ADD MSTORE PUSH2 0x4584 DUP2 PUSH2 0x454B JUMP JUMPDEST SWAP1 POP SWAP2 SWAP1 POP JUMP JUMPDEST PUSH0 PUSH1 0x40 DUP3 ADD SWAP1 POP PUSH2 0x459E PUSH0 DUP4 ADD DUP6 PUSH2 0x3C45 JUMP JUMPDEST PUSH2 0x45AB PUSH1 0x20 DUP4 ADD DUP5 PUSH2 0x3B29 JUMP JUMPDEST SWAP4 SWAP3 POP POP POP JUMP JUMPDEST PUSH32 0x5175697A20636F6D706C65746500000000000000000000000000000000000000 PUSH0 DUP3 ADD MSTORE POP JUMP JUMPDEST PUSH0 PUSH2 0x45E6 PUSH1 0xD DUP4 PUSH2 0x3AAF JUMP JUMPDEST SWAP2 POP PUSH2 0x45F1 DUP3 PUSH2 0x45B2 JUMP JUMPDEST PUSH1 0x20 DUP3 ADD SWAP1 POP SWAP2 SWAP1 POP JUMP JUMPDEST PUSH0 PUSH1 0x20 DUP3 ADD SWAP1 POP DUP2 DUP2 SUB PUSH0 DUP4 ADD MSTORE PUSH2 0x4613 DUP2 PUSH2 0x45DA JUMP JUMPDEST SWAP1 POP SWAP2 SWAP1 POP JUMP JUMPDEST PUSH32 0x556E6B6E6F776E20726571756573740000000000000000000000000000000000 PUSH0 DUP3 ADD MSTORE POP JUMP JUMPDEST PUSH0 PUSH2 0x464E PUSH1 0xF DUP4 PUSH2 0x3AAF JUMP JUMPDEST SWAP2 POP PUSH2 0x4659 DUP3 PUSH2 0x461A JUMP JUMPDEST PUSH1 0x20 DUP3 ADD SWAP1 POP SWAP2 SWAP1 POP JUMP JUMPDEST PUSH0 PUSH1 0x20 DUP3 ADD SWAP1 POP DUP2 DUP2 SUB PUSH0 DUP4 ADD MSTORE PUSH2 0x467B DUP2 PUSH2 0x4642 JUMP JUMPDEST SWAP1 POP SWAP2 SWAP1 POP JUMP JUMPDEST PUSH32 0x53657373696F6E20656E64656400000000000000000000000000000000000000 PUSH0 DUP3 ADD MSTORE POP JUMP JUMPDEST PUSH0 PUSH2 0x46B6 PUSH1 0xD DUP4 PUSH2 0x3AAF JUMP JUMPDEST SWAP2 POP PUSH2 0x46C1 DUP3 PUSH2 0x4682 JUMP JUMPDEST PUSH1 0x20 DUP3 ADD SWAP1 POP SWAP2 SWAP1 POP JUMP JUMPDEST PUSH0 PUSH1 0x20 DUP3 ADD SWAP1 POP DUP2 DUP2 SUB PUSH0 DUP4 ADD MSTORE PUSH2 0x46E3 DUP2 PUSH2 0x46AA JUMP JUMPDEST SWAP1 POP SWAP2 SWAP1 POP JUMP JUMPDEST PUSH0 DUP2 MLOAD SWAP1 POP SWAP2 SWAP1 POP JUMP JUMPDEST PUSH0 DUP3 DUP3 MSTORE PUSH1 0x20 DUP3 ADD SWAP1 POP SWAP3 SWAP2 POP POP JUMP JUMPDEST PUSH0 PUSH2 0x470E DUP3 PUSH2 0x46EA JUMP JUMPDEST PUSH2 0x4718 DUP2 DUP6 PUSH2 0x46F4 JUMP JUMPDEST SWAP4 POP PUSH2 0x4728 DUP2 DUP6 PUSH1 0x20 DUP7 ADD PUSH2 0x3ABF JUMP JUMPDEST PUSH2 0x4731 DUP2 PUSH2 0x35EA JUMP JUMPDEST DUP5 ADD SWAP2 POP POP SWAP3 SWAP2 POP POP JUMP JUMPDEST PUSH0 PUSH1 0x40 DUP3 ADD SWAP1 POP DUP2 DUP2 SUB PUSH0 DUP4 ADD MSTORE PUSH2 0x4754 DUP2 DUP6 PUSH2 0x3ACD JUMP JUMPDEST SWAP1 POP DUP2 DUP2 SUB PUSH1 0x20 DUP4 ADD MSTORE PUSH2 0x4768 DUP2 DUP5 PUSH2 0x4704 JUMP JUMPDEST SWAP1 POP SWAP4 SWAP3 POP POP POP JUMP JUMPDEST PUSH32 0x46756E6374696F6E73206572726F723A20000000000000000000000000000000 PUSH0 DUP3 ADD MSTORE POP JUMP JUMPDEST PUSH0 PUSH2 0x47A5 PUSH1 0x11 DUP4 PUSH2 0x3DB3 JUMP JUMPDEST SWAP2 POP PUSH2 0x47B0 DUP3 PUSH2 0x4771 JUMP JUMPDEST PUSH1 0x11 DUP3 ADD SWAP1 POP SWAP2 SWAP1 POP JUMP JUMPDEST PUSH0 DUP2 SWAP1 POP SWAP3 SWAP2 POP POP JUMP JUMPDEST PUSH0 PUSH2 0x47CF DUP3 PUSH2 0x46EA JUMP JUMPDEST PUSH2 0x47D9 DUP2 DUP6 PUSH2 0x47BB JUMP JUMPDEST SWAP4 POP PUSH2 0x47E9 DUP2 DUP6 PUSH1 0x20 DUP7 ADD PUSH2 0x3ABF JUMP JUMPDEST DUP1 DUP5 ADD SWAP2 POP POP SWAP3 SWAP2 POP POP JUMP JUMPDEST PUSH0 PUSH2 0x47FF DUP3 PUSH2 0x4799 JUMP JUMPDEST SWAP2 POP PUSH2 0x480B DUP3 DUP5 PUSH2 0x47C5 JUMP JUMPDEST SWAP2 POP DUP2 SWAP1 POP SWAP3 SWAP2 POP POP JUMP JUMPDEST PUSH0 PUSH1 0x20 DUP3 ADD SWAP1 POP DUP2 DUP2 SUB PUSH0 DUP4 ADD MSTORE PUSH2 0x482E DUP2 DUP5 PUSH2 0x3ACD JUMP JUMPDEST SWAP1 POP SWAP3 SWAP2 POP POP JUMP JUMPDEST PUSH32 0x546F6F206D616E79207175657374696F6E730000000000000000000000000000 PUSH0 DUP3 ADD MSTORE POP JUMP JUMPDEST PUSH0 PUSH2 0x486A PUSH1 0x12 DUP4 PUSH2 0x3AAF JUMP JUMPDEST SWAP2 POP PUSH2 0x4875 DUP3 PUSH2 0x4836 JUMP JUMPDEST PUSH1 0x20 DUP3 ADD SWAP1 POP SWAP2 SWAP1 POP JUMP JUMPDEST PUSH0 PUSH1 0x20 DUP3 ADD SWAP1 POP DUP2 DUP2 SUB PUSH0 DUP4 ADD MSTORE PUSH2 0x4897 DUP2 PUSH2 0x485E JUMP JUMPDEST SWAP1 POP SWAP2 SWAP1 POP JUMP JUMPDEST PUSH32 0x496E76616C6964207175697A4964000000000000000000000000000000000000 PUSH0 DUP3 ADD MSTORE POP JUMP JUMPDEST PUSH0 PUSH2 0x48D2 PUSH1 0xE DUP4 PUSH2 0x3AAF JUMP JUMPDEST SWAP2 POP PUSH2 0x48DD DUP3 PUSH2 0x489E JUMP JUMPDEST PUSH1 0x20 DUP3 ADD SWAP1 POP SWAP2 SWAP1 POP JUMP JUMPDEST PUSH0 PUSH1 0x20 DUP3 ADD SWAP1 POP DUP2 DUP2 SUB PUSH0 DUP4 ADD MSTORE PUSH2 0x48FF DUP2 PUSH2 0x48C6 JUMP JUMPDEST SWAP1 POP SWAP2 SWAP1 POP JUMP JUMPDEST PUSH0 DUP2 SLOAD PUSH2 0x4912 DUP2 PUSH2 0x4162 JUMP JUMPDEST PUSH2 0x491C DUP2 DUP7 PUSH2 0x3DB3 JUMP JUMPDEST SWAP5 POP PUSH1 0x1 DUP3 AND PUSH0 DUP2 EQ PUSH2 0x4936 JUMPI PUSH1 0x1 DUP2 EQ PUSH2 0x494B JUMPI PUSH2 0x497D JUMP JUMPDEST PUSH1 0xFF NOT DUP4 AND DUP7 MSTORE DUP2 ISZERO ISZERO DUP3 MUL DUP7 ADD SWAP4 POP PUSH2 0x497D JUMP JUMPDEST PUSH2 0x4954 DUP6 PUSH2 0x4192 JUMP JUMPDEST PUSH0 JUMPDEST DUP4 DUP2 LT ISZERO PUSH2 0x4975 JUMPI DUP2 SLOAD DUP2 DUP10 ADD MSTORE PUSH1 0x1 DUP3 ADD SWAP2 POP PUSH1 0x20 DUP2 ADD SWAP1 POP PUSH2 0x4956 JUMP JUMPDEST DUP4 DUP9 ADD SWAP6 POP POP POP JUMPDEST POP POP POP SWAP3 SWAP2 POP POP JUMP JUMPDEST PUSH0 PUSH2 0x4991 DUP3 DUP5 PUSH2 0x4906 JUMP JUMPDEST SWAP2 POP DUP2 SWAP1 POP SWAP3 SWAP2 POP POP JUMP JUMPDEST PUSH0 PUSH2 0x49A6 DUP3 PUSH2 0x3AA5 JUMP JUMPDEST PUSH2 0x49B0 DUP2 DUP6 PUSH2 0x3DB3 JUMP JUMPDEST SWAP4 POP PUSH2 0x49C0 DUP2 DUP6 PUSH1 0x20 DUP7 ADD PUSH2 0x3ABF JUMP JUMPDEST DUP1 DUP5 ADD SWAP2 POP POP SWAP3 SWAP2 POP POP JUMP JUMPDEST PUSH0 PUSH2 0x49D7 DUP3 DUP5 PUSH2 0x499C JUMP JUMPDEST SWAP2 POP DUP2 SWAP1 POP SWAP3 SWAP2 POP POP JUMP JUMPDEST PUSH32 0x5175697A4964206D69736D617463680000000000000000000000000000000000 PUSH0 DUP3 ADD MSTORE POP JUMP JUMPDEST PUSH0 PUSH2 0x4A16 PUSH1 0xF DUP4 PUSH2 0x3AAF JUMP JUMPDEST SWAP2 POP PUSH2 0x4A21 DUP3 PUSH2 0x49E2 JUMP JUMPDEST PUSH1 0x20 DUP3 ADD SWAP1 POP SWAP2 SWAP1 POP JUMP JUMPDEST PUSH0 PUSH1 0x20 DUP3 ADD SWAP1 POP DUP2 DUP2 SUB PUSH0 DUP4 ADD MSTORE PUSH2 0x4A43 DUP2 PUSH2 0x4A0A JUMP JUMPDEST SWAP1 POP SWAP2 SWAP1 POP JUMP JUMPDEST PUSH32 0x456D70747920726573706F6E7365000000000000000000000000000000000000 PUSH0 DUP3 ADD MSTORE POP JUMP JUMPDEST PUSH0 PUSH2 0x4A7E PUSH1 0xE DUP4 PUSH2 0x3AAF JUMP JUMPDEST SWAP2 POP PUSH2 0x4A89 DUP3 PUSH2 0x4A4A JUMP JUMPDEST PUSH1 0x20 DUP3 ADD SWAP1 POP SWAP2 SWAP1 POP JUMP JUMPDEST PUSH0 PUSH1 0x20 DUP3 ADD SWAP1 POP DUP2 DUP2 SUB PUSH0 DUP4 ADD MSTORE PUSH2 0x4AAB DUP2 PUSH2 0x4A72 JUMP JUMPDEST SWAP1 POP SWAP2 SWAP1 POP JUMP JUMPDEST PUSH0 PUSH2 0x4ABC DUP3 PUSH2 0x3B20 JUMP JUMPDEST SWAP2 POP PUSH32 0xFFFFFFFFFFFFFFFFFFFFFFFFFFFFFFFFFFFFFFFFFFFFFFFFFFFFFFFFFFFFFFFF DUP3 SUB PUSH2 0x4AEE JUMPI PUSH2 0x4AED PUSH2 0x3F7B JUMP JUMPDEST JUMPDEST PUSH1 0x1 DUP3 ADD SWAP1 POP SWAP2 SWAP1 POP JUMP JUMPDEST PUSH0 PUSH1 0x40 DUP3 ADD SWAP1 POP PUSH2 0x4B0C PUSH0 DUP4 ADD DUP6 PUSH2 0x3B43 JUMP JUMPDEST PUSH2 0x4B19 PUSH1 0x20 DUP4 ADD DUP5 PUSH2 0x3B11 JUMP JUMPDEST SWAP4 SWAP3 POP POP POP JUMP JUMPDEST PUSH0 PUSH2 0x4B2A DUP3 PUSH2 0x3B05 JUMP JUMPDEST SWAP2 POP PUSH1 0xFF DUP3 SUB PUSH2 0x4B3D JUMPI PUSH2 0x4B3C PUSH2 0x3F7B JUMP JUMPDEST JUMPDEST PUSH1 0x1 DUP3 ADD SWAP1 POP SWAP2 SWAP1 POP JUMP JUMPDEST PUSH0 PUSH2 0x4B52 DUP3 PUSH2 0x3B20 JUMP JUMPDEST SWAP2 POP PUSH2 0x4B5D DUP4 PUSH2 0x3B20 JUMP JUMPDEST SWAP3 POP DUP3 DUP3 MUL PUSH2 0x4B6B DUP2 PUSH2 0x3B20 JUMP JUMPDEST SWAP2 POP DUP3 DUP3 DIV DUP5 EQ DUP4 ISZERO OR PUSH2 0x4B82 JUMPI PUSH2 0x4B81 PUSH2 0x3F7B JUMP JUMPDEST JUMPDEST POP SWAP3 SWAP2 POP POP JUMP JUMPDEST PUSH0 PUSH1 0x60 DUP3 ADD SWAP1 POP PUSH2 0x4B9C PUSH0 DUP4 ADD DUP7 PUSH2 0x3B29 JUMP JUMPDEST PUSH2 0x4BA9 PUSH1 0x20 DUP4 ADD DUP6 PUSH2 0x3B29 JUMP JUMPDEST PUSH2 0x4BB6 PUSH1 0x40 DUP4 ADD DUP5 PUSH2 0x3B29 JUMP JUMPDEST SWAP5 SWAP4 POP POP POP POP JUMP JUMPDEST PUSH32 0x5265656E7472616E637947756172643A207265656E7472616E742063616C6C00 PUSH0 DUP3 ADD MSTORE POP JUMP JUMPDEST PUSH0 PUSH2 0x4BF2 PUSH1 0x1F DUP4 PUSH2 0x3AAF JUMP JUMPDEST SWAP2 POP PUSH2 0x4BFD DUP3 PUSH2 0x4BBE JUMP JUMPDEST PUSH1 0x20 DUP3 ADD SWAP1 POP SWAP2 SWAP1 POP JUMP JUMPDEST PUSH0 PUSH1 0x20 DUP3 ADD SWAP1 POP DUP2 DUP2 SUB PUSH0 DUP4 ADD MSTORE PUSH2 0x4C1F DUP2 PUSH2 0x4BE6 JUMP JUMPDEST SWAP1 POP SWAP2 SWAP1 POP JUMP JUMPDEST PUSH0 DUP2 PUSH1 0x60 SHL SWAP1 POP SWAP2 SWAP1 POP JUMP JUMPDEST PUSH0 PUSH2 0x4C3C DUP3 PUSH2 0x4C26 JUMP JUMPDEST SWAP1 POP SWAP2 SWAP1 POP JUMP JUMPDEST PUSH0 PUSH2 0x4C4D DUP3 PUSH2 0x4C32 JUMP JUMPDEST SWAP1 POP SWAP2 SWAP1 POP JUMP JUMPDEST PUSH2 0x4C65 PUSH2 0x4C60 DUP3 PUSH2 0x3A3F JUMP JUMPDEST PUSH2 0x4C43 JUMP JUMPDEST DUP3 MSTORE POP POP JUMP JUMPDEST PUSH0 DUP2 SWAP1 POP SWAP2 SWAP1 POP JUMP JUMPDEST PUSH2 0x4C85 PUSH2 0x4C80 DUP3 PUSH2 0x3B20 JUMP JUMPDEST PUSH2 0x4C6B JUMP JUMPDEST DUP3 MSTORE POP POP JUMP JUMPDEST PUSH0 PUSH2 0x4C96 DUP3 DUP6 PUSH2 0x4C54 JUMP JUMPDEST PUSH1 0x14 DUP3 ADD SWAP2 POP PUSH2 0x4CA6 DUP3 DUP5 PUSH2 0x4C74 JUMP JUMPDEST PUSH1 0x20 DUP3 ADD SWAP2 POP DUP2 SWAP1 POP SWAP4 SWAP3 POP POP POP JUMP JUMPDEST PUSH32 0x4E487B7100000000000000000000000000000000000000000000000000000000 PUSH0 MSTORE PUSH1 0x12 PUSH1 0x4 MSTORE PUSH1 0x24 PUSH0 REVERT JUMPDEST PUSH0 PUSH2 0x4CED DUP3 PUSH2 0x3B20 JUMP JUMPDEST SWAP2 POP PUSH2 0x4CF8 DUP4 PUSH2 0x3B20 JUMP JUMPDEST SWAP3 POP DUP3 PUSH2 0x4D08 JUMPI PUSH2 0x4D07 PUSH2 0x4CB6 JUMP JUMPDEST JUMPDEST DUP3 DUP3 MOD SWAP1 POP SWAP3 SWAP2 POP POP JUMP JUMPDEST PUSH0 PUSH2 0x4D1D DUP3 PUSH2 0x3B20 JUMP JUMPDEST SWAP2 POP PUSH2 0x4D28 DUP4 PUSH2 0x3B20 JUMP JUMPDEST SWAP3 POP DUP3 DUP3 SUB SWAP1 POP DUP2 DUP2 GT ISZERO PUSH2 0x4D40 JUMPI PUSH2 0x4D3F PUSH2 0x3F7B JUMP JUMPDEST JUMPDEST SWAP3 SWAP2 POP POP JUMP JUMPDEST PUSH32 0x2200000000000000000000000000000000000000000000000000000000000000 PUSH0 DUP3 ADD MSTORE POP JUMP JUMPDEST PUSH0 PUSH2 0x4D7A PUSH1 0x1 DUP4 PUSH2 0x3DB3 JUMP JUMPDEST SWAP2 POP PUSH2 0x4D85 DUP3 PUSH2 0x4D46 JUMP JUMPDEST PUSH1 0x1 DUP3 ADD SWAP1 POP SWAP2 SWAP1 POP JUMP JUMPDEST PUSH0 PUSH2 0x4D9B DUP3 DUP7 PUSH2 0x499C JUMP JUMPDEST SWAP2 POP PUSH2 0x4DA6 DUP3 PUSH2 0x4D6E JUMP JUMPDEST SWAP2 POP PUSH2 0x4DB2 DUP3 DUP6 PUSH2 0x499C JUMP JUMPDEST SWAP2 POP PUSH2 0x4DBD DUP3 PUSH2 0x4D6E JUMP JUMPDEST SWAP2 POP PUSH2 0x4DC9 DUP3 DUP5 PUSH2 0x499C JUMP JUMPDEST SWAP2 POP DUP2 SWAP1 POP SWAP5 SWAP4 POP POP POP POP JUMP JUMPDEST PUSH32 0x5D00000000000000000000000000000000000000000000000000000000000000 PUSH0 DUP3 ADD MSTORE POP JUMP JUMPDEST PUSH0 PUSH2 0x4E0A PUSH1 0x1 DUP4 PUSH2 0x3DB3 JUMP JUMPDEST SWAP2 POP PUSH2 0x4E15 DUP3 PUSH2 0x4DD6 JUMP JUMPDEST PUSH1 0x1 DUP3 ADD SWAP1 POP SWAP2 SWAP1 POP JUMP JUMPDEST PUSH0 PUSH2 0x4E2B DUP3 DUP5 PUSH2 0x499C JUMP JUMPDEST SWAP2 POP PUSH2 0x4E36 DUP3 PUSH2 0x4DFE JUMP JUMPDEST SWAP2 POP DUP2 SWAP1 POP SWAP3 SWAP2 POP POP JUMP JUMPDEST PUSH32 0x4E487B7100000000000000000000000000000000000000000000000000000000 PUSH0 MSTORE PUSH1 0x21 PUSH1 0x4 MSTORE PUSH1 0x24 PUSH0 REVERT JUMPDEST PUSH0 PUSH2 0xFFFF DUP3 AND SWAP1 POP SWAP2 SWAP1 POP JUMP JUMPDEST PUSH2 0x4E84 DUP2 PUSH2 0x4E6E JUMP JUMPDEST DUP3 MSTORE POP POP JUMP JUMPDEST PUSH0 PUSH1 0xA0 DUP3 ADD SWAP1 POP PUSH2 0x4E9D PUSH0 DUP4 ADD DUP9 PUSH2 0x3576 JUMP JUMPDEST DUP2 DUP2 SUB PUSH1 0x20 DUP4 ADD MSTORE PUSH2 0x4EAF DUP2 DUP8 PUSH2 0x4704 JUMP JUMPDEST SWAP1 POP PUSH2 0x4EBE PUSH1 0x40 DUP4 ADD DUP7 PUSH2 0x4E7B JUMP JUMPDEST PUSH2 0x4ECB PUSH1 0x60 DUP4 ADD DUP6 PUSH2 0x3C7C JUMP JUMPDEST PUSH2 0x4ED8 PUSH1 0x80 DUP4 ADD DUP5 PUSH2 0x37A6 JUMP JUMPDEST SWAP7 SWAP6 POP POP POP POP POP POP JUMP JUMPDEST PUSH0 DUP2 MLOAD SWAP1 POP PUSH2 0x4EF0 DUP2 PUSH2 0x35B8 JUMP JUMPDEST SWAP3 SWAP2 POP POP JUMP JUMPDEST PUSH0 PUSH1 0x20 DUP3 DUP5 SUB SLT ISZERO PUSH2 0x4F0B JUMPI PUSH2 0x4F0A PUSH2 0x35A7 JUMP JUMPDEST JUMPDEST PUSH0 PUSH2 0x4F18 DUP5 DUP3 DUP6 ADD PUSH2 0x4EE2 JUMP JUMPDEST SWAP2 POP POP SWAP3 SWAP2 POP POP JUMP JUMPDEST PUSH32 0x4F6E6C792063616C6C61626C65206279206F776E657200000000000000000000 PUSH0 DUP3 ADD MSTORE POP JUMP JUMPDEST PUSH0 PUSH2 0x4F55 PUSH1 0x16 DUP4 PUSH2 0x3AAF JUMP JUMPDEST SWAP2 POP PUSH2 0x4F60 DUP3 PUSH2 0x4F21 JUMP JUMPDEST PUSH1 0x20 DUP3 ADD SWAP1 POP SWAP2 SWAP1 POP JUMP JUMPDEST PUSH0 PUSH1 0x20 DUP3 ADD SWAP1 POP DUP2 DUP2 SUB PUSH0 DUP4 ADD MSTORE PUSH2 0x4F82 DUP2 PUSH2 0x4F49 JUMP JUMPDEST SWAP1 POP SWAP2 SWAP1 POP JUMP JUMPDEST PUSH0 PUSH2 0x4F93 DUP3 PUSH2 0x3B20 JUMP JUMPDEST SWAP2 POP PUSH2 0x4F9E DUP4 PUSH2 0x3B20 JUMP JUMPDEST SWAP3 POP DUP3 PUSH2 0x4FAE JUMPI PUSH2 0x4FAD PUSH2 0x4CB6 JUMP JUMPDEST JUMPDEST DUP3 DUP3 DIV SWAP1 POP SWAP3 SWAP2 POP POP JUMP JUMPDEST PUSH0 PUSH2 0x4FC3 DUP3 PUSH2 0x3B20 JUMP JUMPDEST SWAP2 POP PUSH0 DUP3 SUB PUSH2 0x4FD5 JUMPI PUSH2 0x4FD4 PUSH2 0x3F7B JUMP JUMPDEST JUMPDEST PUSH1 0x1 DUP3 SUB SWAP1 POP SWAP2 SWAP1 POP JUMP JUMPDEST PUSH32 0x43616E6E6F74207472616E7366657220746F2073656C66000000000000000000 PUSH0 DUP3 ADD MSTORE POP JUMP JUMPDEST PUSH0 PUSH2 0x5014 PUSH1 0x17 DUP4 PUSH2 0x3AAF JUMP JUMPDEST SWAP2 POP PUSH2 0x501F DUP3 PUSH2 0x4FE0 JUMP JUMPDEST PUSH1 0x20 DUP3 ADD SWAP1 POP SWAP2 SWAP1 POP JUMP JUMPDEST PUSH0 PUSH1 0x20 DUP3 ADD SWAP1 POP DUP2 DUP2 SUB PUSH0 DUP4 ADD MSTORE PUSH2 0x5041 DUP2 PUSH2 0x5008 JUMP JUMPDEST SWAP1 POP SWAP2 SWAP1 POP JUMP JUMPDEST PUSH32 0x496E76616C696420726573706F6E736520666F726D6174000000000000000000 PUSH0 DUP3 ADD MSTORE POP JUMP JUMPDEST PUSH0 PUSH2 0x507C PUSH1 0x17 DUP4 PUSH2 0x3AAF JUMP JUMPDEST SWAP2 POP PUSH2 0x5087 DUP3 PUSH2 0x5048 JUMP JUMPDEST PUSH1 0x20 DUP3 ADD SWAP1 POP SWAP2 SWAP1 POP JUMP JUMPDEST PUSH0 PUSH1 0x20 DUP3 ADD SWAP1 POP DUP2 DUP2 SUB PUSH0 DUP4 ADD MSTORE PUSH2 0x50A9 DUP2 PUSH2 0x5070 JUMP JUMPDEST SWAP1 POP SWAP2 SWAP1 POP JUMP JUMPDEST PUSH0 PUSH10 0xFFFFFFFFFFFFFFFFFFFF DUP3 AND SWAP1 POP SWAP2 SWAP1 POP JUMP JUMPDEST PUSH2 0x50CE DUP2 PUSH2 0x50B0 JUMP JUMPDEST DUP2 EQ PUSH2 0x50D8 JUMPI PUSH0 PUSH0 REVERT JUMPDEST POP JUMP JUMPDEST PUSH0 DUP2 MLOAD SWAP1 POP PUSH2 0x50E9 DUP2 PUSH2 0x50C5 JUMP JUMPDEST SWAP3 SWAP2 POP POP JUMP JUMPDEST PUSH0 DUP2 SWAP1 POP SWAP2 SWAP1 POP JUMP JUMPDEST PUSH2 0x5101 DUP2 PUSH2 0x50EF JUMP JUMPDEST DUP2 EQ PUSH2 0x510B JUMPI PUSH0 PUSH0 REVERT JUMPDEST POP JUMP JUMPDEST PUSH0 DUP2 MLOAD SWAP1 POP PUSH2 0x511C DUP2 PUSH2 0x50F8 JUMP JUMPDEST SWAP3 SWAP2 POP POP JUMP JUMPDEST PUSH2 0x512B DUP2 PUSH2 0x3B20 JUMP JUMPDEST DUP2 EQ PUSH2 0x5135 JUMPI PUSH0 PUSH0 REVERT JUMPDEST POP JUMP JUMPDEST PUSH0 DUP2 MLOAD SWAP1 POP PUSH2 0x5146 DUP2 PUSH2 0x5122 JUMP JUMPDEST SWAP3 SWAP2 POP POP JUMP JUMPDEST PUSH0 PUSH0 PUSH0 PUSH0 PUSH0 PUSH1 0xA0 DUP7 DUP9 SUB SLT ISZERO PUSH2 0x5165 JUMPI PUSH2 0x5164 PUSH2 0x35A7 JUMP JUMPDEST JUMPDEST PUSH0 PUSH2 0x5172 DUP9 DUP3 DUP10 ADD PUSH2 0x50DB JUMP JUMPDEST SWAP6 POP POP PUSH1 0x20 PUSH2 0x5183 DUP9 DUP3 DUP10 ADD PUSH2 0x510E JUMP JUMPDEST SWAP5 POP POP PUSH1 0x40 PUSH2 0x5194 DUP9 DUP3 DUP10 ADD PUSH2 0x5138 JUMP JUMPDEST SWAP4 POP POP PUSH1 0x60 PUSH2 0x51A5 DUP9 DUP3 DUP10 ADD PUSH2 0x5138 JUMP JUMPDEST SWAP3 POP POP PUSH1 0x80 PUSH2 0x51B6 DUP9 DUP3 DUP10 ADD PUSH2 0x50DB JUMP JUMPDEST SWAP2 POP POP SWAP3 SWAP6 POP SWAP3 SWAP6 SWAP1 SWAP4 POP JUMP JUMPDEST PUSH32 0x4261642066656564000000000000000000000000000000000000000000000000 PUSH0 DUP3 ADD MSTORE POP JUMP JUMPDEST PUSH0 PUSH2 0x51F7 PUSH1 0x8 DUP4 PUSH2 0x3AAF JUMP JUMPDEST SWAP2 POP PUSH2 0x5202 DUP3 PUSH2 0x51C3 JUMP JUMPDEST PUSH1 0x20 DUP3 ADD SWAP1 POP SWAP2 SWAP1 POP JUMP JUMPDEST PUSH0 PUSH1 0x20 DUP3 ADD SWAP1 POP DUP2 DUP2 SUB PUSH0 DUP4 ADD MSTORE PUSH2 0x5224 DUP2 PUSH2 0x51EB JUMP JUMPDEST SWAP1 POP SWAP2 SWAP1 POP JUMP JUMPDEST PUSH32 0x496E76616C6964206E756D626572000000000000000000000000000000000000 PUSH0 DUP3 ADD MSTORE POP JUMP JUMPDEST PUSH0 PUSH2 0x525F PUSH1 0xE DUP4 PUSH2 0x3AAF JUMP JUMPDEST SWAP2 POP PUSH2 0x526A DUP3 PUSH2 0x522B JUMP JUMPDEST PUSH1 0x20 DUP3 ADD SWAP1 POP SWAP2 SWAP1 POP JUMP JUMPDEST PUSH0 PUSH1 0x20 DUP3 ADD SWAP1 POP DUP2 DUP2 SUB PUSH0 DUP4 ADD MSTORE PUSH2 0x528C DUP2 PUSH2 0x5253 JUMP JUMPDEST SWAP1 POP SWAP2 SWAP1 POP JUMP JUMPDEST PUSH32 0x4E6F6E2D6E756D65726963206368617261637465720000000000000000000000 PUSH0 DUP3 ADD MSTORE POP JUMP JUMPDEST PUSH0 PUSH2 0x52C7 PUSH1 0x15 DUP4 PUSH2 0x3AAF JUMP JUMPDEST SWAP2 POP PUSH2 0x52D2 DUP3 PUSH2 0x5293 JUMP JUMPDEST PUSH1 0x20 DUP3 ADD SWAP1 POP SWAP2 SWAP1 POP JUMP JUMPDEST PUSH0 PUSH1 0x20 DUP3 ADD SWAP1 POP DUP2 DUP2 SUB PUSH0 DUP4 ADD MSTORE PUSH2 0x52F4 DUP2 PUSH2 0x52BB JUMP JUMPDEST SWAP1 POP SWAP2 SWAP1 POP JUMP JUMPDEST PUSH0 PUSH2 0x5305 DUP3 PUSH2 0x3B05 JUMP JUMPDEST SWAP2 POP PUSH2 0x5310 DUP4 PUSH2 0x3B05 JUMP JUMPDEST SWAP3 POP DUP3 DUP3 SUB SWAP1 POP PUSH1 0xFF DUP2 GT ISZERO PUSH2 0x5329 JUMPI PUSH2 0x5328 PUSH2 0x3F7B JUMP JUMPDEST JUMPDEST SWAP3 SWAP2 POP POP JUMP JUMPDEST PUSH0 DUP2 PUSH1 0x1 SHR SWAP1 POP SWAP2 SWAP1 POP JUMP JUMPDEST PUSH0 PUSH0 DUP3 SWAP2 POP DUP4 SWAP1 POP JUMPDEST PUSH1 0x1 DUP6 GT ISZERO PUSH2 0x5384 JUMPI DUP1 DUP7 DIV DUP2 GT ISZERO PUSH2 0x5360 JUMPI PUSH2 0x535F PUSH2 0x3F7B JUMP JUMPDEST JUMPDEST PUSH1 0x1 DUP6 AND ISZERO PUSH2 0x536F JUMPI DUP1 DUP3 MUL SWAP2 POP JUMPDEST DUP1 DUP2 MUL SWAP1 POP PUSH2 0x537D DUP6 PUSH2 0x532F JUMP JUMPDEST SWAP5 POP PUSH2 0x5344 JUMP JUMPDEST SWAP5 POP SWAP5 SWAP3 POP POP POP JUMP JUMPDEST PUSH0 DUP3 PUSH2 0x539C JUMPI PUSH1 0x1 SWAP1 POP PUSH2 0x5457 JUMP JUMPDEST DUP2 PUSH2 0x53A9 JUMPI PUSH0 SWAP1 POP PUSH2 0x5457 JUMP JUMPDEST DUP2 PUSH1 0x1 DUP2 EQ PUSH2 0x53BF JUMPI PUSH1 0x2 DUP2 EQ PUSH2 0x53C9 JUMPI PUSH2 0x53F8 JUMP JUMPDEST PUSH1 0x1 SWAP2 POP POP PUSH2 0x5457 JUMP JUMPDEST PUSH1 0xFF DUP5 GT ISZERO PUSH2 0x53DB JUMPI PUSH2 0x53DA PUSH2 0x3F7B JUMP JUMPDEST JUMPDEST DUP4 PUSH1 0x2 EXP SWAP2 POP DUP5 DUP3 GT ISZERO PUSH2 0x53F2 JUMPI PUSH2 0x53F1 PUSH2 0x3F7B JUMP JUMPDEST JUMPDEST POP PUSH2 0x5457 JUMP JUMPDEST POP PUSH1 0x20 DUP4 LT PUSH2 0x133 DUP4 LT AND PUSH1 0x4E DUP5 LT PUSH1 0xB DUP5 LT AND OR ISZERO PUSH2 0x542D JUMPI DUP3 DUP3 EXP SWAP1 POP DUP4 DUP2 GT ISZERO PUSH2 0x5428 JUMPI PUSH2 0x5427 PUSH2 0x3F7B JUMP JUMPDEST JUMPDEST PUSH2 0x5457 JUMP JUMPDEST PUSH2 0x543A DUP5 DUP5 DUP5 PUSH1 0x1 PUSH2 0x533B JUMP JUMPDEST SWAP3 POP SWAP1 POP DUP2 DUP5 DIV DUP2 GT ISZERO PUSH2 0x5451 JUMPI PUSH2 0x5450 PUSH2 0x3F7B JUMP JUMPDEST JUMPDEST DUP2 DUP2 MUL SWAP1 POP JUMPDEST SWAP4 SWAP3 POP POP POP JUMP JUMPDEST PUSH0 PUSH2 0x5468 DUP3 PUSH2 0x3B20 JUMP JUMPDEST SWAP2 POP PUSH2 0x5473 DUP4 PUSH2 0x3B20 JUMP JUMPDEST SWAP3 POP PUSH2 0x54A0 PUSH32 0xFFFFFFFFFFFFFFFFFFFFFFFFFFFFFFFFFFFFFFFFFFFFFFFFFFFFFFFFFFFFFFFF DUP5 DUP5 PUSH2 0x538D JUMP JUMPDEST SWAP1 POP SWAP3 SWAP2 POP POP JUMP INVALID PUSH9 0x747470733A2F2F6377 PUSH10 0x7A72707276797A6E656C PUSH21 0x67687A6E6E612E73757061626173652E636F636F6E PUSH20 0x742075726C203D20617267735B345D202B20272F PUSH23 0x6572696679416E73776572273B636F6E73742072657320 RETURNDATASIZE KECCAK256 PUSH2 0x7761 PUSH10 0x742046756E6374696F6E PUSH20 0x2E6D616B654874747052657175657374287B2020 PUSH22 0x726C2C20206D6574686F643A2027504F5354272C2020 PUSH9 0x6561646572733A207B 0x27 NUMBER PUSH16 0x6E74656E742D54797065273A20276170 PUSH17 0x6C69636174696F6E2F6A736F6E277D2C20 KECCAK256 PUSH5 0x6174613A20 BLOBBASEFEE MSTORE8 0x4F 0x4E 0x2E PUSH20 0x7472696E67696679287B202020207175697A4964 GASPRICE KECCAK256 PUSH2 0x7267 PUSH20 0x5B305D2C20202020706C61796572416464726573 PUSH20 0x3A20617267735B315D2C20202020717565737469 PUSH16 0x6E496E6465783A207061727365496E74 0x28 PUSH2 0x7267 PUSH20 0x5B325D292C2020202073656C6563746564496E64 PUSH6 0x783A20706172 PUSH20 0x65496E7428617267735B335D2920207D297D293B PUSH10 0x6620287265732E657272 PUSH16 0x7229207B2020636F6E736F6C652E6572 PUSH19 0x6F7228274261636B656E64206572726F723A27 0x2C KECCAK256 PUSH19 0x65732E6572726F72293B202072657475726E20 CHAINID PUSH22 0x6E6374696F6E732E656E636F6465537472696E672827 ADDRESS 0x27 0x29 EXTCODESIZE PUSH30 0x72657475726E2046756E6374696F6E732E656E636F6465537472696E6728 PUSH19 0x65732E646174612E6973436F7272656374203F KECCAK256 0x27 BALANCE 0x27 KECCAK256 GASPRICE KECCAK256 0x27 ADDRESS 0x27 0x29 EXTCODESIZE PUSH4 0x6F6E7374 KECCAK256 PUSH22 0x726C203D20617267735B325D202B20272F67656E6572 PUSH2 0x7465 MLOAD PUSH22 0x697A273B636F6E737420726573203D20617761697420 CHAINID PUSH22 0x6E6374696F6E732E6D616B6548747470526571756573 PUSH21 0x287B202075726C2C20206D6574686F643A2027504F MSTORE8 SLOAD 0x27 0x2C KECCAK256 KECCAK256 PUSH9 0x6561646572733A207B 0x27 NUMBER PUSH16 0x6E74656E742D54797065273A20276170 PUSH17 0x6C69636174696F6E2F6A736F6E277D2C20 KECCAK256 PUSH5 0x6174613A20 BLOBBASEFEE MSTORE8 0x4F 0x4E 0x2E PUSH20 0x7472696E67696679287B20202020646F6D61696E PUSH20 0x3A204A534F4E2E706172736528617267735B305D 0x29 0x2C KECCAK256 KECCAK256 KECCAK256 KECCAK256 PUSH17 0x6C61796572416464726573733A20617267 PUSH20 0x5B315D2C20202020737570616261736555726C3A KECCAK256 PUSH2 0x7267 PUSH20 0x5B335D2C202020207461626C653A20617267735B CALLVALUE TSTORE 0x2C KECCAK256 KECCAK256 KECCAK256 KECCAK256 PUSH18 0x75697A49643A20617267735B315D2C202020 KECCAK256 PUSH5 0x6966666963 PUSH22 0x6C74793A20617267735B355D20207D297D293B696620 0x28 PUSH19 0x65732E6572726F7229207B2020636F6E736F6C PUSH6 0x2E6572726F72 0x28 0x27 TIMESTAMP PUSH2 0x636B PUSH6 0x6E6420657272 PUSH16 0x723A272C207265732E6572726F72293B KECCAK256 KECCAK256 PUSH19 0x657475726E2046756E6374696F6E732E656E63 PUSH16 0x6465537472696E6728276572726F727C ADDRESS 0x27 0x29 EXTCODESIZE PUSH30 0x69662028217265732E646174612E7175697A4964207C7C20217265732E64 PUSH2 0x7461 0x2E PUSH15 0x756D5175657374696F6E7329207B20 KECCAK256 PUSH4 0x6F6E736F PUSH13 0x652E6572726F722827496E7661 PUSH13 0x696420726573706F6E73653A27 0x2C KECCAK256 PUSH19 0x65732E64617461293B202072657475726E2046 PUSH22 0x6E6374696F6E732E656E636F6465537472696E672827 PUSH10 0x6E76616C69647C302729 EXTCODESIZE PUSH30 0x72657475726E2046756E6374696F6E732E656E636F6465537472696E6728 PUSH19 0x65732E646174612E7175697A4964202B20277C 0x27 KECCAK256 0x2B KECCAK256 PUSH19 0x65732E646174612E6E756D5175657374696F6E PUSH20 0x293BA2646970667358221220530149BF8C642A97 0xBB SHL PUSH3 0x7FC769 SSTORE 0xED TIMESTAMP SELFDESTRUCT 0xF DIV PUSH8 0xEFC60B2C4E9952FE 0xB3 PUSH26 0x9B64736F6C634300081E00330000000000000000000000000000 "
		},
		"gasEstimates": {
			"creation": {
				"codeDepositCost": "4577600",
				"executionCost": "infinite",
				"totalCost": "infinite"
			},
			"external": {
				"CALLBACK_GAS()": "354",
				"DON_ID()": "393",
				"ENTRY_FEE()": "413",
				"MAX_DURATION()": "392",
				"MAX_QUESTIONS()": "376",
				"REWARD_PER()": "370",
				"acceptOwnership()": "54620",
				"cancelQuiz()": "infinite",
				"debugFulfillRequest(bytes32,bytes,bytes)": "infinite",
				"handleOracleFulfillment(bytes32,bytes,bytes)": "infinite",
				"owner()": "2625",
				"priceFeed()": "infinite",
				"quizToken()": "infinite",
				"router()": "infinite",
				"sessions(address)": "infinite",
				"startQuiz(string[],string)": "infinite",
				"submitAnswer(uint8)": "infinite",
				"subscriptionId()": "infinite",
				"transferOwnership(address)": "30715"
			},
			"internal": {
				"_atoi(string memory)": "infinite",
				"_encodeArray(string memory[] memory)": "infinite",
				"_generateQuizId(address,uint256)": "infinite",
				"_generateSource()": "infinite",
				"_getElizaUrl()": "infinite",
				"_getSupabaseUrl()": "infinite",
				"_getTableName()": "infinite",
				"_parse(string memory)": "infinite",
				"_slice(bytes memory,uint256,uint256)": "infinite",
				"_toHex(address)": "infinite",
				"_toHexString(uint256)": "infinite",
				"_toUSD(uint256)": "infinite",
				"_verifySource()": "infinite",
				"fulfillRequest(bytes32,bytes memory,bytes memory)": "infinite",
				"uint2str(uint256)": "infinite"
			}
		},
		"methodIdentifiers": {
			"CALLBACK_GAS()": "9779ea46",
			"DON_ID()": "0cde9f3c",
			"ENTRY_FEE()": "f6d361cc",
			"MAX_DURATION()": "b1724b46",
			"MAX_QUESTIONS()": "7416f166",
			"REWARD_PER()": "aa1fe14f",
			"acceptOwnership()": "79ba5097",
			"cancelQuiz()": "c320c1b9",
			"debugFulfillRequest(bytes32,bytes,bytes)": "c3865b6c",
			"handleOracleFulfillment(bytes32,bytes,bytes)": "0ca76175",
			"owner()": "8da5cb5b",
			"priceFeed()": "741bef1a",
			"quizToken()": "b68e71bf",
			"router()": "f887ea40",
			"sessions(address)": "431a1b97",
			"startQuiz(string[],string)": "1ca96bed",
			"submitAnswer(uint8)": "ec4fd914",
			"subscriptionId()": "09c1ba2e",
			"transferOwnership(address)": "f2fde38b"
		}
	},
	"abi": [
		{
			"inputs": [
				{
					"internalType": "address",
					"name": "_token",
					"type": "address"
				},
				{
					"internalType": "address",
					"name": "_priceFeed",
					"type": "address"
				},
				{
					"internalType": "uint64",
					"name": "_subId",
					"type": "uint64"
				},
				{
					"internalType": "address",
					"name": "_router",
					"type": "address"
				}
			],
			"stateMutability": "nonpayable",
			"type": "constructor"
		},
		{
			"inputs": [],
			"name": "EmptyArgs",
			"type": "error"
		},
		{
			"inputs": [],
			"name": "EmptySource",
			"type": "error"
		},
		{
			"inputs": [],
			"name": "NoInlineSecrets",
			"type": "error"
		},
		{
			"inputs": [],
			"name": "OnlyRouterCanFulfill",
			"type": "error"
		},
		{
			"anonymous": false,
			"inputs": [
				{
					"indexed": true,
					"internalType": "address",
					"name": "player",
					"type": "address"
				},
				{
					"indexed": false,
					"internalType": "bytes32",
					"name": "requestId",
					"type": "bytes32"
				}
			],
			"name": "AnswerChecked",
			"type": "event"
		},
		{
			"anonymous": false,
			"inputs": [
				{
					"indexed": true,
					"internalType": "address",
					"name": "player",
					"type": "address"
				},
				{
					"indexed": false,
					"internalType": "bool",
					"name": "isCorrect",
					"type": "bool"
				},
				{
					"indexed": false,
					"internalType": "uint8",
					"name": "questionIndex",
					"type": "uint8"
				}
			],
			"name": "AnswerResult",
			"type": "event"
		},
		{
			"anonymous": false,
			"inputs": [
				{
					"indexed": true,
					"internalType": "bytes32",
					"name": "requestId",
					"type": "bytes32"
				},
				{
					"indexed": false,
					"internalType": "string",
					"name": "response",
					"type": "string"
				},
				{
					"indexed": false,
					"internalType": "bytes",
					"name": "error",
					"type": "bytes"
				}
			],
			"name": "DebugResponse",
			"type": "event"
		},
		{
			"anonymous": false,
			"inputs": [
				{
					"indexed": true,
					"internalType": "address",
					"name": "from",
					"type": "address"
				},
				{
					"indexed": true,
					"internalType": "address",
					"name": "to",
					"type": "address"
				}
			],
			"name": "OwnershipTransferRequested",
			"type": "event"
		},
		{
			"anonymous": false,
			"inputs": [
				{
					"indexed": true,
					"internalType": "address",
					"name": "from",
					"type": "address"
				},
				{
					"indexed": true,
					"internalType": "address",
					"name": "to",
					"type": "address"
				}
			],
			"name": "OwnershipTransferred",
			"type": "event"
		},
		{
			"anonymous": false,
			"inputs": [
				{
					"indexed": true,
					"internalType": "address",
					"name": "player",
					"type": "address"
				}
			],
			"name": "QuizCancelled",
			"type": "event"
		},
		{
			"anonymous": false,
			"inputs": [
				{
					"indexed": true,
					"internalType": "address",
					"name": "player",
					"type": "address"
				},
				{
					"indexed": false,
					"internalType": "uint256",
					"name": "correctCount",
					"type": "uint256"
				},
				{
					"indexed": false,
					"internalType": "uint256",
					"name": "reward",
					"type": "uint256"
				},
				{
					"indexed": false,
					"internalType": "uint256",
					"name": "rewardUSD",
					"type": "uint256"
				}
			],
			"name": "QuizCompleted",
			"type": "event"
		},
		{
			"anonymous": false,
			"inputs": [
				{
					"indexed": true,
					"internalType": "address",
					"name": "player",
					"type": "address"
				},
				{
					"indexed": false,
					"internalType": "string",
					"name": "quizId",
					"type": "string"
				},
				{
					"indexed": false,
					"internalType": "uint8",
					"name": "numQuestions",
					"type": "uint8"
				}
			],
			"name": "QuizGenerated",
			"type": "event"
		},
		{
			"anonymous": false,
			"inputs": [
				{
					"indexed": true,
					"internalType": "address",
					"name": "player",
					"type": "address"
				},
				{
					"indexed": false,
					"internalType": "bytes32",
					"name": "requestId",
					"type": "bytes32"
				}
			],
			"name": "QuizRequested",
			"type": "event"
		},
		{
			"anonymous": false,
			"inputs": [
				{
					"indexed": true,
					"internalType": "bytes32",
					"name": "id",
					"type": "bytes32"
				}
			],
			"name": "RequestFulfilled",
			"type": "event"
		},
		{
			"anonymous": false,
			"inputs": [
				{
					"indexed": true,
					"internalType": "bytes32",
					"name": "id",
					"type": "bytes32"
				}
			],
			"name": "RequestSent",
			"type": "event"
		},
		{
			"inputs": [],
			"name": "CALLBACK_GAS",
			"outputs": [
				{
					"internalType": "uint32",
					"name": "",
					"type": "uint32"
				}
			],
			"stateMutability": "view",
			"type": "function"
		},
		{
			"inputs": [],
			"name": "DON_ID",
			"outputs": [
				{
					"internalType": "bytes32",
					"name": "",
					"type": "bytes32"
				}
			],
			"stateMutability": "view",
			"type": "function"
		},
		{
			"inputs": [],
			"name": "ENTRY_FEE",
			"outputs": [
				{
					"internalType": "uint256",
					"name": "",
					"type": "uint256"
				}
			],
			"stateMutability": "view",
			"type": "function"
		},
		{
			"inputs": [],
			"name": "MAX_DURATION",
			"outputs": [
				{
					"internalType": "uint256",
					"name": "",
					"type": "uint256"
				}
			],
			"stateMutability": "view",
			"type": "function"
		},
		{
			"inputs": [],
			"name": "MAX_QUESTIONS",
			"outputs": [
				{
					"internalType": "uint8",
					"name": "",
					"type": "uint8"
				}
			],
			"stateMutability": "view",
			"type": "function"
		},
		{
			"inputs": [],
			"name": "REWARD_PER",
			"outputs": [
				{
					"internalType": "uint256",
					"name": "",
					"type": "uint256"
				}
			],
			"stateMutability": "view",
			"type": "function"
		},
		{
			"inputs": [],
			"name": "acceptOwnership",
			"outputs": [],
			"stateMutability": "nonpayable",
			"type": "function"
		},
		{
			"inputs": [],
			"name": "cancelQuiz",
			"outputs": [],
			"stateMutability": "nonpayable",
			"type": "function"
		},
		{
			"inputs": [
				{
					"internalType": "bytes32",
					"name": "requestId",
					"type": "bytes32"
				},
				{
					"internalType": "bytes",
					"name": "response",
					"type": "bytes"
				},
				{
					"internalType": "bytes",
					"name": "err",
					"type": "bytes"
				}
			],
			"name": "debugFulfillRequest",
			"outputs": [],
			"stateMutability": "nonpayable",
			"type": "function"
		},
		{
			"inputs": [
				{
					"internalType": "bytes32",
					"name": "requestId",
					"type": "bytes32"
				},
				{
					"internalType": "bytes",
					"name": "response",
					"type": "bytes"
				},
				{
					"internalType": "bytes",
					"name": "err",
					"type": "bytes"
				}
			],
			"name": "handleOracleFulfillment",
			"outputs": [],
			"stateMutability": "nonpayable",
			"type": "function"
		},
		{
			"inputs": [],
			"name": "owner",
			"outputs": [
				{
					"internalType": "address",
					"name": "",
					"type": "address"
				}
			],
			"stateMutability": "view",
			"type": "function"
		},
		{
			"inputs": [],
			"name": "priceFeed",
			"outputs": [
				{
					"internalType": "contract AggregatorV3Interface",
					"name": "",
					"type": "address"
				}
			],
			"stateMutability": "view",
			"type": "function"
		},
		{
			"inputs": [],
			"name": "quizToken",
			"outputs": [
				{
					"internalType": "contract IERC20",
					"name": "",
					"type": "address"
				}
			],
			"stateMutability": "view",
			"type": "function"
		},
		{
			"inputs": [],
			"name": "router",
			"outputs": [
				{
					"internalType": "address",
					"name": "",
					"type": "address"
				}
			],
			"stateMutability": "view",
			"type": "function"
		},
		{
			"inputs": [
				{
					"internalType": "address",
					"name": "",
					"type": "address"
				}
			],
			"name": "sessions",
			"outputs": [
				{
					"internalType": "string",
					"name": "quizId",
					"type": "string"
				},
				{
					"internalType": "uint8",
					"name": "questionIndex",
					"type": "uint8"
				},
				{
					"internalType": "uint256",
					"name": "correctCount",
					"type": "uint256"
				},
				{
					"internalType": "uint256",
					"name": "startedAt",
					"type": "uint256"
				},
				{
					"internalType": "bool",
					"name": "active",
					"type": "bool"
				},
				{
					"internalType": "uint8",
					"name": "numQuestions",
					"type": "uint8"
				}
			],
			"stateMutability": "view",
			"type": "function"
		},
		{
			"inputs": [
				{
					"internalType": "string[]",
					"name": "domains",
					"type": "string[]"
				},
				{
					"internalType": "string",
					"name": "difficulty",
					"type": "string"
				}
			],
			"name": "startQuiz",
			"outputs": [],
			"stateMutability": "nonpayable",
			"type": "function"
		},
		{
			"inputs": [
				{
					"internalType": "uint8",
					"name": "selectedIndex",
					"type": "uint8"
				}
			],
			"name": "submitAnswer",
			"outputs": [],
			"stateMutability": "nonpayable",
			"type": "function"
		},
		{
			"inputs": [],
			"name": "subscriptionId",
			"outputs": [
				{
					"internalType": "uint64",
					"name": "",
					"type": "uint64"
				}
			],
			"stateMutability": "view",
			"type": "function"
		},
		{
			"inputs": [
				{
					"internalType": "address",
					"name": "to",
					"type": "address"
				}
			],
			"name": "transferOwnership",
			"outputs": [],
			"stateMutability": "nonpayable",
			"type": "function"
		}
	]
}