{
	"data": {
		"bytecode": {
			"linkReferences": {},
			"object": "61014060405273f9b8fc078197181c841c296c876945aaa425b27873ffffffffffffffffffffffffffffffffffffffff1660a09073ffffffffffffffffffffffffffffffffffffffff168152507f66756e2d626173652d7365706f6c69612d31000000000000000000000000000060c09081525034801561007e575f5ffd5b5060405161658f38038061658f83398181016040528101906100a091906109de565b33805f60a0518073ffffffffffffffffffffffffffffffffffffffff1660808173ffffffffffffffffffffffffffffffffffffffff1681525050505f73ffffffffffffffffffffffffffffffffffffffff168273ffffffffffffffffffffffffffffffffffffffff1603610149576040517f08c379a000000000000000000000000000000000000000000000000000000000815260040161014090610a88565b60405180910390fd5b815f5f6101000a81548173ffffffffffffffffffffffffffffffffffffffff021916908373ffffffffffffffffffffffffffffffffffffffff1602179055505f73ffffffffffffffffffffffffffffffffffffffff168173ffffffffffffffffffffffffffffffffffffffff16146101cb576101ca8161074660201b60201c565b5b50505060016002819055505f73ffffffffffffffffffffffffffffffffffffffff168373ffffffffffffffffffffffffffffffffffffffff1603610244576040517f08c379a000000000000000000000000000000000000000000000000000000000815260040161023b90610af0565b60405180910390fd5b5f73ffffffffffffffffffffffffffffffffffffffff168273ffffffffffffffffffffffffffffffffffffffff16036102b2576040517f08c379a00000000000000000000000000000000000000000000000000000000081526004016102a990610b58565b60405180910390fd5b8273ffffffffffffffffffffffffffffffffffffffff1660e08173ffffffffffffffffffffffffffffffffffffffff16815250508173ffffffffffffffffffffffffffffffffffffffff166101008173ffffffffffffffffffffffffffffffffffffffff16815250508067ffffffffffffffff166101208167ffffffffffffffff16815250506040518061022001604052806040518060400160405280600481526020017f446546690000000000000000000000000000000000000000000000000000000081525081526020016040518060400160405280600781526020017f4f7261636c65730000000000000000000000000000000000000000000000000081525081526020016040518060400160405280600681526020017f4c6179657232000000000000000000000000000000000000000000000000000081525081526020016040518060400160405280600a81526020017f546f6b656e6f6d6963730000000000000000000000000000000000000000000081525081526020016040518060400160405280600d81526020017f5a65726f4b6e6f776c656467650000000000000000000000000000000000000081525081526020016040518060400160405280600381526020017f4e4654000000000000000000000000000000000000000000000000000000000081525081526020016040518060400160405280600a81526020017f43726f7373436861696e0000000000000000000000000000000000000000000081525081526020016040518060400160405280600a81526020017f476f7665726e616e63650000000000000000000000000000000000000000000081525081526020016040518060400160405280600481526020017f44414f730000000000000000000000000000000000000000000000000000000081525081526020016040518060400160405280600e81526020017f536d617274436f6e74726163747300000000000000000000000000000000000081525081526020016040518060400160405280600e81526020017f57616c6c6574536563757269747900000000000000000000000000000000000081525081526020016040518060400160405280600b81526020017f537461626c65636f696e7300000000000000000000000000000000000000000081525081526020016040518060400160405280600981526020017f436861696e6c696e6b000000000000000000000000000000000000000000000081525081526020016040518060400160405280600481526020017f434349500000000000000000000000000000000000000000000000000000000081525081526020016040518060400160405280600381526020017f565246000000000000000000000000000000000000000000000000000000000081525081526020016040518060400160405280600a81526020017f4175746f6d6174696f6e0000000000000000000000000000000000000000000081525081526020016040518060400160405280600981526020017f4461746146656564730000000000000000000000000000000000000000000000815250815250600590601161073d929190610871565b50505050610eea565b3373ffffffffffffffffffffffffffffffffffffffff168173ffffffffffffffffffffffffffffffffffffffff16036107b4576040517f08c379a00000000000000000000000000000000000000000000000000000000081526004016107ab90610bc0565b60405180910390fd5b8060015f6101000a81548173ffffffffffffffffffffffffffffffffffffffff021916908373ffffffffffffffffffffffffffffffffffffffff1602179055508073ffffffffffffffffffffffffffffffffffffffff165f5f9054906101000a900473ffffffffffffffffffffffffffffffffffffffff1673ffffffffffffffffffffffffffffffffffffffff167fed8889f560326eb138920d842192f0eb3dd22b4f139c87a2c57538e05bae127860405160405180910390a350565b828054828255905f5260205f209081019282156108b7579160200282015b828111156108b65782518290816108a69190610e1b565b509160200191906001019061088f565b5b5090506108c491906108c8565b5090565b5b808211156108e7575f81816108de91906108eb565b506001016108c9565b5090565b5080546108f790610c42565b5f825580601f106109085750610925565b601f0160209004905f5260205f20908101906109249190610928565b5b50565b5b8082111561093f575f815f905550600101610929565b5090565b5f5ffd5b5f73ffffffffffffffffffffffffffffffffffffffff82169050919050565b5f61097082610947565b9050919050565b61098081610966565b811461098a575f5ffd5b50565b5f8151905061099b81610977565b92915050565b5f67ffffffffffffffff82169050919050565b6109bd816109a1565b81146109c7575f5ffd5b50565b5f815190506109d8816109b4565b92915050565b5f5f5f606084860312156109f5576109f4610943565b5b5f610a028682870161098d565b9350506020610a138682870161098d565b9250506040610a24868287016109ca565b9150509250925092565b5f82825260208201905092915050565b7f43616e6e6f7420736574206f776e657220746f207a65726f00000000000000005f82015250565b5f610a72601883610a2e565b9150610a7d82610a3e565b602082019050919050565b5f6020820190508181035f830152610a9f81610a66565b9050919050565b7f496e76616c696420746f6b656e206164647265737300000000000000000000005f82015250565b5f610ada601583610a2e565b9150610ae582610aa6565b602082019050919050565b5f6020820190508181035f830152610b0781610ace565b9050919050565b7f496e76616c69642056524620636f6e73756d65722061646472657373000000005f82015250565b5f610b42601c83610a2e565b9150610b4d82610b0e565b602082019050919050565b5f6020820190508181035f830152610b6f81610b36565b9050919050565b7f43616e6e6f74207472616e7366657220746f2073656c660000000000000000005f82015250565b5f610baa601783610a2e565b9150610bb582610b76565b602082019050919050565b5f6020820190508181035f830152610bd781610b9e565b9050919050565b5f81519050919050565b7f4e487b71000000000000000000000000000000000000000000000000000000005f52604160045260245ffd5b7f4e487b71000000000000000000000000000000000000000000000000000000005f52602260045260245ffd5b5f6002820490506001821680610c5957607f821691505b602082108103610c6c57610c6b610c15565b5b50919050565b5f819050815f5260205f209050919050565b5f6020601f8301049050919050565b5f82821b905092915050565b5f60088302610cce7fffffffffffffffffffffffffffffffffffffffffffffffffffffffffffffffff82610c93565b610cd88683610c93565b95508019841693508086168417925050509392505050565b5f819050919050565b5f819050919050565b5f610d1c610d17610d1284610cf0565b610cf9565b610cf0565b9050919050565b5f819050919050565b610d3583610d02565b610d49610d4182610d23565b848454610c9f565b825550505050565b5f5f905090565b610d60610d51565b610d6b818484610d2c565b505050565b5b81811015610d8e57610d835f82610d58565b600181019050610d71565b5050565b601f821115610dd357610da481610c72565b610dad84610c84565b81016020851015610dbc578190505b610dd0610dc885610c84565b830182610d70565b50505b505050565b5f82821c905092915050565b5f610df35f1984600802610dd8565b1980831691505092915050565b5f610e0b8383610de4565b9150826002028217905092915050565b610e2482610bde565b67ffffffffffffffff811115610e3d57610e3c610be8565b5b610e478254610c42565b610e52828285610d92565b5f60209050601f831160018114610e83575f8415610e71578287015190505b610e7b8582610e00565b865550610ee2565b601f198416610e9186610c72565b5f5b82811015610eb857848901518255600182019150602085019450602081019050610e93565b86831015610ed55784890151610ed1601f891682610de4565b8355505b6001600288020188555050505b505050505050565b60805160a05160c05160e0516101005161012051615629610f665f395f8181610d2d015261163901525f81816106c101526109e901525f81816103f5015281816104d7015281816105b20152818161114b0152611aa501525f8181610d52015261165e01525f50505f8181610201015261297901526156295ff3fe608060405234801561000f575f5ffd5b50600436106100a7575f3560e01c806379ba50971161006f57806379ba5097146101655780638da5cb5b1461016f578063ad94763d1461018d578063c320c1b9146101bd578063ec4fd914146101c7578063f2fde38b146101e3576100a7565b80630ca76175146100ab5780632ac87aa6146100c75780632d8b23c8146100e3578063431a1b971461011357806354384fd514610149575b5f5ffd5b6100c560048036038101906100c091906137eb565b6101ff565b005b6100e160048036038101906100dc91906138d0565b6102c1565b005b6100fd60048036038101906100f8919061391b565b6107ed565b60405161010a9190613985565b60405180910390f35b61012d600480360381019061012891906139c8565b61081d565b6040516101409796959493929190613aa0565b60405180910390f35b610163600480360381019061015e9190613b3e565b610906565b005b61016d610ddb565b005b610177610f6a565b6040516101849190613985565b60405180910390f35b6101a760048036038101906101a29190613b3e565b610f91565b6040516101b49190613b69565b60405180910390f35b6101c5611037565b005b6101e160048036038101906101dc9190613bb3565b6112dc565b005b6101fd60048036038101906101f891906139c8565b6116e2565b005b7f000000000000000000000000000000000000000000000000000000000000000073ffffffffffffffffffffffffffffffffffffffff163373ffffffffffffffffffffffffffffffffffffffff1614610284576040517fc6829f8300000000000000000000000000000000000000000000000000000000815260040160405180910390fd5b61028f8383836116f6565b827f85e1543bf2f84fe80c6badbce3648c8539ad1df4d2b3d822938ca0538be727e660405160405180910390a2505050565b6102c9611c6d565b6005828290501015610310576040517f08c379a000000000000000000000000000000000000000000000000000000000815260040161030790613c28565b60405180910390fd5b61031a8282611cba565b610359576040517f08c379a000000000000000000000000000000000000000000000000000000000815260040161035090613c90565b60405180910390fd5b5f60035f3373ffffffffffffffffffffffffffffffffffffffff1673ffffffffffffffffffffffffffffffffffffffff1681526020019081526020015f209050806004015f9054906101000a900460ff16156103ea576040517f08c379a00000000000000000000000000000000000000000000000000000000081526004016103e190613cf8565b60405180910390fd5b678ac7230489e800007f000000000000000000000000000000000000000000000000000000000000000073ffffffffffffffffffffffffffffffffffffffff166370a08231336040518263ffffffff1660e01b815260040161044c9190613985565b602060405180830381865afa158015610467573d5f5f3e3d5ffd5b505050506040513d601f19601f8201168201806040525081019061048b9190613d2a565b10156104cc576040517f08c379a00000000000000000000000000000000000000000000000000000000081526004016104c390613d9f565b60405180910390fd5b678ac7230489e800007f000000000000000000000000000000000000000000000000000000000000000073ffffffffffffffffffffffffffffffffffffffff1663dd62ed3e33306040518363ffffffff1660e01b8152600401610530929190613dbd565b602060405180830381865afa15801561054b573d5f5f3e3d5ffd5b505050506040513d601f19601f8201168201806040525081019061056f9190613d2a565b10156105b0576040517f08c379a00000000000000000000000000000000000000000000000000000000081526004016105a790613e2e565b60405180910390fd5b7f000000000000000000000000000000000000000000000000000000000000000073ffffffffffffffffffffffffffffffffffffffff166323b872dd3330678ac7230489e800006040518463ffffffff1660e01b815260040161061593929190613e4c565b6020604051808303815f875af1158015610631573d5f5f3e3d5ffd5b505050506040513d601f19601f820116820180604052508101906106559190613eab565b506001816004015f6101000a81548160ff0219169083151502179055505f816001015f6101000a81548160ff021916908360ff1602179055505f8160020181905550428160030181905550600a8160040160016101000a81548160ff021916908360ff1602179055505f7f000000000000000000000000000000000000000000000000000000000000000073ffffffffffffffffffffffffffffffffffffffff166380c95b14336040518263ffffffff1660e01b81526004016107189190613985565b6020604051808303815f875af1158015610734573d5f5f3e3d5ffd5b505050506040513d601f19601f820116820180604052508101906107589190613d2a565b905080826005018190555061076c81611d92565b60405160200161077c9190613f5a565b604051602081830303815290604052825f01908161079a9190614178565b503373ffffffffffffffffffffffffffffffffffffffff16817ff7a8e0c42c700f462b414bceac8ab3195e1aaf10f2be5ee09b146bc290c1613060405160405180910390a350506107e9611eeb565b5050565b6004602052805f5260405f205f915054906101000a900473ffffffffffffffffffffffffffffffffffffffff1681565b6003602052805f5260405f205f91509050805f01805461083c90613fa8565b80601f016020809104026020016040519081016040528092919081815260200182805461086890613fa8565b80156108b35780601f1061088a576101008083540402835291602001916108b3565b820191905f5260205f20905b81548152906001019060200180831161089657829003601f168201915b505050505090806001015f9054906101000a900460ff1690806002015490806003015490806004015f9054906101000a900460ff16908060040160019054906101000a900460ff16908060050154905087565b61090e611c6d565b5f60035f3373ffffffffffffffffffffffffffffffffffffffff1673ffffffffffffffffffffffffffffffffffffffff1681526020019081526020015f209050806004015f9054906101000a900460ff1661099e576040517f08c379a000000000000000000000000000000000000000000000000000000000815260040161099590614291565b60405180910390fd5b818160050154146109e4576040517f08c379a00000000000000000000000000000000000000000000000000000000081526004016109db906142f9565b60405180910390fd5b5f5f5f7f000000000000000000000000000000000000000000000000000000000000000073ffffffffffffffffffffffffffffffffffffffff1663d8a4676f866040518263ffffffff1660e01b8152600401610a409190614317565b5f60405180830381865afa158015610a5a573d5f5f3e3d5ffd5b505050506040513d5f823e3d601f19601f82011682018060405250810190610a829190614404565b92509250925082610ac8576040517f08c379a0000000000000000000000000000000000000000000000000000000008152600401610abf906144ba565b60405180910390fd5b3373ffffffffffffffffffffffffffffffffffffffff168173ffffffffffffffffffffffffffffffffffffffff1614610b36576040517f08c379a0000000000000000000000000000000000000000000000000000000008152600401610b2d90614522565b60405180910390fd5b5f610b696305f5e100845f81518110610b5257610b51614540565b5b6020026020010151610b64919061459a565b611d92565b604051602001610b799190614614565b604051602081830303815290604052905080855f019081610b9a9190614178565b50610ba361356c565b610bbd610bae611ef5565b82611f1890919063ffffffff16565b5f610bf3855f81518110610bd457610bd3614540565b5b60200260200101518860040160019054906101000a900460ff16611f28565b90505f600567ffffffffffffffff811115610c1157610c106136c7565b5b604051908082528060200260200182016040528015610c4457816020015b6060815260200190600190039081610c2f5790505b509050610c5082612099565b815f81518110610c6357610c62614540565b5b6020026020010181905250610c773361218e565b81600181518110610c8b57610c8a614540565b5b6020026020010181905250610c9e612489565b81600281518110610cb257610cb1614540565b5b6020026020010181905250610cc56124c6565b81600381518110610cd957610cd8614540565b5b6020026020010181905250610cec6124e6565b81600481518110610d0057610cff614540565b5b6020026020010181905250610d1e818461252390919063ffffffff16565b5f610d76610d2b8561256a565b7f0000000000000000000000000000000000000000000000000000000000000000620493e07f0000000000000000000000000000000000000000000000000000000000000000612975565b90503360045f8381526020019081526020015f205f6101000a81548173ffffffffffffffffffffffffffffffffffffffff021916908373ffffffffffffffffffffffffffffffffffffffff160217905550505050505050505050610dd8611eeb565b50565b60015f9054906101000a900473ffffffffffffffffffffffffffffffffffffffff1673ffffffffffffffffffffffffffffffffffffffff163373ffffffffffffffffffffffffffffffffffffffff1614610e6a576040517f08c379a0000000000000000000000000000000000000000000000000000000008152600401610e619061467f565b60405180910390fd5b5f5f5f9054906101000a900473ffffffffffffffffffffffffffffffffffffffff169050335f5f6101000a81548173ffffffffffffffffffffffffffffffffffffffff021916908373ffffffffffffffffffffffffffffffffffffffff1602179055505f60015f6101000a81548173ffffffffffffffffffffffffffffffffffffffff021916908373ffffffffffffffffffffffffffffffffffffffff1602179055503373ffffffffffffffffffffffffffffffffffffffff168173ffffffffffffffffffffffffffffffffffffffff167f8be0079c531659141344cd1fd0a4f28419497f9722a3daafe3b4186f6b6457e060405160405180910390a350565b5f5f5f9054906101000a900473ffffffffffffffffffffffffffffffffffffffff16905090565b60058181548110610fa0575f80fd5b905f5260205f20015f915090508054610fb890613fa8565b80601f0160208091040260200160405190810160405280929190818152602001828054610fe490613fa8565b801561102f5780601f106110065761010080835404028352916020019161102f565b820191905f5260205f20905b81548152906001019060200180831161101257829003601f168201915b505050505081565b61103f611c6d565b5f60035f3373ffffffffffffffffffffffffffffffffffffffff1673ffffffffffffffffffffffffffffffffffffffff1681526020019081526020015f209050806004015f9054906101000a900460ff166110cf576040517f08c379a00000000000000000000000000000000000000000000000000000000081526004016110c690614291565b60405180910390fd5b6101c281600301546110e191906146ca565b4211611122576040517f08c379a000000000000000000000000000000000000000000000000000000000815260040161111990614747565b60405180910390fd5b5f678ac7230489e8000090505f826004015f6101000a81548160ff0219169083151502179055507f000000000000000000000000000000000000000000000000000000000000000073ffffffffffffffffffffffffffffffffffffffff1663a9059cbb33836040518363ffffffff1660e01b81526004016111a4929190614765565b6020604051808303815f875af11580156111c0573d5f5f3e3d5ffd5b505050506040513d601f19601f820116820180604052508101906111e49190613eab565b503373ffffffffffffffffffffffffffffffffffffffff167ffe1df32ea0db777e09d3744dec8051b0b39aad603e12002048877c32b665a0c18260405161122b9190614317565b60405180910390a260035f3373ffffffffffffffffffffffffffffffffffffffff1673ffffffffffffffffffffffffffffffffffffffff1681526020019081526020015f205f5f82015f61127f91906135db565b600182015f6101000a81549060ff0219169055600282015f9055600382015f9055600482015f6101000a81549060ff02191690556004820160016101000a81549060ff0219169055600582015f9055505050506112da611eeb565b565b6112e4611c6d565b5f60035f3373ffffffffffffffffffffffffffffffffffffffff1673ffffffffffffffffffffffffffffffffffffffff1681526020019081526020015f209050806004015f9054906101000a900460ff16611374576040517f08c379a000000000000000000000000000000000000000000000000000000000815260040161136b90614291565b60405180910390fd5b6101c2816003015461138691906146ca565b4211156113c8576040517f08c379a00000000000000000000000000000000000000000000000000000000081526004016113bf906147d6565b60405180910390fd5b60048260ff1610806113dd575060ff8260ff16145b61141c576040517f08c379a00000000000000000000000000000000000000000000000000000000081526004016114139061483e565b60405180910390fd5b61142461356c565b61143e61142f612a54565b82611f1890919063ffffffff16565b5f600567ffffffffffffffff81111561145a576114596136c7565b5b60405190808252806020026020018201604052801561148d57816020015b60608152602001906001900390816114785790505b509050825f01805461149e90613fa8565b80601f01602080910402602001604051908101604052809291908181526020018280546114ca90613fa8565b80156115155780601f106114ec57610100808354040283529160200191611515565b820191905f5260205f20905b8154815290600101906020018083116114f857829003601f168201915b5050505050815f8151811061152d5761152c614540565b5b60200260200101819052506115606001846001015f9054906101000a900460ff16611558919061485c565b60ff16611d92565b60405160200161157091906148da565b6040516020818303038152906040528160018151811061159357611592614540565b5b60200260200101819052506115aa8460ff16611d92565b816002815181106115be576115bd614540565b5b60200260200101819052506115d1612489565b816003815181106115e5576115e4614540565b5b60200260200101819052506115f86124e6565b8160048151811061160c5761160b614540565b5b602002602001018190525061162a818361252390919063ffffffff16565b5f6116826116378461256a565b7f0000000000000000000000000000000000000000000000000000000000000000620493e07f0000000000000000000000000000000000000000000000000000000000000000612975565b90503360045f8381526020019081526020015f205f6101000a81548173ffffffffffffffffffffffffffffffffffffffff021916908373ffffffffffffffffffffffffffffffffffffffff160217905550505050506116df611eeb565b50565b6116ea612a77565b6116f381612b07565b50565b5f60045f8581526020019081526020015f205f9054906101000a900473ffffffffffffffffffffffffffffffffffffffff1690505f73ffffffffffffffffffffffffffffffffffffffff168173ffffffffffffffffffffffffffffffffffffffff1603611798576040517f08c379a000000000000000000000000000000000000000000000000000000000815260040161178f90614945565b60405180910390fd5b5f60035f8373ffffffffffffffffffffffffffffffffffffffff1673ffffffffffffffffffffffffffffffffffffffff1681526020019081526020015f209050806004015f9054906101000a900460ff16611828576040517f08c379a000000000000000000000000000000000000000000000000000000000815260040161181f90614291565b60405180910390fd5b5f816001015f9054906101000a900460ff1660ff16036118fd575f5f61184d86612c32565b9150915081835f0190816118619190614178565b50600a60ff1681116118735780611879565b600a60ff165b8360040160016101000a81548160ff021916908360ff1602179055508373ffffffffffffffffffffffffffffffffffffffff167f24bb3705c7ad2a404fd0ed31143a60ac9c3acf33c50e13c6ffd8d47330c6d9f3838560040160019054906101000a900460ff166040516118ee929190614963565b60405180910390a25050611c33565b5f6040518060400160405280600181526020017f31000000000000000000000000000000000000000000000000000000000000008152505f8151811061194657611945614540565b5b602001015160f81c60f81b60f81c60ff16855f8151811061196a57611969614540565b5b602001015160f81c60f81b60f81c60ff16149050801561199e57816002015f81548092919061199890614991565b91905055505b8273ffffffffffffffffffffffffffffffffffffffff167fb768089c188a4564fccb0bb3cfc28eb0dd9aa31f098324d1a7d7e2ad929674bc82846001015f9054906101000a900460ff166040516119f69291906149d8565b60405180910390a2816001015f81819054906101000a900460ff1680929190611a1e906149ff565b91906101000a81548160ff021916908360ff160217905550508160040160019054906101000a900460ff1660ff16826001015f9054906101000a900460ff1660ff1610611c31575f826004015f6101000a81548160ff0219169083151502179055505f671bc16d674ec800008360020154611a999190614a27565b90505f811115611b40577f000000000000000000000000000000000000000000000000000000000000000073ffffffffffffffffffffffffffffffffffffffff1663a9059cbb85836040518363ffffffff1660e01b8152600401611afe929190614765565b6020604051808303815f875af1158015611b1a573d5f5f3e3d5ffd5b505050506040513d601f19601f82011682018060405250810190611b3e9190613eab565b505b8373ffffffffffffffffffffffffffffffffffffffff167f8e71bc2c0606decc62cb81ebffc09590f1445fccbc0149ca781a2a862cd77ad98460020154604051611b8a9190614a68565b60405180910390a260035f8573ffffffffffffffffffffffffffffffffffffffff1673ffffffffffffffffffffffffffffffffffffffff1681526020019081526020015f205f5f82015f611bde91906135db565b600182015f6101000a81549060ff0219169055600282015f9055600382015f9055600482015f6101000a81549060ff02191690556004820160016101000a81549060ff0219169055600582015f90555050505b505b60045f8681526020019081526020015f205f6101000a81549073ffffffffffffffffffffffffffffffffffffffff02191690555050505050565b6002805403611cb1576040517f08c379a0000000000000000000000000000000000000000000000000000000008152600401611ca890614acb565b60405180910390fd5b60028081905550565b5f5f5f90505b83839050811015611d86575f5f90505f5f90505b600580549050811015611d685760058181548110611cf557611cf4614540565b5b905f5260205f2001604051611d0a9190614b85565b6040518091039020868685818110611d2557611d24614540565b5b9050602002810190611d379190614ba7565b604051611d45929190614c2d565b604051809103902003611d5b5760019150611d68565b8080600101915050611cd4565b5080611d78575f92505050611d8c565b508080600101915050611cc0565b50600190505b92915050565b60605f8203611dd8576040518060400160405280600181526020017f30000000000000000000000000000000000000000000000000000000000000008152509050611ee6565b5f8290505f5b5f8214611e07578080611df090614991565b915050600a82611e009190614c45565b9150611dde565b5f8167ffffffffffffffff811115611e2257611e216136c7565b5b6040519080825280601f01601f191660200182016040528015611e545781602001600182028036833780820191505090505b5090505b5f8514611edf57600182611e6c9190614c75565b9150600a85611e7b919061459a565b6030611e8791906146ca565b60f81b818381518110611e9d57611e9c614540565b5b60200101907effffffffffffffffffffffffffffffffffffffffffffffffffffffffffffff191690815f1a905350600a85611ed89190614c45565b9450611e58565b8093505050505b919050565b6001600281905550565b60606040518061020001604052806101cd81526020016152646101cd9139905090565b611f24825f5f84612d1c565b5050565b60605f8260ff1667ffffffffffffffff811115611f4857611f476136c7565b5b604051908082528060200260200182016040528015611f7b57816020015b6060815260200190600190039081611f665790505b5090505f60058054905090505f5f90505b8460ff168160ff16101561208d575f82600883611fa99190614ca8565b60ff1688901c611fb9919061459a565b905060058181548110611fcf57611fce614540565b5b905f5260205f20018054611fe290613fa8565b80601f016020809104026020016040519081016040528092919081815260200182805461200e90613fa8565b80156120595780601f1061203057610100808354040283529160200191612059565b820191905f5260205f20905b81548152906001019060200180831161203c57829003601f168201915b5050505050848360ff168151811061207457612073614540565b5b6020026020010181905250508080600101915050611f8c565b50819250505092915050565b60605f6040518060400160405280600181526020017f5b0000000000000000000000000000000000000000000000000000000000000081525090505f5f90505b835181101561216557818482815181106120f6576120f5614540565b5b602002602001015160405160200161210f929190614d2e565b60405160208183030381529060405291506001845161212e9190614c75565b81101561215857816040516020016121469190614db1565b60405160208183030381529060405291505b80806001019150506120d9565b50806040516020016121779190614e1c565b604051602081830303815290604052915050919050565b60605f6040518060400160405280601081526020017f303132333435363738396162636465660000000000000000000000000000000081525090505f602a67ffffffffffffffff8111156121e5576121e46136c7565b5b6040519080825280601f01601f1916602001820160405280156122175781602001600182028036833780820191505090505b5090507f3000000000000000000000000000000000000000000000000000000000000000815f8151811061224e5761224d614540565b5b60200101907effffffffffffffffffffffffffffffffffffffffffffffffffffffffffffff191690815f1a9053507f7800000000000000000000000000000000000000000000000000000000000000816001815181106122b1576122b0614540565b5b60200101907effffffffffffffffffffffffffffffffffffffffffffffffffffffffffffff191690815f1a9053505f5f90505b601481101561247e5782600f6002836122fd9190614a27565b60276123099190614c75565b60106123159190614f6c565b8773ffffffffffffffffffffffffffffffffffffffff166123369190614c45565b1660ff168151811061234b5761234a614540565b5b602001015160f81c60f81b826002836123649190614a27565b600261237091906146ca565b8151811061238157612380614540565b5b60200101907effffffffffffffffffffffffffffffffffffffffffffffffffffffffffffff191690815f1a90535082600f6002836123bf9190614a27565b60266123cb9190614c75565b60106123d79190614f6c565b8773ffffffffffffffffffffffffffffffffffffffff166123f89190614c45565b1660ff168151811061240d5761240c614540565b5b602001015160f81c60f81b826002836124269190614a27565b600361243291906146ca565b8151811061244357612442614540565b5b60200101907effffffffffffffffffffffffffffffffffffffffffffffffffffffffffffff191690815f1a90535080806001019150506122e4565b508092505050919050565b60606040518060400160405280601581526020017f687474703a2f2f6c6f63616c686f73743a353030300000000000000000000000815250905090565b606060405180606001604052806028815260200161523c60289139905090565b60606040518060400160405280600c81526020017f307c313734393032353436350000000000000000000000000000000000000000815250905090565b5f81510361255d576040517ffe936cb700000000000000000000000000000000000000000000000000000000815260040160405180910390fd5b808260a001819052505050565b60605f612578610100612dc2565b90506125c26040518060400160405280600c81526020017f636f64654c6f636174696f6e000000000000000000000000000000000000000081525082612de790919063ffffffff16565b6125ea835f015160028111156125db576125da614fb6565b5b82612e0f90919063ffffffff16565b6126326040518060400160405280600881526020017f6c616e677561676500000000000000000000000000000000000000000000000081525082612de790919063ffffffff16565b61265a83604001515f81111561264b5761264a614fb6565b5b82612e0f90919063ffffffff16565b6126a26040518060400160405280600681526020017f736f75726365000000000000000000000000000000000000000000000000000081525082612de790919063ffffffff16565b6126b9836060015182612de790919063ffffffff16565b5f8360a001515111156127705761270e6040518060400160405280600481526020017f617267730000000000000000000000000000000000000000000000000000000081525082612de790919063ffffffff16565b61271781612e5e565b5f5f90505b8360a00151518110156127655761275a8460a00151828151811061274357612742614540565b5b602002602001015183612de790919063ffffffff16565b80600101905061271c565b5061276f81612e86565b5b5f83608001515111156128af575f60028111156127905761278f614fb6565b5b836020015160028111156127a7576127a6614fb6565b5b036127de576040517fa80d31f700000000000000000000000000000000000000000000000000000000815260040160405180910390fd5b6128266040518060400160405280600f81526020017f736563726574734c6f636174696f6e000000000000000000000000000000000081525082612de790919063ffffffff16565b61284f836020015160028111156128405761283f614fb6565b5b82612e0f90919063ffffffff16565b6128976040518060400160405280600781526020017f736563726574730000000000000000000000000000000000000000000000000081525082612de790919063ffffffff16565b6128ae836080015182612eae90919063ffffffff16565b5b5f8360c00151511115612966576129046040518060400160405280600981526020017f627974657341726773000000000000000000000000000000000000000000000081525082612de790919063ffffffff16565b61290d81612e5e565b5f5f90505b8360c001515181101561295b576129508460c00151828151811061293957612938614540565b5b602002602001015183612eae90919063ffffffff16565b806001019050612912565b5061296581612e86565b5b805f01515f0151915050919050565b5f5f7f000000000000000000000000000000000000000000000000000000000000000073ffffffffffffffffffffffffffffffffffffffff1663461d27628688600188886040518663ffffffff1660e01b81526004016129d99594939291906150a0565b6020604051808303815f875af11580156129f5573d5f5f3e3d5ffd5b505050506040513d601f19601f82011682018060405250810190612a19919061510c565b9050807f1131472297a800fee664d1d89cfa8f7676ff07189ecc53f80bbb5f4969099db860405160405180910390a280915050949350505050565b60606040518061020001604052806101c381526020016154316101c39139905090565b5f5f9054906101000a900473ffffffffffffffffffffffffffffffffffffffff1673ffffffffffffffffffffffffffffffffffffffff163373ffffffffffffffffffffffffffffffffffffffff1614612b05576040517f08c379a0000000000000000000000000000000000000000000000000000000008152600401612afc90615181565b60405180910390fd5b565b3373ffffffffffffffffffffffffffffffffffffffff168173ffffffffffffffffffffffffffffffffffffffff1603612b75576040517f08c379a0000000000000000000000000000000000000000000000000000000008152600401612b6c906151e9565b60405180910390fd5b8060015f6101000a81548173ffffffffffffffffffffffffffffffffffffffff021916908373ffffffffffffffffffffffffffffffffffffffff1602179055508073ffffffffffffffffffffffffffffffffffffffff165f5f9054906101000a900473ffffffffffffffffffffffffffffffffffffffff1673ffffffffffffffffffffffffffffffffffffffff167fed8889f560326eb138920d842192f0eb3dd22b4f139c87a2c57538e05bae127860405160405180910390a350565b60605f5f8390505f5f90505b815181108015612cad57507f7c00000000000000000000000000000000000000000000000000000000000000828281518110612c7d57612c7c614540565b5b602001015160f81c60f81b7effffffffffffffffffffffffffffffffffffffffffffffffffffffffffffff191614155b15612cc5578080612cbd90614991565b915050612c3e565b5f612cd1835f84612ed6565b90505f612d0b612d0685600186612ce891906146ca565b600187612cf591906146ca565b8851612d019190614c75565b612ed6565b612fb8565b905081819550955050505050915091565b5f815103612d56576040517f22ce3edd00000000000000000000000000000000000000000000000000000000815260040160405180910390fd5b82845f01906002811115612d6d57612d6c614fb6565b5b90816002811115612d8157612d80614fb6565b5b815250508184604001905f811115612d9c57612d9b614fb6565b5b90815f811115612daf57612dae614fb6565b5b8152505080846060018190525050505050565b612dca613618565b612dd7815f015183613126565b505f816020018181525050919050565b612df4826003835161319c565b612e0a81835f015161333c90919063ffffffff16565b505050565b612e3060026005600660ff16901b17835f015161335890919063ffffffff16565b50612e5a8282604051602001612e469190614317565b604051602081830303815290604052612eae565b5050565b612e698160046133bf565b600181602001818151612e7c91906146ca565b9150818152505050565b612e918160076133bf565b600181602001818151612ea49190614c75565b9150818152505050565b612ebb826002835161319c565b612ed181835f015161333c90919063ffffffff16565b505050565b60605f8267ffffffffffffffff811115612ef357612ef26136c7565b5b6040519080825280601f01601f191660200182016040528015612f255781602001600182028036833780820191505090505b5090505f5f90505b83811015612fac57858186612f4291906146ca565b81518110612f5357612f52614540565b5b602001015160f81c60f81b828281518110612f7157612f70614540565b5b60200101907effffffffffffffffffffffffffffffffffffffffffffffffffffffffffffff191690815f1a9053508080600101915050612f2d565b50809150509392505050565b5f5f8290505f5f90505f5f90505b825181101561311b577f300000000000000000000000000000000000000000000000000000000000000083828151811061300357613002614540565b5b602001015160f81c60f81b7effffffffffffffffffffffffffffffffffffffffffffffffffffffffffffff19161015801561309d57507f390000000000000000000000000000000000000000000000000000000000000083828151811061306d5761306c614540565b5b602001015160f81c60f81b7effffffffffffffffffffffffffffffffffffffffffffffffffffffffffffff191611155b1561310e577f300000000000000000000000000000000000000000000000000000000000000060f81c8382815181106130d9576130d8614540565b5b602001015160f81c60f81b60f81c6130f19190615207565b60ff16600a836131019190614a27565b61310b91906146ca565b91505b8080600101915050612fc6565b508092505050919050565b61312e613637565b5f60208361313c919061459a565b146131685760208261314e919061459a565b602061315a9190614c75565b8261316591906146ca565b91505b818360200181815250506040518084525f81528281016020018181101561318d575f5ffd5b80604052505082905092915050565b60178167ffffffffffffffff16116131d6576131d08160058460ff16901b60ff1617845f015161335890919063ffffffff16565b50613337565b60ff8167ffffffffffffffff161161323257613208601860058460ff16901b17845f015161335890919063ffffffff16565b5061322c8167ffffffffffffffff166001855f01516133e49092919063ffffffff16565b50613336565b61ffff8167ffffffffffffffff161161328f57613265601960058460ff16901b17845f015161335890919063ffffffff16565b506132898167ffffffffffffffff166002855f01516133e49092919063ffffffff16565b50613335565b63ffffffff8167ffffffffffffffff16116132ee576132c4601a60058460ff16901b17845f015161335890919063ffffffff16565b506132e88167ffffffffffffffff166004855f01516133e49092919063ffffffff16565b50613334565b61330e601b60058460ff16901b17845f015161335890919063ffffffff16565b506133328167ffffffffffffffff166008855f01516133e49092919063ffffffff16565b505b5b5b5b505050565b613344613637565b6133508383845161346d565b905092915050565b613360613637565b5f835f01515190505f60018261337691906146ca565b90508460200151821061339a57613399856002836133949190614a27565b61354a565b5b845160208382010185815381518311156133b2578282525b5050849250505092915050565b6133df601f60058360ff16901b17835f015161335890919063ffffffff16565b505050565b6133ec613637565b5f845f01515190505f818461340191906146ca565b9050856020015181111561342657613425866002836134209190614a27565b61354a565b5b5f6001856101006134379190614f6c565b6134419190614c75565b90508651828101878319825116178152815184111561345e578382525b50508693505050509392505050565b613475613637565b8251821115613482575f5ffd5b5f845f01515190505f838261349791906146ca565b905085602001518111156134bc576134bb866002836134b69190614a27565b61354a565b5b5f5f875180518560208301019350808511156134d6578482525b60208901925050505b6020861061351d57805182526020826134f891906146ca565b915060208161350791906146ca565b90506020866135169190614c75565b95506134df565b5f6001876020036101000a0390508019825116818451168181178552505050879450505050509392505050565b5f825f0151905061355b8383613126565b50613566838261333c565b50505050565b6040518060e001604052805f600281111561358a57613589614fb6565b5b81526020015f60028111156135a2576135a1614fb6565b5b81526020015f5f8111156135b9576135b8614fb6565b5b8152602001606081526020016060815260200160608152602001606081525090565b5080546135e790613fa8565b5f825580601f106135f85750613615565b601f0160209004905f5260205f20908101906136149190613650565b5b50565b604051806040016040528061362b613637565b81526020015f81525090565b6040518060400160405280606081526020015f81525090565b5b80821115613667575f815f905550600101613651565b5090565b5f604051905090565b5f5ffd5b5f5ffd5b5f819050919050565b61368e8161367c565b8114613698575f5ffd5b50565b5f813590506136a981613685565b92915050565b5f5ffd5b5f5ffd5b5f601f19601f8301169050919050565b7f4e487b71000000000000000000000000000000000000000000000000000000005f52604160045260245ffd5b6136fd826136b7565b810181811067ffffffffffffffff8211171561371c5761371b6136c7565b5b80604052505050565b5f61372e61366b565b905061373a82826136f4565b919050565b5f67ffffffffffffffff821115613759576137586136c7565b5b613762826136b7565b9050602081019050919050565b828183375f83830152505050565b5f61378f61378a8461373f565b613725565b9050828152602081018484840111156137ab576137aa6136b3565b5b6137b684828561376f565b509392505050565b5f82601f8301126137d2576137d16136af565b5b81356137e284826020860161377d565b91505092915050565b5f5f5f6060848603121561380257613801613674565b5b5f61380f8682870161369b565b935050602084013567ffffffffffffffff8111156138305761382f613678565b5b61383c868287016137be565b925050604084013567ffffffffffffffff81111561385d5761385c613678565b5b613869868287016137be565b9150509250925092565b5f5ffd5b5f5ffd5b5f5f83601f8401126138905761388f6136af565b5b8235905067ffffffffffffffff8111156138ad576138ac613873565b5b6020830191508360208202830111156138c9576138c8613877565b5b9250929050565b5f5f602083850312156138e6576138e5613674565b5b5f83013567ffffffffffffffff81111561390357613902613678565b5b61390f8582860161387b565b92509250509250929050565b5f602082840312156139305761392f613674565b5b5f61393d8482850161369b565b91505092915050565b5f73ffffffffffffffffffffffffffffffffffffffff82169050919050565b5f61396f82613946565b9050919050565b61397f81613965565b82525050565b5f6020820190506139985f830184613976565b92915050565b6139a781613965565b81146139b1575f5ffd5b50565b5f813590506139c28161399e565b92915050565b5f602082840312156139dd576139dc613674565b5b5f6139ea848285016139b4565b91505092915050565b5f81519050919050565b5f82825260208201905092915050565b8281835e5f83830152505050565b5f613a25826139f3565b613a2f81856139fd565b9350613a3f818560208601613a0d565b613a48816136b7565b840191505092915050565b5f60ff82169050919050565b613a6881613a53565b82525050565b5f819050919050565b613a8081613a6e565b82525050565b5f8115159050919050565b613a9a81613a86565b82525050565b5f60e0820190508181035f830152613ab8818a613a1b565b9050613ac76020830189613a5f565b613ad46040830188613a77565b613ae16060830187613a77565b613aee6080830186613a91565b613afb60a0830185613a5f565b613b0860c0830184613a77565b98975050505050505050565b613b1d81613a6e565b8114613b27575f5ffd5b50565b5f81359050613b3881613b14565b92915050565b5f60208284031215613b5357613b52613674565b5b5f613b6084828501613b2a565b91505092915050565b5f6020820190508181035f830152613b818184613a1b565b905092915050565b613b9281613a53565b8114613b9c575f5ffd5b50565b5f81359050613bad81613b89565b92915050565b5f60208284031215613bc857613bc7613674565b5b5f613bd584828501613b9f565b91505092915050565b7f53656c656374206174206c65617374203520646f6d61696e73000000000000005f82015250565b5f613c126019836139fd565b9150613c1d82613bde565b602082019050919050565b5f6020820190508181035f830152613c3f81613c06565b9050919050565b7f496e76616c696420646f6d61696e732070726f766964656400000000000000005f82015250565b5f613c7a6018836139fd565b9150613c8582613c46565b602082019050919050565b5f6020820190508181035f830152613ca781613c6e565b9050919050565b7f5175697a20616c726561647920696e2070726f677265737300000000000000005f82015250565b5f613ce26018836139fd565b9150613ced82613cae565b602082019050919050565b5f6020820190508181035f830152613d0f81613cd6565b9050919050565b5f81519050613d2481613b14565b92915050565b5f60208284031215613d3f57613d3e613674565b5b5f613d4c84828501613d16565b91505092915050565b7f496e73756666696369656e7420245155495a2062616c616e63650000000000005f82015250565b5f613d89601a836139fd565b9150613d9482613d55565b602082019050919050565b5f6020820190508181035f830152613db681613d7d565b9050919050565b5f604082019050613dd05f830185613976565b613ddd6020830184613976565b9392505050565b7f496e73756666696369656e7420245155495a20616c6c6f77616e6365000000005f82015250565b5f613e18601c836139fd565b9150613e2382613de4565b602082019050919050565b5f6020820190508181035f830152613e4581613e0c565b9050919050565b5f606082019050613e5f5f830186613976565b613e6c6020830185613976565b613e796040830184613a77565b949350505050565b613e8a81613a86565b8114613e94575f5ffd5b50565b5f81519050613ea581613e81565b92915050565b5f60208284031215613ec057613ebf613674565b5b5f613ecd84828501613e97565b91505092915050565b5f81905092915050565b7f74656d705f0000000000000000000000000000000000000000000000000000005f82015250565b5f613f14600583613ed6565b9150613f1f82613ee0565b600582019050919050565b5f613f34826139f3565b613f3e8185613ed6565b9350613f4e818560208601613a0d565b80840191505092915050565b5f613f6482613f08565b9150613f708284613f2a565b915081905092915050565b7f4e487b71000000000000000000000000000000000000000000000000000000005f52602260045260245ffd5b5f6002820490506001821680613fbf57607f821691505b602082108103613fd257613fd1613f7b565b5b50919050565b5f819050815f5260205f209050919050565b5f6020601f8301049050919050565b5f82821b905092915050565b5f600883026140347fffffffffffffffffffffffffffffffffffffffffffffffffffffffffffffffff82613ff9565b61403e8683613ff9565b95508019841693508086168417925050509392505050565b5f819050919050565b5f61407961407461406f84613a6e565b614056565b613a6e565b9050919050565b5f819050919050565b6140928361405f565b6140a661409e82614080565b848454614005565b825550505050565b5f5f905090565b6140bd6140ae565b6140c8818484614089565b505050565b5b818110156140eb576140e05f826140b5565b6001810190506140ce565b5050565b601f8211156141305761410181613fd8565b61410a84613fea565b81016020851015614119578190505b61412d61412585613fea565b8301826140cd565b50505b505050565b5f82821c905092915050565b5f6141505f1984600802614135565b1980831691505092915050565b5f6141688383614141565b9150826002028217905092915050565b614181826139f3565b67ffffffffffffffff81111561419a576141996136c7565b5b6141a48254613fa8565b6141af8282856140ef565b5f60209050601f8311600181146141e0575f84156141ce578287015190505b6141d8858261415d565b86555061423f565b601f1984166141ee86613fd8565b5f5b82811015614215578489015182556001820191506020850194506020810190506141f0565b86831015614232578489015161422e601f891682614141565b8355505b6001600288020188555050505b505050505050565b7f4e6f20616374697665207175697a0000000000000000000000000000000000005f82015250565b5f61427b600e836139fd565b915061428682614247565b602082019050919050565b5f6020820190508181035f8301526142a88161426f565b9050919050565b7f496e76616c6964205652462072657175657374204944000000000000000000005f82015250565b5f6142e36016836139fd565b91506142ee826142af565b602082019050919050565b5f6020820190508181035f830152614310816142d7565b9050919050565b5f60208201905061432a5f830184613a77565b92915050565b5f67ffffffffffffffff82111561434a576143496136c7565b5b602082029050602081019050919050565b5f61436d61436884614330565b613725565b905080838252602082019050602084028301858111156143905761438f613877565b5b835b818110156143b957806143a58882613d16565b845260208401935050602081019050614392565b5050509392505050565b5f82601f8301126143d7576143d66136af565b5b81516143e784826020860161435b565b91505092915050565b5f815190506143fe8161399e565b92915050565b5f5f5f6060848603121561441b5761441a613674565b5b5f61442886828701613e97565b935050602084015167ffffffffffffffff81111561444957614448613678565b5b614455868287016143c3565b9250506040614466868287016143f0565b9150509250925092565b7f5652462072657175657374206e6f742066756c66696c6c6564000000000000005f82015250565b5f6144a46019836139fd565b91506144af82614470565b602082019050919050565b5f6020820190508181035f8301526144d181614498565b9050919050565b7f496e76616c6964207265717565737465720000000000000000000000000000005f82015250565b5f61450c6011836139fd565b9150614517826144d8565b602082019050919050565b5f6020820190508181035f83015261453981614500565b9050919050565b7f4e487b71000000000000000000000000000000000000000000000000000000005f52603260045260245ffd5b7f4e487b71000000000000000000000000000000000000000000000000000000005f52601260045260245ffd5b5f6145a482613a6e565b91506145af83613a6e565b9250826145bf576145be61456d565b5b828206905092915050565b7f7175697a5f0000000000000000000000000000000000000000000000000000005f82015250565b5f6145fe600583613ed6565b9150614609826145ca565b600582019050919050565b5f61461e826145f2565b915061462a8284613f2a565b915081905092915050565b7f4d7573742062652070726f706f736564206f776e6572000000000000000000005f82015250565b5f6146696016836139fd565b915061467482614635565b602082019050919050565b5f6020820190508181035f8301526146968161465d565b9050919050565b7f4e487b71000000000000000000000000000000000000000000000000000000005f52601160045260245ffd5b5f6146d482613a6e565b91506146df83613a6e565b92508282019050808211156146f7576146f661469d565b5b92915050565b7f546f6f206561726c7920746f2063616e63656c000000000000000000000000005f82015250565b5f6147316013836139fd565b915061473c826146fd565b602082019050919050565b5f6020820190508181035f83015261475e81614725565b9050919050565b5f6040820190506147785f830185613976565b6147856020830184613a77565b9392505050565b7f5175697a2074696d6520657870697265640000000000000000000000000000005f82015250565b5f6147c06011836139fd565b91506147cb8261478c565b602082019050919050565b5f6020820190508181035f8301526147ed816147b4565b9050919050565b7f496e76616c696420616e7377657220696e6465780000000000000000000000005f82015250565b5f6148286014836139fd565b9150614833826147f4565b602082019050919050565b5f6020820190508181035f8301526148558161481c565b9050919050565b5f61486682613a53565b915061487183613a53565b9250828201905060ff81111561488a5761488961469d565b5b92915050565b7f71000000000000000000000000000000000000000000000000000000000000005f82015250565b5f6148c4600183613ed6565b91506148cf82614890565b600182019050919050565b5f6148e4826148b8565b91506148f08284613f2a565b915081905092915050565b7f496e76616c69642046756e6374696f6e732072657175657374204944000000005f82015250565b5f61492f601c836139fd565b915061493a826148fb565b602082019050919050565b5f6020820190508181035f83015261495c81614923565b9050919050565b5f6040820190508181035f83015261497b8185613a1b565b905061498a6020830184613a5f565b9392505050565b5f61499b82613a6e565b91507fffffffffffffffffffffffffffffffffffffffffffffffffffffffffffffffff82036149cd576149cc61469d565b5b600182019050919050565b5f6040820190506149eb5f830185613a91565b6149f86020830184613a5f565b9392505050565b5f614a0982613a53565b915060ff8203614a1c57614a1b61469d565b5b600182019050919050565b5f614a3182613a6e565b9150614a3c83613a6e565b9250828202614a4a81613a6e565b91508282048414831517614a6157614a6061469d565b5b5092915050565b5f602082019050614a7b5f830184613a5f565b92915050565b7f5265656e7472616e637947756172643a207265656e7472616e742063616c6c005f82015250565b5f614ab5601f836139fd565b9150614ac082614a81565b602082019050919050565b5f6020820190508181035f830152614ae281614aa9565b9050919050565b5f81905092915050565b5f819050815f5260205f209050919050565b5f8154614b1181613fa8565b614b1b8186614ae9565b9450600182165f8114614b355760018114614b4a57614b7c565b60ff1983168652811515820286019350614b7c565b614b5385614af3565b5f5b83811015614b7457815481890152600182019150602081019050614b55565b838801955050505b50505092915050565b5f614b908284614b05565b915081905092915050565b5f5ffd5b5f5ffd5b5f5ffd5b5f5f83356001602003843603038112614bc357614bc2614b9b565b5b80840192508235915067ffffffffffffffff821115614be557614be4614b9f565b5b602083019250600182023603831315614c0157614c00614ba3565b5b509250929050565b5f614c148385614ae9565b9350614c2183858461376f565b82840190509392505050565b5f614c39828486614c09565b91508190509392505050565b5f614c4f82613a6e565b9150614c5a83613a6e565b925082614c6a57614c6961456d565b5b828204905092915050565b5f614c7f82613a6e565b9150614c8a83613a6e565b9250828203905081811115614ca257614ca161469d565b5b92915050565b5f614cb282613a53565b9150614cbd83613a53565b9250828202614ccb81613a53565b9150808214614cdd57614cdc61469d565b5b5092915050565b7f22000000000000000000000000000000000000000000000000000000000000005f82015250565b5f614d18600183613ed6565b9150614d2382614ce4565b600182019050919050565b5f614d398285613f2a565b9150614d4482614d0c565b9150614d508284613f2a565b9150614d5b82614d0c565b91508190509392505050565b7f2c000000000000000000000000000000000000000000000000000000000000005f82015250565b5f614d9b600183613ed6565b9150614da682614d67565b600182019050919050565b5f614dbc8284613f2a565b9150614dc782614d8f565b915081905092915050565b7f5d000000000000000000000000000000000000000000000000000000000000005f82015250565b5f614e06600183613ed6565b9150614e1182614dd2565b600182019050919050565b5f614e278284613f2a565b9150614e3282614dfa565b915081905092915050565b5f8160011c9050919050565b5f5f8291508390505b6001851115614e9257808604811115614e6e57614e6d61469d565b5b6001851615614e7d5780820291505b8081029050614e8b85614e3d565b9450614e52565b94509492505050565b5f82614eaa5760019050614f65565b81614eb7575f9050614f65565b8160018114614ecd5760028114614ed757614f06565b6001915050614f65565b60ff841115614ee957614ee861469d565b5b8360020a915084821115614f0057614eff61469d565b5b50614f65565b5060208310610133831016604e8410600b8410161715614f3b5782820a905083811115614f3657614f3561469d565b5b614f65565b614f488484846001614e49565b92509050818404811115614f5f57614f5e61469d565b5b81810290505b9392505050565b5f614f7682613a6e565b9150614f8183613a6e565b9250614fae7fffffffffffffffffffffffffffffffffffffffffffffffffffffffffffffffff8484614e9b565b905092915050565b7f4e487b71000000000000000000000000000000000000000000000000000000005f52602160045260245ffd5b5f67ffffffffffffffff82169050919050565b614fff81614fe3565b82525050565b5f81519050919050565b5f82825260208201905092915050565b5f61502982615005565b615033818561500f565b9350615043818560208601613a0d565b61504c816136b7565b840191505092915050565b5f61ffff82169050919050565b61506d81615057565b82525050565b5f63ffffffff82169050919050565b61508b81615073565b82525050565b61509a8161367c565b82525050565b5f60a0820190506150b35f830188614ff6565b81810360208301526150c5818761501f565b90506150d46040830186615064565b6150e16060830185615082565b6150ee6080830184615091565b9695505050505050565b5f8151905061510681613685565b92915050565b5f6020828403121561512157615120613674565b5b5f61512e848285016150f8565b91505092915050565b7f4f6e6c792063616c6c61626c65206279206f776e6572000000000000000000005f82015250565b5f61516b6016836139fd565b915061517682615137565b602082019050919050565b5f6020820190508181035f8301526151988161515f565b9050919050565b7f43616e6e6f74207472616e7366657220746f2073656c660000000000000000005f82015250565b5f6151d36017836139fd565b91506151de8261519f565b602082019050919050565b5f6020820190508181035f830152615200816151c7565b9050919050565b5f61521182613a53565b915061521c83613a53565b9250828203905060ff8111156152355761523461469d565b5b9291505056fe68747470733a2f2f6377697a72707276797a6e656c7467687a6e6e612e73757061626173652e636f636f6e737420656c697a6142617365203d20617267735b325d3b636f6e73742075726c203d2060247b656c697a61426173657d2f67656e65726174655175697a603b20636f6e7374207061796c6f6164203d204a534f4e2e737472696e67696679287b20646f6d61696e733a204a534f4e2e706172736528617267735b305d292c20706c61796572416464726573733a20617267735b315d207d293b20636f6e737420726573203d2061776169742046756e6374696f6e732e6d616b654874747052657175657374287b2075726c2c206d6574686f643a2027504f5354272c20686561646572733a207b2027436f6e74656e742d54797065273a20276170706c69636174696f6e2f6a736f6e27207d2c20646174613a207061796c6f6164207d293b20696620287265732e6572726f7229207468726f77206e6577204572726f72287265732e6572726f722e6d657373616765293b20636f6e7374207175697a4964203d207265732e646174612e7175697a49643b20636f6e7374206e756d51203d207265732e646174612e6e756d5175657374696f6e733b2072657475726e2046756e6374696f6e732e656e636f6465537472696e672860247b7175697a49647d7c247b6e756d517d60293b636f6e737420656c697a6142617365203d20617267735b335d3b636f6e73742075726c203d2060247b656c697a61426173657d2f766572696679416e73776572603b20636f6e7374207061796c6f6164203d204a534f4e2e737472696e67696679287b207175697a49643a20617267735b305d2c207175657374696f6e49643a20617267735b315d2c2073656c6563746564496e6465783a207061727365496e7428617267735b325d2c20313029207d293b20636f6e737420726573203d2061776169742046756e6374696f6e732e6d616b654874747052657175657374287b2075726c2c206d6574686f643a2027504f5354272c20686561646572733a207b2027436f6e74656e742d54797065273a20276170706c69636174696f6e2f6a736f6e27207d2c20646174613a207061796c6f6164207d293b20696620287265732e6572726f7229207468726f77206e6577204572726f72287265732e6572726f722e6d657373616765293b20636f6e737420636f7272656374203d207265732e646174612e6973436f7272656374203f20273127203a202730273b2072657475726e2046756e6374696f6e732e656e636f6465537472696e6728636f7272656374293ba2646970667358221220bd8cad2c40a8c6b8a22c29396048700e0d63c32a27a6a242a742a62082032ab964736f6c634300081e0033",
			"opcodes": "PUSH2 0x140 PUSH1 0x40 MSTORE PUSH20 0xF9B8FC078197181C841C296C876945AAA425B278 PUSH20 0xFFFFFFFFFFFFFFFFFFFFFFFFFFFFFFFFFFFFFFFF AND PUSH1 0xA0 SWAP1 PUSH20 0xFFFFFFFFFFFFFFFFFFFFFFFFFFFFFFFFFFFFFFFF AND DUP2 MSTORE POP PUSH32 0x66756E2D626173652D7365706F6C69612D310000000000000000000000000000 PUSH1 0xC0 SWAP1 DUP2 MSTORE POP CALLVALUE DUP1 ISZERO PUSH2 0x7E JUMPI PUSH0 PUSH0 REVERT JUMPDEST POP PUSH1 0x40 MLOAD PUSH2 0x658F CODESIZE SUB DUP1 PUSH2 0x658F DUP4 CODECOPY DUP2 DUP2 ADD PUSH1 0x40 MSTORE DUP2 ADD SWAP1 PUSH2 0xA0 SWAP2 SWAP1 PUSH2 0x9DE JUMP JUMPDEST CALLER DUP1 PUSH0 PUSH1 0xA0 MLOAD DUP1 PUSH20 0xFFFFFFFFFFFFFFFFFFFFFFFFFFFFFFFFFFFFFFFF AND PUSH1 0x80 DUP2 PUSH20 0xFFFFFFFFFFFFFFFFFFFFFFFFFFFFFFFFFFFFFFFF AND DUP2 MSTORE POP POP POP PUSH0 PUSH20 0xFFFFFFFFFFFFFFFFFFFFFFFFFFFFFFFFFFFFFFFF AND DUP3 PUSH20 0xFFFFFFFFFFFFFFFFFFFFFFFFFFFFFFFFFFFFFFFF AND SUB PUSH2 0x149 JUMPI PUSH1 0x40 MLOAD PUSH32 0x8C379A000000000000000000000000000000000000000000000000000000000 DUP2 MSTORE PUSH1 0x4 ADD PUSH2 0x140 SWAP1 PUSH2 0xA88 JUMP JUMPDEST PUSH1 0x40 MLOAD DUP1 SWAP2 SUB SWAP1 REVERT JUMPDEST DUP2 PUSH0 PUSH0 PUSH2 0x100 EXP DUP2 SLOAD DUP2 PUSH20 0xFFFFFFFFFFFFFFFFFFFFFFFFFFFFFFFFFFFFFFFF MUL NOT AND SWAP1 DUP4 PUSH20 0xFFFFFFFFFFFFFFFFFFFFFFFFFFFFFFFFFFFFFFFF AND MUL OR SWAP1 SSTORE POP PUSH0 PUSH20 0xFFFFFFFFFFFFFFFFFFFFFFFFFFFFFFFFFFFFFFFF AND DUP2 PUSH20 0xFFFFFFFFFFFFFFFFFFFFFFFFFFFFFFFFFFFFFFFF AND EQ PUSH2 0x1CB JUMPI PUSH2 0x1CA DUP2 PUSH2 0x746 PUSH1 0x20 SHL PUSH1 0x20 SHR JUMP JUMPDEST JUMPDEST POP POP POP PUSH1 0x1 PUSH1 0x2 DUP2 SWAP1 SSTORE POP PUSH0 PUSH20 0xFFFFFFFFFFFFFFFFFFFFFFFFFFFFFFFFFFFFFFFF AND DUP4 PUSH20 0xFFFFFFFFFFFFFFFFFFFFFFFFFFFFFFFFFFFFFFFF AND SUB PUSH2 0x244 JUMPI PUSH1 0x40 MLOAD PUSH32 0x8C379A000000000000000000000000000000000000000000000000000000000 DUP2 MSTORE PUSH1 0x4 ADD PUSH2 0x23B SWAP1 PUSH2 0xAF0 JUMP JUMPDEST PUSH1 0x40 MLOAD DUP1 SWAP2 SUB SWAP1 REVERT JUMPDEST PUSH0 PUSH20 0xFFFFFFFFFFFFFFFFFFFFFFFFFFFFFFFFFFFFFFFF AND DUP3 PUSH20 0xFFFFFFFFFFFFFFFFFFFFFFFFFFFFFFFFFFFFFFFF AND SUB PUSH2 0x2B2 JUMPI PUSH1 0x40 MLOAD PUSH32 0x8C379A000000000000000000000000000000000000000000000000000000000 DUP2 MSTORE PUSH1 0x4 ADD PUSH2 0x2A9 SWAP1 PUSH2 0xB58 JUMP JUMPDEST PUSH1 0x40 MLOAD DUP1 SWAP2 SUB SWAP1 REVERT JUMPDEST DUP3 PUSH20 0xFFFFFFFFFFFFFFFFFFFFFFFFFFFFFFFFFFFFFFFF AND PUSH1 0xE0 DUP2 PUSH20 0xFFFFFFFFFFFFFFFFFFFFFFFFFFFFFFFFFFFFFFFF AND DUP2 MSTORE POP POP DUP2 PUSH20 0xFFFFFFFFFFFFFFFFFFFFFFFFFFFFFFFFFFFFFFFF AND PUSH2 0x100 DUP2 PUSH20 0xFFFFFFFFFFFFFFFFFFFFFFFFFFFFFFFFFFFFFFFF AND DUP2 MSTORE POP POP DUP1 PUSH8 0xFFFFFFFFFFFFFFFF AND PUSH2 0x120 DUP2 PUSH8 0xFFFFFFFFFFFFFFFF AND DUP2 MSTORE POP POP PUSH1 0x40 MLOAD DUP1 PUSH2 0x220 ADD PUSH1 0x40 MSTORE DUP1 PUSH1 0x40 MLOAD DUP1 PUSH1 0x40 ADD PUSH1 0x40 MSTORE DUP1 PUSH1 0x4 DUP2 MSTORE PUSH1 0x20 ADD PUSH32 0x4465466900000000000000000000000000000000000000000000000000000000 DUP2 MSTORE POP DUP2 MSTORE PUSH1 0x20 ADD PUSH1 0x40 MLOAD DUP1 PUSH1 0x40 ADD PUSH1 0x40 MSTORE DUP1 PUSH1 0x7 DUP2 MSTORE PUSH1 0x20 ADD PUSH32 0x4F7261636C657300000000000000000000000000000000000000000000000000 DUP2 MSTORE POP DUP2 MSTORE PUSH1 0x20 ADD PUSH1 0x40 MLOAD DUP1 PUSH1 0x40 ADD PUSH1 0x40 MSTORE DUP1 PUSH1 0x6 DUP2 MSTORE PUSH1 0x20 ADD PUSH32 0x4C61796572320000000000000000000000000000000000000000000000000000 DUP2 MSTORE POP DUP2 MSTORE PUSH1 0x20 ADD PUSH1 0x40 MLOAD DUP1 PUSH1 0x40 ADD PUSH1 0x40 MSTORE DUP1 PUSH1 0xA DUP2 MSTORE PUSH1 0x20 ADD PUSH32 0x546F6B656E6F6D69637300000000000000000000000000000000000000000000 DUP2 MSTORE POP DUP2 MSTORE PUSH1 0x20 ADD PUSH1 0x40 MLOAD DUP1 PUSH1 0x40 ADD PUSH1 0x40 MSTORE DUP1 PUSH1 0xD DUP2 MSTORE PUSH1 0x20 ADD PUSH32 0x5A65726F4B6E6F776C6564676500000000000000000000000000000000000000 DUP2 MSTORE POP DUP2 MSTORE PUSH1 0x20 ADD PUSH1 0x40 MLOAD DUP1 PUSH1 0x40 ADD PUSH1 0x40 MSTORE DUP1 PUSH1 0x3 DUP2 MSTORE PUSH1 0x20 ADD PUSH32 0x4E46540000000000000000000000000000000000000000000000000000000000 DUP2 MSTORE POP DUP2 MSTORE PUSH1 0x20 ADD PUSH1 0x40 MLOAD DUP1 PUSH1 0x40 ADD PUSH1 0x40 MSTORE DUP1 PUSH1 0xA DUP2 MSTORE PUSH1 0x20 ADD PUSH32 0x43726F7373436861696E00000000000000000000000000000000000000000000 DUP2 MSTORE POP DUP2 MSTORE PUSH1 0x20 ADD PUSH1 0x40 MLOAD DUP1 PUSH1 0x40 ADD PUSH1 0x40 MSTORE DUP1 PUSH1 0xA DUP2 MSTORE PUSH1 0x20 ADD PUSH32 0x476F7665726E616E636500000000000000000000000000000000000000000000 DUP2 MSTORE POP DUP2 MSTORE PUSH1 0x20 ADD PUSH1 0x40 MLOAD DUP1 PUSH1 0x40 ADD PUSH1 0x40 MSTORE DUP1 PUSH1 0x4 DUP2 MSTORE PUSH1 0x20 ADD PUSH32 0x44414F7300000000000000000000000000000000000000000000000000000000 DUP2 MSTORE POP DUP2 MSTORE PUSH1 0x20 ADD PUSH1 0x40 MLOAD DUP1 PUSH1 0x40 ADD PUSH1 0x40 MSTORE DUP1 PUSH1 0xE DUP2 MSTORE PUSH1 0x20 ADD PUSH32 0x536D617274436F6E747261637473000000000000000000000000000000000000 DUP2 MSTORE POP DUP2 MSTORE PUSH1 0x20 ADD PUSH1 0x40 MLOAD DUP1 PUSH1 0x40 ADD PUSH1 0x40 MSTORE DUP1 PUSH1 0xE DUP2 MSTORE PUSH1 0x20 ADD PUSH32 0x57616C6C65745365637572697479000000000000000000000000000000000000 DUP2 MSTORE POP DUP2 MSTORE PUSH1 0x20 ADD PUSH1 0x40 MLOAD DUP1 PUSH1 0x40 ADD PUSH1 0x40 MSTORE DUP1 PUSH1 0xB DUP2 MSTORE PUSH1 0x20 ADD PUSH32 0x537461626C65636F696E73000000000000000000000000000000000000000000 DUP2 MSTORE POP DUP2 MSTORE PUSH1 0x20 ADD PUSH1 0x40 MLOAD DUP1 PUSH1 0x40 ADD PUSH1 0x40 MSTORE DUP1 PUSH1 0x9 DUP2 MSTORE PUSH1 0x20 ADD PUSH32 0x436861696E6C696E6B0000000000000000000000000000000000000000000000 DUP2 MSTORE POP DUP2 MSTORE PUSH1 0x20 ADD PUSH1 0x40 MLOAD DUP1 PUSH1 0x40 ADD PUSH1 0x40 MSTORE DUP1 PUSH1 0x4 DUP2 MSTORE PUSH1 0x20 ADD PUSH32 0x4343495000000000000000000000000000000000000000000000000000000000 DUP2 MSTORE POP DUP2 MSTORE PUSH1 0x20 ADD PUSH1 0x40 MLOAD DUP1 PUSH1 0x40 ADD PUSH1 0x40 MSTORE DUP1 PUSH1 0x3 DUP2 MSTORE PUSH1 0x20 ADD PUSH32 0x5652460000000000000000000000000000000000000000000000000000000000 DUP2 MSTORE POP DUP2 MSTORE PUSH1 0x20 ADD PUSH1 0x40 MLOAD DUP1 PUSH1 0x40 ADD PUSH1 0x40 MSTORE DUP1 PUSH1 0xA DUP2 MSTORE PUSH1 0x20 ADD PUSH32 0x4175746F6D6174696F6E00000000000000000000000000000000000000000000 DUP2 MSTORE POP DUP2 MSTORE PUSH1 0x20 ADD PUSH1 0x40 MLOAD DUP1 PUSH1 0x40 ADD PUSH1 0x40 MSTORE DUP1 PUSH1 0x9 DUP2 MSTORE PUSH1 0x20 ADD PUSH32 0x4461746146656564730000000000000000000000000000000000000000000000 DUP2 MSTORE POP DUP2 MSTORE POP PUSH1 0x5 SWAP1 PUSH1 0x11 PUSH2 0x73D SWAP3 SWAP2 SWAP1 PUSH2 0x871 JUMP JUMPDEST POP POP POP POP PUSH2 0xEEA JUMP JUMPDEST CALLER PUSH20 0xFFFFFFFFFFFFFFFFFFFFFFFFFFFFFFFFFFFFFFFF AND DUP2 PUSH20 0xFFFFFFFFFFFFFFFFFFFFFFFFFFFFFFFFFFFFFFFF AND SUB PUSH2 0x7B4 JUMPI PUSH1 0x40 MLOAD PUSH32 0x8C379A000000000000000000000000000000000000000000000000000000000 DUP2 MSTORE PUSH1 0x4 ADD PUSH2 0x7AB SWAP1 PUSH2 0xBC0 JUMP JUMPDEST PUSH1 0x40 MLOAD DUP1 SWAP2 SUB SWAP1 REVERT JUMPDEST DUP1 PUSH1 0x1 PUSH0 PUSH2 0x100 EXP DUP2 SLOAD DUP2 PUSH20 0xFFFFFFFFFFFFFFFFFFFFFFFFFFFFFFFFFFFFFFFF MUL NOT AND SWAP1 DUP4 PUSH20 0xFFFFFFFFFFFFFFFFFFFFFFFFFFFFFFFFFFFFFFFF AND MUL OR SWAP1 SSTORE POP DUP1 PUSH20 0xFFFFFFFFFFFFFFFFFFFFFFFFFFFFFFFFFFFFFFFF AND PUSH0 PUSH0 SWAP1 SLOAD SWAP1 PUSH2 0x100 EXP SWAP1 DIV PUSH20 0xFFFFFFFFFFFFFFFFFFFFFFFFFFFFFFFFFFFFFFFF AND PUSH20 0xFFFFFFFFFFFFFFFFFFFFFFFFFFFFFFFFFFFFFFFF AND PUSH32 0xED8889F560326EB138920D842192F0EB3DD22B4F139C87A2C57538E05BAE1278 PUSH1 0x40 MLOAD PUSH1 0x40 MLOAD DUP1 SWAP2 SUB SWAP1 LOG3 POP JUMP JUMPDEST DUP3 DUP1 SLOAD DUP3 DUP3 SSTORE SWAP1 PUSH0 MSTORE PUSH1 0x20 PUSH0 KECCAK256 SWAP1 DUP2 ADD SWAP3 DUP3 ISZERO PUSH2 0x8B7 JUMPI SWAP2 PUSH1 0x20 MUL DUP3 ADD JUMPDEST DUP3 DUP2 GT ISZERO PUSH2 0x8B6 JUMPI DUP3 MLOAD DUP3 SWAP1 DUP2 PUSH2 0x8A6 SWAP2 SWAP1 PUSH2 0xE1B JUMP JUMPDEST POP SWAP2 PUSH1 0x20 ADD SWAP2 SWAP1 PUSH1 0x1 ADD SWAP1 PUSH2 0x88F JUMP JUMPDEST JUMPDEST POP SWAP1 POP PUSH2 0x8C4 SWAP2 SWAP1 PUSH2 0x8C8 JUMP JUMPDEST POP SWAP1 JUMP JUMPDEST JUMPDEST DUP1 DUP3 GT ISZERO PUSH2 0x8E7 JUMPI PUSH0 DUP2 DUP2 PUSH2 0x8DE SWAP2 SWAP1 PUSH2 0x8EB JUMP JUMPDEST POP PUSH1 0x1 ADD PUSH2 0x8C9 JUMP JUMPDEST POP SWAP1 JUMP JUMPDEST POP DUP1 SLOAD PUSH2 0x8F7 SWAP1 PUSH2 0xC42 JUMP JUMPDEST PUSH0 DUP3 SSTORE DUP1 PUSH1 0x1F LT PUSH2 0x908 JUMPI POP PUSH2 0x925 JUMP JUMPDEST PUSH1 0x1F ADD PUSH1 0x20 SWAP1 DIV SWAP1 PUSH0 MSTORE PUSH1 0x20 PUSH0 KECCAK256 SWAP1 DUP2 ADD SWAP1 PUSH2 0x924 SWAP2 SWAP1 PUSH2 0x928 JUMP JUMPDEST JUMPDEST POP JUMP JUMPDEST JUMPDEST DUP1 DUP3 GT ISZERO PUSH2 0x93F JUMPI PUSH0 DUP2 PUSH0 SWAP1 SSTORE POP PUSH1 0x1 ADD PUSH2 0x929 JUMP JUMPDEST POP SWAP1 JUMP JUMPDEST PUSH0 PUSH0 REVERT JUMPDEST PUSH0 PUSH20 0xFFFFFFFFFFFFFFFFFFFFFFFFFFFFFFFFFFFFFFFF DUP3 AND SWAP1 POP SWAP2 SWAP1 POP JUMP JUMPDEST PUSH0 PUSH2 0x970 DUP3 PUSH2 0x947 JUMP JUMPDEST SWAP1 POP SWAP2 SWAP1 POP JUMP JUMPDEST PUSH2 0x980 DUP2 PUSH2 0x966 JUMP JUMPDEST DUP2 EQ PUSH2 0x98A JUMPI PUSH0 PUSH0 REVERT JUMPDEST POP JUMP JUMPDEST PUSH0 DUP2 MLOAD SWAP1 POP PUSH2 0x99B DUP2 PUSH2 0x977 JUMP JUMPDEST SWAP3 SWAP2 POP POP JUMP JUMPDEST PUSH0 PUSH8 0xFFFFFFFFFFFFFFFF DUP3 AND SWAP1 POP SWAP2 SWAP1 POP JUMP JUMPDEST PUSH2 0x9BD DUP2 PUSH2 0x9A1 JUMP JUMPDEST DUP2 EQ PUSH2 0x9C7 JUMPI PUSH0 PUSH0 REVERT JUMPDEST POP JUMP JUMPDEST PUSH0 DUP2 MLOAD SWAP1 POP PUSH2 0x9D8 DUP2 PUSH2 0x9B4 JUMP JUMPDEST SWAP3 SWAP2 POP POP JUMP JUMPDEST PUSH0 PUSH0 PUSH0 PUSH1 0x60 DUP5 DUP7 SUB SLT ISZERO PUSH2 0x9F5 JUMPI PUSH2 0x9F4 PUSH2 0x943 JUMP JUMPDEST JUMPDEST PUSH0 PUSH2 0xA02 DUP7 DUP3 DUP8 ADD PUSH2 0x98D JUMP JUMPDEST SWAP4 POP POP PUSH1 0x20 PUSH2 0xA13 DUP7 DUP3 DUP8 ADD PUSH2 0x98D JUMP JUMPDEST SWAP3 POP POP PUSH1 0x40 PUSH2 0xA24 DUP7 DUP3 DUP8 ADD PUSH2 0x9CA JUMP JUMPDEST SWAP2 POP POP SWAP3 POP SWAP3 POP SWAP3 JUMP JUMPDEST PUSH0 DUP3 DUP3 MSTORE PUSH1 0x20 DUP3 ADD SWAP1 POP SWAP3 SWAP2 POP POP JUMP JUMPDEST PUSH32 0x43616E6E6F7420736574206F776E657220746F207A65726F0000000000000000 PUSH0 DUP3 ADD MSTORE POP JUMP JUMPDEST PUSH0 PUSH2 0xA72 PUSH1 0x18 DUP4 PUSH2 0xA2E JUMP JUMPDEST SWAP2 POP PUSH2 0xA7D DUP3 PUSH2 0xA3E JUMP JUMPDEST PUSH1 0x20 DUP3 ADD SWAP1 POP SWAP2 SWAP1 POP JUMP JUMPDEST PUSH0 PUSH1 0x20 DUP3 ADD SWAP1 POP DUP2 DUP2 SUB PUSH0 DUP4 ADD MSTORE PUSH2 0xA9F DUP2 PUSH2 0xA66 JUMP JUMPDEST SWAP1 POP SWAP2 SWAP1 POP JUMP JUMPDEST PUSH32 0x496E76616C696420746F6B656E20616464726573730000000000000000000000 PUSH0 DUP3 ADD MSTORE POP JUMP JUMPDEST PUSH0 PUSH2 0xADA PUSH1 0x15 DUP4 PUSH2 0xA2E JUMP JUMPDEST SWAP2 POP PUSH2 0xAE5 DUP3 PUSH2 0xAA6 JUMP JUMPDEST PUSH1 0x20 DUP3 ADD SWAP1 POP SWAP2 SWAP1 POP JUMP JUMPDEST PUSH0 PUSH1 0x20 DUP3 ADD SWAP1 POP DUP2 DUP2 SUB PUSH0 DUP4 ADD MSTORE PUSH2 0xB07 DUP2 PUSH2 0xACE JUMP JUMPDEST SWAP1 POP SWAP2 SWAP1 POP JUMP JUMPDEST PUSH32 0x496E76616C69642056524620636F6E73756D6572206164647265737300000000 PUSH0 DUP3 ADD MSTORE POP JUMP JUMPDEST PUSH0 PUSH2 0xB42 PUSH1 0x1C DUP4 PUSH2 0xA2E JUMP JUMPDEST SWAP2 POP PUSH2 0xB4D DUP3 PUSH2 0xB0E JUMP JUMPDEST PUSH1 0x20 DUP3 ADD SWAP1 POP SWAP2 SWAP1 POP JUMP JUMPDEST PUSH0 PUSH1 0x20 DUP3 ADD SWAP1 POP DUP2 DUP2 SUB PUSH0 DUP4 ADD MSTORE PUSH2 0xB6F DUP2 PUSH2 0xB36 JUMP JUMPDEST SWAP1 POP SWAP2 SWAP1 POP JUMP JUMPDEST PUSH32 0x43616E6E6F74207472616E7366657220746F2073656C66000000000000000000 PUSH0 DUP3 ADD MSTORE POP JUMP JUMPDEST PUSH0 PUSH2 0xBAA PUSH1 0x17 DUP4 PUSH2 0xA2E JUMP JUMPDEST SWAP2 POP PUSH2 0xBB5 DUP3 PUSH2 0xB76 JUMP JUMPDEST PUSH1 0x20 DUP3 ADD SWAP1 POP SWAP2 SWAP1 POP JUMP JUMPDEST PUSH0 PUSH1 0x20 DUP3 ADD SWAP1 POP DUP2 DUP2 SUB PUSH0 DUP4 ADD MSTORE PUSH2 0xBD7 DUP2 PUSH2 0xB9E JUMP JUMPDEST SWAP1 POP SWAP2 SWAP1 POP JUMP JUMPDEST PUSH0 DUP2 MLOAD SWAP1 POP SWAP2 SWAP1 POP JUMP JUMPDEST PUSH32 0x4E487B7100000000000000000000000000000000000000000000000000000000 PUSH0 MSTORE PUSH1 0x41 PUSH1 0x4 MSTORE PUSH1 0x24 PUSH0 REVERT JUMPDEST PUSH32 0x4E487B7100000000000000000000000000000000000000000000000000000000 PUSH0 MSTORE PUSH1 0x22 PUSH1 0x4 MSTORE PUSH1 0x24 PUSH0 REVERT JUMPDEST PUSH0 PUSH1 0x2 DUP3 DIV SWAP1 POP PUSH1 0x1 DUP3 AND DUP1 PUSH2 0xC59 JUMPI PUSH1 0x7F DUP3 AND SWAP2 POP JUMPDEST PUSH1 0x20 DUP3 LT DUP2 SUB PUSH2 0xC6C JUMPI PUSH2 0xC6B PUSH2 0xC15 JUMP JUMPDEST JUMPDEST POP SWAP2 SWAP1 POP JUMP JUMPDEST PUSH0 DUP2 SWAP1 POP DUP2 PUSH0 MSTORE PUSH1 0x20 PUSH0 KECCAK256 SWAP1 POP SWAP2 SWAP1 POP JUMP JUMPDEST PUSH0 PUSH1 0x20 PUSH1 0x1F DUP4 ADD DIV SWAP1 POP SWAP2 SWAP1 POP JUMP JUMPDEST PUSH0 DUP3 DUP3 SHL SWAP1 POP SWAP3 SWAP2 POP POP JUMP JUMPDEST PUSH0 PUSH1 0x8 DUP4 MUL PUSH2 0xCCE PUSH32 0xFFFFFFFFFFFFFFFFFFFFFFFFFFFFFFFFFFFFFFFFFFFFFFFFFFFFFFFFFFFFFFFF DUP3 PUSH2 0xC93 JUMP JUMPDEST PUSH2 0xCD8 DUP7 DUP4 PUSH2 0xC93 JUMP JUMPDEST SWAP6 POP DUP1 NOT DUP5 AND SWAP4 POP DUP1 DUP7 AND DUP5 OR SWAP3 POP POP POP SWAP4 SWAP3 POP POP POP JUMP JUMPDEST PUSH0 DUP2 SWAP1 POP SWAP2 SWAP1 POP JUMP JUMPDEST PUSH0 DUP2 SWAP1 POP SWAP2 SWAP1 POP JUMP JUMPDEST PUSH0 PUSH2 0xD1C PUSH2 0xD17 PUSH2 0xD12 DUP5 PUSH2 0xCF0 JUMP JUMPDEST PUSH2 0xCF9 JUMP JUMPDEST PUSH2 0xCF0 JUMP JUMPDEST SWAP1 POP SWAP2 SWAP1 POP JUMP JUMPDEST PUSH0 DUP2 SWAP1 POP SWAP2 SWAP1 POP JUMP JUMPDEST PUSH2 0xD35 DUP4 PUSH2 0xD02 JUMP JUMPDEST PUSH2 0xD49 PUSH2 0xD41 DUP3 PUSH2 0xD23 JUMP JUMPDEST DUP5 DUP5 SLOAD PUSH2 0xC9F JUMP JUMPDEST DUP3 SSTORE POP POP POP POP JUMP JUMPDEST PUSH0 PUSH0 SWAP1 POP SWAP1 JUMP JUMPDEST PUSH2 0xD60 PUSH2 0xD51 JUMP JUMPDEST PUSH2 0xD6B DUP2 DUP5 DUP5 PUSH2 0xD2C JUMP JUMPDEST POP POP POP JUMP JUMPDEST JUMPDEST DUP2 DUP2 LT ISZERO PUSH2 0xD8E JUMPI PUSH2 0xD83 PUSH0 DUP3 PUSH2 0xD58 JUMP JUMPDEST PUSH1 0x1 DUP2 ADD SWAP1 POP PUSH2 0xD71 JUMP JUMPDEST POP POP JUMP JUMPDEST PUSH1 0x1F DUP3 GT ISZERO PUSH2 0xDD3 JUMPI PUSH2 0xDA4 DUP2 PUSH2 0xC72 JUMP JUMPDEST PUSH2 0xDAD DUP5 PUSH2 0xC84 JUMP JUMPDEST DUP2 ADD PUSH1 0x20 DUP6 LT ISZERO PUSH2 0xDBC JUMPI DUP2 SWAP1 POP JUMPDEST PUSH2 0xDD0 PUSH2 0xDC8 DUP6 PUSH2 0xC84 JUMP JUMPDEST DUP4 ADD DUP3 PUSH2 0xD70 JUMP JUMPDEST POP POP JUMPDEST POP POP POP JUMP JUMPDEST PUSH0 DUP3 DUP3 SHR SWAP1 POP SWAP3 SWAP2 POP POP JUMP JUMPDEST PUSH0 PUSH2 0xDF3 PUSH0 NOT DUP5 PUSH1 0x8 MUL PUSH2 0xDD8 JUMP JUMPDEST NOT DUP1 DUP4 AND SWAP2 POP POP SWAP3 SWAP2 POP POP JUMP JUMPDEST PUSH0 PUSH2 0xE0B DUP4 DUP4 PUSH2 0xDE4 JUMP JUMPDEST SWAP2 POP DUP3 PUSH1 0x2 MUL DUP3 OR SWAP1 POP SWAP3 SWAP2 POP POP JUMP JUMPDEST PUSH2 0xE24 DUP3 PUSH2 0xBDE JUMP JUMPDEST PUSH8 0xFFFFFFFFFFFFFFFF DUP2 GT ISZERO PUSH2 0xE3D JUMPI PUSH2 0xE3C PUSH2 0xBE8 JUMP JUMPDEST JUMPDEST PUSH2 0xE47 DUP3 SLOAD PUSH2 0xC42 JUMP JUMPDEST PUSH2 0xE52 DUP3 DUP3 DUP6 PUSH2 0xD92 JUMP JUMPDEST PUSH0 PUSH1 0x20 SWAP1 POP PUSH1 0x1F DUP4 GT PUSH1 0x1 DUP2 EQ PUSH2 0xE83 JUMPI PUSH0 DUP5 ISZERO PUSH2 0xE71 JUMPI DUP3 DUP8 ADD MLOAD SWAP1 POP JUMPDEST PUSH2 0xE7B DUP6 DUP3 PUSH2 0xE00 JUMP JUMPDEST DUP7 SSTORE POP PUSH2 0xEE2 JUMP JUMPDEST PUSH1 0x1F NOT DUP5 AND PUSH2 0xE91 DUP7 PUSH2 0xC72 JUMP JUMPDEST PUSH0 JUMPDEST DUP3 DUP2 LT ISZERO PUSH2 0xEB8 JUMPI DUP5 DUP10 ADD MLOAD DUP3 SSTORE PUSH1 0x1 DUP3 ADD SWAP2 POP PUSH1 0x20 DUP6 ADD SWAP5 POP PUSH1 0x20 DUP2 ADD SWAP1 POP PUSH2 0xE93 JUMP JUMPDEST DUP7 DUP4 LT ISZERO PUSH2 0xED5 JUMPI DUP5 DUP10 ADD MLOAD PUSH2 0xED1 PUSH1 0x1F DUP10 AND DUP3 PUSH2 0xDE4 JUMP JUMPDEST DUP4 SSTORE POP JUMPDEST PUSH1 0x1 PUSH1 0x2 DUP9 MUL ADD DUP9 SSTORE POP POP POP JUMPDEST POP POP POP POP POP POP JUMP JUMPDEST PUSH1 0x80 MLOAD PUSH1 0xA0 MLOAD PUSH1 0xC0 MLOAD PUSH1 0xE0 MLOAD PUSH2 0x100 MLOAD PUSH2 0x120 MLOAD PUSH2 0x5629 PUSH2 0xF66 PUSH0 CODECOPY PUSH0 DUP2 DUP2 PUSH2 0xD2D ADD MSTORE PUSH2 0x1639 ADD MSTORE PUSH0 DUP2 DUP2 PUSH2 0x6C1 ADD MSTORE PUSH2 0x9E9 ADD MSTORE PUSH0 DUP2 DUP2 PUSH2 0x3F5 ADD MSTORE DUP2 DUP2 PUSH2 0x4D7 ADD MSTORE DUP2 DUP2 PUSH2 0x5B2 ADD MSTORE DUP2 DUP2 PUSH2 0x114B ADD MSTORE PUSH2 0x1AA5 ADD MSTORE PUSH0 DUP2 DUP2 PUSH2 0xD52 ADD MSTORE PUSH2 0x165E ADD MSTORE PUSH0 POP POP PUSH0 DUP2 DUP2 PUSH2 0x201 ADD MSTORE PUSH2 0x2979 ADD MSTORE PUSH2 0x5629 PUSH0 RETURN INVALID PUSH1 0x80 PUSH1 0x40 MSTORE CALLVALUE DUP1 ISZERO PUSH2 0xF JUMPI PUSH0 PUSH0 REVERT JUMPDEST POP PUSH1 0x4 CALLDATASIZE LT PUSH2 0xA7 JUMPI PUSH0 CALLDATALOAD PUSH1 0xE0 SHR DUP1 PUSH4 0x79BA5097 GT PUSH2 0x6F JUMPI DUP1 PUSH4 0x79BA5097 EQ PUSH2 0x165 JUMPI DUP1 PUSH4 0x8DA5CB5B EQ PUSH2 0x16F JUMPI DUP1 PUSH4 0xAD94763D EQ PUSH2 0x18D JUMPI DUP1 PUSH4 0xC320C1B9 EQ PUSH2 0x1BD JUMPI DUP1 PUSH4 0xEC4FD914 EQ PUSH2 0x1C7 JUMPI DUP1 PUSH4 0xF2FDE38B EQ PUSH2 0x1E3 JUMPI PUSH2 0xA7 JUMP JUMPDEST DUP1 PUSH4 0xCA76175 EQ PUSH2 0xAB JUMPI DUP1 PUSH4 0x2AC87AA6 EQ PUSH2 0xC7 JUMPI DUP1 PUSH4 0x2D8B23C8 EQ PUSH2 0xE3 JUMPI DUP1 PUSH4 0x431A1B97 EQ PUSH2 0x113 JUMPI DUP1 PUSH4 0x54384FD5 EQ PUSH2 0x149 JUMPI JUMPDEST PUSH0 PUSH0 REVERT JUMPDEST PUSH2 0xC5 PUSH1 0x4 DUP1 CALLDATASIZE SUB DUP2 ADD SWAP1 PUSH2 0xC0 SWAP2 SWAP1 PUSH2 0x37EB JUMP JUMPDEST PUSH2 0x1FF JUMP JUMPDEST STOP JUMPDEST PUSH2 0xE1 PUSH1 0x4 DUP1 CALLDATASIZE SUB DUP2 ADD SWAP1 PUSH2 0xDC SWAP2 SWAP1 PUSH2 0x38D0 JUMP JUMPDEST PUSH2 0x2C1 JUMP JUMPDEST STOP JUMPDEST PUSH2 0xFD PUSH1 0x4 DUP1 CALLDATASIZE SUB DUP2 ADD SWAP1 PUSH2 0xF8 SWAP2 SWAP1 PUSH2 0x391B JUMP JUMPDEST PUSH2 0x7ED JUMP JUMPDEST PUSH1 0x40 MLOAD PUSH2 0x10A SWAP2 SWAP1 PUSH2 0x3985 JUMP JUMPDEST PUSH1 0x40 MLOAD DUP1 SWAP2 SUB SWAP1 RETURN JUMPDEST PUSH2 0x12D PUSH1 0x4 DUP1 CALLDATASIZE SUB DUP2 ADD SWAP1 PUSH2 0x128 SWAP2 SWAP1 PUSH2 0x39C8 JUMP JUMPDEST PUSH2 0x81D JUMP JUMPDEST PUSH1 0x40 MLOAD PUSH2 0x140 SWAP8 SWAP7 SWAP6 SWAP5 SWAP4 SWAP3 SWAP2 SWAP1 PUSH2 0x3AA0 JUMP JUMPDEST PUSH1 0x40 MLOAD DUP1 SWAP2 SUB SWAP1 RETURN JUMPDEST PUSH2 0x163 PUSH1 0x4 DUP1 CALLDATASIZE SUB DUP2 ADD SWAP1 PUSH2 0x15E SWAP2 SWAP1 PUSH2 0x3B3E JUMP JUMPDEST PUSH2 0x906 JUMP JUMPDEST STOP JUMPDEST PUSH2 0x16D PUSH2 0xDDB JUMP JUMPDEST STOP JUMPDEST PUSH2 0x177 PUSH2 0xF6A JUMP JUMPDEST PUSH1 0x40 MLOAD PUSH2 0x184 SWAP2 SWAP1 PUSH2 0x3985 JUMP JUMPDEST PUSH1 0x40 MLOAD DUP1 SWAP2 SUB SWAP1 RETURN JUMPDEST PUSH2 0x1A7 PUSH1 0x4 DUP1 CALLDATASIZE SUB DUP2 ADD SWAP1 PUSH2 0x1A2 SWAP2 SWAP1 PUSH2 0x3B3E JUMP JUMPDEST PUSH2 0xF91 JUMP JUMPDEST PUSH1 0x40 MLOAD PUSH2 0x1B4 SWAP2 SWAP1 PUSH2 0x3B69 JUMP JUMPDEST PUSH1 0x40 MLOAD DUP1 SWAP2 SUB SWAP1 RETURN JUMPDEST PUSH2 0x1C5 PUSH2 0x1037 JUMP JUMPDEST STOP JUMPDEST PUSH2 0x1E1 PUSH1 0x4 DUP1 CALLDATASIZE SUB DUP2 ADD SWAP1 PUSH2 0x1DC SWAP2 SWAP1 PUSH2 0x3BB3 JUMP JUMPDEST PUSH2 0x12DC JUMP JUMPDEST STOP JUMPDEST PUSH2 0x1FD PUSH1 0x4 DUP1 CALLDATASIZE SUB DUP2 ADD SWAP1 PUSH2 0x1F8 SWAP2 SWAP1 PUSH2 0x39C8 JUMP JUMPDEST PUSH2 0x16E2 JUMP JUMPDEST STOP JUMPDEST PUSH32 0x0 PUSH20 0xFFFFFFFFFFFFFFFFFFFFFFFFFFFFFFFFFFFFFFFF AND CALLER PUSH20 0xFFFFFFFFFFFFFFFFFFFFFFFFFFFFFFFFFFFFFFFF AND EQ PUSH2 0x284 JUMPI PUSH1 0x40 MLOAD PUSH32 0xC6829F8300000000000000000000000000000000000000000000000000000000 DUP2 MSTORE PUSH1 0x4 ADD PUSH1 0x40 MLOAD DUP1 SWAP2 SUB SWAP1 REVERT JUMPDEST PUSH2 0x28F DUP4 DUP4 DUP4 PUSH2 0x16F6 JUMP JUMPDEST DUP3 PUSH32 0x85E1543BF2F84FE80C6BADBCE3648C8539AD1DF4D2B3D822938CA0538BE727E6 PUSH1 0x40 MLOAD PUSH1 0x40 MLOAD DUP1 SWAP2 SUB SWAP1 LOG2 POP POP POP JUMP JUMPDEST PUSH2 0x2C9 PUSH2 0x1C6D JUMP JUMPDEST PUSH1 0x5 DUP3 DUP3 SWAP1 POP LT ISZERO PUSH2 0x310 JUMPI PUSH1 0x40 MLOAD PUSH32 0x8C379A000000000000000000000000000000000000000000000000000000000 DUP2 MSTORE PUSH1 0x4 ADD PUSH2 0x307 SWAP1 PUSH2 0x3C28 JUMP JUMPDEST PUSH1 0x40 MLOAD DUP1 SWAP2 SUB SWAP1 REVERT JUMPDEST PUSH2 0x31A DUP3 DUP3 PUSH2 0x1CBA JUMP JUMPDEST PUSH2 0x359 JUMPI PUSH1 0x40 MLOAD PUSH32 0x8C379A000000000000000000000000000000000000000000000000000000000 DUP2 MSTORE PUSH1 0x4 ADD PUSH2 0x350 SWAP1 PUSH2 0x3C90 JUMP JUMPDEST PUSH1 0x40 MLOAD DUP1 SWAP2 SUB SWAP1 REVERT JUMPDEST PUSH0 PUSH1 0x3 PUSH0 CALLER PUSH20 0xFFFFFFFFFFFFFFFFFFFFFFFFFFFFFFFFFFFFFFFF AND PUSH20 0xFFFFFFFFFFFFFFFFFFFFFFFFFFFFFFFFFFFFFFFF AND DUP2 MSTORE PUSH1 0x20 ADD SWAP1 DUP2 MSTORE PUSH1 0x20 ADD PUSH0 KECCAK256 SWAP1 POP DUP1 PUSH1 0x4 ADD PUSH0 SWAP1 SLOAD SWAP1 PUSH2 0x100 EXP SWAP1 DIV PUSH1 0xFF AND ISZERO PUSH2 0x3EA JUMPI PUSH1 0x40 MLOAD PUSH32 0x8C379A000000000000000000000000000000000000000000000000000000000 DUP2 MSTORE PUSH1 0x4 ADD PUSH2 0x3E1 SWAP1 PUSH2 0x3CF8 JUMP JUMPDEST PUSH1 0x40 MLOAD DUP1 SWAP2 SUB SWAP1 REVERT JUMPDEST PUSH8 0x8AC7230489E80000 PUSH32 0x0 PUSH20 0xFFFFFFFFFFFFFFFFFFFFFFFFFFFFFFFFFFFFFFFF AND PUSH4 0x70A08231 CALLER PUSH1 0x40 MLOAD DUP3 PUSH4 0xFFFFFFFF AND PUSH1 0xE0 SHL DUP2 MSTORE PUSH1 0x4 ADD PUSH2 0x44C SWAP2 SWAP1 PUSH2 0x3985 JUMP JUMPDEST PUSH1 0x20 PUSH1 0x40 MLOAD DUP1 DUP4 SUB DUP2 DUP7 GAS STATICCALL ISZERO DUP1 ISZERO PUSH2 0x467 JUMPI RETURNDATASIZE PUSH0 PUSH0 RETURNDATACOPY RETURNDATASIZE PUSH0 REVERT JUMPDEST POP POP POP POP PUSH1 0x40 MLOAD RETURNDATASIZE PUSH1 0x1F NOT PUSH1 0x1F DUP3 ADD AND DUP3 ADD DUP1 PUSH1 0x40 MSTORE POP DUP2 ADD SWAP1 PUSH2 0x48B SWAP2 SWAP1 PUSH2 0x3D2A JUMP JUMPDEST LT ISZERO PUSH2 0x4CC JUMPI PUSH1 0x40 MLOAD PUSH32 0x8C379A000000000000000000000000000000000000000000000000000000000 DUP2 MSTORE PUSH1 0x4 ADD PUSH2 0x4C3 SWAP1 PUSH2 0x3D9F JUMP JUMPDEST PUSH1 0x40 MLOAD DUP1 SWAP2 SUB SWAP1 REVERT JUMPDEST PUSH8 0x8AC7230489E80000 PUSH32 0x0 PUSH20 0xFFFFFFFFFFFFFFFFFFFFFFFFFFFFFFFFFFFFFFFF AND PUSH4 0xDD62ED3E CALLER ADDRESS PUSH1 0x40 MLOAD DUP4 PUSH4 0xFFFFFFFF AND PUSH1 0xE0 SHL DUP2 MSTORE PUSH1 0x4 ADD PUSH2 0x530 SWAP3 SWAP2 SWAP1 PUSH2 0x3DBD JUMP JUMPDEST PUSH1 0x20 PUSH1 0x40 MLOAD DUP1 DUP4 SUB DUP2 DUP7 GAS STATICCALL ISZERO DUP1 ISZERO PUSH2 0x54B JUMPI RETURNDATASIZE PUSH0 PUSH0 RETURNDATACOPY RETURNDATASIZE PUSH0 REVERT JUMPDEST POP POP POP POP PUSH1 0x40 MLOAD RETURNDATASIZE PUSH1 0x1F NOT PUSH1 0x1F DUP3 ADD AND DUP3 ADD DUP1 PUSH1 0x40 MSTORE POP DUP2 ADD SWAP1 PUSH2 0x56F SWAP2 SWAP1 PUSH2 0x3D2A JUMP JUMPDEST LT ISZERO PUSH2 0x5B0 JUMPI PUSH1 0x40 MLOAD PUSH32 0x8C379A000000000000000000000000000000000000000000000000000000000 DUP2 MSTORE PUSH1 0x4 ADD PUSH2 0x5A7 SWAP1 PUSH2 0x3E2E JUMP JUMPDEST PUSH1 0x40 MLOAD DUP1 SWAP2 SUB SWAP1 REVERT JUMPDEST PUSH32 0x0 PUSH20 0xFFFFFFFFFFFFFFFFFFFFFFFFFFFFFFFFFFFFFFFF AND PUSH4 0x23B872DD CALLER ADDRESS PUSH8 0x8AC7230489E80000 PUSH1 0x40 MLOAD DUP5 PUSH4 0xFFFFFFFF AND PUSH1 0xE0 SHL DUP2 MSTORE PUSH1 0x4 ADD PUSH2 0x615 SWAP4 SWAP3 SWAP2 SWAP1 PUSH2 0x3E4C JUMP JUMPDEST PUSH1 0x20 PUSH1 0x40 MLOAD DUP1 DUP4 SUB DUP2 PUSH0 DUP8 GAS CALL ISZERO DUP1 ISZERO PUSH2 0x631 JUMPI RETURNDATASIZE PUSH0 PUSH0 RETURNDATACOPY RETURNDATASIZE PUSH0 REVERT JUMPDEST POP POP POP POP PUSH1 0x40 MLOAD RETURNDATASIZE PUSH1 0x1F NOT PUSH1 0x1F DUP3 ADD AND DUP3 ADD DUP1 PUSH1 0x40 MSTORE POP DUP2 ADD SWAP1 PUSH2 0x655 SWAP2 SWAP1 PUSH2 0x3EAB JUMP JUMPDEST POP PUSH1 0x1 DUP2 PUSH1 0x4 ADD PUSH0 PUSH2 0x100 EXP DUP2 SLOAD DUP2 PUSH1 0xFF MUL NOT AND SWAP1 DUP4 ISZERO ISZERO MUL OR SWAP1 SSTORE POP PUSH0 DUP2 PUSH1 0x1 ADD PUSH0 PUSH2 0x100 EXP DUP2 SLOAD DUP2 PUSH1 0xFF MUL NOT AND SWAP1 DUP4 PUSH1 0xFF AND MUL OR SWAP1 SSTORE POP PUSH0 DUP2 PUSH1 0x2 ADD DUP2 SWAP1 SSTORE POP TIMESTAMP DUP2 PUSH1 0x3 ADD DUP2 SWAP1 SSTORE POP PUSH1 0xA DUP2 PUSH1 0x4 ADD PUSH1 0x1 PUSH2 0x100 EXP DUP2 SLOAD DUP2 PUSH1 0xFF MUL NOT AND SWAP1 DUP4 PUSH1 0xFF AND MUL OR SWAP1 SSTORE POP PUSH0 PUSH32 0x0 PUSH20 0xFFFFFFFFFFFFFFFFFFFFFFFFFFFFFFFFFFFFFFFF AND PUSH4 0x80C95B14 CALLER PUSH1 0x40 MLOAD DUP3 PUSH4 0xFFFFFFFF AND PUSH1 0xE0 SHL DUP2 MSTORE PUSH1 0x4 ADD PUSH2 0x718 SWAP2 SWAP1 PUSH2 0x3985 JUMP JUMPDEST PUSH1 0x20 PUSH1 0x40 MLOAD DUP1 DUP4 SUB DUP2 PUSH0 DUP8 GAS CALL ISZERO DUP1 ISZERO PUSH2 0x734 JUMPI RETURNDATASIZE PUSH0 PUSH0 RETURNDATACOPY RETURNDATASIZE PUSH0 REVERT JUMPDEST POP POP POP POP PUSH1 0x40 MLOAD RETURNDATASIZE PUSH1 0x1F NOT PUSH1 0x1F DUP3 ADD AND DUP3 ADD DUP1 PUSH1 0x40 MSTORE POP DUP2 ADD SWAP1 PUSH2 0x758 SWAP2 SWAP1 PUSH2 0x3D2A JUMP JUMPDEST SWAP1 POP DUP1 DUP3 PUSH1 0x5 ADD DUP2 SWAP1 SSTORE POP PUSH2 0x76C DUP2 PUSH2 0x1D92 JUMP JUMPDEST PUSH1 0x40 MLOAD PUSH1 0x20 ADD PUSH2 0x77C SWAP2 SWAP1 PUSH2 0x3F5A JUMP JUMPDEST PUSH1 0x40 MLOAD PUSH1 0x20 DUP2 DUP4 SUB SUB DUP2 MSTORE SWAP1 PUSH1 0x40 MSTORE DUP3 PUSH0 ADD SWAP1 DUP2 PUSH2 0x79A SWAP2 SWAP1 PUSH2 0x4178 JUMP JUMPDEST POP CALLER PUSH20 0xFFFFFFFFFFFFFFFFFFFFFFFFFFFFFFFFFFFFFFFF AND DUP2 PUSH32 0xF7A8E0C42C700F462B414BCEAC8AB3195E1AAF10F2BE5EE09B146BC290C16130 PUSH1 0x40 MLOAD PUSH1 0x40 MLOAD DUP1 SWAP2 SUB SWAP1 LOG3 POP POP PUSH2 0x7E9 PUSH2 0x1EEB JUMP JUMPDEST POP POP JUMP JUMPDEST PUSH1 0x4 PUSH1 0x20 MSTORE DUP1 PUSH0 MSTORE PUSH1 0x40 PUSH0 KECCAK256 PUSH0 SWAP2 POP SLOAD SWAP1 PUSH2 0x100 EXP SWAP1 DIV PUSH20 0xFFFFFFFFFFFFFFFFFFFFFFFFFFFFFFFFFFFFFFFF AND DUP2 JUMP JUMPDEST PUSH1 0x3 PUSH1 0x20 MSTORE DUP1 PUSH0 MSTORE PUSH1 0x40 PUSH0 KECCAK256 PUSH0 SWAP2 POP SWAP1 POP DUP1 PUSH0 ADD DUP1 SLOAD PUSH2 0x83C SWAP1 PUSH2 0x3FA8 JUMP JUMPDEST DUP1 PUSH1 0x1F ADD PUSH1 0x20 DUP1 SWAP2 DIV MUL PUSH1 0x20 ADD PUSH1 0x40 MLOAD SWAP1 DUP2 ADD PUSH1 0x40 MSTORE DUP1 SWAP3 SWAP2 SWAP1 DUP2 DUP2 MSTORE PUSH1 0x20 ADD DUP3 DUP1 SLOAD PUSH2 0x868 SWAP1 PUSH2 0x3FA8 JUMP JUMPDEST DUP1 ISZERO PUSH2 0x8B3 JUMPI DUP1 PUSH1 0x1F LT PUSH2 0x88A JUMPI PUSH2 0x100 DUP1 DUP4 SLOAD DIV MUL DUP4 MSTORE SWAP2 PUSH1 0x20 ADD SWAP2 PUSH2 0x8B3 JUMP JUMPDEST DUP3 ADD SWAP2 SWAP1 PUSH0 MSTORE PUSH1 0x20 PUSH0 KECCAK256 SWAP1 JUMPDEST DUP2 SLOAD DUP2 MSTORE SWAP1 PUSH1 0x1 ADD SWAP1 PUSH1 0x20 ADD DUP1 DUP4 GT PUSH2 0x896 JUMPI DUP3 SWAP1 SUB PUSH1 0x1F AND DUP3 ADD SWAP2 JUMPDEST POP POP POP POP POP SWAP1 DUP1 PUSH1 0x1 ADD PUSH0 SWAP1 SLOAD SWAP1 PUSH2 0x100 EXP SWAP1 DIV PUSH1 0xFF AND SWAP1 DUP1 PUSH1 0x2 ADD SLOAD SWAP1 DUP1 PUSH1 0x3 ADD SLOAD SWAP1 DUP1 PUSH1 0x4 ADD PUSH0 SWAP1 SLOAD SWAP1 PUSH2 0x100 EXP SWAP1 DIV PUSH1 0xFF AND SWAP1 DUP1 PUSH1 0x4 ADD PUSH1 0x1 SWAP1 SLOAD SWAP1 PUSH2 0x100 EXP SWAP1 DIV PUSH1 0xFF AND SWAP1 DUP1 PUSH1 0x5 ADD SLOAD SWAP1 POP DUP8 JUMP JUMPDEST PUSH2 0x90E PUSH2 0x1C6D JUMP JUMPDEST PUSH0 PUSH1 0x3 PUSH0 CALLER PUSH20 0xFFFFFFFFFFFFFFFFFFFFFFFFFFFFFFFFFFFFFFFF AND PUSH20 0xFFFFFFFFFFFFFFFFFFFFFFFFFFFFFFFFFFFFFFFF AND DUP2 MSTORE PUSH1 0x20 ADD SWAP1 DUP2 MSTORE PUSH1 0x20 ADD PUSH0 KECCAK256 SWAP1 POP DUP1 PUSH1 0x4 ADD PUSH0 SWAP1 SLOAD SWAP1 PUSH2 0x100 EXP SWAP1 DIV PUSH1 0xFF AND PUSH2 0x99E JUMPI PUSH1 0x40 MLOAD PUSH32 0x8C379A000000000000000000000000000000000000000000000000000000000 DUP2 MSTORE PUSH1 0x4 ADD PUSH2 0x995 SWAP1 PUSH2 0x4291 JUMP JUMPDEST PUSH1 0x40 MLOAD DUP1 SWAP2 SUB SWAP1 REVERT JUMPDEST DUP2 DUP2 PUSH1 0x5 ADD SLOAD EQ PUSH2 0x9E4 JUMPI PUSH1 0x40 MLOAD PUSH32 0x8C379A000000000000000000000000000000000000000000000000000000000 DUP2 MSTORE PUSH1 0x4 ADD PUSH2 0x9DB SWAP1 PUSH2 0x42F9 JUMP JUMPDEST PUSH1 0x40 MLOAD DUP1 SWAP2 SUB SWAP1 REVERT JUMPDEST PUSH0 PUSH0 PUSH0 PUSH32 0x0 PUSH20 0xFFFFFFFFFFFFFFFFFFFFFFFFFFFFFFFFFFFFFFFF AND PUSH4 0xD8A4676F DUP7 PUSH1 0x40 MLOAD DUP3 PUSH4 0xFFFFFFFF AND PUSH1 0xE0 SHL DUP2 MSTORE PUSH1 0x4 ADD PUSH2 0xA40 SWAP2 SWAP1 PUSH2 0x4317 JUMP JUMPDEST PUSH0 PUSH1 0x40 MLOAD DUP1 DUP4 SUB DUP2 DUP7 GAS STATICCALL ISZERO DUP1 ISZERO PUSH2 0xA5A JUMPI RETURNDATASIZE PUSH0 PUSH0 RETURNDATACOPY RETURNDATASIZE PUSH0 REVERT JUMPDEST POP POP POP POP PUSH1 0x40 MLOAD RETURNDATASIZE PUSH0 DUP3 RETURNDATACOPY RETURNDATASIZE PUSH1 0x1F NOT PUSH1 0x1F DUP3 ADD AND DUP3 ADD DUP1 PUSH1 0x40 MSTORE POP DUP2 ADD SWAP1 PUSH2 0xA82 SWAP2 SWAP1 PUSH2 0x4404 JUMP JUMPDEST SWAP3 POP SWAP3 POP SWAP3 POP DUP3 PUSH2 0xAC8 JUMPI PUSH1 0x40 MLOAD PUSH32 0x8C379A000000000000000000000000000000000000000000000000000000000 DUP2 MSTORE PUSH1 0x4 ADD PUSH2 0xABF SWAP1 PUSH2 0x44BA JUMP JUMPDEST PUSH1 0x40 MLOAD DUP1 SWAP2 SUB SWAP1 REVERT JUMPDEST CALLER PUSH20 0xFFFFFFFFFFFFFFFFFFFFFFFFFFFFFFFFFFFFFFFF AND DUP2 PUSH20 0xFFFFFFFFFFFFFFFFFFFFFFFFFFFFFFFFFFFFFFFF AND EQ PUSH2 0xB36 JUMPI PUSH1 0x40 MLOAD PUSH32 0x8C379A000000000000000000000000000000000000000000000000000000000 DUP2 MSTORE PUSH1 0x4 ADD PUSH2 0xB2D SWAP1 PUSH2 0x4522 JUMP JUMPDEST PUSH1 0x40 MLOAD DUP1 SWAP2 SUB SWAP1 REVERT JUMPDEST PUSH0 PUSH2 0xB69 PUSH4 0x5F5E100 DUP5 PUSH0 DUP2 MLOAD DUP2 LT PUSH2 0xB52 JUMPI PUSH2 0xB51 PUSH2 0x4540 JUMP JUMPDEST JUMPDEST PUSH1 0x20 MUL PUSH1 0x20 ADD ADD MLOAD PUSH2 0xB64 SWAP2 SWAP1 PUSH2 0x459A JUMP JUMPDEST PUSH2 0x1D92 JUMP JUMPDEST PUSH1 0x40 MLOAD PUSH1 0x20 ADD PUSH2 0xB79 SWAP2 SWAP1 PUSH2 0x4614 JUMP JUMPDEST PUSH1 0x40 MLOAD PUSH1 0x20 DUP2 DUP4 SUB SUB DUP2 MSTORE SWAP1 PUSH1 0x40 MSTORE SWAP1 POP DUP1 DUP6 PUSH0 ADD SWAP1 DUP2 PUSH2 0xB9A SWAP2 SWAP1 PUSH2 0x4178 JUMP JUMPDEST POP PUSH2 0xBA3 PUSH2 0x356C JUMP JUMPDEST PUSH2 0xBBD PUSH2 0xBAE PUSH2 0x1EF5 JUMP JUMPDEST DUP3 PUSH2 0x1F18 SWAP1 SWAP2 SWAP1 PUSH4 0xFFFFFFFF AND JUMP JUMPDEST PUSH0 PUSH2 0xBF3 DUP6 PUSH0 DUP2 MLOAD DUP2 LT PUSH2 0xBD4 JUMPI PUSH2 0xBD3 PUSH2 0x4540 JUMP JUMPDEST JUMPDEST PUSH1 0x20 MUL PUSH1 0x20 ADD ADD MLOAD DUP9 PUSH1 0x4 ADD PUSH1 0x1 SWAP1 SLOAD SWAP1 PUSH2 0x100 EXP SWAP1 DIV PUSH1 0xFF AND PUSH2 0x1F28 JUMP JUMPDEST SWAP1 POP PUSH0 PUSH1 0x5 PUSH8 0xFFFFFFFFFFFFFFFF DUP2 GT ISZERO PUSH2 0xC11 JUMPI PUSH2 0xC10 PUSH2 0x36C7 JUMP JUMPDEST JUMPDEST PUSH1 0x40 MLOAD SWAP1 DUP1 DUP3 MSTORE DUP1 PUSH1 0x20 MUL PUSH1 0x20 ADD DUP3 ADD PUSH1 0x40 MSTORE DUP1 ISZERO PUSH2 0xC44 JUMPI DUP2 PUSH1 0x20 ADD JUMPDEST PUSH1 0x60 DUP2 MSTORE PUSH1 0x20 ADD SWAP1 PUSH1 0x1 SWAP1 SUB SWAP1 DUP2 PUSH2 0xC2F JUMPI SWAP1 POP JUMPDEST POP SWAP1 POP PUSH2 0xC50 DUP3 PUSH2 0x2099 JUMP JUMPDEST DUP2 PUSH0 DUP2 MLOAD DUP2 LT PUSH2 0xC63 JUMPI PUSH2 0xC62 PUSH2 0x4540 JUMP JUMPDEST JUMPDEST PUSH1 0x20 MUL PUSH1 0x20 ADD ADD DUP2 SWAP1 MSTORE POP PUSH2 0xC77 CALLER PUSH2 0x218E JUMP JUMPDEST DUP2 PUSH1 0x1 DUP2 MLOAD DUP2 LT PUSH2 0xC8B JUMPI PUSH2 0xC8A PUSH2 0x4540 JUMP JUMPDEST JUMPDEST PUSH1 0x20 MUL PUSH1 0x20 ADD ADD DUP2 SWAP1 MSTORE POP PUSH2 0xC9E PUSH2 0x2489 JUMP JUMPDEST DUP2 PUSH1 0x2 DUP2 MLOAD DUP2 LT PUSH2 0xCB2 JUMPI PUSH2 0xCB1 PUSH2 0x4540 JUMP JUMPDEST JUMPDEST PUSH1 0x20 MUL PUSH1 0x20 ADD ADD DUP2 SWAP1 MSTORE POP PUSH2 0xCC5 PUSH2 0x24C6 JUMP JUMPDEST DUP2 PUSH1 0x3 DUP2 MLOAD DUP2 LT PUSH2 0xCD9 JUMPI PUSH2 0xCD8 PUSH2 0x4540 JUMP JUMPDEST JUMPDEST PUSH1 0x20 MUL PUSH1 0x20 ADD ADD DUP2 SWAP1 MSTORE POP PUSH2 0xCEC PUSH2 0x24E6 JUMP JUMPDEST DUP2 PUSH1 0x4 DUP2 MLOAD DUP2 LT PUSH2 0xD00 JUMPI PUSH2 0xCFF PUSH2 0x4540 JUMP JUMPDEST JUMPDEST PUSH1 0x20 MUL PUSH1 0x20 ADD ADD DUP2 SWAP1 MSTORE POP PUSH2 0xD1E DUP2 DUP5 PUSH2 0x2523 SWAP1 SWAP2 SWAP1 PUSH4 0xFFFFFFFF AND JUMP JUMPDEST PUSH0 PUSH2 0xD76 PUSH2 0xD2B DUP6 PUSH2 0x256A JUMP JUMPDEST PUSH32 0x0 PUSH3 0x493E0 PUSH32 0x0 PUSH2 0x2975 JUMP JUMPDEST SWAP1 POP CALLER PUSH1 0x4 PUSH0 DUP4 DUP2 MSTORE PUSH1 0x20 ADD SWAP1 DUP2 MSTORE PUSH1 0x20 ADD PUSH0 KECCAK256 PUSH0 PUSH2 0x100 EXP DUP2 SLOAD DUP2 PUSH20 0xFFFFFFFFFFFFFFFFFFFFFFFFFFFFFFFFFFFFFFFF MUL NOT AND SWAP1 DUP4 PUSH20 0xFFFFFFFFFFFFFFFFFFFFFFFFFFFFFFFFFFFFFFFF AND MUL OR SWAP1 SSTORE POP POP POP POP POP POP POP POP POP POP PUSH2 0xDD8 PUSH2 0x1EEB JUMP JUMPDEST POP JUMP JUMPDEST PUSH1 0x1 PUSH0 SWAP1 SLOAD SWAP1 PUSH2 0x100 EXP SWAP1 DIV PUSH20 0xFFFFFFFFFFFFFFFFFFFFFFFFFFFFFFFFFFFFFFFF AND PUSH20 0xFFFFFFFFFFFFFFFFFFFFFFFFFFFFFFFFFFFFFFFF AND CALLER PUSH20 0xFFFFFFFFFFFFFFFFFFFFFFFFFFFFFFFFFFFFFFFF AND EQ PUSH2 0xE6A JUMPI PUSH1 0x40 MLOAD PUSH32 0x8C379A000000000000000000000000000000000000000000000000000000000 DUP2 MSTORE PUSH1 0x4 ADD PUSH2 0xE61 SWAP1 PUSH2 0x467F JUMP JUMPDEST PUSH1 0x40 MLOAD DUP1 SWAP2 SUB SWAP1 REVERT JUMPDEST PUSH0 PUSH0 PUSH0 SWAP1 SLOAD SWAP1 PUSH2 0x100 EXP SWAP1 DIV PUSH20 0xFFFFFFFFFFFFFFFFFFFFFFFFFFFFFFFFFFFFFFFF AND SWAP1 POP CALLER PUSH0 PUSH0 PUSH2 0x100 EXP DUP2 SLOAD DUP2 PUSH20 0xFFFFFFFFFFFFFFFFFFFFFFFFFFFFFFFFFFFFFFFF MUL NOT AND SWAP1 DUP4 PUSH20 0xFFFFFFFFFFFFFFFFFFFFFFFFFFFFFFFFFFFFFFFF AND MUL OR SWAP1 SSTORE POP PUSH0 PUSH1 0x1 PUSH0 PUSH2 0x100 EXP DUP2 SLOAD DUP2 PUSH20 0xFFFFFFFFFFFFFFFFFFFFFFFFFFFFFFFFFFFFFFFF MUL NOT AND SWAP1 DUP4 PUSH20 0xFFFFFFFFFFFFFFFFFFFFFFFFFFFFFFFFFFFFFFFF AND MUL OR SWAP1 SSTORE POP CALLER PUSH20 0xFFFFFFFFFFFFFFFFFFFFFFFFFFFFFFFFFFFFFFFF AND DUP2 PUSH20 0xFFFFFFFFFFFFFFFFFFFFFFFFFFFFFFFFFFFFFFFF AND PUSH32 0x8BE0079C531659141344CD1FD0A4F28419497F9722A3DAAFE3B4186F6B6457E0 PUSH1 0x40 MLOAD PUSH1 0x40 MLOAD DUP1 SWAP2 SUB SWAP1 LOG3 POP JUMP JUMPDEST PUSH0 PUSH0 PUSH0 SWAP1 SLOAD SWAP1 PUSH2 0x100 EXP SWAP1 DIV PUSH20 0xFFFFFFFFFFFFFFFFFFFFFFFFFFFFFFFFFFFFFFFF AND SWAP1 POP SWAP1 JUMP JUMPDEST PUSH1 0x5 DUP2 DUP2 SLOAD DUP2 LT PUSH2 0xFA0 JUMPI PUSH0 DUP1 REVERT JUMPDEST SWAP1 PUSH0 MSTORE PUSH1 0x20 PUSH0 KECCAK256 ADD PUSH0 SWAP2 POP SWAP1 POP DUP1 SLOAD PUSH2 0xFB8 SWAP1 PUSH2 0x3FA8 JUMP JUMPDEST DUP1 PUSH1 0x1F ADD PUSH1 0x20 DUP1 SWAP2 DIV MUL PUSH1 0x20 ADD PUSH1 0x40 MLOAD SWAP1 DUP2 ADD PUSH1 0x40 MSTORE DUP1 SWAP3 SWAP2 SWAP1 DUP2 DUP2 MSTORE PUSH1 0x20 ADD DUP3 DUP1 SLOAD PUSH2 0xFE4 SWAP1 PUSH2 0x3FA8 JUMP JUMPDEST DUP1 ISZERO PUSH2 0x102F JUMPI DUP1 PUSH1 0x1F LT PUSH2 0x1006 JUMPI PUSH2 0x100 DUP1 DUP4 SLOAD DIV MUL DUP4 MSTORE SWAP2 PUSH1 0x20 ADD SWAP2 PUSH2 0x102F JUMP JUMPDEST DUP3 ADD SWAP2 SWAP1 PUSH0 MSTORE PUSH1 0x20 PUSH0 KECCAK256 SWAP1 JUMPDEST DUP2 SLOAD DUP2 MSTORE SWAP1 PUSH1 0x1 ADD SWAP1 PUSH1 0x20 ADD DUP1 DUP4 GT PUSH2 0x1012 JUMPI DUP3 SWAP1 SUB PUSH1 0x1F AND DUP3 ADD SWAP2 JUMPDEST POP POP POP POP POP DUP2 JUMP JUMPDEST PUSH2 0x103F PUSH2 0x1C6D JUMP JUMPDEST PUSH0 PUSH1 0x3 PUSH0 CALLER PUSH20 0xFFFFFFFFFFFFFFFFFFFFFFFFFFFFFFFFFFFFFFFF AND PUSH20 0xFFFFFFFFFFFFFFFFFFFFFFFFFFFFFFFFFFFFFFFF AND DUP2 MSTORE PUSH1 0x20 ADD SWAP1 DUP2 MSTORE PUSH1 0x20 ADD PUSH0 KECCAK256 SWAP1 POP DUP1 PUSH1 0x4 ADD PUSH0 SWAP1 SLOAD SWAP1 PUSH2 0x100 EXP SWAP1 DIV PUSH1 0xFF AND PUSH2 0x10CF JUMPI PUSH1 0x40 MLOAD PUSH32 0x8C379A000000000000000000000000000000000000000000000000000000000 DUP2 MSTORE PUSH1 0x4 ADD PUSH2 0x10C6 SWAP1 PUSH2 0x4291 JUMP JUMPDEST PUSH1 0x40 MLOAD DUP1 SWAP2 SUB SWAP1 REVERT JUMPDEST PUSH2 0x1C2 DUP2 PUSH1 0x3 ADD SLOAD PUSH2 0x10E1 SWAP2 SWAP1 PUSH2 0x46CA JUMP JUMPDEST TIMESTAMP GT PUSH2 0x1122 JUMPI PUSH1 0x40 MLOAD PUSH32 0x8C379A000000000000000000000000000000000000000000000000000000000 DUP2 MSTORE PUSH1 0x4 ADD PUSH2 0x1119 SWAP1 PUSH2 0x4747 JUMP JUMPDEST PUSH1 0x40 MLOAD DUP1 SWAP2 SUB SWAP1 REVERT JUMPDEST PUSH0 PUSH8 0x8AC7230489E80000 SWAP1 POP PUSH0 DUP3 PUSH1 0x4 ADD PUSH0 PUSH2 0x100 EXP DUP2 SLOAD DUP2 PUSH1 0xFF MUL NOT AND SWAP1 DUP4 ISZERO ISZERO MUL OR SWAP1 SSTORE POP PUSH32 0x0 PUSH20 0xFFFFFFFFFFFFFFFFFFFFFFFFFFFFFFFFFFFFFFFF AND PUSH4 0xA9059CBB CALLER DUP4 PUSH1 0x40 MLOAD DUP4 PUSH4 0xFFFFFFFF AND PUSH1 0xE0 SHL DUP2 MSTORE PUSH1 0x4 ADD PUSH2 0x11A4 SWAP3 SWAP2 SWAP1 PUSH2 0x4765 JUMP JUMPDEST PUSH1 0x20 PUSH1 0x40 MLOAD DUP1 DUP4 SUB DUP2 PUSH0 DUP8 GAS CALL ISZERO DUP1 ISZERO PUSH2 0x11C0 JUMPI RETURNDATASIZE PUSH0 PUSH0 RETURNDATACOPY RETURNDATASIZE PUSH0 REVERT JUMPDEST POP POP POP POP PUSH1 0x40 MLOAD RETURNDATASIZE PUSH1 0x1F NOT PUSH1 0x1F DUP3 ADD AND DUP3 ADD DUP1 PUSH1 0x40 MSTORE POP DUP2 ADD SWAP1 PUSH2 0x11E4 SWAP2 SWAP1 PUSH2 0x3EAB JUMP JUMPDEST POP CALLER PUSH20 0xFFFFFFFFFFFFFFFFFFFFFFFFFFFFFFFFFFFFFFFF AND PUSH32 0xFE1DF32EA0DB777E09D3744DEC8051B0B39AAD603E12002048877C32B665A0C1 DUP3 PUSH1 0x40 MLOAD PUSH2 0x122B SWAP2 SWAP1 PUSH2 0x4317 JUMP JUMPDEST PUSH1 0x40 MLOAD DUP1 SWAP2 SUB SWAP1 LOG2 PUSH1 0x3 PUSH0 CALLER PUSH20 0xFFFFFFFFFFFFFFFFFFFFFFFFFFFFFFFFFFFFFFFF AND PUSH20 0xFFFFFFFFFFFFFFFFFFFFFFFFFFFFFFFFFFFFFFFF AND DUP2 MSTORE PUSH1 0x20 ADD SWAP1 DUP2 MSTORE PUSH1 0x20 ADD PUSH0 KECCAK256 PUSH0 PUSH0 DUP3 ADD PUSH0 PUSH2 0x127F SWAP2 SWAP1 PUSH2 0x35DB JUMP JUMPDEST PUSH1 0x1 DUP3 ADD PUSH0 PUSH2 0x100 EXP DUP2 SLOAD SWAP1 PUSH1 0xFF MUL NOT AND SWAP1 SSTORE PUSH1 0x2 DUP3 ADD PUSH0 SWAP1 SSTORE PUSH1 0x3 DUP3 ADD PUSH0 SWAP1 SSTORE PUSH1 0x4 DUP3 ADD PUSH0 PUSH2 0x100 EXP DUP2 SLOAD SWAP1 PUSH1 0xFF MUL NOT AND SWAP1 SSTORE PUSH1 0x4 DUP3 ADD PUSH1 0x1 PUSH2 0x100 EXP DUP2 SLOAD SWAP1 PUSH1 0xFF MUL NOT AND SWAP1 SSTORE PUSH1 0x5 DUP3 ADD PUSH0 SWAP1 SSTORE POP POP POP POP PUSH2 0x12DA PUSH2 0x1EEB JUMP JUMPDEST JUMP JUMPDEST PUSH2 0x12E4 PUSH2 0x1C6D JUMP JUMPDEST PUSH0 PUSH1 0x3 PUSH0 CALLER PUSH20 0xFFFFFFFFFFFFFFFFFFFFFFFFFFFFFFFFFFFFFFFF AND PUSH20 0xFFFFFFFFFFFFFFFFFFFFFFFFFFFFFFFFFFFFFFFF AND DUP2 MSTORE PUSH1 0x20 ADD SWAP1 DUP2 MSTORE PUSH1 0x20 ADD PUSH0 KECCAK256 SWAP1 POP DUP1 PUSH1 0x4 ADD PUSH0 SWAP1 SLOAD SWAP1 PUSH2 0x100 EXP SWAP1 DIV PUSH1 0xFF AND PUSH2 0x1374 JUMPI PUSH1 0x40 MLOAD PUSH32 0x8C379A000000000000000000000000000000000000000000000000000000000 DUP2 MSTORE PUSH1 0x4 ADD PUSH2 0x136B SWAP1 PUSH2 0x4291 JUMP JUMPDEST PUSH1 0x40 MLOAD DUP1 SWAP2 SUB SWAP1 REVERT JUMPDEST PUSH2 0x1C2 DUP2 PUSH1 0x3 ADD SLOAD PUSH2 0x1386 SWAP2 SWAP1 PUSH2 0x46CA JUMP JUMPDEST TIMESTAMP GT ISZERO PUSH2 0x13C8 JUMPI PUSH1 0x40 MLOAD PUSH32 0x8C379A000000000000000000000000000000000000000000000000000000000 DUP2 MSTORE PUSH1 0x4 ADD PUSH2 0x13BF SWAP1 PUSH2 0x47D6 JUMP JUMPDEST PUSH1 0x40 MLOAD DUP1 SWAP2 SUB SWAP1 REVERT JUMPDEST PUSH1 0x4 DUP3 PUSH1 0xFF AND LT DUP1 PUSH2 0x13DD JUMPI POP PUSH1 0xFF DUP3 PUSH1 0xFF AND EQ JUMPDEST PUSH2 0x141C JUMPI PUSH1 0x40 MLOAD PUSH32 0x8C379A000000000000000000000000000000000000000000000000000000000 DUP2 MSTORE PUSH1 0x4 ADD PUSH2 0x1413 SWAP1 PUSH2 0x483E JUMP JUMPDEST PUSH1 0x40 MLOAD DUP1 SWAP2 SUB SWAP1 REVERT JUMPDEST PUSH2 0x1424 PUSH2 0x356C JUMP JUMPDEST PUSH2 0x143E PUSH2 0x142F PUSH2 0x2A54 JUMP JUMPDEST DUP3 PUSH2 0x1F18 SWAP1 SWAP2 SWAP1 PUSH4 0xFFFFFFFF AND JUMP JUMPDEST PUSH0 PUSH1 0x5 PUSH8 0xFFFFFFFFFFFFFFFF DUP2 GT ISZERO PUSH2 0x145A JUMPI PUSH2 0x1459 PUSH2 0x36C7 JUMP JUMPDEST JUMPDEST PUSH1 0x40 MLOAD SWAP1 DUP1 DUP3 MSTORE DUP1 PUSH1 0x20 MUL PUSH1 0x20 ADD DUP3 ADD PUSH1 0x40 MSTORE DUP1 ISZERO PUSH2 0x148D JUMPI DUP2 PUSH1 0x20 ADD JUMPDEST PUSH1 0x60 DUP2 MSTORE PUSH1 0x20 ADD SWAP1 PUSH1 0x1 SWAP1 SUB SWAP1 DUP2 PUSH2 0x1478 JUMPI SWAP1 POP JUMPDEST POP SWAP1 POP DUP3 PUSH0 ADD DUP1 SLOAD PUSH2 0x149E SWAP1 PUSH2 0x3FA8 JUMP JUMPDEST DUP1 PUSH1 0x1F ADD PUSH1 0x20 DUP1 SWAP2 DIV MUL PUSH1 0x20 ADD PUSH1 0x40 MLOAD SWAP1 DUP2 ADD PUSH1 0x40 MSTORE DUP1 SWAP3 SWAP2 SWAP1 DUP2 DUP2 MSTORE PUSH1 0x20 ADD DUP3 DUP1 SLOAD PUSH2 0x14CA SWAP1 PUSH2 0x3FA8 JUMP JUMPDEST DUP1 ISZERO PUSH2 0x1515 JUMPI DUP1 PUSH1 0x1F LT PUSH2 0x14EC JUMPI PUSH2 0x100 DUP1 DUP4 SLOAD DIV MUL DUP4 MSTORE SWAP2 PUSH1 0x20 ADD SWAP2 PUSH2 0x1515 JUMP JUMPDEST DUP3 ADD SWAP2 SWAP1 PUSH0 MSTORE PUSH1 0x20 PUSH0 KECCAK256 SWAP1 JUMPDEST DUP2 SLOAD DUP2 MSTORE SWAP1 PUSH1 0x1 ADD SWAP1 PUSH1 0x20 ADD DUP1 DUP4 GT PUSH2 0x14F8 JUMPI DUP3 SWAP1 SUB PUSH1 0x1F AND DUP3 ADD SWAP2 JUMPDEST POP POP POP POP POP DUP2 PUSH0 DUP2 MLOAD DUP2 LT PUSH2 0x152D JUMPI PUSH2 0x152C PUSH2 0x4540 JUMP JUMPDEST JUMPDEST PUSH1 0x20 MUL PUSH1 0x20 ADD ADD DUP2 SWAP1 MSTORE POP PUSH2 0x1560 PUSH1 0x1 DUP5 PUSH1 0x1 ADD PUSH0 SWAP1 SLOAD SWAP1 PUSH2 0x100 EXP SWAP1 DIV PUSH1 0xFF AND PUSH2 0x1558 SWAP2 SWAP1 PUSH2 0x485C JUMP JUMPDEST PUSH1 0xFF AND PUSH2 0x1D92 JUMP JUMPDEST PUSH1 0x40 MLOAD PUSH1 0x20 ADD PUSH2 0x1570 SWAP2 SWAP1 PUSH2 0x48DA JUMP JUMPDEST PUSH1 0x40 MLOAD PUSH1 0x20 DUP2 DUP4 SUB SUB DUP2 MSTORE SWAP1 PUSH1 0x40 MSTORE DUP2 PUSH1 0x1 DUP2 MLOAD DUP2 LT PUSH2 0x1593 JUMPI PUSH2 0x1592 PUSH2 0x4540 JUMP JUMPDEST JUMPDEST PUSH1 0x20 MUL PUSH1 0x20 ADD ADD DUP2 SWAP1 MSTORE POP PUSH2 0x15AA DUP5 PUSH1 0xFF AND PUSH2 0x1D92 JUMP JUMPDEST DUP2 PUSH1 0x2 DUP2 MLOAD DUP2 LT PUSH2 0x15BE JUMPI PUSH2 0x15BD PUSH2 0x4540 JUMP JUMPDEST JUMPDEST PUSH1 0x20 MUL PUSH1 0x20 ADD ADD DUP2 SWAP1 MSTORE POP PUSH2 0x15D1 PUSH2 0x2489 JUMP JUMPDEST DUP2 PUSH1 0x3 DUP2 MLOAD DUP2 LT PUSH2 0x15E5 JUMPI PUSH2 0x15E4 PUSH2 0x4540 JUMP JUMPDEST JUMPDEST PUSH1 0x20 MUL PUSH1 0x20 ADD ADD DUP2 SWAP1 MSTORE POP PUSH2 0x15F8 PUSH2 0x24E6 JUMP JUMPDEST DUP2 PUSH1 0x4 DUP2 MLOAD DUP2 LT PUSH2 0x160C JUMPI PUSH2 0x160B PUSH2 0x4540 JUMP JUMPDEST JUMPDEST PUSH1 0x20 MUL PUSH1 0x20 ADD ADD DUP2 SWAP1 MSTORE POP PUSH2 0x162A DUP2 DUP4 PUSH2 0x2523 SWAP1 SWAP2 SWAP1 PUSH4 0xFFFFFFFF AND JUMP JUMPDEST PUSH0 PUSH2 0x1682 PUSH2 0x1637 DUP5 PUSH2 0x256A JUMP JUMPDEST PUSH32 0x0 PUSH3 0x493E0 PUSH32 0x0 PUSH2 0x2975 JUMP JUMPDEST SWAP1 POP CALLER PUSH1 0x4 PUSH0 DUP4 DUP2 MSTORE PUSH1 0x20 ADD SWAP1 DUP2 MSTORE PUSH1 0x20 ADD PUSH0 KECCAK256 PUSH0 PUSH2 0x100 EXP DUP2 SLOAD DUP2 PUSH20 0xFFFFFFFFFFFFFFFFFFFFFFFFFFFFFFFFFFFFFFFF MUL NOT AND SWAP1 DUP4 PUSH20 0xFFFFFFFFFFFFFFFFFFFFFFFFFFFFFFFFFFFFFFFF AND MUL OR SWAP1 SSTORE POP POP POP POP POP PUSH2 0x16DF PUSH2 0x1EEB JUMP JUMPDEST POP JUMP JUMPDEST PUSH2 0x16EA PUSH2 0x2A77 JUMP JUMPDEST PUSH2 0x16F3 DUP2 PUSH2 0x2B07 JUMP JUMPDEST POP JUMP JUMPDEST PUSH0 PUSH1 0x4 PUSH0 DUP6 DUP2 MSTORE PUSH1 0x20 ADD SWAP1 DUP2 MSTORE PUSH1 0x20 ADD PUSH0 KECCAK256 PUSH0 SWAP1 SLOAD SWAP1 PUSH2 0x100 EXP SWAP1 DIV PUSH20 0xFFFFFFFFFFFFFFFFFFFFFFFFFFFFFFFFFFFFFFFF AND SWAP1 POP PUSH0 PUSH20 0xFFFFFFFFFFFFFFFFFFFFFFFFFFFFFFFFFFFFFFFF AND DUP2 PUSH20 0xFFFFFFFFFFFFFFFFFFFFFFFFFFFFFFFFFFFFFFFF AND SUB PUSH2 0x1798 JUMPI PUSH1 0x40 MLOAD PUSH32 0x8C379A000000000000000000000000000000000000000000000000000000000 DUP2 MSTORE PUSH1 0x4 ADD PUSH2 0x178F SWAP1 PUSH2 0x4945 JUMP JUMPDEST PUSH1 0x40 MLOAD DUP1 SWAP2 SUB SWAP1 REVERT JUMPDEST PUSH0 PUSH1 0x3 PUSH0 DUP4 PUSH20 0xFFFFFFFFFFFFFFFFFFFFFFFFFFFFFFFFFFFFFFFF AND PUSH20 0xFFFFFFFFFFFFFFFFFFFFFFFFFFFFFFFFFFFFFFFF AND DUP2 MSTORE PUSH1 0x20 ADD SWAP1 DUP2 MSTORE PUSH1 0x20 ADD PUSH0 KECCAK256 SWAP1 POP DUP1 PUSH1 0x4 ADD PUSH0 SWAP1 SLOAD SWAP1 PUSH2 0x100 EXP SWAP1 DIV PUSH1 0xFF AND PUSH2 0x1828 JUMPI PUSH1 0x40 MLOAD PUSH32 0x8C379A000000000000000000000000000000000000000000000000000000000 DUP2 MSTORE PUSH1 0x4 ADD PUSH2 0x181F SWAP1 PUSH2 0x4291 JUMP JUMPDEST PUSH1 0x40 MLOAD DUP1 SWAP2 SUB SWAP1 REVERT JUMPDEST PUSH0 DUP2 PUSH1 0x1 ADD PUSH0 SWAP1 SLOAD SWAP1 PUSH2 0x100 EXP SWAP1 DIV PUSH1 0xFF AND PUSH1 0xFF AND SUB PUSH2 0x18FD JUMPI PUSH0 PUSH0 PUSH2 0x184D DUP7 PUSH2 0x2C32 JUMP JUMPDEST SWAP2 POP SWAP2 POP DUP2 DUP4 PUSH0 ADD SWAP1 DUP2 PUSH2 0x1861 SWAP2 SWAP1 PUSH2 0x4178 JUMP JUMPDEST POP PUSH1 0xA PUSH1 0xFF AND DUP2 GT PUSH2 0x1873 JUMPI DUP1 PUSH2 0x1879 JUMP JUMPDEST PUSH1 0xA PUSH1 0xFF AND JUMPDEST DUP4 PUSH1 0x4 ADD PUSH1 0x1 PUSH2 0x100 EXP DUP2 SLOAD DUP2 PUSH1 0xFF MUL NOT AND SWAP1 DUP4 PUSH1 0xFF AND MUL OR SWAP1 SSTORE POP DUP4 PUSH20 0xFFFFFFFFFFFFFFFFFFFFFFFFFFFFFFFFFFFFFFFF AND PUSH32 0x24BB3705C7AD2A404FD0ED31143A60AC9C3ACF33C50E13C6FFD8D47330C6D9F3 DUP4 DUP6 PUSH1 0x4 ADD PUSH1 0x1 SWAP1 SLOAD SWAP1 PUSH2 0x100 EXP SWAP1 DIV PUSH1 0xFF AND PUSH1 0x40 MLOAD PUSH2 0x18EE SWAP3 SWAP2 SWAP1 PUSH2 0x4963 JUMP JUMPDEST PUSH1 0x40 MLOAD DUP1 SWAP2 SUB SWAP1 LOG2 POP POP PUSH2 0x1C33 JUMP JUMPDEST PUSH0 PUSH1 0x40 MLOAD DUP1 PUSH1 0x40 ADD PUSH1 0x40 MSTORE DUP1 PUSH1 0x1 DUP2 MSTORE PUSH1 0x20 ADD PUSH32 0x3100000000000000000000000000000000000000000000000000000000000000 DUP2 MSTORE POP PUSH0 DUP2 MLOAD DUP2 LT PUSH2 0x1946 JUMPI PUSH2 0x1945 PUSH2 0x4540 JUMP JUMPDEST JUMPDEST PUSH1 0x20 ADD ADD MLOAD PUSH1 0xF8 SHR PUSH1 0xF8 SHL PUSH1 0xF8 SHR PUSH1 0xFF AND DUP6 PUSH0 DUP2 MLOAD DUP2 LT PUSH2 0x196A JUMPI PUSH2 0x1969 PUSH2 0x4540 JUMP JUMPDEST JUMPDEST PUSH1 0x20 ADD ADD MLOAD PUSH1 0xF8 SHR PUSH1 0xF8 SHL PUSH1 0xF8 SHR PUSH1 0xFF AND EQ SWAP1 POP DUP1 ISZERO PUSH2 0x199E JUMPI DUP2 PUSH1 0x2 ADD PUSH0 DUP2 SLOAD DUP1 SWAP3 SWAP2 SWAP1 PUSH2 0x1998 SWAP1 PUSH2 0x4991 JUMP JUMPDEST SWAP2 SWAP1 POP SSTORE POP JUMPDEST DUP3 PUSH20 0xFFFFFFFFFFFFFFFFFFFFFFFFFFFFFFFFFFFFFFFF AND PUSH32 0xB768089C188A4564FCCB0BB3CFC28EB0DD9AA31F098324D1A7D7E2AD929674BC DUP3 DUP5 PUSH1 0x1 ADD PUSH0 SWAP1 SLOAD SWAP1 PUSH2 0x100 EXP SWAP1 DIV PUSH1 0xFF AND PUSH1 0x40 MLOAD PUSH2 0x19F6 SWAP3 SWAP2 SWAP1 PUSH2 0x49D8 JUMP JUMPDEST PUSH1 0x40 MLOAD DUP1 SWAP2 SUB SWAP1 LOG2 DUP2 PUSH1 0x1 ADD PUSH0 DUP2 DUP2 SWAP1 SLOAD SWAP1 PUSH2 0x100 EXP SWAP1 DIV PUSH1 0xFF AND DUP1 SWAP3 SWAP2 SWAP1 PUSH2 0x1A1E SWAP1 PUSH2 0x49FF JUMP JUMPDEST SWAP2 SWAP1 PUSH2 0x100 EXP DUP2 SLOAD DUP2 PUSH1 0xFF MUL NOT AND SWAP1 DUP4 PUSH1 0xFF AND MUL OR SWAP1 SSTORE POP POP DUP2 PUSH1 0x4 ADD PUSH1 0x1 SWAP1 SLOAD SWAP1 PUSH2 0x100 EXP SWAP1 DIV PUSH1 0xFF AND PUSH1 0xFF AND DUP3 PUSH1 0x1 ADD PUSH0 SWAP1 SLOAD SWAP1 PUSH2 0x100 EXP SWAP1 DIV PUSH1 0xFF AND PUSH1 0xFF AND LT PUSH2 0x1C31 JUMPI PUSH0 DUP3 PUSH1 0x4 ADD PUSH0 PUSH2 0x100 EXP DUP2 SLOAD DUP2 PUSH1 0xFF MUL NOT AND SWAP1 DUP4 ISZERO ISZERO MUL OR SWAP1 SSTORE POP PUSH0 PUSH8 0x1BC16D674EC80000 DUP4 PUSH1 0x2 ADD SLOAD PUSH2 0x1A99 SWAP2 SWAP1 PUSH2 0x4A27 JUMP JUMPDEST SWAP1 POP PUSH0 DUP2 GT ISZERO PUSH2 0x1B40 JUMPI PUSH32 0x0 PUSH20 0xFFFFFFFFFFFFFFFFFFFFFFFFFFFFFFFFFFFFFFFF AND PUSH4 0xA9059CBB DUP6 DUP4 PUSH1 0x40 MLOAD DUP4 PUSH4 0xFFFFFFFF AND PUSH1 0xE0 SHL DUP2 MSTORE PUSH1 0x4 ADD PUSH2 0x1AFE SWAP3 SWAP2 SWAP1 PUSH2 0x4765 JUMP JUMPDEST PUSH1 0x20 PUSH1 0x40 MLOAD DUP1 DUP4 SUB DUP2 PUSH0 DUP8 GAS CALL ISZERO DUP1 ISZERO PUSH2 0x1B1A JUMPI RETURNDATASIZE PUSH0 PUSH0 RETURNDATACOPY RETURNDATASIZE PUSH0 REVERT JUMPDEST POP POP POP POP PUSH1 0x40 MLOAD RETURNDATASIZE PUSH1 0x1F NOT PUSH1 0x1F DUP3 ADD AND DUP3 ADD DUP1 PUSH1 0x40 MSTORE POP DUP2 ADD SWAP1 PUSH2 0x1B3E SWAP2 SWAP1 PUSH2 0x3EAB JUMP JUMPDEST POP JUMPDEST DUP4 PUSH20 0xFFFFFFFFFFFFFFFFFFFFFFFFFFFFFFFFFFFFFFFF AND PUSH32 0x8E71BC2C0606DECC62CB81EBFFC09590F1445FCCBC0149CA781A2A862CD77AD9 DUP5 PUSH1 0x2 ADD SLOAD PUSH1 0x40 MLOAD PUSH2 0x1B8A SWAP2 SWAP1 PUSH2 0x4A68 JUMP JUMPDEST PUSH1 0x40 MLOAD DUP1 SWAP2 SUB SWAP1 LOG2 PUSH1 0x3 PUSH0 DUP6 PUSH20 0xFFFFFFFFFFFFFFFFFFFFFFFFFFFFFFFFFFFFFFFF AND PUSH20 0xFFFFFFFFFFFFFFFFFFFFFFFFFFFFFFFFFFFFFFFF AND DUP2 MSTORE PUSH1 0x20 ADD SWAP1 DUP2 MSTORE PUSH1 0x20 ADD PUSH0 KECCAK256 PUSH0 PUSH0 DUP3 ADD PUSH0 PUSH2 0x1BDE SWAP2 SWAP1 PUSH2 0x35DB JUMP JUMPDEST PUSH1 0x1 DUP3 ADD PUSH0 PUSH2 0x100 EXP DUP2 SLOAD SWAP1 PUSH1 0xFF MUL NOT AND SWAP1 SSTORE PUSH1 0x2 DUP3 ADD PUSH0 SWAP1 SSTORE PUSH1 0x3 DUP3 ADD PUSH0 SWAP1 SSTORE PUSH1 0x4 DUP3 ADD PUSH0 PUSH2 0x100 EXP DUP2 SLOAD SWAP1 PUSH1 0xFF MUL NOT AND SWAP1 SSTORE PUSH1 0x4 DUP3 ADD PUSH1 0x1 PUSH2 0x100 EXP DUP2 SLOAD SWAP1 PUSH1 0xFF MUL NOT AND SWAP1 SSTORE PUSH1 0x5 DUP3 ADD PUSH0 SWAP1 SSTORE POP POP POP JUMPDEST POP JUMPDEST PUSH1 0x4 PUSH0 DUP7 DUP2 MSTORE PUSH1 0x20 ADD SWAP1 DUP2 MSTORE PUSH1 0x20 ADD PUSH0 KECCAK256 PUSH0 PUSH2 0x100 EXP DUP2 SLOAD SWAP1 PUSH20 0xFFFFFFFFFFFFFFFFFFFFFFFFFFFFFFFFFFFFFFFF MUL NOT AND SWAP1 SSTORE POP POP POP POP POP JUMP JUMPDEST PUSH1 0x2 DUP1 SLOAD SUB PUSH2 0x1CB1 JUMPI PUSH1 0x40 MLOAD PUSH32 0x8C379A000000000000000000000000000000000000000000000000000000000 DUP2 MSTORE PUSH1 0x4 ADD PUSH2 0x1CA8 SWAP1 PUSH2 0x4ACB JUMP JUMPDEST PUSH1 0x40 MLOAD DUP1 SWAP2 SUB SWAP1 REVERT JUMPDEST PUSH1 0x2 DUP1 DUP2 SWAP1 SSTORE POP JUMP JUMPDEST PUSH0 PUSH0 PUSH0 SWAP1 POP JUMPDEST DUP4 DUP4 SWAP1 POP DUP2 LT ISZERO PUSH2 0x1D86 JUMPI PUSH0 PUSH0 SWAP1 POP PUSH0 PUSH0 SWAP1 POP JUMPDEST PUSH1 0x5 DUP1 SLOAD SWAP1 POP DUP2 LT ISZERO PUSH2 0x1D68 JUMPI PUSH1 0x5 DUP2 DUP2 SLOAD DUP2 LT PUSH2 0x1CF5 JUMPI PUSH2 0x1CF4 PUSH2 0x4540 JUMP JUMPDEST JUMPDEST SWAP1 PUSH0 MSTORE PUSH1 0x20 PUSH0 KECCAK256 ADD PUSH1 0x40 MLOAD PUSH2 0x1D0A SWAP2 SWAP1 PUSH2 0x4B85 JUMP JUMPDEST PUSH1 0x40 MLOAD DUP1 SWAP2 SUB SWAP1 KECCAK256 DUP7 DUP7 DUP6 DUP2 DUP2 LT PUSH2 0x1D25 JUMPI PUSH2 0x1D24 PUSH2 0x4540 JUMP JUMPDEST JUMPDEST SWAP1 POP PUSH1 0x20 MUL DUP2 ADD SWAP1 PUSH2 0x1D37 SWAP2 SWAP1 PUSH2 0x4BA7 JUMP JUMPDEST PUSH1 0x40 MLOAD PUSH2 0x1D45 SWAP3 SWAP2 SWAP1 PUSH2 0x4C2D JUMP JUMPDEST PUSH1 0x40 MLOAD DUP1 SWAP2 SUB SWAP1 KECCAK256 SUB PUSH2 0x1D5B JUMPI PUSH1 0x1 SWAP2 POP PUSH2 0x1D68 JUMP JUMPDEST DUP1 DUP1 PUSH1 0x1 ADD SWAP2 POP POP PUSH2 0x1CD4 JUMP JUMPDEST POP DUP1 PUSH2 0x1D78 JUMPI PUSH0 SWAP3 POP POP POP PUSH2 0x1D8C JUMP JUMPDEST POP DUP1 DUP1 PUSH1 0x1 ADD SWAP2 POP POP PUSH2 0x1CC0 JUMP JUMPDEST POP PUSH1 0x1 SWAP1 POP JUMPDEST SWAP3 SWAP2 POP POP JUMP JUMPDEST PUSH1 0x60 PUSH0 DUP3 SUB PUSH2 0x1DD8 JUMPI PUSH1 0x40 MLOAD DUP1 PUSH1 0x40 ADD PUSH1 0x40 MSTORE DUP1 PUSH1 0x1 DUP2 MSTORE PUSH1 0x20 ADD PUSH32 0x3000000000000000000000000000000000000000000000000000000000000000 DUP2 MSTORE POP SWAP1 POP PUSH2 0x1EE6 JUMP JUMPDEST PUSH0 DUP3 SWAP1 POP PUSH0 JUMPDEST PUSH0 DUP3 EQ PUSH2 0x1E07 JUMPI DUP1 DUP1 PUSH2 0x1DF0 SWAP1 PUSH2 0x4991 JUMP JUMPDEST SWAP2 POP POP PUSH1 0xA DUP3 PUSH2 0x1E00 SWAP2 SWAP1 PUSH2 0x4C45 JUMP JUMPDEST SWAP2 POP PUSH2 0x1DDE JUMP JUMPDEST PUSH0 DUP2 PUSH8 0xFFFFFFFFFFFFFFFF DUP2 GT ISZERO PUSH2 0x1E22 JUMPI PUSH2 0x1E21 PUSH2 0x36C7 JUMP JUMPDEST JUMPDEST PUSH1 0x40 MLOAD SWAP1 DUP1 DUP3 MSTORE DUP1 PUSH1 0x1F ADD PUSH1 0x1F NOT AND PUSH1 0x20 ADD DUP3 ADD PUSH1 0x40 MSTORE DUP1 ISZERO PUSH2 0x1E54 JUMPI DUP2 PUSH1 0x20 ADD PUSH1 0x1 DUP3 MUL DUP1 CALLDATASIZE DUP4 CALLDATACOPY DUP1 DUP3 ADD SWAP2 POP POP SWAP1 POP JUMPDEST POP SWAP1 POP JUMPDEST PUSH0 DUP6 EQ PUSH2 0x1EDF JUMPI PUSH1 0x1 DUP3 PUSH2 0x1E6C SWAP2 SWAP1 PUSH2 0x4C75 JUMP JUMPDEST SWAP2 POP PUSH1 0xA DUP6 PUSH2 0x1E7B SWAP2 SWAP1 PUSH2 0x459A JUMP JUMPDEST PUSH1 0x30 PUSH2 0x1E87 SWAP2 SWAP1 PUSH2 0x46CA JUMP JUMPDEST PUSH1 0xF8 SHL DUP2 DUP4 DUP2 MLOAD DUP2 LT PUSH2 0x1E9D JUMPI PUSH2 0x1E9C PUSH2 0x4540 JUMP JUMPDEST JUMPDEST PUSH1 0x20 ADD ADD SWAP1 PUSH31 0xFFFFFFFFFFFFFFFFFFFFFFFFFFFFFFFFFFFFFFFFFFFFFFFFFFFFFFFFFFFFFF NOT AND SWAP1 DUP2 PUSH0 BYTE SWAP1 MSTORE8 POP PUSH1 0xA DUP6 PUSH2 0x1ED8 SWAP2 SWAP1 PUSH2 0x4C45 JUMP JUMPDEST SWAP5 POP PUSH2 0x1E58 JUMP JUMPDEST DUP1 SWAP4 POP POP POP POP JUMPDEST SWAP2 SWAP1 POP JUMP JUMPDEST PUSH1 0x1 PUSH1 0x2 DUP2 SWAP1 SSTORE POP JUMP JUMPDEST PUSH1 0x60 PUSH1 0x40 MLOAD DUP1 PUSH2 0x200 ADD PUSH1 0x40 MSTORE DUP1 PUSH2 0x1CD DUP2 MSTORE PUSH1 0x20 ADD PUSH2 0x5264 PUSH2 0x1CD SWAP2 CODECOPY SWAP1 POP SWAP1 JUMP JUMPDEST PUSH2 0x1F24 DUP3 PUSH0 PUSH0 DUP5 PUSH2 0x2D1C JUMP JUMPDEST POP POP JUMP JUMPDEST PUSH1 0x60 PUSH0 DUP3 PUSH1 0xFF AND PUSH8 0xFFFFFFFFFFFFFFFF DUP2 GT ISZERO PUSH2 0x1F48 JUMPI PUSH2 0x1F47 PUSH2 0x36C7 JUMP JUMPDEST JUMPDEST PUSH1 0x40 MLOAD SWAP1 DUP1 DUP3 MSTORE DUP1 PUSH1 0x20 MUL PUSH1 0x20 ADD DUP3 ADD PUSH1 0x40 MSTORE DUP1 ISZERO PUSH2 0x1F7B JUMPI DUP2 PUSH1 0x20 ADD JUMPDEST PUSH1 0x60 DUP2 MSTORE PUSH1 0x20 ADD SWAP1 PUSH1 0x1 SWAP1 SUB SWAP1 DUP2 PUSH2 0x1F66 JUMPI SWAP1 POP JUMPDEST POP SWAP1 POP PUSH0 PUSH1 0x5 DUP1 SLOAD SWAP1 POP SWAP1 POP PUSH0 PUSH0 SWAP1 POP JUMPDEST DUP5 PUSH1 0xFF AND DUP2 PUSH1 0xFF AND LT ISZERO PUSH2 0x208D JUMPI PUSH0 DUP3 PUSH1 0x8 DUP4 PUSH2 0x1FA9 SWAP2 SWAP1 PUSH2 0x4CA8 JUMP JUMPDEST PUSH1 0xFF AND DUP9 SWAP1 SHR PUSH2 0x1FB9 SWAP2 SWAP1 PUSH2 0x459A JUMP JUMPDEST SWAP1 POP PUSH1 0x5 DUP2 DUP2 SLOAD DUP2 LT PUSH2 0x1FCF JUMPI PUSH2 0x1FCE PUSH2 0x4540 JUMP JUMPDEST JUMPDEST SWAP1 PUSH0 MSTORE PUSH1 0x20 PUSH0 KECCAK256 ADD DUP1 SLOAD PUSH2 0x1FE2 SWAP1 PUSH2 0x3FA8 JUMP JUMPDEST DUP1 PUSH1 0x1F ADD PUSH1 0x20 DUP1 SWAP2 DIV MUL PUSH1 0x20 ADD PUSH1 0x40 MLOAD SWAP1 DUP2 ADD PUSH1 0x40 MSTORE DUP1 SWAP3 SWAP2 SWAP1 DUP2 DUP2 MSTORE PUSH1 0x20 ADD DUP3 DUP1 SLOAD PUSH2 0x200E SWAP1 PUSH2 0x3FA8 JUMP JUMPDEST DUP1 ISZERO PUSH2 0x2059 JUMPI DUP1 PUSH1 0x1F LT PUSH2 0x2030 JUMPI PUSH2 0x100 DUP1 DUP4 SLOAD DIV MUL DUP4 MSTORE SWAP2 PUSH1 0x20 ADD SWAP2 PUSH2 0x2059 JUMP JUMPDEST DUP3 ADD SWAP2 SWAP1 PUSH0 MSTORE PUSH1 0x20 PUSH0 KECCAK256 SWAP1 JUMPDEST DUP2 SLOAD DUP2 MSTORE SWAP1 PUSH1 0x1 ADD SWAP1 PUSH1 0x20 ADD DUP1 DUP4 GT PUSH2 0x203C JUMPI DUP3 SWAP1 SUB PUSH1 0x1F AND DUP3 ADD SWAP2 JUMPDEST POP POP POP POP POP DUP5 DUP4 PUSH1 0xFF AND DUP2 MLOAD DUP2 LT PUSH2 0x2074 JUMPI PUSH2 0x2073 PUSH2 0x4540 JUMP JUMPDEST JUMPDEST PUSH1 0x20 MUL PUSH1 0x20 ADD ADD DUP2 SWAP1 MSTORE POP POP DUP1 DUP1 PUSH1 0x1 ADD SWAP2 POP POP PUSH2 0x1F8C JUMP JUMPDEST POP DUP2 SWAP3 POP POP POP SWAP3 SWAP2 POP POP JUMP JUMPDEST PUSH1 0x60 PUSH0 PUSH1 0x40 MLOAD DUP1 PUSH1 0x40 ADD PUSH1 0x40 MSTORE DUP1 PUSH1 0x1 DUP2 MSTORE PUSH1 0x20 ADD PUSH32 0x5B00000000000000000000000000000000000000000000000000000000000000 DUP2 MSTORE POP SWAP1 POP PUSH0 PUSH0 SWAP1 POP JUMPDEST DUP4 MLOAD DUP2 LT ISZERO PUSH2 0x2165 JUMPI DUP2 DUP5 DUP3 DUP2 MLOAD DUP2 LT PUSH2 0x20F6 JUMPI PUSH2 0x20F5 PUSH2 0x4540 JUMP JUMPDEST JUMPDEST PUSH1 0x20 MUL PUSH1 0x20 ADD ADD MLOAD PUSH1 0x40 MLOAD PUSH1 0x20 ADD PUSH2 0x210F SWAP3 SWAP2 SWAP1 PUSH2 0x4D2E JUMP JUMPDEST PUSH1 0x40 MLOAD PUSH1 0x20 DUP2 DUP4 SUB SUB DUP2 MSTORE SWAP1 PUSH1 0x40 MSTORE SWAP2 POP PUSH1 0x1 DUP5 MLOAD PUSH2 0x212E SWAP2 SWAP1 PUSH2 0x4C75 JUMP JUMPDEST DUP2 LT ISZERO PUSH2 0x2158 JUMPI DUP2 PUSH1 0x40 MLOAD PUSH1 0x20 ADD PUSH2 0x2146 SWAP2 SWAP1 PUSH2 0x4DB1 JUMP JUMPDEST PUSH1 0x40 MLOAD PUSH1 0x20 DUP2 DUP4 SUB SUB DUP2 MSTORE SWAP1 PUSH1 0x40 MSTORE SWAP2 POP JUMPDEST DUP1 DUP1 PUSH1 0x1 ADD SWAP2 POP POP PUSH2 0x20D9 JUMP JUMPDEST POP DUP1 PUSH1 0x40 MLOAD PUSH1 0x20 ADD PUSH2 0x2177 SWAP2 SWAP1 PUSH2 0x4E1C JUMP JUMPDEST PUSH1 0x40 MLOAD PUSH1 0x20 DUP2 DUP4 SUB SUB DUP2 MSTORE SWAP1 PUSH1 0x40 MSTORE SWAP2 POP POP SWAP2 SWAP1 POP JUMP JUMPDEST PUSH1 0x60 PUSH0 PUSH1 0x40 MLOAD DUP1 PUSH1 0x40 ADD PUSH1 0x40 MSTORE DUP1 PUSH1 0x10 DUP2 MSTORE PUSH1 0x20 ADD PUSH32 0x3031323334353637383961626364656600000000000000000000000000000000 DUP2 MSTORE POP SWAP1 POP PUSH0 PUSH1 0x2A PUSH8 0xFFFFFFFFFFFFFFFF DUP2 GT ISZERO PUSH2 0x21E5 JUMPI PUSH2 0x21E4 PUSH2 0x36C7 JUMP JUMPDEST JUMPDEST PUSH1 0x40 MLOAD SWAP1 DUP1 DUP3 MSTORE DUP1 PUSH1 0x1F ADD PUSH1 0x1F NOT AND PUSH1 0x20 ADD DUP3 ADD PUSH1 0x40 MSTORE DUP1 ISZERO PUSH2 0x2217 JUMPI DUP2 PUSH1 0x20 ADD PUSH1 0x1 DUP3 MUL DUP1 CALLDATASIZE DUP4 CALLDATACOPY DUP1 DUP3 ADD SWAP2 POP POP SWAP1 POP JUMPDEST POP SWAP1 POP PUSH32 0x3000000000000000000000000000000000000000000000000000000000000000 DUP2 PUSH0 DUP2 MLOAD DUP2 LT PUSH2 0x224E JUMPI PUSH2 0x224D PUSH2 0x4540 JUMP JUMPDEST JUMPDEST PUSH1 0x20 ADD ADD SWAP1 PUSH31 0xFFFFFFFFFFFFFFFFFFFFFFFFFFFFFFFFFFFFFFFFFFFFFFFFFFFFFFFFFFFFFF NOT AND SWAP1 DUP2 PUSH0 BYTE SWAP1 MSTORE8 POP PUSH32 0x7800000000000000000000000000000000000000000000000000000000000000 DUP2 PUSH1 0x1 DUP2 MLOAD DUP2 LT PUSH2 0x22B1 JUMPI PUSH2 0x22B0 PUSH2 0x4540 JUMP JUMPDEST JUMPDEST PUSH1 0x20 ADD ADD SWAP1 PUSH31 0xFFFFFFFFFFFFFFFFFFFFFFFFFFFFFFFFFFFFFFFFFFFFFFFFFFFFFFFFFFFFFF NOT AND SWAP1 DUP2 PUSH0 BYTE SWAP1 MSTORE8 POP PUSH0 PUSH0 SWAP1 POP JUMPDEST PUSH1 0x14 DUP2 LT ISZERO PUSH2 0x247E JUMPI DUP3 PUSH1 0xF PUSH1 0x2 DUP4 PUSH2 0x22FD SWAP2 SWAP1 PUSH2 0x4A27 JUMP JUMPDEST PUSH1 0x27 PUSH2 0x2309 SWAP2 SWAP1 PUSH2 0x4C75 JUMP JUMPDEST PUSH1 0x10 PUSH2 0x2315 SWAP2 SWAP1 PUSH2 0x4F6C JUMP JUMPDEST DUP8 PUSH20 0xFFFFFFFFFFFFFFFFFFFFFFFFFFFFFFFFFFFFFFFF AND PUSH2 0x2336 SWAP2 SWAP1 PUSH2 0x4C45 JUMP JUMPDEST AND PUSH1 0xFF AND DUP2 MLOAD DUP2 LT PUSH2 0x234B JUMPI PUSH2 0x234A PUSH2 0x4540 JUMP JUMPDEST JUMPDEST PUSH1 0x20 ADD ADD MLOAD PUSH1 0xF8 SHR PUSH1 0xF8 SHL DUP3 PUSH1 0x2 DUP4 PUSH2 0x2364 SWAP2 SWAP1 PUSH2 0x4A27 JUMP JUMPDEST PUSH1 0x2 PUSH2 0x2370 SWAP2 SWAP1 PUSH2 0x46CA JUMP JUMPDEST DUP2 MLOAD DUP2 LT PUSH2 0x2381 JUMPI PUSH2 0x2380 PUSH2 0x4540 JUMP JUMPDEST JUMPDEST PUSH1 0x20 ADD ADD SWAP1 PUSH31 0xFFFFFFFFFFFFFFFFFFFFFFFFFFFFFFFFFFFFFFFFFFFFFFFFFFFFFFFFFFFFFF NOT AND SWAP1 DUP2 PUSH0 BYTE SWAP1 MSTORE8 POP DUP3 PUSH1 0xF PUSH1 0x2 DUP4 PUSH2 0x23BF SWAP2 SWAP1 PUSH2 0x4A27 JUMP JUMPDEST PUSH1 0x26 PUSH2 0x23CB SWAP2 SWAP1 PUSH2 0x4C75 JUMP JUMPDEST PUSH1 0x10 PUSH2 0x23D7 SWAP2 SWAP1 PUSH2 0x4F6C JUMP JUMPDEST DUP8 PUSH20 0xFFFFFFFFFFFFFFFFFFFFFFFFFFFFFFFFFFFFFFFF AND PUSH2 0x23F8 SWAP2 SWAP1 PUSH2 0x4C45 JUMP JUMPDEST AND PUSH1 0xFF AND DUP2 MLOAD DUP2 LT PUSH2 0x240D JUMPI PUSH2 0x240C PUSH2 0x4540 JUMP JUMPDEST JUMPDEST PUSH1 0x20 ADD ADD MLOAD PUSH1 0xF8 SHR PUSH1 0xF8 SHL DUP3 PUSH1 0x2 DUP4 PUSH2 0x2426 SWAP2 SWAP1 PUSH2 0x4A27 JUMP JUMPDEST PUSH1 0x3 PUSH2 0x2432 SWAP2 SWAP1 PUSH2 0x46CA JUMP JUMPDEST DUP2 MLOAD DUP2 LT PUSH2 0x2443 JUMPI PUSH2 0x2442 PUSH2 0x4540 JUMP JUMPDEST JUMPDEST PUSH1 0x20 ADD ADD SWAP1 PUSH31 0xFFFFFFFFFFFFFFFFFFFFFFFFFFFFFFFFFFFFFFFFFFFFFFFFFFFFFFFFFFFFFF NOT AND SWAP1 DUP2 PUSH0 BYTE SWAP1 MSTORE8 POP DUP1 DUP1 PUSH1 0x1 ADD SWAP2 POP POP PUSH2 0x22E4 JUMP JUMPDEST POP DUP1 SWAP3 POP POP POP SWAP2 SWAP1 POP JUMP JUMPDEST PUSH1 0x60 PUSH1 0x40 MLOAD DUP1 PUSH1 0x40 ADD PUSH1 0x40 MSTORE DUP1 PUSH1 0x15 DUP2 MSTORE PUSH1 0x20 ADD PUSH32 0x687474703A2F2F6C6F63616C686F73743A353030300000000000000000000000 DUP2 MSTORE POP SWAP1 POP SWAP1 JUMP JUMPDEST PUSH1 0x60 PUSH1 0x40 MLOAD DUP1 PUSH1 0x60 ADD PUSH1 0x40 MSTORE DUP1 PUSH1 0x28 DUP2 MSTORE PUSH1 0x20 ADD PUSH2 0x523C PUSH1 0x28 SWAP2 CODECOPY SWAP1 POP SWAP1 JUMP JUMPDEST PUSH1 0x60 PUSH1 0x40 MLOAD DUP1 PUSH1 0x40 ADD PUSH1 0x40 MSTORE DUP1 PUSH1 0xC DUP2 MSTORE PUSH1 0x20 ADD PUSH32 0x307C313734393032353436350000000000000000000000000000000000000000 DUP2 MSTORE POP SWAP1 POP SWAP1 JUMP JUMPDEST PUSH0 DUP2 MLOAD SUB PUSH2 0x255D JUMPI PUSH1 0x40 MLOAD PUSH32 0xFE936CB700000000000000000000000000000000000000000000000000000000 DUP2 MSTORE PUSH1 0x4 ADD PUSH1 0x40 MLOAD DUP1 SWAP2 SUB SWAP1 REVERT JUMPDEST DUP1 DUP3 PUSH1 0xA0 ADD DUP2 SWAP1 MSTORE POP POP POP JUMP JUMPDEST PUSH1 0x60 PUSH0 PUSH2 0x2578 PUSH2 0x100 PUSH2 0x2DC2 JUMP JUMPDEST SWAP1 POP PUSH2 0x25C2 PUSH1 0x40 MLOAD DUP1 PUSH1 0x40 ADD PUSH1 0x40 MSTORE DUP1 PUSH1 0xC DUP2 MSTORE PUSH1 0x20 ADD PUSH32 0x636F64654C6F636174696F6E0000000000000000000000000000000000000000 DUP2 MSTORE POP DUP3 PUSH2 0x2DE7 SWAP1 SWAP2 SWAP1 PUSH4 0xFFFFFFFF AND JUMP JUMPDEST PUSH2 0x25EA DUP4 PUSH0 ADD MLOAD PUSH1 0x2 DUP2 GT ISZERO PUSH2 0x25DB JUMPI PUSH2 0x25DA PUSH2 0x4FB6 JUMP JUMPDEST JUMPDEST DUP3 PUSH2 0x2E0F SWAP1 SWAP2 SWAP1 PUSH4 0xFFFFFFFF AND JUMP JUMPDEST PUSH2 0x2632 PUSH1 0x40 MLOAD DUP1 PUSH1 0x40 ADD PUSH1 0x40 MSTORE DUP1 PUSH1 0x8 DUP2 MSTORE PUSH1 0x20 ADD PUSH32 0x6C616E6775616765000000000000000000000000000000000000000000000000 DUP2 MSTORE POP DUP3 PUSH2 0x2DE7 SWAP1 SWAP2 SWAP1 PUSH4 0xFFFFFFFF AND JUMP JUMPDEST PUSH2 0x265A DUP4 PUSH1 0x40 ADD MLOAD PUSH0 DUP2 GT ISZERO PUSH2 0x264B JUMPI PUSH2 0x264A PUSH2 0x4FB6 JUMP JUMPDEST JUMPDEST DUP3 PUSH2 0x2E0F SWAP1 SWAP2 SWAP1 PUSH4 0xFFFFFFFF AND JUMP JUMPDEST PUSH2 0x26A2 PUSH1 0x40 MLOAD DUP1 PUSH1 0x40 ADD PUSH1 0x40 MSTORE DUP1 PUSH1 0x6 DUP2 MSTORE PUSH1 0x20 ADD PUSH32 0x736F757263650000000000000000000000000000000000000000000000000000 DUP2 MSTORE POP DUP3 PUSH2 0x2DE7 SWAP1 SWAP2 SWAP1 PUSH4 0xFFFFFFFF AND JUMP JUMPDEST PUSH2 0x26B9 DUP4 PUSH1 0x60 ADD MLOAD DUP3 PUSH2 0x2DE7 SWAP1 SWAP2 SWAP1 PUSH4 0xFFFFFFFF AND JUMP JUMPDEST PUSH0 DUP4 PUSH1 0xA0 ADD MLOAD MLOAD GT ISZERO PUSH2 0x2770 JUMPI PUSH2 0x270E PUSH1 0x40 MLOAD DUP1 PUSH1 0x40 ADD PUSH1 0x40 MSTORE DUP1 PUSH1 0x4 DUP2 MSTORE PUSH1 0x20 ADD PUSH32 0x6172677300000000000000000000000000000000000000000000000000000000 DUP2 MSTORE POP DUP3 PUSH2 0x2DE7 SWAP1 SWAP2 SWAP1 PUSH4 0xFFFFFFFF AND JUMP JUMPDEST PUSH2 0x2717 DUP2 PUSH2 0x2E5E JUMP JUMPDEST PUSH0 PUSH0 SWAP1 POP JUMPDEST DUP4 PUSH1 0xA0 ADD MLOAD MLOAD DUP2 LT ISZERO PUSH2 0x2765 JUMPI PUSH2 0x275A DUP5 PUSH1 0xA0 ADD MLOAD DUP3 DUP2 MLOAD DUP2 LT PUSH2 0x2743 JUMPI PUSH2 0x2742 PUSH2 0x4540 JUMP JUMPDEST JUMPDEST PUSH1 0x20 MUL PUSH1 0x20 ADD ADD MLOAD DUP4 PUSH2 0x2DE7 SWAP1 SWAP2 SWAP1 PUSH4 0xFFFFFFFF AND JUMP JUMPDEST DUP1 PUSH1 0x1 ADD SWAP1 POP PUSH2 0x271C JUMP JUMPDEST POP PUSH2 0x276F DUP2 PUSH2 0x2E86 JUMP JUMPDEST JUMPDEST PUSH0 DUP4 PUSH1 0x80 ADD MLOAD MLOAD GT ISZERO PUSH2 0x28AF JUMPI PUSH0 PUSH1 0x2 DUP2 GT ISZERO PUSH2 0x2790 JUMPI PUSH2 0x278F PUSH2 0x4FB6 JUMP JUMPDEST JUMPDEST DUP4 PUSH1 0x20 ADD MLOAD PUSH1 0x2 DUP2 GT ISZERO PUSH2 0x27A7 JUMPI PUSH2 0x27A6 PUSH2 0x4FB6 JUMP JUMPDEST JUMPDEST SUB PUSH2 0x27DE JUMPI PUSH1 0x40 MLOAD PUSH32 0xA80D31F700000000000000000000000000000000000000000000000000000000 DUP2 MSTORE PUSH1 0x4 ADD PUSH1 0x40 MLOAD DUP1 SWAP2 SUB SWAP1 REVERT JUMPDEST PUSH2 0x2826 PUSH1 0x40 MLOAD DUP1 PUSH1 0x40 ADD PUSH1 0x40 MSTORE DUP1 PUSH1 0xF DUP2 MSTORE PUSH1 0x20 ADD PUSH32 0x736563726574734C6F636174696F6E0000000000000000000000000000000000 DUP2 MSTORE POP DUP3 PUSH2 0x2DE7 SWAP1 SWAP2 SWAP1 PUSH4 0xFFFFFFFF AND JUMP JUMPDEST PUSH2 0x284F DUP4 PUSH1 0x20 ADD MLOAD PUSH1 0x2 DUP2 GT ISZERO PUSH2 0x2840 JUMPI PUSH2 0x283F PUSH2 0x4FB6 JUMP JUMPDEST JUMPDEST DUP3 PUSH2 0x2E0F SWAP1 SWAP2 SWAP1 PUSH4 0xFFFFFFFF AND JUMP JUMPDEST PUSH2 0x2897 PUSH1 0x40 MLOAD DUP1 PUSH1 0x40 ADD PUSH1 0x40 MSTORE DUP1 PUSH1 0x7 DUP2 MSTORE PUSH1 0x20 ADD PUSH32 0x7365637265747300000000000000000000000000000000000000000000000000 DUP2 MSTORE POP DUP3 PUSH2 0x2DE7 SWAP1 SWAP2 SWAP1 PUSH4 0xFFFFFFFF AND JUMP JUMPDEST PUSH2 0x28AE DUP4 PUSH1 0x80 ADD MLOAD DUP3 PUSH2 0x2EAE SWAP1 SWAP2 SWAP1 PUSH4 0xFFFFFFFF AND JUMP JUMPDEST JUMPDEST PUSH0 DUP4 PUSH1 0xC0 ADD MLOAD MLOAD GT ISZERO PUSH2 0x2966 JUMPI PUSH2 0x2904 PUSH1 0x40 MLOAD DUP1 PUSH1 0x40 ADD PUSH1 0x40 MSTORE DUP1 PUSH1 0x9 DUP2 MSTORE PUSH1 0x20 ADD PUSH32 0x6279746573417267730000000000000000000000000000000000000000000000 DUP2 MSTORE POP DUP3 PUSH2 0x2DE7 SWAP1 SWAP2 SWAP1 PUSH4 0xFFFFFFFF AND JUMP JUMPDEST PUSH2 0x290D DUP2 PUSH2 0x2E5E JUMP JUMPDEST PUSH0 PUSH0 SWAP1 POP JUMPDEST DUP4 PUSH1 0xC0 ADD MLOAD MLOAD DUP2 LT ISZERO PUSH2 0x295B JUMPI PUSH2 0x2950 DUP5 PUSH1 0xC0 ADD MLOAD DUP3 DUP2 MLOAD DUP2 LT PUSH2 0x2939 JUMPI PUSH2 0x2938 PUSH2 0x4540 JUMP JUMPDEST JUMPDEST PUSH1 0x20 MUL PUSH1 0x20 ADD ADD MLOAD DUP4 PUSH2 0x2EAE SWAP1 SWAP2 SWAP1 PUSH4 0xFFFFFFFF AND JUMP JUMPDEST DUP1 PUSH1 0x1 ADD SWAP1 POP PUSH2 0x2912 JUMP JUMPDEST POP PUSH2 0x2965 DUP2 PUSH2 0x2E86 JUMP JUMPDEST JUMPDEST DUP1 PUSH0 ADD MLOAD PUSH0 ADD MLOAD SWAP2 POP POP SWAP2 SWAP1 POP JUMP JUMPDEST PUSH0 PUSH0 PUSH32 0x0 PUSH20 0xFFFFFFFFFFFFFFFFFFFFFFFFFFFFFFFFFFFFFFFF AND PUSH4 0x461D2762 DUP7 DUP9 PUSH1 0x1 DUP9 DUP9 PUSH1 0x40 MLOAD DUP7 PUSH4 0xFFFFFFFF AND PUSH1 0xE0 SHL DUP2 MSTORE PUSH1 0x4 ADD PUSH2 0x29D9 SWAP6 SWAP5 SWAP4 SWAP3 SWAP2 SWAP1 PUSH2 0x50A0 JUMP JUMPDEST PUSH1 0x20 PUSH1 0x40 MLOAD DUP1 DUP4 SUB DUP2 PUSH0 DUP8 GAS CALL ISZERO DUP1 ISZERO PUSH2 0x29F5 JUMPI RETURNDATASIZE PUSH0 PUSH0 RETURNDATACOPY RETURNDATASIZE PUSH0 REVERT JUMPDEST POP POP POP POP PUSH1 0x40 MLOAD RETURNDATASIZE PUSH1 0x1F NOT PUSH1 0x1F DUP3 ADD AND DUP3 ADD DUP1 PUSH1 0x40 MSTORE POP DUP2 ADD SWAP1 PUSH2 0x2A19 SWAP2 SWAP1 PUSH2 0x510C JUMP JUMPDEST SWAP1 POP DUP1 PUSH32 0x1131472297A800FEE664D1D89CFA8F7676FF07189ECC53F80BBB5F4969099DB8 PUSH1 0x40 MLOAD PUSH1 0x40 MLOAD DUP1 SWAP2 SUB SWAP1 LOG2 DUP1 SWAP2 POP POP SWAP5 SWAP4 POP POP POP POP JUMP JUMPDEST PUSH1 0x60 PUSH1 0x40 MLOAD DUP1 PUSH2 0x200 ADD PUSH1 0x40 MSTORE DUP1 PUSH2 0x1C3 DUP2 MSTORE PUSH1 0x20 ADD PUSH2 0x5431 PUSH2 0x1C3 SWAP2 CODECOPY SWAP1 POP SWAP1 JUMP JUMPDEST PUSH0 PUSH0 SWAP1 SLOAD SWAP1 PUSH2 0x100 EXP SWAP1 DIV PUSH20 0xFFFFFFFFFFFFFFFFFFFFFFFFFFFFFFFFFFFFFFFF AND PUSH20 0xFFFFFFFFFFFFFFFFFFFFFFFFFFFFFFFFFFFFFFFF AND CALLER PUSH20 0xFFFFFFFFFFFFFFFFFFFFFFFFFFFFFFFFFFFFFFFF AND EQ PUSH2 0x2B05 JUMPI PUSH1 0x40 MLOAD PUSH32 0x8C379A000000000000000000000000000000000000000000000000000000000 DUP2 MSTORE PUSH1 0x4 ADD PUSH2 0x2AFC SWAP1 PUSH2 0x5181 JUMP JUMPDEST PUSH1 0x40 MLOAD DUP1 SWAP2 SUB SWAP1 REVERT JUMPDEST JUMP JUMPDEST CALLER PUSH20 0xFFFFFFFFFFFFFFFFFFFFFFFFFFFFFFFFFFFFFFFF AND DUP2 PUSH20 0xFFFFFFFFFFFFFFFFFFFFFFFFFFFFFFFFFFFFFFFF AND SUB PUSH2 0x2B75 JUMPI PUSH1 0x40 MLOAD PUSH32 0x8C379A000000000000000000000000000000000000000000000000000000000 DUP2 MSTORE PUSH1 0x4 ADD PUSH2 0x2B6C SWAP1 PUSH2 0x51E9 JUMP JUMPDEST PUSH1 0x40 MLOAD DUP1 SWAP2 SUB SWAP1 REVERT JUMPDEST DUP1 PUSH1 0x1 PUSH0 PUSH2 0x100 EXP DUP2 SLOAD DUP2 PUSH20 0xFFFFFFFFFFFFFFFFFFFFFFFFFFFFFFFFFFFFFFFF MUL NOT AND SWAP1 DUP4 PUSH20 0xFFFFFFFFFFFFFFFFFFFFFFFFFFFFFFFFFFFFFFFF AND MUL OR SWAP1 SSTORE POP DUP1 PUSH20 0xFFFFFFFFFFFFFFFFFFFFFFFFFFFFFFFFFFFFFFFF AND PUSH0 PUSH0 SWAP1 SLOAD SWAP1 PUSH2 0x100 EXP SWAP1 DIV PUSH20 0xFFFFFFFFFFFFFFFFFFFFFFFFFFFFFFFFFFFFFFFF AND PUSH20 0xFFFFFFFFFFFFFFFFFFFFFFFFFFFFFFFFFFFFFFFF AND PUSH32 0xED8889F560326EB138920D842192F0EB3DD22B4F139C87A2C57538E05BAE1278 PUSH1 0x40 MLOAD PUSH1 0x40 MLOAD DUP1 SWAP2 SUB SWAP1 LOG3 POP JUMP JUMPDEST PUSH1 0x60 PUSH0 PUSH0 DUP4 SWAP1 POP PUSH0 PUSH0 SWAP1 POP JUMPDEST DUP2 MLOAD DUP2 LT DUP1 ISZERO PUSH2 0x2CAD JUMPI POP PUSH32 0x7C00000000000000000000000000000000000000000000000000000000000000 DUP3 DUP3 DUP2 MLOAD DUP2 LT PUSH2 0x2C7D JUMPI PUSH2 0x2C7C PUSH2 0x4540 JUMP JUMPDEST JUMPDEST PUSH1 0x20 ADD ADD MLOAD PUSH1 0xF8 SHR PUSH1 0xF8 SHL PUSH31 0xFFFFFFFFFFFFFFFFFFFFFFFFFFFFFFFFFFFFFFFFFFFFFFFFFFFFFFFFFFFFFF NOT AND EQ ISZERO JUMPDEST ISZERO PUSH2 0x2CC5 JUMPI DUP1 DUP1 PUSH2 0x2CBD SWAP1 PUSH2 0x4991 JUMP JUMPDEST SWAP2 POP POP PUSH2 0x2C3E JUMP JUMPDEST PUSH0 PUSH2 0x2CD1 DUP4 PUSH0 DUP5 PUSH2 0x2ED6 JUMP JUMPDEST SWAP1 POP PUSH0 PUSH2 0x2D0B PUSH2 0x2D06 DUP6 PUSH1 0x1 DUP7 PUSH2 0x2CE8 SWAP2 SWAP1 PUSH2 0x46CA JUMP JUMPDEST PUSH1 0x1 DUP8 PUSH2 0x2CF5 SWAP2 SWAP1 PUSH2 0x46CA JUMP JUMPDEST DUP9 MLOAD PUSH2 0x2D01 SWAP2 SWAP1 PUSH2 0x4C75 JUMP JUMPDEST PUSH2 0x2ED6 JUMP JUMPDEST PUSH2 0x2FB8 JUMP JUMPDEST SWAP1 POP DUP2 DUP2 SWAP6 POP SWAP6 POP POP POP POP POP SWAP2 POP SWAP2 JUMP JUMPDEST PUSH0 DUP2 MLOAD SUB PUSH2 0x2D56 JUMPI PUSH1 0x40 MLOAD PUSH32 0x22CE3EDD00000000000000000000000000000000000000000000000000000000 DUP2 MSTORE PUSH1 0x4 ADD PUSH1 0x40 MLOAD DUP1 SWAP2 SUB SWAP1 REVERT JUMPDEST DUP3 DUP5 PUSH0 ADD SWAP1 PUSH1 0x2 DUP2 GT ISZERO PUSH2 0x2D6D JUMPI PUSH2 0x2D6C PUSH2 0x4FB6 JUMP JUMPDEST JUMPDEST SWAP1 DUP2 PUSH1 0x2 DUP2 GT ISZERO PUSH2 0x2D81 JUMPI PUSH2 0x2D80 PUSH2 0x4FB6 JUMP JUMPDEST JUMPDEST DUP2 MSTORE POP POP DUP2 DUP5 PUSH1 0x40 ADD SWAP1 PUSH0 DUP2 GT ISZERO PUSH2 0x2D9C JUMPI PUSH2 0x2D9B PUSH2 0x4FB6 JUMP JUMPDEST JUMPDEST SWAP1 DUP2 PUSH0 DUP2 GT ISZERO PUSH2 0x2DAF JUMPI PUSH2 0x2DAE PUSH2 0x4FB6 JUMP JUMPDEST JUMPDEST DUP2 MSTORE POP POP DUP1 DUP5 PUSH1 0x60 ADD DUP2 SWAP1 MSTORE POP POP POP POP POP JUMP JUMPDEST PUSH2 0x2DCA PUSH2 0x3618 JUMP JUMPDEST PUSH2 0x2DD7 DUP2 PUSH0 ADD MLOAD DUP4 PUSH2 0x3126 JUMP JUMPDEST POP PUSH0 DUP2 PUSH1 0x20 ADD DUP2 DUP2 MSTORE POP POP SWAP2 SWAP1 POP JUMP JUMPDEST PUSH2 0x2DF4 DUP3 PUSH1 0x3 DUP4 MLOAD PUSH2 0x319C JUMP JUMPDEST PUSH2 0x2E0A DUP2 DUP4 PUSH0 ADD MLOAD PUSH2 0x333C SWAP1 SWAP2 SWAP1 PUSH4 0xFFFFFFFF AND JUMP JUMPDEST POP POP POP JUMP JUMPDEST PUSH2 0x2E30 PUSH1 0x2 PUSH1 0x5 PUSH1 0x6 PUSH1 0xFF AND SWAP1 SHL OR DUP4 PUSH0 ADD MLOAD PUSH2 0x3358 SWAP1 SWAP2 SWAP1 PUSH4 0xFFFFFFFF AND JUMP JUMPDEST POP PUSH2 0x2E5A DUP3 DUP3 PUSH1 0x40 MLOAD PUSH1 0x20 ADD PUSH2 0x2E46 SWAP2 SWAP1 PUSH2 0x4317 JUMP JUMPDEST PUSH1 0x40 MLOAD PUSH1 0x20 DUP2 DUP4 SUB SUB DUP2 MSTORE SWAP1 PUSH1 0x40 MSTORE PUSH2 0x2EAE JUMP JUMPDEST POP POP JUMP JUMPDEST PUSH2 0x2E69 DUP2 PUSH1 0x4 PUSH2 0x33BF JUMP JUMPDEST PUSH1 0x1 DUP2 PUSH1 0x20 ADD DUP2 DUP2 MLOAD PUSH2 0x2E7C SWAP2 SWAP1 PUSH2 0x46CA JUMP JUMPDEST SWAP2 POP DUP2 DUP2 MSTORE POP POP POP JUMP JUMPDEST PUSH2 0x2E91 DUP2 PUSH1 0x7 PUSH2 0x33BF JUMP JUMPDEST PUSH1 0x1 DUP2 PUSH1 0x20 ADD DUP2 DUP2 MLOAD PUSH2 0x2EA4 SWAP2 SWAP1 PUSH2 0x4C75 JUMP JUMPDEST SWAP2 POP DUP2 DUP2 MSTORE POP POP POP JUMP JUMPDEST PUSH2 0x2EBB DUP3 PUSH1 0x2 DUP4 MLOAD PUSH2 0x319C JUMP JUMPDEST PUSH2 0x2ED1 DUP2 DUP4 PUSH0 ADD MLOAD PUSH2 0x333C SWAP1 SWAP2 SWAP1 PUSH4 0xFFFFFFFF AND JUMP JUMPDEST POP POP POP JUMP JUMPDEST PUSH1 0x60 PUSH0 DUP3 PUSH8 0xFFFFFFFFFFFFFFFF DUP2 GT ISZERO PUSH2 0x2EF3 JUMPI PUSH2 0x2EF2 PUSH2 0x36C7 JUMP JUMPDEST JUMPDEST PUSH1 0x40 MLOAD SWAP1 DUP1 DUP3 MSTORE DUP1 PUSH1 0x1F ADD PUSH1 0x1F NOT AND PUSH1 0x20 ADD DUP3 ADD PUSH1 0x40 MSTORE DUP1 ISZERO PUSH2 0x2F25 JUMPI DUP2 PUSH1 0x20 ADD PUSH1 0x1 DUP3 MUL DUP1 CALLDATASIZE DUP4 CALLDATACOPY DUP1 DUP3 ADD SWAP2 POP POP SWAP1 POP JUMPDEST POP SWAP1 POP PUSH0 PUSH0 SWAP1 POP JUMPDEST DUP4 DUP2 LT ISZERO PUSH2 0x2FAC JUMPI DUP6 DUP2 DUP7 PUSH2 0x2F42 SWAP2 SWAP1 PUSH2 0x46CA JUMP JUMPDEST DUP2 MLOAD DUP2 LT PUSH2 0x2F53 JUMPI PUSH2 0x2F52 PUSH2 0x4540 JUMP JUMPDEST JUMPDEST PUSH1 0x20 ADD ADD MLOAD PUSH1 0xF8 SHR PUSH1 0xF8 SHL DUP3 DUP3 DUP2 MLOAD DUP2 LT PUSH2 0x2F71 JUMPI PUSH2 0x2F70 PUSH2 0x4540 JUMP JUMPDEST JUMPDEST PUSH1 0x20 ADD ADD SWAP1 PUSH31 0xFFFFFFFFFFFFFFFFFFFFFFFFFFFFFFFFFFFFFFFFFFFFFFFFFFFFFFFFFFFFFF NOT AND SWAP1 DUP2 PUSH0 BYTE SWAP1 MSTORE8 POP DUP1 DUP1 PUSH1 0x1 ADD SWAP2 POP POP PUSH2 0x2F2D JUMP JUMPDEST POP DUP1 SWAP2 POP POP SWAP4 SWAP3 POP POP POP JUMP JUMPDEST PUSH0 PUSH0 DUP3 SWAP1 POP PUSH0 PUSH0 SWAP1 POP PUSH0 PUSH0 SWAP1 POP JUMPDEST DUP3 MLOAD DUP2 LT ISZERO PUSH2 0x311B JUMPI PUSH32 0x3000000000000000000000000000000000000000000000000000000000000000 DUP4 DUP3 DUP2 MLOAD DUP2 LT PUSH2 0x3003 JUMPI PUSH2 0x3002 PUSH2 0x4540 JUMP JUMPDEST JUMPDEST PUSH1 0x20 ADD ADD MLOAD PUSH1 0xF8 SHR PUSH1 0xF8 SHL PUSH31 0xFFFFFFFFFFFFFFFFFFFFFFFFFFFFFFFFFFFFFFFFFFFFFFFFFFFFFFFFFFFFFF NOT AND LT ISZERO DUP1 ISZERO PUSH2 0x309D JUMPI POP PUSH32 0x3900000000000000000000000000000000000000000000000000000000000000 DUP4 DUP3 DUP2 MLOAD DUP2 LT PUSH2 0x306D JUMPI PUSH2 0x306C PUSH2 0x4540 JUMP JUMPDEST JUMPDEST PUSH1 0x20 ADD ADD MLOAD PUSH1 0xF8 SHR PUSH1 0xF8 SHL PUSH31 0xFFFFFFFFFFFFFFFFFFFFFFFFFFFFFFFFFFFFFFFFFFFFFFFFFFFFFFFFFFFFFF NOT AND GT ISZERO JUMPDEST ISZERO PUSH2 0x310E JUMPI PUSH32 0x3000000000000000000000000000000000000000000000000000000000000000 PUSH1 0xF8 SHR DUP4 DUP3 DUP2 MLOAD DUP2 LT PUSH2 0x30D9 JUMPI PUSH2 0x30D8 PUSH2 0x4540 JUMP JUMPDEST JUMPDEST PUSH1 0x20 ADD ADD MLOAD PUSH1 0xF8 SHR PUSH1 0xF8 SHL PUSH1 0xF8 SHR PUSH2 0x30F1 SWAP2 SWAP1 PUSH2 0x5207 JUMP JUMPDEST PUSH1 0xFF AND PUSH1 0xA DUP4 PUSH2 0x3101 SWAP2 SWAP1 PUSH2 0x4A27 JUMP JUMPDEST PUSH2 0x310B SWAP2 SWAP1 PUSH2 0x46CA JUMP JUMPDEST SWAP2 POP JUMPDEST DUP1 DUP1 PUSH1 0x1 ADD SWAP2 POP POP PUSH2 0x2FC6 JUMP JUMPDEST POP DUP1 SWAP3 POP POP POP SWAP2 SWAP1 POP JUMP JUMPDEST PUSH2 0x312E PUSH2 0x3637 JUMP JUMPDEST PUSH0 PUSH1 0x20 DUP4 PUSH2 0x313C SWAP2 SWAP1 PUSH2 0x459A JUMP JUMPDEST EQ PUSH2 0x3168 JUMPI PUSH1 0x20 DUP3 PUSH2 0x314E SWAP2 SWAP1 PUSH2 0x459A JUMP JUMPDEST PUSH1 0x20 PUSH2 0x315A SWAP2 SWAP1 PUSH2 0x4C75 JUMP JUMPDEST DUP3 PUSH2 0x3165 SWAP2 SWAP1 PUSH2 0x46CA JUMP JUMPDEST SWAP2 POP JUMPDEST DUP2 DUP4 PUSH1 0x20 ADD DUP2 DUP2 MSTORE POP POP PUSH1 0x40 MLOAD DUP1 DUP5 MSTORE PUSH0 DUP2 MSTORE DUP3 DUP2 ADD PUSH1 0x20 ADD DUP2 DUP2 LT ISZERO PUSH2 0x318D JUMPI PUSH0 PUSH0 REVERT JUMPDEST DUP1 PUSH1 0x40 MSTORE POP POP DUP3 SWAP1 POP SWAP3 SWAP2 POP POP JUMP JUMPDEST PUSH1 0x17 DUP2 PUSH8 0xFFFFFFFFFFFFFFFF AND GT PUSH2 0x31D6 JUMPI PUSH2 0x31D0 DUP2 PUSH1 0x5 DUP5 PUSH1 0xFF AND SWAP1 SHL PUSH1 0xFF AND OR DUP5 PUSH0 ADD MLOAD PUSH2 0x3358 SWAP1 SWAP2 SWAP1 PUSH4 0xFFFFFFFF AND JUMP JUMPDEST POP PUSH2 0x3337 JUMP JUMPDEST PUSH1 0xFF DUP2 PUSH8 0xFFFFFFFFFFFFFFFF AND GT PUSH2 0x3232 JUMPI PUSH2 0x3208 PUSH1 0x18 PUSH1 0x5 DUP5 PUSH1 0xFF AND SWAP1 SHL OR DUP5 PUSH0 ADD MLOAD PUSH2 0x3358 SWAP1 SWAP2 SWAP1 PUSH4 0xFFFFFFFF AND JUMP JUMPDEST POP PUSH2 0x322C DUP2 PUSH8 0xFFFFFFFFFFFFFFFF AND PUSH1 0x1 DUP6 PUSH0 ADD MLOAD PUSH2 0x33E4 SWAP1 SWAP3 SWAP2 SWAP1 PUSH4 0xFFFFFFFF AND JUMP JUMPDEST POP PUSH2 0x3336 JUMP JUMPDEST PUSH2 0xFFFF DUP2 PUSH8 0xFFFFFFFFFFFFFFFF AND GT PUSH2 0x328F JUMPI PUSH2 0x3265 PUSH1 0x19 PUSH1 0x5 DUP5 PUSH1 0xFF AND SWAP1 SHL OR DUP5 PUSH0 ADD MLOAD PUSH2 0x3358 SWAP1 SWAP2 SWAP1 PUSH4 0xFFFFFFFF AND JUMP JUMPDEST POP PUSH2 0x3289 DUP2 PUSH8 0xFFFFFFFFFFFFFFFF AND PUSH1 0x2 DUP6 PUSH0 ADD MLOAD PUSH2 0x33E4 SWAP1 SWAP3 SWAP2 SWAP1 PUSH4 0xFFFFFFFF AND JUMP JUMPDEST POP PUSH2 0x3335 JUMP JUMPDEST PUSH4 0xFFFFFFFF DUP2 PUSH8 0xFFFFFFFFFFFFFFFF AND GT PUSH2 0x32EE JUMPI PUSH2 0x32C4 PUSH1 0x1A PUSH1 0x5 DUP5 PUSH1 0xFF AND SWAP1 SHL OR DUP5 PUSH0 ADD MLOAD PUSH2 0x3358 SWAP1 SWAP2 SWAP1 PUSH4 0xFFFFFFFF AND JUMP JUMPDEST POP PUSH2 0x32E8 DUP2 PUSH8 0xFFFFFFFFFFFFFFFF AND PUSH1 0x4 DUP6 PUSH0 ADD MLOAD PUSH2 0x33E4 SWAP1 SWAP3 SWAP2 SWAP1 PUSH4 0xFFFFFFFF AND JUMP JUMPDEST POP PUSH2 0x3334 JUMP JUMPDEST PUSH2 0x330E PUSH1 0x1B PUSH1 0x5 DUP5 PUSH1 0xFF AND SWAP1 SHL OR DUP5 PUSH0 ADD MLOAD PUSH2 0x3358 SWAP1 SWAP2 SWAP1 PUSH4 0xFFFFFFFF AND JUMP JUMPDEST POP PUSH2 0x3332 DUP2 PUSH8 0xFFFFFFFFFFFFFFFF AND PUSH1 0x8 DUP6 PUSH0 ADD MLOAD PUSH2 0x33E4 SWAP1 SWAP3 SWAP2 SWAP1 PUSH4 0xFFFFFFFF AND JUMP JUMPDEST POP JUMPDEST JUMPDEST JUMPDEST JUMPDEST POP POP POP JUMP JUMPDEST PUSH2 0x3344 PUSH2 0x3637 JUMP JUMPDEST PUSH2 0x3350 DUP4 DUP4 DUP5 MLOAD PUSH2 0x346D JUMP JUMPDEST SWAP1 POP SWAP3 SWAP2 POP POP JUMP JUMPDEST PUSH2 0x3360 PUSH2 0x3637 JUMP JUMPDEST PUSH0 DUP4 PUSH0 ADD MLOAD MLOAD SWAP1 POP PUSH0 PUSH1 0x1 DUP3 PUSH2 0x3376 SWAP2 SWAP1 PUSH2 0x46CA JUMP JUMPDEST SWAP1 POP DUP5 PUSH1 0x20 ADD MLOAD DUP3 LT PUSH2 0x339A JUMPI PUSH2 0x3399 DUP6 PUSH1 0x2 DUP4 PUSH2 0x3394 SWAP2 SWAP1 PUSH2 0x4A27 JUMP JUMPDEST PUSH2 0x354A JUMP JUMPDEST JUMPDEST DUP5 MLOAD PUSH1 0x20 DUP4 DUP3 ADD ADD DUP6 DUP2 MSTORE8 DUP2 MLOAD DUP4 GT ISZERO PUSH2 0x33B2 JUMPI DUP3 DUP3 MSTORE JUMPDEST POP POP DUP5 SWAP3 POP POP POP SWAP3 SWAP2 POP POP JUMP JUMPDEST PUSH2 0x33DF PUSH1 0x1F PUSH1 0x5 DUP4 PUSH1 0xFF AND SWAP1 SHL OR DUP4 PUSH0 ADD MLOAD PUSH2 0x3358 SWAP1 SWAP2 SWAP1 PUSH4 0xFFFFFFFF AND JUMP JUMPDEST POP POP POP JUMP JUMPDEST PUSH2 0x33EC PUSH2 0x3637 JUMP JUMPDEST PUSH0 DUP5 PUSH0 ADD MLOAD MLOAD SWAP1 POP PUSH0 DUP2 DUP5 PUSH2 0x3401 SWAP2 SWAP1 PUSH2 0x46CA JUMP JUMPDEST SWAP1 POP DUP6 PUSH1 0x20 ADD MLOAD DUP2 GT ISZERO PUSH2 0x3426 JUMPI PUSH2 0x3425 DUP7 PUSH1 0x2 DUP4 PUSH2 0x3420 SWAP2 SWAP1 PUSH2 0x4A27 JUMP JUMPDEST PUSH2 0x354A JUMP JUMPDEST JUMPDEST PUSH0 PUSH1 0x1 DUP6 PUSH2 0x100 PUSH2 0x3437 SWAP2 SWAP1 PUSH2 0x4F6C JUMP JUMPDEST PUSH2 0x3441 SWAP2 SWAP1 PUSH2 0x4C75 JUMP JUMPDEST SWAP1 POP DUP7 MLOAD DUP3 DUP2 ADD DUP8 DUP4 NOT DUP3 MLOAD AND OR DUP2 MSTORE DUP2 MLOAD DUP5 GT ISZERO PUSH2 0x345E JUMPI DUP4 DUP3 MSTORE JUMPDEST POP POP DUP7 SWAP4 POP POP POP POP SWAP4 SWAP3 POP POP POP JUMP JUMPDEST PUSH2 0x3475 PUSH2 0x3637 JUMP JUMPDEST DUP3 MLOAD DUP3 GT ISZERO PUSH2 0x3482 JUMPI PUSH0 PUSH0 REVERT JUMPDEST PUSH0 DUP5 PUSH0 ADD MLOAD MLOAD SWAP1 POP PUSH0 DUP4 DUP3 PUSH2 0x3497 SWAP2 SWAP1 PUSH2 0x46CA JUMP JUMPDEST SWAP1 POP DUP6 PUSH1 0x20 ADD MLOAD DUP2 GT ISZERO PUSH2 0x34BC JUMPI PUSH2 0x34BB DUP7 PUSH1 0x2 DUP4 PUSH2 0x34B6 SWAP2 SWAP1 PUSH2 0x4A27 JUMP JUMPDEST PUSH2 0x354A JUMP JUMPDEST JUMPDEST PUSH0 PUSH0 DUP8 MLOAD DUP1 MLOAD DUP6 PUSH1 0x20 DUP4 ADD ADD SWAP4 POP DUP1 DUP6 GT ISZERO PUSH2 0x34D6 JUMPI DUP5 DUP3 MSTORE JUMPDEST PUSH1 0x20 DUP10 ADD SWAP3 POP POP POP JUMPDEST PUSH1 0x20 DUP7 LT PUSH2 0x351D JUMPI DUP1 MLOAD DUP3 MSTORE PUSH1 0x20 DUP3 PUSH2 0x34F8 SWAP2 SWAP1 PUSH2 0x46CA JUMP JUMPDEST SWAP2 POP PUSH1 0x20 DUP2 PUSH2 0x3507 SWAP2 SWAP1 PUSH2 0x46CA JUMP JUMPDEST SWAP1 POP PUSH1 0x20 DUP7 PUSH2 0x3516 SWAP2 SWAP1 PUSH2 0x4C75 JUMP JUMPDEST SWAP6 POP PUSH2 0x34DF JUMP JUMPDEST PUSH0 PUSH1 0x1 DUP8 PUSH1 0x20 SUB PUSH2 0x100 EXP SUB SWAP1 POP DUP1 NOT DUP3 MLOAD AND DUP2 DUP5 MLOAD AND DUP2 DUP2 OR DUP6 MSTORE POP POP POP DUP8 SWAP5 POP POP POP POP POP SWAP4 SWAP3 POP POP POP JUMP JUMPDEST PUSH0 DUP3 PUSH0 ADD MLOAD SWAP1 POP PUSH2 0x355B DUP4 DUP4 PUSH2 0x3126 JUMP JUMPDEST POP PUSH2 0x3566 DUP4 DUP3 PUSH2 0x333C JUMP JUMPDEST POP POP POP POP JUMP JUMPDEST PUSH1 0x40 MLOAD DUP1 PUSH1 0xE0 ADD PUSH1 0x40 MSTORE DUP1 PUSH0 PUSH1 0x2 DUP2 GT ISZERO PUSH2 0x358A JUMPI PUSH2 0x3589 PUSH2 0x4FB6 JUMP JUMPDEST JUMPDEST DUP2 MSTORE PUSH1 0x20 ADD PUSH0 PUSH1 0x2 DUP2 GT ISZERO PUSH2 0x35A2 JUMPI PUSH2 0x35A1 PUSH2 0x4FB6 JUMP JUMPDEST JUMPDEST DUP2 MSTORE PUSH1 0x20 ADD PUSH0 PUSH0 DUP2 GT ISZERO PUSH2 0x35B9 JUMPI PUSH2 0x35B8 PUSH2 0x4FB6 JUMP JUMPDEST JUMPDEST DUP2 MSTORE PUSH1 0x20 ADD PUSH1 0x60 DUP2 MSTORE PUSH1 0x20 ADD PUSH1 0x60 DUP2 MSTORE PUSH1 0x20 ADD PUSH1 0x60 DUP2 MSTORE PUSH1 0x20 ADD PUSH1 0x60 DUP2 MSTORE POP SWAP1 JUMP JUMPDEST POP DUP1 SLOAD PUSH2 0x35E7 SWAP1 PUSH2 0x3FA8 JUMP JUMPDEST PUSH0 DUP3 SSTORE DUP1 PUSH1 0x1F LT PUSH2 0x35F8 JUMPI POP PUSH2 0x3615 JUMP JUMPDEST PUSH1 0x1F ADD PUSH1 0x20 SWAP1 DIV SWAP1 PUSH0 MSTORE PUSH1 0x20 PUSH0 KECCAK256 SWAP1 DUP2 ADD SWAP1 PUSH2 0x3614 SWAP2 SWAP1 PUSH2 0x3650 JUMP JUMPDEST JUMPDEST POP JUMP JUMPDEST PUSH1 0x40 MLOAD DUP1 PUSH1 0x40 ADD PUSH1 0x40 MSTORE DUP1 PUSH2 0x362B PUSH2 0x3637 JUMP JUMPDEST DUP2 MSTORE PUSH1 0x20 ADD PUSH0 DUP2 MSTORE POP SWAP1 JUMP JUMPDEST PUSH1 0x40 MLOAD DUP1 PUSH1 0x40 ADD PUSH1 0x40 MSTORE DUP1 PUSH1 0x60 DUP2 MSTORE PUSH1 0x20 ADD PUSH0 DUP2 MSTORE POP SWAP1 JUMP JUMPDEST JUMPDEST DUP1 DUP3 GT ISZERO PUSH2 0x3667 JUMPI PUSH0 DUP2 PUSH0 SWAP1 SSTORE POP PUSH1 0x1 ADD PUSH2 0x3651 JUMP JUMPDEST POP SWAP1 JUMP JUMPDEST PUSH0 PUSH1 0x40 MLOAD SWAP1 POP SWAP1 JUMP JUMPDEST PUSH0 PUSH0 REVERT JUMPDEST PUSH0 PUSH0 REVERT JUMPDEST PUSH0 DUP2 SWAP1 POP SWAP2 SWAP1 POP JUMP JUMPDEST PUSH2 0x368E DUP2 PUSH2 0x367C JUMP JUMPDEST DUP2 EQ PUSH2 0x3698 JUMPI PUSH0 PUSH0 REVERT JUMPDEST POP JUMP JUMPDEST PUSH0 DUP2 CALLDATALOAD SWAP1 POP PUSH2 0x36A9 DUP2 PUSH2 0x3685 JUMP JUMPDEST SWAP3 SWAP2 POP POP JUMP JUMPDEST PUSH0 PUSH0 REVERT JUMPDEST PUSH0 PUSH0 REVERT JUMPDEST PUSH0 PUSH1 0x1F NOT PUSH1 0x1F DUP4 ADD AND SWAP1 POP SWAP2 SWAP1 POP JUMP JUMPDEST PUSH32 0x4E487B7100000000000000000000000000000000000000000000000000000000 PUSH0 MSTORE PUSH1 0x41 PUSH1 0x4 MSTORE PUSH1 0x24 PUSH0 REVERT JUMPDEST PUSH2 0x36FD DUP3 PUSH2 0x36B7 JUMP JUMPDEST DUP2 ADD DUP2 DUP2 LT PUSH8 0xFFFFFFFFFFFFFFFF DUP3 GT OR ISZERO PUSH2 0x371C JUMPI PUSH2 0x371B PUSH2 0x36C7 JUMP JUMPDEST JUMPDEST DUP1 PUSH1 0x40 MSTORE POP POP POP JUMP JUMPDEST PUSH0 PUSH2 0x372E PUSH2 0x366B JUMP JUMPDEST SWAP1 POP PUSH2 0x373A DUP3 DUP3 PUSH2 0x36F4 JUMP JUMPDEST SWAP2 SWAP1 POP JUMP JUMPDEST PUSH0 PUSH8 0xFFFFFFFFFFFFFFFF DUP3 GT ISZERO PUSH2 0x3759 JUMPI PUSH2 0x3758 PUSH2 0x36C7 JUMP JUMPDEST JUMPDEST PUSH2 0x3762 DUP3 PUSH2 0x36B7 JUMP JUMPDEST SWAP1 POP PUSH1 0x20 DUP2 ADD SWAP1 POP SWAP2 SWAP1 POP JUMP JUMPDEST DUP3 DUP2 DUP4 CALLDATACOPY PUSH0 DUP4 DUP4 ADD MSTORE POP POP POP JUMP JUMPDEST PUSH0 PUSH2 0x378F PUSH2 0x378A DUP5 PUSH2 0x373F JUMP JUMPDEST PUSH2 0x3725 JUMP JUMPDEST SWAP1 POP DUP3 DUP2 MSTORE PUSH1 0x20 DUP2 ADD DUP5 DUP5 DUP5 ADD GT ISZERO PUSH2 0x37AB JUMPI PUSH2 0x37AA PUSH2 0x36B3 JUMP JUMPDEST JUMPDEST PUSH2 0x37B6 DUP5 DUP3 DUP6 PUSH2 0x376F JUMP JUMPDEST POP SWAP4 SWAP3 POP POP POP JUMP JUMPDEST PUSH0 DUP3 PUSH1 0x1F DUP4 ADD SLT PUSH2 0x37D2 JUMPI PUSH2 0x37D1 PUSH2 0x36AF JUMP JUMPDEST JUMPDEST DUP2 CALLDATALOAD PUSH2 0x37E2 DUP5 DUP3 PUSH1 0x20 DUP7 ADD PUSH2 0x377D JUMP JUMPDEST SWAP2 POP POP SWAP3 SWAP2 POP POP JUMP JUMPDEST PUSH0 PUSH0 PUSH0 PUSH1 0x60 DUP5 DUP7 SUB SLT ISZERO PUSH2 0x3802 JUMPI PUSH2 0x3801 PUSH2 0x3674 JUMP JUMPDEST JUMPDEST PUSH0 PUSH2 0x380F DUP7 DUP3 DUP8 ADD PUSH2 0x369B JUMP JUMPDEST SWAP4 POP POP PUSH1 0x20 DUP5 ADD CALLDATALOAD PUSH8 0xFFFFFFFFFFFFFFFF DUP2 GT ISZERO PUSH2 0x3830 JUMPI PUSH2 0x382F PUSH2 0x3678 JUMP JUMPDEST JUMPDEST PUSH2 0x383C DUP7 DUP3 DUP8 ADD PUSH2 0x37BE JUMP JUMPDEST SWAP3 POP POP PUSH1 0x40 DUP5 ADD CALLDATALOAD PUSH8 0xFFFFFFFFFFFFFFFF DUP2 GT ISZERO PUSH2 0x385D JUMPI PUSH2 0x385C PUSH2 0x3678 JUMP JUMPDEST JUMPDEST PUSH2 0x3869 DUP7 DUP3 DUP8 ADD PUSH2 0x37BE JUMP JUMPDEST SWAP2 POP POP SWAP3 POP SWAP3 POP SWAP3 JUMP JUMPDEST PUSH0 PUSH0 REVERT JUMPDEST PUSH0 PUSH0 REVERT JUMPDEST PUSH0 PUSH0 DUP4 PUSH1 0x1F DUP5 ADD SLT PUSH2 0x3890 JUMPI PUSH2 0x388F PUSH2 0x36AF JUMP JUMPDEST JUMPDEST DUP3 CALLDATALOAD SWAP1 POP PUSH8 0xFFFFFFFFFFFFFFFF DUP2 GT ISZERO PUSH2 0x38AD JUMPI PUSH2 0x38AC PUSH2 0x3873 JUMP JUMPDEST JUMPDEST PUSH1 0x20 DUP4 ADD SWAP2 POP DUP4 PUSH1 0x20 DUP3 MUL DUP4 ADD GT ISZERO PUSH2 0x38C9 JUMPI PUSH2 0x38C8 PUSH2 0x3877 JUMP JUMPDEST JUMPDEST SWAP3 POP SWAP3 SWAP1 POP JUMP JUMPDEST PUSH0 PUSH0 PUSH1 0x20 DUP4 DUP6 SUB SLT ISZERO PUSH2 0x38E6 JUMPI PUSH2 0x38E5 PUSH2 0x3674 JUMP JUMPDEST JUMPDEST PUSH0 DUP4 ADD CALLDATALOAD PUSH8 0xFFFFFFFFFFFFFFFF DUP2 GT ISZERO PUSH2 0x3903 JUMPI PUSH2 0x3902 PUSH2 0x3678 JUMP JUMPDEST JUMPDEST PUSH2 0x390F DUP6 DUP3 DUP7 ADD PUSH2 0x387B JUMP JUMPDEST SWAP3 POP SWAP3 POP POP SWAP3 POP SWAP3 SWAP1 POP JUMP JUMPDEST PUSH0 PUSH1 0x20 DUP3 DUP5 SUB SLT ISZERO PUSH2 0x3930 JUMPI PUSH2 0x392F PUSH2 0x3674 JUMP JUMPDEST JUMPDEST PUSH0 PUSH2 0x393D DUP5 DUP3 DUP6 ADD PUSH2 0x369B JUMP JUMPDEST SWAP2 POP POP SWAP3 SWAP2 POP POP JUMP JUMPDEST PUSH0 PUSH20 0xFFFFFFFFFFFFFFFFFFFFFFFFFFFFFFFFFFFFFFFF DUP3 AND SWAP1 POP SWAP2 SWAP1 POP JUMP JUMPDEST PUSH0 PUSH2 0x396F DUP3 PUSH2 0x3946 JUMP JUMPDEST SWAP1 POP SWAP2 SWAP1 POP JUMP JUMPDEST PUSH2 0x397F DUP2 PUSH2 0x3965 JUMP JUMPDEST DUP3 MSTORE POP POP JUMP JUMPDEST PUSH0 PUSH1 0x20 DUP3 ADD SWAP1 POP PUSH2 0x3998 PUSH0 DUP4 ADD DUP5 PUSH2 0x3976 JUMP JUMPDEST SWAP3 SWAP2 POP POP JUMP JUMPDEST PUSH2 0x39A7 DUP2 PUSH2 0x3965 JUMP JUMPDEST DUP2 EQ PUSH2 0x39B1 JUMPI PUSH0 PUSH0 REVERT JUMPDEST POP JUMP JUMPDEST PUSH0 DUP2 CALLDATALOAD SWAP1 POP PUSH2 0x39C2 DUP2 PUSH2 0x399E JUMP JUMPDEST SWAP3 SWAP2 POP POP JUMP JUMPDEST PUSH0 PUSH1 0x20 DUP3 DUP5 SUB SLT ISZERO PUSH2 0x39DD JUMPI PUSH2 0x39DC PUSH2 0x3674 JUMP JUMPDEST JUMPDEST PUSH0 PUSH2 0x39EA DUP5 DUP3 DUP6 ADD PUSH2 0x39B4 JUMP JUMPDEST SWAP2 POP POP SWAP3 SWAP2 POP POP JUMP JUMPDEST PUSH0 DUP2 MLOAD SWAP1 POP SWAP2 SWAP1 POP JUMP JUMPDEST PUSH0 DUP3 DUP3 MSTORE PUSH1 0x20 DUP3 ADD SWAP1 POP SWAP3 SWAP2 POP POP JUMP JUMPDEST DUP3 DUP2 DUP4 MCOPY PUSH0 DUP4 DUP4 ADD MSTORE POP POP POP JUMP JUMPDEST PUSH0 PUSH2 0x3A25 DUP3 PUSH2 0x39F3 JUMP JUMPDEST PUSH2 0x3A2F DUP2 DUP6 PUSH2 0x39FD JUMP JUMPDEST SWAP4 POP PUSH2 0x3A3F DUP2 DUP6 PUSH1 0x20 DUP7 ADD PUSH2 0x3A0D JUMP JUMPDEST PUSH2 0x3A48 DUP2 PUSH2 0x36B7 JUMP JUMPDEST DUP5 ADD SWAP2 POP POP SWAP3 SWAP2 POP POP JUMP JUMPDEST PUSH0 PUSH1 0xFF DUP3 AND SWAP1 POP SWAP2 SWAP1 POP JUMP JUMPDEST PUSH2 0x3A68 DUP2 PUSH2 0x3A53 JUMP JUMPDEST DUP3 MSTORE POP POP JUMP JUMPDEST PUSH0 DUP2 SWAP1 POP SWAP2 SWAP1 POP JUMP JUMPDEST PUSH2 0x3A80 DUP2 PUSH2 0x3A6E JUMP JUMPDEST DUP3 MSTORE POP POP JUMP JUMPDEST PUSH0 DUP2 ISZERO ISZERO SWAP1 POP SWAP2 SWAP1 POP JUMP JUMPDEST PUSH2 0x3A9A DUP2 PUSH2 0x3A86 JUMP JUMPDEST DUP3 MSTORE POP POP JUMP JUMPDEST PUSH0 PUSH1 0xE0 DUP3 ADD SWAP1 POP DUP2 DUP2 SUB PUSH0 DUP4 ADD MSTORE PUSH2 0x3AB8 DUP2 DUP11 PUSH2 0x3A1B JUMP JUMPDEST SWAP1 POP PUSH2 0x3AC7 PUSH1 0x20 DUP4 ADD DUP10 PUSH2 0x3A5F JUMP JUMPDEST PUSH2 0x3AD4 PUSH1 0x40 DUP4 ADD DUP9 PUSH2 0x3A77 JUMP JUMPDEST PUSH2 0x3AE1 PUSH1 0x60 DUP4 ADD DUP8 PUSH2 0x3A77 JUMP JUMPDEST PUSH2 0x3AEE PUSH1 0x80 DUP4 ADD DUP7 PUSH2 0x3A91 JUMP JUMPDEST PUSH2 0x3AFB PUSH1 0xA0 DUP4 ADD DUP6 PUSH2 0x3A5F JUMP JUMPDEST PUSH2 0x3B08 PUSH1 0xC0 DUP4 ADD DUP5 PUSH2 0x3A77 JUMP JUMPDEST SWAP9 SWAP8 POP POP POP POP POP POP POP POP JUMP JUMPDEST PUSH2 0x3B1D DUP2 PUSH2 0x3A6E JUMP JUMPDEST DUP2 EQ PUSH2 0x3B27 JUMPI PUSH0 PUSH0 REVERT JUMPDEST POP JUMP JUMPDEST PUSH0 DUP2 CALLDATALOAD SWAP1 POP PUSH2 0x3B38 DUP2 PUSH2 0x3B14 JUMP JUMPDEST SWAP3 SWAP2 POP POP JUMP JUMPDEST PUSH0 PUSH1 0x20 DUP3 DUP5 SUB SLT ISZERO PUSH2 0x3B53 JUMPI PUSH2 0x3B52 PUSH2 0x3674 JUMP JUMPDEST JUMPDEST PUSH0 PUSH2 0x3B60 DUP5 DUP3 DUP6 ADD PUSH2 0x3B2A JUMP JUMPDEST SWAP2 POP POP SWAP3 SWAP2 POP POP JUMP JUMPDEST PUSH0 PUSH1 0x20 DUP3 ADD SWAP1 POP DUP2 DUP2 SUB PUSH0 DUP4 ADD MSTORE PUSH2 0x3B81 DUP2 DUP5 PUSH2 0x3A1B JUMP JUMPDEST SWAP1 POP SWAP3 SWAP2 POP POP JUMP JUMPDEST PUSH2 0x3B92 DUP2 PUSH2 0x3A53 JUMP JUMPDEST DUP2 EQ PUSH2 0x3B9C JUMPI PUSH0 PUSH0 REVERT JUMPDEST POP JUMP JUMPDEST PUSH0 DUP2 CALLDATALOAD SWAP1 POP PUSH2 0x3BAD DUP2 PUSH2 0x3B89 JUMP JUMPDEST SWAP3 SWAP2 POP POP JUMP JUMPDEST PUSH0 PUSH1 0x20 DUP3 DUP5 SUB SLT ISZERO PUSH2 0x3BC8 JUMPI PUSH2 0x3BC7 PUSH2 0x3674 JUMP JUMPDEST JUMPDEST PUSH0 PUSH2 0x3BD5 DUP5 DUP3 DUP6 ADD PUSH2 0x3B9F JUMP JUMPDEST SWAP2 POP POP SWAP3 SWAP2 POP POP JUMP JUMPDEST PUSH32 0x53656C656374206174206C65617374203520646F6D61696E7300000000000000 PUSH0 DUP3 ADD MSTORE POP JUMP JUMPDEST PUSH0 PUSH2 0x3C12 PUSH1 0x19 DUP4 PUSH2 0x39FD JUMP JUMPDEST SWAP2 POP PUSH2 0x3C1D DUP3 PUSH2 0x3BDE JUMP JUMPDEST PUSH1 0x20 DUP3 ADD SWAP1 POP SWAP2 SWAP1 POP JUMP JUMPDEST PUSH0 PUSH1 0x20 DUP3 ADD SWAP1 POP DUP2 DUP2 SUB PUSH0 DUP4 ADD MSTORE PUSH2 0x3C3F DUP2 PUSH2 0x3C06 JUMP JUMPDEST SWAP1 POP SWAP2 SWAP1 POP JUMP JUMPDEST PUSH32 0x496E76616C696420646F6D61696E732070726F76696465640000000000000000 PUSH0 DUP3 ADD MSTORE POP JUMP JUMPDEST PUSH0 PUSH2 0x3C7A PUSH1 0x18 DUP4 PUSH2 0x39FD JUMP JUMPDEST SWAP2 POP PUSH2 0x3C85 DUP3 PUSH2 0x3C46 JUMP JUMPDEST PUSH1 0x20 DUP3 ADD SWAP1 POP SWAP2 SWAP1 POP JUMP JUMPDEST PUSH0 PUSH1 0x20 DUP3 ADD SWAP1 POP DUP2 DUP2 SUB PUSH0 DUP4 ADD MSTORE PUSH2 0x3CA7 DUP2 PUSH2 0x3C6E JUMP JUMPDEST SWAP1 POP SWAP2 SWAP1 POP JUMP JUMPDEST PUSH32 0x5175697A20616C726561647920696E2070726F67726573730000000000000000 PUSH0 DUP3 ADD MSTORE POP JUMP JUMPDEST PUSH0 PUSH2 0x3CE2 PUSH1 0x18 DUP4 PUSH2 0x39FD JUMP JUMPDEST SWAP2 POP PUSH2 0x3CED DUP3 PUSH2 0x3CAE JUMP JUMPDEST PUSH1 0x20 DUP3 ADD SWAP1 POP SWAP2 SWAP1 POP JUMP JUMPDEST PUSH0 PUSH1 0x20 DUP3 ADD SWAP1 POP DUP2 DUP2 SUB PUSH0 DUP4 ADD MSTORE PUSH2 0x3D0F DUP2 PUSH2 0x3CD6 JUMP JUMPDEST SWAP1 POP SWAP2 SWAP1 POP JUMP JUMPDEST PUSH0 DUP2 MLOAD SWAP1 POP PUSH2 0x3D24 DUP2 PUSH2 0x3B14 JUMP JUMPDEST SWAP3 SWAP2 POP POP JUMP JUMPDEST PUSH0 PUSH1 0x20 DUP3 DUP5 SUB SLT ISZERO PUSH2 0x3D3F JUMPI PUSH2 0x3D3E PUSH2 0x3674 JUMP JUMPDEST JUMPDEST PUSH0 PUSH2 0x3D4C DUP5 DUP3 DUP6 ADD PUSH2 0x3D16 JUMP JUMPDEST SWAP2 POP POP SWAP3 SWAP2 POP POP JUMP JUMPDEST PUSH32 0x496E73756666696369656E7420245155495A2062616C616E6365000000000000 PUSH0 DUP3 ADD MSTORE POP JUMP JUMPDEST PUSH0 PUSH2 0x3D89 PUSH1 0x1A DUP4 PUSH2 0x39FD JUMP JUMPDEST SWAP2 POP PUSH2 0x3D94 DUP3 PUSH2 0x3D55 JUMP JUMPDEST PUSH1 0x20 DUP3 ADD SWAP1 POP SWAP2 SWAP1 POP JUMP JUMPDEST PUSH0 PUSH1 0x20 DUP3 ADD SWAP1 POP DUP2 DUP2 SUB PUSH0 DUP4 ADD MSTORE PUSH2 0x3DB6 DUP2 PUSH2 0x3D7D JUMP JUMPDEST SWAP1 POP SWAP2 SWAP1 POP JUMP JUMPDEST PUSH0 PUSH1 0x40 DUP3 ADD SWAP1 POP PUSH2 0x3DD0 PUSH0 DUP4 ADD DUP6 PUSH2 0x3976 JUMP JUMPDEST PUSH2 0x3DDD PUSH1 0x20 DUP4 ADD DUP5 PUSH2 0x3976 JUMP JUMPDEST SWAP4 SWAP3 POP POP POP JUMP JUMPDEST PUSH32 0x496E73756666696369656E7420245155495A20616C6C6F77616E636500000000 PUSH0 DUP3 ADD MSTORE POP JUMP JUMPDEST PUSH0 PUSH2 0x3E18 PUSH1 0x1C DUP4 PUSH2 0x39FD JUMP JUMPDEST SWAP2 POP PUSH2 0x3E23 DUP3 PUSH2 0x3DE4 JUMP JUMPDEST PUSH1 0x20 DUP3 ADD SWAP1 POP SWAP2 SWAP1 POP JUMP JUMPDEST PUSH0 PUSH1 0x20 DUP3 ADD SWAP1 POP DUP2 DUP2 SUB PUSH0 DUP4 ADD MSTORE PUSH2 0x3E45 DUP2 PUSH2 0x3E0C JUMP JUMPDEST SWAP1 POP SWAP2 SWAP1 POP JUMP JUMPDEST PUSH0 PUSH1 0x60 DUP3 ADD SWAP1 POP PUSH2 0x3E5F PUSH0 DUP4 ADD DUP7 PUSH2 0x3976 JUMP JUMPDEST PUSH2 0x3E6C PUSH1 0x20 DUP4 ADD DUP6 PUSH2 0x3976 JUMP JUMPDEST PUSH2 0x3E79 PUSH1 0x40 DUP4 ADD DUP5 PUSH2 0x3A77 JUMP JUMPDEST SWAP5 SWAP4 POP POP POP POP JUMP JUMPDEST PUSH2 0x3E8A DUP2 PUSH2 0x3A86 JUMP JUMPDEST DUP2 EQ PUSH2 0x3E94 JUMPI PUSH0 PUSH0 REVERT JUMPDEST POP JUMP JUMPDEST PUSH0 DUP2 MLOAD SWAP1 POP PUSH2 0x3EA5 DUP2 PUSH2 0x3E81 JUMP JUMPDEST SWAP3 SWAP2 POP POP JUMP JUMPDEST PUSH0 PUSH1 0x20 DUP3 DUP5 SUB SLT ISZERO PUSH2 0x3EC0 JUMPI PUSH2 0x3EBF PUSH2 0x3674 JUMP JUMPDEST JUMPDEST PUSH0 PUSH2 0x3ECD DUP5 DUP3 DUP6 ADD PUSH2 0x3E97 JUMP JUMPDEST SWAP2 POP POP SWAP3 SWAP2 POP POP JUMP JUMPDEST PUSH0 DUP2 SWAP1 POP SWAP3 SWAP2 POP POP JUMP JUMPDEST PUSH32 0x74656D705F000000000000000000000000000000000000000000000000000000 PUSH0 DUP3 ADD MSTORE POP JUMP JUMPDEST PUSH0 PUSH2 0x3F14 PUSH1 0x5 DUP4 PUSH2 0x3ED6 JUMP JUMPDEST SWAP2 POP PUSH2 0x3F1F DUP3 PUSH2 0x3EE0 JUMP JUMPDEST PUSH1 0x5 DUP3 ADD SWAP1 POP SWAP2 SWAP1 POP JUMP JUMPDEST PUSH0 PUSH2 0x3F34 DUP3 PUSH2 0x39F3 JUMP JUMPDEST PUSH2 0x3F3E DUP2 DUP6 PUSH2 0x3ED6 JUMP JUMPDEST SWAP4 POP PUSH2 0x3F4E DUP2 DUP6 PUSH1 0x20 DUP7 ADD PUSH2 0x3A0D JUMP JUMPDEST DUP1 DUP5 ADD SWAP2 POP POP SWAP3 SWAP2 POP POP JUMP JUMPDEST PUSH0 PUSH2 0x3F64 DUP3 PUSH2 0x3F08 JUMP JUMPDEST SWAP2 POP PUSH2 0x3F70 DUP3 DUP5 PUSH2 0x3F2A JUMP JUMPDEST SWAP2 POP DUP2 SWAP1 POP SWAP3 SWAP2 POP POP JUMP JUMPDEST PUSH32 0x4E487B7100000000000000000000000000000000000000000000000000000000 PUSH0 MSTORE PUSH1 0x22 PUSH1 0x4 MSTORE PUSH1 0x24 PUSH0 REVERT JUMPDEST PUSH0 PUSH1 0x2 DUP3 DIV SWAP1 POP PUSH1 0x1 DUP3 AND DUP1 PUSH2 0x3FBF JUMPI PUSH1 0x7F DUP3 AND SWAP2 POP JUMPDEST PUSH1 0x20 DUP3 LT DUP2 SUB PUSH2 0x3FD2 JUMPI PUSH2 0x3FD1 PUSH2 0x3F7B JUMP JUMPDEST JUMPDEST POP SWAP2 SWAP1 POP JUMP JUMPDEST PUSH0 DUP2 SWAP1 POP DUP2 PUSH0 MSTORE PUSH1 0x20 PUSH0 KECCAK256 SWAP1 POP SWAP2 SWAP1 POP JUMP JUMPDEST PUSH0 PUSH1 0x20 PUSH1 0x1F DUP4 ADD DIV SWAP1 POP SWAP2 SWAP1 POP JUMP JUMPDEST PUSH0 DUP3 DUP3 SHL SWAP1 POP SWAP3 SWAP2 POP POP JUMP JUMPDEST PUSH0 PUSH1 0x8 DUP4 MUL PUSH2 0x4034 PUSH32 0xFFFFFFFFFFFFFFFFFFFFFFFFFFFFFFFFFFFFFFFFFFFFFFFFFFFFFFFFFFFFFFFF DUP3 PUSH2 0x3FF9 JUMP JUMPDEST PUSH2 0x403E DUP7 DUP4 PUSH2 0x3FF9 JUMP JUMPDEST SWAP6 POP DUP1 NOT DUP5 AND SWAP4 POP DUP1 DUP7 AND DUP5 OR SWAP3 POP POP POP SWAP4 SWAP3 POP POP POP JUMP JUMPDEST PUSH0 DUP2 SWAP1 POP SWAP2 SWAP1 POP JUMP JUMPDEST PUSH0 PUSH2 0x4079 PUSH2 0x4074 PUSH2 0x406F DUP5 PUSH2 0x3A6E JUMP JUMPDEST PUSH2 0x4056 JUMP JUMPDEST PUSH2 0x3A6E JUMP JUMPDEST SWAP1 POP SWAP2 SWAP1 POP JUMP JUMPDEST PUSH0 DUP2 SWAP1 POP SWAP2 SWAP1 POP JUMP JUMPDEST PUSH2 0x4092 DUP4 PUSH2 0x405F JUMP JUMPDEST PUSH2 0x40A6 PUSH2 0x409E DUP3 PUSH2 0x4080 JUMP JUMPDEST DUP5 DUP5 SLOAD PUSH2 0x4005 JUMP JUMPDEST DUP3 SSTORE POP POP POP POP JUMP JUMPDEST PUSH0 PUSH0 SWAP1 POP SWAP1 JUMP JUMPDEST PUSH2 0x40BD PUSH2 0x40AE JUMP JUMPDEST PUSH2 0x40C8 DUP2 DUP5 DUP5 PUSH2 0x4089 JUMP JUMPDEST POP POP POP JUMP JUMPDEST JUMPDEST DUP2 DUP2 LT ISZERO PUSH2 0x40EB JUMPI PUSH2 0x40E0 PUSH0 DUP3 PUSH2 0x40B5 JUMP JUMPDEST PUSH1 0x1 DUP2 ADD SWAP1 POP PUSH2 0x40CE JUMP JUMPDEST POP POP JUMP JUMPDEST PUSH1 0x1F DUP3 GT ISZERO PUSH2 0x4130 JUMPI PUSH2 0x4101 DUP2 PUSH2 0x3FD8 JUMP JUMPDEST PUSH2 0x410A DUP5 PUSH2 0x3FEA JUMP JUMPDEST DUP2 ADD PUSH1 0x20 DUP6 LT ISZERO PUSH2 0x4119 JUMPI DUP2 SWAP1 POP JUMPDEST PUSH2 0x412D PUSH2 0x4125 DUP6 PUSH2 0x3FEA JUMP JUMPDEST DUP4 ADD DUP3 PUSH2 0x40CD JUMP JUMPDEST POP POP JUMPDEST POP POP POP JUMP JUMPDEST PUSH0 DUP3 DUP3 SHR SWAP1 POP SWAP3 SWAP2 POP POP JUMP JUMPDEST PUSH0 PUSH2 0x4150 PUSH0 NOT DUP5 PUSH1 0x8 MUL PUSH2 0x4135 JUMP JUMPDEST NOT DUP1 DUP4 AND SWAP2 POP POP SWAP3 SWAP2 POP POP JUMP JUMPDEST PUSH0 PUSH2 0x4168 DUP4 DUP4 PUSH2 0x4141 JUMP JUMPDEST SWAP2 POP DUP3 PUSH1 0x2 MUL DUP3 OR SWAP1 POP SWAP3 SWAP2 POP POP JUMP JUMPDEST PUSH2 0x4181 DUP3 PUSH2 0x39F3 JUMP JUMPDEST PUSH8 0xFFFFFFFFFFFFFFFF DUP2 GT ISZERO PUSH2 0x419A JUMPI PUSH2 0x4199 PUSH2 0x36C7 JUMP JUMPDEST JUMPDEST PUSH2 0x41A4 DUP3 SLOAD PUSH2 0x3FA8 JUMP JUMPDEST PUSH2 0x41AF DUP3 DUP3 DUP6 PUSH2 0x40EF JUMP JUMPDEST PUSH0 PUSH1 0x20 SWAP1 POP PUSH1 0x1F DUP4 GT PUSH1 0x1 DUP2 EQ PUSH2 0x41E0 JUMPI PUSH0 DUP5 ISZERO PUSH2 0x41CE JUMPI DUP3 DUP8 ADD MLOAD SWAP1 POP JUMPDEST PUSH2 0x41D8 DUP6 DUP3 PUSH2 0x415D JUMP JUMPDEST DUP7 SSTORE POP PUSH2 0x423F JUMP JUMPDEST PUSH1 0x1F NOT DUP5 AND PUSH2 0x41EE DUP7 PUSH2 0x3FD8 JUMP JUMPDEST PUSH0 JUMPDEST DUP3 DUP2 LT ISZERO PUSH2 0x4215 JUMPI DUP5 DUP10 ADD MLOAD DUP3 SSTORE PUSH1 0x1 DUP3 ADD SWAP2 POP PUSH1 0x20 DUP6 ADD SWAP5 POP PUSH1 0x20 DUP2 ADD SWAP1 POP PUSH2 0x41F0 JUMP JUMPDEST DUP7 DUP4 LT ISZERO PUSH2 0x4232 JUMPI DUP5 DUP10 ADD MLOAD PUSH2 0x422E PUSH1 0x1F DUP10 AND DUP3 PUSH2 0x4141 JUMP JUMPDEST DUP4 SSTORE POP JUMPDEST PUSH1 0x1 PUSH1 0x2 DUP9 MUL ADD DUP9 SSTORE POP POP POP JUMPDEST POP POP POP POP POP POP JUMP JUMPDEST PUSH32 0x4E6F20616374697665207175697A000000000000000000000000000000000000 PUSH0 DUP3 ADD MSTORE POP JUMP JUMPDEST PUSH0 PUSH2 0x427B PUSH1 0xE DUP4 PUSH2 0x39FD JUMP JUMPDEST SWAP2 POP PUSH2 0x4286 DUP3 PUSH2 0x4247 JUMP JUMPDEST PUSH1 0x20 DUP3 ADD SWAP1 POP SWAP2 SWAP1 POP JUMP JUMPDEST PUSH0 PUSH1 0x20 DUP3 ADD SWAP1 POP DUP2 DUP2 SUB PUSH0 DUP4 ADD MSTORE PUSH2 0x42A8 DUP2 PUSH2 0x426F JUMP JUMPDEST SWAP1 POP SWAP2 SWAP1 POP JUMP JUMPDEST PUSH32 0x496E76616C696420565246207265717565737420494400000000000000000000 PUSH0 DUP3 ADD MSTORE POP JUMP JUMPDEST PUSH0 PUSH2 0x42E3 PUSH1 0x16 DUP4 PUSH2 0x39FD JUMP JUMPDEST SWAP2 POP PUSH2 0x42EE DUP3 PUSH2 0x42AF JUMP JUMPDEST PUSH1 0x20 DUP3 ADD SWAP1 POP SWAP2 SWAP1 POP JUMP JUMPDEST PUSH0 PUSH1 0x20 DUP3 ADD SWAP1 POP DUP2 DUP2 SUB PUSH0 DUP4 ADD MSTORE PUSH2 0x4310 DUP2 PUSH2 0x42D7 JUMP JUMPDEST SWAP1 POP SWAP2 SWAP1 POP JUMP JUMPDEST PUSH0 PUSH1 0x20 DUP3 ADD SWAP1 POP PUSH2 0x432A PUSH0 DUP4 ADD DUP5 PUSH2 0x3A77 JUMP JUMPDEST SWAP3 SWAP2 POP POP JUMP JUMPDEST PUSH0 PUSH8 0xFFFFFFFFFFFFFFFF DUP3 GT ISZERO PUSH2 0x434A JUMPI PUSH2 0x4349 PUSH2 0x36C7 JUMP JUMPDEST JUMPDEST PUSH1 0x20 DUP3 MUL SWAP1 POP PUSH1 0x20 DUP2 ADD SWAP1 POP SWAP2 SWAP1 POP JUMP JUMPDEST PUSH0 PUSH2 0x436D PUSH2 0x4368 DUP5 PUSH2 0x4330 JUMP JUMPDEST PUSH2 0x3725 JUMP JUMPDEST SWAP1 POP DUP1 DUP4 DUP3 MSTORE PUSH1 0x20 DUP3 ADD SWAP1 POP PUSH1 0x20 DUP5 MUL DUP4 ADD DUP6 DUP2 GT ISZERO PUSH2 0x4390 JUMPI PUSH2 0x438F PUSH2 0x3877 JUMP JUMPDEST JUMPDEST DUP4 JUMPDEST DUP2 DUP2 LT ISZERO PUSH2 0x43B9 JUMPI DUP1 PUSH2 0x43A5 DUP9 DUP3 PUSH2 0x3D16 JUMP JUMPDEST DUP5 MSTORE PUSH1 0x20 DUP5 ADD SWAP4 POP POP PUSH1 0x20 DUP2 ADD SWAP1 POP PUSH2 0x4392 JUMP JUMPDEST POP POP POP SWAP4 SWAP3 POP POP POP JUMP JUMPDEST PUSH0 DUP3 PUSH1 0x1F DUP4 ADD SLT PUSH2 0x43D7 JUMPI PUSH2 0x43D6 PUSH2 0x36AF JUMP JUMPDEST JUMPDEST DUP2 MLOAD PUSH2 0x43E7 DUP5 DUP3 PUSH1 0x20 DUP7 ADD PUSH2 0x435B JUMP JUMPDEST SWAP2 POP POP SWAP3 SWAP2 POP POP JUMP JUMPDEST PUSH0 DUP2 MLOAD SWAP1 POP PUSH2 0x43FE DUP2 PUSH2 0x399E JUMP JUMPDEST SWAP3 SWAP2 POP POP JUMP JUMPDEST PUSH0 PUSH0 PUSH0 PUSH1 0x60 DUP5 DUP7 SUB SLT ISZERO PUSH2 0x441B JUMPI PUSH2 0x441A PUSH2 0x3674 JUMP JUMPDEST JUMPDEST PUSH0 PUSH2 0x4428 DUP7 DUP3 DUP8 ADD PUSH2 0x3E97 JUMP JUMPDEST SWAP4 POP POP PUSH1 0x20 DUP5 ADD MLOAD PUSH8 0xFFFFFFFFFFFFFFFF DUP2 GT ISZERO PUSH2 0x4449 JUMPI PUSH2 0x4448 PUSH2 0x3678 JUMP JUMPDEST JUMPDEST PUSH2 0x4455 DUP7 DUP3 DUP8 ADD PUSH2 0x43C3 JUMP JUMPDEST SWAP3 POP POP PUSH1 0x40 PUSH2 0x4466 DUP7 DUP3 DUP8 ADD PUSH2 0x43F0 JUMP JUMPDEST SWAP2 POP POP SWAP3 POP SWAP3 POP SWAP3 JUMP JUMPDEST PUSH32 0x5652462072657175657374206E6F742066756C66696C6C656400000000000000 PUSH0 DUP3 ADD MSTORE POP JUMP JUMPDEST PUSH0 PUSH2 0x44A4 PUSH1 0x19 DUP4 PUSH2 0x39FD JUMP JUMPDEST SWAP2 POP PUSH2 0x44AF DUP3 PUSH2 0x4470 JUMP JUMPDEST PUSH1 0x20 DUP3 ADD SWAP1 POP SWAP2 SWAP1 POP JUMP JUMPDEST PUSH0 PUSH1 0x20 DUP3 ADD SWAP1 POP DUP2 DUP2 SUB PUSH0 DUP4 ADD MSTORE PUSH2 0x44D1 DUP2 PUSH2 0x4498 JUMP JUMPDEST SWAP1 POP SWAP2 SWAP1 POP JUMP JUMPDEST PUSH32 0x496E76616C696420726571756573746572000000000000000000000000000000 PUSH0 DUP3 ADD MSTORE POP JUMP JUMPDEST PUSH0 PUSH2 0x450C PUSH1 0x11 DUP4 PUSH2 0x39FD JUMP JUMPDEST SWAP2 POP PUSH2 0x4517 DUP3 PUSH2 0x44D8 JUMP JUMPDEST PUSH1 0x20 DUP3 ADD SWAP1 POP SWAP2 SWAP1 POP JUMP JUMPDEST PUSH0 PUSH1 0x20 DUP3 ADD SWAP1 POP DUP2 DUP2 SUB PUSH0 DUP4 ADD MSTORE PUSH2 0x4539 DUP2 PUSH2 0x4500 JUMP JUMPDEST SWAP1 POP SWAP2 SWAP1 POP JUMP JUMPDEST PUSH32 0x4E487B7100000000000000000000000000000000000000000000000000000000 PUSH0 MSTORE PUSH1 0x32 PUSH1 0x4 MSTORE PUSH1 0x24 PUSH0 REVERT JUMPDEST PUSH32 0x4E487B7100000000000000000000000000000000000000000000000000000000 PUSH0 MSTORE PUSH1 0x12 PUSH1 0x4 MSTORE PUSH1 0x24 PUSH0 REVERT JUMPDEST PUSH0 PUSH2 0x45A4 DUP3 PUSH2 0x3A6E JUMP JUMPDEST SWAP2 POP PUSH2 0x45AF DUP4 PUSH2 0x3A6E JUMP JUMPDEST SWAP3 POP DUP3 PUSH2 0x45BF JUMPI PUSH2 0x45BE PUSH2 0x456D JUMP JUMPDEST JUMPDEST DUP3 DUP3 MOD SWAP1 POP SWAP3 SWAP2 POP POP JUMP JUMPDEST PUSH32 0x7175697A5F000000000000000000000000000000000000000000000000000000 PUSH0 DUP3 ADD MSTORE POP JUMP JUMPDEST PUSH0 PUSH2 0x45FE PUSH1 0x5 DUP4 PUSH2 0x3ED6 JUMP JUMPDEST SWAP2 POP PUSH2 0x4609 DUP3 PUSH2 0x45CA JUMP JUMPDEST PUSH1 0x5 DUP3 ADD SWAP1 POP SWAP2 SWAP1 POP JUMP JUMPDEST PUSH0 PUSH2 0x461E DUP3 PUSH2 0x45F2 JUMP JUMPDEST SWAP2 POP PUSH2 0x462A DUP3 DUP5 PUSH2 0x3F2A JUMP JUMPDEST SWAP2 POP DUP2 SWAP1 POP SWAP3 SWAP2 POP POP JUMP JUMPDEST PUSH32 0x4D7573742062652070726F706F736564206F776E657200000000000000000000 PUSH0 DUP3 ADD MSTORE POP JUMP JUMPDEST PUSH0 PUSH2 0x4669 PUSH1 0x16 DUP4 PUSH2 0x39FD JUMP JUMPDEST SWAP2 POP PUSH2 0x4674 DUP3 PUSH2 0x4635 JUMP JUMPDEST PUSH1 0x20 DUP3 ADD SWAP1 POP SWAP2 SWAP1 POP JUMP JUMPDEST PUSH0 PUSH1 0x20 DUP3 ADD SWAP1 POP DUP2 DUP2 SUB PUSH0 DUP4 ADD MSTORE PUSH2 0x4696 DUP2 PUSH2 0x465D JUMP JUMPDEST SWAP1 POP SWAP2 SWAP1 POP JUMP JUMPDEST PUSH32 0x4E487B7100000000000000000000000000000000000000000000000000000000 PUSH0 MSTORE PUSH1 0x11 PUSH1 0x4 MSTORE PUSH1 0x24 PUSH0 REVERT JUMPDEST PUSH0 PUSH2 0x46D4 DUP3 PUSH2 0x3A6E JUMP JUMPDEST SWAP2 POP PUSH2 0x46DF DUP4 PUSH2 0x3A6E JUMP JUMPDEST SWAP3 POP DUP3 DUP3 ADD SWAP1 POP DUP1 DUP3 GT ISZERO PUSH2 0x46F7 JUMPI PUSH2 0x46F6 PUSH2 0x469D JUMP JUMPDEST JUMPDEST SWAP3 SWAP2 POP POP JUMP JUMPDEST PUSH32 0x546F6F206561726C7920746F2063616E63656C00000000000000000000000000 PUSH0 DUP3 ADD MSTORE POP JUMP JUMPDEST PUSH0 PUSH2 0x4731 PUSH1 0x13 DUP4 PUSH2 0x39FD JUMP JUMPDEST SWAP2 POP PUSH2 0x473C DUP3 PUSH2 0x46FD JUMP JUMPDEST PUSH1 0x20 DUP3 ADD SWAP1 POP SWAP2 SWAP1 POP JUMP JUMPDEST PUSH0 PUSH1 0x20 DUP3 ADD SWAP1 POP DUP2 DUP2 SUB PUSH0 DUP4 ADD MSTORE PUSH2 0x475E DUP2 PUSH2 0x4725 JUMP JUMPDEST SWAP1 POP SWAP2 SWAP1 POP JUMP JUMPDEST PUSH0 PUSH1 0x40 DUP3 ADD SWAP1 POP PUSH2 0x4778 PUSH0 DUP4 ADD DUP6 PUSH2 0x3976 JUMP JUMPDEST PUSH2 0x4785 PUSH1 0x20 DUP4 ADD DUP5 PUSH2 0x3A77 JUMP JUMPDEST SWAP4 SWAP3 POP POP POP JUMP JUMPDEST PUSH32 0x5175697A2074696D652065787069726564000000000000000000000000000000 PUSH0 DUP3 ADD MSTORE POP JUMP JUMPDEST PUSH0 PUSH2 0x47C0 PUSH1 0x11 DUP4 PUSH2 0x39FD JUMP JUMPDEST SWAP2 POP PUSH2 0x47CB DUP3 PUSH2 0x478C JUMP JUMPDEST PUSH1 0x20 DUP3 ADD SWAP1 POP SWAP2 SWAP1 POP JUMP JUMPDEST PUSH0 PUSH1 0x20 DUP3 ADD SWAP1 POP DUP2 DUP2 SUB PUSH0 DUP4 ADD MSTORE PUSH2 0x47ED DUP2 PUSH2 0x47B4 JUMP JUMPDEST SWAP1 POP SWAP2 SWAP1 POP JUMP JUMPDEST PUSH32 0x496E76616C696420616E7377657220696E646578000000000000000000000000 PUSH0 DUP3 ADD MSTORE POP JUMP JUMPDEST PUSH0 PUSH2 0x4828 PUSH1 0x14 DUP4 PUSH2 0x39FD JUMP JUMPDEST SWAP2 POP PUSH2 0x4833 DUP3 PUSH2 0x47F4 JUMP JUMPDEST PUSH1 0x20 DUP3 ADD SWAP1 POP SWAP2 SWAP1 POP JUMP JUMPDEST PUSH0 PUSH1 0x20 DUP3 ADD SWAP1 POP DUP2 DUP2 SUB PUSH0 DUP4 ADD MSTORE PUSH2 0x4855 DUP2 PUSH2 0x481C JUMP JUMPDEST SWAP1 POP SWAP2 SWAP1 POP JUMP JUMPDEST PUSH0 PUSH2 0x4866 DUP3 PUSH2 0x3A53 JUMP JUMPDEST SWAP2 POP PUSH2 0x4871 DUP4 PUSH2 0x3A53 JUMP JUMPDEST SWAP3 POP DUP3 DUP3 ADD SWAP1 POP PUSH1 0xFF DUP2 GT ISZERO PUSH2 0x488A JUMPI PUSH2 0x4889 PUSH2 0x469D JUMP JUMPDEST JUMPDEST SWAP3 SWAP2 POP POP JUMP JUMPDEST PUSH32 0x7100000000000000000000000000000000000000000000000000000000000000 PUSH0 DUP3 ADD MSTORE POP JUMP JUMPDEST PUSH0 PUSH2 0x48C4 PUSH1 0x1 DUP4 PUSH2 0x3ED6 JUMP JUMPDEST SWAP2 POP PUSH2 0x48CF DUP3 PUSH2 0x4890 JUMP JUMPDEST PUSH1 0x1 DUP3 ADD SWAP1 POP SWAP2 SWAP1 POP JUMP JUMPDEST PUSH0 PUSH2 0x48E4 DUP3 PUSH2 0x48B8 JUMP JUMPDEST SWAP2 POP PUSH2 0x48F0 DUP3 DUP5 PUSH2 0x3F2A JUMP JUMPDEST SWAP2 POP DUP2 SWAP1 POP SWAP3 SWAP2 POP POP JUMP JUMPDEST PUSH32 0x496E76616C69642046756E6374696F6E73207265717565737420494400000000 PUSH0 DUP3 ADD MSTORE POP JUMP JUMPDEST PUSH0 PUSH2 0x492F PUSH1 0x1C DUP4 PUSH2 0x39FD JUMP JUMPDEST SWAP2 POP PUSH2 0x493A DUP3 PUSH2 0x48FB JUMP JUMPDEST PUSH1 0x20 DUP3 ADD SWAP1 POP SWAP2 SWAP1 POP JUMP JUMPDEST PUSH0 PUSH1 0x20 DUP3 ADD SWAP1 POP DUP2 DUP2 SUB PUSH0 DUP4 ADD MSTORE PUSH2 0x495C DUP2 PUSH2 0x4923 JUMP JUMPDEST SWAP1 POP SWAP2 SWAP1 POP JUMP JUMPDEST PUSH0 PUSH1 0x40 DUP3 ADD SWAP1 POP DUP2 DUP2 SUB PUSH0 DUP4 ADD MSTORE PUSH2 0x497B DUP2 DUP6 PUSH2 0x3A1B JUMP JUMPDEST SWAP1 POP PUSH2 0x498A PUSH1 0x20 DUP4 ADD DUP5 PUSH2 0x3A5F JUMP JUMPDEST SWAP4 SWAP3 POP POP POP JUMP JUMPDEST PUSH0 PUSH2 0x499B DUP3 PUSH2 0x3A6E JUMP JUMPDEST SWAP2 POP PUSH32 0xFFFFFFFFFFFFFFFFFFFFFFFFFFFFFFFFFFFFFFFFFFFFFFFFFFFFFFFFFFFFFFFF DUP3 SUB PUSH2 0x49CD JUMPI PUSH2 0x49CC PUSH2 0x469D JUMP JUMPDEST JUMPDEST PUSH1 0x1 DUP3 ADD SWAP1 POP SWAP2 SWAP1 POP JUMP JUMPDEST PUSH0 PUSH1 0x40 DUP3 ADD SWAP1 POP PUSH2 0x49EB PUSH0 DUP4 ADD DUP6 PUSH2 0x3A91 JUMP JUMPDEST PUSH2 0x49F8 PUSH1 0x20 DUP4 ADD DUP5 PUSH2 0x3A5F JUMP JUMPDEST SWAP4 SWAP3 POP POP POP JUMP JUMPDEST PUSH0 PUSH2 0x4A09 DUP3 PUSH2 0x3A53 JUMP JUMPDEST SWAP2 POP PUSH1 0xFF DUP3 SUB PUSH2 0x4A1C JUMPI PUSH2 0x4A1B PUSH2 0x469D JUMP JUMPDEST JUMPDEST PUSH1 0x1 DUP3 ADD SWAP1 POP SWAP2 SWAP1 POP JUMP JUMPDEST PUSH0 PUSH2 0x4A31 DUP3 PUSH2 0x3A6E JUMP JUMPDEST SWAP2 POP PUSH2 0x4A3C DUP4 PUSH2 0x3A6E JUMP JUMPDEST SWAP3 POP DUP3 DUP3 MUL PUSH2 0x4A4A DUP2 PUSH2 0x3A6E JUMP JUMPDEST SWAP2 POP DUP3 DUP3 DIV DUP5 EQ DUP4 ISZERO OR PUSH2 0x4A61 JUMPI PUSH2 0x4A60 PUSH2 0x469D JUMP JUMPDEST JUMPDEST POP SWAP3 SWAP2 POP POP JUMP JUMPDEST PUSH0 PUSH1 0x20 DUP3 ADD SWAP1 POP PUSH2 0x4A7B PUSH0 DUP4 ADD DUP5 PUSH2 0x3A5F JUMP JUMPDEST SWAP3 SWAP2 POP POP JUMP JUMPDEST PUSH32 0x5265656E7472616E637947756172643A207265656E7472616E742063616C6C00 PUSH0 DUP3 ADD MSTORE POP JUMP JUMPDEST PUSH0 PUSH2 0x4AB5 PUSH1 0x1F DUP4 PUSH2 0x39FD JUMP JUMPDEST SWAP2 POP PUSH2 0x4AC0 DUP3 PUSH2 0x4A81 JUMP JUMPDEST PUSH1 0x20 DUP3 ADD SWAP1 POP SWAP2 SWAP1 POP JUMP JUMPDEST PUSH0 PUSH1 0x20 DUP3 ADD SWAP1 POP DUP2 DUP2 SUB PUSH0 DUP4 ADD MSTORE PUSH2 0x4AE2 DUP2 PUSH2 0x4AA9 JUMP JUMPDEST SWAP1 POP SWAP2 SWAP1 POP JUMP JUMPDEST PUSH0 DUP2 SWAP1 POP SWAP3 SWAP2 POP POP JUMP JUMPDEST PUSH0 DUP2 SWAP1 POP DUP2 PUSH0 MSTORE PUSH1 0x20 PUSH0 KECCAK256 SWAP1 POP SWAP2 SWAP1 POP JUMP JUMPDEST PUSH0 DUP2 SLOAD PUSH2 0x4B11 DUP2 PUSH2 0x3FA8 JUMP JUMPDEST PUSH2 0x4B1B DUP2 DUP7 PUSH2 0x4AE9 JUMP JUMPDEST SWAP5 POP PUSH1 0x1 DUP3 AND PUSH0 DUP2 EQ PUSH2 0x4B35 JUMPI PUSH1 0x1 DUP2 EQ PUSH2 0x4B4A JUMPI PUSH2 0x4B7C JUMP JUMPDEST PUSH1 0xFF NOT DUP4 AND DUP7 MSTORE DUP2 ISZERO ISZERO DUP3 MUL DUP7 ADD SWAP4 POP PUSH2 0x4B7C JUMP JUMPDEST PUSH2 0x4B53 DUP6 PUSH2 0x4AF3 JUMP JUMPDEST PUSH0 JUMPDEST DUP4 DUP2 LT ISZERO PUSH2 0x4B74 JUMPI DUP2 SLOAD DUP2 DUP10 ADD MSTORE PUSH1 0x1 DUP3 ADD SWAP2 POP PUSH1 0x20 DUP2 ADD SWAP1 POP PUSH2 0x4B55 JUMP JUMPDEST DUP4 DUP9 ADD SWAP6 POP POP POP JUMPDEST POP POP POP SWAP3 SWAP2 POP POP JUMP JUMPDEST PUSH0 PUSH2 0x4B90 DUP3 DUP5 PUSH2 0x4B05 JUMP JUMPDEST SWAP2 POP DUP2 SWAP1 POP SWAP3 SWAP2 POP POP JUMP JUMPDEST PUSH0 PUSH0 REVERT JUMPDEST PUSH0 PUSH0 REVERT JUMPDEST PUSH0 PUSH0 REVERT JUMPDEST PUSH0 PUSH0 DUP4 CALLDATALOAD PUSH1 0x1 PUSH1 0x20 SUB DUP5 CALLDATASIZE SUB SUB DUP2 SLT PUSH2 0x4BC3 JUMPI PUSH2 0x4BC2 PUSH2 0x4B9B JUMP JUMPDEST JUMPDEST DUP1 DUP5 ADD SWAP3 POP DUP3 CALLDATALOAD SWAP2 POP PUSH8 0xFFFFFFFFFFFFFFFF DUP3 GT ISZERO PUSH2 0x4BE5 JUMPI PUSH2 0x4BE4 PUSH2 0x4B9F JUMP JUMPDEST JUMPDEST PUSH1 0x20 DUP4 ADD SWAP3 POP PUSH1 0x1 DUP3 MUL CALLDATASIZE SUB DUP4 SGT ISZERO PUSH2 0x4C01 JUMPI PUSH2 0x4C00 PUSH2 0x4BA3 JUMP JUMPDEST JUMPDEST POP SWAP3 POP SWAP3 SWAP1 POP JUMP JUMPDEST PUSH0 PUSH2 0x4C14 DUP4 DUP6 PUSH2 0x4AE9 JUMP JUMPDEST SWAP4 POP PUSH2 0x4C21 DUP4 DUP6 DUP5 PUSH2 0x376F JUMP JUMPDEST DUP3 DUP5 ADD SWAP1 POP SWAP4 SWAP3 POP POP POP JUMP JUMPDEST PUSH0 PUSH2 0x4C39 DUP3 DUP5 DUP7 PUSH2 0x4C09 JUMP JUMPDEST SWAP2 POP DUP2 SWAP1 POP SWAP4 SWAP3 POP POP POP JUMP JUMPDEST PUSH0 PUSH2 0x4C4F DUP3 PUSH2 0x3A6E JUMP JUMPDEST SWAP2 POP PUSH2 0x4C5A DUP4 PUSH2 0x3A6E JUMP JUMPDEST SWAP3 POP DUP3 PUSH2 0x4C6A JUMPI PUSH2 0x4C69 PUSH2 0x456D JUMP JUMPDEST JUMPDEST DUP3 DUP3 DIV SWAP1 POP SWAP3 SWAP2 POP POP JUMP JUMPDEST PUSH0 PUSH2 0x4C7F DUP3 PUSH2 0x3A6E JUMP JUMPDEST SWAP2 POP PUSH2 0x4C8A DUP4 PUSH2 0x3A6E JUMP JUMPDEST SWAP3 POP DUP3 DUP3 SUB SWAP1 POP DUP2 DUP2 GT ISZERO PUSH2 0x4CA2 JUMPI PUSH2 0x4CA1 PUSH2 0x469D JUMP JUMPDEST JUMPDEST SWAP3 SWAP2 POP POP JUMP JUMPDEST PUSH0 PUSH2 0x4CB2 DUP3 PUSH2 0x3A53 JUMP JUMPDEST SWAP2 POP PUSH2 0x4CBD DUP4 PUSH2 0x3A53 JUMP JUMPDEST SWAP3 POP DUP3 DUP3 MUL PUSH2 0x4CCB DUP2 PUSH2 0x3A53 JUMP JUMPDEST SWAP2 POP DUP1 DUP3 EQ PUSH2 0x4CDD JUMPI PUSH2 0x4CDC PUSH2 0x469D JUMP JUMPDEST JUMPDEST POP SWAP3 SWAP2 POP POP JUMP JUMPDEST PUSH32 0x2200000000000000000000000000000000000000000000000000000000000000 PUSH0 DUP3 ADD MSTORE POP JUMP JUMPDEST PUSH0 PUSH2 0x4D18 PUSH1 0x1 DUP4 PUSH2 0x3ED6 JUMP JUMPDEST SWAP2 POP PUSH2 0x4D23 DUP3 PUSH2 0x4CE4 JUMP JUMPDEST PUSH1 0x1 DUP3 ADD SWAP1 POP SWAP2 SWAP1 POP JUMP JUMPDEST PUSH0 PUSH2 0x4D39 DUP3 DUP6 PUSH2 0x3F2A JUMP JUMPDEST SWAP2 POP PUSH2 0x4D44 DUP3 PUSH2 0x4D0C JUMP JUMPDEST SWAP2 POP PUSH2 0x4D50 DUP3 DUP5 PUSH2 0x3F2A JUMP JUMPDEST SWAP2 POP PUSH2 0x4D5B DUP3 PUSH2 0x4D0C JUMP JUMPDEST SWAP2 POP DUP2 SWAP1 POP SWAP4 SWAP3 POP POP POP JUMP JUMPDEST PUSH32 0x2C00000000000000000000000000000000000000000000000000000000000000 PUSH0 DUP3 ADD MSTORE POP JUMP JUMPDEST PUSH0 PUSH2 0x4D9B PUSH1 0x1 DUP4 PUSH2 0x3ED6 JUMP JUMPDEST SWAP2 POP PUSH2 0x4DA6 DUP3 PUSH2 0x4D67 JUMP JUMPDEST PUSH1 0x1 DUP3 ADD SWAP1 POP SWAP2 SWAP1 POP JUMP JUMPDEST PUSH0 PUSH2 0x4DBC DUP3 DUP5 PUSH2 0x3F2A JUMP JUMPDEST SWAP2 POP PUSH2 0x4DC7 DUP3 PUSH2 0x4D8F JUMP JUMPDEST SWAP2 POP DUP2 SWAP1 POP SWAP3 SWAP2 POP POP JUMP JUMPDEST PUSH32 0x5D00000000000000000000000000000000000000000000000000000000000000 PUSH0 DUP3 ADD MSTORE POP JUMP JUMPDEST PUSH0 PUSH2 0x4E06 PUSH1 0x1 DUP4 PUSH2 0x3ED6 JUMP JUMPDEST SWAP2 POP PUSH2 0x4E11 DUP3 PUSH2 0x4DD2 JUMP JUMPDEST PUSH1 0x1 DUP3 ADD SWAP1 POP SWAP2 SWAP1 POP JUMP JUMPDEST PUSH0 PUSH2 0x4E27 DUP3 DUP5 PUSH2 0x3F2A JUMP JUMPDEST SWAP2 POP PUSH2 0x4E32 DUP3 PUSH2 0x4DFA JUMP JUMPDEST SWAP2 POP DUP2 SWAP1 POP SWAP3 SWAP2 POP POP JUMP JUMPDEST PUSH0 DUP2 PUSH1 0x1 SHR SWAP1 POP SWAP2 SWAP1 POP JUMP JUMPDEST PUSH0 PUSH0 DUP3 SWAP2 POP DUP4 SWAP1 POP JUMPDEST PUSH1 0x1 DUP6 GT ISZERO PUSH2 0x4E92 JUMPI DUP1 DUP7 DIV DUP2 GT ISZERO PUSH2 0x4E6E JUMPI PUSH2 0x4E6D PUSH2 0x469D JUMP JUMPDEST JUMPDEST PUSH1 0x1 DUP6 AND ISZERO PUSH2 0x4E7D JUMPI DUP1 DUP3 MUL SWAP2 POP JUMPDEST DUP1 DUP2 MUL SWAP1 POP PUSH2 0x4E8B DUP6 PUSH2 0x4E3D JUMP JUMPDEST SWAP5 POP PUSH2 0x4E52 JUMP JUMPDEST SWAP5 POP SWAP5 SWAP3 POP POP POP JUMP JUMPDEST PUSH0 DUP3 PUSH2 0x4EAA JUMPI PUSH1 0x1 SWAP1 POP PUSH2 0x4F65 JUMP JUMPDEST DUP2 PUSH2 0x4EB7 JUMPI PUSH0 SWAP1 POP PUSH2 0x4F65 JUMP JUMPDEST DUP2 PUSH1 0x1 DUP2 EQ PUSH2 0x4ECD JUMPI PUSH1 0x2 DUP2 EQ PUSH2 0x4ED7 JUMPI PUSH2 0x4F06 JUMP JUMPDEST PUSH1 0x1 SWAP2 POP POP PUSH2 0x4F65 JUMP JUMPDEST PUSH1 0xFF DUP5 GT ISZERO PUSH2 0x4EE9 JUMPI PUSH2 0x4EE8 PUSH2 0x469D JUMP JUMPDEST JUMPDEST DUP4 PUSH1 0x2 EXP SWAP2 POP DUP5 DUP3 GT ISZERO PUSH2 0x4F00 JUMPI PUSH2 0x4EFF PUSH2 0x469D JUMP JUMPDEST JUMPDEST POP PUSH2 0x4F65 JUMP JUMPDEST POP PUSH1 0x20 DUP4 LT PUSH2 0x133 DUP4 LT AND PUSH1 0x4E DUP5 LT PUSH1 0xB DUP5 LT AND OR ISZERO PUSH2 0x4F3B JUMPI DUP3 DUP3 EXP SWAP1 POP DUP4 DUP2 GT ISZERO PUSH2 0x4F36 JUMPI PUSH2 0x4F35 PUSH2 0x469D JUMP JUMPDEST JUMPDEST PUSH2 0x4F65 JUMP JUMPDEST PUSH2 0x4F48 DUP5 DUP5 DUP5 PUSH1 0x1 PUSH2 0x4E49 JUMP JUMPDEST SWAP3 POP SWAP1 POP DUP2 DUP5 DIV DUP2 GT ISZERO PUSH2 0x4F5F JUMPI PUSH2 0x4F5E PUSH2 0x469D JUMP JUMPDEST JUMPDEST DUP2 DUP2 MUL SWAP1 POP JUMPDEST SWAP4 SWAP3 POP POP POP JUMP JUMPDEST PUSH0 PUSH2 0x4F76 DUP3 PUSH2 0x3A6E JUMP JUMPDEST SWAP2 POP PUSH2 0x4F81 DUP4 PUSH2 0x3A6E JUMP JUMPDEST SWAP3 POP PUSH2 0x4FAE PUSH32 0xFFFFFFFFFFFFFFFFFFFFFFFFFFFFFFFFFFFFFFFFFFFFFFFFFFFFFFFFFFFFFFFF DUP5 DUP5 PUSH2 0x4E9B JUMP JUMPDEST SWAP1 POP SWAP3 SWAP2 POP POP JUMP JUMPDEST PUSH32 0x4E487B7100000000000000000000000000000000000000000000000000000000 PUSH0 MSTORE PUSH1 0x21 PUSH1 0x4 MSTORE PUSH1 0x24 PUSH0 REVERT JUMPDEST PUSH0 PUSH8 0xFFFFFFFFFFFFFFFF DUP3 AND SWAP1 POP SWAP2 SWAP1 POP JUMP JUMPDEST PUSH2 0x4FFF DUP2 PUSH2 0x4FE3 JUMP JUMPDEST DUP3 MSTORE POP POP JUMP JUMPDEST PUSH0 DUP2 MLOAD SWAP1 POP SWAP2 SWAP1 POP JUMP JUMPDEST PUSH0 DUP3 DUP3 MSTORE PUSH1 0x20 DUP3 ADD SWAP1 POP SWAP3 SWAP2 POP POP JUMP JUMPDEST PUSH0 PUSH2 0x5029 DUP3 PUSH2 0x5005 JUMP JUMPDEST PUSH2 0x5033 DUP2 DUP6 PUSH2 0x500F JUMP JUMPDEST SWAP4 POP PUSH2 0x5043 DUP2 DUP6 PUSH1 0x20 DUP7 ADD PUSH2 0x3A0D JUMP JUMPDEST PUSH2 0x504C DUP2 PUSH2 0x36B7 JUMP JUMPDEST DUP5 ADD SWAP2 POP POP SWAP3 SWAP2 POP POP JUMP JUMPDEST PUSH0 PUSH2 0xFFFF DUP3 AND SWAP1 POP SWAP2 SWAP1 POP JUMP JUMPDEST PUSH2 0x506D DUP2 PUSH2 0x5057 JUMP JUMPDEST DUP3 MSTORE POP POP JUMP JUMPDEST PUSH0 PUSH4 0xFFFFFFFF DUP3 AND SWAP1 POP SWAP2 SWAP1 POP JUMP JUMPDEST PUSH2 0x508B DUP2 PUSH2 0x5073 JUMP JUMPDEST DUP3 MSTORE POP POP JUMP JUMPDEST PUSH2 0x509A DUP2 PUSH2 0x367C JUMP JUMPDEST DUP3 MSTORE POP POP JUMP JUMPDEST PUSH0 PUSH1 0xA0 DUP3 ADD SWAP1 POP PUSH2 0x50B3 PUSH0 DUP4 ADD DUP9 PUSH2 0x4FF6 JUMP JUMPDEST DUP2 DUP2 SUB PUSH1 0x20 DUP4 ADD MSTORE PUSH2 0x50C5 DUP2 DUP8 PUSH2 0x501F JUMP JUMPDEST SWAP1 POP PUSH2 0x50D4 PUSH1 0x40 DUP4 ADD DUP7 PUSH2 0x5064 JUMP JUMPDEST PUSH2 0x50E1 PUSH1 0x60 DUP4 ADD DUP6 PUSH2 0x5082 JUMP JUMPDEST PUSH2 0x50EE PUSH1 0x80 DUP4 ADD DUP5 PUSH2 0x5091 JUMP JUMPDEST SWAP7 SWAP6 POP POP POP POP POP POP JUMP JUMPDEST PUSH0 DUP2 MLOAD SWAP1 POP PUSH2 0x5106 DUP2 PUSH2 0x3685 JUMP JUMPDEST SWAP3 SWAP2 POP POP JUMP JUMPDEST PUSH0 PUSH1 0x20 DUP3 DUP5 SUB SLT ISZERO PUSH2 0x5121 JUMPI PUSH2 0x5120 PUSH2 0x3674 JUMP JUMPDEST JUMPDEST PUSH0 PUSH2 0x512E DUP5 DUP3 DUP6 ADD PUSH2 0x50F8 JUMP JUMPDEST SWAP2 POP POP SWAP3 SWAP2 POP POP JUMP JUMPDEST PUSH32 0x4F6E6C792063616C6C61626C65206279206F776E657200000000000000000000 PUSH0 DUP3 ADD MSTORE POP JUMP JUMPDEST PUSH0 PUSH2 0x516B PUSH1 0x16 DUP4 PUSH2 0x39FD JUMP JUMPDEST SWAP2 POP PUSH2 0x5176 DUP3 PUSH2 0x5137 JUMP JUMPDEST PUSH1 0x20 DUP3 ADD SWAP1 POP SWAP2 SWAP1 POP JUMP JUMPDEST PUSH0 PUSH1 0x20 DUP3 ADD SWAP1 POP DUP2 DUP2 SUB PUSH0 DUP4 ADD MSTORE PUSH2 0x5198 DUP2 PUSH2 0x515F JUMP JUMPDEST SWAP1 POP SWAP2 SWAP1 POP JUMP JUMPDEST PUSH32 0x43616E6E6F74207472616E7366657220746F2073656C66000000000000000000 PUSH0 DUP3 ADD MSTORE POP JUMP JUMPDEST PUSH0 PUSH2 0x51D3 PUSH1 0x17 DUP4 PUSH2 0x39FD JUMP JUMPDEST SWAP2 POP PUSH2 0x51DE DUP3 PUSH2 0x519F JUMP JUMPDEST PUSH1 0x20 DUP3 ADD SWAP1 POP SWAP2 SWAP1 POP JUMP JUMPDEST PUSH0 PUSH1 0x20 DUP3 ADD SWAP1 POP DUP2 DUP2 SUB PUSH0 DUP4 ADD MSTORE PUSH2 0x5200 DUP2 PUSH2 0x51C7 JUMP JUMPDEST SWAP1 POP SWAP2 SWAP1 POP JUMP JUMPDEST PUSH0 PUSH2 0x5211 DUP3 PUSH2 0x3A53 JUMP JUMPDEST SWAP2 POP PUSH2 0x521C DUP4 PUSH2 0x3A53 JUMP JUMPDEST SWAP3 POP DUP3 DUP3 SUB SWAP1 POP PUSH1 0xFF DUP2 GT ISZERO PUSH2 0x5235 JUMPI PUSH2 0x5234 PUSH2 0x469D JUMP JUMPDEST JUMPDEST SWAP3 SWAP2 POP POP JUMP INVALID PUSH9 0x747470733A2F2F6377 PUSH10 0x7A72707276797A6E656C PUSH21 0x67687A6E6E612E73757061626173652E636F636F6E PUSH20 0x7420656C697A6142617365203D20617267735B32 TSTORE EXTCODESIZE PUSH4 0x6F6E7374 KECCAK256 PUSH22 0x726C203D2060247B656C697A61426173657D2F67656E PUSH6 0x726174655175 PUSH10 0x7A603B20636F6E737420 PUSH17 0x61796C6F6164203D204A534F4E2E737472 PUSH10 0x6E67696679287B20646F PUSH14 0x61696E733A204A534F4E2E706172 PUSH20 0x6528617267735B305D292C20706C617965724164 PUSH5 0x726573733A KECCAK256 PUSH2 0x7267 PUSH20 0x5B315D207D293B20636F6E737420726573203D20 PUSH2 0x7761 PUSH10 0x742046756E6374696F6E PUSH20 0x2E6D616B654874747052657175657374287B2075 PUSH19 0x6C2C206D6574686F643A2027504F5354272C20 PUSH9 0x6561646572733A207B KECCAK256 0x27 NUMBER PUSH16 0x6E74656E742D54797065273A20276170 PUSH17 0x6C69636174696F6E2F6A736F6E27207D2C KECCAK256 PUSH5 0x6174613A20 PUSH17 0x61796C6F6164207D293B20696620287265 PUSH20 0x2E6572726F7229207468726F77206E6577204572 PUSH19 0x6F72287265732E6572726F722E6D6573736167 PUSH6 0x293B20636F6E PUSH20 0x74207175697A4964203D207265732E646174612E PUSH18 0x75697A49643B20636F6E7374206E756D5120 RETURNDATASIZE KECCAK256 PUSH19 0x65732E646174612E6E756D5175657374696F6E PUSH20 0x3B2072657475726E2046756E6374696F6E732E65 PUSH15 0x636F6465537472696E672860247B71 PUSH22 0x697A49647D7C247B6E756D517D60293B636F6E737420 PUSH6 0x6C697A614261 PUSH20 0x65203D20617267735B335D3B636F6E7374207572 PUSH13 0x203D2060247B656C697A614261 PUSH20 0x657D2F766572696679416E73776572603B20636F PUSH15 0x7374207061796C6F6164203D204A53 0x4F 0x4E 0x2E PUSH20 0x7472696E67696679287B207175697A49643A2061 PUSH19 0x67735B305D2C207175657374696F6E49643A20 PUSH2 0x7267 PUSH20 0x5B315D2C2073656C6563746564496E6465783A20 PUSH17 0x61727365496E7428617267735B325D2C20 BALANCE ADDRESS 0x29 KECCAK256 PUSH30 0x293B20636F6E737420726573203D2061776169742046756E6374696F6E73 0x2E PUSH14 0x616B654874747052657175657374 0x28 PUSH28 0x2075726C2C206D6574686F643A2027504F5354272C20686561646572 PUSH20 0x3A207B2027436F6E74656E742D54797065273A20 0x27 PUSH2 0x7070 PUSH13 0x69636174696F6E2F6A736F6E27 KECCAK256 PUSH30 0x2C20646174613A207061796C6F6164207D293B20696620287265732E6572 PUSH19 0x6F7229207468726F77206E6577204572726F72 0x28 PUSH19 0x65732E6572726F722E6D657373616765293B20 PUSH4 0x6F6E7374 KECCAK256 PUSH4 0x6F727265 PUSH4 0x74203D20 PUSH19 0x65732E646174612E6973436F7272656374203F KECCAK256 0x27 BALANCE 0x27 KECCAK256 GASPRICE KECCAK256 0x27 ADDRESS 0x27 EXTCODESIZE KECCAK256 PUSH19 0x657475726E2046756E6374696F6E732E656E63 PUSH16 0x6465537472696E6728636F7272656374 0x29 EXTCODESIZE LOG2 PUSH5 0x6970667358 0x22 SLT KECCAK256 0xBD DUP13 0xAD 0x2C BLOCKHASH 0xA8 0xC6 0xB8 LOG2 0x2C 0x29 CODECOPY PUSH1 0x48 PUSH17 0xE0D63C32A27A6A242A742A62082032AB9 PUSH5 0x736F6C6343 STOP ADDMOD 0x1E STOP CALLER "
		},
		"gasEstimates": {
			"creation": {
				"codeDepositCost": "4411400",
				"executionCost": "infinite",
				"totalCost": "infinite"
			},
			"external": {
				"acceptOwnership()": "54531",
				"availableDomains(uint256)": "infinite",
				"cancelQuiz()": "infinite",
				"checkVRFAndGenerateQuiz(uint256)": "infinite",
				"functionsRequestToPlayer(bytes32)": "2872",
				"handleOracleFulfillment(bytes32,bytes,bytes)": "infinite",
				"owner()": "2536",
				"sessions(address)": "infinite",
				"startQuiz(string[])": "infinite",
				"submitAnswer(uint8)": "infinite",
				"transferOwnership(address)": "30759"
			},
			"internal": {
				"_areValidDomains(string calldata[] calldata)": "infinite",
				"_atoi(string memory)": "infinite",
				"_encodeDomains(string memory[] memory)": "infinite",
				"_generateSource()": "infinite",
				"_getElizaUrl()": "infinite",
				"_getSlotVersion()": "infinite",
				"_getSupabaseUrl()": "infinite",
				"_parseQuizResponse(string memory)": "infinite",
				"_selectRandomDomains(uint256,uint8)": "infinite",
				"_slice(bytes memory,uint256,uint256)": "infinite",
				"_toHexString(address)": "infinite",
				"_verifySource()": "infinite",
				"fulfillRequest(bytes32,bytes memory,bytes memory)": "infinite",
				"uint2str(uint256)": "infinite"
			}
		},
		"methodIdentifiers": {
			"acceptOwnership()": "79ba5097",
			"availableDomains(uint256)": "ad94763d",
			"cancelQuiz()": "c320c1b9",
			"checkVRFAndGenerateQuiz(uint256)": "54384fd5",
			"functionsRequestToPlayer(bytes32)": "2d8b23c8",
			"handleOracleFulfillment(bytes32,bytes,bytes)": "0ca76175",
			"owner()": "8da5cb5b",
			"sessions(address)": "431a1b97",
			"startQuiz(string[])": "2ac87aa6",
			"submitAnswer(uint8)": "ec4fd914",
			"transferOwnership(address)": "f2fde38b"
		}
	},
	"abi": [
		{
			"inputs": [
				{
					"internalType": "address",
					"name": "_quizToken",
					"type": "address"
				},
				{
					"internalType": "address",
					"name": "_vrfConsumer",
					"type": "address"
				},
				{
					"internalType": "uint64",
					"name": "_functionsSubscriptionId",
					"type": "uint64"
				}
			],
			"stateMutability": "nonpayable",
			"type": "constructor"
		},
		{
			"inputs": [],
			"name": "EmptyArgs",
			"type": "error"
		},
		{
			"inputs": [],
			"name": "EmptySource",
			"type": "error"
		},
		{
			"inputs": [],
			"name": "NoInlineSecrets",
			"type": "error"
		},
		{
			"inputs": [],
			"name": "OnlyRouterCanFulfill",
			"type": "error"
		},
		{
			"anonymous": false,
			"inputs": [
				{
					"indexed": true,
					"internalType": "address",
					"name": "player",
					"type": "address"
				},
				{
					"indexed": false,
					"internalType": "bool",
					"name": "isCorrect",
					"type": "bool"
				},
				{
					"indexed": false,
					"internalType": "uint8",
					"name": "questionIndex",
					"type": "uint8"
				}
			],
			"name": "AnswerSubmitted",
			"type": "event"
		},
		{
			"anonymous": false,
			"inputs": [
				{
					"indexed": true,
					"internalType": "address",
					"name": "from",
					"type": "address"
				},
				{
					"indexed": true,
					"internalType": "address",
					"name": "to",
					"type": "address"
				}
			],
			"name": "OwnershipTransferRequested",
			"type": "event"
		},
		{
			"anonymous": false,
			"inputs": [
				{
					"indexed": true,
					"internalType": "address",
					"name": "from",
					"type": "address"
				},
				{
					"indexed": true,
					"internalType": "address",
					"name": "to",
					"type": "address"
				}
			],
			"name": "OwnershipTransferred",
			"type": "event"
		},
		{
			"anonymous": false,
			"inputs": [
				{
					"indexed": true,
					"internalType": "address",
					"name": "player",
					"type": "address"
				},
				{
					"indexed": false,
					"internalType": "uint256",
					"name": "refundAmount",
					"type": "uint256"
				}
			],
			"name": "QuizCancelled",
			"type": "event"
		},
		{
			"anonymous": false,
			"inputs": [
				{
					"indexed": true,
					"internalType": "address",
					"name": "player",
					"type": "address"
				},
				{
					"indexed": false,
					"internalType": "uint8",
					"name": "correctCount",
					"type": "uint8"
				}
			],
			"name": "QuizCompleted",
			"type": "event"
		},
		{
			"anonymous": false,
			"inputs": [
				{
					"indexed": true,
					"internalType": "address",
					"name": "player",
					"type": "address"
				},
				{
					"indexed": false,
					"internalType": "string",
					"name": "quizId",
					"type": "string"
				},
				{
					"indexed": false,
					"internalType": "uint8",
					"name": "numQuestions",
					"type": "uint8"
				}
			],
			"name": "QuizGenerated",
			"type": "event"
		},
		{
			"anonymous": false,
			"inputs": [
				{
					"indexed": true,
					"internalType": "bytes32",
					"name": "id",
					"type": "bytes32"
				}
			],
			"name": "RequestFulfilled",
			"type": "event"
		},
		{
			"anonymous": false,
			"inputs": [
				{
					"indexed": true,
					"internalType": "bytes32",
					"name": "id",
					"type": "bytes32"
				}
			],
			"name": "RequestSent",
			"type": "event"
		},
		{
			"anonymous": false,
			"inputs": [
				{
					"indexed": true,
					"internalType": "uint256",
					"name": "requestId",
					"type": "uint256"
				},
				{
					"indexed": true,
					"internalType": "address",
					"name": "player",
					"type": "address"
				}
			],
			"name": "VRFRequestInitiated",
			"type": "event"
		},
		{
			"inputs": [],
			"name": "acceptOwnership",
			"outputs": [],
			"stateMutability": "nonpayable",
			"type": "function"
		},
		{
			"inputs": [
				{
					"internalType": "uint256",
					"name": "",
					"type": "uint256"
				}
			],
			"name": "availableDomains",
			"outputs": [
				{
					"internalType": "string",
					"name": "",
					"type": "string"
				}
			],
			"stateMutability": "view",
			"type": "function"
		},
		{
			"inputs": [],
			"name": "cancelQuiz",
			"outputs": [],
			"stateMutability": "nonpayable",
			"type": "function"
		},
		{
			"inputs": [
				{
					"internalType": "uint256",
					"name": "vrfRequestId",
					"type": "uint256"
				}
			],
			"name": "checkVRFAndGenerateQuiz",
			"outputs": [],
			"stateMutability": "nonpayable",
			"type": "function"
		},
		{
			"inputs": [
				{
					"internalType": "bytes32",
					"name": "",
					"type": "bytes32"
				}
			],
			"name": "functionsRequestToPlayer",
			"outputs": [
				{
					"internalType": "address",
					"name": "",
					"type": "address"
				}
			],
			"stateMutability": "view",
			"type": "function"
		},
		{
			"inputs": [
				{
					"internalType": "bytes32",
					"name": "requestId",
					"type": "bytes32"
				},
				{
					"internalType": "bytes",
					"name": "response",
					"type": "bytes"
				},
				{
					"internalType": "bytes",
					"name": "err",
					"type": "bytes"
				}
			],
			"name": "handleOracleFulfillment",
			"outputs": [],
			"stateMutability": "nonpayable",
			"type": "function"
		},
		{
			"inputs": [],
			"name": "owner",
			"outputs": [
				{
					"internalType": "address",
					"name": "",
					"type": "address"
				}
			],
			"stateMutability": "view",
			"type": "function"
		},
		{
			"inputs": [
				{
					"internalType": "address",
					"name": "",
					"type": "address"
				}
			],
			"name": "sessions",
			"outputs": [
				{
					"internalType": "string",
					"name": "quizId",
					"type": "string"
				},
				{
					"internalType": "uint8",
					"name": "questionIndex",
					"type": "uint8"
				},
				{
					"internalType": "uint256",
					"name": "correctCount",
					"type": "uint256"
				},
				{
					"internalType": "uint256",
					"name": "startedAt",
					"type": "uint256"
				},
				{
					"internalType": "bool",
					"name": "active",
					"type": "bool"
				},
				{
					"internalType": "uint8",
					"name": "numQuestions",
					"type": "uint8"
				},
				{
					"internalType": "uint256",
					"name": "vrfRequestId",
					"type": "uint256"
				}
			],
			"stateMutability": "view",
			"type": "function"
		},
		{
			"inputs": [
				{
					"internalType": "string[]",
					"name": "domains",
					"type": "string[]"
				}
			],
			"name": "startQuiz",
			"outputs": [],
			"stateMutability": "nonpayable",
			"type": "function"
		},
		{
			"inputs": [
				{
					"internalType": "uint8",
					"name": "selectedIndex",
					"type": "uint8"
				}
			],
			"name": "submitAnswer",
			"outputs": [],
			"stateMutability": "nonpayable",
			"type": "function"
		},
		{
			"inputs": [
				{
					"internalType": "address",
					"name": "to",
					"type": "address"
				}
			],
			"name": "transferOwnership",
			"outputs": [],
			"stateMutability": "nonpayable",
			"type": "function"
		}
	]
}